{
  "contractName": "DepositNotes10",
  "abi": [
    {
      "constant": true,
      "inputs": [
        {
          "name": "",
          "type": "bytes32"
        }
      ],
      "name": "depositPools",
      "outputs": [
        {
          "name": "mpkAddress",
          "type": "address"
        },
        {
          "name": "expiredTime",
          "type": "uint256"
        },
        {
          "name": "maxNotesNum",
          "type": "uint8"
        },
        {
          "name": "lastNotesNum",
          "type": "uint8"
        }
      ],
      "payable": false,
      "stateMutability": "view",
      "type": "function"
    },
    {
      "constant": true,
      "inputs": [],
      "name": "stake",
      "outputs": [
        {
          "name": "",
          "type": "uint256"
        }
      ],
      "payable": false,
      "stateMutability": "view",
      "type": "function"
    },
    {
      "constant": false,
      "inputs": [
        {
          "name": "a",
          "type": "uint256[2]"
        },
        {
          "name": "b",
          "type": "uint256[2][2]"
        },
        {
          "name": "c",
          "type": "uint256[2]"
        },
        {
          "name": "input",
          "type": "uint256[51]"
        }
      ],
      "name": "depositVerifyTx",
      "outputs": [
        {
          "name": "r",
          "type": "bool"
        }
      ],
      "payable": false,
      "stateMutability": "nonpayable",
      "type": "function"
    },
    {
      "constant": true,
      "inputs": [],
      "name": "cooldown",
      "outputs": [
        {
          "name": "",
          "type": "uint256"
        }
      ],
      "payable": false,
      "stateMutability": "view",
      "type": "function"
    },
    {
      "constant": true,
      "inputs": [
        {
          "name": "",
          "type": "bytes32"
        }
      ],
      "name": "notes",
      "outputs": [
        {
          "name": "",
          "type": "uint8"
        }
      ],
      "payable": false,
      "stateMutability": "view",
      "type": "function"
    },
    {
      "constant": true,
      "inputs": [
        {
          "name": "",
          "type": "bytes32"
        }
      ],
      "name": "submissions",
      "outputs": [
        {
          "name": "submitter",
          "type": "address"
        },
        {
          "name": "sType",
          "type": "uint8"
        },
        {
          "name": "submittedAt",
          "type": "uint256"
        }
      ],
      "payable": false,
      "stateMutability": "view",
      "type": "function"
    },
    {
      "constant": true,
      "inputs": [],
      "name": "dai",
      "outputs": [
        {
          "name": "",
          "type": "address"
        }
      ],
      "payable": false,
      "stateMutability": "view",
      "type": "function"
    },
    {
      "anonymous": false,
      "inputs": [
        {
          "indexed": false,
          "name": "note",
          "type": "bytes32"
        },
        {
          "indexed": false,
          "name": "state",
          "type": "uint8"
        }
      ],
      "name": "NoteStateChange",
      "type": "event"
    },
    {
      "anonymous": false,
      "inputs": [
        {
          "indexed": false,
          "name": "submitter",
          "type": "address"
        },
        {
          "indexed": false,
          "name": "proofHash",
          "type": "bytes32"
        }
      ],
      "name": "Submitted",
      "type": "event"
    },
    {
      "anonymous": false,
      "inputs": [
        {
          "indexed": false,
          "name": "mpkAddress",
          "type": "address"
        },
        {
          "indexed": false,
          "name": "poolId",
          "type": "bytes32"
        }
      ],
      "name": "Deposited",
      "type": "event"
    },
    {
      "anonymous": false,
      "inputs": [
        {
          "indexed": true,
          "name": "challenger",
          "type": "address"
        },
        {
          "indexed": false,
          "name": "proofHash",
          "type": "bytes32"
        }
      ],
      "name": "Challenged",
      "type": "event"
    },
    {
      "anonymous": false,
      "inputs": [
        {
          "indexed": false,
          "name": "s",
          "type": "string"
        }
      ],
      "name": "DepositVerified",
      "type": "event"
    },
    {
      "constant": true,
      "inputs": [
        {
          "name": "msgHash",
          "type": "bytes32"
        },
        {
          "name": "v",
          "type": "uint8"
        },
        {
          "name": "r",
          "type": "bytes32"
        },
        {
          "name": "s",
          "type": "bytes32"
        }
      ],
      "name": "recoverAddress",
      "outputs": [
        {
          "name": "",
          "type": "address"
        }
      ],
      "payable": false,
      "stateMutability": "view",
      "type": "function"
    },
    {
      "constant": true,
      "inputs": [
        {
          "name": "addr",
          "type": "address"
        },
        {
          "name": "msgHash",
          "type": "bytes32"
        },
        {
          "name": "v",
          "type": "uint8"
        },
        {
          "name": "r",
          "type": "bytes32"
        },
        {
          "name": "s",
          "type": "bytes32"
        }
      ],
      "name": "paymentTxVerify",
      "outputs": [
        {
          "name": "",
          "type": "bool"
        }
      ],
      "payable": false,
      "stateMutability": "view",
      "type": "function"
    },
    {
      "constant": false,
      "inputs": [
        {
          "name": "poolId",
          "type": "bytes32"
        },
        {
          "name": "mpkAddress",
          "type": "address"
        },
        {
          "name": "msgHash",
          "type": "bytes32"
        },
        {
          "name": "transferNotesNum",
          "type": "uint8"
        },
        {
          "name": "v",
          "type": "uint8"
        },
        {
          "name": "r",
          "type": "bytes32"
        },
        {
          "name": "s",
          "type": "bytes32"
        }
      ],
      "name": "commitPaymentTx",
      "outputs": [],
      "payable": false,
      "stateMutability": "nonpayable",
      "type": "function"
    },
    {
      "constant": false,
      "inputs": [
        {
          "name": "poolId",
          "type": "bytes32"
        }
      ],
      "name": "ClaimExpiredPool",
      "outputs": [],
      "payable": false,
      "stateMutability": "nonpayable",
      "type": "function"
    }
  ],
  "bytecode": "0x608060405234801561001057600080fd5b50613707806100206000396000f3fe608060405234801561001057600080fd5b50600436106100c6576000357c010000000000000000000000000000000000000000000000000000000090048063787a08a61161008e578063787a08a6146103ff5780638428cf831461041d57806385de26b7146104ac578063a0d1192d146104fc578063c5c9c0a21461052a578063f4b9fa75146105b4576100c6565b806308da9f78146100cb57806338cd8093146101515780633a4b66f1146101e05780636457ce44146101fe5780636b6e3f9414610378575b600080fd5b61014f600480360360e08110156100e157600080fd5b8101908080359060200190929190803573ffffffffffffffffffffffffffffffffffffffff16906020019092919080359060200190929190803560ff169060200190929190803560ff16906020019092919080359060200190929190803590602001909291905050506105fe565b005b61017d6004803603602081101561016757600080fd5b810190808035906020019092919050505061082a565b604051808573ffffffffffffffffffffffffffffffffffffffff1673ffffffffffffffffffffffffffffffffffffffff1681526020018481526020018360ff1660ff1681526020018260ff1660ff16815260200194505050505060405180910390f35b6101e8610894565b6040518082815260200191505060405180910390f35b61035e600480360361076081101561021557600080fd5b8101908080604001906002806020026040519081016040528092919082600260200280828437600081840152601f19601f82011690508083019250505050505091929192908060800190600280602002604051908101604052809291906000905b828210156102ca578382604002016002806020026040519081016040528092919082600260200280828437600081840152601f19601f82011690508083019250505050505081526020019060010190610276565b50505050919291929080604001906002806020026040519081016040528092919082600260200280828437600081840152601f19601f82011690508083019250505050505091929192908061066001906033806020026040519081016040528092919082603360200280828437600081840152601f19601f820116905080830192505050505050919291929050505061089a565b604051808215151515815260200191505060405180910390f35b6103e5600480360360a081101561038e57600080fd5b81019080803573ffffffffffffffffffffffffffffffffffffffff16906020019092919080359060200190929190803560ff1690602001909291908035906020019092919080359060200190929190505050610aff565b604051808215151515815260200191505060405180910390f35b610407610b46565b6040518082815260200191505060405180910390f35b61046a6004803603608081101561043357600080fd5b8101908080359060200190929190803560ff1690602001909291908035906020019092919080359060200190929190505050610b4c565b604051808273ffffffffffffffffffffffffffffffffffffffff1673ffffffffffffffffffffffffffffffffffffffff16815260200191505060405180910390f35b6104d8600480360360208110156104c257600080fd5b8101908080359060200190929190505050610bbf565b604051808260038111156104e857fe5b60ff16815260200191505060405180910390f35b6105286004803603602081101561051257600080fd5b8101908080359060200190929190505050610bdf565b005b6105566004803603602081101561054057600080fd5b8101908080359060200190929190505050610eb8565b604051808473ffffffffffffffffffffffffffffffffffffffff1673ffffffffffffffffffffffffffffffffffffffff16815260200183600481111561059857fe5b60ff168152602001828152602001935050505060405180910390f35b6105bc610f0f565b604051808273ffffffffffffffffffffffffffffffffffffffff1673ffffffffffffffffffffffffffffffffffffffff16815260200191505060405180910390f35b60006003600089815260200190815260200160002090508673ffffffffffffffffffffffffffffffffffffffff168160000160009054906101000a900473ffffffffffffffffffffffffffffffffffffffff1673ffffffffffffffffffffffffffffffffffffffff161415156106bf576040517f08c379a00000000000000000000000000000000000000000000000000000000081526004018080602001828103825260338152602001806136a96033913960400191505060405180910390fd5b878786604051602001808481526020018373ffffffffffffffffffffffffffffffffffffffff1673ffffffffffffffffffffffffffffffffffffffff166c010000000000000000000000000281526014018260ff1660ff167f0100000000000000000000000000000000000000000000000000000000000000028152600101935050505060405160208183030381529060405280519060200120861415156107b2576040517f08c379a00000000000000000000000000000000000000000000000000000000081526004018080602001828103825260338152602001806136a96033913960400191505060405180910390fd5b6107bf8787868686610aff565b1515610816576040517f08c379a00000000000000000000000000000000000000000000000000000000081526004018080602001828103825260238152602001806136866023913960400191505060405180910390fd5b6108208886610f35565b5050505050505050565b60036020528060005260406000206000915090508060000160009054906101000a900473ffffffffffffffffffffffffffffffffffffffff16908060010154908060020160009054906101000a900460ff16908060020160019054906101000a900460ff16905084565b60015481565b60006108a4613473565b60408051908101604052808760006002811015156108be57fe5b602002015181526020018760016002811015156108d757fe5b602002015181525081600001819052506040805190810160405280604080519081016040528088600060028110151561090c57fe5b6020020151600060028110151561091f57fe5b6020020151815260200188600060028110151561093857fe5b6020020151600160028110151561094b57fe5b60200201518152508152602001604080519081016040528088600160028110151561097257fe5b6020020151600060028110151561098557fe5b6020020151815260200188600160028110151561099e57fe5b602002015160016002811015156109b157fe5b6020020151815250815250816020018190525060408051908101604052808560006002811015156109de57fe5b602002015181526020018560016002811015156109f757fe5b6020020151815250816040018190525060606033604051908082528060200260200182016040528015610a395781602001602082028038833980820191505090505b50905060008090505b6033811015610a87578481603381101515610a5957fe5b60200201518282815181101515610a6c57fe5b90602001906020020181815250508080600101915050610a42565b506000610a948284611223565b1415610af0577f07fb15b1ebdfd9751a3925ece10a8bff6b5f6ce237f0d1385e2176fa8153eb636040518080602001828103825260228152602001806136646022913960400191505060405180910390a1600192505050610af7565b6000925050505b949350505050565b6000610b0d85858585610b4c565b73ffffffffffffffffffffffffffffffffffffffff168673ffffffffffffffffffffffffffffffffffffffff1614905095945050505050565b60005481565b600060018585858560405160008152602001604052604051808581526020018460ff1660ff1681526020018381526020018281526020019450505050506020604051602081039080840390855afa158015610bab573d6000803e3d6000fd5b505050602060405103519050949350505050565b60056020528060005260406000206000915054906101000a900460ff1681565b6000600360008381526020019081526020016000209050428160010154101515610c71576040517f08c379a000000000000000000000000000000000000000000000000000000000815260040180806020018281038252600f8152602001807f4e6f74206578706972656420796574000000000000000000000000000000000081525060200191505060405180910390fd5b60008160020160019054906101000a900460ff1660ff1690505b8160020160009054906101000a900460ff1660ff16811015610e26576002600560008460040184815481101515610cbe57fe5b9060005260206000200154815260200190815260200160002060006101000a81548160ff02191690836003811115610cf257fe5b02179055506001600560008460030184815481101515610d0e57fe5b9060005260206000200154815260200190815260200160002060006101000a81548160ff02191690836003811115610d4257fe5b02179055507f91d2faa002479f8dc4f20862402db3dba2ebe927031674997d38e5b70d9877e78260040182815481101515610d7957fe5b9060005260206000200154600260405180838152602001826003811115610d9c57fe5b60ff1681526020019250505060405180910390a17f91d2faa002479f8dc4f20862402db3dba2ebe927031674997d38e5b70d9877e78260030182815481101515610de257fe5b9060005260206000200154600160405180838152602001826003811115610e0557fe5b60ff1681526020019250505060405180910390a18080600101915050610c8b565b5060036000838152602001908152602001600020600080820160006101000a81549073ffffffffffffffffffffffffffffffffffffffff021916905560018201600090556002820160006101000a81549060ff02191690556002820160016101000a81549060ff0219169055600382016000610ea291906134a8565b600482016000610eb291906134a8565b50505050565b60046020528060005260406000206000915090508060000160009054906101000a900473ffffffffffffffffffffffffffffffffffffffff16908060000160149054906101000a900460ff16908060010154905083565b600260009054906101000a900473ffffffffffffffffffffffffffffffffffffffff1681565b600060036000848152602001908152602001600020905042816001015410151515610fc8576040517f08c379a000000000000000000000000000000000000000000000000000000000815260040180806020018281038252600f8152602001807f506f6f6c2069732065787069726564000000000000000000000000000000000081525060200191505060405180910390fd5b8060020160009054906101000a900460ff1660ff168260ff161115801561100557508060020160019054906101000a900460ff1660ff168260ff16115b151561105c576040517f08c379a000000000000000000000000000000000000000000000000000000000815260040180806020018281038252604681526020018061361e6046913960600191505060405180910390fd5b60008160020160019054906101000a900460ff1660ff1690505b8260ff1681101561120057600160056000846004018481548110151561109857fe5b9060005260206000200154815260200190815260200160002060006101000a81548160ff021916908360038111156110cc57fe5b021790555060026005600084600301848154811015156110e857fe5b9060005260206000200154815260200190815260200160002060006101000a81548160ff0219169083600381111561111c57fe5b02179055507f91d2faa002479f8dc4f20862402db3dba2ebe927031674997d38e5b70d9877e7826004018281548110151561115357fe5b906000526020600020015460016040518083815260200182600381111561117657fe5b60ff1681526020019250505060405180910390a17f91d2faa002479f8dc4f20862402db3dba2ebe927031674997d38e5b70d9877e782600301828154811015156111bc57fe5b90600052602060002001546002604051808381526020018260038111156111df57fe5b60ff1681526020019250505060405180910390a18080600101915050611076565b50818160020160016101000a81548160ff021916908360ff160217905550505050565b6000807f30644e72e131a029b85045b68181585d2833e84879b9709143e1f593f000000190506112516134c9565b6112596113ab565b9050806080015151600186510114151561127257600080fd5b61127a613512565b6040805190810160405280600081526020016000815250905060008090505b865181101561131e578387828151811015156112b157fe5b906020019060200201511015156112c757600080fd5b61130f8261130a8560800151600185018151811015156112e357fe5b906020019060200201518a858151811015156112fb57fe5b90602001906020020151612e67565b612f03565b91508080600101915050611299565b50611345818360800151600081518110151561133657fe5b90602001906020020151612f03565b905061138b8560000151866020015161135d84612fc0565b856040015161136f8a60400151612fc0565b87606001516113818960000151612fc0565b896020015161305c565b151561139d57600193505050506113a5565b600093505050505b92915050565b6113b36134c9565b60408051908101604052807f1ed79da9946f11b56739eebd69715bbd2e25ff5729f22a5c6a66a05da13a191a81526020017f0f3d7d3562bfae7b9b182baa31378442818c53518f236af47bea7d226309b95a8152508160000181905250604080519081016040528060408051908101604052807f199eaea01c7a80c7746193d62144b95f3fb5c33724eb3e49e1b2f8ba73a486b381526020017f0b4d84af9184c3252ca02f5f971b90fe93900efdf808b03ed696e727fea82fbf815250815260200160408051908101604052807f21e933dc2a5e984ca69f8452383ea2f06d8f9ff9eab57b68340238777dc0ab5481526020017f2d68b9a794081f851ab546e7b12d40425ecbd004c24b4f97901ec13d335cb37b8152508152508160200181905250604080519081016040528060408051908101604052807f14b3178b6f48c2d5ed825dd5fca853fec5155deda001ca7520ba1cb315014db881526020017f2840fb55a8f2d80c5c16c4258fbbd7cf5526a80d264c1fa8ad778ef8c65954a0815250815260200160408051908101604052807f18b08b3fa2e6be9f2da59155492c6ec8a6bb7fd35e2c3498fa5d244a8809042c81526020017f2d7ca6923359022ceabc8cc34f9191594363413b9c29269d3d95698c653f637a8152508152508160400181905250604080519081016040528060408051908101604052807f1d73a8b89eef993a52db1149768a8cb709ec7b0dbcb6f2443ccc61a4f437903381526020017f2b5e7cd3b68c1ea0facb6b06f7067792c792e7055ecbc3dd0fa64eab7a32c8b0815250815260200160408051908101604052807f0f587facfad3240307501fb092c8d6f6616058fd8c2c37b77606eeedc74143a881526020017f2db9df5074db5299c6e965a55185ad315f1334d54a14c39da486151a22f4598a8152508152508160600181905250603460405190808252806020026020018201604052801561169a57816020015b61168761352c565b81526020019060019003908161167f5790505b50816080018190525060408051908101604052807f020dd35a52a98c3eb52efabd69019ae7e99b208f6d03030bc5adfbd25d928c4581526020017f0d19803fd262b3000d91c66a28264b6d72029c3bcd237628cbc0afb24e13105f8152508160800151600081518110151561170b57fe5b9060200190602002018190525060408051908101604052807f05bbbffcc3974d50caa9cdf5a5aaa56fec577c5e1d5af2d20718328082da8e5681526020017f03fdd236a681bef3ff224e2475e29df541ce50e2fb2e0339176967533a58c0668152508160800151600181518110151561178057fe5b9060200190602002018190525060408051908101604052807f2be0f870b4d588934105eb474bcc8cdc612789298f6e46a5287863ff96593f2381526020017f25eaeea668322d932feaee991a7de2dea0edef185431a8af87f7fad0c072e806815250816080015160028151811015156117f557fe5b9060200190602002018190525060408051908101604052807f28457c0350cc19feb66404d4d411d1ce63158d95cdbd7b21aa63cfae7ecd40c581526020017f2abd1c98616800ca0b5f96e2eed30bc889fc1fd73258a4882194f8640ee48b9d8152508160800151600381518110151561186a57fe5b9060200190602002018190525060408051908101604052807f0d137ce8d9a2b5c26af81f977a1cf7a1d4db909b3a71df203ad7c5f66faef4c681526020017efa2240a55a6c68d8aaadad1ab265d44333a908b7f41ffca29e08e425d7bc94815250816080015160048151811015156118de57fe5b9060200190602002018190525060408051908101604052807f22e9b4189485d955ca8340f6efc46242d431bb4f3d1b79032dc9194c2ecb889081526020017f1c241e8037b9fbc4852de813a33c99aec7dd3f2e9e83775a17e9c4c634ecb8158152508160800151600581518110151561195357fe5b9060200190602002018190525060408051908101604052807f1aeb0dad0d37b9e3f3a31be4d3e2811019bf28eb9a3eab1d8fa192c29ae0f0a581526020017f0d9ede01e0974b2ef222fe3bb4559a357cf64283f03589c5731704179799e391815250816080015160068151811015156119c857fe5b9060200190602002018190525060408051908101604052807f24290dbaec9d3dfa22cf349309f823ae6064fc57d014e7bcddbe962794c7ea9481526020017f2ccdb477968a52b4c640aec9d311a40954a1d19bd0dd98c8fd19c69ee61b740281525081608001516007815181101515611a3d57fe5b9060200190602002018190525060408051908101604052807f1021046cd8401bbef3f49f6c267398bc5859bdb5d3764f78a83aef420d5a989081526020017f03a3358b96b2a0e97839110b5f386dbb278e8f0f997f5cf9339fbd007f13d89781525081608001516008815181101515611ab257fe5b9060200190602002018190525060408051908101604052807f0a06afc1af6f719dd380173d0523d91aca4070633baac3bf103062acdf520bf181526020017f2e7735a1f7790aefb3e85f23c82000cf3d792bf7668b899e1f55991270bc958381525081608001516009815181101515611b2757fe5b9060200190602002018190525060408051908101604052807f0d33ee0d0e82a372861d6c96359ed7a62a7449d4bb24f62ad7acba33f896adbf81526020017f092729ef8405845e16e36710a9d8385dbd5a9b05be3cbc129abe585b3162766f8152508160800151600a815181101515611b9c57fe5b9060200190602002018190525060408051908101604052807f2495200a919c6e7ccad5fca29fdb0cbf37a9498cc69c5c8e6b726a425786a75881526020017f0cb265e93bd3da95097dde1f38640fa829fc03f4ff9fcca06389b4ef32fcaa188152508160800151600b815181101515611c1157fe5b9060200190602002018190525060408051908101604052807f1104371553254e47929fe212f65697ebd63595544666a59b9b3085c5170b351781526020017f17a723f3f79ef508d17f1105f603e953dabbbc214a07ea6793aa32b2e984d5aa8152508160800151600c815181101515611c8657fe5b9060200190602002018190525060408051908101604052807f1acf9cc232331075e2032eb34019c6dc6b62bc64d675145aecd2c19eeebeb7c481526020017f024407d354a1ea81893bcd2c14e4d7d44cc5a200177a77a1ad3dd3773d9104af8152508160800151600d815181101515611cfb57fe5b9060200190602002018190525060408051908101604052807f13d6028d3db314a0b3b2c905e9a86dd70abdb5cf8dc41546442ab0a7e1229f9481526020017f105502aaffaa55bfe306d105178ac09a594e834a825928c7d55a2692c6d4e2778152508160800151600e815181101515611d7057fe5b9060200190602002018190525060408051908101604052807f044e002e3bdb31b8ef305f864df043a6e7a7507635f13e28cc782d597d2e789481526020017f12350f8ffa515b984a4001560b3f676f45540a71f5b607ef0101a4dfcabdcaf08152508160800151600f815181101515611de557fe5b9060200190602002018190525060408051908101604052807f2236070c964542f87eb497d4454b4a6043aed7a23365519266584de32ff7df7281526020017f1536f1f2bdfb14997229751232b756418c56d41bb2bef7477e739f50e8fcf45981525081608001516010815181101515611e5a57fe5b9060200190602002018190525060408051908101604052807f27306487092491d7f81246b8c4ef88d3d9bf9a14ca0096d95aafda09085e454081526020017f21893d2c6dd2e4c330fcb05d1c50291399a3297b5c8d92d0bab460fa592d175381525081608001516011815181101515611ecf57fe5b9060200190602002018190525060408051908101604052807f10332d1815729c17b8f719bfae6ae97a7f48f140804ace7ca41e9e817d9c13ae81526020017f2990e38df6aadcf78fe374ed56a239c9ff62b04a576938190e0dae278d60939b81525081608001516012815181101515611f4457fe5b9060200190602002018190525060408051908101604052807f2b47e7a80deee7fa6a5a7bdf91b0687191656c747fe873f72a139cb17571b8e981526020017f0ba81e32edb7147afad29c042b34c4846feb48ccc777a25015f7dd5f68b8d45681525081608001516013815181101515611fb957fe5b9060200190602002018190525060408051908101604052807f1f97d3e5796503da0aea4c1527cd13cf26b7bb9238d8c20b65506c5471ad2cae81526020017f02f467e0830fc04b347b2efae09f5467fee9f4e7407b6efc1882e53eb6f2fb678152508160800151601481518110151561202e57fe5b9060200190602002018190525060408051908101604052807f0c33390157ff4574f399da32262d3c56d7a5a8b1f5a48a56ffc78befcf2fa62b81526020017f0de06ab601e44377133cdc2c8e8a67941e4cd45a794d58138d52e6a5cfa3b062815250816080015160158151811015156120a357fe5b9060200190602002018190525060408051908101604052807f1027fa4252ab77e93224eba29b44566543285b8568aaa948f3482f827f5a492781526020017f12ee01a0ff4129087a4bbf857aa3da67da0910417a1a7fbe078b9525953296f18152508160800151601681518110151561211857fe5b9060200190602002018190525060408051908101604052807f0cdc2e427b121297717ff214a295972de2ef6d1fce9221f6660873e3fda5ed1d81526020017f1f7cf55de250f325d2b49e798650c69f29566557b9fa3a1647b1aa1243a53b578152508160800151601781518110151561218d57fe5b9060200190602002018190525060408051908101604052807f1d6f7e7614d58ea3e08f15cfdc9f5e8f66b45807182b9638fe2e84af1ecb0fa881526020017f214e1d7b6ee8218b3806d2d18c90235d7150833d6fbfda7fd2a67e8368876fe78152508160800151601881518110151561220257fe5b9060200190602002018190525060408051908101604052807f2378c40e775af426229fc16f5347a314c528fb71996bc9c20008a82b778551bd81526020017f06f036eeb061e76eb8b40344f5ef7f5d5c4967da31c450d37fe4af6d6be03c438152508160800151601981518110151561227757fe5b9060200190602002018190525060408051908101604052807f0f9e3bddc5de53e2a35f6894dc97ef5a5a62c8b82be5dc18100d1bc8cb2fca7d81526020017f04f691f53d1fdeafdf490118b9f498e8ac4f5ac0c84b5d7245aee9904fe2a6bc8152508160800151601a8151811015156122ec57fe5b9060200190602002018190525060408051908101604052807f09201e247155f191e96ee201917122609ef4b615565a7da536f0e4febfea50d181526020017f057589cdce6659360e347b209ccf99b5aafb36014e0956862e20e3df7155b4b08152508160800151601b81518110151561236157fe5b9060200190602002018190525060408051908101604052807f1b108b40fb7d2422fd3aaee95a51011fee46de54e10de2a6e8f3d5902520a60c81526020017f071ef42a2f2fc2a5ddff78b7aa0e38af46649cbb512cbb365d3aac580fbdee0c8152508160800151601c8151811015156123d657fe5b9060200190602002018190525060408051908101604052807f049f2058e407de6463472a4de94448198624dd9808598cb805ab86dfa60f3b7b81526020017f056a0cfc235dc494dfd0d589dd3f61ac17f615090a1dcfa980362058afe53f6c8152508160800151601d81518110151561244b57fe5b9060200190602002018190525060408051908101604052807f2af0324978a494f6494699320fbf4d4dfa21127836bf85b3aed382c6a273257181526020017f02c645bbf22a5ef46155d77dfd1a94e31d12d3aab961f4b4ad935d712d7da0cd8152508160800151601e8151811015156124c057fe5b9060200190602002018190525060408051908101604052807f2b50e6c9cebd2d6ab8f5dd71af661277fdca7687d6981eb26742477696fd8a1a81526020017f0b232bd48cc7eb5b82e23ef8ef9b6593835affcdbf47009455c5d53908d037c48152508160800151601f81518110151561253557fe5b9060200190602002018190525060408051908101604052807f2688d8f571365ddde076c15df79734305df770b3f58ece06cdbeef380a9a3f0381526020017f27cb630ae0c4b42e6b24ba2d2f05098a56aea08ba3a241f6649c876aa81ac050815250816080015160208151811015156125aa57fe5b9060200190602002018190525060408051908101604052807f095351dcf3408b426797489497b9d4ccdd15cc56a49b232fd0c14a9fa25af05f81526020017f22d48f590a800ab3286d011ee2f0e58d235ba10116845550ef79f9dae19ac2ca8152508160800151602181518110151561261f57fe5b9060200190602002018190525060408051908101604052807f2b3a7bd8e3799169e414de6761e340372497672f7e220a999ffe61de834d622a81526020017e87d2cb4e3570bc86e027a3acd5cf75a5c3b56bd3408bba5e99a56c545a7e668152508160800151602281518110151561269357fe5b9060200190602002018190525060408051908101604052807f16dbfb84c1db0e48e9c32b2d6bc711b9432b78574694e9e5ec1095e45255865281526020017f293ea489cf6abdc6a3a6c3a036567fa15d13337a8119cb50735fe0ebc0758c0a8152508160800151602381518110151561270857fe5b9060200190602002018190525060408051908101604052807f1f8ff4bb55f15eaebd891b351f75768e680efdaf63417dcfaa7477c746c780d681526020017f1e3261fb3d3411f25d32d4012449224992c9ef6a879d97b43947765cb83fe22f8152508160800151602481518110151561277d57fe5b9060200190602002018190525060408051908101604052807f2b3fd5b94c35676c51122e5f8f075792c20dc673ccd20bd282e389df0b842a5781526020017f02c1d8c0a02485db4450c7ca2330745cb981cb7043745b8443d3807eb005acad815250816080015160258151811015156127f257fe5b9060200190602002018190525060408051908101604052807f1718344fb824d587ace64b9271131c5bdf2f087eb5ad5dc6cacfe8281c76a24f81526020017f1d23676f73ff432ed8974c148f368d4414b9983b9644580af4b615deb8c0a8f78152508160800151602681518110151561286757fe5b9060200190602002018190525060408051908101604052807f1a94d7719ca8c1c399cc13bb828f43fac821ba19fb65a504d23882dabcc92b3281526020017f2bdf62902d748469ec79e180527e8280aea92f8e13ed2df3ba963751c82debd6815250816080015160278151811015156128dc57fe5b9060200190602002018190525060408051908101604052807f27a1f82f0e9e65aee0e1e5ab0be0eec1d9cb61012a0236b1982614ce68d9688c81526020017f1a376b601792d2b93e428854b69bb1875b434174e747d29633aafc39379076d38152508160800151602881518110151561295157fe5b9060200190602002018190525060408051908101604052807f209eedb4423f4f16bff5148cffde466375b6e7d71367bcc28362ef3c7ffc47d581526020017f08c28b7c932d2f9699ee9adc9c623765294097de430c2987b8d7de565e279aba815250816080015160298151811015156129c657fe5b9060200190602002018190525060408051908101604052807f16d383db5c33fdc5f5c3f7ea99e985a16c4e284bf7d8059e5878163e099ab03781526020017f07e025196e49d715f708aee207d2f524324a52e1e50aa07c63f343dfeb88fd468152508160800151602a815181101515612a3b57fe5b9060200190602002018190525060408051908101604052807f04dc51787bbd24d00891321cc78c4735abc3cc9c3178426435533d7b2dfb07b081526020017f2ed4e9cb67904ecf3268162f0b70acd1133274feceaa17a10553af1fb32584928152508160800151602b815181101515612ab057fe5b9060200190602002018190525060408051908101604052807f2b59c1408b113513f82a3eeed15946172e74e6dfdeb0b5a6275d8804f6a8c86781526020017f05a5ab42d20271b3e785af035508ba1ca274d9cd315827580b765b73f633e31f8152508160800151602c815181101515612b2557fe5b9060200190602002018190525060408051908101604052807f1b28adedaa659462b47e9a8e5966f575b711a97b371669211cb20d6c66e5618181526020017f144b7938bf96b1473df67e67cc6cd0a90bcfc34ee8f2e4a95cff6b1d44a4577f8152508160800151602d815181101515612b9a57fe5b9060200190602002018190525060408051908101604052807f0663822e5aaf55ea23f8170fa9b37025379b98fd9410904ffce0ace15c40026f81526020017f0b8da81ad2b0074e5f1b9932d3e5c778ff0c54d60eb71cd5b7d1b16ef2b1d96e8152508160800151602e815181101515612c0f57fe5b9060200190602002018190525060408051908101604052807f13a3913c13908e82f4f6834c32450cf920d22de586d983c12b498ddd3c7e89de81526020017f2679b28b571453e5b726a32388fdd67aa06511b3038ae0a28e2949a38c0fdde28152508160800151602f815181101515612c8457fe5b9060200190602002018190525060408051908101604052807f1a435b9387deacbb4c7d1e6eec27451bcbdb5f7de44a6cdbbbfc4f4d2946baee81526020017f2393035359746610a0e5abeb8bdc1be3dfdc0c39fb83cf084cd544f38cce05c381525081608001516030815181101515612cf957fe5b9060200190602002018190525060408051908101604052807f03faf1fd4ddbd817e7c8aa51396549672bd4931898d1eb1877832dc8593eac8381526020017f26b0850e5fa0e7000c1b4a9f33e2ce955b97ac985e4d68793cb43b5112f93e9181525081608001516031815181101515612d6e57fe5b9060200190602002018190525060408051908101604052807f1f14ca2c3bb374f6a3ef621c8e59bd3dc6c4cbb000000b0de43f8035447a01fe81526020017e92f7fad599d907361fcb11b044093faa60cba3dbc2daea72091777735e1ee281525081608001516032815181101515612de257fe5b9060200190602002018190525060408051908101604052807f1b9b405f3d1ee1417be36dfb2c60cd72272f2caf67c40fc15e9569bc30edc93781526020017f0cbe7a4459cfc4eb517693a3d7016f1b5fe3906960fe520286219d8c9854475081525081608001516033815181101515612e5757fe5b9060200190602002018190525090565b612e6f613512565b612e77613546565b8360000151816000600381101515612e8b57fe5b6020020181815250508360200151816001600381101515612ea857fe5b60200201818152505082816002600381101515612ec157fe5b6020020181815250506000606083608084600060076107d05a03f190508060008114612eec57612eee565bfe5b50801515612efb57600080fd5b505092915050565b612f0b613512565b612f13613569565b8360000151816000600481101515612f2757fe5b6020020181815250508360200151816001600481101515612f4457fe5b6020020181815250508260000151816002600481101515612f6157fe5b6020020181815250508260200151816003600481101515612f7e57fe5b602002018181525050600060608360c084600060066107d05a03f190508060008114612fa957612fab565bfe5b50801515612fb857600080fd5b505092915050565b612fc8613512565b60007f30644e72e131a029b85045b68181585d97816a916871ca8d3c208c16d87cfd47905060008360000151148015613005575060008360200151145b15613029576040805190810160405280600081526020016000815250915050613057565b60408051908101604052808460000151815260200182856020015181151561304d57fe5b0683038152509150505b919050565b60006060600460405190808252806020026020018201604052801561309b57816020015b61308861352c565b8152602001906001900390816130805790505b509050606060046040519080825280602002602001820160405280156130db57816020015b6130c861358c565b8152602001906001900390816130c05790505b5090508a8260008151811015156130ee57fe5b906020019060200201819052508882600181518110151561310b57fe5b906020019060200201819052508682600281518110151561312857fe5b906020019060200201819052508482600381518110151561314557fe5b906020019060200201819052508981600081518110151561316257fe5b906020019060200201819052508781600181518110151561317f57fe5b906020019060200201819052508581600281518110151561319c57fe5b90602001906020020181905250838160038151811015156131b957fe5b906020019060200201819052506131d082826131e0565b9250505098975050505050505050565b6000815183511415156131f257600080fd5b60008351905060006006820290506060816040519080825280602002602001820160405280156132315781602001602082028038833980820191505090505b50905060008090505b8381101561340f57868181518110151561325057fe5b9060200190602002015160000151826000600684020181518110151561327257fe5b9060200190602002018181525050868181518110151561328e57fe5b906020019060200201516020015182600160068402018151811015156132b057fe5b906020019060200201818152505085818151811015156132cc57fe5b906020019060200201516000015160006002811015156132e857fe5b6020020151826002600684020181518110151561330157fe5b9060200190602002018181525050858181518110151561331d57fe5b9060200190602002015160000151600160028110151561333957fe5b6020020151826003600684020181518110151561335257fe5b9060200190602002018181525050858181518110151561336e57fe5b9060200190602002015160200151600060028110151561338a57fe5b602002015182600460068402018151811015156133a357fe5b906020019060200201818152505085818151811015156133bf57fe5b906020019060200201516020015160016002811015156133db57fe5b602002015182600560068402018151811015156133f457fe5b9060200190602002018181525050808060010191505061323a565b506134186135b3565b60006020826020860260208601600060086107d05a03f19050806000811461343f57613441565bfe5b5080151561344e57600080fd5b600082600060018110151561345f57fe5b602002015114159550505050505092915050565b6101006040519081016040528061348861352c565b815260200161349561358c565b81526020016134a261352c565b81525090565b50805460008255906000526020600020908101906134c691906135d6565b50565b6101e0604051908101604052806134de61352c565b81526020016134eb61358c565b81526020016134f861358c565b815260200161350561358c565b8152602001606081525090565b604080519081016040528060008152602001600081525090565b604080519081016040528060008152602001600081525090565b606060405190810160405280600390602082028038833980820191505090505090565b608060405190810160405280600490602082028038833980820191505090505090565b6080604051908101604052806135a06135fb565b81526020016135ad6135fb565b81525090565b602060405190810160405280600190602082028038833980820191505090505090565b6135f891905b808211156135f45760008160009055506001016135dc565b5090565b90565b604080519081016040528060029060208202803883398082019150509050509056fe7472616e736665724e6f7465734e756d206973206c6f776572207468616e206c6173744e6f7465734e756d206f7220626967676572207468616e206d61784e6f7465734e756d5472616e73616374696f6e207375636365737366756c6c792076657269666965642e546865207369676e20646f6573206e6f74206d61746368206d706b20416464726573736d706b204164647265737320646f6573206e6f74206d61746368206d706b206164647265737320696e207061796d656e745478a165627a7a7230582090c9e1d92276271d0978cf6b128caf44e3b83382b0f1518392457307be388b610029",
  "source": "pragma solidity ^0.5.2;\n\nimport \"./verifiers/DepositNote10Verifier.sol\";\nimport \"./ZkDaiBase.sol\";\n\n\ncontract DepositNotes10 is DepositNote10Verifier, ZkDaiBase {\n  uint8 internal constant NUM_PUBLIC_INPUTS = 51;\n  uint8 internal constant NUM_DEPOSIT_NOTES = 10*2; //deposit_note_num * 2 (sender and receiver)\n  uint8 internal constant NUM_ALL_NOTES = 2 + NUM_DEPOSIT_NOTES; //2 (original note + change note) + deposit notes\n  uint8 internal constant MPK_INDEX = (NUM_DEPOSIT_NOTES+2)*2; // (NUM_DEPOSIT_NOTES + original note + change note) * 2 (2 public input is needed for one note hash value)\n  /**\n  * @dev Hashes the submitted proof and adds it to the submissions mapping that tracks\n  *      submission time, type, public inputs of the zkSnark and the submitter\n  */\n  function submit(\n      uint256[2] memory a,\n      uint256[2][2] memory b,\n      uint256[2] memory c,\n      uint256[NUM_PUBLIC_INPUTS] memory input)\n    internal\n  {\n      bytes32 proofHash = getProofHash(a, b, c);\n      uint256[] memory publicInput = new uint256[](NUM_PUBLIC_INPUTS);\n      for(uint8 i = 0; i < NUM_PUBLIC_INPUTS; i++) {\n        publicInput[i] = input[i];\n      }\n      submissions[proofHash] = Submission(msg.sender, SubmissionType.Deposit, now, publicInput);\n      emit Submitted(msg.sender, proofHash);\n  }\n\n  /**\n  * @dev Commits the proof i.e. Marks the input note as Spent and mints two new output notes that came with the proof.\n  * @param proofHash Hash of the proof to be committed\n  */\n  function depositCommit(bytes32 proofHash)\n    internal\n  {\n      Submission storage submission = submissions[proofHash];\n      bytes32[NUM_ALL_NOTES] memory _notes = getALLNotes_10(submission.publicInput);\n\n      // check that the first note (among public params) is committed and\n      require(notes[_notes[0]] == State.Committed, \"Note is either invalid or already spent\");\n      // check that the deposit notes is already minted.\n      for(uint i=1; i<NUM_ALL_NOTES; i++){\n        require(notes[_notes[i]] == State.Invalid, \"New note is already minted\");\n      }\n\n      notes[_notes[0]] = State.Spent; // Change the state of an original note.\n      for(uint i=1; i<NUM_DEPOSIT_NOTES; i++){\n        notes[_notes[i]] = State.Deposit;\n      }\n      notes[_notes[NUM_ALL_NOTES-1]] = State.Committed; // Change the state of a \"change note\".\n\n      delete submissions[proofHash];\n      submission.submitter.transfer(stake);\n\n      emit NoteStateChange(_notes[0], State.Spent);\n      for(uint i=1; i<NUM_DEPOSIT_NOTES; i++){\n        emit NoteStateChange(_notes[i], State.Deposit);\n      }\n      emit NoteStateChange(_notes[NUM_ALL_NOTES-1], State.Committed);\n\n      bytes32 poolId = keccak256(abi.encodePacked(_notes[0],now));\n\n      //Testing for getMpkAddress function is needed.\n      address mpkAddress = getMpkAddress(submission.publicInput[MPK_INDEX],submission.publicInput[MPK_INDEX+1],submission.publicInput[MPK_INDEX+2],submission.publicInput[MPK_INDEX+3]); //needs to be modified\n\n      bytes32[] memory senderNotes = new bytes32[](NUM_DEPOSIT_NOTES/2);\n      for(uint i =0; i< NUM_DEPOSIT_NOTES/2; i++){\n        senderNotes[i] = _notes[i+1];\n      }\n      bytes32[] memory receiverNotes = new bytes32[](NUM_DEPOSIT_NOTES/2);\n      for(uint i = 0; i< NUM_DEPOSIT_NOTES/2; i++) {\n        receiverNotes[i] = _notes[i+NUM_DEPOSIT_NOTES/2+1];\n      }\n      uint expectedTime = 5 minutes;\n      depositPools[poolId] = DepositPool(mpkAddress, now + expectedTime, NUM_DEPOSIT_NOTES/2, 0, senderNotes, receiverNotes);\n  }\n\n  function getALLNotes_10(uint256[] memory input)\n    internal\n    pure\n    returns(bytes32[NUM_ALL_NOTES] memory notes)\n  {\n      for(uint i=0; i<NUM_ALL_NOTES; i++){\n        notes[i] = calcNoteHash(input[i*2], input[i*2+1]);\n      }\n  }\n\n  /**\n  * @dev Challenge the proof for spend step\n  * @notice params: a, a_p, b, b_p, c, c_p, h, k zkSnark parameters of the challenged proof\n  * @param proofHash Hash of the proof\n  */\n  function challenge(\n      uint256[2] memory a,\n      uint256[2][2] memory b,\n      uint256[2] memory c,\n      bytes32 proofHash)\n    internal\n  {\n      Submission storage submission = submissions[proofHash];\n      uint256[NUM_PUBLIC_INPUTS] memory input;\n      for(uint i = 0; i < NUM_PUBLIC_INPUTS; i++) {\n        input[i] = submission.publicInput[i];\n      }\n      if (!depositVerifyTx(a, b, c, input)) {\n        // challenge passed\n        delete submissions[proofHash];\n        msg.sender.transfer(stake);\n        emit Challenged(msg.sender, proofHash);\n      } else {\n        // challenge failed\n        depositCommit(proofHash);\n      }\n  }\n\n   /* Commit paymentTx */\n  function recoverAddress(bytes32 msgHash, uint8 v, bytes32 r, bytes32 s) public view returns (address) {\n      return ecrecover(msgHash, v, r, s);\n  }\n\n  function paymentTxVerify(address addr, bytes32 msgHash, uint8 v, bytes32 r, bytes32 s) public view returns (bool) {\n    return addr == recoverAddress(msgHash, v, r, s);\n  }\n\n  function commitDepositNotes(bytes32 poolId, uint8 transferNotesNum) internal {\n    DepositPool storage dp = depositPools[poolId];\n    require(dp.expiredTime >= now ,\"Pool is expired\");\n    require((transferNotesNum <= dp.maxNotesNum) && (transferNotesNum > dp.lastNotesNum), \"transferNotesNum is lower than lastNotesNum or bigger than maxNotesNum\");\n\n    //change recevier's deposit notes' state to avaliable\n    //and change sender's deposit notes' state to spent\n    //The number of notes changed = transferNotesNum - lastNotesNum\n    for(uint i = dp.lastNotesNum; i < transferNotesNum; i++){\n      notes[dp.receiverNotes[i]] = State.Committed;\n      notes[dp.senderNotes[i]] = State.Spent;\n      emit NoteStateChange(dp.receiverNotes[i], State.Committed);\n      emit NoteStateChange(dp.senderNotes[i], State.Spent);\n    }\n    dp.lastNotesNum = transferNotesNum;\n  }\n\n  function commitPaymentTx(bytes32 poolId, address mpkAddress, bytes32 msgHash, uint8 transferNotesNum, uint8 v, bytes32 r, bytes32 s) public {\n    DepositPool storage dp = depositPools[poolId];\n    require(dp.mpkAddress == mpkAddress, \"mpk Address does not match mpk address in paymentTx\");\n    require(msgHash == keccak256(abi.encodePacked(poolId,mpkAddress,transferNotesNum)), \"mpk Address does not match mpk address in paymentTx\");\n    require(paymentTxVerify(mpkAddress, msgHash, v, r, s),\"The sign does not match mpk Address\");\n    commitDepositNotes(poolId, transferNotesNum);\n  }\n\n  //check Pool is expired. If pool is expired, then change the remain sender notes' state to avaliable. Also change the remain reciever notes' state to spent(unavailable).\n  function ClaimExpiredPool(bytes32 poolId) public { //ClaimExpiredPool\n\n    DepositPool storage dp = depositPools[poolId];\n    require(dp.expiredTime < now, \"Not expired yet\");\n\n    //If pool is expired, then return change to sender\n    for(uint i = dp.lastNotesNum; i < dp.maxNotesNum; i++){\n      notes[dp.receiverNotes[i]] = State.Spent;\n      notes[dp.senderNotes[i]] = State.Committed;\n      emit NoteStateChange(dp.receiverNotes[i], State.Spent);\n      emit NoteStateChange(dp.senderNotes[i], State.Committed);\n    }\n\n    delete depositPools[poolId];\n  }\n}\n",
  "sourcePath": "/home/boo/work/LightningZKP/contracts/DepositNotes10.sol",
  "compiler": {
    "name": "solc",
    "version": "0.5.2+commit.1df8f40c.Emscripten.clang"
  },
  "schemaVersion": "3.0.16",
  "updatedAt": "2019-10-17T09:14:00.753Z",
  "devdoc": {
    "methods": {}
  },
  "userdoc": {
    "methods": {}
  }
}