{
  "contractName": "DepositNotes",
  "abi": [
    {
      "constant": true,
      "inputs": [
        {
          "name": "",
          "type": "bytes32"
        }
      ],
      "name": "depositPools",
      "outputs": [
        {
          "name": "mpkAddress",
          "type": "address"
        },
        {
          "name": "targetAddress",
          "type": "address"
        },
        {
          "name": "expiredTime",
          "type": "uint256"
        },
        {
          "name": "maxNotesNum",
          "type": "uint8"
        },
        {
          "name": "lastNotesNum",
          "type": "uint8"
        }
      ],
      "payable": false,
      "stateMutability": "view",
      "type": "function"
    },
    {
      "constant": true,
      "inputs": [],
      "name": "stake",
      "outputs": [
        {
          "name": "",
          "type": "uint256"
        }
      ],
      "payable": false,
      "stateMutability": "view",
      "type": "function"
    },
    {
      "constant": true,
      "inputs": [],
      "name": "cooldown",
      "outputs": [
        {
          "name": "",
          "type": "uint256"
        }
      ],
      "payable": false,
      "stateMutability": "view",
      "type": "function"
    },
    {
      "constant": true,
      "inputs": [
        {
          "name": "",
          "type": "bytes32"
        }
      ],
      "name": "notes",
      "outputs": [
        {
          "name": "",
          "type": "uint8"
        }
      ],
      "payable": false,
      "stateMutability": "view",
      "type": "function"
    },
    {
      "constant": true,
      "inputs": [
        {
          "name": "",
          "type": "bytes32"
        }
      ],
      "name": "submissions",
      "outputs": [
        {
          "name": "submitter",
          "type": "address"
        },
        {
          "name": "sType",
          "type": "uint8"
        },
        {
          "name": "submittedAt",
          "type": "uint256"
        }
      ],
      "payable": false,
      "stateMutability": "view",
      "type": "function"
    },
    {
      "constant": true,
      "inputs": [],
      "name": "dai",
      "outputs": [
        {
          "name": "",
          "type": "address"
        }
      ],
      "payable": false,
      "stateMutability": "view",
      "type": "function"
    },
    {
      "constant": false,
      "inputs": [
        {
          "name": "a",
          "type": "uint256[2]"
        },
        {
          "name": "b",
          "type": "uint256[2][2]"
        },
        {
          "name": "c",
          "type": "uint256[2]"
        },
        {
          "name": "input",
          "type": "uint256[15]"
        }
      ],
      "name": "depositVerifyTx",
      "outputs": [
        {
          "name": "r",
          "type": "bool"
        }
      ],
      "payable": false,
      "stateMutability": "nonpayable",
      "type": "function"
    },
    {
      "anonymous": false,
      "inputs": [
        {
          "indexed": false,
          "name": "note",
          "type": "bytes32"
        },
        {
          "indexed": false,
          "name": "state",
          "type": "uint8"
        }
      ],
      "name": "NoteStateChange",
      "type": "event"
    },
    {
      "anonymous": false,
      "inputs": [
        {
          "indexed": false,
          "name": "submitter",
          "type": "address"
        },
        {
          "indexed": false,
          "name": "proofHash",
          "type": "bytes32"
        }
      ],
      "name": "Submitted",
      "type": "event"
    },
    {
      "anonymous": false,
      "inputs": [
        {
          "indexed": true,
          "name": "challenger",
          "type": "address"
        },
        {
          "indexed": false,
          "name": "proofHash",
          "type": "bytes32"
        }
      ],
      "name": "Challenged",
      "type": "event"
    },
    {
      "anonymous": false,
      "inputs": [
        {
          "indexed": false,
          "name": "s",
          "type": "string"
        }
      ],
      "name": "DepositVerified",
      "type": "event"
    },
    {
      "constant": true,
      "inputs": [
        {
          "name": "msgHash",
          "type": "bytes32"
        },
        {
          "name": "v",
          "type": "uint8"
        },
        {
          "name": "r",
          "type": "bytes32"
        },
        {
          "name": "s",
          "type": "bytes32"
        }
      ],
      "name": "recoverAddress",
      "outputs": [
        {
          "name": "",
          "type": "address"
        }
      ],
      "payable": false,
      "stateMutability": "view",
      "type": "function"
    },
    {
      "constant": true,
      "inputs": [
        {
          "name": "addr",
          "type": "address"
        },
        {
          "name": "msgHash",
          "type": "bytes32"
        },
        {
          "name": "v",
          "type": "uint8"
        },
        {
          "name": "r",
          "type": "bytes32"
        },
        {
          "name": "s",
          "type": "bytes32"
        }
      ],
      "name": "paymentTxVerify",
      "outputs": [
        {
          "name": "",
          "type": "bool"
        }
      ],
      "payable": false,
      "stateMutability": "view",
      "type": "function"
    },
    {
      "constant": false,
      "inputs": [
        {
          "name": "poolId",
          "type": "bytes32"
        }
      ],
      "name": "Pool",
      "outputs": [],
      "payable": false,
      "stateMutability": "nonpayable",
      "type": "function"
    },
    {
      "constant": false,
      "inputs": [
        {
          "name": "poolId",
          "type": "bytes32"
        },
        {
          "name": "mpkAddress",
          "type": "address"
        },
        {
          "name": "msgHash",
          "type": "bytes32"
        },
        {
          "name": "transferNotesNum",
          "type": "uint8"
        },
        {
          "name": "v",
          "type": "uint8"
        },
        {
          "name": "r",
          "type": "bytes32"
        },
        {
          "name": "s",
          "type": "bytes32"
        }
      ],
      "name": "commitPaymentTx",
      "outputs": [],
      "payable": false,
      "stateMutability": "nonpayable",
      "type": "function"
    }
  ],
  "bytecode": "0x608060405234801561001057600080fd5b50612716806100206000396000f3fe608060405234801561001057600080fd5b50600436106100c6576000357c0100000000000000000000000000000000000000000000000000000000900480638428cf831161008e5780638428cf83146102d657806385de26b714610365578063922237b9146103b5578063c5c9c0a2146103e3578063f4b9fa751461046d578063fd6b56f2146104b7576100c6565b806308da9f78146100cb57806338cd8093146101515780633a4b66f1146102135780636b6e3f9414610231578063787a08a6146102b8575b600080fd5b61014f600480360360e08110156100e157600080fd5b8101908080359060200190929190803573ffffffffffffffffffffffffffffffffffffffff16906020019092919080359060200190929190803560ff169060200190929190803560ff1690602001909291908035906020019092919080359060200190929190505050610631565b005b61017d6004803603602081101561016757600080fd5b810190808035906020019092919050505061085d565b604051808673ffffffffffffffffffffffffffffffffffffffff1673ffffffffffffffffffffffffffffffffffffffff1681526020018573ffffffffffffffffffffffffffffffffffffffff1673ffffffffffffffffffffffffffffffffffffffff1681526020018481526020018360ff1660ff1681526020018260ff1660ff1681526020019550505050505060405180910390f35b61021b6108ed565b6040518082815260200191505060405180910390f35b61029e600480360360a081101561024757600080fd5b81019080803573ffffffffffffffffffffffffffffffffffffffff16906020019092919080359060200190929190803560ff16906020019092919080359060200190929190803590602001909291905050506108f3565b604051808215151515815260200191505060405180910390f35b6102c061093a565b6040518082815260200191505060405180910390f35b610323600480360360808110156102ec57600080fd5b8101908080359060200190929190803560ff1690602001909291908035906020019092919080359060200190929190505050610940565b604051808273ffffffffffffffffffffffffffffffffffffffff1673ffffffffffffffffffffffffffffffffffffffff16815260200191505060405180910390f35b6103916004803603602081101561037b57600080fd5b81019080803590602001909291905050506109b3565b604051808260038111156103a157fe5b60ff16815260200191505060405180910390f35b6103e1600480360360208110156103cb57600080fd5b81019080803590602001909291905050506109d3565b005b61040f600480360360208110156103f957600080fd5b8101908080359060200190929190505050610cd3565b604051808473ffffffffffffffffffffffffffffffffffffffff1673ffffffffffffffffffffffffffffffffffffffff16815260200183600481111561045157fe5b60ff168152602001828152602001935050505060405180910390f35b610475610d2a565b604051808273ffffffffffffffffffffffffffffffffffffffff1673ffffffffffffffffffffffffffffffffffffffff16815260200191505060405180910390f35b61061760048036036102e08110156104ce57600080fd5b8101908080604001906002806020026040519081016040528092919082600260200280828437600081840152601f19601f82011690508083019250505050505091929192908060800190600280602002604051908101604052809291906000905b82821015610583578382604002016002806020026040519081016040528092919082600260200280828437600081840152601f19601f8201169050808301925050505050508152602001906001019061052f565b50505050919291929080604001906002806020026040519081016040528092919082600260200280828437600081840152601f19601f8201169050808301925050505050509192919290806101e00190600f806020026040519081016040528092919082600f60200280828437600081840152601f19601f8201169050808301925050505050509192919290505050610d50565b604051808215151515815260200191505060405180910390f35b60006003600089815260200190815260200160002090508673ffffffffffffffffffffffffffffffffffffffff168160000160009054906101000a900473ffffffffffffffffffffffffffffffffffffffff1673ffffffffffffffffffffffffffffffffffffffff161415156106f2576040517f08c379a00000000000000000000000000000000000000000000000000000000081526004018080602001828103825260338152602001806126b86033913960400191505060405180910390fd5b878786604051602001808481526020018373ffffffffffffffffffffffffffffffffffffffff1673ffffffffffffffffffffffffffffffffffffffff166c010000000000000000000000000281526014018260ff1660ff167f0100000000000000000000000000000000000000000000000000000000000000028152600101935050505060405160208183030381529060405280519060200120861415156107e5576040517f08c379a00000000000000000000000000000000000000000000000000000000081526004018080602001828103825260338152602001806126b86033913960400191505060405180910390fd5b6107f287878686866108f3565b1515610849576040517f08c379a00000000000000000000000000000000000000000000000000000000081526004018080602001828103825260238152602001806126956023913960400191505060405180910390fd5b6108538886610fb5565b5050505050505050565b60036020528060005260406000206000915090508060000160009054906101000a900473ffffffffffffffffffffffffffffffffffffffff16908060010160009054906101000a900473ffffffffffffffffffffffffffffffffffffffff16908060020154908060030160009054906101000a900460ff16908060030160019054906101000a900460ff16905085565b60015481565b600061090185858585610940565b73ffffffffffffffffffffffffffffffffffffffff168673ffffffffffffffffffffffffffffffffffffffff1614905095945050505050565b60005481565b600060018585858560405160008152602001604052604051808581526020018460ff1660ff1681526020018381526020018281526020019450505050506020604051602081039080840390855afa15801561099f573d6000803e3d6000fd5b505050602060405103519050949350505050565b60056020528060005260406000206000915054906101000a900460ff1681565b6000600360008381526020019081526020016000209050428160020154101515610a65576040517f08c379a000000000000000000000000000000000000000000000000000000000815260040180806020018281038252600f8152602001807f4e6f74206578706972656420796574000000000000000000000000000000000081525060200191505060405180910390fd5b60008160030160019054906101000a900460ff1660ff1690505b8160030160009054906101000a900460ff1660ff16811015610c1a576002600560008460050184815481101515610ab257fe5b9060005260206000200154815260200190815260200160002060006101000a81548160ff02191690836003811115610ae657fe5b02179055506001600560008460040184815481101515610b0257fe5b9060005260206000200154815260200190815260200160002060006101000a81548160ff02191690836003811115610b3657fe5b02179055507f91d2faa002479f8dc4f20862402db3dba2ebe927031674997d38e5b70d9877e78260050182815481101515610b6d57fe5b9060005260206000200154600260405180838152602001826003811115610b9057fe5b60ff1681526020019250505060405180910390a17f91d2faa002479f8dc4f20862402db3dba2ebe927031674997d38e5b70d9877e78260040182815481101515610bd657fe5b9060005260206000200154600160405180838152602001826003811115610bf957fe5b60ff1681526020019250505060405180910390a18080600101915050610a7f565b5060036000838152602001908152602001600020600080820160006101000a81549073ffffffffffffffffffffffffffffffffffffffff02191690556001820160006101000a81549073ffffffffffffffffffffffffffffffffffffffff021916905560028201600090556003820160006101000a81549060ff02191690556003820160016101000a81549060ff0219169055600482016000610cbd9190612482565b600582016000610ccd9190612482565b50505050565b60046020528060005260406000206000915090508060000160009054906101000a900473ffffffffffffffffffffffffffffffffffffffff16908060000160149054906101000a900460ff16908060010154905083565b600260009054906101000a900473ffffffffffffffffffffffffffffffffffffffff1681565b6000610d5a6124a3565b6040805190810160405280876000600281101515610d7457fe5b60200201518152602001876001600281101515610d8d57fe5b6020020151815250816000018190525060408051908101604052806040805190810160405280886000600281101515610dc257fe5b60200201516000600281101515610dd557fe5b60200201518152602001886000600281101515610dee57fe5b60200201516001600281101515610e0157fe5b602002015181525081526020016040805190810160405280886001600281101515610e2857fe5b60200201516000600281101515610e3b57fe5b60200201518152602001886001600281101515610e5457fe5b60200201516001600281101515610e6757fe5b602002015181525081525081602001819052506040805190810160405280856000600281101515610e9457fe5b60200201518152602001856001600281101515610ead57fe5b602002015181525081604001819052506060600f604051908082528060200260200182016040528015610eef5781602001602082028038833980820191505090505b50905060008090505b600f811015610f3d578481600f81101515610f0f57fe5b60200201518282815181101515610f2257fe5b90602001906020020181815250508080600101915050610ef8565b506000610f4a82846112a3565b1415610fa6577f07fb15b1ebdfd9751a3925ece10a8bff6b5f6ce237f0d1385e2176fa8153eb636040518080602001828103825260228152602001806126736022913960400191505060405180910390a1600192505050610fad565b6000925050505b949350505050565b600060036000848152602001908152602001600020905042816002015410151515611048576040517f08c379a000000000000000000000000000000000000000000000000000000000815260040180806020018281038252600f8152602001807f506f6f6c2069732065787069726564000000000000000000000000000000000081525060200191505060405180910390fd5b8060030160009054906101000a900460ff1660ff168260ff161115801561108557508060030160019054906101000a900460ff1660ff168260ff16115b15156110dc576040517f08c379a000000000000000000000000000000000000000000000000000000000815260040180806020018281038252604681526020018061262d6046913960600191505060405180910390fd5b60008160030160019054906101000a900460ff1660ff1690505b8260ff1681101561128057600160056000846005018481548110151561111857fe5b9060005260206000200154815260200190815260200160002060006101000a81548160ff0219169083600381111561114c57fe5b0217905550600260056000846004018481548110151561116857fe5b9060005260206000200154815260200190815260200160002060006101000a81548160ff0219169083600381111561119c57fe5b02179055507f91d2faa002479f8dc4f20862402db3dba2ebe927031674997d38e5b70d9877e782600501828154811015156111d357fe5b90600052602060002001546001604051808381526020018260038111156111f657fe5b60ff1681526020019250505060405180910390a17f91d2faa002479f8dc4f20862402db3dba2ebe927031674997d38e5b70d9877e7826004018281548110151561123c57fe5b906000526020600020015460026040518083815260200182600381111561125f57fe5b60ff1681526020019250505060405180910390a180806001019150506110f6565b50818160030160016101000a81548160ff021916908360ff160217905550505050565b6000807f30644e72e131a029b85045b68181585d2833e84879b9709143e1f593f000000190506112d16124d8565b6112d961142b565b905080608001515160018651011415156112f257600080fd5b6112fa612521565b6040805190810160405280600081526020016000815250905060008090505b865181101561139e5783878281518110151561133157fe5b9060200190602002015110151561134757600080fd5b61138f8261138a85608001516001850181518110151561136357fe5b906020019060200201518a8581518110151561137b57fe5b90602001906020020151611e76565b611f12565b91508080600101915050611319565b506113c581836080015160008151811015156113b657fe5b90602001906020020151611f12565b905061140b856000015186602001516113dd84611fcf565b85604001516113ef8a60400151611fcf565b87606001516114018960000151611fcf565b896020015161206b565b151561141d5760019350505050611425565b600093505050505b92915050565b6114336124d8565b60408051908101604052807f05f5bbf5bdacf492a5c442be4ffe3fe282a00aa34318dbb9abaeae5489ad1c3681526020017f2348723fcb46ffe9e020fa4a5d0ed3c4925fac542692d4b0bae928067c20c4758152508160000181905250604080519081016040528060408051908101604052807f1bec2455f4f1aa1b8d9a1d65fb7db7d75fe48c335266071077f4b38e5d0dda9381526020017f2ce148beba2d4935c476a0d113eb5c8e8d743e1277936735566aa2f6acf47813815250815260200160408051908101604052807f2239a59700cc63464eb07b93e01310163e2bc17ac343be5cb7270e2399e7365f81526020017f0b63e18dc45a734b94108c3f62b50a3316d341dd421bc330681c2ea73fc312e28152508152508160200181905250604080519081016040528060408051908101604052807f1c02ccbda818180be058aecbe6e01a9e21585a00668a04b4c878c1127a2df43181526020017f2137cfa2cab615878ef631d6bbb3e2610088b68617a079ceb1a48749419213d1815250815260200160408051908101604052807f019607e7c142904d00eec5e3ace7717276dde9b8a14b9bb7fa98e6e787c47f7a81526020017f0796fb242c773689c0c82abaf22bb0ec2f8283325951312dc54b041afdbc563e8152508152508160400181905250604080519081016040528060408051908101604052807f0d92f74517577f13b64a49d349b8916123724e17b7b9da8483870d44a03ea9d781526020017f27377557a56a6ad40fb36f59f03aa6c7cce0f8e9370139027e283967c7a3bab2815250815260200160408051908101604052807f153aaad3c1a5208b82e40729b4fcaa578f49cc815db5a880d55cbdacf84ca73181526020017f2fa42c5a9edb6c9af5e55b591a89761e39ec616485cf0652451b4aaf018bc5b68152508152508160600181905250601060405190808252806020026020018201604052801561171a57816020015b61170761253b565b8152602001906001900390816116ff5790505b50816080018190525060408051908101604052807f1625e2b4fde8683daca58e8c319daaf9ab491d858e75dbe8be21e269de40fe6d81526020017f0f4068bcdd11cc7cbb7cb2cbaee94b922b5a58bfe087d5b0e6642ddfc84cf3f68152508160800151600081518110151561178b57fe5b9060200190602002018190525060408051908101604052807f0e9ab233de64a1216a296558a5a34b11af08a933689a27a734e4f5c102f6a67781526020017f281d5a2fc48e9dd4782a452a5aa9a7ab0cc61dc1db411b42ea53b2614061cec88152508160800151600181518110151561180057fe5b9060200190602002018190525060408051908101604052807f038874106c80c972d3e0f717bddc248a79272d33c4a24c50fb3adbef9a9ee97981526020017f033c7a3f17de321a2e5b2ef9a70d56e40b4ec983d7247ddef5ba0a467a8c788f8152508160800151600281518110151561187557fe5b9060200190602002018190525060408051908101604052807f0828d06200caa0c31215ceabcedfdb5de980cc7ee4e56912dd59503fd1e5081e81526020017f0b4114fdd634e242acd8c23405eb08e18aba4266908f3ef17835f276f9340551815250816080015160038151811015156118ea57fe5b9060200190602002018190525060408051908101604052807f2ed57b6474a3555070b822ffef12bfeab4e47e6a66915333cca39aa7a866296581526020017f0f1578586e8449a77b204f2362d26249347ccd126212c027d0db6631bd4638aa8152508160800151600481518110151561195f57fe5b9060200190602002018190525060408051908101604052807f0e63fe0bcd1d6fd48fe3d13ef7c0b3623a55acc1b1297df6f2e59066ee7ea26881526020017f2e0cc629326dceebb1e391802e14a79efda0b7d0d43a5e29da144e6d61122ad1815250816080015160058151811015156119d457fe5b9060200190602002018190525060408051908101604052807f0278667b486000af1abf2040bd0663d1701bb8a5905c970e89a504a8840a17a081526020017f07995b1e4158024f1a01e074f6c05e421dad81b69405dca53ade121b057ed6d081525081608001516006815181101515611a4957fe5b9060200190602002018190525060408051908101604052807f0f16b71e8075454f7097fd9b85c4e26feb9fec0c487db96f71b5c8a262ce1bab81526020017f0e772e76a9bd7e592ca1cf7d2198e00e41f43522964687007eb11967d23eb4e681525081608001516007815181101515611abe57fe5b9060200190602002018190525060408051908101604052807f10abf815e94837deb129deaa828cb127c1714d4a5ba2f1fae1d4c30f86b6381781526020017f1c16ce86d2ad7a307aedcdd6a0c70f387e269f20d32c0f1b4071c6280e0f9c5681525081608001516008815181101515611b3357fe5b9060200190602002018190525060408051908101604052807f0f5107c23478b9318657a2152cf5b5c0e5c825fb7d3800ca8cea8131e35c685081526020017f0152de71475f393cc604663c625897b46cb362e96255eb214cf0cfc2b1eabb1381525081608001516009815181101515611ba857fe5b9060200190602002018190525060408051908101604052807f0d4d99ea8269fd6737c4a9374904b37f6455623969a7ef42d83d549da065d3a581526020017f0695a585c5398f583b0ea3845a0403cd2ba33b52e86e63a3fd73a41aeae060618152508160800151600a815181101515611c1d57fe5b9060200190602002018190525060408051908101604052807f0dad9f729996b16d0647b6ee6af92eef037d116f091ab460c2109df603089f3481526020017f1223a547df4d3f0120e4e336b075bbaae9b53a0037beb38b1622bc0b9b89f3738152508160800151600b815181101515611c9257fe5b9060200190602002018190525060408051908101604052807f015ffc15c659b30cc3cab24c6b8aac91a3a5b438b2dd860587cc38c1e860707481526020017f08776fd25154bc245efb6a5b597ffccd73ef12ecbabbeab7fbc0aa24ef8fa0288152508160800151600c815181101515611d0757fe5b9060200190602002018190525060408051908101604052807f13f58f2fb6b98169df57aa6cd99d44929f7a0bc3f42b8a52f82d3ffbb068998d81526020017f1444431cc27b6c3b73e5c541756790ca5f46a5cb59e22530e33881ce9e0091338152508160800151600d815181101515611d7c57fe5b9060200190602002018190525060408051908101604052807f0dcf196a04bbcc3992ca2fadcb8c44443f048939221db10c6b87bb91e3a9162081526020017f0430669af959bdd410ed0de26fc8ee33d55801d03fa423142a273e142c19d1ca8152508160800151600e815181101515611df157fe5b9060200190602002018190525060408051908101604052807f1a67f5ecfbe0500318853585b6b308f45bad115cf829bf26a05100655b35bcbe81526020017f0570b6a5cc3baff7f61057358408106f03bfc74944a42277486a825750ca7cfb8152508160800151600f815181101515611e6657fe5b9060200190602002018190525090565b611e7e612521565b611e86612555565b8360000151816000600381101515611e9a57fe5b6020020181815250508360200151816001600381101515611eb757fe5b60200201818152505082816002600381101515611ed057fe5b6020020181815250506000606083608084600060076107d05a03f190508060008114611efb57611efd565bfe5b50801515611f0a57600080fd5b505092915050565b611f1a612521565b611f22612578565b8360000151816000600481101515611f3657fe5b6020020181815250508360200151816001600481101515611f5357fe5b6020020181815250508260000151816002600481101515611f7057fe5b6020020181815250508260200151816003600481101515611f8d57fe5b602002018181525050600060608360c084600060066107d05a03f190508060008114611fb857611fba565bfe5b50801515611fc757600080fd5b505092915050565b611fd7612521565b60007f30644e72e131a029b85045b68181585d97816a916871ca8d3c208c16d87cfd47905060008360000151148015612014575060008360200151145b15612038576040805190810160405280600081526020016000815250915050612066565b60408051908101604052808460000151815260200182856020015181151561205c57fe5b0683038152509150505b919050565b6000606060046040519080825280602002602001820160405280156120aa57816020015b61209761253b565b81526020019060019003908161208f5790505b509050606060046040519080825280602002602001820160405280156120ea57816020015b6120d761259b565b8152602001906001900390816120cf5790505b5090508a8260008151811015156120fd57fe5b906020019060200201819052508882600181518110151561211a57fe5b906020019060200201819052508682600281518110151561213757fe5b906020019060200201819052508482600381518110151561215457fe5b906020019060200201819052508981600081518110151561217157fe5b906020019060200201819052508781600181518110151561218e57fe5b90602001906020020181905250858160028151811015156121ab57fe5b90602001906020020181905250838160038151811015156121c857fe5b906020019060200201819052506121df82826121ef565b9250505098975050505050505050565b60008151835114151561220157600080fd5b60008351905060006006820290506060816040519080825280602002602001820160405280156122405781602001602082028038833980820191505090505b50905060008090505b8381101561241e57868181518110151561225f57fe5b9060200190602002015160000151826000600684020181518110151561228157fe5b9060200190602002018181525050868181518110151561229d57fe5b906020019060200201516020015182600160068402018151811015156122bf57fe5b906020019060200201818152505085818151811015156122db57fe5b906020019060200201516000015160006002811015156122f757fe5b6020020151826002600684020181518110151561231057fe5b9060200190602002018181525050858181518110151561232c57fe5b9060200190602002015160000151600160028110151561234857fe5b6020020151826003600684020181518110151561236157fe5b9060200190602002018181525050858181518110151561237d57fe5b9060200190602002015160200151600060028110151561239957fe5b602002015182600460068402018151811015156123b257fe5b906020019060200201818152505085818151811015156123ce57fe5b906020019060200201516020015160016002811015156123ea57fe5b6020020151826005600684020181518110151561240357fe5b90602001906020020181815250508080600101915050612249565b506124276125c2565b60006020826020860260208601600060086107d05a03f19050806000811461244e57612450565bfe5b5080151561245d57600080fd5b600082600060018110151561246e57fe5b602002015114159550505050505092915050565b50805460008255906000526020600020908101906124a091906125e5565b50565b610100604051908101604052806124b861253b565b81526020016124c561259b565b81526020016124d261253b565b81525090565b6101e0604051908101604052806124ed61253b565b81526020016124fa61259b565b815260200161250761259b565b815260200161251461259b565b8152602001606081525090565b604080519081016040528060008152602001600081525090565b604080519081016040528060008152602001600081525090565b606060405190810160405280600390602082028038833980820191505090505090565b608060405190810160405280600490602082028038833980820191505090505090565b6080604051908101604052806125af61260a565b81526020016125bc61260a565b81525090565b602060405190810160405280600190602082028038833980820191505090505090565b61260791905b808211156126035760008160009055506001016125eb565b5090565b90565b604080519081016040528060029060208202803883398082019150509050509056fe7472616e736665724e6f7465734e756d206973206c6f776572207468616e206c6173744e6f7465734e756d206f7220626967676572207468616e206d61784e6f7465734e756d5472616e73616374696f6e207375636365737366756c6c792076657269666965642e546865207369676e20646f6573206e6f74206d61746368206d706b20416464726573736d706b204164647265737320646f6573206e6f74206d61746368206d706b206164647265737320696e207061796d656e745478a165627a7a7230582054e99e1a37228b31e3d0937aa8f37f02dbb579ef17682ee74dda38a709b5a85a0029",
  "source": "pragma solidity ^0.5.2;\n\nimport {Verifier as DepositNoteVerifier} from \"./verifiers/DepositNoteVerifier.sol\";\nimport \"./ZkDaiBase.sol\";\n\n\ncontract DepositNotes is DepositNoteVerifier, ZkDaiBase {\n  uint8 internal constant NUM_PUBLIC_INPUTS = 15;\n  uint8 internal constant NUM_DEPOSIT_NOTES = 4;\n  /**\n  * @dev Hashes the submitted proof and adds it to the submissions mapping that tracks\n  *      submission time, type, public inputs of the zkSnark and the submitter\n  */\n  function submit(\n      uint256[2] memory a,\n      uint256[2][2] memory b,\n      uint256[2] memory c,\n      uint256[NUM_PUBLIC_INPUTS] memory input)\n    internal\n  {\n      bytes32 proofHash = getProofHash(a, b, c);\n      uint256[] memory publicInput = new uint256[](NUM_PUBLIC_INPUTS);\n      for(uint8 i = 0; i < NUM_PUBLIC_INPUTS; i++) {\n        publicInput[i] = input[i];\n      }\n      submissions[proofHash] = Submission(msg.sender, SubmissionType.Deposit, now, publicInput);\n      emit Submitted(msg.sender, proofHash);\n  }\n\n  /**\n  * @dev Commits the proof i.e. Marks the input note as Spent and mints two new output notes that came with the proof.\n  * @param proofHash Hash of the proof to be committed\n  */\n  function depositCommit(bytes32 proofHash)\n    internal\n  {\n      Submission storage submission = submissions[proofHash];\n      bytes32[NUM_DEPOSIT_NOTES+1] memory _notes = getDepositNotes(submission.publicInput);\n\n      // check that the first note (among public params) is committed and\n      require(notes[_notes[0]] == State.Committed, \"Note is either invalid or already spent\");\n      // check that the deposit notes is already minted.\n      for(uint i=1; i<NUM_DEPOSIT_NOTES; i++){\n        require(notes[_notes[i]] == State.Invalid, \"output note is already minted\");\n      }\n\n      notes[_notes[0]] = State.Spent;\n      for(uint i=1; i<NUM_DEPOSIT_NOTES; i++){\n        notes[_notes[i]] = State.Deposit;\n      }\n\n      delete submissions[proofHash];\n      submission.submitter.transfer(stake);\n\n      emit NoteStateChange(_notes[0], State.Spent);\n      for(uint i=1; i<NUM_DEPOSIT_NOTES; i++){\n        emit NoteStateChange(_notes[i], State.Deposit);\n      }\n  }\n\n  function getDepositNotes(uint256[] memory input)\n    internal\n    pure\n    returns(bytes32[NUM_DEPOSIT_NOTES+1] memory notes)\n  {\n      for(uint i=0; i<NUM_DEPOSIT_NOTES; i++){\n        notes[i] = calcNoteHash(input[i*2], input[i*2+1]);\n      }\n  }\n\n  /**\n  * @dev Challenge the proof for spend step\n  * @notice params: a, a_p, b, b_p, c, c_p, h, k zkSnark parameters of the challenged proof\n  * @param proofHash Hash of the proof\n  */\n  function challenge(\n      uint256[2] memory a,\n      uint256[2][2] memory b,\n      uint256[2] memory c,\n      bytes32 proofHash)\n    internal\n  {\n      Submission storage submission = submissions[proofHash];\n      uint256[NUM_PUBLIC_INPUTS] memory input;\n      for(uint i = 0; i < NUM_PUBLIC_INPUTS; i++) {\n        input[i] = submission.publicInput[i];\n      }\n      if (!depositVerifyTx(a, b, c, input)) {\n        // challenge passed\n        delete submissions[proofHash];\n        msg.sender.transfer(stake);\n        emit Challenged(msg.sender, proofHash);\n      } else {\n        // challenge failed\n        depositCommit(proofHash);\n      }\n  }\n\n   /*\n      Commit paymentTx\n  */\n\n  function recoverAddress(bytes32 msgHash, uint8 v, bytes32 r, bytes32 s) public view returns (address) {\n      return ecrecover(msgHash, v, r, s);\n  }\n\n  function paymentTxVerify(address addr, bytes32 msgHash, uint8 v, bytes32 r, bytes32 s) public view returns (bool) {\n    return addr == recoverAddress(msgHash, v, r, s);\n  }\n\n  function commitDepositNotes(bytes32 poolId, uint8 transferNotesNum) internal {\n    DepositPool storage dp = depositPools[poolId];\n    require(dp.expiredTime >= now ,\"Pool is expired\");\n    require((transferNotesNum <= dp.maxNotesNum) && (transferNotesNum > dp.lastNotesNum), \"transferNotesNum is lower than lastNotesNum or bigger than maxNotesNum\");\n\n    for(uint i = dp.lastNotesNum; i < transferNotesNum; i++){\n      notes[dp.receiverNotes[i]] = State.Committed;\n      notes[dp.senderNotes[i]] = State.Spent;\n      emit NoteStateChange(dp.receiverNotes[i], State.Committed);\n      emit NoteStateChange(dp.senderNotes[i], State.Spent);\n    }\n    dp.lastNotesNum = transferNotesNum;\n  }\n\n  function Pool(bytes32 poolId) public {\n    DepositPool storage dp = depositPools[poolId];\n    require(dp.expiredTime < now, \"Not expired yet\");\n\n    //return Change to sender\n    for(uint i = dp.lastNotesNum; i < dp.maxNotesNum; i++){\n      notes[dp.receiverNotes[i]] = State.Spent;\n      notes[dp.senderNotes[i]] = State.Committed;\n      emit NoteStateChange(dp.receiverNotes[i], State.Spent);\n      emit NoteStateChange(dp.senderNotes[i], State.Committed);\n    }\n\n    delete depositPools[poolId];\n  }\n\n  function commitPaymentTx(bytes32 poolId, address mpkAddress, bytes32 msgHash, uint8 transferNotesNum, uint8 v, bytes32 r, bytes32 s) public {\n    DepositPool storage dp = depositPools[poolId];\n    require(dp.mpkAddress == mpkAddress, \"mpk Address does not match mpk address in paymentTx\");\n    require(msgHash == keccak256(abi.encodePacked(poolId,mpkAddress,transferNotesNum)), \"mpk Address does not match mpk address in paymentTx\");\n    require(paymentTxVerify(mpkAddress, msgHash, v, r, s),\"The sign does not match mpk Address\");\n    commitDepositNotes(poolId, transferNotesNum);\n  }\n}\n",
  "sourcePath": "/home/boo/work/LightningZKP/contracts/DepositNotes.sol",
  "compiler": {
    "name": "solc",
    "version": "0.5.2+commit.1df8f40c.Emscripten.clang"
  },
  "schemaVersion": "3.0.11",
  "updatedAt": "2019-08-27T03:59:25.238Z",
  "devdoc": {
    "methods": {}
  },
  "userdoc": {
    "methods": {}
  }
}