{
  "contractName": "DepositNote5Verifier",
  "abi": [
    {
      "anonymous": false,
      "inputs": [
        {
          "indexed": false,
          "name": "s",
          "type": "string"
        }
      ],
      "name": "DepositVerified",
      "type": "event"
    },
    {
      "constant": false,
      "inputs": [
        {
          "name": "a",
          "type": "uint256[2]"
        },
        {
          "name": "b",
          "type": "uint256[2][2]"
        },
        {
          "name": "c",
          "type": "uint256[2]"
        },
        {
          "name": "input",
          "type": "uint256[31]"
        }
      ],
      "name": "depositVerifyTx",
      "outputs": [
        {
          "name": "r",
          "type": "bool"
        }
      ],
      "payable": false,
      "stateMutability": "nonpayable",
      "type": "function"
    }
  ],
  "bytecode": "0x608060405234801561001057600080fd5b50611f0d806100206000396000f3fe608060405234801561001057600080fd5b5060043610610048576000357c01000000000000000000000000000000000000000000000000000000009004806389541e851461004d575b600080fd5b6101ad60048036036104e081101561006457600080fd5b8101908080604001906002806020026040519081016040528092919082600260200280828437600081840152601f19601f82011690508083019250505050505091929192908060800190600280602002604051908101604052809291906000905b82821015610119578382604002016002806020026040519081016040528092919082600260200280828437600081840152601f19601f820116905080830192505050505050815260200190600101906100c5565b50505050919291929080604001906002806020026040519081016040528092919082600260200280828437600081840152601f19601f8201169050808301925050505050509192919290806103e00190601f806020026040519081016040528092919082601f60200280828437600081840152601f19601f82011690508083019250505050505091929192905050506101c7565b604051808215151515815260200191505060405180910390f35b60006101d1611d5b565b60408051908101604052808760006002811015156101eb57fe5b6020020151815260200187600160028110151561020457fe5b602002015181525081600001819052506040805190810160405280604080519081016040528088600060028110151561023957fe5b6020020151600060028110151561024c57fe5b6020020151815260200188600060028110151561026557fe5b6020020151600160028110151561027857fe5b60200201518152508152602001604080519081016040528088600160028110151561029f57fe5b602002015160006002811015156102b257fe5b602002015181526020018860016002811015156102cb57fe5b602002015160016002811015156102de57fe5b60200201518152508152508160200181905250604080519081016040528085600060028110151561030b57fe5b6020020151815260200185600160028110151561032457fe5b602002015181525081604001819052506060601f6040519080825280602002602001820160405280156103665781602001602082028038833980820191505090505b50905060008090505b601f8110156103b4578481601f8110151561038657fe5b6020020151828281518110151561039957fe5b9060200190602002018181525050808060010191505061036f565b5060006103c1828461042c565b141561041d577f07fb15b1ebdfd9751a3925ece10a8bff6b5f6ce237f0d1385e2176fa8153eb63604051808060200182810382526022815260200180611ec06022913960400191505060405180910390a1600192505050610424565b6000925050505b949350505050565b6000807f30644e72e131a029b85045b68181585d2833e84879b9709143e1f593f0000001905061045a611d90565b6104626105b4565b9050806080015151600186510114151561047b57600080fd5b610483611dd9565b6040805190810160405280600081526020016000815250905060008090505b8651811015610527578387828151811015156104ba57fe5b906020019060200201511015156104d057600080fd5b610518826105138560800151600185018151811015156104ec57fe5b906020019060200201518a8581518110151561050457fe5b9060200190602002015161174f565b6117eb565b915080806001019150506104a2565b5061054e818360800151600081518110151561053f57fe5b906020019060200201516117eb565b905061059485600001518660200151610566846118a8565b85604001516105788a604001516118a8565b876060015161058a89600001516118a8565b8960200151611944565b15156105a657600193505050506105ae565b600093505050505b92915050565b6105bc611d90565b60408051908101604052807f1f0d4ab681e60a0868d58f162d59df9f1b488777fa29c3e33ffa079e09b1965881526020017f094d3e1390a55cd2e111d11e0f597c9a1d1b8641a8e17836094292ce93a35aef8152508160000181905250604080519081016040528060408051908101604052807f01577a7077a3b575f61a47d0258570dc0895a7390d96e2f63ca93297903a804c81526020017f11877437f84a379d5e04dfd34b547c63ef454ed7aaf27cba127422dffec2a138815250815260200160408051908101604052807f29549edfb52ddec31ca1fc740da801e2c1a778d7673e206c2621a051d335fb5f81526020017f2d74adf493c430b4ea75a6d4a66a538b52a8c4bad53dab7417e0b067083c1c1c8152508152508160200181905250604080519081016040528060408051908101604052807f27447b8d95c37e550c0ec3babbbfd5dd14e61e8d748f85bb1fe3b0917ae1e3c281526020017f295df8a10e8301620b7cf3d054baba1d794867bdb8da7f8fb2ea716f781f3c15815250815260200160408051908101604052807f060f28a3ff280debb78d02db46713f966cb292068755324704b709a2143ac44c81526020017f1bb9454a9e9495df0c1a7c09f6e4516cb56f6838d44eac8a0f6d5ce68bc9f00c8152508152508160400181905250604080519081016040528060408051908101604052807f2c3cc514f4c54605e0db4c55305735fc6d91cc044475eaf2f84e799cccb29c2881526020017f0455f56f01a3f0cd59fc42009c86ecb24045fb0bc2c9067e96bad450eeeb813e815250815260200160408051908101604052807f1df0162fe8021873f960b297be9b157acdc328e2d862268690d5ece8afa1e6e981526020017f0e2d38de0c8aac6edbf71b371fc46418d304ee27a02053798c6841ab185a1778815250815250816060018190525060206040519080825280602002602001820160405280156108a357816020015b610890611df3565b8152602001906001900390816108885790505b50816080018190525060408051908101604052807f15c725042916527ced47e384abb239e00cc2c5aa1ad0e8af6bc233ccf46019f781526020017f0aa31a601d9fece85bdfd55dddba418b86a935afc084faf8b9a47760de8d81d98152508160800151600081518110151561091457fe5b9060200190602002018190525060408051908101604052807f08903755466849c2d924d9f9cf6f2032c9ad9da0dfff9fb22caa53eb22b76c3181526020017f2d0e9602a5a199aaffcb71c46514d2cf9038c3c631410a57e495fcc7333748c68152508160800151600181518110151561098957fe5b9060200190602002018190525060408051908101604052807f2710123d27d5b93858672a3aab5edb39b6346f8060ce5d619d540e2ad26ce7f181526020017f08446f02f832d6604c37f5b3497537037c69e7cbc8fec136a202cb22c363a1ad815250816080015160028151811015156109fe57fe5b9060200190602002018190525060408051908101604052807f2e63ab0d75b09e637391b43e2470e350df01159bae7b8e3049fa253269d6616e81526020017f0867534e2a6cd966084643f9d24f104c6ed2e91458e85ccb95b71fb822ee522a81525081608001516003815181101515610a7357fe5b9060200190602002018190525060408051908101604052807f221718c12e7aa360fd67ef8cb27bdcadc1ced3caef2ad5226ed9b4340982c67081526020017f191ac05af5046528d071939680e479b35fb0de7a99fbaa3cf2d8cf715623d86181525081608001516004815181101515610ae857fe5b9060200190602002018190525060408051908101604052807f08954431ff5d354d08c7f205ecf57da3aa1813bfdbe7341331d74ee9bca4e6a981526020017f09c1268ad32e21bf8c402d7371b32d438ec798028684eb6e1f78a334c25f422681525081608001516005815181101515610b5d57fe5b9060200190602002018190525060408051908101604052807f2ff072628fe9dd7eac9512299ce84bcc2619c89025174dc0eefdeb1c2bec872381526020017f1e0e879a741248e07d6e9f0e4d308edd5b578209b7061ed7197c327e3a2d4bbd81525081608001516006815181101515610bd257fe5b9060200190602002018190525060408051908101604052807f23935bdf628478f5b4892a713774e3e8bb40213e727af025e295cfde7caffe7281526020017f2670ec0b562a9e67f51893bb0d669eeaf311323d188924afd68ba7a688243a6981525081608001516007815181101515610c4757fe5b9060200190602002018190525060408051908101604052807f2274fba3179146eca122ce4d0b05b05d833171e1ac66ea95f00e7e31e35589fd81526020017f11087ef307c51eee2387b325bf37fd493ff289633c4169f4c63092588e73674881525081608001516008815181101515610cbc57fe5b9060200190602002018190525060408051908101604052807f011bd60ee68c95e5535be63d0a85456874cdb6020553f9046227d8da12955cef81526020017f2baa1dab3e23831058024fdb98dfddc960613c48efbd33add8ebeb04ae8133b681525081608001516009815181101515610d3157fe5b9060200190602002018190525060408051908101604052807f0986d95d52f31156748f0bb378cfc8dd66e53e71394c24c5a5b982dd4ce5b05181526020017f241c2f876c4bc7e1b715b01037b1af265516f27a30b4544edeb41241b3513a418152508160800151600a815181101515610da657fe5b9060200190602002018190525060408051908101604052807f1fe93c7de253a68a5351ec602e5cc48f7ba15c4727b8be2766182ff8ed9b6c8b81526020017f06bf82e7f7c81ba72257dd2be8afe79ffab9a53dff603265cf13b29db00835728152508160800151600b815181101515610e1b57fe5b9060200190602002018190525060408051908101604052807f1a5f3685a767dd8caae04e779eda42330397eb673a238cbe48b3be2d735c8f7d81526020017f0a90556c0bc895178fa4915c6410dc40fe3d443ee7d67191952410ea27a702558152508160800151600c815181101515610e9057fe5b9060200190602002018190525060408051908101604052807f118af77ba8f5e82595433954156d0b089fbd58eabd1f40176c4878632c380eb281526020017f1fca1e76d957f1231c02aa82782d5c24b89ac3a08e569fdda2ffb3dde32b1d188152508160800151600d815181101515610f0557fe5b9060200190602002018190525060408051908101604052807f04161e8de8a2fbdffb70435294044f2e7e99a2c760bdbee3a94235a28a9b895881526020017f0ba4dde5f3a13cf6e4375dcd6117cf308533c16f61eca662fb359ac7d8e47c5f8152508160800151600e815181101515610f7a57fe5b9060200190602002018190525060408051908101604052807f0be51158dcf915f0503f93754342321beb6dd9b88503fe907c1ca8b69ef1747a81526020017f200dc4e32df2457d8d2c5101799ad6c075b8a0afe0045e8570660f690d3c79368152508160800151600f815181101515610fef57fe5b9060200190602002018190525060408051908101604052807f2954353c75eef652e357a453b20f022091a8072f39b53c9184964ab82b4d2fc081526020017f16245e9cd195266effaf7c5268086f16e781e4bc97fffff1e3fc4bcf18e89e188152508160800151601081518110151561106457fe5b9060200190602002018190525060408051908101604052807f26bf4420ecd05beb5c46cdb60fd3281772917eeec9be0fe50f198d4ecb3be66081526020017f289b7b93f8da4eeeeabd305793812dc29cf4dcff32599c21ee9c7457635b82a4815250816080015160118151811015156110d957fe5b9060200190602002018190525060408051908101604052807f204ca7e50bdb4628082be6bcb8907f1fef40ed407682b7ca9cec563d0ad52e3f81526020017f28de6ccecfd30de76df6d531972a3f3bd92d46668bef7b69ab7bdc0f1748c5d08152508160800151601281518110151561114e57fe5b9060200190602002018190525060408051908101604052807f1e9e7ee8d4547a89dc0120b60e71632096a95629896818af22f67eef0afd634c81526020017f2324b6153e5446cc58690d00616cb2774d2081a89b8b63b0c268fa71e8fa573a815250816080015160138151811015156111c357fe5b9060200190602002018190525060408051908101604052807f1a31cb6bd35059d178dab115e7f61db6871c57e4c8a7d9a93de0502ab2ace28581526020017f2febfe21ece710b719d43df75ccb3db83ba0b8a2ae07b104caa1e6f0060982ec8152508160800151601481518110151561123857fe5b9060200190602002018190525060408051908101604052807f269f99c3902df2b70c2f517b66edf06cb3a523e17271733cd7b8081628a53de081526020017f24daa4de591854c330f9e241a086fb576825fb06adf991459407546730c1caee815250816080015160158151811015156112ad57fe5b9060200190602002018190525060408051908101604052807f1c510e1ee0f5d5fdbebc8e51416bed6959ab93f50199c50bf173cece18c6caa081526020017f1386f1c3b9a6963c511747a49f71a32276a7a87bcf55fb56017acdad45486ae28152508160800151601681518110151561132257fe5b9060200190602002018190525060408051908101604052807f1c78cf549cbac7117e8c275762a0e23295db9780bc693ad0d02427a1efd3830b81526020017f020c3228bb37578e77c22b8e51651af9bbf77298d558f21c0444ca7536ff6fbe8152508160800151601781518110151561139757fe5b9060200190602002018190525060408051908101604052807f2439064b9c62b37e1777d586f35e40dccbfbfe6ffe1551d26c5008794028813581526020017f129612989d3b99a7e283c597392cc1df31ce6e5122b75356564e9d8ccbc760bb8152508160800151601881518110151561140c57fe5b9060200190602002018190525060408051908101604052807f266451dd58da04ed176ab2d1bcf9b2dba12c735730b24d256f43398eeaf47bf681526020017f05dc13989cd02c3e2cb2e6928b64c40b6bddfb1dddaef20288bab97e3664df8c8152508160800151601981518110151561148157fe5b9060200190602002018190525060408051908101604052807f276b603dfa2c3d310ac6328bea22daca9b708a947d559aebee40c60301c3c23a81526020017f1b8ff2fc48e77aff179ae31299ed835398cb250670c6ec2710921da05bc6eca18152508160800151601a8151811015156114f657fe5b9060200190602002018190525060408051908101604052807f1374f8bec7b5d4581df9a0243d1d835f7d339b1e99ee6e9c79e4d8bc2e8d8fd881526020017f094436f6d94638e713389a682de1b4da0caa42d4f8380cc94b72c0d4cc041a668152508160800151601b81518110151561156b57fe5b9060200190602002018190525060408051908101604052807f20f518b0459f59ea7154bce92239d6c43abb9691272fb9e992e841c2290f41b781526020017f084d68d22fbfa1aa4833e6873e0fb11e2beacca61d8013d3ccb191cb50ee51e38152508160800151601c8151811015156115e057fe5b9060200190602002018190525060408051908101604052807f2ccc1b62edbb04300af37eeb5a5948d2c0507a742e933ea111b89897b482522181526020017f20a493397ad16904e39ed6366619752e59b6ce3e13254abf61bc086140a0609e8152508160800151601d81518110151561165557fe5b9060200190602002018190525060408051908101604052807f04916233590a4dd7a5344e4e4134b33c8deb88f6f3393f378f077b94a6f65e6581526020017f1fdb9236c0c0204bd43909c60c31f425c663a9cd917d4c7b9e0a9cac99a473de8152508160800151601e8151811015156116ca57fe5b9060200190602002018190525060408051908101604052807f2085528fc3ab253e5fc937ef0038458a53af530ad299b77be6dfd84646d7d52f81526020017f0728c0336066383869709b8b3f4fca9ce15037066de972b7991cb14fb73312de8152508160800151601f81518110151561173f57fe5b9060200190602002018190525090565b611757611dd9565b61175f611e0d565b836000015181600060038110151561177357fe5b602002018181525050836020015181600160038110151561179057fe5b602002018181525050828160026003811015156117a957fe5b6020020181815250506000606083608084600060076107d05a03f1905080600081146117d4576117d6565bfe5b508015156117e357600080fd5b505092915050565b6117f3611dd9565b6117fb611e30565b836000015181600060048110151561180f57fe5b602002018181525050836020015181600160048110151561182c57fe5b602002018181525050826000015181600260048110151561184957fe5b602002018181525050826020015181600360048110151561186657fe5b602002018181525050600060608360c084600060066107d05a03f19050806000811461189157611893565bfe5b508015156118a057600080fd5b505092915050565b6118b0611dd9565b60007f30644e72e131a029b85045b68181585d97816a916871ca8d3c208c16d87cfd479050600083600001511480156118ed575060008360200151145b1561191157604080519081016040528060008152602001600081525091505061193f565b60408051908101604052808460000151815260200182856020015181151561193557fe5b0683038152509150505b919050565b60006060600460405190808252806020026020018201604052801561198357816020015b611970611df3565b8152602001906001900390816119685790505b509050606060046040519080825280602002602001820160405280156119c357816020015b6119b0611e53565b8152602001906001900390816119a85790505b5090508a8260008151811015156119d657fe5b90602001906020020181905250888260018151811015156119f357fe5b9060200190602002018190525086826002815181101515611a1057fe5b9060200190602002018190525084826003815181101515611a2d57fe5b9060200190602002018190525089816000815181101515611a4a57fe5b9060200190602002018190525087816001815181101515611a6757fe5b9060200190602002018190525085816002815181101515611a8457fe5b9060200190602002018190525083816003815181101515611aa157fe5b90602001906020020181905250611ab88282611ac8565b9250505098975050505050505050565b600081518351141515611ada57600080fd5b6000835190506000600682029050606081604051908082528060200260200182016040528015611b195781602001602082028038833980820191505090505b50905060008090505b83811015611cf7578681815181101515611b3857fe5b90602001906020020151600001518260006006840201815181101515611b5a57fe5b90602001906020020181815250508681815181101515611b7657fe5b90602001906020020151602001518260016006840201815181101515611b9857fe5b90602001906020020181815250508581815181101515611bb457fe5b90602001906020020151600001516000600281101515611bd057fe5b60200201518260026006840201815181101515611be957fe5b90602001906020020181815250508581815181101515611c0557fe5b90602001906020020151600001516001600281101515611c2157fe5b60200201518260036006840201815181101515611c3a57fe5b90602001906020020181815250508581815181101515611c5657fe5b90602001906020020151602001516000600281101515611c7257fe5b60200201518260046006840201815181101515611c8b57fe5b90602001906020020181815250508581815181101515611ca757fe5b90602001906020020151602001516001600281101515611cc357fe5b60200201518260056006840201815181101515611cdc57fe5b90602001906020020181815250508080600101915050611b22565b50611d00611e7a565b60006020826020860260208601600060086107d05a03f190508060008114611d2757611d29565bfe5b50801515611d3657600080fd5b6000826000600181101515611d4757fe5b602002015114159550505050505092915050565b61010060405190810160405280611d70611df3565b8152602001611d7d611e53565b8152602001611d8a611df3565b81525090565b6101e060405190810160405280611da5611df3565b8152602001611db2611e53565b8152602001611dbf611e53565b8152602001611dcc611e53565b8152602001606081525090565b604080519081016040528060008152602001600081525090565b604080519081016040528060008152602001600081525090565b606060405190810160405280600390602082028038833980820191505090505090565b608060405190810160405280600490602082028038833980820191505090505090565b608060405190810160405280611e67611e9d565b8152602001611e74611e9d565b81525090565b602060405190810160405280600190602082028038833980820191505090505090565b604080519081016040528060029060208202803883398082019150509050509056fe5472616e73616374696f6e207375636365737366756c6c792076657269666965642ea165627a7a72305820e512d3c577bb9b7a9d5ab7907cc783ddf1eab6672f62ecda9ff6e1c09b6e2f790029",
  "source": "pragma solidity ^0.5.2;\nimport \"./VerifierBase.sol\";\n// This file is LGPL3 Licensed\ncontract DepositNote5Verifier is VerifierBase {\n\n    function depositVerifyingKey() pure internal returns (VerifyingKey memory vk) {\n        vk.a = Pairing.G1Point(uint256(0x1f0d4ab681e60a0868d58f162d59df9f1b488777fa29c3e33ffa079e09b19658), uint256(0x094d3e1390a55cd2e111d11e0f597c9a1d1b8641a8e17836094292ce93a35aef));\n        vk.b = Pairing.G2Point([uint256(0x01577a7077a3b575f61a47d0258570dc0895a7390d96e2f63ca93297903a804c), uint256(0x11877437f84a379d5e04dfd34b547c63ef454ed7aaf27cba127422dffec2a138)], [uint256(0x29549edfb52ddec31ca1fc740da801e2c1a778d7673e206c2621a051d335fb5f), uint256(0x2d74adf493c430b4ea75a6d4a66a538b52a8c4bad53dab7417e0b067083c1c1c)]);\n        vk.gamma = Pairing.G2Point([uint256(0x27447b8d95c37e550c0ec3babbbfd5dd14e61e8d748f85bb1fe3b0917ae1e3c2), uint256(0x295df8a10e8301620b7cf3d054baba1d794867bdb8da7f8fb2ea716f781f3c15)], [uint256(0x060f28a3ff280debb78d02db46713f966cb292068755324704b709a2143ac44c), uint256(0x1bb9454a9e9495df0c1a7c09f6e4516cb56f6838d44eac8a0f6d5ce68bc9f00c)]);\n        vk.delta = Pairing.G2Point([uint256(0x2c3cc514f4c54605e0db4c55305735fc6d91cc044475eaf2f84e799cccb29c28), uint256(0x0455f56f01a3f0cd59fc42009c86ecb24045fb0bc2c9067e96bad450eeeb813e)], [uint256(0x1df0162fe8021873f960b297be9b157acdc328e2d862268690d5ece8afa1e6e9), uint256(0x0e2d38de0c8aac6edbf71b371fc46418d304ee27a02053798c6841ab185a1778)]);\n        vk.gamma_abc = new Pairing.G1Point[](32);\n        vk.gamma_abc[0] = Pairing.G1Point(uint256(0x15c725042916527ced47e384abb239e00cc2c5aa1ad0e8af6bc233ccf46019f7), uint256(0x0aa31a601d9fece85bdfd55dddba418b86a935afc084faf8b9a47760de8d81d9));\n        vk.gamma_abc[1] = Pairing.G1Point(uint256(0x08903755466849c2d924d9f9cf6f2032c9ad9da0dfff9fb22caa53eb22b76c31), uint256(0x2d0e9602a5a199aaffcb71c46514d2cf9038c3c631410a57e495fcc7333748c6));\n        vk.gamma_abc[2] = Pairing.G1Point(uint256(0x2710123d27d5b93858672a3aab5edb39b6346f8060ce5d619d540e2ad26ce7f1), uint256(0x08446f02f832d6604c37f5b3497537037c69e7cbc8fec136a202cb22c363a1ad));\n        vk.gamma_abc[3] = Pairing.G1Point(uint256(0x2e63ab0d75b09e637391b43e2470e350df01159bae7b8e3049fa253269d6616e), uint256(0x0867534e2a6cd966084643f9d24f104c6ed2e91458e85ccb95b71fb822ee522a));\n        vk.gamma_abc[4] = Pairing.G1Point(uint256(0x221718c12e7aa360fd67ef8cb27bdcadc1ced3caef2ad5226ed9b4340982c670), uint256(0x191ac05af5046528d071939680e479b35fb0de7a99fbaa3cf2d8cf715623d861));\n        vk.gamma_abc[5] = Pairing.G1Point(uint256(0x08954431ff5d354d08c7f205ecf57da3aa1813bfdbe7341331d74ee9bca4e6a9), uint256(0x09c1268ad32e21bf8c402d7371b32d438ec798028684eb6e1f78a334c25f4226));\n        vk.gamma_abc[6] = Pairing.G1Point(uint256(0x2ff072628fe9dd7eac9512299ce84bcc2619c89025174dc0eefdeb1c2bec8723), uint256(0x1e0e879a741248e07d6e9f0e4d308edd5b578209b7061ed7197c327e3a2d4bbd));\n        vk.gamma_abc[7] = Pairing.G1Point(uint256(0x23935bdf628478f5b4892a713774e3e8bb40213e727af025e295cfde7caffe72), uint256(0x2670ec0b562a9e67f51893bb0d669eeaf311323d188924afd68ba7a688243a69));\n        vk.gamma_abc[8] = Pairing.G1Point(uint256(0x2274fba3179146eca122ce4d0b05b05d833171e1ac66ea95f00e7e31e35589fd), uint256(0x11087ef307c51eee2387b325bf37fd493ff289633c4169f4c63092588e736748));\n        vk.gamma_abc[9] = Pairing.G1Point(uint256(0x011bd60ee68c95e5535be63d0a85456874cdb6020553f9046227d8da12955cef), uint256(0x2baa1dab3e23831058024fdb98dfddc960613c48efbd33add8ebeb04ae8133b6));\n        vk.gamma_abc[10] = Pairing.G1Point(uint256(0x0986d95d52f31156748f0bb378cfc8dd66e53e71394c24c5a5b982dd4ce5b051), uint256(0x241c2f876c4bc7e1b715b01037b1af265516f27a30b4544edeb41241b3513a41));\n        vk.gamma_abc[11] = Pairing.G1Point(uint256(0x1fe93c7de253a68a5351ec602e5cc48f7ba15c4727b8be2766182ff8ed9b6c8b), uint256(0x06bf82e7f7c81ba72257dd2be8afe79ffab9a53dff603265cf13b29db0083572));\n        vk.gamma_abc[12] = Pairing.G1Point(uint256(0x1a5f3685a767dd8caae04e779eda42330397eb673a238cbe48b3be2d735c8f7d), uint256(0x0a90556c0bc895178fa4915c6410dc40fe3d443ee7d67191952410ea27a70255));\n        vk.gamma_abc[13] = Pairing.G1Point(uint256(0x118af77ba8f5e82595433954156d0b089fbd58eabd1f40176c4878632c380eb2), uint256(0x1fca1e76d957f1231c02aa82782d5c24b89ac3a08e569fdda2ffb3dde32b1d18));\n        vk.gamma_abc[14] = Pairing.G1Point(uint256(0x04161e8de8a2fbdffb70435294044f2e7e99a2c760bdbee3a94235a28a9b8958), uint256(0x0ba4dde5f3a13cf6e4375dcd6117cf308533c16f61eca662fb359ac7d8e47c5f));\n        vk.gamma_abc[15] = Pairing.G1Point(uint256(0x0be51158dcf915f0503f93754342321beb6dd9b88503fe907c1ca8b69ef1747a), uint256(0x200dc4e32df2457d8d2c5101799ad6c075b8a0afe0045e8570660f690d3c7936));\n        vk.gamma_abc[16] = Pairing.G1Point(uint256(0x2954353c75eef652e357a453b20f022091a8072f39b53c9184964ab82b4d2fc0), uint256(0x16245e9cd195266effaf7c5268086f16e781e4bc97fffff1e3fc4bcf18e89e18));\n        vk.gamma_abc[17] = Pairing.G1Point(uint256(0x26bf4420ecd05beb5c46cdb60fd3281772917eeec9be0fe50f198d4ecb3be660), uint256(0x289b7b93f8da4eeeeabd305793812dc29cf4dcff32599c21ee9c7457635b82a4));\n        vk.gamma_abc[18] = Pairing.G1Point(uint256(0x204ca7e50bdb4628082be6bcb8907f1fef40ed407682b7ca9cec563d0ad52e3f), uint256(0x28de6ccecfd30de76df6d531972a3f3bd92d46668bef7b69ab7bdc0f1748c5d0));\n        vk.gamma_abc[19] = Pairing.G1Point(uint256(0x1e9e7ee8d4547a89dc0120b60e71632096a95629896818af22f67eef0afd634c), uint256(0x2324b6153e5446cc58690d00616cb2774d2081a89b8b63b0c268fa71e8fa573a));\n        vk.gamma_abc[20] = Pairing.G1Point(uint256(0x1a31cb6bd35059d178dab115e7f61db6871c57e4c8a7d9a93de0502ab2ace285), uint256(0x2febfe21ece710b719d43df75ccb3db83ba0b8a2ae07b104caa1e6f0060982ec));\n        vk.gamma_abc[21] = Pairing.G1Point(uint256(0x269f99c3902df2b70c2f517b66edf06cb3a523e17271733cd7b8081628a53de0), uint256(0x24daa4de591854c330f9e241a086fb576825fb06adf991459407546730c1caee));\n        vk.gamma_abc[22] = Pairing.G1Point(uint256(0x1c510e1ee0f5d5fdbebc8e51416bed6959ab93f50199c50bf173cece18c6caa0), uint256(0x1386f1c3b9a6963c511747a49f71a32276a7a87bcf55fb56017acdad45486ae2));\n        vk.gamma_abc[23] = Pairing.G1Point(uint256(0x1c78cf549cbac7117e8c275762a0e23295db9780bc693ad0d02427a1efd3830b), uint256(0x020c3228bb37578e77c22b8e51651af9bbf77298d558f21c0444ca7536ff6fbe));\n        vk.gamma_abc[24] = Pairing.G1Point(uint256(0x2439064b9c62b37e1777d586f35e40dccbfbfe6ffe1551d26c50087940288135), uint256(0x129612989d3b99a7e283c597392cc1df31ce6e5122b75356564e9d8ccbc760bb));\n        vk.gamma_abc[25] = Pairing.G1Point(uint256(0x266451dd58da04ed176ab2d1bcf9b2dba12c735730b24d256f43398eeaf47bf6), uint256(0x05dc13989cd02c3e2cb2e6928b64c40b6bddfb1dddaef20288bab97e3664df8c));\n        vk.gamma_abc[26] = Pairing.G1Point(uint256(0x276b603dfa2c3d310ac6328bea22daca9b708a947d559aebee40c60301c3c23a), uint256(0x1b8ff2fc48e77aff179ae31299ed835398cb250670c6ec2710921da05bc6eca1));\n        vk.gamma_abc[27] = Pairing.G1Point(uint256(0x1374f8bec7b5d4581df9a0243d1d835f7d339b1e99ee6e9c79e4d8bc2e8d8fd8), uint256(0x094436f6d94638e713389a682de1b4da0caa42d4f8380cc94b72c0d4cc041a66));\n        vk.gamma_abc[28] = Pairing.G1Point(uint256(0x20f518b0459f59ea7154bce92239d6c43abb9691272fb9e992e841c2290f41b7), uint256(0x084d68d22fbfa1aa4833e6873e0fb11e2beacca61d8013d3ccb191cb50ee51e3));\n        vk.gamma_abc[29] = Pairing.G1Point(uint256(0x2ccc1b62edbb04300af37eeb5a5948d2c0507a742e933ea111b89897b4825221), uint256(0x20a493397ad16904e39ed6366619752e59b6ce3e13254abf61bc086140a0609e));\n        vk.gamma_abc[30] = Pairing.G1Point(uint256(0x04916233590a4dd7a5344e4e4134b33c8deb88f6f3393f378f077b94a6f65e65), uint256(0x1fdb9236c0c0204bd43909c60c31f425c663a9cd917d4c7b9e0a9cac99a473de));\n        vk.gamma_abc[31] = Pairing.G1Point(uint256(0x2085528fc3ab253e5fc937ef0038458a53af530ad299b77be6dfd84646d7d52f), uint256(0x0728c0336066383869709b8b3f4fca9ce15037066de972b7991cb14fb73312de));\n    }\n    function depositVerify(uint[] memory input, Proof memory proof) internal returns (uint) {\n        uint256 snark_scalar_field = 21888242871839275222246405745257275088548364400416034343698204186575808495617;\n        VerifyingKey memory vk = depositVerifyingKey();\n        require(input.length + 1 == vk.gamma_abc.length);\n        // Compute the linear combination vk_x\n        Pairing.G1Point memory vk_x = Pairing.G1Point(0, 0);\n        for (uint i = 0; i < input.length; i++) {\n            require(input[i] < snark_scalar_field);\n            vk_x = Pairing.addition(vk_x, Pairing.scalar_mul(vk.gamma_abc[i + 1], input[i]));\n        }\n        vk_x = Pairing.addition(vk_x, vk.gamma_abc[0]);\n        if(!Pairing.pairingProd4(\n             proof.a, proof.b,\n             Pairing.negate(vk_x), vk.gamma,\n             Pairing.negate(proof.c), vk.delta,\n             Pairing.negate(vk.a), vk.b)) return 1;\n        return 0;\n    }\n    event DepositVerified(string s);\n    function depositVerifyTx(\n            uint[2] memory a,\n            uint[2][2] memory b,\n            uint[2] memory c,\n            uint[31] memory input\n        ) public returns (bool r) {\n        Proof memory proof;\n        proof.a = Pairing.G1Point(a[0], a[1]);\n        proof.b = Pairing.G2Point([b[0][0], b[0][1]], [b[1][0], b[1][1]]);\n        proof.c = Pairing.G1Point(c[0], c[1]);\n        uint[] memory inputValues = new uint[](input.length);\n        for(uint i = 0; i < input.length; i++){\n            inputValues[i] = input[i];\n        }\n        if (depositVerify(inputValues, proof) == 0) {\n            emit DepositVerified(\"Transaction successfully verified.\");\n            return true;\n        } else {\n            return false;\n        }\n    }\n}\n",
  "sourcePath": "/home/boo/work/LightningZKP/contracts/verifiers/DepositNote5Verifier.sol",
  "compiler": {
    "name": "solc",
    "version": "0.5.2+commit.1df8f40c.Emscripten.clang"
  },
  "schemaVersion": "3.0.16",
  "updatedAt": "2019-10-17T09:12:51.333Z",
  "devdoc": {
    "methods": {}
  },
  "userdoc": {
    "methods": {}
  }
}