{
  "contractName": "DepositNotes",
  "abi": [
    {
      "constant": true,
      "inputs": [],
      "name": "stake",
      "outputs": [
        {
          "name": "",
          "type": "uint256"
        }
      ],
      "payable": false,
      "stateMutability": "view",
      "type": "function"
    },
    {
      "constant": true,
      "inputs": [],
      "name": "cooldown",
      "outputs": [
        {
          "name": "",
          "type": "uint256"
        }
      ],
      "payable": false,
      "stateMutability": "view",
      "type": "function"
    },
    {
      "constant": true,
      "inputs": [
        {
          "name": "",
          "type": "bytes32"
        }
      ],
      "name": "notes",
      "outputs": [
        {
          "name": "",
          "type": "uint8"
        }
      ],
      "payable": false,
      "stateMutability": "view",
      "type": "function"
    },
    {
      "constant": true,
      "inputs": [
        {
          "name": "",
          "type": "bytes32"
        }
      ],
      "name": "submissions",
      "outputs": [
        {
          "name": "submitter",
          "type": "address"
        },
        {
          "name": "sType",
          "type": "uint8"
        },
        {
          "name": "submittedAt",
          "type": "uint256"
        }
      ],
      "payable": false,
      "stateMutability": "view",
      "type": "function"
    },
    {
      "constant": true,
      "inputs": [],
      "name": "dai",
      "outputs": [
        {
          "name": "",
          "type": "address"
        }
      ],
      "payable": false,
      "stateMutability": "view",
      "type": "function"
    },
    {
      "constant": false,
      "inputs": [
        {
          "name": "a",
          "type": "uint256[2]"
        },
        {
          "name": "b",
          "type": "uint256[2][2]"
        },
        {
          "name": "c",
          "type": "uint256[2]"
        },
        {
          "name": "input",
          "type": "uint256[15]"
        }
      ],
      "name": "depositVerifyTx",
      "outputs": [
        {
          "name": "r",
          "type": "bool"
        }
      ],
      "payable": false,
      "stateMutability": "nonpayable",
      "type": "function"
    },
    {
      "anonymous": false,
      "inputs": [
        {
          "indexed": false,
          "name": "note",
          "type": "bytes32"
        },
        {
          "indexed": false,
          "name": "state",
          "type": "uint8"
        }
      ],
      "name": "NoteStateChange",
      "type": "event"
    },
    {
      "anonymous": false,
      "inputs": [
        {
          "indexed": false,
          "name": "submitter",
          "type": "address"
        },
        {
          "indexed": false,
          "name": "proofHash",
          "type": "bytes32"
        }
      ],
      "name": "Submitted",
      "type": "event"
    },
    {
      "anonymous": false,
      "inputs": [
        {
          "indexed": true,
          "name": "challenger",
          "type": "address"
        },
        {
          "indexed": false,
          "name": "proofHash",
          "type": "bytes32"
        }
      ],
      "name": "Challenged",
      "type": "event"
    },
    {
      "anonymous": false,
      "inputs": [
        {
          "indexed": false,
          "name": "s",
          "type": "string"
        }
      ],
      "name": "DepositVerified",
      "type": "event"
    }
  ],
  "bytecode": "0x608060405234801561001057600080fd5b506119fd806100206000396000f3fe608060405234801561001057600080fd5b506004361061007f576000357c0100000000000000000000000000000000000000000000000000000000900480633a4b66f114610084578063787a08a6146100a257806385de26b7146100c0578063c5c9c0a214610110578063f4b9fa751461019a578063fd6b56f2146101e4575b600080fd5b61008c61035e565b6040518082815260200191505060405180910390f35b6100aa610364565b6040518082815260200191505060405180910390f35b6100ec600480360360208110156100d657600080fd5b810190808035906020019092919050505061036a565b604051808260038111156100fc57fe5b60ff16815260200191505060405180910390f35b61013c6004803603602081101561012657600080fd5b810190808035906020019092919050505061038a565b604051808473ffffffffffffffffffffffffffffffffffffffff1673ffffffffffffffffffffffffffffffffffffffff16815260200183600481111561017e57fe5b60ff168152602001828152602001935050505060405180910390f35b6101a26103e1565b604051808273ffffffffffffffffffffffffffffffffffffffff1673ffffffffffffffffffffffffffffffffffffffff16815260200191505060405180910390f35b61034460048036036102e08110156101fb57600080fd5b8101908080604001906002806020026040519081016040528092919082600260200280828437600081840152601f19601f82011690508083019250505050505091929192908060800190600280602002604051908101604052809291906000905b828210156102b0578382604002016002806020026040519081016040528092919082600260200280828437600081840152601f19601f8201169050808301925050505050508152602001906001019061025c565b50505050919291929080604001906002806020026040519081016040528092919082600260200280828437600081840152601f19601f8201169050808301925050505050509192919290806101e00190600f806020026040519081016040528092919082600f60200280828437600081840152601f19601f8201169050808301925050505050509192919290505050610407565b604051808215151515815260200191505060405180910390f35b60015481565b60005481565b60046020528060005260406000206000915054906101000a900460ff1681565b60036020528060005260406000206000915090508060000160009054906101000a900473ffffffffffffffffffffffffffffffffffffffff16908060000160149054906101000a900460ff16908060010154905083565b600260009054906101000a900473ffffffffffffffffffffffffffffffffffffffff1681565b600061041161184b565b604080519081016040528087600060028110151561042b57fe5b6020020151815260200187600160028110151561044457fe5b602002015181525081600001819052506040805190810160405280604080519081016040528088600060028110151561047957fe5b6020020151600060028110151561048c57fe5b602002015181526020018860006002811015156104a557fe5b602002015160016002811015156104b857fe5b6020020151815250815260200160408051908101604052808860016002811015156104df57fe5b602002015160006002811015156104f257fe5b6020020151815260200188600160028110151561050b57fe5b6020020151600160028110151561051e57fe5b60200201518152508152508160200181905250604080519081016040528085600060028110151561054b57fe5b6020020151815260200185600160028110151561056457fe5b602002015181525081604001819052506060600f6040519080825280602002602001820160405280156105a65781602001602082028038833980820191505090505b50905060008090505b600f8110156105f4578481600f811015156105c657fe5b602002015182828151811015156105d957fe5b906020019060200201818152505080806001019150506105af565b506000610601828461066c565b141561065d577f07fb15b1ebdfd9751a3925ece10a8bff6b5f6ce237f0d1385e2176fa8153eb636040518080602001828103825260228152602001806119b06022913960400191505060405180910390a1600192505050610664565b6000925050505b949350505050565b6000807f30644e72e131a029b85045b68181585d2833e84879b9709143e1f593f0000001905061069a611880565b6106a26107f4565b905080608001515160018651011415156106bb57600080fd5b6106c36118c9565b6040805190810160405280600081526020016000815250905060008090505b8651811015610767578387828151811015156106fa57fe5b9060200190602002015110151561071057600080fd5b6107588261075385608001516001850181518110151561072c57fe5b906020019060200201518a8581518110151561074457fe5b9060200190602002015161123f565b6112db565b915080806001019150506106e2565b5061078e818360800151600081518110151561077f57fe5b906020019060200201516112db565b90506107d4856000015186602001516107a684611398565b85604001516107b88a60400151611398565b87606001516107ca8960000151611398565b8960200151611434565b15156107e657600193505050506107ee565b600093505050505b92915050565b6107fc611880565b60408051908101604052807f05f5bbf5bdacf492a5c442be4ffe3fe282a00aa34318dbb9abaeae5489ad1c3681526020017f2348723fcb46ffe9e020fa4a5d0ed3c4925fac542692d4b0bae928067c20c4758152508160000181905250604080519081016040528060408051908101604052807f1bec2455f4f1aa1b8d9a1d65fb7db7d75fe48c335266071077f4b38e5d0dda9381526020017f2ce148beba2d4935c476a0d113eb5c8e8d743e1277936735566aa2f6acf47813815250815260200160408051908101604052807f2239a59700cc63464eb07b93e01310163e2bc17ac343be5cb7270e2399e7365f81526020017f0b63e18dc45a734b94108c3f62b50a3316d341dd421bc330681c2ea73fc312e28152508152508160200181905250604080519081016040528060408051908101604052807f1c02ccbda818180be058aecbe6e01a9e21585a00668a04b4c878c1127a2df43181526020017f2137cfa2cab615878ef631d6bbb3e2610088b68617a079ceb1a48749419213d1815250815260200160408051908101604052807f019607e7c142904d00eec5e3ace7717276dde9b8a14b9bb7fa98e6e787c47f7a81526020017f0796fb242c773689c0c82abaf22bb0ec2f8283325951312dc54b041afdbc563e8152508152508160400181905250604080519081016040528060408051908101604052807f0d92f74517577f13b64a49d349b8916123724e17b7b9da8483870d44a03ea9d781526020017f27377557a56a6ad40fb36f59f03aa6c7cce0f8e9370139027e283967c7a3bab2815250815260200160408051908101604052807f153aaad3c1a5208b82e40729b4fcaa578f49cc815db5a880d55cbdacf84ca73181526020017f2fa42c5a9edb6c9af5e55b591a89761e39ec616485cf0652451b4aaf018bc5b681525081525081606001819052506010604051908082528060200260200182016040528015610ae357816020015b610ad06118e3565b815260200190600190039081610ac85790505b50816080018190525060408051908101604052807f1625e2b4fde8683daca58e8c319daaf9ab491d858e75dbe8be21e269de40fe6d81526020017f0f4068bcdd11cc7cbb7cb2cbaee94b922b5a58bfe087d5b0e6642ddfc84cf3f681525081608001516000815181101515610b5457fe5b9060200190602002018190525060408051908101604052807f0e9ab233de64a1216a296558a5a34b11af08a933689a27a734e4f5c102f6a67781526020017f281d5a2fc48e9dd4782a452a5aa9a7ab0cc61dc1db411b42ea53b2614061cec881525081608001516001815181101515610bc957fe5b9060200190602002018190525060408051908101604052807f038874106c80c972d3e0f717bddc248a79272d33c4a24c50fb3adbef9a9ee97981526020017f033c7a3f17de321a2e5b2ef9a70d56e40b4ec983d7247ddef5ba0a467a8c788f81525081608001516002815181101515610c3e57fe5b9060200190602002018190525060408051908101604052807f0828d06200caa0c31215ceabcedfdb5de980cc7ee4e56912dd59503fd1e5081e81526020017f0b4114fdd634e242acd8c23405eb08e18aba4266908f3ef17835f276f934055181525081608001516003815181101515610cb357fe5b9060200190602002018190525060408051908101604052807f2ed57b6474a3555070b822ffef12bfeab4e47e6a66915333cca39aa7a866296581526020017f0f1578586e8449a77b204f2362d26249347ccd126212c027d0db6631bd4638aa81525081608001516004815181101515610d2857fe5b9060200190602002018190525060408051908101604052807f0e63fe0bcd1d6fd48fe3d13ef7c0b3623a55acc1b1297df6f2e59066ee7ea26881526020017f2e0cc629326dceebb1e391802e14a79efda0b7d0d43a5e29da144e6d61122ad181525081608001516005815181101515610d9d57fe5b9060200190602002018190525060408051908101604052807f0278667b486000af1abf2040bd0663d1701bb8a5905c970e89a504a8840a17a081526020017f07995b1e4158024f1a01e074f6c05e421dad81b69405dca53ade121b057ed6d081525081608001516006815181101515610e1257fe5b9060200190602002018190525060408051908101604052807f0f16b71e8075454f7097fd9b85c4e26feb9fec0c487db96f71b5c8a262ce1bab81526020017f0e772e76a9bd7e592ca1cf7d2198e00e41f43522964687007eb11967d23eb4e681525081608001516007815181101515610e8757fe5b9060200190602002018190525060408051908101604052807f10abf815e94837deb129deaa828cb127c1714d4a5ba2f1fae1d4c30f86b6381781526020017f1c16ce86d2ad7a307aedcdd6a0c70f387e269f20d32c0f1b4071c6280e0f9c5681525081608001516008815181101515610efc57fe5b9060200190602002018190525060408051908101604052807f0f5107c23478b9318657a2152cf5b5c0e5c825fb7d3800ca8cea8131e35c685081526020017f0152de71475f393cc604663c625897b46cb362e96255eb214cf0cfc2b1eabb1381525081608001516009815181101515610f7157fe5b9060200190602002018190525060408051908101604052807f0d4d99ea8269fd6737c4a9374904b37f6455623969a7ef42d83d549da065d3a581526020017f0695a585c5398f583b0ea3845a0403cd2ba33b52e86e63a3fd73a41aeae060618152508160800151600a815181101515610fe657fe5b9060200190602002018190525060408051908101604052807f0dad9f729996b16d0647b6ee6af92eef037d116f091ab460c2109df603089f3481526020017f1223a547df4d3f0120e4e336b075bbaae9b53a0037beb38b1622bc0b9b89f3738152508160800151600b81518110151561105b57fe5b9060200190602002018190525060408051908101604052807f015ffc15c659b30cc3cab24c6b8aac91a3a5b438b2dd860587cc38c1e860707481526020017f08776fd25154bc245efb6a5b597ffccd73ef12ecbabbeab7fbc0aa24ef8fa0288152508160800151600c8151811015156110d057fe5b9060200190602002018190525060408051908101604052807f13f58f2fb6b98169df57aa6cd99d44929f7a0bc3f42b8a52f82d3ffbb068998d81526020017f1444431cc27b6c3b73e5c541756790ca5f46a5cb59e22530e33881ce9e0091338152508160800151600d81518110151561114557fe5b9060200190602002018190525060408051908101604052807f0dcf196a04bbcc3992ca2fadcb8c44443f048939221db10c6b87bb91e3a9162081526020017f0430669af959bdd410ed0de26fc8ee33d55801d03fa423142a273e142c19d1ca8152508160800151600e8151811015156111ba57fe5b9060200190602002018190525060408051908101604052807f1a67f5ecfbe0500318853585b6b308f45bad115cf829bf26a05100655b35bcbe81526020017f0570b6a5cc3baff7f61057358408106f03bfc74944a42277486a825750ca7cfb8152508160800151600f81518110151561122f57fe5b9060200190602002018190525090565b6112476118c9565b61124f6118fd565b836000015181600060038110151561126357fe5b602002018181525050836020015181600160038110151561128057fe5b6020020181815250508281600260038110151561129957fe5b6020020181815250506000606083608084600060076107d05a03f1905080600081146112c4576112c6565bfe5b508015156112d357600080fd5b505092915050565b6112e36118c9565b6112eb611920565b83600001518160006004811015156112ff57fe5b602002018181525050836020015181600160048110151561131c57fe5b602002018181525050826000015181600260048110151561133957fe5b602002018181525050826020015181600360048110151561135657fe5b602002018181525050600060608360c084600060066107d05a03f19050806000811461138157611383565bfe5b5080151561139057600080fd5b505092915050565b6113a06118c9565b60007f30644e72e131a029b85045b68181585d97816a916871ca8d3c208c16d87cfd479050600083600001511480156113dd575060008360200151145b1561140157604080519081016040528060008152602001600081525091505061142f565b60408051908101604052808460000151815260200182856020015181151561142557fe5b0683038152509150505b919050565b60006060600460405190808252806020026020018201604052801561147357816020015b6114606118e3565b8152602001906001900390816114585790505b509050606060046040519080825280602002602001820160405280156114b357816020015b6114a0611943565b8152602001906001900390816114985790505b5090508a8260008151811015156114c657fe5b90602001906020020181905250888260018151811015156114e357fe5b906020019060200201819052508682600281518110151561150057fe5b906020019060200201819052508482600381518110151561151d57fe5b906020019060200201819052508981600081518110151561153a57fe5b906020019060200201819052508781600181518110151561155757fe5b906020019060200201819052508581600281518110151561157457fe5b906020019060200201819052508381600381518110151561159157fe5b906020019060200201819052506115a882826115b8565b9250505098975050505050505050565b6000815183511415156115ca57600080fd5b60008351905060006006820290506060816040519080825280602002602001820160405280156116095781602001602082028038833980820191505090505b50905060008090505b838110156117e757868181518110151561162857fe5b9060200190602002015160000151826000600684020181518110151561164a57fe5b9060200190602002018181525050868181518110151561166657fe5b9060200190602002015160200151826001600684020181518110151561168857fe5b906020019060200201818152505085818151811015156116a457fe5b906020019060200201516000015160006002811015156116c057fe5b602002015182600260068402018151811015156116d957fe5b906020019060200201818152505085818151811015156116f557fe5b9060200190602002015160000151600160028110151561171157fe5b6020020151826003600684020181518110151561172a57fe5b9060200190602002018181525050858181518110151561174657fe5b9060200190602002015160200151600060028110151561176257fe5b6020020151826004600684020181518110151561177b57fe5b9060200190602002018181525050858181518110151561179757fe5b906020019060200201516020015160016002811015156117b357fe5b602002015182600560068402018151811015156117cc57fe5b90602001906020020181815250508080600101915050611612565b506117f061196a565b60006020826020860260208601600060086107d05a03f19050806000811461181757611819565bfe5b5080151561182657600080fd5b600082600060018110151561183757fe5b602002015114159550505050505092915050565b610100604051908101604052806118606118e3565b815260200161186d611943565b815260200161187a6118e3565b81525090565b6101e0604051908101604052806118956118e3565b81526020016118a2611943565b81526020016118af611943565b81526020016118bc611943565b8152602001606081525090565b604080519081016040528060008152602001600081525090565b604080519081016040528060008152602001600081525090565b606060405190810160405280600390602082028038833980820191505090505090565b608060405190810160405280600490602082028038833980820191505090505090565b60806040519081016040528061195761198d565b815260200161196461198d565b81525090565b602060405190810160405280600190602082028038833980820191505090505090565b604080519081016040528060029060208202803883398082019150509050509056fe5472616e73616374696f6e207375636365737366756c6c792076657269666965642ea165627a7a72305820767faa2eb36fed98ced9c97cef0d5c8e8ac08e30644c99647ee36fd0bb6c42fc0029",
  "source": "pragma solidity ^0.5.2;\n\nimport {Verifier as DepositNoteVerifier} from \"./verifiers/DepositNoteVerifier.sol\";\nimport \"./ZkDaiBase.sol\";\n\n\ncontract DepositNotes is DepositNoteVerifier, ZkDaiBase {\n  uint8 internal constant NUM_PUBLIC_INPUTS = 15;\n  uint8 internal constant NUM_DEPOSIT_NOTES = 4;\n  /**\n  * @dev Hashes the submitted proof and adds it to the submissions mapping that tracks\n  *      submission time, type, public inputs of the zkSnark and the submitter\n  */\n  function submit(\n      uint256[2] memory a,\n      uint256[2][2] memory b,\n      uint256[2] memory c,\n      uint256[NUM_PUBLIC_INPUTS] memory input)\n    internal\n  {\n      bytes32 proofHash = getProofHash(a, b, c);\n      uint256[] memory publicInput = new uint256[](NUM_PUBLIC_INPUTS);\n      for(uint8 i = 0; i < NUM_PUBLIC_INPUTS; i++) {\n        publicInput[i] = input[i];\n      }\n      submissions[proofHash] = Submission(msg.sender, SubmissionType.Deposit, now, publicInput);\n      emit Submitted(msg.sender, proofHash);\n  }\n\n  /**\n  * @dev Commits the proof i.e. Marks the input note as Spent and mints two new output notes that came with the proof.\n  * @param proofHash Hash of the proof to be committed\n  */\n  function depositCommit(bytes32 proofHash)\n    internal\n  {\n      Submission storage submission = submissions[proofHash];\n      bytes32[NUM_DEPOSIT_NOTES+1] memory _notes = get5Notes(submission.publicInput);\n\n      // check that the first note (among public params) is committed and\n      require(notes[_notes[0]] == State.Committed, \"Note is either invalid or already spent\");\n      // check that the deposit notes is already minted.\n      for(uint i=1; i<NUM_DEPOSIT_NOTES; i++){\n        require(notes[_notes[i]] == State.Invalid, \"output note is already minted\");\n      }\n\n      notes[_notes[0]] = State.Spent;\n      for(uint i=1; i<NUM_DEPOSIT_NOTES; i++){\n        notes[_notes[i]] = State.Deposit;\n      }\n\n      delete submissions[proofHash];\n      submission.submitter.transfer(stake);\n\n      emit NoteStateChange(_notes[0], State.Spent);\n      for(uint i=1; i<NUM_DEPOSIT_NOTES; i++){\n        emit NoteStateChange(_notes[i], State.Deposit);\n      }\n  }\n\n  function get5Notes(uint256[] memory input)\n    internal\n    pure\n    returns(bytes32[NUM_DEPOSIT_NOTES+1] memory notes)\n  {\n      for(uint i=0; i<NUM_DEPOSIT_NOTES; i++){\n        notes[i] = calcNoteHash(input[i*2], input[i*2+1]);\n      }\n  }\n\n  /**\n  * @dev Challenge the proof for spend step\n  * @notice params: a, a_p, b, b_p, c, c_p, h, k zkSnark parameters of the challenged proof\n  * @param proofHash Hash of the proof\n  */\n  function challenge(\n      uint256[2] memory a,\n      uint256[2][2] memory b,\n      uint256[2] memory c,\n      bytes32 proofHash)\n    internal\n  {\n      Submission storage submission = submissions[proofHash];\n      uint256[NUM_PUBLIC_INPUTS] memory input;\n      for(uint i = 0; i < NUM_PUBLIC_INPUTS; i++) {\n        input[i] = submission.publicInput[i];\n      }\n      if (!depositVerifyTx(a, b, c, input)) {\n        // challenge passed\n        delete submissions[proofHash];\n        msg.sender.transfer(stake);\n        emit Challenged(msg.sender, proofHash);\n      } else {\n        // challenge failed\n        depositCommit(proofHash);\n      }\n  }\n}\n",
  "sourcePath": "/home/boo/work/LightningZKP/contracts/DepositNotes.sol",
  "compiler": {
    "name": "solc",
    "version": "0.5.2+commit.1df8f40c.Emscripten.clang"
  },
  "schemaVersion": "3.0.11",
  "updatedAt": "2019-08-21T06:46:53.934Z",
  "devdoc": {
    "methods": {}
  },
  "userdoc": {
    "methods": {}
  }
}