{
  "contractName": "DepositNotes5",
  "abi": [
    {
      "constant": true,
      "inputs": [
        {
          "name": "",
          "type": "bytes32"
        }
      ],
      "name": "depositPools",
      "outputs": [
        {
          "name": "mpkAddress",
          "type": "address"
        },
        {
          "name": "expiredTime",
          "type": "uint256"
        },
        {
          "name": "maxNotesNum",
          "type": "uint8"
        },
        {
          "name": "lastNotesNum",
          "type": "uint8"
        }
      ],
      "payable": false,
      "stateMutability": "view",
      "type": "function"
    },
    {
      "constant": true,
      "inputs": [],
      "name": "stake",
      "outputs": [
        {
          "name": "",
          "type": "uint256"
        }
      ],
      "payable": false,
      "stateMutability": "view",
      "type": "function"
    },
    {
      "constant": true,
      "inputs": [],
      "name": "cooldown",
      "outputs": [
        {
          "name": "",
          "type": "uint256"
        }
      ],
      "payable": false,
      "stateMutability": "view",
      "type": "function"
    },
    {
      "constant": true,
      "inputs": [
        {
          "name": "",
          "type": "bytes32"
        }
      ],
      "name": "notes",
      "outputs": [
        {
          "name": "",
          "type": "uint8"
        }
      ],
      "payable": false,
      "stateMutability": "view",
      "type": "function"
    },
    {
      "constant": false,
      "inputs": [
        {
          "name": "a",
          "type": "uint256[2]"
        },
        {
          "name": "b",
          "type": "uint256[2][2]"
        },
        {
          "name": "c",
          "type": "uint256[2]"
        },
        {
          "name": "input",
          "type": "uint256[31]"
        }
      ],
      "name": "depositVerifyTx",
      "outputs": [
        {
          "name": "r",
          "type": "bool"
        }
      ],
      "payable": false,
      "stateMutability": "nonpayable",
      "type": "function"
    },
    {
      "constant": true,
      "inputs": [
        {
          "name": "",
          "type": "bytes32"
        }
      ],
      "name": "submissions",
      "outputs": [
        {
          "name": "submitter",
          "type": "address"
        },
        {
          "name": "sType",
          "type": "uint8"
        },
        {
          "name": "submittedAt",
          "type": "uint256"
        }
      ],
      "payable": false,
      "stateMutability": "view",
      "type": "function"
    },
    {
      "constant": true,
      "inputs": [],
      "name": "dai",
      "outputs": [
        {
          "name": "",
          "type": "address"
        }
      ],
      "payable": false,
      "stateMutability": "view",
      "type": "function"
    },
    {
      "anonymous": false,
      "inputs": [
        {
          "indexed": false,
          "name": "note",
          "type": "bytes32"
        },
        {
          "indexed": false,
          "name": "state",
          "type": "uint8"
        }
      ],
      "name": "NoteStateChange",
      "type": "event"
    },
    {
      "anonymous": false,
      "inputs": [
        {
          "indexed": false,
          "name": "submitter",
          "type": "address"
        },
        {
          "indexed": false,
          "name": "proofHash",
          "type": "bytes32"
        }
      ],
      "name": "Submitted",
      "type": "event"
    },
    {
      "anonymous": false,
      "inputs": [
        {
          "indexed": false,
          "name": "mpkAddress",
          "type": "address"
        },
        {
          "indexed": false,
          "name": "poolId",
          "type": "bytes32"
        }
      ],
      "name": "Deposited",
      "type": "event"
    },
    {
      "anonymous": false,
      "inputs": [
        {
          "indexed": true,
          "name": "challenger",
          "type": "address"
        },
        {
          "indexed": false,
          "name": "proofHash",
          "type": "bytes32"
        }
      ],
      "name": "Challenged",
      "type": "event"
    },
    {
      "anonymous": false,
      "inputs": [
        {
          "indexed": false,
          "name": "s",
          "type": "string"
        }
      ],
      "name": "DepositVerified",
      "type": "event"
    },
    {
      "constant": true,
      "inputs": [
        {
          "name": "msgHash",
          "type": "bytes32"
        },
        {
          "name": "v",
          "type": "uint8"
        },
        {
          "name": "r",
          "type": "bytes32"
        },
        {
          "name": "s",
          "type": "bytes32"
        }
      ],
      "name": "recoverAddress",
      "outputs": [
        {
          "name": "",
          "type": "address"
        }
      ],
      "payable": false,
      "stateMutability": "view",
      "type": "function"
    },
    {
      "constant": true,
      "inputs": [
        {
          "name": "addr",
          "type": "address"
        },
        {
          "name": "msgHash",
          "type": "bytes32"
        },
        {
          "name": "v",
          "type": "uint8"
        },
        {
          "name": "r",
          "type": "bytes32"
        },
        {
          "name": "s",
          "type": "bytes32"
        }
      ],
      "name": "paymentTxVerify",
      "outputs": [
        {
          "name": "",
          "type": "bool"
        }
      ],
      "payable": false,
      "stateMutability": "view",
      "type": "function"
    },
    {
      "constant": false,
      "inputs": [
        {
          "name": "poolId",
          "type": "bytes32"
        },
        {
          "name": "mpkAddress",
          "type": "address"
        },
        {
          "name": "msgHash",
          "type": "bytes32"
        },
        {
          "name": "transferNotesNum",
          "type": "uint8"
        },
        {
          "name": "v",
          "type": "uint8"
        },
        {
          "name": "r",
          "type": "bytes32"
        },
        {
          "name": "s",
          "type": "bytes32"
        }
      ],
      "name": "commitPaymentTx",
      "outputs": [],
      "payable": false,
      "stateMutability": "nonpayable",
      "type": "function"
    },
    {
      "constant": false,
      "inputs": [
        {
          "name": "poolId",
          "type": "bytes32"
        }
      ],
      "name": "ClaimExpiredPool",
      "outputs": [],
      "payable": false,
      "stateMutability": "nonpayable",
      "type": "function"
    }
  ],
  "bytecode": "0x608060405234801561001057600080fd5b50612de6806100206000396000f3fe608060405234801561001057600080fd5b50600436106100c6576000357c0100000000000000000000000000000000000000000000000000000000900480638428cf831161008e5780638428cf83146102a357806385de26b71461033257806389541e8514610382578063a0d1192d146104fc578063c5c9c0a21461052a578063f4b9fa75146105b4576100c6565b806308da9f78146100cb57806338cd8093146101515780633a4b66f1146101e05780636b6e3f94146101fe578063787a08a614610285575b600080fd5b61014f600480360360e08110156100e157600080fd5b8101908080359060200190929190803573ffffffffffffffffffffffffffffffffffffffff16906020019092919080359060200190929190803560ff169060200190929190803560ff16906020019092919080359060200190929190803590602001909291905050506105fe565b005b61017d6004803603602081101561016757600080fd5b810190808035906020019092919050505061082a565b604051808573ffffffffffffffffffffffffffffffffffffffff1673ffffffffffffffffffffffffffffffffffffffff1681526020018481526020018360ff1660ff1681526020018260ff1660ff16815260200194505050505060405180910390f35b6101e8610894565b6040518082815260200191505060405180910390f35b61026b600480360360a081101561021457600080fd5b81019080803573ffffffffffffffffffffffffffffffffffffffff16906020019092919080359060200190929190803560ff169060200190929190803590602001909291908035906020019092919050505061089a565b604051808215151515815260200191505060405180910390f35b61028d6108e1565b6040518082815260200191505060405180910390f35b6102f0600480360360808110156102b957600080fd5b8101908080359060200190929190803560ff16906020019092919080359060200190929190803590602001909291905050506108e7565b604051808273ffffffffffffffffffffffffffffffffffffffff1673ffffffffffffffffffffffffffffffffffffffff16815260200191505060405180910390f35b61035e6004803603602081101561034857600080fd5b810190808035906020019092919050505061095a565b6040518082600381111561036e57fe5b60ff16815260200191505060405180910390f35b6104e260048036036104e081101561039957600080fd5b8101908080604001906002806020026040519081016040528092919082600260200280828437600081840152601f19601f82011690508083019250505050505091929192908060800190600280602002604051908101604052809291906000905b8282101561044e578382604002016002806020026040519081016040528092919082600260200280828437600081840152601f19601f820116905080830192505050505050815260200190600101906103fa565b50505050919291929080604001906002806020026040519081016040528092919082600260200280828437600081840152601f19601f8201169050808301925050505050509192919290806103e00190601f806020026040519081016040528092919082601f60200280828437600081840152601f19601f820116905080830192505050505050919291929050505061097a565b604051808215151515815260200191505060405180910390f35b6105286004803603602081101561051257600080fd5b8101908080359060200190929190505050610bdf565b005b6105566004803603602081101561054057600080fd5b8101908080359060200190929190505050610eb8565b604051808473ffffffffffffffffffffffffffffffffffffffff1673ffffffffffffffffffffffffffffffffffffffff16815260200183600481111561059857fe5b60ff168152602001828152602001935050505060405180910390f35b6105bc610f0f565b604051808273ffffffffffffffffffffffffffffffffffffffff1673ffffffffffffffffffffffffffffffffffffffff16815260200191505060405180910390f35b60006003600089815260200190815260200160002090508673ffffffffffffffffffffffffffffffffffffffff168160000160009054906101000a900473ffffffffffffffffffffffffffffffffffffffff1673ffffffffffffffffffffffffffffffffffffffff161415156106bf576040517f08c379a0000000000000000000000000000000000000000000000000000000008152600401808060200182810382526033815260200180612d886033913960400191505060405180910390fd5b878786604051602001808481526020018373ffffffffffffffffffffffffffffffffffffffff1673ffffffffffffffffffffffffffffffffffffffff166c010000000000000000000000000281526014018260ff1660ff167f0100000000000000000000000000000000000000000000000000000000000000028152600101935050505060405160208183030381529060405280519060200120861415156107b2576040517f08c379a0000000000000000000000000000000000000000000000000000000008152600401808060200182810382526033815260200180612d886033913960400191505060405180910390fd5b6107bf878786868661089a565b1515610816576040517f08c379a0000000000000000000000000000000000000000000000000000000008152600401808060200182810382526023815260200180612d656023913960400191505060405180910390fd5b6108208886610f35565b5050505050505050565b60036020528060005260406000206000915090508060000160009054906101000a900473ffffffffffffffffffffffffffffffffffffffff16908060010154908060020160009054906101000a900460ff16908060020160019054906101000a900460ff16905084565b60015481565b60006108a8858585856108e7565b73ffffffffffffffffffffffffffffffffffffffff168673ffffffffffffffffffffffffffffffffffffffff1614905095945050505050565b60005481565b600060018585858560405160008152602001604052604051808581526020018460ff1660ff1681526020018381526020018281526020019450505050506020604051602081039080840390855afa158015610946573d6000803e3d6000fd5b505050602060405103519050949350505050565b60056020528060005260406000206000915054906101000a900460ff1681565b6000610984612b52565b604080519081016040528087600060028110151561099e57fe5b602002015181526020018760016002811015156109b757fe5b60200201518152508160000181905250604080519081016040528060408051908101604052808860006002811015156109ec57fe5b602002015160006002811015156109ff57fe5b60200201518152602001886000600281101515610a1857fe5b60200201516001600281101515610a2b57fe5b602002015181525081526020016040805190810160405280886001600281101515610a5257fe5b60200201516000600281101515610a6557fe5b60200201518152602001886001600281101515610a7e57fe5b60200201516001600281101515610a9157fe5b602002015181525081525081602001819052506040805190810160405280856000600281101515610abe57fe5b60200201518152602001856001600281101515610ad757fe5b602002015181525081604001819052506060601f604051908082528060200260200182016040528015610b195781602001602082028038833980820191505090505b50905060008090505b601f811015610b67578481601f81101515610b3957fe5b60200201518282815181101515610b4c57fe5b90602001906020020181815250508080600101915050610b22565b506000610b748284611223565b1415610bd0577f07fb15b1ebdfd9751a3925ece10a8bff6b5f6ce237f0d1385e2176fa8153eb63604051808060200182810382526022815260200180612d436022913960400191505060405180910390a1600192505050610bd7565b6000925050505b949350505050565b6000600360008381526020019081526020016000209050428160010154101515610c71576040517f08c379a000000000000000000000000000000000000000000000000000000000815260040180806020018281038252600f8152602001807f4e6f74206578706972656420796574000000000000000000000000000000000081525060200191505060405180910390fd5b60008160020160019054906101000a900460ff1660ff1690505b8160020160009054906101000a900460ff1660ff16811015610e26576002600560008460040184815481101515610cbe57fe5b9060005260206000200154815260200190815260200160002060006101000a81548160ff02191690836003811115610cf257fe5b02179055506001600560008460030184815481101515610d0e57fe5b9060005260206000200154815260200190815260200160002060006101000a81548160ff02191690836003811115610d4257fe5b02179055507f91d2faa002479f8dc4f20862402db3dba2ebe927031674997d38e5b70d9877e78260040182815481101515610d7957fe5b9060005260206000200154600260405180838152602001826003811115610d9c57fe5b60ff1681526020019250505060405180910390a17f91d2faa002479f8dc4f20862402db3dba2ebe927031674997d38e5b70d9877e78260030182815481101515610de257fe5b9060005260206000200154600160405180838152602001826003811115610e0557fe5b60ff1681526020019250505060405180910390a18080600101915050610c8b565b5060036000838152602001908152602001600020600080820160006101000a81549073ffffffffffffffffffffffffffffffffffffffff021916905560018201600090556002820160006101000a81549060ff02191690556002820160016101000a81549060ff0219169055600382016000610ea29190612b87565b600482016000610eb29190612b87565b50505050565b60046020528060005260406000206000915090508060000160009054906101000a900473ffffffffffffffffffffffffffffffffffffffff16908060000160149054906101000a900460ff16908060010154905083565b600260009054906101000a900473ffffffffffffffffffffffffffffffffffffffff1681565b600060036000848152602001908152602001600020905042816001015410151515610fc8576040517f08c379a000000000000000000000000000000000000000000000000000000000815260040180806020018281038252600f8152602001807f506f6f6c2069732065787069726564000000000000000000000000000000000081525060200191505060405180910390fd5b8060020160009054906101000a900460ff1660ff168260ff161115801561100557508060020160019054906101000a900460ff1660ff168260ff16115b151561105c576040517f08c379a0000000000000000000000000000000000000000000000000000000008152600401808060200182810382526046815260200180612cfd6046913960600191505060405180910390fd5b60008160020160019054906101000a900460ff1660ff1690505b8260ff1681101561120057600160056000846004018481548110151561109857fe5b9060005260206000200154815260200190815260200160002060006101000a81548160ff021916908360038111156110cc57fe5b021790555060026005600084600301848154811015156110e857fe5b9060005260206000200154815260200190815260200160002060006101000a81548160ff0219169083600381111561111c57fe5b02179055507f91d2faa002479f8dc4f20862402db3dba2ebe927031674997d38e5b70d9877e7826004018281548110151561115357fe5b906000526020600020015460016040518083815260200182600381111561117657fe5b60ff1681526020019250505060405180910390a17f91d2faa002479f8dc4f20862402db3dba2ebe927031674997d38e5b70d9877e782600301828154811015156111bc57fe5b90600052602060002001546002604051808381526020018260038111156111df57fe5b60ff1681526020019250505060405180910390a18080600101915050611076565b50818160020160016101000a81548160ff021916908360ff160217905550505050565b6000807f30644e72e131a029b85045b68181585d2833e84879b9709143e1f593f00000019050611251612ba8565b6112596113ab565b9050806080015151600186510114151561127257600080fd5b61127a612bf1565b6040805190810160405280600081526020016000815250905060008090505b865181101561131e578387828151811015156112b157fe5b906020019060200201511015156112c757600080fd5b61130f8261130a8560800151600185018151811015156112e357fe5b906020019060200201518a858151811015156112fb57fe5b90602001906020020151612546565b6125e2565b91508080600101915050611299565b50611345818360800151600081518110151561133657fe5b906020019060200201516125e2565b905061138b8560000151866020015161135d8461269f565b856040015161136f8a6040015161269f565b8760600151611381896000015161269f565b896020015161273b565b151561139d57600193505050506113a5565b600093505050505b92915050565b6113b3612ba8565b60408051908101604052807f1f0d4ab681e60a0868d58f162d59df9f1b488777fa29c3e33ffa079e09b1965881526020017f094d3e1390a55cd2e111d11e0f597c9a1d1b8641a8e17836094292ce93a35aef8152508160000181905250604080519081016040528060408051908101604052807f01577a7077a3b575f61a47d0258570dc0895a7390d96e2f63ca93297903a804c81526020017f11877437f84a379d5e04dfd34b547c63ef454ed7aaf27cba127422dffec2a138815250815260200160408051908101604052807f29549edfb52ddec31ca1fc740da801e2c1a778d7673e206c2621a051d335fb5f81526020017f2d74adf493c430b4ea75a6d4a66a538b52a8c4bad53dab7417e0b067083c1c1c8152508152508160200181905250604080519081016040528060408051908101604052807f27447b8d95c37e550c0ec3babbbfd5dd14e61e8d748f85bb1fe3b0917ae1e3c281526020017f295df8a10e8301620b7cf3d054baba1d794867bdb8da7f8fb2ea716f781f3c15815250815260200160408051908101604052807f060f28a3ff280debb78d02db46713f966cb292068755324704b709a2143ac44c81526020017f1bb9454a9e9495df0c1a7c09f6e4516cb56f6838d44eac8a0f6d5ce68bc9f00c8152508152508160400181905250604080519081016040528060408051908101604052807f2c3cc514f4c54605e0db4c55305735fc6d91cc044475eaf2f84e799cccb29c2881526020017f0455f56f01a3f0cd59fc42009c86ecb24045fb0bc2c9067e96bad450eeeb813e815250815260200160408051908101604052807f1df0162fe8021873f960b297be9b157acdc328e2d862268690d5ece8afa1e6e981526020017f0e2d38de0c8aac6edbf71b371fc46418d304ee27a02053798c6841ab185a17788152508152508160600181905250602060405190808252806020026020018201604052801561169a57816020015b611687612c0b565b81526020019060019003908161167f5790505b50816080018190525060408051908101604052807f15c725042916527ced47e384abb239e00cc2c5aa1ad0e8af6bc233ccf46019f781526020017f0aa31a601d9fece85bdfd55dddba418b86a935afc084faf8b9a47760de8d81d98152508160800151600081518110151561170b57fe5b9060200190602002018190525060408051908101604052807f08903755466849c2d924d9f9cf6f2032c9ad9da0dfff9fb22caa53eb22b76c3181526020017f2d0e9602a5a199aaffcb71c46514d2cf9038c3c631410a57e495fcc7333748c68152508160800151600181518110151561178057fe5b9060200190602002018190525060408051908101604052807f2710123d27d5b93858672a3aab5edb39b6346f8060ce5d619d540e2ad26ce7f181526020017f08446f02f832d6604c37f5b3497537037c69e7cbc8fec136a202cb22c363a1ad815250816080015160028151811015156117f557fe5b9060200190602002018190525060408051908101604052807f2e63ab0d75b09e637391b43e2470e350df01159bae7b8e3049fa253269d6616e81526020017f0867534e2a6cd966084643f9d24f104c6ed2e91458e85ccb95b71fb822ee522a8152508160800151600381518110151561186a57fe5b9060200190602002018190525060408051908101604052807f221718c12e7aa360fd67ef8cb27bdcadc1ced3caef2ad5226ed9b4340982c67081526020017f191ac05af5046528d071939680e479b35fb0de7a99fbaa3cf2d8cf715623d861815250816080015160048151811015156118df57fe5b9060200190602002018190525060408051908101604052807f08954431ff5d354d08c7f205ecf57da3aa1813bfdbe7341331d74ee9bca4e6a981526020017f09c1268ad32e21bf8c402d7371b32d438ec798028684eb6e1f78a334c25f42268152508160800151600581518110151561195457fe5b9060200190602002018190525060408051908101604052807f2ff072628fe9dd7eac9512299ce84bcc2619c89025174dc0eefdeb1c2bec872381526020017f1e0e879a741248e07d6e9f0e4d308edd5b578209b7061ed7197c327e3a2d4bbd815250816080015160068151811015156119c957fe5b9060200190602002018190525060408051908101604052807f23935bdf628478f5b4892a713774e3e8bb40213e727af025e295cfde7caffe7281526020017f2670ec0b562a9e67f51893bb0d669eeaf311323d188924afd68ba7a688243a6981525081608001516007815181101515611a3e57fe5b9060200190602002018190525060408051908101604052807f2274fba3179146eca122ce4d0b05b05d833171e1ac66ea95f00e7e31e35589fd81526020017f11087ef307c51eee2387b325bf37fd493ff289633c4169f4c63092588e73674881525081608001516008815181101515611ab357fe5b9060200190602002018190525060408051908101604052807f011bd60ee68c95e5535be63d0a85456874cdb6020553f9046227d8da12955cef81526020017f2baa1dab3e23831058024fdb98dfddc960613c48efbd33add8ebeb04ae8133b681525081608001516009815181101515611b2857fe5b9060200190602002018190525060408051908101604052807f0986d95d52f31156748f0bb378cfc8dd66e53e71394c24c5a5b982dd4ce5b05181526020017f241c2f876c4bc7e1b715b01037b1af265516f27a30b4544edeb41241b3513a418152508160800151600a815181101515611b9d57fe5b9060200190602002018190525060408051908101604052807f1fe93c7de253a68a5351ec602e5cc48f7ba15c4727b8be2766182ff8ed9b6c8b81526020017f06bf82e7f7c81ba72257dd2be8afe79ffab9a53dff603265cf13b29db00835728152508160800151600b815181101515611c1257fe5b9060200190602002018190525060408051908101604052807f1a5f3685a767dd8caae04e779eda42330397eb673a238cbe48b3be2d735c8f7d81526020017f0a90556c0bc895178fa4915c6410dc40fe3d443ee7d67191952410ea27a702558152508160800151600c815181101515611c8757fe5b9060200190602002018190525060408051908101604052807f118af77ba8f5e82595433954156d0b089fbd58eabd1f40176c4878632c380eb281526020017f1fca1e76d957f1231c02aa82782d5c24b89ac3a08e569fdda2ffb3dde32b1d188152508160800151600d815181101515611cfc57fe5b9060200190602002018190525060408051908101604052807f04161e8de8a2fbdffb70435294044f2e7e99a2c760bdbee3a94235a28a9b895881526020017f0ba4dde5f3a13cf6e4375dcd6117cf308533c16f61eca662fb359ac7d8e47c5f8152508160800151600e815181101515611d7157fe5b9060200190602002018190525060408051908101604052807f0be51158dcf915f0503f93754342321beb6dd9b88503fe907c1ca8b69ef1747a81526020017f200dc4e32df2457d8d2c5101799ad6c075b8a0afe0045e8570660f690d3c79368152508160800151600f815181101515611de657fe5b9060200190602002018190525060408051908101604052807f2954353c75eef652e357a453b20f022091a8072f39b53c9184964ab82b4d2fc081526020017f16245e9cd195266effaf7c5268086f16e781e4bc97fffff1e3fc4bcf18e89e1881525081608001516010815181101515611e5b57fe5b9060200190602002018190525060408051908101604052807f26bf4420ecd05beb5c46cdb60fd3281772917eeec9be0fe50f198d4ecb3be66081526020017f289b7b93f8da4eeeeabd305793812dc29cf4dcff32599c21ee9c7457635b82a481525081608001516011815181101515611ed057fe5b9060200190602002018190525060408051908101604052807f204ca7e50bdb4628082be6bcb8907f1fef40ed407682b7ca9cec563d0ad52e3f81526020017f28de6ccecfd30de76df6d531972a3f3bd92d46668bef7b69ab7bdc0f1748c5d081525081608001516012815181101515611f4557fe5b9060200190602002018190525060408051908101604052807f1e9e7ee8d4547a89dc0120b60e71632096a95629896818af22f67eef0afd634c81526020017f2324b6153e5446cc58690d00616cb2774d2081a89b8b63b0c268fa71e8fa573a81525081608001516013815181101515611fba57fe5b9060200190602002018190525060408051908101604052807f1a31cb6bd35059d178dab115e7f61db6871c57e4c8a7d9a93de0502ab2ace28581526020017f2febfe21ece710b719d43df75ccb3db83ba0b8a2ae07b104caa1e6f0060982ec8152508160800151601481518110151561202f57fe5b9060200190602002018190525060408051908101604052807f269f99c3902df2b70c2f517b66edf06cb3a523e17271733cd7b8081628a53de081526020017f24daa4de591854c330f9e241a086fb576825fb06adf991459407546730c1caee815250816080015160158151811015156120a457fe5b9060200190602002018190525060408051908101604052807f1c510e1ee0f5d5fdbebc8e51416bed6959ab93f50199c50bf173cece18c6caa081526020017f1386f1c3b9a6963c511747a49f71a32276a7a87bcf55fb56017acdad45486ae28152508160800151601681518110151561211957fe5b9060200190602002018190525060408051908101604052807f1c78cf549cbac7117e8c275762a0e23295db9780bc693ad0d02427a1efd3830b81526020017f020c3228bb37578e77c22b8e51651af9bbf77298d558f21c0444ca7536ff6fbe8152508160800151601781518110151561218e57fe5b9060200190602002018190525060408051908101604052807f2439064b9c62b37e1777d586f35e40dccbfbfe6ffe1551d26c5008794028813581526020017f129612989d3b99a7e283c597392cc1df31ce6e5122b75356564e9d8ccbc760bb8152508160800151601881518110151561220357fe5b9060200190602002018190525060408051908101604052807f266451dd58da04ed176ab2d1bcf9b2dba12c735730b24d256f43398eeaf47bf681526020017f05dc13989cd02c3e2cb2e6928b64c40b6bddfb1dddaef20288bab97e3664df8c8152508160800151601981518110151561227857fe5b9060200190602002018190525060408051908101604052807f276b603dfa2c3d310ac6328bea22daca9b708a947d559aebee40c60301c3c23a81526020017f1b8ff2fc48e77aff179ae31299ed835398cb250670c6ec2710921da05bc6eca18152508160800151601a8151811015156122ed57fe5b9060200190602002018190525060408051908101604052807f1374f8bec7b5d4581df9a0243d1d835f7d339b1e99ee6e9c79e4d8bc2e8d8fd881526020017f094436f6d94638e713389a682de1b4da0caa42d4f8380cc94b72c0d4cc041a668152508160800151601b81518110151561236257fe5b9060200190602002018190525060408051908101604052807f20f518b0459f59ea7154bce92239d6c43abb9691272fb9e992e841c2290f41b781526020017f084d68d22fbfa1aa4833e6873e0fb11e2beacca61d8013d3ccb191cb50ee51e38152508160800151601c8151811015156123d757fe5b9060200190602002018190525060408051908101604052807f2ccc1b62edbb04300af37eeb5a5948d2c0507a742e933ea111b89897b482522181526020017f20a493397ad16904e39ed6366619752e59b6ce3e13254abf61bc086140a0609e8152508160800151601d81518110151561244c57fe5b9060200190602002018190525060408051908101604052807f04916233590a4dd7a5344e4e4134b33c8deb88f6f3393f378f077b94a6f65e6581526020017f1fdb9236c0c0204bd43909c60c31f425c663a9cd917d4c7b9e0a9cac99a473de8152508160800151601e8151811015156124c157fe5b9060200190602002018190525060408051908101604052807f2085528fc3ab253e5fc937ef0038458a53af530ad299b77be6dfd84646d7d52f81526020017f0728c0336066383869709b8b3f4fca9ce15037066de972b7991cb14fb73312de8152508160800151601f81518110151561253657fe5b9060200190602002018190525090565b61254e612bf1565b612556612c25565b836000015181600060038110151561256a57fe5b602002018181525050836020015181600160038110151561258757fe5b602002018181525050828160026003811015156125a057fe5b6020020181815250506000606083608084600060076107d05a03f1905080600081146125cb576125cd565bfe5b508015156125da57600080fd5b505092915050565b6125ea612bf1565b6125f2612c48565b836000015181600060048110151561260657fe5b602002018181525050836020015181600160048110151561262357fe5b602002018181525050826000015181600260048110151561264057fe5b602002018181525050826020015181600360048110151561265d57fe5b602002018181525050600060608360c084600060066107d05a03f1905080600081146126885761268a565bfe5b5080151561269757600080fd5b505092915050565b6126a7612bf1565b60007f30644e72e131a029b85045b68181585d97816a916871ca8d3c208c16d87cfd479050600083600001511480156126e4575060008360200151145b15612708576040805190810160405280600081526020016000815250915050612736565b60408051908101604052808460000151815260200182856020015181151561272c57fe5b0683038152509150505b919050565b60006060600460405190808252806020026020018201604052801561277a57816020015b612767612c0b565b81526020019060019003908161275f5790505b509050606060046040519080825280602002602001820160405280156127ba57816020015b6127a7612c6b565b81526020019060019003908161279f5790505b5090508a8260008151811015156127cd57fe5b90602001906020020181905250888260018151811015156127ea57fe5b906020019060200201819052508682600281518110151561280757fe5b906020019060200201819052508482600381518110151561282457fe5b906020019060200201819052508981600081518110151561284157fe5b906020019060200201819052508781600181518110151561285e57fe5b906020019060200201819052508581600281518110151561287b57fe5b906020019060200201819052508381600381518110151561289857fe5b906020019060200201819052506128af82826128bf565b9250505098975050505050505050565b6000815183511415156128d157600080fd5b60008351905060006006820290506060816040519080825280602002602001820160405280156129105781602001602082028038833980820191505090505b50905060008090505b83811015612aee57868181518110151561292f57fe5b9060200190602002015160000151826000600684020181518110151561295157fe5b9060200190602002018181525050868181518110151561296d57fe5b9060200190602002015160200151826001600684020181518110151561298f57fe5b906020019060200201818152505085818151811015156129ab57fe5b906020019060200201516000015160006002811015156129c757fe5b602002015182600260068402018151811015156129e057fe5b906020019060200201818152505085818151811015156129fc57fe5b90602001906020020151600001516001600281101515612a1857fe5b60200201518260036006840201815181101515612a3157fe5b90602001906020020181815250508581815181101515612a4d57fe5b90602001906020020151602001516000600281101515612a6957fe5b60200201518260046006840201815181101515612a8257fe5b90602001906020020181815250508581815181101515612a9e57fe5b90602001906020020151602001516001600281101515612aba57fe5b60200201518260056006840201815181101515612ad357fe5b90602001906020020181815250508080600101915050612919565b50612af7612c92565b60006020826020860260208601600060086107d05a03f190508060008114612b1e57612b20565bfe5b50801515612b2d57600080fd5b6000826000600181101515612b3e57fe5b602002015114159550505050505092915050565b61010060405190810160405280612b67612c0b565b8152602001612b74612c6b565b8152602001612b81612c0b565b81525090565b5080546000825590600052602060002090810190612ba59190612cb5565b50565b6101e060405190810160405280612bbd612c0b565b8152602001612bca612c6b565b8152602001612bd7612c6b565b8152602001612be4612c6b565b8152602001606081525090565b604080519081016040528060008152602001600081525090565b604080519081016040528060008152602001600081525090565b606060405190810160405280600390602082028038833980820191505090505090565b608060405190810160405280600490602082028038833980820191505090505090565b608060405190810160405280612c7f612cda565b8152602001612c8c612cda565b81525090565b602060405190810160405280600190602082028038833980820191505090505090565b612cd791905b80821115612cd3576000816000905550600101612cbb565b5090565b90565b604080519081016040528060029060208202803883398082019150509050509056fe7472616e736665724e6f7465734e756d206973206c6f776572207468616e206c6173744e6f7465734e756d206f7220626967676572207468616e206d61784e6f7465734e756d5472616e73616374696f6e207375636365737366756c6c792076657269666965642e546865207369676e20646f6573206e6f74206d61746368206d706b20416464726573736d706b204164647265737320646f6573206e6f74206d61746368206d706b206164647265737320696e207061796d656e745478a165627a7a72305820735b80becbb0ab4e58ccc425927afa971b6c76423b73e26fe5fb37164e7ccd9f0029",
  "source": "pragma solidity ^0.5.2;\n\nimport \"./verifiers/DepositNote5Verifier.sol\";\nimport \"./ZkDaiBase.sol\";\n\n\ncontract DepositNotes5 is DepositNote5Verifier, ZkDaiBase {\n  uint8 internal constant NUM_PUBLIC_INPUTS = 31;\n  uint8 internal constant NUM_DEPOSIT_NOTES = 5*2; //deposit_note_num * 2 (sender and receiver)\n  uint8 internal constant NUM_ALL_NOTES = 2 + NUM_DEPOSIT_NOTES; //2 (original note + change note) + deposit notes\n  uint8 internal constant MPK_INDEX = (NUM_DEPOSIT_NOTES+2)*2; // (NUM_DEPOSIT_NOTES + original note + change note) * 2 (2 public input is needed for one note hash value)\n  /**\n  * @dev Hashes the submitted proof and adds it to the submissions mapping that tracks\n  *      submission time, type, public inputs of the zkSnark and the submitter\n  */\n  function submit(\n      uint256[2] memory a,\n      uint256[2][2] memory b,\n      uint256[2] memory c,\n      uint256[NUM_PUBLIC_INPUTS] memory input)\n    internal\n  {\n      bytes32 proofHash = getProofHash(a, b, c);\n      uint256[] memory publicInput = new uint256[](NUM_PUBLIC_INPUTS);\n      for(uint8 i = 0; i < NUM_PUBLIC_INPUTS; i++) {\n        publicInput[i] = input[i];\n      }\n      submissions[proofHash] = Submission(msg.sender, SubmissionType.Deposit, now, publicInput);\n      emit Submitted(msg.sender, proofHash);\n  }\n\n  /**\n  * @dev Commits the proof i.e. Marks the input note as Spent and mints two new output notes that came with the proof.\n  * @param proofHash Hash of the proof to be committed\n  */\n  function depositCommit(bytes32 proofHash)\n    internal\n  {\n      Submission storage submission = submissions[proofHash];\n      bytes32[NUM_ALL_NOTES] memory _notes = getALLNotes_5(submission.publicInput);\n\n      // check that the first note (among public params) is committed and\n      require(notes[_notes[0]] == State.Committed, \"Note is either invalid or already spent\");\n      // check that the deposit notes is already minted.\n      for(uint i=1; i<NUM_ALL_NOTES; i++){\n        require(notes[_notes[i]] == State.Invalid, \"New note is already minted\");\n      }\n\n      notes[_notes[0]] = State.Spent; // Change the state of an original note.\n      for(uint i=1; i<NUM_DEPOSIT_NOTES; i++){\n        notes[_notes[i]] = State.Deposit;\n      }\n      notes[_notes[NUM_ALL_NOTES-1]] = State.Committed; // Change the state of a \"change note\".\n\n      delete submissions[proofHash];\n      submission.submitter.transfer(stake);\n\n      emit NoteStateChange(_notes[0], State.Spent);\n      for(uint i=1; i<NUM_DEPOSIT_NOTES; i++){\n        emit NoteStateChange(_notes[i], State.Deposit);\n      }\n      emit NoteStateChange(_notes[NUM_ALL_NOTES-1], State.Committed);\n\n      bytes32 poolId = keccak256(abi.encodePacked(_notes[0],now));\n\n      //Testing for getMpkAddress function is needed.\n      address mpkAddress = getMpkAddress(submission.publicInput[MPK_INDEX],submission.publicInput[MPK_INDEX+1],submission.publicInput[MPK_INDEX+2],submission.publicInput[MPK_INDEX+3]); //needs to be modified\n\n      bytes32[] memory senderNotes = new bytes32[](NUM_DEPOSIT_NOTES/2);\n      for(uint i =0; i< NUM_DEPOSIT_NOTES/2; i++){\n        senderNotes[i] = _notes[i+1];\n      }\n      bytes32[] memory receiverNotes = new bytes32[](NUM_DEPOSIT_NOTES/2);\n      for(uint i = 0; i< NUM_DEPOSIT_NOTES/2; i++) {\n        receiverNotes[i] = _notes[i+NUM_DEPOSIT_NOTES/2+1];\n      }\n      uint expectedTime = 5 minutes;\n      depositPools[poolId] = DepositPool(mpkAddress, now + expectedTime, NUM_DEPOSIT_NOTES/2, 0, senderNotes, receiverNotes);\n  }\n\n  function getALLNotes_5(uint256[] memory input)\n    internal\n    pure\n    returns(bytes32[NUM_ALL_NOTES] memory notes)\n  {\n      for(uint i=0; i<NUM_ALL_NOTES; i++){\n        notes[i] = calcNoteHash(input[i*2], input[i*2+1]);\n      }\n  }\n\n  /**\n  * @dev Challenge the proof for spend step\n  * @notice params: a, a_p, b, b_p, c, c_p, h, k zkSnark parameters of the challenged proof\n  * @param proofHash Hash of the proof\n  */\n  function challenge(\n      uint256[2] memory a,\n      uint256[2][2] memory b,\n      uint256[2] memory c,\n      bytes32 proofHash)\n    internal\n  {\n      Submission storage submission = submissions[proofHash];\n      uint256[NUM_PUBLIC_INPUTS] memory input;\n      for(uint i = 0; i < NUM_PUBLIC_INPUTS; i++) {\n        input[i] = submission.publicInput[i];\n      }\n      if (!depositVerifyTx(a, b, c, input)) {\n        // challenge passed\n        delete submissions[proofHash];\n        msg.sender.transfer(stake);\n        emit Challenged(msg.sender, proofHash);\n      } else {\n        // challenge failed\n        depositCommit(proofHash);\n      }\n  }\n\n   /* Commit paymentTx */\n  function recoverAddress(bytes32 msgHash, uint8 v, bytes32 r, bytes32 s) public view returns (address) {\n      return ecrecover(msgHash, v, r, s);\n  }\n\n  function paymentTxVerify(address addr, bytes32 msgHash, uint8 v, bytes32 r, bytes32 s) public view returns (bool) {\n    return addr == recoverAddress(msgHash, v, r, s);\n  }\n\n  function commitDepositNotes(bytes32 poolId, uint8 transferNotesNum) internal {\n    DepositPool storage dp = depositPools[poolId];\n    require(dp.expiredTime >= now ,\"Pool is expired\");\n    require((transferNotesNum <= dp.maxNotesNum) && (transferNotesNum > dp.lastNotesNum), \"transferNotesNum is lower than lastNotesNum or bigger than maxNotesNum\");\n\n    //change recevier's deposit notes' state to avaliable\n    //and change sender's deposit notes' state to spent\n    //The number of notes changed = transferNotesNum - lastNotesNum\n    for(uint i = dp.lastNotesNum; i < transferNotesNum; i++){\n      notes[dp.receiverNotes[i]] = State.Committed;\n      notes[dp.senderNotes[i]] = State.Spent;\n      emit NoteStateChange(dp.receiverNotes[i], State.Committed);\n      emit NoteStateChange(dp.senderNotes[i], State.Spent);\n    }\n    dp.lastNotesNum = transferNotesNum;\n  }\n\n  function commitPaymentTx(bytes32 poolId, address mpkAddress, bytes32 msgHash, uint8 transferNotesNum, uint8 v, bytes32 r, bytes32 s) public {\n    DepositPool storage dp = depositPools[poolId];\n    require(dp.mpkAddress == mpkAddress, \"mpk Address does not match mpk address in paymentTx\");\n    require(msgHash == keccak256(abi.encodePacked(poolId,mpkAddress,transferNotesNum)), \"mpk Address does not match mpk address in paymentTx\");\n    require(paymentTxVerify(mpkAddress, msgHash, v, r, s),\"The sign does not match mpk Address\");\n    commitDepositNotes(poolId, transferNotesNum);\n  }\n\n  //check Pool is expired. If pool is expired, then change the remain sender notes' state to avaliable. Also change the remain reciever notes' state to spent(unavailable).\n  function ClaimExpiredPool(bytes32 poolId) public { //ClaimExpiredPool\n\n    DepositPool storage dp = depositPools[poolId];\n    require(dp.expiredTime < now, \"Not expired yet\");\n\n    //If pool is expired, then return change to sender\n    for(uint i = dp.lastNotesNum; i < dp.maxNotesNum; i++){\n      notes[dp.receiverNotes[i]] = State.Spent;\n      notes[dp.senderNotes[i]] = State.Committed;\n      emit NoteStateChange(dp.receiverNotes[i], State.Spent);\n      emit NoteStateChange(dp.senderNotes[i], State.Committed);\n    }\n\n    delete depositPools[poolId];\n  }\n}\n",
  "sourcePath": "/home/boo/work/LightningZKP/contracts/DepositNotes5.sol",
  "compiler": {
    "name": "solc",
    "version": "0.5.2+commit.1df8f40c.Emscripten.clang"
  },
  "schemaVersion": "3.0.16",
  "updatedAt": "2019-10-17T09:24:36.738Z",
  "devdoc": {
    "methods": {}
  },
  "userdoc": {
    "methods": {}
  }
}