{
  "contractName": "DepositNote2Verifier",
  "abi": [
    {
      "anonymous": false,
      "inputs": [
        {
          "indexed": false,
          "name": "s",
          "type": "string"
        }
      ],
      "name": "DepositVerified",
      "type": "event"
    },
    {
      "constant": false,
      "inputs": [
        {
          "name": "a",
          "type": "uint256[2]"
        },
        {
          "name": "b",
          "type": "uint256[2][2]"
        },
        {
          "name": "c",
          "type": "uint256[2]"
        },
        {
          "name": "input",
          "type": "uint256[19]"
        }
      ],
      "name": "depositVerifyTx",
      "outputs": [
        {
          "name": "r",
          "type": "bool"
        }
      ],
      "payable": false,
      "stateMutability": "nonpayable",
      "type": "function"
    }
  ],
  "bytecode": "0x608060405234801561001057600080fd5b50611991806100206000396000f3fe608060405234801561001057600080fd5b5060043610610048576000357c0100000000000000000000000000000000000000000000000000000000900480637583cf721461004d575b600080fd5b6101ad600480360361036081101561006457600080fd5b8101908080604001906002806020026040519081016040528092919082600260200280828437600081840152601f19601f82011690508083019250505050505091929192908060800190600280602002604051908101604052809291906000905b82821015610119578382604002016002806020026040519081016040528092919082600260200280828437600081840152601f19601f820116905080830192505050505050815260200190600101906100c5565b50505050919291929080604001906002806020026040519081016040528092919082600260200280828437600081840152601f19601f82011690508083019250505050505091929192908061026001906013806020026040519081016040528092919082601360200280828437600081840152601f19601f82011690508083019250505050505091929192905050506101c7565b604051808215151515815260200191505060405180910390f35b60006101d16117df565b60408051908101604052808760006002811015156101eb57fe5b6020020151815260200187600160028110151561020457fe5b602002015181525081600001819052506040805190810160405280604080519081016040528088600060028110151561023957fe5b6020020151600060028110151561024c57fe5b6020020151815260200188600060028110151561026557fe5b6020020151600160028110151561027857fe5b60200201518152508152602001604080519081016040528088600160028110151561029f57fe5b602002015160006002811015156102b257fe5b602002015181526020018860016002811015156102cb57fe5b602002015160016002811015156102de57fe5b60200201518152508152508160200181905250604080519081016040528085600060028110151561030b57fe5b6020020151815260200185600160028110151561032457fe5b60200201518152508160400181905250606060136040519080825280602002602001820160405280156103665781602001602082028038833980820191505090505b50905060008090505b60138110156103b457848160138110151561038657fe5b6020020151828281518110151561039957fe5b9060200190602002018181525050808060010191505061036f565b5060006103c1828461042c565b141561041d577f07fb15b1ebdfd9751a3925ece10a8bff6b5f6ce237f0d1385e2176fa8153eb636040518080602001828103825260228152602001806119446022913960400191505060405180910390a1600192505050610424565b6000925050505b949350505050565b6000807f30644e72e131a029b85045b68181585d2833e84879b9709143e1f593f0000001905061045a611814565b6104626105b4565b9050806080015151600186510114151561047b57600080fd5b61048361185d565b6040805190810160405280600081526020016000815250905060008090505b8651811015610527578387828151811015156104ba57fe5b906020019060200201511015156104d057600080fd5b610518826105138560800151600185018151811015156104ec57fe5b906020019060200201518a8581518110151561050457fe5b906020019060200201516111d3565b61126f565b915080806001019150506104a2565b5061054e818360800151600081518110151561053f57fe5b9060200190602002015161126f565b9050610594856000015186602001516105668461132c565b85604001516105788a6040015161132c565b876060015161058a896000015161132c565b89602001516113c8565b15156105a657600193505050506105ae565b600093505050505b92915050565b6105bc611814565b60408051908101604052807f1210a6155f0a61680bce18da17760343a1c39db0d480a1925e725516cd78524f81526020017f14026f5530ac740fabb4de5639c97f2713c81adbc72171c80c17c0a22f376c9b8152508160000181905250604080519081016040528060408051908101604052807f2f946232e11c9b512b05e567b34e1376dfc0d73b9a92a6f1669539cd2fd6341281526020017f0881d1b93852030bcbaa9b5ec4b598aed8faca72dae366e306388341662f56ac815250815260200160408051908101604052807f1e680b358ce40f874bfe8d24cc262db2bacaa2e5f03a7695523aa379f4b82a3681526020017f0cfc4cc7de5067024a6a774b74025ffdd9d2ba262609f38dddd743bce2b4420d8152508152508160200181905250604080519081016040528060408051908101604052807f2b1af6e031b7d0ebc6c989eff2217a5f5e2b0e13af9dde223306e27735120c5181526020017f16d7b41a3334370c58499877cf6d0e45a1bd32fb390ee553ed9344e335ce7f63815250815260200160408051908101604052807f208f7c2d88bb26f1cdf15fa7386d07905d75ebc8a4a8f687e47acd8826c9423f81526020017f1a932bc7aee811eb4185ba605b945b52f99aefe8e0e55a7948c8a1ac756cbbd08152508152508160400181905250604080519081016040528060408051908101604052807f16aafa25e240504a238e12d0804fe4a4060083b041502ff8fa4ed1a0874a775c81526020017f0a31d638e370d9d7fe89cb29a0be2824b67a0717eabf886ccda9fec90d349d30815250815260200160408051908101604052807f218d2228aef904d031020c4067e26a48db31697e0dc670524773b944aa616c3781526020017f05e689562b422ea8f72e4fd8e048425d8b98df0a1f6f856d7ab436b575d6cb8c815250815250816060018190525060146040519080825280602002602001820160405280156108a357816020015b610890611877565b8152602001906001900390816108885790505b50816080018190525060408051908101604052807f1aea1c441dbbe38deab4a408dded33db7b7eebeb2ddfc0e918e99b27f72615a281526020017f06ea4e01e3b95041baa3609447802f9714c628f1f5f30de8385c94597bcbde318152508160800151600081518110151561091457fe5b9060200190602002018190525060408051908101604052807f1ff9172f31693a46005d1907c705d0c27a8c65fdbbb174c7eb755e89fa65ee4981526020017f129cdb8593a0504ae60f6d78c11b8f0f66fe32461effee3de838a2f2b7f2ff718152508160800151600181518110151561098957fe5b9060200190602002018190525060408051908101604052807f0fcdb912c36f2910ba9f335b276e22653cd81f3b3d64ba440a781bb3a41098c281526020017f1d30901e02124e46a47f152bb45db3ebd1efb83393147f3ac1c08640a183032e815250816080015160028151811015156109fe57fe5b9060200190602002018190525060408051908101604052807f278f64f8ab9e213e1a88464fa8fdd5ad1ae9dc4b6fb55da0f9565f441160f15081526020017f128e75c1de79b7c6e21a6aa6e170d73e391e104761ab6104378f3edaf64100cd81525081608001516003815181101515610a7357fe5b9060200190602002018190525060408051908101604052807f24051334dde32c576d32abe9fca1b7116d5154c4f92d39ba513d1d5f25d60e4881526020017f0b806a5f739cec6219408404edfdb423867fb359ecc8a59241975e5a7452cb2581525081608001516004815181101515610ae857fe5b9060200190602002018190525060408051908101604052807f012201f191d6794b4bc9bdcf8e405685475ef4354f1c2d1ef2b509f1420f23ea81526020017f16915ca3f7d59b45e84215e6e60de887388d802621d65f694a23d6f349e6853481525081608001516005815181101515610b5d57fe5b9060200190602002018190525060408051908101604052807f20ae4a570af2172b7bfd0950e8f099540909fc464c79e4b6edcf4c60ff2f0eb381526020017f15194889cf6a046be6b9e779fd2b1a2a85b4d78e805fb20d494b60c7f5c2ea3b81525081608001516006815181101515610bd257fe5b9060200190602002018190525060408051908101604052807f0362babf2981df1794c90bdf658472ee2f9a2d415bb74dcd5967a614b5961bd881526020017f13d3184f8b689db190932fc21523a450affa173010fbbefea9d82889733c1e9581525081608001516007815181101515610c4757fe5b9060200190602002018190525060408051908101604052807f0a8231ef5160e505e513d79dfd1f59dc11591aaaf6d4a185ba353e644a2d970981526020017f2ba40aad9293513fb589ab2bf12d5a89a272e7ba3e3f2ea26eb2a3ce674f7d5881525081608001516008815181101515610cbc57fe5b9060200190602002018190525060408051908101604052807f0d0cfd1ca4e35eaaa6a3e8694ad5a99a26a24c614bfe86859f061f39b4f314d681526020017f23cf285164c4b91d1d143ee603cddeeb9b877bc785cab5768c70b8816987d20d81525081608001516009815181101515610d3157fe5b9060200190602002018190525060408051908101604052807f1fd038cc1c6689f45c1a65333673bbcd144aa25022daa4237815c86414f822cb81526020017f2a8c53990d3870d13f1f7042a1170fc89e769cb27ea7d0b60e0fa13b8368d5738152508160800151600a815181101515610da657fe5b9060200190602002018190525060408051908101604052807f281cb770de5e9fd11492b7d7de2dc0b8dbe5c01eefd19bc91e3dba9ebdb196d181526020017f15e3b5cd6d407ae00a1e194592555b5d2973be0e351933df5666c9c5d3d975df8152508160800151600b815181101515610e1b57fe5b9060200190602002018190525060408051908101604052807f2982a6fbe954ae5ae8a918a6175196bf429b1b21453d87e0910e26ba7c12dbf181526020017f27b6b2628357716f3015905320a581258688b0f44526d735d167898d69ca672b8152508160800151600c815181101515610e9057fe5b9060200190602002018190525060408051908101604052807f033f901d62bb78887b622162ee78fcb785f3c8f8031ed03452cc9f16ad293e7f81526020017f06ff106070eacf6b01e8c105e0c40cd0a040aeae84ec5eb7cabee6ed2861a75e8152508160800151600d815181101515610f0557fe5b9060200190602002018190525060408051908101604052807f194967909f775ac2e1871ae9a9d5d636d56187aa13a00f165e4592f3f4421e0e81526020017f13da0823f9f40792222ac70d76040b87839f1fcb978435958b9b93a08e54d5cb8152508160800151600e815181101515610f7a57fe5b9060200190602002018190525060408051908101604052807f0b6cff856b13255756bdb6133ae7c29fb133056f67d26cec3b7db8e54a87875681526020017f234913f60a1aa6793a6e0e251ea3b31dbca05f2f4021620d07e9457105de860e8152508160800151600f815181101515610fef57fe5b9060200190602002018190525060408051908101604052807f137c4145d060ba515a18fdb428b6b455af2f9c90ea3525ef065dc49bcc2b533681526020017f2899bcaf20c3736d111df67b23197fd8827d4821f1b08362b65c98243f25b0918152508160800151601081518110151561106457fe5b9060200190602002018190525060408051908101604052807f15b1fb2511833eca7af407a383a9179a47d22b6dac5e523c866fc598f6374f2b81526020017f17f5493712446d7da1979701ca84b31c3f331f55f4bb1e93b81f8c905c30f023815250816080015160118151811015156110d957fe5b9060200190602002018190525060408051908101604052807f2c26f61fdd161122dd74e3ef4a244e54919c197a499dcafe5615284c5ab74b0a81526020017f2288b21aad635d984bf8aa2951b2402a741403362e7da499cd29a3ada0dea0248152508160800151601281518110151561114e57fe5b9060200190602002018190525060408051908101604052807f04b1c106cf1762337c4a2711fec4b28223f9b455ba741180bf56fd50db19c36881526020017f28cde252d1579b09d8b7110293d118c05b75e9207769a9f79f2af66b7a6aeab0815250816080015160138151811015156111c357fe5b9060200190602002018190525090565b6111db61185d565b6111e3611891565b83600001518160006003811015156111f757fe5b602002018181525050836020015181600160038110151561121457fe5b6020020181815250508281600260038110151561122d57fe5b6020020181815250506000606083608084600060076107d05a03f1905080600081146112585761125a565bfe5b5080151561126757600080fd5b505092915050565b61127761185d565b61127f6118b4565b836000015181600060048110151561129357fe5b60200201818152505083602001518160016004811015156112b057fe5b60200201818152505082600001518160026004811015156112cd57fe5b60200201818152505082602001518160036004811015156112ea57fe5b602002018181525050600060608360c084600060066107d05a03f19050806000811461131557611317565bfe5b5080151561132457600080fd5b505092915050565b61133461185d565b60007f30644e72e131a029b85045b68181585d97816a916871ca8d3c208c16d87cfd47905060008360000151148015611371575060008360200151145b156113955760408051908101604052806000815260200160008152509150506113c3565b6040805190810160405280846000015181526020018285602001518115156113b957fe5b0683038152509150505b919050565b60006060600460405190808252806020026020018201604052801561140757816020015b6113f4611877565b8152602001906001900390816113ec5790505b5090506060600460405190808252806020026020018201604052801561144757816020015b6114346118d7565b81526020019060019003908161142c5790505b5090508a82600081518110151561145a57fe5b906020019060200201819052508882600181518110151561147757fe5b906020019060200201819052508682600281518110151561149457fe5b90602001906020020181905250848260038151811015156114b157fe5b90602001906020020181905250898160008151811015156114ce57fe5b90602001906020020181905250878160018151811015156114eb57fe5b906020019060200201819052508581600281518110151561150857fe5b906020019060200201819052508381600381518110151561152557fe5b9060200190602002018190525061153c828261154c565b9250505098975050505050505050565b60008151835114151561155e57600080fd5b600083519050600060068202905060608160405190808252806020026020018201604052801561159d5781602001602082028038833980820191505090505b50905060008090505b8381101561177b5786818151811015156115bc57fe5b906020019060200201516000015182600060068402018151811015156115de57fe5b906020019060200201818152505086818151811015156115fa57fe5b9060200190602002015160200151826001600684020181518110151561161c57fe5b9060200190602002018181525050858181518110151561163857fe5b9060200190602002015160000151600060028110151561165457fe5b6020020151826002600684020181518110151561166d57fe5b9060200190602002018181525050858181518110151561168957fe5b906020019060200201516000015160016002811015156116a557fe5b602002015182600360068402018151811015156116be57fe5b906020019060200201818152505085818151811015156116da57fe5b906020019060200201516020015160006002811015156116f657fe5b6020020151826004600684020181518110151561170f57fe5b9060200190602002018181525050858181518110151561172b57fe5b9060200190602002015160200151600160028110151561174757fe5b6020020151826005600684020181518110151561176057fe5b906020019060200201818152505080806001019150506115a6565b506117846118fe565b60006020826020860260208601600060086107d05a03f1905080600081146117ab576117ad565bfe5b508015156117ba57600080fd5b60008260006001811015156117cb57fe5b602002015114159550505050505092915050565b610100604051908101604052806117f4611877565b81526020016118016118d7565b815260200161180e611877565b81525090565b6101e060405190810160405280611829611877565b81526020016118366118d7565b81526020016118436118d7565b81526020016118506118d7565b8152602001606081525090565b604080519081016040528060008152602001600081525090565b604080519081016040528060008152602001600081525090565b606060405190810160405280600390602082028038833980820191505090505090565b608060405190810160405280600490602082028038833980820191505090505090565b6080604051908101604052806118eb611921565b81526020016118f8611921565b81525090565b602060405190810160405280600190602082028038833980820191505090505090565b604080519081016040528060029060208202803883398082019150509050509056fe5472616e73616374696f6e207375636365737366756c6c792076657269666965642ea165627a7a7230582090c19d21900e4c6b679c4118691eb4a725806d3b64114ce3a56a46d364c3874c0029",
  "source": "pragma solidity ^0.5.2;\nimport \"./VerifierBase.sol\";\n// This file is LGPL3 Licensed\ncontract DepositNote2Verifier is VerifierBase {\n\n    function depositVerifyingKey() pure internal returns (VerifyingKey memory vk) {\n        vk.a = Pairing.G1Point(uint256(0x1210a6155f0a61680bce18da17760343a1c39db0d480a1925e725516cd78524f), uint256(0x14026f5530ac740fabb4de5639c97f2713c81adbc72171c80c17c0a22f376c9b));\n        vk.b = Pairing.G2Point([uint256(0x2f946232e11c9b512b05e567b34e1376dfc0d73b9a92a6f1669539cd2fd63412), uint256(0x0881d1b93852030bcbaa9b5ec4b598aed8faca72dae366e306388341662f56ac)], [uint256(0x1e680b358ce40f874bfe8d24cc262db2bacaa2e5f03a7695523aa379f4b82a36), uint256(0x0cfc4cc7de5067024a6a774b74025ffdd9d2ba262609f38dddd743bce2b4420d)]);\n        vk.gamma = Pairing.G2Point([uint256(0x2b1af6e031b7d0ebc6c989eff2217a5f5e2b0e13af9dde223306e27735120c51), uint256(0x16d7b41a3334370c58499877cf6d0e45a1bd32fb390ee553ed9344e335ce7f63)], [uint256(0x208f7c2d88bb26f1cdf15fa7386d07905d75ebc8a4a8f687e47acd8826c9423f), uint256(0x1a932bc7aee811eb4185ba605b945b52f99aefe8e0e55a7948c8a1ac756cbbd0)]);\n        vk.delta = Pairing.G2Point([uint256(0x16aafa25e240504a238e12d0804fe4a4060083b041502ff8fa4ed1a0874a775c), uint256(0x0a31d638e370d9d7fe89cb29a0be2824b67a0717eabf886ccda9fec90d349d30)], [uint256(0x218d2228aef904d031020c4067e26a48db31697e0dc670524773b944aa616c37), uint256(0x05e689562b422ea8f72e4fd8e048425d8b98df0a1f6f856d7ab436b575d6cb8c)]);\n        vk.gamma_abc = new Pairing.G1Point[](20);\n        vk.gamma_abc[0] = Pairing.G1Point(uint256(0x1aea1c441dbbe38deab4a408dded33db7b7eebeb2ddfc0e918e99b27f72615a2), uint256(0x06ea4e01e3b95041baa3609447802f9714c628f1f5f30de8385c94597bcbde31));\n        vk.gamma_abc[1] = Pairing.G1Point(uint256(0x1ff9172f31693a46005d1907c705d0c27a8c65fdbbb174c7eb755e89fa65ee49), uint256(0x129cdb8593a0504ae60f6d78c11b8f0f66fe32461effee3de838a2f2b7f2ff71));\n        vk.gamma_abc[2] = Pairing.G1Point(uint256(0x0fcdb912c36f2910ba9f335b276e22653cd81f3b3d64ba440a781bb3a41098c2), uint256(0x1d30901e02124e46a47f152bb45db3ebd1efb83393147f3ac1c08640a183032e));\n        vk.gamma_abc[3] = Pairing.G1Point(uint256(0x278f64f8ab9e213e1a88464fa8fdd5ad1ae9dc4b6fb55da0f9565f441160f150), uint256(0x128e75c1de79b7c6e21a6aa6e170d73e391e104761ab6104378f3edaf64100cd));\n        vk.gamma_abc[4] = Pairing.G1Point(uint256(0x24051334dde32c576d32abe9fca1b7116d5154c4f92d39ba513d1d5f25d60e48), uint256(0x0b806a5f739cec6219408404edfdb423867fb359ecc8a59241975e5a7452cb25));\n        vk.gamma_abc[5] = Pairing.G1Point(uint256(0x012201f191d6794b4bc9bdcf8e405685475ef4354f1c2d1ef2b509f1420f23ea), uint256(0x16915ca3f7d59b45e84215e6e60de887388d802621d65f694a23d6f349e68534));\n        vk.gamma_abc[6] = Pairing.G1Point(uint256(0x20ae4a570af2172b7bfd0950e8f099540909fc464c79e4b6edcf4c60ff2f0eb3), uint256(0x15194889cf6a046be6b9e779fd2b1a2a85b4d78e805fb20d494b60c7f5c2ea3b));\n        vk.gamma_abc[7] = Pairing.G1Point(uint256(0x0362babf2981df1794c90bdf658472ee2f9a2d415bb74dcd5967a614b5961bd8), uint256(0x13d3184f8b689db190932fc21523a450affa173010fbbefea9d82889733c1e95));\n        vk.gamma_abc[8] = Pairing.G1Point(uint256(0x0a8231ef5160e505e513d79dfd1f59dc11591aaaf6d4a185ba353e644a2d9709), uint256(0x2ba40aad9293513fb589ab2bf12d5a89a272e7ba3e3f2ea26eb2a3ce674f7d58));\n        vk.gamma_abc[9] = Pairing.G1Point(uint256(0x0d0cfd1ca4e35eaaa6a3e8694ad5a99a26a24c614bfe86859f061f39b4f314d6), uint256(0x23cf285164c4b91d1d143ee603cddeeb9b877bc785cab5768c70b8816987d20d));\n        vk.gamma_abc[10] = Pairing.G1Point(uint256(0x1fd038cc1c6689f45c1a65333673bbcd144aa25022daa4237815c86414f822cb), uint256(0x2a8c53990d3870d13f1f7042a1170fc89e769cb27ea7d0b60e0fa13b8368d573));\n        vk.gamma_abc[11] = Pairing.G1Point(uint256(0x281cb770de5e9fd11492b7d7de2dc0b8dbe5c01eefd19bc91e3dba9ebdb196d1), uint256(0x15e3b5cd6d407ae00a1e194592555b5d2973be0e351933df5666c9c5d3d975df));\n        vk.gamma_abc[12] = Pairing.G1Point(uint256(0x2982a6fbe954ae5ae8a918a6175196bf429b1b21453d87e0910e26ba7c12dbf1), uint256(0x27b6b2628357716f3015905320a581258688b0f44526d735d167898d69ca672b));\n        vk.gamma_abc[13] = Pairing.G1Point(uint256(0x033f901d62bb78887b622162ee78fcb785f3c8f8031ed03452cc9f16ad293e7f), uint256(0x06ff106070eacf6b01e8c105e0c40cd0a040aeae84ec5eb7cabee6ed2861a75e));\n        vk.gamma_abc[14] = Pairing.G1Point(uint256(0x194967909f775ac2e1871ae9a9d5d636d56187aa13a00f165e4592f3f4421e0e), uint256(0x13da0823f9f40792222ac70d76040b87839f1fcb978435958b9b93a08e54d5cb));\n        vk.gamma_abc[15] = Pairing.G1Point(uint256(0x0b6cff856b13255756bdb6133ae7c29fb133056f67d26cec3b7db8e54a878756), uint256(0x234913f60a1aa6793a6e0e251ea3b31dbca05f2f4021620d07e9457105de860e));\n        vk.gamma_abc[16] = Pairing.G1Point(uint256(0x137c4145d060ba515a18fdb428b6b455af2f9c90ea3525ef065dc49bcc2b5336), uint256(0x2899bcaf20c3736d111df67b23197fd8827d4821f1b08362b65c98243f25b091));\n        vk.gamma_abc[17] = Pairing.G1Point(uint256(0x15b1fb2511833eca7af407a383a9179a47d22b6dac5e523c866fc598f6374f2b), uint256(0x17f5493712446d7da1979701ca84b31c3f331f55f4bb1e93b81f8c905c30f023));\n        vk.gamma_abc[18] = Pairing.G1Point(uint256(0x2c26f61fdd161122dd74e3ef4a244e54919c197a499dcafe5615284c5ab74b0a), uint256(0x2288b21aad635d984bf8aa2951b2402a741403362e7da499cd29a3ada0dea024));\n        vk.gamma_abc[19] = Pairing.G1Point(uint256(0x04b1c106cf1762337c4a2711fec4b28223f9b455ba741180bf56fd50db19c368), uint256(0x28cde252d1579b09d8b7110293d118c05b75e9207769a9f79f2af66b7a6aeab0));\n    }\n    function depositVerify(uint[] memory input, Proof memory proof) internal returns (uint) {\n        uint256 snark_scalar_field = 21888242871839275222246405745257275088548364400416034343698204186575808495617;\n        VerifyingKey memory vk = depositVerifyingKey();\n        require(input.length + 1 == vk.gamma_abc.length);\n        // Compute the linear combination vk_x\n        Pairing.G1Point memory vk_x = Pairing.G1Point(0, 0);\n        for (uint i = 0; i < input.length; i++) {\n            require(input[i] < snark_scalar_field);\n            vk_x = Pairing.addition(vk_x, Pairing.scalar_mul(vk.gamma_abc[i + 1], input[i]));\n        }\n        vk_x = Pairing.addition(vk_x, vk.gamma_abc[0]);\n        if(!Pairing.pairingProd4(\n             proof.a, proof.b,\n             Pairing.negate(vk_x), vk.gamma,\n             Pairing.negate(proof.c), vk.delta,\n             Pairing.negate(vk.a), vk.b)) return 1;\n        return 0;\n    }\n    event DepositVerified(string s);\n    function depositVerifyTx(\n            uint[2] memory a,\n            uint[2][2] memory b,\n            uint[2] memory c,\n            uint[19] memory input\n        ) public returns (bool r) {\n        Proof memory proof;\n        proof.a = Pairing.G1Point(a[0], a[1]);\n        proof.b = Pairing.G2Point([b[0][0], b[0][1]], [b[1][0], b[1][1]]);\n        proof.c = Pairing.G1Point(c[0], c[1]);\n        uint[] memory inputValues = new uint[](input.length);\n        for(uint i = 0; i < input.length; i++){\n            inputValues[i] = input[i];\n        }\n        if (depositVerify(inputValues, proof) == 0) {\n            emit DepositVerified(\"Transaction successfully verified.\");\n            return true;\n        } else {\n            return false;\n        }\n    }\n}\n",
  "sourcePath": "/home/boo/work/LightningZKP/contracts/verifiers/DepositNote2Verifier.sol",
  "compiler": {
    "name": "solc",
    "version": "0.5.2+commit.1df8f40c.Emscripten.clang"
  },
  "schemaVersion": "3.0.16",
  "updatedAt": "2019-10-17T04:39:06.460Z",
  "devdoc": {
    "methods": {}
  },
  "userdoc": {
    "methods": {}
  }
}