{
  "contractName": "DepositNotes2",
  "abi": [
    {
      "constant": true,
      "inputs": [
        {
          "name": "",
          "type": "bytes32"
        }
      ],
      "name": "depositPools",
      "outputs": [
        {
          "name": "mpkAddress",
          "type": "address"
        },
        {
          "name": "expiredTime",
          "type": "uint256"
        },
        {
          "name": "maxNotesNum",
          "type": "uint8"
        },
        {
          "name": "lastNotesNum",
          "type": "uint8"
        }
      ],
      "payable": false,
      "stateMutability": "view",
      "type": "function"
    },
    {
      "constant": true,
      "inputs": [],
      "name": "stake",
      "outputs": [
        {
          "name": "",
          "type": "uint256"
        }
      ],
      "payable": false,
      "stateMutability": "view",
      "type": "function"
    },
    {
      "constant": false,
      "inputs": [
        {
          "name": "a",
          "type": "uint256[2]"
        },
        {
          "name": "b",
          "type": "uint256[2][2]"
        },
        {
          "name": "c",
          "type": "uint256[2]"
        },
        {
          "name": "input",
          "type": "uint256[19]"
        }
      ],
      "name": "depositVerifyTx",
      "outputs": [
        {
          "name": "r",
          "type": "bool"
        }
      ],
      "payable": false,
      "stateMutability": "nonpayable",
      "type": "function"
    },
    {
      "constant": true,
      "inputs": [],
      "name": "cooldown",
      "outputs": [
        {
          "name": "",
          "type": "uint256"
        }
      ],
      "payable": false,
      "stateMutability": "view",
      "type": "function"
    },
    {
      "constant": true,
      "inputs": [
        {
          "name": "",
          "type": "bytes32"
        }
      ],
      "name": "notes",
      "outputs": [
        {
          "name": "",
          "type": "uint8"
        }
      ],
      "payable": false,
      "stateMutability": "view",
      "type": "function"
    },
    {
      "constant": true,
      "inputs": [
        {
          "name": "",
          "type": "bytes32"
        }
      ],
      "name": "submissions",
      "outputs": [
        {
          "name": "submitter",
          "type": "address"
        },
        {
          "name": "sType",
          "type": "uint8"
        },
        {
          "name": "submittedAt",
          "type": "uint256"
        }
      ],
      "payable": false,
      "stateMutability": "view",
      "type": "function"
    },
    {
      "constant": true,
      "inputs": [],
      "name": "dai",
      "outputs": [
        {
          "name": "",
          "type": "address"
        }
      ],
      "payable": false,
      "stateMutability": "view",
      "type": "function"
    },
    {
      "anonymous": false,
      "inputs": [
        {
          "indexed": false,
          "name": "note",
          "type": "bytes32"
        },
        {
          "indexed": false,
          "name": "state",
          "type": "uint8"
        }
      ],
      "name": "NoteStateChange",
      "type": "event"
    },
    {
      "anonymous": false,
      "inputs": [
        {
          "indexed": false,
          "name": "submitter",
          "type": "address"
        },
        {
          "indexed": false,
          "name": "proofHash",
          "type": "bytes32"
        }
      ],
      "name": "Submitted",
      "type": "event"
    },
    {
      "anonymous": false,
      "inputs": [
        {
          "indexed": false,
          "name": "mpkAddress",
          "type": "address"
        },
        {
          "indexed": false,
          "name": "poolId",
          "type": "bytes32"
        }
      ],
      "name": "Deposited",
      "type": "event"
    },
    {
      "anonymous": false,
      "inputs": [
        {
          "indexed": true,
          "name": "challenger",
          "type": "address"
        },
        {
          "indexed": false,
          "name": "proofHash",
          "type": "bytes32"
        }
      ],
      "name": "Challenged",
      "type": "event"
    },
    {
      "anonymous": false,
      "inputs": [
        {
          "indexed": false,
          "name": "s",
          "type": "string"
        }
      ],
      "name": "DepositVerified",
      "type": "event"
    },
    {
      "constant": true,
      "inputs": [
        {
          "name": "msgHash",
          "type": "bytes32"
        },
        {
          "name": "v",
          "type": "uint8"
        },
        {
          "name": "r",
          "type": "bytes32"
        },
        {
          "name": "s",
          "type": "bytes32"
        }
      ],
      "name": "recoverAddress",
      "outputs": [
        {
          "name": "",
          "type": "address"
        }
      ],
      "payable": false,
      "stateMutability": "view",
      "type": "function"
    },
    {
      "constant": true,
      "inputs": [
        {
          "name": "addr",
          "type": "address"
        },
        {
          "name": "msgHash",
          "type": "bytes32"
        },
        {
          "name": "v",
          "type": "uint8"
        },
        {
          "name": "r",
          "type": "bytes32"
        },
        {
          "name": "s",
          "type": "bytes32"
        }
      ],
      "name": "paymentTxVerify",
      "outputs": [
        {
          "name": "",
          "type": "bool"
        }
      ],
      "payable": false,
      "stateMutability": "view",
      "type": "function"
    },
    {
      "constant": false,
      "inputs": [
        {
          "name": "poolId",
          "type": "bytes32"
        },
        {
          "name": "mpkAddress",
          "type": "address"
        },
        {
          "name": "msgHash",
          "type": "bytes32"
        },
        {
          "name": "transferNotesNum",
          "type": "uint8"
        },
        {
          "name": "v",
          "type": "uint8"
        },
        {
          "name": "r",
          "type": "bytes32"
        },
        {
          "name": "s",
          "type": "bytes32"
        }
      ],
      "name": "commitPaymentTx",
      "outputs": [],
      "payable": false,
      "stateMutability": "nonpayable",
      "type": "function"
    },
    {
      "constant": false,
      "inputs": [
        {
          "name": "poolId",
          "type": "bytes32"
        }
      ],
      "name": "ClaimExpiredPool",
      "outputs": [],
      "payable": false,
      "stateMutability": "nonpayable",
      "type": "function"
    }
  ],
  "bytecode": "0x608060405234801561001057600080fd5b5061286a806100206000396000f3fe608060405234801561001057600080fd5b50600436106100c6576000357c010000000000000000000000000000000000000000000000000000000090048063787a08a61161008e578063787a08a6146103ff5780638428cf831461041d57806385de26b7146104ac578063a0d1192d146104fc578063c5c9c0a21461052a578063f4b9fa75146105b4576100c6565b806308da9f78146100cb57806338cd8093146101515780633a4b66f1146101e05780636b6e3f94146101fe5780637583cf7214610285575b600080fd5b61014f600480360360e08110156100e157600080fd5b8101908080359060200190929190803573ffffffffffffffffffffffffffffffffffffffff16906020019092919080359060200190929190803560ff169060200190929190803560ff16906020019092919080359060200190929190803590602001909291905050506105fe565b005b61017d6004803603602081101561016757600080fd5b810190808035906020019092919050505061082a565b604051808573ffffffffffffffffffffffffffffffffffffffff1673ffffffffffffffffffffffffffffffffffffffff1681526020018481526020018360ff1660ff1681526020018260ff1660ff16815260200194505050505060405180910390f35b6101e8610894565b6040518082815260200191505060405180910390f35b61026b600480360360a081101561021457600080fd5b81019080803573ffffffffffffffffffffffffffffffffffffffff16906020019092919080359060200190929190803560ff169060200190929190803590602001909291908035906020019092919050505061089a565b604051808215151515815260200191505060405180910390f35b6103e5600480360361036081101561029c57600080fd5b8101908080604001906002806020026040519081016040528092919082600260200280828437600081840152601f19601f82011690508083019250505050505091929192908060800190600280602002604051908101604052809291906000905b82821015610351578382604002016002806020026040519081016040528092919082600260200280828437600081840152601f19601f820116905080830192505050505050815260200190600101906102fd565b50505050919291929080604001906002806020026040519081016040528092919082600260200280828437600081840152601f19601f82011690508083019250505050505091929192908061026001906013806020026040519081016040528092919082601360200280828437600081840152601f19601f82011690508083019250505050505091929192905050506108e1565b604051808215151515815260200191505060405180910390f35b610407610b46565b6040518082815260200191505060405180910390f35b61046a6004803603608081101561043357600080fd5b8101908080359060200190929190803560ff1690602001909291908035906020019092919080359060200190929190505050610b4c565b604051808273ffffffffffffffffffffffffffffffffffffffff1673ffffffffffffffffffffffffffffffffffffffff16815260200191505060405180910390f35b6104d8600480360360208110156104c257600080fd5b8101908080359060200190929190505050610bbf565b604051808260038111156104e857fe5b60ff16815260200191505060405180910390f35b6105286004803603602081101561051257600080fd5b8101908080359060200190929190505050610bdf565b005b6105566004803603602081101561054057600080fd5b8101908080359060200190929190505050610eb8565b604051808473ffffffffffffffffffffffffffffffffffffffff1673ffffffffffffffffffffffffffffffffffffffff16815260200183600481111561059857fe5b60ff168152602001828152602001935050505060405180910390f35b6105bc610f0f565b604051808273ffffffffffffffffffffffffffffffffffffffff1673ffffffffffffffffffffffffffffffffffffffff16815260200191505060405180910390f35b60006003600089815260200190815260200160002090508673ffffffffffffffffffffffffffffffffffffffff168160000160009054906101000a900473ffffffffffffffffffffffffffffffffffffffff1673ffffffffffffffffffffffffffffffffffffffff161415156106bf576040517f08c379a000000000000000000000000000000000000000000000000000000000815260040180806020018281038252603381526020018061280c6033913960400191505060405180910390fd5b878786604051602001808481526020018373ffffffffffffffffffffffffffffffffffffffff1673ffffffffffffffffffffffffffffffffffffffff166c010000000000000000000000000281526014018260ff1660ff167f0100000000000000000000000000000000000000000000000000000000000000028152600101935050505060405160208183030381529060405280519060200120861415156107b2576040517f08c379a000000000000000000000000000000000000000000000000000000000815260040180806020018281038252603381526020018061280c6033913960400191505060405180910390fd5b6107bf878786868661089a565b1515610816576040517f08c379a00000000000000000000000000000000000000000000000000000000081526004018080602001828103825260238152602001806127e96023913960400191505060405180910390fd5b6108208886610f35565b5050505050505050565b60036020528060005260406000206000915090508060000160009054906101000a900473ffffffffffffffffffffffffffffffffffffffff16908060010154908060020160009054906101000a900460ff16908060020160019054906101000a900460ff16905084565b60015481565b60006108a885858585610b4c565b73ffffffffffffffffffffffffffffffffffffffff168673ffffffffffffffffffffffffffffffffffffffff1614905095945050505050565b60006108eb6125d6565b604080519081016040528087600060028110151561090557fe5b6020020151815260200187600160028110151561091e57fe5b602002015181525081600001819052506040805190810160405280604080519081016040528088600060028110151561095357fe5b6020020151600060028110151561096657fe5b6020020151815260200188600060028110151561097f57fe5b6020020151600160028110151561099257fe5b6020020151815250815260200160408051908101604052808860016002811015156109b957fe5b602002015160006002811015156109cc57fe5b602002015181526020018860016002811015156109e557fe5b602002015160016002811015156109f857fe5b602002015181525081525081602001819052506040805190810160405280856000600281101515610a2557fe5b60200201518152602001856001600281101515610a3e57fe5b6020020151815250816040018190525060606013604051908082528060200260200182016040528015610a805781602001602082028038833980820191505090505b50905060008090505b6013811015610ace578481601381101515610aa057fe5b60200201518282815181101515610ab357fe5b90602001906020020181815250508080600101915050610a89565b506000610adb8284611223565b1415610b37577f07fb15b1ebdfd9751a3925ece10a8bff6b5f6ce237f0d1385e2176fa8153eb636040518080602001828103825260228152602001806127c76022913960400191505060405180910390a1600192505050610b3e565b6000925050505b949350505050565b60005481565b600060018585858560405160008152602001604052604051808581526020018460ff1660ff1681526020018381526020018281526020019450505050506020604051602081039080840390855afa158015610bab573d6000803e3d6000fd5b505050602060405103519050949350505050565b60056020528060005260406000206000915054906101000a900460ff1681565b6000600360008381526020019081526020016000209050428160010154101515610c71576040517f08c379a000000000000000000000000000000000000000000000000000000000815260040180806020018281038252600f8152602001807f4e6f74206578706972656420796574000000000000000000000000000000000081525060200191505060405180910390fd5b60008160020160019054906101000a900460ff1660ff1690505b8160020160009054906101000a900460ff1660ff16811015610e26576002600560008460040184815481101515610cbe57fe5b9060005260206000200154815260200190815260200160002060006101000a81548160ff02191690836003811115610cf257fe5b02179055506001600560008460030184815481101515610d0e57fe5b9060005260206000200154815260200190815260200160002060006101000a81548160ff02191690836003811115610d4257fe5b02179055507f91d2faa002479f8dc4f20862402db3dba2ebe927031674997d38e5b70d9877e78260040182815481101515610d7957fe5b9060005260206000200154600260405180838152602001826003811115610d9c57fe5b60ff1681526020019250505060405180910390a17f91d2faa002479f8dc4f20862402db3dba2ebe927031674997d38e5b70d9877e78260030182815481101515610de257fe5b9060005260206000200154600160405180838152602001826003811115610e0557fe5b60ff1681526020019250505060405180910390a18080600101915050610c8b565b5060036000838152602001908152602001600020600080820160006101000a81549073ffffffffffffffffffffffffffffffffffffffff021916905560018201600090556002820160006101000a81549060ff02191690556002820160016101000a81549060ff0219169055600382016000610ea2919061260b565b600482016000610eb2919061260b565b50505050565b60046020528060005260406000206000915090508060000160009054906101000a900473ffffffffffffffffffffffffffffffffffffffff16908060000160149054906101000a900460ff16908060010154905083565b600260009054906101000a900473ffffffffffffffffffffffffffffffffffffffff1681565b600060036000848152602001908152602001600020905042816001015410151515610fc8576040517f08c379a000000000000000000000000000000000000000000000000000000000815260040180806020018281038252600f8152602001807f506f6f6c2069732065787069726564000000000000000000000000000000000081525060200191505060405180910390fd5b8060020160009054906101000a900460ff1660ff168260ff161115801561100557508060020160019054906101000a900460ff1660ff168260ff16115b151561105c576040517f08c379a00000000000000000000000000000000000000000000000000000000081526004018080602001828103825260468152602001806127816046913960600191505060405180910390fd5b60008160020160019054906101000a900460ff1660ff1690505b8260ff1681101561120057600160056000846004018481548110151561109857fe5b9060005260206000200154815260200190815260200160002060006101000a81548160ff021916908360038111156110cc57fe5b021790555060026005600084600301848154811015156110e857fe5b9060005260206000200154815260200190815260200160002060006101000a81548160ff0219169083600381111561111c57fe5b02179055507f91d2faa002479f8dc4f20862402db3dba2ebe927031674997d38e5b70d9877e7826004018281548110151561115357fe5b906000526020600020015460016040518083815260200182600381111561117657fe5b60ff1681526020019250505060405180910390a17f91d2faa002479f8dc4f20862402db3dba2ebe927031674997d38e5b70d9877e782600301828154811015156111bc57fe5b90600052602060002001546002604051808381526020018260038111156111df57fe5b60ff1681526020019250505060405180910390a18080600101915050611076565b50818160020160016101000a81548160ff021916908360ff160217905550505050565b6000807f30644e72e131a029b85045b68181585d2833e84879b9709143e1f593f0000001905061125161262c565b6112596113ab565b9050806080015151600186510114151561127257600080fd5b61127a612675565b6040805190810160405280600081526020016000815250905060008090505b865181101561131e578387828151811015156112b157fe5b906020019060200201511015156112c757600080fd5b61130f8261130a8560800151600185018151811015156112e357fe5b906020019060200201518a858151811015156112fb57fe5b90602001906020020151611fca565b612066565b91508080600101915050611299565b50611345818360800151600081518110151561133657fe5b90602001906020020151612066565b905061138b8560000151866020015161135d84612123565b856040015161136f8a60400151612123565b87606001516113818960000151612123565b89602001516121bf565b151561139d57600193505050506113a5565b600093505050505b92915050565b6113b361262c565b60408051908101604052807f1210a6155f0a61680bce18da17760343a1c39db0d480a1925e725516cd78524f81526020017f14026f5530ac740fabb4de5639c97f2713c81adbc72171c80c17c0a22f376c9b8152508160000181905250604080519081016040528060408051908101604052807f2f946232e11c9b512b05e567b34e1376dfc0d73b9a92a6f1669539cd2fd6341281526020017f0881d1b93852030bcbaa9b5ec4b598aed8faca72dae366e306388341662f56ac815250815260200160408051908101604052807f1e680b358ce40f874bfe8d24cc262db2bacaa2e5f03a7695523aa379f4b82a3681526020017f0cfc4cc7de5067024a6a774b74025ffdd9d2ba262609f38dddd743bce2b4420d8152508152508160200181905250604080519081016040528060408051908101604052807f2b1af6e031b7d0ebc6c989eff2217a5f5e2b0e13af9dde223306e27735120c5181526020017f16d7b41a3334370c58499877cf6d0e45a1bd32fb390ee553ed9344e335ce7f63815250815260200160408051908101604052807f208f7c2d88bb26f1cdf15fa7386d07905d75ebc8a4a8f687e47acd8826c9423f81526020017f1a932bc7aee811eb4185ba605b945b52f99aefe8e0e55a7948c8a1ac756cbbd08152508152508160400181905250604080519081016040528060408051908101604052807f16aafa25e240504a238e12d0804fe4a4060083b041502ff8fa4ed1a0874a775c81526020017f0a31d638e370d9d7fe89cb29a0be2824b67a0717eabf886ccda9fec90d349d30815250815260200160408051908101604052807f218d2228aef904d031020c4067e26a48db31697e0dc670524773b944aa616c3781526020017f05e689562b422ea8f72e4fd8e048425d8b98df0a1f6f856d7ab436b575d6cb8c8152508152508160600181905250601460405190808252806020026020018201604052801561169a57816020015b61168761268f565b81526020019060019003908161167f5790505b50816080018190525060408051908101604052807f1aea1c441dbbe38deab4a408dded33db7b7eebeb2ddfc0e918e99b27f72615a281526020017f06ea4e01e3b95041baa3609447802f9714c628f1f5f30de8385c94597bcbde318152508160800151600081518110151561170b57fe5b9060200190602002018190525060408051908101604052807f1ff9172f31693a46005d1907c705d0c27a8c65fdbbb174c7eb755e89fa65ee4981526020017f129cdb8593a0504ae60f6d78c11b8f0f66fe32461effee3de838a2f2b7f2ff718152508160800151600181518110151561178057fe5b9060200190602002018190525060408051908101604052807f0fcdb912c36f2910ba9f335b276e22653cd81f3b3d64ba440a781bb3a41098c281526020017f1d30901e02124e46a47f152bb45db3ebd1efb83393147f3ac1c08640a183032e815250816080015160028151811015156117f557fe5b9060200190602002018190525060408051908101604052807f278f64f8ab9e213e1a88464fa8fdd5ad1ae9dc4b6fb55da0f9565f441160f15081526020017f128e75c1de79b7c6e21a6aa6e170d73e391e104761ab6104378f3edaf64100cd8152508160800151600381518110151561186a57fe5b9060200190602002018190525060408051908101604052807f24051334dde32c576d32abe9fca1b7116d5154c4f92d39ba513d1d5f25d60e4881526020017f0b806a5f739cec6219408404edfdb423867fb359ecc8a59241975e5a7452cb25815250816080015160048151811015156118df57fe5b9060200190602002018190525060408051908101604052807f012201f191d6794b4bc9bdcf8e405685475ef4354f1c2d1ef2b509f1420f23ea81526020017f16915ca3f7d59b45e84215e6e60de887388d802621d65f694a23d6f349e685348152508160800151600581518110151561195457fe5b9060200190602002018190525060408051908101604052807f20ae4a570af2172b7bfd0950e8f099540909fc464c79e4b6edcf4c60ff2f0eb381526020017f15194889cf6a046be6b9e779fd2b1a2a85b4d78e805fb20d494b60c7f5c2ea3b815250816080015160068151811015156119c957fe5b9060200190602002018190525060408051908101604052807f0362babf2981df1794c90bdf658472ee2f9a2d415bb74dcd5967a614b5961bd881526020017f13d3184f8b689db190932fc21523a450affa173010fbbefea9d82889733c1e9581525081608001516007815181101515611a3e57fe5b9060200190602002018190525060408051908101604052807f0a8231ef5160e505e513d79dfd1f59dc11591aaaf6d4a185ba353e644a2d970981526020017f2ba40aad9293513fb589ab2bf12d5a89a272e7ba3e3f2ea26eb2a3ce674f7d5881525081608001516008815181101515611ab357fe5b9060200190602002018190525060408051908101604052807f0d0cfd1ca4e35eaaa6a3e8694ad5a99a26a24c614bfe86859f061f39b4f314d681526020017f23cf285164c4b91d1d143ee603cddeeb9b877bc785cab5768c70b8816987d20d81525081608001516009815181101515611b2857fe5b9060200190602002018190525060408051908101604052807f1fd038cc1c6689f45c1a65333673bbcd144aa25022daa4237815c86414f822cb81526020017f2a8c53990d3870d13f1f7042a1170fc89e769cb27ea7d0b60e0fa13b8368d5738152508160800151600a815181101515611b9d57fe5b9060200190602002018190525060408051908101604052807f281cb770de5e9fd11492b7d7de2dc0b8dbe5c01eefd19bc91e3dba9ebdb196d181526020017f15e3b5cd6d407ae00a1e194592555b5d2973be0e351933df5666c9c5d3d975df8152508160800151600b815181101515611c1257fe5b9060200190602002018190525060408051908101604052807f2982a6fbe954ae5ae8a918a6175196bf429b1b21453d87e0910e26ba7c12dbf181526020017f27b6b2628357716f3015905320a581258688b0f44526d735d167898d69ca672b8152508160800151600c815181101515611c8757fe5b9060200190602002018190525060408051908101604052807f033f901d62bb78887b622162ee78fcb785f3c8f8031ed03452cc9f16ad293e7f81526020017f06ff106070eacf6b01e8c105e0c40cd0a040aeae84ec5eb7cabee6ed2861a75e8152508160800151600d815181101515611cfc57fe5b9060200190602002018190525060408051908101604052807f194967909f775ac2e1871ae9a9d5d636d56187aa13a00f165e4592f3f4421e0e81526020017f13da0823f9f40792222ac70d76040b87839f1fcb978435958b9b93a08e54d5cb8152508160800151600e815181101515611d7157fe5b9060200190602002018190525060408051908101604052807f0b6cff856b13255756bdb6133ae7c29fb133056f67d26cec3b7db8e54a87875681526020017f234913f60a1aa6793a6e0e251ea3b31dbca05f2f4021620d07e9457105de860e8152508160800151600f815181101515611de657fe5b9060200190602002018190525060408051908101604052807f137c4145d060ba515a18fdb428b6b455af2f9c90ea3525ef065dc49bcc2b533681526020017f2899bcaf20c3736d111df67b23197fd8827d4821f1b08362b65c98243f25b09181525081608001516010815181101515611e5b57fe5b9060200190602002018190525060408051908101604052807f15b1fb2511833eca7af407a383a9179a47d22b6dac5e523c866fc598f6374f2b81526020017f17f5493712446d7da1979701ca84b31c3f331f55f4bb1e93b81f8c905c30f02381525081608001516011815181101515611ed057fe5b9060200190602002018190525060408051908101604052807f2c26f61fdd161122dd74e3ef4a244e54919c197a499dcafe5615284c5ab74b0a81526020017f2288b21aad635d984bf8aa2951b2402a741403362e7da499cd29a3ada0dea02481525081608001516012815181101515611f4557fe5b9060200190602002018190525060408051908101604052807f04b1c106cf1762337c4a2711fec4b28223f9b455ba741180bf56fd50db19c36881526020017f28cde252d1579b09d8b7110293d118c05b75e9207769a9f79f2af66b7a6aeab081525081608001516013815181101515611fba57fe5b9060200190602002018190525090565b611fd2612675565b611fda6126a9565b8360000151816000600381101515611fee57fe5b602002018181525050836020015181600160038110151561200b57fe5b6020020181815250508281600260038110151561202457fe5b6020020181815250506000606083608084600060076107d05a03f19050806000811461204f57612051565bfe5b5080151561205e57600080fd5b505092915050565b61206e612675565b6120766126cc565b836000015181600060048110151561208a57fe5b60200201818152505083602001518160016004811015156120a757fe5b60200201818152505082600001518160026004811015156120c457fe5b60200201818152505082602001518160036004811015156120e157fe5b602002018181525050600060608360c084600060066107d05a03f19050806000811461210c5761210e565bfe5b5080151561211b57600080fd5b505092915050565b61212b612675565b60007f30644e72e131a029b85045b68181585d97816a916871ca8d3c208c16d87cfd47905060008360000151148015612168575060008360200151145b1561218c5760408051908101604052806000815260200160008152509150506121ba565b6040805190810160405280846000015181526020018285602001518115156121b057fe5b0683038152509150505b919050565b6000606060046040519080825280602002602001820160405280156121fe57816020015b6121eb61268f565b8152602001906001900390816121e35790505b5090506060600460405190808252806020026020018201604052801561223e57816020015b61222b6126ef565b8152602001906001900390816122235790505b5090508a82600081518110151561225157fe5b906020019060200201819052508882600181518110151561226e57fe5b906020019060200201819052508682600281518110151561228b57fe5b90602001906020020181905250848260038151811015156122a857fe5b90602001906020020181905250898160008151811015156122c557fe5b90602001906020020181905250878160018151811015156122e257fe5b90602001906020020181905250858160028151811015156122ff57fe5b906020019060200201819052508381600381518110151561231c57fe5b906020019060200201819052506123338282612343565b9250505098975050505050505050565b60008151835114151561235557600080fd5b60008351905060006006820290506060816040519080825280602002602001820160405280156123945781602001602082028038833980820191505090505b50905060008090505b838110156125725786818151811015156123b357fe5b906020019060200201516000015182600060068402018151811015156123d557fe5b906020019060200201818152505086818151811015156123f157fe5b9060200190602002015160200151826001600684020181518110151561241357fe5b9060200190602002018181525050858181518110151561242f57fe5b9060200190602002015160000151600060028110151561244b57fe5b6020020151826002600684020181518110151561246457fe5b9060200190602002018181525050858181518110151561248057fe5b9060200190602002015160000151600160028110151561249c57fe5b602002015182600360068402018151811015156124b557fe5b906020019060200201818152505085818151811015156124d157fe5b906020019060200201516020015160006002811015156124ed57fe5b6020020151826004600684020181518110151561250657fe5b9060200190602002018181525050858181518110151561252257fe5b9060200190602002015160200151600160028110151561253e57fe5b6020020151826005600684020181518110151561255757fe5b9060200190602002018181525050808060010191505061239d565b5061257b612716565b60006020826020860260208601600060086107d05a03f1905080600081146125a2576125a4565bfe5b508015156125b157600080fd5b60008260006001811015156125c257fe5b602002015114159550505050505092915050565b610100604051908101604052806125eb61268f565b81526020016125f86126ef565b815260200161260561268f565b81525090565b50805460008255906000526020600020908101906126299190612739565b50565b6101e06040519081016040528061264161268f565b815260200161264e6126ef565b815260200161265b6126ef565b81526020016126686126ef565b8152602001606081525090565b604080519081016040528060008152602001600081525090565b604080519081016040528060008152602001600081525090565b606060405190810160405280600390602082028038833980820191505090505090565b608060405190810160405280600490602082028038833980820191505090505090565b60806040519081016040528061270361275e565b815260200161271061275e565b81525090565b602060405190810160405280600190602082028038833980820191505090505090565b61275b91905b8082111561275757600081600090555060010161273f565b5090565b90565b604080519081016040528060029060208202803883398082019150509050509056fe7472616e736665724e6f7465734e756d206973206c6f776572207468616e206c6173744e6f7465734e756d206f7220626967676572207468616e206d61784e6f7465734e756d5472616e73616374696f6e207375636365737366756c6c792076657269666965642e546865207369676e20646f6573206e6f74206d61746368206d706b20416464726573736d706b204164647265737320646f6573206e6f74206d61746368206d706b206164647265737320696e207061796d656e745478a165627a7a7230582017150393656b1a4cb54fbe2feeca5081e395134c97c2a9839d902d23b4eed8440029",
  "source": "pragma solidity ^0.5.2;\n\nimport \"./verifiers/DepositNote2Verifier.sol\";\nimport \"./ZkDaiBase.sol\";\n\n\ncontract DepositNotes2 is DepositNote2Verifier, ZkDaiBase {\n  uint8 internal constant NUM_PUBLIC_INPUTS = 19;\n  uint8 internal constant NUM_DEPOSIT_NOTES = 2*2; //deposit_note_num * 2 (sender and receiver)\n  uint8 internal constant NUM_ALL_NOTES = 2 + NUM_DEPOSIT_NOTES; //2 (original note + change note) + deposit notes\n  uint8 internal constant MPK_INDEX = (NUM_DEPOSIT_NOTES+2)*2; // (NUM_DEPOSIT_NOTES + original note + change note) * 2 (2 public input is needed for one note hash value)\n  /**\n  * @dev Hashes the submitted proof and adds it to the submissions mapping that tracks\n  *      submission time, type, public inputs of the zkSnark and the submitter\n  */\n  function submit(\n      uint256[2] memory a,\n      uint256[2][2] memory b,\n      uint256[2] memory c,\n      uint256[NUM_PUBLIC_INPUTS] memory input)\n    internal\n  {\n      bytes32 proofHash = getProofHash(a, b, c);\n      uint256[] memory publicInput = new uint256[](NUM_PUBLIC_INPUTS);\n      for(uint8 i = 0; i < NUM_PUBLIC_INPUTS; i++) {\n        publicInput[i] = input[i];\n      }\n      submissions[proofHash] = Submission(msg.sender, SubmissionType.Deposit, now, publicInput);\n      emit Submitted(msg.sender, proofHash);\n  }\n\n  /**\n  * @dev Commits the proof i.e. Marks the input note as Spent and mints two new output notes that came with the proof.\n  * @param proofHash Hash of the proof to be committed\n  */\n  function depositCommit(bytes32 proofHash)\n    internal\n  {\n      Submission storage submission = submissions[proofHash];\n      bytes32[NUM_ALL_NOTES] memory _notes = getALLNotes_2(submission.publicInput);\n\n      // check that the first note (among public params) is committed and\n      require(notes[_notes[0]] == State.Committed, \"Note is either invalid or already spent\");\n      // check that the deposit notes is already minted.\n      for(uint i=1; i<NUM_ALL_NOTES; i++){\n        require(notes[_notes[i]] == State.Invalid, \"New note is already minted\");\n      }\n\n      notes[_notes[0]] = State.Spent; // Change the state of an original note.\n      for(uint i=1; i<NUM_DEPOSIT_NOTES; i++){\n        notes[_notes[i]] = State.Deposit;\n      }\n      notes[_notes[NUM_ALL_NOTES-1]] = State.Committed; // Change the state of a \"change note\".\n\n      delete submissions[proofHash];\n      submission.submitter.transfer(stake);\n\n      emit NoteStateChange(_notes[0], State.Spent);\n      for(uint i=1; i<NUM_DEPOSIT_NOTES; i++){\n        emit NoteStateChange(_notes[i], State.Deposit);\n      }\n      emit NoteStateChange(_notes[NUM_ALL_NOTES-1], State.Committed);\n\n      bytes32 poolId = keccak256(abi.encodePacked(_notes[0],now));\n\n      //Testing for getMpkAddress function is needed.\n      address mpkAddress = getMpkAddress(submission.publicInput[MPK_INDEX],submission.publicInput[MPK_INDEX+1],submission.publicInput[MPK_INDEX+2],submission.publicInput[MPK_INDEX+3]); //needs to be modified\n\n      bytes32[] memory senderNotes = new bytes32[](NUM_DEPOSIT_NOTES/2);\n      for(uint i =0; i< NUM_DEPOSIT_NOTES/2; i++){\n        senderNotes[i] = _notes[i+1];\n      }\n      bytes32[] memory receiverNotes = new bytes32[](NUM_DEPOSIT_NOTES/2);\n      for(uint i = 0; i< NUM_DEPOSIT_NOTES/2; i++) {\n        receiverNotes[i] = _notes[i+NUM_DEPOSIT_NOTES/2+1];\n      }\n      uint expectedTime = 5 minutes;\n      depositPools[poolId] = DepositPool(mpkAddress, now + expectedTime, NUM_DEPOSIT_NOTES/2, 0, senderNotes, receiverNotes);\n  }\n\n  function getALLNotes_2(uint256[] memory input)\n    internal\n    pure\n    returns(bytes32[NUM_ALL_NOTES] memory notes)\n  {\n      for(uint i=0; i<NUM_ALL_NOTES; i++){\n        notes[i] = calcNoteHash(input[i*2], input[i*2+1]);\n      }\n  }\n\n  /**\n  * @dev Challenge the proof for spend step\n  * @notice params: a, a_p, b, b_p, c, c_p, h, k zkSnark parameters of the challenged proof\n  * @param proofHash Hash of the proof\n  */\n  function challenge(\n      uint256[2] memory a,\n      uint256[2][2] memory b,\n      uint256[2] memory c,\n      bytes32 proofHash)\n    internal\n  {\n      Submission storage submission = submissions[proofHash];\n      uint256[NUM_PUBLIC_INPUTS] memory input;\n      for(uint i = 0; i < NUM_PUBLIC_INPUTS; i++) {\n        input[i] = submission.publicInput[i];\n      }\n      if (!depositVerifyTx(a, b, c, input)) {\n        // challenge passed\n        delete submissions[proofHash];\n        msg.sender.transfer(stake);\n        emit Challenged(msg.sender, proofHash);\n      } else {\n        // challenge failed\n        depositCommit(proofHash);\n      }\n  }\n\n   /* Commit paymentTx */\n  function recoverAddress(bytes32 msgHash, uint8 v, bytes32 r, bytes32 s) public view returns (address) {\n      return ecrecover(msgHash, v, r, s);\n  }\n\n  function paymentTxVerify(address addr, bytes32 msgHash, uint8 v, bytes32 r, bytes32 s) public view returns (bool) {\n    return addr == recoverAddress(msgHash, v, r, s);\n  }\n\n  function commitDepositNotes(bytes32 poolId, uint8 transferNotesNum) internal {\n    DepositPool storage dp = depositPools[poolId];\n    require(dp.expiredTime >= now ,\"Pool is expired\");\n    require((transferNotesNum <= dp.maxNotesNum) && (transferNotesNum > dp.lastNotesNum), \"transferNotesNum is lower than lastNotesNum or bigger than maxNotesNum\");\n\n    //change recevier's deposit notes' state to avaliable\n    //and change sender's deposit notes' state to spent\n    //The number of notes changed = transferNotesNum - lastNotesNum\n    for(uint i = dp.lastNotesNum; i < transferNotesNum; i++){\n      notes[dp.receiverNotes[i]] = State.Committed;\n      notes[dp.senderNotes[i]] = State.Spent;\n      emit NoteStateChange(dp.receiverNotes[i], State.Committed);\n      emit NoteStateChange(dp.senderNotes[i], State.Spent);\n    }\n    dp.lastNotesNum = transferNotesNum;\n  }\n\n  function commitPaymentTx(bytes32 poolId, address mpkAddress, bytes32 msgHash, uint8 transferNotesNum, uint8 v, bytes32 r, bytes32 s) public {\n    DepositPool storage dp = depositPools[poolId];\n    require(dp.mpkAddress == mpkAddress, \"mpk Address does not match mpk address in paymentTx\");\n    require(msgHash == keccak256(abi.encodePacked(poolId,mpkAddress,transferNotesNum)), \"mpk Address does not match mpk address in paymentTx\");\n    require(paymentTxVerify(mpkAddress, msgHash, v, r, s),\"The sign does not match mpk Address\");\n    commitDepositNotes(poolId, transferNotesNum);\n  }\n\n  //check Pool is expired. If pool is expired, then change the remain sender notes' state to avaliable. Also change the remain reciever notes' state to spent(unavailable).\n  function ClaimExpiredPool(bytes32 poolId) public { //ClaimExpiredPool\n\n    DepositPool storage dp = depositPools[poolId];\n    require(dp.expiredTime < now, \"Not expired yet\");\n\n    //If pool is expired, then return change to sender\n    for(uint i = dp.lastNotesNum; i < dp.maxNotesNum; i++){\n      notes[dp.receiverNotes[i]] = State.Spent;\n      notes[dp.senderNotes[i]] = State.Committed;\n      emit NoteStateChange(dp.receiverNotes[i], State.Spent);\n      emit NoteStateChange(dp.senderNotes[i], State.Committed);\n    }\n\n    delete depositPools[poolId];\n  }\n}\n",
  "sourcePath": "/home/boo/work/LightningZKP/contracts/DepositNotes2.sol",
  "compiler": {
    "name": "solc",
    "version": "0.5.2+commit.1df8f40c.Emscripten.clang"
  },
  "schemaVersion": "3.0.16",
  "updatedAt": "2019-10-17T05:42:52.555Z",
  "devdoc": {
    "methods": {}
  },
  "userdoc": {
    "methods": {}
  }
}