{
  "contractName": "DepositNotes",
  "abi": [
    {
      "constant": true,
      "inputs": [
        {
          "name": "",
          "type": "bytes32"
        }
      ],
      "name": "depositPools",
      "outputs": [
        {
          "name": "mpkAddress",
          "type": "address"
        },
        {
          "name": "expiredTime",
          "type": "uint256"
        },
        {
          "name": "maxNotesNum",
          "type": "uint8"
        },
        {
          "name": "lastNotesNum",
          "type": "uint8"
        }
      ],
      "payable": false,
      "stateMutability": "view",
      "type": "function"
    },
    {
      "constant": true,
      "inputs": [],
      "name": "stake",
      "outputs": [
        {
          "name": "",
          "type": "uint256"
        }
      ],
      "payable": false,
      "stateMutability": "view",
      "type": "function"
    },
    {
      "constant": false,
      "inputs": [
        {
          "name": "a",
          "type": "uint256[2]"
        },
        {
          "name": "b",
          "type": "uint256[2][2]"
        },
        {
          "name": "c",
          "type": "uint256[2]"
        },
        {
          "name": "input",
          "type": "uint256[19]"
        }
      ],
      "name": "depositVerifyTx",
      "outputs": [
        {
          "name": "r",
          "type": "bool"
        }
      ],
      "payable": false,
      "stateMutability": "nonpayable",
      "type": "function"
    },
    {
      "constant": true,
      "inputs": [],
      "name": "cooldown",
      "outputs": [
        {
          "name": "",
          "type": "uint256"
        }
      ],
      "payable": false,
      "stateMutability": "view",
      "type": "function"
    },
    {
      "constant": true,
      "inputs": [
        {
          "name": "",
          "type": "bytes32"
        }
      ],
      "name": "notes",
      "outputs": [
        {
          "name": "",
          "type": "uint8"
        }
      ],
      "payable": false,
      "stateMutability": "view",
      "type": "function"
    },
    {
      "constant": true,
      "inputs": [
        {
          "name": "",
          "type": "bytes32"
        }
      ],
      "name": "submissions",
      "outputs": [
        {
          "name": "submitter",
          "type": "address"
        },
        {
          "name": "sType",
          "type": "uint8"
        },
        {
          "name": "submittedAt",
          "type": "uint256"
        }
      ],
      "payable": false,
      "stateMutability": "view",
      "type": "function"
    },
    {
      "constant": true,
      "inputs": [],
      "name": "dai",
      "outputs": [
        {
          "name": "",
          "type": "address"
        }
      ],
      "payable": false,
      "stateMutability": "view",
      "type": "function"
    },
    {
      "anonymous": false,
      "inputs": [
        {
          "indexed": false,
          "name": "note",
          "type": "bytes32"
        },
        {
          "indexed": false,
          "name": "state",
          "type": "uint8"
        }
      ],
      "name": "NoteStateChange",
      "type": "event"
    },
    {
      "anonymous": false,
      "inputs": [
        {
          "indexed": false,
          "name": "submitter",
          "type": "address"
        },
        {
          "indexed": false,
          "name": "proofHash",
          "type": "bytes32"
        }
      ],
      "name": "Submitted",
      "type": "event"
    },
    {
      "anonymous": false,
      "inputs": [
        {
          "indexed": false,
          "name": "mpkAddress",
          "type": "address"
        },
        {
          "indexed": false,
          "name": "poolId",
          "type": "bytes32"
        }
      ],
      "name": "Deposited",
      "type": "event"
    },
    {
      "anonymous": false,
      "inputs": [
        {
          "indexed": true,
          "name": "challenger",
          "type": "address"
        },
        {
          "indexed": false,
          "name": "proofHash",
          "type": "bytes32"
        }
      ],
      "name": "Challenged",
      "type": "event"
    },
    {
      "anonymous": false,
      "inputs": [
        {
          "indexed": false,
          "name": "s",
          "type": "string"
        }
      ],
      "name": "DepositVerified",
      "type": "event"
    },
    {
      "constant": true,
      "inputs": [
        {
          "name": "msgHash",
          "type": "bytes32"
        },
        {
          "name": "v",
          "type": "uint8"
        },
        {
          "name": "r",
          "type": "bytes32"
        },
        {
          "name": "s",
          "type": "bytes32"
        }
      ],
      "name": "recoverAddress",
      "outputs": [
        {
          "name": "",
          "type": "address"
        }
      ],
      "payable": false,
      "stateMutability": "view",
      "type": "function"
    },
    {
      "constant": true,
      "inputs": [
        {
          "name": "addr",
          "type": "address"
        },
        {
          "name": "msgHash",
          "type": "bytes32"
        },
        {
          "name": "v",
          "type": "uint8"
        },
        {
          "name": "r",
          "type": "bytes32"
        },
        {
          "name": "s",
          "type": "bytes32"
        }
      ],
      "name": "paymentTxVerify",
      "outputs": [
        {
          "name": "",
          "type": "bool"
        }
      ],
      "payable": false,
      "stateMutability": "view",
      "type": "function"
    },
    {
      "constant": false,
      "inputs": [
        {
          "name": "poolId",
          "type": "bytes32"
        },
        {
          "name": "mpkAddress",
          "type": "address"
        },
        {
          "name": "msgHash",
          "type": "bytes32"
        },
        {
          "name": "transferNotesNum",
          "type": "uint8"
        },
        {
          "name": "v",
          "type": "uint8"
        },
        {
          "name": "r",
          "type": "bytes32"
        },
        {
          "name": "s",
          "type": "bytes32"
        }
      ],
      "name": "commitPaymentTx",
      "outputs": [],
      "payable": false,
      "stateMutability": "nonpayable",
      "type": "function"
    },
    {
      "constant": false,
      "inputs": [
        {
          "name": "poolId",
          "type": "bytes32"
        }
      ],
      "name": "ClaimExpiredPool",
      "outputs": [],
      "payable": false,
      "stateMutability": "nonpayable",
      "type": "function"
    }
  ],
  "bytecode": "0x608060405234801561001057600080fd5b50612869806100206000396000f3fe608060405234801561001057600080fd5b50600436106100c6576000357c010000000000000000000000000000000000000000000000000000000090048063787a08a61161008e578063787a08a6146103ff5780638428cf831461041d57806385de26b7146104ac578063a0d1192d146104fc578063c5c9c0a21461052a578063f4b9fa75146105b4576100c6565b806308da9f78146100cb57806338cd8093146101515780633a4b66f1146101e05780636b6e3f94146101fe5780637583cf7214610285575b600080fd5b61014f600480360360e08110156100e157600080fd5b8101908080359060200190929190803573ffffffffffffffffffffffffffffffffffffffff16906020019092919080359060200190929190803560ff169060200190929190803560ff16906020019092919080359060200190929190803590602001909291905050506105fe565b005b61017d6004803603602081101561016757600080fd5b810190808035906020019092919050505061082a565b604051808573ffffffffffffffffffffffffffffffffffffffff1673ffffffffffffffffffffffffffffffffffffffff1681526020018481526020018360ff1660ff1681526020018260ff1660ff16815260200194505050505060405180910390f35b6101e8610894565b6040518082815260200191505060405180910390f35b61026b600480360360a081101561021457600080fd5b81019080803573ffffffffffffffffffffffffffffffffffffffff16906020019092919080359060200190929190803560ff169060200190929190803590602001909291908035906020019092919050505061089a565b604051808215151515815260200191505060405180910390f35b6103e5600480360361036081101561029c57600080fd5b8101908080604001906002806020026040519081016040528092919082600260200280828437600081840152601f19601f82011690508083019250505050505091929192908060800190600280602002604051908101604052809291906000905b82821015610351578382604002016002806020026040519081016040528092919082600260200280828437600081840152601f19601f820116905080830192505050505050815260200190600101906102fd565b50505050919291929080604001906002806020026040519081016040528092919082600260200280828437600081840152601f19601f82011690508083019250505050505091929192908061026001906013806020026040519081016040528092919082601360200280828437600081840152601f19601f82011690508083019250505050505091929192905050506108e1565b604051808215151515815260200191505060405180910390f35b610407610b46565b6040518082815260200191505060405180910390f35b61046a6004803603608081101561043357600080fd5b8101908080359060200190929190803560ff1690602001909291908035906020019092919080359060200190929190505050610b4c565b604051808273ffffffffffffffffffffffffffffffffffffffff1673ffffffffffffffffffffffffffffffffffffffff16815260200191505060405180910390f35b6104d8600480360360208110156104c257600080fd5b8101908080359060200190929190505050610bbf565b604051808260038111156104e857fe5b60ff16815260200191505060405180910390f35b6105286004803603602081101561051257600080fd5b8101908080359060200190929190505050610bdf565b005b6105566004803603602081101561054057600080fd5b8101908080359060200190929190505050610eb8565b604051808473ffffffffffffffffffffffffffffffffffffffff1673ffffffffffffffffffffffffffffffffffffffff16815260200183600481111561059857fe5b60ff168152602001828152602001935050505060405180910390f35b6105bc610f0f565b604051808273ffffffffffffffffffffffffffffffffffffffff1673ffffffffffffffffffffffffffffffffffffffff16815260200191505060405180910390f35b60006003600089815260200190815260200160002090508673ffffffffffffffffffffffffffffffffffffffff168160000160009054906101000a900473ffffffffffffffffffffffffffffffffffffffff1673ffffffffffffffffffffffffffffffffffffffff161415156106bf576040517f08c379a000000000000000000000000000000000000000000000000000000000815260040180806020018281038252603381526020018061280b6033913960400191505060405180910390fd5b878786604051602001808481526020018373ffffffffffffffffffffffffffffffffffffffff1673ffffffffffffffffffffffffffffffffffffffff166c010000000000000000000000000281526014018260ff1660ff167f0100000000000000000000000000000000000000000000000000000000000000028152600101935050505060405160208183030381529060405280519060200120861415156107b2576040517f08c379a000000000000000000000000000000000000000000000000000000000815260040180806020018281038252603381526020018061280b6033913960400191505060405180910390fd5b6107bf878786868661089a565b1515610816576040517f08c379a00000000000000000000000000000000000000000000000000000000081526004018080602001828103825260238152602001806127e86023913960400191505060405180910390fd5b6108208886610f35565b5050505050505050565b60036020528060005260406000206000915090508060000160009054906101000a900473ffffffffffffffffffffffffffffffffffffffff16908060010154908060020160009054906101000a900460ff16908060020160019054906101000a900460ff16905084565b60015481565b60006108a885858585610b4c565b73ffffffffffffffffffffffffffffffffffffffff168673ffffffffffffffffffffffffffffffffffffffff1614905095945050505050565b60006108eb6125d5565b604080519081016040528087600060028110151561090557fe5b6020020151815260200187600160028110151561091e57fe5b602002015181525081600001819052506040805190810160405280604080519081016040528088600060028110151561095357fe5b6020020151600060028110151561096657fe5b6020020151815260200188600060028110151561097f57fe5b6020020151600160028110151561099257fe5b6020020151815250815260200160408051908101604052808860016002811015156109b957fe5b602002015160006002811015156109cc57fe5b602002015181526020018860016002811015156109e557fe5b602002015160016002811015156109f857fe5b602002015181525081525081602001819052506040805190810160405280856000600281101515610a2557fe5b60200201518152602001856001600281101515610a3e57fe5b6020020151815250816040018190525060606013604051908082528060200260200182016040528015610a805781602001602082028038833980820191505090505b50905060008090505b6013811015610ace578481601381101515610aa057fe5b60200201518282815181101515610ab357fe5b90602001906020020181815250508080600101915050610a89565b506000610adb8284611223565b1415610b37577f07fb15b1ebdfd9751a3925ece10a8bff6b5f6ce237f0d1385e2176fa8153eb636040518080602001828103825260228152602001806127c66022913960400191505060405180910390a1600192505050610b3e565b6000925050505b949350505050565b60005481565b600060018585858560405160008152602001604052604051808581526020018460ff1660ff1681526020018381526020018281526020019450505050506020604051602081039080840390855afa158015610bab573d6000803e3d6000fd5b505050602060405103519050949350505050565b60056020528060005260406000206000915054906101000a900460ff1681565b6000600360008381526020019081526020016000209050428160010154101515610c71576040517f08c379a000000000000000000000000000000000000000000000000000000000815260040180806020018281038252600f8152602001807f4e6f74206578706972656420796574000000000000000000000000000000000081525060200191505060405180910390fd5b60008160020160019054906101000a900460ff1660ff1690505b8160020160009054906101000a900460ff1660ff16811015610e26576002600560008460040184815481101515610cbe57fe5b9060005260206000200154815260200190815260200160002060006101000a81548160ff02191690836003811115610cf257fe5b02179055506001600560008460030184815481101515610d0e57fe5b9060005260206000200154815260200190815260200160002060006101000a81548160ff02191690836003811115610d4257fe5b02179055507f91d2faa002479f8dc4f20862402db3dba2ebe927031674997d38e5b70d9877e78260040182815481101515610d7957fe5b9060005260206000200154600260405180838152602001826003811115610d9c57fe5b60ff1681526020019250505060405180910390a17f91d2faa002479f8dc4f20862402db3dba2ebe927031674997d38e5b70d9877e78260030182815481101515610de257fe5b9060005260206000200154600160405180838152602001826003811115610e0557fe5b60ff1681526020019250505060405180910390a18080600101915050610c8b565b5060036000838152602001908152602001600020600080820160006101000a81549073ffffffffffffffffffffffffffffffffffffffff021916905560018201600090556002820160006101000a81549060ff02191690556002820160016101000a81549060ff0219169055600382016000610ea2919061260a565b600482016000610eb2919061260a565b50505050565b60046020528060005260406000206000915090508060000160009054906101000a900473ffffffffffffffffffffffffffffffffffffffff16908060000160149054906101000a900460ff16908060010154905083565b600260009054906101000a900473ffffffffffffffffffffffffffffffffffffffff1681565b600060036000848152602001908152602001600020905042816001015410151515610fc8576040517f08c379a000000000000000000000000000000000000000000000000000000000815260040180806020018281038252600f8152602001807f506f6f6c2069732065787069726564000000000000000000000000000000000081525060200191505060405180910390fd5b8060020160009054906101000a900460ff1660ff168260ff161115801561100557508060020160019054906101000a900460ff1660ff168260ff16115b151561105c576040517f08c379a00000000000000000000000000000000000000000000000000000000081526004018080602001828103825260468152602001806127806046913960600191505060405180910390fd5b60008160020160019054906101000a900460ff1660ff1690505b8260ff1681101561120057600160056000846004018481548110151561109857fe5b9060005260206000200154815260200190815260200160002060006101000a81548160ff021916908360038111156110cc57fe5b021790555060026005600084600301848154811015156110e857fe5b9060005260206000200154815260200190815260200160002060006101000a81548160ff0219169083600381111561111c57fe5b02179055507f91d2faa002479f8dc4f20862402db3dba2ebe927031674997d38e5b70d9877e7826004018281548110151561115357fe5b906000526020600020015460016040518083815260200182600381111561117657fe5b60ff1681526020019250505060405180910390a17f91d2faa002479f8dc4f20862402db3dba2ebe927031674997d38e5b70d9877e782600301828154811015156111bc57fe5b90600052602060002001546002604051808381526020018260038111156111df57fe5b60ff1681526020019250505060405180910390a18080600101915050611076565b50818160020160016101000a81548160ff021916908360ff160217905550505050565b6000807f30644e72e131a029b85045b68181585d2833e84879b9709143e1f593f0000001905061125161262b565b6112596113ab565b9050806080015151600186510114151561127257600080fd5b61127a612674565b6040805190810160405280600081526020016000815250905060008090505b865181101561131e578387828151811015156112b157fe5b906020019060200201511015156112c757600080fd5b61130f8261130a8560800151600185018151811015156112e357fe5b906020019060200201518a858151811015156112fb57fe5b90602001906020020151611fc9565b612065565b91508080600101915050611299565b50611345818360800151600081518110151561133657fe5b90602001906020020151612065565b905061138b8560000151866020015161135d84612122565b856040015161136f8a60400151612122565b87606001516113818960000151612122565b89602001516121be565b151561139d57600193505050506113a5565b600093505050505b92915050565b6113b361262b565b60408051908101604052807f292e405eafc6bb584d54f265fcbedace22f98357e05fad3f0bd6dd4e692bdaf181526020017f208c9dfd9c198c6e4266c42deed23783c2d66e36dc0b8d0d07dc9309c59e0fd78152508160000181905250604080519081016040528060408051908101604052807f3018c378667de8a6bbf22edc67e82cf540fff2d0f553f8f2732e889b0a23b15981526020017f1897e8b22f6206eefef48e621f98dc92a498f0bc70f342e1fe9f5107b1d318e7815250815260200160408051908101604052807f267c90cbd333c98d44b76f76ada4d96be3a9fb832f64d589dea8d805dd5786de81526020017f05cf02b0769e7e4adca45cdf6c5cff14c9f0e2813a1766c4c401704b60c7c7428152508152508160200181905250604080519081016040528060408051908101604052807f2b6a325e820f1233201f8d9a96f2a717a212d3ce6a7e40ddfc6fb44a9178149581526020017f07667a84db9f50f13b90474c272792aef2695983683f8640a81efb8ec26fea91815250815260200160408051908101604052807f02dcae9d61a2a4571c606cd2d68088ce8962e525ffad9050ec7889e6d91315f581526020017f13c5004d4f8155c12c0a7b796ca7a05373d3762d8a83f99075a141f0221d8b268152508152508160400181905250604080519081016040528060408051908101604052807f228f6c01bf212813f0d577467419a73bae50702925e7d7d4981f44d043409ad381526020017f26962d87cc717c4deef522c6e7b5878a264b8c436e02c06abc551fef7ea284ab815250815260200160408051908101604052807f1ceca2434cd02c24c77c73cd55adac93493b1ba5584ece92123ca271ca1222c881526020017f2e33b906f8990c9752bdf2823ab7ad45aa13e7e8a265ece3e804e93d08ab46aa8152508152508160600181905250601460405190808252806020026020018201604052801561169a57816020015b61168761268e565b81526020019060019003908161167f5790505b50816080018190525060408051908101604052807f0457295588488bf3449a94a37e47fee1b398cdbd46179d131e2f7b62b80caf9781526020017f20082d5bba62f009543fb9e9fd08d4286d49e9970e8e6ffcbed52482872cf3c98152508160800151600081518110151561170b57fe5b9060200190602002018190525060408051908101604052807f27d1807ec9db0db89e21fac47a46b7ab7b1d6becc582dbd8efe18c137fefd55a81526020017f05322106d35dd78333c19e059dc472986088f1f18b29b7319d5d6322447f37fa8152508160800151600181518110151561178057fe5b9060200190602002018190525060408051908101604052807f23c772e9cb9b2052c409578b871d4ed255d0f739400c755f4775da6563fb8b6681526020017f18f1a5eecafa8a8d79ea488a8b88729caefef610d72f84b0d67ed2f4cd34b2cd815250816080015160028151811015156117f557fe5b9060200190602002018190525060408051908101604052807f2110f6298f88dc6235e3eb7801b269402af8e46f428a346cf1a095477dee1b9381526020017f0f71e1eb6509cfff1956a21ad488a260414cadec9dc9a97030d99ca71e83afaa8152508160800151600381518110151561186a57fe5b9060200190602002018190525060408051908101604052807f2a12e5241240e86cbf2ac03357e97ee94651270617676ecd4289a229e330545681526020017f1ab0c4688b0cdc039fae0b97bcd1a1cb8b861603076a7db9bf56fd46607f5114815250816080015160048151811015156118df57fe5b9060200190602002018190525060408051908101604052807f19f25c91b30a5ae95a9f8b93b2cb0c23cebca4aa1090d61dc83db8355c17dd7281526020017f0dffe15483f457409926d2d38758e45ded7045b184eddb7a2e49d407bdc47d7b8152508160800151600581518110151561195457fe5b9060200190602002018190525060408051908101604052807f2b13730b689bb08dba77382cff6885e9703d2038df1b588155b00e121c10bffd81526020017f234f57591efba25096237fb6509b797d05e7489f99614ca693861baaa472753e815250816080015160068151811015156119c957fe5b9060200190602002018190525060408051908101604052807f1088200be3c0bb23c3845cf1980218c11e30e72bb4b9ea2cd343b991eaded6dc81526020017f189bb7dbadb81f4cac15ba46510c281bafa90fcbaea973084493dd2367c654e581525081608001516007815181101515611a3e57fe5b9060200190602002018190525060408051908101604052807f033c94bfa0f15b097fd2a4035ad63f3ac0d143193ad037d394cc623017e3c5bc81526020017f018659da5ab47605afdaaee9e97b645b674aab3b536eda61f3685930599f964e81525081608001516008815181101515611ab357fe5b9060200190602002018190525060408051908101604052807f25bb8751267e43637cea9c66cec492dca4468a1271467cda9d8eba504b5be0a381526020017f2fefa658d181b568588ba065220d811f69225159b6862e86303420c311cb76b381525081608001516009815181101515611b2857fe5b9060200190602002018190525060408051908101604052807f2878262189e18b747b1754fab7eff743301b77ee4e506641ac066ccb174858c181526020017f1f183d8bc74d2fcaac8e86738856a9f215af98ab25db241d099dff5f779e61d08152508160800151600a815181101515611b9d57fe5b9060200190602002018190525060408051908101604052807f0e5fe16b780cd68ea60fc5e3fe470e0b478616f576b5fba2443588de397be2cd81526020017f19bfa1527071ba45652ddf893225b1f87756a4cea620f1d5ad44d0f2b6d6a3e58152508160800151600b815181101515611c1257fe5b9060200190602002018190525060408051908101604052807f2ad98f589f4c3278013d8aa813c280c6ba9b0edabac6e852f15e4d1799d6936881526020017f210e954fdecb5c67acd836816023a4f3cb798f8c2ca21f06efc672c876ff1a998152508160800151600c815181101515611c8757fe5b9060200190602002018190525060408051908101604052807f25069a945d4a92386cb91187c7e79e30036a9a19cb3c4aba1ecb933d48f7569181526020017f27024885a51fbc7fdc69a55fc27b44f7a9a0ba95dcec195deee0a00c146c3f5c8152508160800151600d815181101515611cfc57fe5b9060200190602002018190525060408051908101604052807e5f22d6004c702dcf85d1d57bf71e0838bba0b8eed81f7152c140d113e0366781526020017f2663f49397b622cbac15470f03ac5ec004744bd043c55498b925244e1446277f8152508160800151600e815181101515611d7057fe5b9060200190602002018190525060408051908101604052807f14918663841b13b7b6c43fa031e187f985027e2091e3f619712046d323ae9edc81526020017f0e07f5b147ba87781d8fd87582bc8ec4071a22e59d167f715acb3ed6c8d21c0a8152508160800151600f815181101515611de557fe5b9060200190602002018190525060408051908101604052807f1eda80c036a1ae50f079ce7f7293aebaaca918503036bb7edfaf34d3f9d4437181526020017f2439540350b6a9dc60181cd9de0780d69385ddc4415b0df3ca1417db878900d981525081608001516010815181101515611e5a57fe5b9060200190602002018190525060408051908101604052807f13cc1105d0148340ff3079ee1e116f59bffbcac8a7968afeef0d7b9eae5615dd81526020017f18651af543cd0a5a9434426269b49c75b062c2fd4c9cbb488be23656a0cd64a981525081608001516011815181101515611ecf57fe5b9060200190602002018190525060408051908101604052807f2a6084bbbd99b96db2af54e1309746d609a9ff3f1ec320fcf116c8cf3a256b3b81526020017f08572aa30446b6a7bd5604bd7ca6c0725df357a9192b64ba1878ed4bb856873881525081608001516012815181101515611f4457fe5b9060200190602002018190525060408051908101604052807f2d79500232d03709ba8b8cdec7a181413a4266f8cccedd0b6a6d8ceb8fbeeab381526020017f1ee05f8ade011c47a1cce063b5aabc8465b6edcac1923908ccae7c88e1cc97ae81525081608001516013815181101515611fb957fe5b9060200190602002018190525090565b611fd1612674565b611fd96126a8565b8360000151816000600381101515611fed57fe5b602002018181525050836020015181600160038110151561200a57fe5b6020020181815250508281600260038110151561202357fe5b6020020181815250506000606083608084600060076107d05a03f19050806000811461204e57612050565bfe5b5080151561205d57600080fd5b505092915050565b61206d612674565b6120756126cb565b836000015181600060048110151561208957fe5b60200201818152505083602001518160016004811015156120a657fe5b60200201818152505082600001518160026004811015156120c357fe5b60200201818152505082602001518160036004811015156120e057fe5b602002018181525050600060608360c084600060066107d05a03f19050806000811461210b5761210d565bfe5b5080151561211a57600080fd5b505092915050565b61212a612674565b60007f30644e72e131a029b85045b68181585d97816a916871ca8d3c208c16d87cfd47905060008360000151148015612167575060008360200151145b1561218b5760408051908101604052806000815260200160008152509150506121b9565b6040805190810160405280846000015181526020018285602001518115156121af57fe5b0683038152509150505b919050565b6000606060046040519080825280602002602001820160405280156121fd57816020015b6121ea61268e565b8152602001906001900390816121e25790505b5090506060600460405190808252806020026020018201604052801561223d57816020015b61222a6126ee565b8152602001906001900390816122225790505b5090508a82600081518110151561225057fe5b906020019060200201819052508882600181518110151561226d57fe5b906020019060200201819052508682600281518110151561228a57fe5b90602001906020020181905250848260038151811015156122a757fe5b90602001906020020181905250898160008151811015156122c457fe5b90602001906020020181905250878160018151811015156122e157fe5b90602001906020020181905250858160028151811015156122fe57fe5b906020019060200201819052508381600381518110151561231b57fe5b906020019060200201819052506123328282612342565b9250505098975050505050505050565b60008151835114151561235457600080fd5b60008351905060006006820290506060816040519080825280602002602001820160405280156123935781602001602082028038833980820191505090505b50905060008090505b838110156125715786818151811015156123b257fe5b906020019060200201516000015182600060068402018151811015156123d457fe5b906020019060200201818152505086818151811015156123f057fe5b9060200190602002015160200151826001600684020181518110151561241257fe5b9060200190602002018181525050858181518110151561242e57fe5b9060200190602002015160000151600060028110151561244a57fe5b6020020151826002600684020181518110151561246357fe5b9060200190602002018181525050858181518110151561247f57fe5b9060200190602002015160000151600160028110151561249b57fe5b602002015182600360068402018151811015156124b457fe5b906020019060200201818152505085818151811015156124d057fe5b906020019060200201516020015160006002811015156124ec57fe5b6020020151826004600684020181518110151561250557fe5b9060200190602002018181525050858181518110151561252157fe5b9060200190602002015160200151600160028110151561253d57fe5b6020020151826005600684020181518110151561255657fe5b9060200190602002018181525050808060010191505061239c565b5061257a612715565b60006020826020860260208601600060086107d05a03f1905080600081146125a1576125a3565bfe5b508015156125b057600080fd5b60008260006001811015156125c157fe5b602002015114159550505050505092915050565b610100604051908101604052806125ea61268e565b81526020016125f76126ee565b815260200161260461268e565b81525090565b50805460008255906000526020600020908101906126289190612738565b50565b6101e06040519081016040528061264061268e565b815260200161264d6126ee565b815260200161265a6126ee565b81526020016126676126ee565b8152602001606081525090565b604080519081016040528060008152602001600081525090565b604080519081016040528060008152602001600081525090565b606060405190810160405280600390602082028038833980820191505090505090565b608060405190810160405280600490602082028038833980820191505090505090565b60806040519081016040528061270261275d565b815260200161270f61275d565b81525090565b602060405190810160405280600190602082028038833980820191505090505090565b61275a91905b8082111561275657600081600090555060010161273e565b5090565b90565b604080519081016040528060029060208202803883398082019150509050509056fe7472616e736665724e6f7465734e756d206973206c6f776572207468616e206c6173744e6f7465734e756d206f7220626967676572207468616e206d61784e6f7465734e756d5472616e73616374696f6e207375636365737366756c6c792076657269666965642e546865207369676e20646f6573206e6f74206d61746368206d706b20416464726573736d706b204164647265737320646f6573206e6f74206d61746368206d706b206164647265737320696e207061796d656e745478a165627a7a723058205943a4503ed6f3c72f3cc629c40979156672ab22e3f54156a0d8c7a09df9ad680029",
  "source": "pragma solidity ^0.5.2;\n\nimport {Verifier as DepositNoteVerifier} from \"./verifiers/DepositNoteVerifier.sol\";\nimport \"./ZkDaiBase.sol\";\n\n\ncontract DepositNotes is DepositNoteVerifier, ZkDaiBase {\n  uint8 internal constant NUM_PUBLIC_INPUTS = 19;\n  uint8 internal constant NUM_DEPOSIT_NOTES = 4;\n  uint8 internal constant NUM_ALL_NOTES = 2 + NUM_DEPOSIT_NOTES; //original note + change note + deposit notes\n  uint8 internal constant MPK_INDEX = NUM_DEPOSIT_NOTES*2+2+2; //deposit_notes (2*deposit_notes_num) + original note (2) + change note (2)\n  /**\n  * @dev Hashes the submitted proof and adds it to the submissions mapping that tracks\n  *      submission time, type, public inputs of the zkSnark and the submitter\n  */\n  function submit(\n      uint256[2] memory a,\n      uint256[2][2] memory b,\n      uint256[2] memory c,\n      uint256[NUM_PUBLIC_INPUTS] memory input)\n    internal\n  {\n      bytes32 proofHash = getProofHash(a, b, c);\n      uint256[] memory publicInput = new uint256[](NUM_PUBLIC_INPUTS);\n      for(uint8 i = 0; i < NUM_PUBLIC_INPUTS; i++) {\n        publicInput[i] = input[i];\n      }\n      submissions[proofHash] = Submission(msg.sender, SubmissionType.Deposit, now, publicInput);\n      emit Submitted(msg.sender, proofHash);\n  }\n\n  /**\n  * @dev Commits the proof i.e. Marks the input note as Spent and mints two new output notes that came with the proof.\n  * @param proofHash Hash of the proof to be committed\n  */\n  function depositCommit(bytes32 proofHash)\n    internal\n  {\n      Submission storage submission = submissions[proofHash];\n      bytes32[NUM_ALL_NOTES] memory _notes = getAllNotes(submission.publicInput);\n\n      // check that the first note (among public params) is committed and\n      require(notes[_notes[0]] == State.Committed, \"Note is either invalid or already spent\");\n      // check that the deposit notes is already minted.\n      for(uint i=1; i<NUM_ALL_NOTES; i++){\n        require(notes[_notes[i]] == State.Invalid, \"New note is already minted\");\n      }\n\n      notes[_notes[0]] = State.Spent; // Change the state of an original note.\n      for(uint i=1; i<NUM_DEPOSIT_NOTES; i++){\n        notes[_notes[i]] = State.Deposit;\n      }\n      notes[_notes[NUM_ALL_NOTES-1]] = State.Committed; // Change the state of a \"change note\".\n\n      delete submissions[proofHash];\n      submission.submitter.transfer(stake);\n\n      emit NoteStateChange(_notes[0], State.Spent);\n      for(uint i=1; i<NUM_DEPOSIT_NOTES; i++){\n        emit NoteStateChange(_notes[i], State.Deposit);\n      }\n      emit NoteStateChange(_notes[NUM_ALL_NOTES-1], State.Committed);\n\n      bytes32 poolId = keccak256(abi.encodePacked(_notes[0],now));\n\n      //Testing for getMpkAddress function is needed.\n      address mpkAddress = getMpkAddress(submission.publicInput[MPK_INDEX],submission.publicInput[MPK_INDEX+1],submission.publicInput[MPK_INDEX+2],submission.publicInput[MPK_INDEX+3]); //needs to be modified\n\n      bytes32[] memory senderNotes = new bytes32[](NUM_DEPOSIT_NOTES/2);\n      for(uint i =0; i< NUM_DEPOSIT_NOTES/2; i++){\n        senderNotes[i] = _notes[i+1];\n      }\n      bytes32[] memory receiverNotes = new bytes32[](NUM_DEPOSIT_NOTES/2);\n      for(uint i = 0; i< NUM_DEPOSIT_NOTES/2; i++) {\n        receiverNotes[i] = _notes[i+NUM_DEPOSIT_NOTES/2+1];\n      }\n      uint expectedTime = 5 minutes;\n      depositPools[poolId] = DepositPool(mpkAddress, now + expectedTime, NUM_DEPOSIT_NOTES/2, 0, senderNotes, receiverNotes);\n  }\n\n  function getAllNotes(uint256[] memory input)\n    internal\n    pure\n    returns(bytes32[NUM_ALL_NOTES] memory notes)\n  {\n      for(uint i=0; i<NUM_ALL_NOTES; i++){\n        notes[i] = calcNoteHash(input[i*2], input[i*2+1]);\n      }\n  }\n\n  /**\n  * @dev Challenge the proof for spend step\n  * @notice params: a, a_p, b, b_p, c, c_p, h, k zkSnark parameters of the challenged proof\n  * @param proofHash Hash of the proof\n  */\n  function challenge(\n      uint256[2] memory a,\n      uint256[2][2] memory b,\n      uint256[2] memory c,\n      bytes32 proofHash)\n    internal\n  {\n      Submission storage submission = submissions[proofHash];\n      uint256[NUM_PUBLIC_INPUTS] memory input;\n      for(uint i = 0; i < NUM_PUBLIC_INPUTS; i++) {\n        input[i] = submission.publicInput[i];\n      }\n      if (!depositVerifyTx(a, b, c, input)) {\n        // challenge passed\n        delete submissions[proofHash];\n        msg.sender.transfer(stake);\n        emit Challenged(msg.sender, proofHash);\n      } else {\n        // challenge failed\n        depositCommit(proofHash);\n      }\n  }\n\n   /* Commit paymentTx */\n  function recoverAddress(bytes32 msgHash, uint8 v, bytes32 r, bytes32 s) public view returns (address) {\n      return ecrecover(msgHash, v, r, s);\n  }\n\n  function paymentTxVerify(address addr, bytes32 msgHash, uint8 v, bytes32 r, bytes32 s) public view returns (bool) {\n    return addr == recoverAddress(msgHash, v, r, s);\n  }\n\n  function commitDepositNotes(bytes32 poolId, uint8 transferNotesNum) internal {\n    DepositPool storage dp = depositPools[poolId];\n    require(dp.expiredTime >= now ,\"Pool is expired\");\n    require((transferNotesNum <= dp.maxNotesNum) && (transferNotesNum > dp.lastNotesNum), \"transferNotesNum is lower than lastNotesNum or bigger than maxNotesNum\");\n\n    //change recevier's deposit notes' state to avaliable\n    //and change sender's deposit notes' state to spent\n    //The number of notes changed = transferNotesNum - lastNotesNum\n    for(uint i = dp.lastNotesNum; i < transferNotesNum; i++){\n      notes[dp.receiverNotes[i]] = State.Committed;\n      notes[dp.senderNotes[i]] = State.Spent;\n      emit NoteStateChange(dp.receiverNotes[i], State.Committed);\n      emit NoteStateChange(dp.senderNotes[i], State.Spent);\n    }\n    dp.lastNotesNum = transferNotesNum;\n  }\n\n  function commitPaymentTx(bytes32 poolId, address mpkAddress, bytes32 msgHash, uint8 transferNotesNum, uint8 v, bytes32 r, bytes32 s) public {\n    DepositPool storage dp = depositPools[poolId];\n    require(dp.mpkAddress == mpkAddress, \"mpk Address does not match mpk address in paymentTx\");\n    require(msgHash == keccak256(abi.encodePacked(poolId,mpkAddress,transferNotesNum)), \"mpk Address does not match mpk address in paymentTx\");\n    require(paymentTxVerify(mpkAddress, msgHash, v, r, s),\"The sign does not match mpk Address\");\n    commitDepositNotes(poolId, transferNotesNum);\n  }\n\n  //check Pool is expired. If pool is expired, then change the remain sender notes' state to avaliable. Also change the remain reciever notes' state to spent(unavailable).\n  function ClaimExpiredPool(bytes32 poolId) public { //ClaimExpiredPool\n\n    DepositPool storage dp = depositPools[poolId];\n    require(dp.expiredTime < now, \"Not expired yet\");\n\n    //If pool is expired, then return change to sender\n    for(uint i = dp.lastNotesNum; i < dp.maxNotesNum; i++){\n      notes[dp.receiverNotes[i]] = State.Spent;\n      notes[dp.senderNotes[i]] = State.Committed;\n      emit NoteStateChange(dp.receiverNotes[i], State.Spent);\n      emit NoteStateChange(dp.senderNotes[i], State.Committed);\n    }\n\n    delete depositPools[poolId];\n  }\n}\n",
  "sourcePath": "/home/boo/work/LightningZKP/contracts/DepositNotes.sol",
  "compiler": {
    "name": "solc",
    "version": "0.5.2+commit.1df8f40c.Emscripten.clang"
  },
  "schemaVersion": "3.0.11",
  "updatedAt": "2019-10-15T14:10:28.839Z",
  "devdoc": {
    "methods": {}
  },
  "userdoc": {
    "methods": {}
  }
}