{
  "contractName": "DepositNote10Verifier",
  "abi": [
    {
      "anonymous": false,
      "inputs": [
        {
          "indexed": false,
          "name": "s",
          "type": "string"
        }
      ],
      "name": "DepositVerified",
      "type": "event"
    },
    {
      "constant": false,
      "inputs": [
        {
          "name": "a",
          "type": "uint256[2]"
        },
        {
          "name": "b",
          "type": "uint256[2][2]"
        },
        {
          "name": "c",
          "type": "uint256[2]"
        },
        {
          "name": "input",
          "type": "uint256[51]"
        }
      ],
      "name": "depositVerifyTx",
      "outputs": [
        {
          "name": "r",
          "type": "bool"
        }
      ],
      "payable": false,
      "stateMutability": "nonpayable",
      "type": "function"
    }
  ],
  "bytecode": "0x608060405234801561001057600080fd5b5061282e806100206000396000f3fe608060405234801561001057600080fd5b5060043610610048576000357c0100000000000000000000000000000000000000000000000000000000900480636457ce441461004d575b600080fd5b6101ad600480360361076081101561006457600080fd5b8101908080604001906002806020026040519081016040528092919082600260200280828437600081840152601f19601f82011690508083019250505050505091929192908060800190600280602002604051908101604052809291906000905b82821015610119578382604002016002806020026040519081016040528092919082600260200280828437600081840152601f19601f820116905080830192505050505050815260200190600101906100c5565b50505050919291929080604001906002806020026040519081016040528092919082600260200280828437600081840152601f19601f82011690508083019250505050505091929192908061066001906033806020026040519081016040528092919082603360200280828437600081840152601f19601f82011690508083019250505050505091929192905050506101c7565b604051808215151515815260200191505060405180910390f35b60006101d161267c565b60408051908101604052808760006002811015156101eb57fe5b6020020151815260200187600160028110151561020457fe5b602002015181525081600001819052506040805190810160405280604080519081016040528088600060028110151561023957fe5b6020020151600060028110151561024c57fe5b6020020151815260200188600060028110151561026557fe5b6020020151600160028110151561027857fe5b60200201518152508152602001604080519081016040528088600160028110151561029f57fe5b602002015160006002811015156102b257fe5b602002015181526020018860016002811015156102cb57fe5b602002015160016002811015156102de57fe5b60200201518152508152508160200181905250604080519081016040528085600060028110151561030b57fe5b6020020151815260200185600160028110151561032457fe5b60200201518152508160400181905250606060336040519080825280602002602001820160405280156103665781602001602082028038833980820191505090505b50905060008090505b60338110156103b457848160338110151561038657fe5b6020020151828281518110151561039957fe5b9060200190602002018181525050808060010191505061036f565b5060006103c1828461042c565b141561041d577f07fb15b1ebdfd9751a3925ece10a8bff6b5f6ce237f0d1385e2176fa8153eb636040518080602001828103825260228152602001806127e16022913960400191505060405180910390a1600192505050610424565b6000925050505b949350505050565b6000807f30644e72e131a029b85045b68181585d2833e84879b9709143e1f593f0000001905061045a6126b1565b6104626105b4565b9050806080015151600186510114151561047b57600080fd5b6104836126fa565b6040805190810160405280600081526020016000815250905060008090505b8651811015610527578387828151811015156104ba57fe5b906020019060200201511015156104d057600080fd5b610518826105138560800151600185018151811015156104ec57fe5b906020019060200201518a8581518110151561050457fe5b90602001906020020151612070565b61210c565b915080806001019150506104a2565b5061054e818360800151600081518110151561053f57fe5b9060200190602002015161210c565b905061059485600001518660200151610566846121c9565b85604001516105788a604001516121c9565b876060015161058a89600001516121c9565b8960200151612265565b15156105a657600193505050506105ae565b600093505050505b92915050565b6105bc6126b1565b60408051908101604052807f1ed79da9946f11b56739eebd69715bbd2e25ff5729f22a5c6a66a05da13a191a81526020017f0f3d7d3562bfae7b9b182baa31378442818c53518f236af47bea7d226309b95a8152508160000181905250604080519081016040528060408051908101604052807f199eaea01c7a80c7746193d62144b95f3fb5c33724eb3e49e1b2f8ba73a486b381526020017f0b4d84af9184c3252ca02f5f971b90fe93900efdf808b03ed696e727fea82fbf815250815260200160408051908101604052807f21e933dc2a5e984ca69f8452383ea2f06d8f9ff9eab57b68340238777dc0ab5481526020017f2d68b9a794081f851ab546e7b12d40425ecbd004c24b4f97901ec13d335cb37b8152508152508160200181905250604080519081016040528060408051908101604052807f14b3178b6f48c2d5ed825dd5fca853fec5155deda001ca7520ba1cb315014db881526020017f2840fb55a8f2d80c5c16c4258fbbd7cf5526a80d264c1fa8ad778ef8c65954a0815250815260200160408051908101604052807f18b08b3fa2e6be9f2da59155492c6ec8a6bb7fd35e2c3498fa5d244a8809042c81526020017f2d7ca6923359022ceabc8cc34f9191594363413b9c29269d3d95698c653f637a8152508152508160400181905250604080519081016040528060408051908101604052807f1d73a8b89eef993a52db1149768a8cb709ec7b0dbcb6f2443ccc61a4f437903381526020017f2b5e7cd3b68c1ea0facb6b06f7067792c792e7055ecbc3dd0fa64eab7a32c8b0815250815260200160408051908101604052807f0f587facfad3240307501fb092c8d6f6616058fd8c2c37b77606eeedc74143a881526020017f2db9df5074db5299c6e965a55185ad315f1334d54a14c39da486151a22f4598a815250815250816060018190525060346040519080825280602002602001820160405280156108a357816020015b610890612714565b8152602001906001900390816108885790505b50816080018190525060408051908101604052807f020dd35a52a98c3eb52efabd69019ae7e99b208f6d03030bc5adfbd25d928c4581526020017f0d19803fd262b3000d91c66a28264b6d72029c3bcd237628cbc0afb24e13105f8152508160800151600081518110151561091457fe5b9060200190602002018190525060408051908101604052807f05bbbffcc3974d50caa9cdf5a5aaa56fec577c5e1d5af2d20718328082da8e5681526020017f03fdd236a681bef3ff224e2475e29df541ce50e2fb2e0339176967533a58c0668152508160800151600181518110151561098957fe5b9060200190602002018190525060408051908101604052807f2be0f870b4d588934105eb474bcc8cdc612789298f6e46a5287863ff96593f2381526020017f25eaeea668322d932feaee991a7de2dea0edef185431a8af87f7fad0c072e806815250816080015160028151811015156109fe57fe5b9060200190602002018190525060408051908101604052807f28457c0350cc19feb66404d4d411d1ce63158d95cdbd7b21aa63cfae7ecd40c581526020017f2abd1c98616800ca0b5f96e2eed30bc889fc1fd73258a4882194f8640ee48b9d81525081608001516003815181101515610a7357fe5b9060200190602002018190525060408051908101604052807f0d137ce8d9a2b5c26af81f977a1cf7a1d4db909b3a71df203ad7c5f66faef4c681526020017efa2240a55a6c68d8aaadad1ab265d44333a908b7f41ffca29e08e425d7bc9481525081608001516004815181101515610ae757fe5b9060200190602002018190525060408051908101604052807f22e9b4189485d955ca8340f6efc46242d431bb4f3d1b79032dc9194c2ecb889081526020017f1c241e8037b9fbc4852de813a33c99aec7dd3f2e9e83775a17e9c4c634ecb81581525081608001516005815181101515610b5c57fe5b9060200190602002018190525060408051908101604052807f1aeb0dad0d37b9e3f3a31be4d3e2811019bf28eb9a3eab1d8fa192c29ae0f0a581526020017f0d9ede01e0974b2ef222fe3bb4559a357cf64283f03589c5731704179799e39181525081608001516006815181101515610bd157fe5b9060200190602002018190525060408051908101604052807f24290dbaec9d3dfa22cf349309f823ae6064fc57d014e7bcddbe962794c7ea9481526020017f2ccdb477968a52b4c640aec9d311a40954a1d19bd0dd98c8fd19c69ee61b740281525081608001516007815181101515610c4657fe5b9060200190602002018190525060408051908101604052807f1021046cd8401bbef3f49f6c267398bc5859bdb5d3764f78a83aef420d5a989081526020017f03a3358b96b2a0e97839110b5f386dbb278e8f0f997f5cf9339fbd007f13d89781525081608001516008815181101515610cbb57fe5b9060200190602002018190525060408051908101604052807f0a06afc1af6f719dd380173d0523d91aca4070633baac3bf103062acdf520bf181526020017f2e7735a1f7790aefb3e85f23c82000cf3d792bf7668b899e1f55991270bc958381525081608001516009815181101515610d3057fe5b9060200190602002018190525060408051908101604052807f0d33ee0d0e82a372861d6c96359ed7a62a7449d4bb24f62ad7acba33f896adbf81526020017f092729ef8405845e16e36710a9d8385dbd5a9b05be3cbc129abe585b3162766f8152508160800151600a815181101515610da557fe5b9060200190602002018190525060408051908101604052807f2495200a919c6e7ccad5fca29fdb0cbf37a9498cc69c5c8e6b726a425786a75881526020017f0cb265e93bd3da95097dde1f38640fa829fc03f4ff9fcca06389b4ef32fcaa188152508160800151600b815181101515610e1a57fe5b9060200190602002018190525060408051908101604052807f1104371553254e47929fe212f65697ebd63595544666a59b9b3085c5170b351781526020017f17a723f3f79ef508d17f1105f603e953dabbbc214a07ea6793aa32b2e984d5aa8152508160800151600c815181101515610e8f57fe5b9060200190602002018190525060408051908101604052807f1acf9cc232331075e2032eb34019c6dc6b62bc64d675145aecd2c19eeebeb7c481526020017f024407d354a1ea81893bcd2c14e4d7d44cc5a200177a77a1ad3dd3773d9104af8152508160800151600d815181101515610f0457fe5b9060200190602002018190525060408051908101604052807f13d6028d3db314a0b3b2c905e9a86dd70abdb5cf8dc41546442ab0a7e1229f9481526020017f105502aaffaa55bfe306d105178ac09a594e834a825928c7d55a2692c6d4e2778152508160800151600e815181101515610f7957fe5b9060200190602002018190525060408051908101604052807f044e002e3bdb31b8ef305f864df043a6e7a7507635f13e28cc782d597d2e789481526020017f12350f8ffa515b984a4001560b3f676f45540a71f5b607ef0101a4dfcabdcaf08152508160800151600f815181101515610fee57fe5b9060200190602002018190525060408051908101604052807f2236070c964542f87eb497d4454b4a6043aed7a23365519266584de32ff7df7281526020017f1536f1f2bdfb14997229751232b756418c56d41bb2bef7477e739f50e8fcf4598152508160800151601081518110151561106357fe5b9060200190602002018190525060408051908101604052807f27306487092491d7f81246b8c4ef88d3d9bf9a14ca0096d95aafda09085e454081526020017f21893d2c6dd2e4c330fcb05d1c50291399a3297b5c8d92d0bab460fa592d1753815250816080015160118151811015156110d857fe5b9060200190602002018190525060408051908101604052807f10332d1815729c17b8f719bfae6ae97a7f48f140804ace7ca41e9e817d9c13ae81526020017f2990e38df6aadcf78fe374ed56a239c9ff62b04a576938190e0dae278d60939b8152508160800151601281518110151561114d57fe5b9060200190602002018190525060408051908101604052807f2b47e7a80deee7fa6a5a7bdf91b0687191656c747fe873f72a139cb17571b8e981526020017f0ba81e32edb7147afad29c042b34c4846feb48ccc777a25015f7dd5f68b8d456815250816080015160138151811015156111c257fe5b9060200190602002018190525060408051908101604052807f1f97d3e5796503da0aea4c1527cd13cf26b7bb9238d8c20b65506c5471ad2cae81526020017f02f467e0830fc04b347b2efae09f5467fee9f4e7407b6efc1882e53eb6f2fb678152508160800151601481518110151561123757fe5b9060200190602002018190525060408051908101604052807f0c33390157ff4574f399da32262d3c56d7a5a8b1f5a48a56ffc78befcf2fa62b81526020017f0de06ab601e44377133cdc2c8e8a67941e4cd45a794d58138d52e6a5cfa3b062815250816080015160158151811015156112ac57fe5b9060200190602002018190525060408051908101604052807f1027fa4252ab77e93224eba29b44566543285b8568aaa948f3482f827f5a492781526020017f12ee01a0ff4129087a4bbf857aa3da67da0910417a1a7fbe078b9525953296f18152508160800151601681518110151561132157fe5b9060200190602002018190525060408051908101604052807f0cdc2e427b121297717ff214a295972de2ef6d1fce9221f6660873e3fda5ed1d81526020017f1f7cf55de250f325d2b49e798650c69f29566557b9fa3a1647b1aa1243a53b578152508160800151601781518110151561139657fe5b9060200190602002018190525060408051908101604052807f1d6f7e7614d58ea3e08f15cfdc9f5e8f66b45807182b9638fe2e84af1ecb0fa881526020017f214e1d7b6ee8218b3806d2d18c90235d7150833d6fbfda7fd2a67e8368876fe78152508160800151601881518110151561140b57fe5b9060200190602002018190525060408051908101604052807f2378c40e775af426229fc16f5347a314c528fb71996bc9c20008a82b778551bd81526020017f06f036eeb061e76eb8b40344f5ef7f5d5c4967da31c450d37fe4af6d6be03c438152508160800151601981518110151561148057fe5b9060200190602002018190525060408051908101604052807f0f9e3bddc5de53e2a35f6894dc97ef5a5a62c8b82be5dc18100d1bc8cb2fca7d81526020017f04f691f53d1fdeafdf490118b9f498e8ac4f5ac0c84b5d7245aee9904fe2a6bc8152508160800151601a8151811015156114f557fe5b9060200190602002018190525060408051908101604052807f09201e247155f191e96ee201917122609ef4b615565a7da536f0e4febfea50d181526020017f057589cdce6659360e347b209ccf99b5aafb36014e0956862e20e3df7155b4b08152508160800151601b81518110151561156a57fe5b9060200190602002018190525060408051908101604052807f1b108b40fb7d2422fd3aaee95a51011fee46de54e10de2a6e8f3d5902520a60c81526020017f071ef42a2f2fc2a5ddff78b7aa0e38af46649cbb512cbb365d3aac580fbdee0c8152508160800151601c8151811015156115df57fe5b9060200190602002018190525060408051908101604052807f049f2058e407de6463472a4de94448198624dd9808598cb805ab86dfa60f3b7b81526020017f056a0cfc235dc494dfd0d589dd3f61ac17f615090a1dcfa980362058afe53f6c8152508160800151601d81518110151561165457fe5b9060200190602002018190525060408051908101604052807f2af0324978a494f6494699320fbf4d4dfa21127836bf85b3aed382c6a273257181526020017f02c645bbf22a5ef46155d77dfd1a94e31d12d3aab961f4b4ad935d712d7da0cd8152508160800151601e8151811015156116c957fe5b9060200190602002018190525060408051908101604052807f2b50e6c9cebd2d6ab8f5dd71af661277fdca7687d6981eb26742477696fd8a1a81526020017f0b232bd48cc7eb5b82e23ef8ef9b6593835affcdbf47009455c5d53908d037c48152508160800151601f81518110151561173e57fe5b9060200190602002018190525060408051908101604052807f2688d8f571365ddde076c15df79734305df770b3f58ece06cdbeef380a9a3f0381526020017f27cb630ae0c4b42e6b24ba2d2f05098a56aea08ba3a241f6649c876aa81ac050815250816080015160208151811015156117b357fe5b9060200190602002018190525060408051908101604052807f095351dcf3408b426797489497b9d4ccdd15cc56a49b232fd0c14a9fa25af05f81526020017f22d48f590a800ab3286d011ee2f0e58d235ba10116845550ef79f9dae19ac2ca8152508160800151602181518110151561182857fe5b9060200190602002018190525060408051908101604052807f2b3a7bd8e3799169e414de6761e340372497672f7e220a999ffe61de834d622a81526020017e87d2cb4e3570bc86e027a3acd5cf75a5c3b56bd3408bba5e99a56c545a7e668152508160800151602281518110151561189c57fe5b9060200190602002018190525060408051908101604052807f16dbfb84c1db0e48e9c32b2d6bc711b9432b78574694e9e5ec1095e45255865281526020017f293ea489cf6abdc6a3a6c3a036567fa15d13337a8119cb50735fe0ebc0758c0a8152508160800151602381518110151561191157fe5b9060200190602002018190525060408051908101604052807f1f8ff4bb55f15eaebd891b351f75768e680efdaf63417dcfaa7477c746c780d681526020017f1e3261fb3d3411f25d32d4012449224992c9ef6a879d97b43947765cb83fe22f8152508160800151602481518110151561198657fe5b9060200190602002018190525060408051908101604052807f2b3fd5b94c35676c51122e5f8f075792c20dc673ccd20bd282e389df0b842a5781526020017f02c1d8c0a02485db4450c7ca2330745cb981cb7043745b8443d3807eb005acad815250816080015160258151811015156119fb57fe5b9060200190602002018190525060408051908101604052807f1718344fb824d587ace64b9271131c5bdf2f087eb5ad5dc6cacfe8281c76a24f81526020017f1d23676f73ff432ed8974c148f368d4414b9983b9644580af4b615deb8c0a8f781525081608001516026815181101515611a7057fe5b9060200190602002018190525060408051908101604052807f1a94d7719ca8c1c399cc13bb828f43fac821ba19fb65a504d23882dabcc92b3281526020017f2bdf62902d748469ec79e180527e8280aea92f8e13ed2df3ba963751c82debd681525081608001516027815181101515611ae557fe5b9060200190602002018190525060408051908101604052807f27a1f82f0e9e65aee0e1e5ab0be0eec1d9cb61012a0236b1982614ce68d9688c81526020017f1a376b601792d2b93e428854b69bb1875b434174e747d29633aafc39379076d381525081608001516028815181101515611b5a57fe5b9060200190602002018190525060408051908101604052807f209eedb4423f4f16bff5148cffde466375b6e7d71367bcc28362ef3c7ffc47d581526020017f08c28b7c932d2f9699ee9adc9c623765294097de430c2987b8d7de565e279aba81525081608001516029815181101515611bcf57fe5b9060200190602002018190525060408051908101604052807f16d383db5c33fdc5f5c3f7ea99e985a16c4e284bf7d8059e5878163e099ab03781526020017f07e025196e49d715f708aee207d2f524324a52e1e50aa07c63f343dfeb88fd468152508160800151602a815181101515611c4457fe5b9060200190602002018190525060408051908101604052807f04dc51787bbd24d00891321cc78c4735abc3cc9c3178426435533d7b2dfb07b081526020017f2ed4e9cb67904ecf3268162f0b70acd1133274feceaa17a10553af1fb32584928152508160800151602b815181101515611cb957fe5b9060200190602002018190525060408051908101604052807f2b59c1408b113513f82a3eeed15946172e74e6dfdeb0b5a6275d8804f6a8c86781526020017f05a5ab42d20271b3e785af035508ba1ca274d9cd315827580b765b73f633e31f8152508160800151602c815181101515611d2e57fe5b9060200190602002018190525060408051908101604052807f1b28adedaa659462b47e9a8e5966f575b711a97b371669211cb20d6c66e5618181526020017f144b7938bf96b1473df67e67cc6cd0a90bcfc34ee8f2e4a95cff6b1d44a4577f8152508160800151602d815181101515611da357fe5b9060200190602002018190525060408051908101604052807f0663822e5aaf55ea23f8170fa9b37025379b98fd9410904ffce0ace15c40026f81526020017f0b8da81ad2b0074e5f1b9932d3e5c778ff0c54d60eb71cd5b7d1b16ef2b1d96e8152508160800151602e815181101515611e1857fe5b9060200190602002018190525060408051908101604052807f13a3913c13908e82f4f6834c32450cf920d22de586d983c12b498ddd3c7e89de81526020017f2679b28b571453e5b726a32388fdd67aa06511b3038ae0a28e2949a38c0fdde28152508160800151602f815181101515611e8d57fe5b9060200190602002018190525060408051908101604052807f1a435b9387deacbb4c7d1e6eec27451bcbdb5f7de44a6cdbbbfc4f4d2946baee81526020017f2393035359746610a0e5abeb8bdc1be3dfdc0c39fb83cf084cd544f38cce05c381525081608001516030815181101515611f0257fe5b9060200190602002018190525060408051908101604052807f03faf1fd4ddbd817e7c8aa51396549672bd4931898d1eb1877832dc8593eac8381526020017f26b0850e5fa0e7000c1b4a9f33e2ce955b97ac985e4d68793cb43b5112f93e9181525081608001516031815181101515611f7757fe5b9060200190602002018190525060408051908101604052807f1f14ca2c3bb374f6a3ef621c8e59bd3dc6c4cbb000000b0de43f8035447a01fe81526020017e92f7fad599d907361fcb11b044093faa60cba3dbc2daea72091777735e1ee281525081608001516032815181101515611feb57fe5b9060200190602002018190525060408051908101604052807f1b9b405f3d1ee1417be36dfb2c60cd72272f2caf67c40fc15e9569bc30edc93781526020017f0cbe7a4459cfc4eb517693a3d7016f1b5fe3906960fe520286219d8c985447508152508160800151603381518110151561206057fe5b9060200190602002018190525090565b6120786126fa565b61208061272e565b836000015181600060038110151561209457fe5b60200201818152505083602001518160016003811015156120b157fe5b602002018181525050828160026003811015156120ca57fe5b6020020181815250506000606083608084600060076107d05a03f1905080600081146120f5576120f7565bfe5b5080151561210457600080fd5b505092915050565b6121146126fa565b61211c612751565b836000015181600060048110151561213057fe5b602002018181525050836020015181600160048110151561214d57fe5b602002018181525050826000015181600260048110151561216a57fe5b602002018181525050826020015181600360048110151561218757fe5b602002018181525050600060608360c084600060066107d05a03f1905080600081146121b2576121b4565bfe5b508015156121c157600080fd5b505092915050565b6121d16126fa565b60007f30644e72e131a029b85045b68181585d97816a916871ca8d3c208c16d87cfd4790506000836000015114801561220e575060008360200151145b15612232576040805190810160405280600081526020016000815250915050612260565b60408051908101604052808460000151815260200182856020015181151561225657fe5b0683038152509150505b919050565b6000606060046040519080825280602002602001820160405280156122a457816020015b612291612714565b8152602001906001900390816122895790505b509050606060046040519080825280602002602001820160405280156122e457816020015b6122d1612774565b8152602001906001900390816122c95790505b5090508a8260008151811015156122f757fe5b906020019060200201819052508882600181518110151561231457fe5b906020019060200201819052508682600281518110151561233157fe5b906020019060200201819052508482600381518110151561234e57fe5b906020019060200201819052508981600081518110151561236b57fe5b906020019060200201819052508781600181518110151561238857fe5b90602001906020020181905250858160028151811015156123a557fe5b90602001906020020181905250838160038151811015156123c257fe5b906020019060200201819052506123d982826123e9565b9250505098975050505050505050565b6000815183511415156123fb57600080fd5b600083519050600060068202905060608160405190808252806020026020018201604052801561243a5781602001602082028038833980820191505090505b50905060008090505b8381101561261857868181518110151561245957fe5b9060200190602002015160000151826000600684020181518110151561247b57fe5b9060200190602002018181525050868181518110151561249757fe5b906020019060200201516020015182600160068402018151811015156124b957fe5b906020019060200201818152505085818151811015156124d557fe5b906020019060200201516000015160006002811015156124f157fe5b6020020151826002600684020181518110151561250a57fe5b9060200190602002018181525050858181518110151561252657fe5b9060200190602002015160000151600160028110151561254257fe5b6020020151826003600684020181518110151561255b57fe5b9060200190602002018181525050858181518110151561257757fe5b9060200190602002015160200151600060028110151561259357fe5b602002015182600460068402018151811015156125ac57fe5b906020019060200201818152505085818151811015156125c857fe5b906020019060200201516020015160016002811015156125e457fe5b602002015182600560068402018151811015156125fd57fe5b90602001906020020181815250508080600101915050612443565b5061262161279b565b60006020826020860260208601600060086107d05a03f1905080600081146126485761264a565bfe5b5080151561265757600080fd5b600082600060018110151561266857fe5b602002015114159550505050505092915050565b61010060405190810160405280612691612714565b815260200161269e612774565b81526020016126ab612714565b81525090565b6101e0604051908101604052806126c6612714565b81526020016126d3612774565b81526020016126e0612774565b81526020016126ed612774565b8152602001606081525090565b604080519081016040528060008152602001600081525090565b604080519081016040528060008152602001600081525090565b606060405190810160405280600390602082028038833980820191505090505090565b608060405190810160405280600490602082028038833980820191505090505090565b6080604051908101604052806127886127be565b81526020016127956127be565b81525090565b602060405190810160405280600190602082028038833980820191505090505090565b604080519081016040528060029060208202803883398082019150509050509056fe5472616e73616374696f6e207375636365737366756c6c792076657269666965642ea165627a7a72305820acabd9e94767ed9e52c103740ef44f6ea74fee9577343175295cd060f3a7ad220029",
  "source": "pragma solidity ^0.5.2;\nimport \"./VerifierBase.sol\";\n// This file is LGPL3 Licensed\ncontract DepositNote10Verifier is VerifierBase {\n\n    function depositVerifyingKey() pure internal returns (VerifyingKey memory vk) {\n        vk.a = Pairing.G1Point(uint256(0x1ed79da9946f11b56739eebd69715bbd2e25ff5729f22a5c6a66a05da13a191a), uint256(0x0f3d7d3562bfae7b9b182baa31378442818c53518f236af47bea7d226309b95a));\n        vk.b = Pairing.G2Point([uint256(0x199eaea01c7a80c7746193d62144b95f3fb5c33724eb3e49e1b2f8ba73a486b3), uint256(0x0b4d84af9184c3252ca02f5f971b90fe93900efdf808b03ed696e727fea82fbf)], [uint256(0x21e933dc2a5e984ca69f8452383ea2f06d8f9ff9eab57b68340238777dc0ab54), uint256(0x2d68b9a794081f851ab546e7b12d40425ecbd004c24b4f97901ec13d335cb37b)]);\n        vk.gamma = Pairing.G2Point([uint256(0x14b3178b6f48c2d5ed825dd5fca853fec5155deda001ca7520ba1cb315014db8), uint256(0x2840fb55a8f2d80c5c16c4258fbbd7cf5526a80d264c1fa8ad778ef8c65954a0)], [uint256(0x18b08b3fa2e6be9f2da59155492c6ec8a6bb7fd35e2c3498fa5d244a8809042c), uint256(0x2d7ca6923359022ceabc8cc34f9191594363413b9c29269d3d95698c653f637a)]);\n        vk.delta = Pairing.G2Point([uint256(0x1d73a8b89eef993a52db1149768a8cb709ec7b0dbcb6f2443ccc61a4f4379033), uint256(0x2b5e7cd3b68c1ea0facb6b06f7067792c792e7055ecbc3dd0fa64eab7a32c8b0)], [uint256(0x0f587facfad3240307501fb092c8d6f6616058fd8c2c37b77606eeedc74143a8), uint256(0x2db9df5074db5299c6e965a55185ad315f1334d54a14c39da486151a22f4598a)]);\n        vk.gamma_abc = new Pairing.G1Point[](52);\n        vk.gamma_abc[0] = Pairing.G1Point(uint256(0x020dd35a52a98c3eb52efabd69019ae7e99b208f6d03030bc5adfbd25d928c45), uint256(0x0d19803fd262b3000d91c66a28264b6d72029c3bcd237628cbc0afb24e13105f));\n        vk.gamma_abc[1] = Pairing.G1Point(uint256(0x05bbbffcc3974d50caa9cdf5a5aaa56fec577c5e1d5af2d20718328082da8e56), uint256(0x03fdd236a681bef3ff224e2475e29df541ce50e2fb2e0339176967533a58c066));\n        vk.gamma_abc[2] = Pairing.G1Point(uint256(0x2be0f870b4d588934105eb474bcc8cdc612789298f6e46a5287863ff96593f23), uint256(0x25eaeea668322d932feaee991a7de2dea0edef185431a8af87f7fad0c072e806));\n        vk.gamma_abc[3] = Pairing.G1Point(uint256(0x28457c0350cc19feb66404d4d411d1ce63158d95cdbd7b21aa63cfae7ecd40c5), uint256(0x2abd1c98616800ca0b5f96e2eed30bc889fc1fd73258a4882194f8640ee48b9d));\n        vk.gamma_abc[4] = Pairing.G1Point(uint256(0x0d137ce8d9a2b5c26af81f977a1cf7a1d4db909b3a71df203ad7c5f66faef4c6), uint256(0x00fa2240a55a6c68d8aaadad1ab265d44333a908b7f41ffca29e08e425d7bc94));\n        vk.gamma_abc[5] = Pairing.G1Point(uint256(0x22e9b4189485d955ca8340f6efc46242d431bb4f3d1b79032dc9194c2ecb8890), uint256(0x1c241e8037b9fbc4852de813a33c99aec7dd3f2e9e83775a17e9c4c634ecb815));\n        vk.gamma_abc[6] = Pairing.G1Point(uint256(0x1aeb0dad0d37b9e3f3a31be4d3e2811019bf28eb9a3eab1d8fa192c29ae0f0a5), uint256(0x0d9ede01e0974b2ef222fe3bb4559a357cf64283f03589c5731704179799e391));\n        vk.gamma_abc[7] = Pairing.G1Point(uint256(0x24290dbaec9d3dfa22cf349309f823ae6064fc57d014e7bcddbe962794c7ea94), uint256(0x2ccdb477968a52b4c640aec9d311a40954a1d19bd0dd98c8fd19c69ee61b7402));\n        vk.gamma_abc[8] = Pairing.G1Point(uint256(0x1021046cd8401bbef3f49f6c267398bc5859bdb5d3764f78a83aef420d5a9890), uint256(0x03a3358b96b2a0e97839110b5f386dbb278e8f0f997f5cf9339fbd007f13d897));\n        vk.gamma_abc[9] = Pairing.G1Point(uint256(0x0a06afc1af6f719dd380173d0523d91aca4070633baac3bf103062acdf520bf1), uint256(0x2e7735a1f7790aefb3e85f23c82000cf3d792bf7668b899e1f55991270bc9583));\n        vk.gamma_abc[10] = Pairing.G1Point(uint256(0x0d33ee0d0e82a372861d6c96359ed7a62a7449d4bb24f62ad7acba33f896adbf), uint256(0x092729ef8405845e16e36710a9d8385dbd5a9b05be3cbc129abe585b3162766f));\n        vk.gamma_abc[11] = Pairing.G1Point(uint256(0x2495200a919c6e7ccad5fca29fdb0cbf37a9498cc69c5c8e6b726a425786a758), uint256(0x0cb265e93bd3da95097dde1f38640fa829fc03f4ff9fcca06389b4ef32fcaa18));\n        vk.gamma_abc[12] = Pairing.G1Point(uint256(0x1104371553254e47929fe212f65697ebd63595544666a59b9b3085c5170b3517), uint256(0x17a723f3f79ef508d17f1105f603e953dabbbc214a07ea6793aa32b2e984d5aa));\n        vk.gamma_abc[13] = Pairing.G1Point(uint256(0x1acf9cc232331075e2032eb34019c6dc6b62bc64d675145aecd2c19eeebeb7c4), uint256(0x024407d354a1ea81893bcd2c14e4d7d44cc5a200177a77a1ad3dd3773d9104af));\n        vk.gamma_abc[14] = Pairing.G1Point(uint256(0x13d6028d3db314a0b3b2c905e9a86dd70abdb5cf8dc41546442ab0a7e1229f94), uint256(0x105502aaffaa55bfe306d105178ac09a594e834a825928c7d55a2692c6d4e277));\n        vk.gamma_abc[15] = Pairing.G1Point(uint256(0x044e002e3bdb31b8ef305f864df043a6e7a7507635f13e28cc782d597d2e7894), uint256(0x12350f8ffa515b984a4001560b3f676f45540a71f5b607ef0101a4dfcabdcaf0));\n        vk.gamma_abc[16] = Pairing.G1Point(uint256(0x2236070c964542f87eb497d4454b4a6043aed7a23365519266584de32ff7df72), uint256(0x1536f1f2bdfb14997229751232b756418c56d41bb2bef7477e739f50e8fcf459));\n        vk.gamma_abc[17] = Pairing.G1Point(uint256(0x27306487092491d7f81246b8c4ef88d3d9bf9a14ca0096d95aafda09085e4540), uint256(0x21893d2c6dd2e4c330fcb05d1c50291399a3297b5c8d92d0bab460fa592d1753));\n        vk.gamma_abc[18] = Pairing.G1Point(uint256(0x10332d1815729c17b8f719bfae6ae97a7f48f140804ace7ca41e9e817d9c13ae), uint256(0x2990e38df6aadcf78fe374ed56a239c9ff62b04a576938190e0dae278d60939b));\n        vk.gamma_abc[19] = Pairing.G1Point(uint256(0x2b47e7a80deee7fa6a5a7bdf91b0687191656c747fe873f72a139cb17571b8e9), uint256(0x0ba81e32edb7147afad29c042b34c4846feb48ccc777a25015f7dd5f68b8d456));\n        vk.gamma_abc[20] = Pairing.G1Point(uint256(0x1f97d3e5796503da0aea4c1527cd13cf26b7bb9238d8c20b65506c5471ad2cae), uint256(0x02f467e0830fc04b347b2efae09f5467fee9f4e7407b6efc1882e53eb6f2fb67));\n        vk.gamma_abc[21] = Pairing.G1Point(uint256(0x0c33390157ff4574f399da32262d3c56d7a5a8b1f5a48a56ffc78befcf2fa62b), uint256(0x0de06ab601e44377133cdc2c8e8a67941e4cd45a794d58138d52e6a5cfa3b062));\n        vk.gamma_abc[22] = Pairing.G1Point(uint256(0x1027fa4252ab77e93224eba29b44566543285b8568aaa948f3482f827f5a4927), uint256(0x12ee01a0ff4129087a4bbf857aa3da67da0910417a1a7fbe078b9525953296f1));\n        vk.gamma_abc[23] = Pairing.G1Point(uint256(0x0cdc2e427b121297717ff214a295972de2ef6d1fce9221f6660873e3fda5ed1d), uint256(0x1f7cf55de250f325d2b49e798650c69f29566557b9fa3a1647b1aa1243a53b57));\n        vk.gamma_abc[24] = Pairing.G1Point(uint256(0x1d6f7e7614d58ea3e08f15cfdc9f5e8f66b45807182b9638fe2e84af1ecb0fa8), uint256(0x214e1d7b6ee8218b3806d2d18c90235d7150833d6fbfda7fd2a67e8368876fe7));\n        vk.gamma_abc[25] = Pairing.G1Point(uint256(0x2378c40e775af426229fc16f5347a314c528fb71996bc9c20008a82b778551bd), uint256(0x06f036eeb061e76eb8b40344f5ef7f5d5c4967da31c450d37fe4af6d6be03c43));\n        vk.gamma_abc[26] = Pairing.G1Point(uint256(0x0f9e3bddc5de53e2a35f6894dc97ef5a5a62c8b82be5dc18100d1bc8cb2fca7d), uint256(0x04f691f53d1fdeafdf490118b9f498e8ac4f5ac0c84b5d7245aee9904fe2a6bc));\n        vk.gamma_abc[27] = Pairing.G1Point(uint256(0x09201e247155f191e96ee201917122609ef4b615565a7da536f0e4febfea50d1), uint256(0x057589cdce6659360e347b209ccf99b5aafb36014e0956862e20e3df7155b4b0));\n        vk.gamma_abc[28] = Pairing.G1Point(uint256(0x1b108b40fb7d2422fd3aaee95a51011fee46de54e10de2a6e8f3d5902520a60c), uint256(0x071ef42a2f2fc2a5ddff78b7aa0e38af46649cbb512cbb365d3aac580fbdee0c));\n        vk.gamma_abc[29] = Pairing.G1Point(uint256(0x049f2058e407de6463472a4de94448198624dd9808598cb805ab86dfa60f3b7b), uint256(0x056a0cfc235dc494dfd0d589dd3f61ac17f615090a1dcfa980362058afe53f6c));\n        vk.gamma_abc[30] = Pairing.G1Point(uint256(0x2af0324978a494f6494699320fbf4d4dfa21127836bf85b3aed382c6a2732571), uint256(0x02c645bbf22a5ef46155d77dfd1a94e31d12d3aab961f4b4ad935d712d7da0cd));\n        vk.gamma_abc[31] = Pairing.G1Point(uint256(0x2b50e6c9cebd2d6ab8f5dd71af661277fdca7687d6981eb26742477696fd8a1a), uint256(0x0b232bd48cc7eb5b82e23ef8ef9b6593835affcdbf47009455c5d53908d037c4));\n        vk.gamma_abc[32] = Pairing.G1Point(uint256(0x2688d8f571365ddde076c15df79734305df770b3f58ece06cdbeef380a9a3f03), uint256(0x27cb630ae0c4b42e6b24ba2d2f05098a56aea08ba3a241f6649c876aa81ac050));\n        vk.gamma_abc[33] = Pairing.G1Point(uint256(0x095351dcf3408b426797489497b9d4ccdd15cc56a49b232fd0c14a9fa25af05f), uint256(0x22d48f590a800ab3286d011ee2f0e58d235ba10116845550ef79f9dae19ac2ca));\n        vk.gamma_abc[34] = Pairing.G1Point(uint256(0x2b3a7bd8e3799169e414de6761e340372497672f7e220a999ffe61de834d622a), uint256(0x0087d2cb4e3570bc86e027a3acd5cf75a5c3b56bd3408bba5e99a56c545a7e66));\n        vk.gamma_abc[35] = Pairing.G1Point(uint256(0x16dbfb84c1db0e48e9c32b2d6bc711b9432b78574694e9e5ec1095e452558652), uint256(0x293ea489cf6abdc6a3a6c3a036567fa15d13337a8119cb50735fe0ebc0758c0a));\n        vk.gamma_abc[36] = Pairing.G1Point(uint256(0x1f8ff4bb55f15eaebd891b351f75768e680efdaf63417dcfaa7477c746c780d6), uint256(0x1e3261fb3d3411f25d32d4012449224992c9ef6a879d97b43947765cb83fe22f));\n        vk.gamma_abc[37] = Pairing.G1Point(uint256(0x2b3fd5b94c35676c51122e5f8f075792c20dc673ccd20bd282e389df0b842a57), uint256(0x02c1d8c0a02485db4450c7ca2330745cb981cb7043745b8443d3807eb005acad));\n        vk.gamma_abc[38] = Pairing.G1Point(uint256(0x1718344fb824d587ace64b9271131c5bdf2f087eb5ad5dc6cacfe8281c76a24f), uint256(0x1d23676f73ff432ed8974c148f368d4414b9983b9644580af4b615deb8c0a8f7));\n        vk.gamma_abc[39] = Pairing.G1Point(uint256(0x1a94d7719ca8c1c399cc13bb828f43fac821ba19fb65a504d23882dabcc92b32), uint256(0x2bdf62902d748469ec79e180527e8280aea92f8e13ed2df3ba963751c82debd6));\n        vk.gamma_abc[40] = Pairing.G1Point(uint256(0x27a1f82f0e9e65aee0e1e5ab0be0eec1d9cb61012a0236b1982614ce68d9688c), uint256(0x1a376b601792d2b93e428854b69bb1875b434174e747d29633aafc39379076d3));\n        vk.gamma_abc[41] = Pairing.G1Point(uint256(0x209eedb4423f4f16bff5148cffde466375b6e7d71367bcc28362ef3c7ffc47d5), uint256(0x08c28b7c932d2f9699ee9adc9c623765294097de430c2987b8d7de565e279aba));\n        vk.gamma_abc[42] = Pairing.G1Point(uint256(0x16d383db5c33fdc5f5c3f7ea99e985a16c4e284bf7d8059e5878163e099ab037), uint256(0x07e025196e49d715f708aee207d2f524324a52e1e50aa07c63f343dfeb88fd46));\n        vk.gamma_abc[43] = Pairing.G1Point(uint256(0x04dc51787bbd24d00891321cc78c4735abc3cc9c3178426435533d7b2dfb07b0), uint256(0x2ed4e9cb67904ecf3268162f0b70acd1133274feceaa17a10553af1fb3258492));\n        vk.gamma_abc[44] = Pairing.G1Point(uint256(0x2b59c1408b113513f82a3eeed15946172e74e6dfdeb0b5a6275d8804f6a8c867), uint256(0x05a5ab42d20271b3e785af035508ba1ca274d9cd315827580b765b73f633e31f));\n        vk.gamma_abc[45] = Pairing.G1Point(uint256(0x1b28adedaa659462b47e9a8e5966f575b711a97b371669211cb20d6c66e56181), uint256(0x144b7938bf96b1473df67e67cc6cd0a90bcfc34ee8f2e4a95cff6b1d44a4577f));\n        vk.gamma_abc[46] = Pairing.G1Point(uint256(0x0663822e5aaf55ea23f8170fa9b37025379b98fd9410904ffce0ace15c40026f), uint256(0x0b8da81ad2b0074e5f1b9932d3e5c778ff0c54d60eb71cd5b7d1b16ef2b1d96e));\n        vk.gamma_abc[47] = Pairing.G1Point(uint256(0x13a3913c13908e82f4f6834c32450cf920d22de586d983c12b498ddd3c7e89de), uint256(0x2679b28b571453e5b726a32388fdd67aa06511b3038ae0a28e2949a38c0fdde2));\n        vk.gamma_abc[48] = Pairing.G1Point(uint256(0x1a435b9387deacbb4c7d1e6eec27451bcbdb5f7de44a6cdbbbfc4f4d2946baee), uint256(0x2393035359746610a0e5abeb8bdc1be3dfdc0c39fb83cf084cd544f38cce05c3));\n        vk.gamma_abc[49] = Pairing.G1Point(uint256(0x03faf1fd4ddbd817e7c8aa51396549672bd4931898d1eb1877832dc8593eac83), uint256(0x26b0850e5fa0e7000c1b4a9f33e2ce955b97ac985e4d68793cb43b5112f93e91));\n        vk.gamma_abc[50] = Pairing.G1Point(uint256(0x1f14ca2c3bb374f6a3ef621c8e59bd3dc6c4cbb000000b0de43f8035447a01fe), uint256(0x0092f7fad599d907361fcb11b044093faa60cba3dbc2daea72091777735e1ee2));\n        vk.gamma_abc[51] = Pairing.G1Point(uint256(0x1b9b405f3d1ee1417be36dfb2c60cd72272f2caf67c40fc15e9569bc30edc937), uint256(0x0cbe7a4459cfc4eb517693a3d7016f1b5fe3906960fe520286219d8c98544750));\n    }\n    function depositVerify(uint[] memory input, Proof memory proof) internal returns (uint) {\n        uint256 snark_scalar_field = 21888242871839275222246405745257275088548364400416034343698204186575808495617;\n        VerifyingKey memory vk = depositVerifyingKey();\n        require(input.length + 1 == vk.gamma_abc.length);\n        // Compute the linear combination vk_x\n        Pairing.G1Point memory vk_x = Pairing.G1Point(0, 0);\n        for (uint i = 0; i < input.length; i++) {\n            require(input[i] < snark_scalar_field);\n            vk_x = Pairing.addition(vk_x, Pairing.scalar_mul(vk.gamma_abc[i + 1], input[i]));\n        }\n        vk_x = Pairing.addition(vk_x, vk.gamma_abc[0]);\n        if(!Pairing.pairingProd4(\n             proof.a, proof.b,\n             Pairing.negate(vk_x), vk.gamma,\n             Pairing.negate(proof.c), vk.delta,\n             Pairing.negate(vk.a), vk.b)) return 1;\n        return 0;\n    }\n    event DepositVerified(string s);\n    function depositVerifyTx(\n            uint[2] memory a,\n            uint[2][2] memory b,\n            uint[2] memory c,\n            uint[51] memory input\n        ) public returns (bool r) {\n        Proof memory proof;\n        proof.a = Pairing.G1Point(a[0], a[1]);\n        proof.b = Pairing.G2Point([b[0][0], b[0][1]], [b[1][0], b[1][1]]);\n        proof.c = Pairing.G1Point(c[0], c[1]);\n        uint[] memory inputValues = new uint[](input.length);\n        for(uint i = 0; i < input.length; i++){\n            inputValues[i] = input[i];\n        }\n        if (depositVerify(inputValues, proof) == 0) {\n            emit DepositVerified(\"Transaction successfully verified.\");\n            return true;\n        } else {\n            return false;\n        }\n    }\n}\n",
  "sourcePath": "/home/boo/work/LightningZKP/contracts/verifiers/DepositNote10Verifier.sol",
  "compiler": {
    "name": "solc",
    "version": "0.5.2+commit.1df8f40c.Emscripten.clang"
  },
  "schemaVersion": "3.0.16",
  "updatedAt": "2019-10-17T05:04:40.813Z",
  "devdoc": {
    "methods": {}
  },
  "userdoc": {
    "methods": {}
  }
}