{
  "contractName": "LiquidateNotes",
  "abi": [
    {
      "constant": false,
      "inputs": [
        {
          "name": "a",
          "type": "uint256[2]"
        },
        {
          "name": "b",
          "type": "uint256[2][2]"
        },
        {
          "name": "c",
          "type": "uint256[2]"
        },
        {
          "name": "input",
          "type": "uint256[4]"
        }
      ],
      "name": "liquidateVerifyTx",
      "outputs": [
        {
          "name": "r",
          "type": "bool"
        }
      ],
      "payable": false,
      "stateMutability": "nonpayable",
      "type": "function"
    },
    {
      "constant": true,
      "inputs": [
        {
          "name": "",
          "type": "bytes32"
        }
      ],
      "name": "depositPools",
      "outputs": [
        {
          "name": "mpkAddress",
          "type": "address"
        },
        {
          "name": "targetAddress",
          "type": "address"
        },
        {
          "name": "expiredTime",
          "type": "uint256"
        },
        {
          "name": "maxNotesNum",
          "type": "uint8"
        },
        {
          "name": "lastNotesNum",
          "type": "uint8"
        }
      ],
      "payable": false,
      "stateMutability": "view",
      "type": "function"
    },
    {
      "constant": true,
      "inputs": [],
      "name": "stake",
      "outputs": [
        {
          "name": "",
          "type": "uint256"
        }
      ],
      "payable": false,
      "stateMutability": "view",
      "type": "function"
    },
    {
      "constant": true,
      "inputs": [],
      "name": "cooldown",
      "outputs": [
        {
          "name": "",
          "type": "uint256"
        }
      ],
      "payable": false,
      "stateMutability": "view",
      "type": "function"
    },
    {
      "constant": true,
      "inputs": [
        {
          "name": "",
          "type": "bytes32"
        }
      ],
      "name": "notes",
      "outputs": [
        {
          "name": "",
          "type": "uint8"
        }
      ],
      "payable": false,
      "stateMutability": "view",
      "type": "function"
    },
    {
      "constant": true,
      "inputs": [
        {
          "name": "",
          "type": "bytes32"
        }
      ],
      "name": "submissions",
      "outputs": [
        {
          "name": "submitter",
          "type": "address"
        },
        {
          "name": "sType",
          "type": "uint8"
        },
        {
          "name": "submittedAt",
          "type": "uint256"
        }
      ],
      "payable": false,
      "stateMutability": "view",
      "type": "function"
    },
    {
      "constant": true,
      "inputs": [],
      "name": "dai",
      "outputs": [
        {
          "name": "",
          "type": "address"
        }
      ],
      "payable": false,
      "stateMutability": "view",
      "type": "function"
    },
    {
      "anonymous": false,
      "inputs": [
        {
          "indexed": false,
          "name": "note",
          "type": "bytes32"
        },
        {
          "indexed": false,
          "name": "state",
          "type": "uint8"
        }
      ],
      "name": "NoteStateChange",
      "type": "event"
    },
    {
      "anonymous": false,
      "inputs": [
        {
          "indexed": false,
          "name": "submitter",
          "type": "address"
        },
        {
          "indexed": false,
          "name": "proofHash",
          "type": "bytes32"
        }
      ],
      "name": "Submitted",
      "type": "event"
    },
    {
      "anonymous": false,
      "inputs": [
        {
          "indexed": true,
          "name": "challenger",
          "type": "address"
        },
        {
          "indexed": false,
          "name": "proofHash",
          "type": "bytes32"
        }
      ],
      "name": "Challenged",
      "type": "event"
    },
    {
      "anonymous": false,
      "inputs": [
        {
          "indexed": false,
          "name": "s",
          "type": "string"
        }
      ],
      "name": "LiquidateVerified",
      "type": "event"
    }
  ],
  "bytecode": "0x608060405234801561001057600080fd5b50611661806100206000396000f3fe608060405234801561001057600080fd5b506004361061009a576000357c010000000000000000000000000000000000000000000000000000000090048063787a08a611610078578063787a08a6146102f857806385de26b714610316578063c5c9c0a214610366578063f4b9fa75146103f05761009a565b80631210c56d1461009f57806338cd8093146102185780633a4b66f1146102da575b600080fd5b6101fe60048036036101808110156100b657600080fd5b8101908080604001906002806020026040519081016040528092919082600260200280828437600081840152601f19601f82011690508083019250505050505091929192908060800190600280602002604051908101604052809291906000905b8282101561016b578382604002016002806020026040519081016040528092919082600260200280828437600081840152601f19601f82011690508083019250505050505081526020019060010190610117565b50505050919291929080604001906002806020026040519081016040528092919082600260200280828437600081840152601f19601f820116905080830192505050505050919291929080608001906004806020026040519081016040528092919082600460200280828437600081840152601f19601f820116905080830192505050505050919291929050505061043a565b604051808215151515815260200191505060405180910390f35b6102446004803603602081101561022e57600080fd5b810190808035906020019092919050505061069f565b604051808673ffffffffffffffffffffffffffffffffffffffff1673ffffffffffffffffffffffffffffffffffffffff1681526020018573ffffffffffffffffffffffffffffffffffffffff1673ffffffffffffffffffffffffffffffffffffffff1681526020018481526020018360ff1660ff1681526020018260ff1660ff1681526020019550505050505060405180910390f35b6102e261072f565b6040518082815260200191505060405180910390f35b610300610735565b6040518082815260200191505060405180910390f35b6103426004803603602081101561032c57600080fd5b810190808035906020019092919050505061073b565b6040518082600381111561035257fe5b60ff16815260200191505060405180910390f35b6103926004803603602081101561037c57600080fd5b810190808035906020019092919050505061075b565b604051808473ffffffffffffffffffffffffffffffffffffffff1673ffffffffffffffffffffffffffffffffffffffff1681526020018360048111156103d457fe5b60ff168152602001828152602001935050505060405180910390f35b6103f86107b2565b604051808273ffffffffffffffffffffffffffffffffffffffff1673ffffffffffffffffffffffffffffffffffffffff16815260200191505060405180910390f35b60006104446114af565b604080519081016040528087600060028110151561045e57fe5b6020020151815260200187600160028110151561047757fe5b60200201518152508160000181905250604080519081016040528060408051908101604052808860006002811015156104ac57fe5b602002015160006002811015156104bf57fe5b602002015181526020018860006002811015156104d857fe5b602002015160016002811015156104eb57fe5b60200201518152508152602001604080519081016040528088600160028110151561051257fe5b6020020151600060028110151561052557fe5b6020020151815260200188600160028110151561053e57fe5b6020020151600160028110151561055157fe5b60200201518152508152508160200181905250604080519081016040528085600060028110151561057e57fe5b6020020151815260200185600160028110151561059757fe5b60200201518152508160400181905250606060046040519080825280602002602001820160405280156105d95781602001602082028038833980820191505090505b50905060008090505b60048110156106275784816004811015156105f957fe5b6020020151828281518110151561060c57fe5b906020019060200201818152505080806001019150506105e2565b50600061063482846107d8565b1415610690577f46d48f0a138fd14dfc4a9086422b1a886a0f02eade5d6abef007754fe4b06bc06040518080602001828103825260228152602001806116146022913960400191505060405180910390a1600192505050610697565b6000925050505b949350505050565b60036020528060005260406000206000915090508060000160009054906101000a900473ffffffffffffffffffffffffffffffffffffffff16908060010160009054906101000a900473ffffffffffffffffffffffffffffffffffffffff16908060020154908060030160009054906101000a900460ff16908060030160019054906101000a900460ff16905085565b60015481565b60005481565b60056020528060005260406000206000915054906101000a900460ff1681565b60046020528060005260406000206000915090508060000160009054906101000a900473ffffffffffffffffffffffffffffffffffffffff16908060000160149054906101000a900460ff16908060010154905083565b600260009054906101000a900473ffffffffffffffffffffffffffffffffffffffff1681565b6000807f30644e72e131a029b85045b68181585d2833e84879b9709143e1f593f000000190506108066114e4565b61080e610960565b9050806080015151600186510114151561082757600080fd5b61082f61152d565b6040805190810160405280600081526020016000815250905060008090505b86518110156108d35783878281518110151561086657fe5b9060200190602002015110151561087c57600080fd5b6108c4826108bf85608001516001850181518110151561089857fe5b906020019060200201518a858151811015156108b057fe5b90602001906020020151610ea3565b610f3f565b9150808060010191505061084e565b506108fa81836080015160008151811015156108eb57fe5b90602001906020020151610f3f565b90506109408560000151866020015161091284610ffc565b85604001516109248a60400151610ffc565b87606001516109368960000151610ffc565b8960200151611098565b1515610952576001935050505061095a565b600093505050505b92915050565b6109686114e4565b60408051908101604052807f08e8fd47f4f47ca3bf35d3549cc9cbc9ee4980e7555623215f325533055db98481526020017effd309565aa419ab4d5b0b1356a42cbd79a90b7bf5842ec7d77fbc903ec48c8152508160000181905250604080519081016040528060408051908101604052807f191aea51714d75793ebce74e92140ff5b9a72b2b21db0e7d38a9a6f6ec561e2781526020017f125e351f64102e5ed7413e9e1ae39fcda03f94b4952ae5024c1a979032fe17a6815250815260200160408051908101604052807f2a38351dc02090cf4c992e0e79c380add7cf09e2efc156ec8638c44cb2659ae581526020017f2057aa937ac295a24afe5fe8f41bf3b726c1e9a747a3d82112eb6f21a7249e348152508152508160200181905250604080519081016040528060408051908101604052807f1596ddc83d27b9fc3e437ecfce0cfb1183aa2ec3218fe47b0dc87260e58cec0181526020017f1d1caa5d4c2f3eaf4e4a1c5834a843fa144f4ee7543144ab36cbed2d295b34b4815250815260200160408051908101604052807f082e72deb2bdb3f1c744d2faed40b40a8e0095857798f5271c975574e461682381526020017f22da6530029c6e8b34899b20fe962bcebae94f93f737268376261dd6710badc18152508152508160400181905250604080519081016040528060408051908101604052807f155465dc68c4a17a3844dca002ef1b0b361552491432dff1103ef28d66548afd81526020017f26a9b5195a4b0a709767168cfb17ffe6b006671136407b9291f20eab14133250815250815260200160408051908101604052807f15d2db06487070c5abfe868a56d6db291353a00e87a7649355e47cc04a72d94381526020017f2e8c476822f4f14713679e51ec81f3ecd7a4e058b0a8210792c16b9c5237de8981525081525081606001819052506005604051908082528060200260200182016040528015610c4e57816020015b610c3b611547565b815260200190600190039081610c335790505b50816080018190525060408051908101604052807f045a076654acaecf344e8d6baeac13d52868fc24c9b07a948630a01a0403307f81526020017f08781c8e5717b83d3841478ec85437ce512b9db47bc88e2d9deff51f4cc5233581525081608001516000815181101515610cbf57fe5b9060200190602002018190525060408051908101604052807f030852bafbd1dca04aa84803d07f6210ab89f1b76ddecc2f530fc5bdcd9115d281526020017f134807c24cc6469a59ce3ab93874d819f1e471f432bc0381ecede614c0dfc99981525081608001516001815181101515610d3457fe5b9060200190602002018190525060408051908101604052807f229b98cb8f8aeabfd356cd7bb196730fce607346d63bb1947fed7dabdcea5e7581526020017f1edebbc7d906f9fff4f4f68ac6830e02a8850468920c597e7d121b88f8cbc3df81525081608001516002815181101515610da957fe5b9060200190602002018190525060408051908101604052807f1396ecbae3a957f73a2becd5490d94ca78d8506c6970fb7c52b4245c3f66775481526020017f2667d1e395f4c72043b442b51ba566c5d690c7d4cf03f40f7ed37ae9f3b2e70e81525081608001516003815181101515610e1e57fe5b9060200190602002018190525060408051908101604052807f10dead365b530b87ec9aadc7ac7aa5dc2501f88a9c0dcac8f23290d6f087461281526020017f0ec800383d251bc69c0d9add8bd57daec637178b1a0663ef5b0362c545709c0b81525081608001516004815181101515610e9357fe5b9060200190602002018190525090565b610eab61152d565b610eb3611561565b8360000151816000600381101515610ec757fe5b6020020181815250508360200151816001600381101515610ee457fe5b60200201818152505082816002600381101515610efd57fe5b6020020181815250506000606083608084600060076107d05a03f190508060008114610f2857610f2a565bfe5b50801515610f3757600080fd5b505092915050565b610f4761152d565b610f4f611584565b8360000151816000600481101515610f6357fe5b6020020181815250508360200151816001600481101515610f8057fe5b6020020181815250508260000151816002600481101515610f9d57fe5b6020020181815250508260200151816003600481101515610fba57fe5b602002018181525050600060608360c084600060066107d05a03f190508060008114610fe557610fe7565bfe5b50801515610ff457600080fd5b505092915050565b61100461152d565b60007f30644e72e131a029b85045b68181585d97816a916871ca8d3c208c16d87cfd47905060008360000151148015611041575060008360200151145b15611065576040805190810160405280600081526020016000815250915050611093565b60408051908101604052808460000151815260200182856020015181151561108957fe5b0683038152509150505b919050565b6000606060046040519080825280602002602001820160405280156110d757816020015b6110c4611547565b8152602001906001900390816110bc5790505b5090506060600460405190808252806020026020018201604052801561111757816020015b6111046115a7565b8152602001906001900390816110fc5790505b5090508a82600081518110151561112a57fe5b906020019060200201819052508882600181518110151561114757fe5b906020019060200201819052508682600281518110151561116457fe5b906020019060200201819052508482600381518110151561118157fe5b906020019060200201819052508981600081518110151561119e57fe5b90602001906020020181905250878160018151811015156111bb57fe5b90602001906020020181905250858160028151811015156111d857fe5b90602001906020020181905250838160038151811015156111f557fe5b9060200190602002018190525061120c828261121c565b9250505098975050505050505050565b60008151835114151561122e57600080fd5b600083519050600060068202905060608160405190808252806020026020018201604052801561126d5781602001602082028038833980820191505090505b50905060008090505b8381101561144b57868181518110151561128c57fe5b906020019060200201516000015182600060068402018151811015156112ae57fe5b906020019060200201818152505086818151811015156112ca57fe5b906020019060200201516020015182600160068402018151811015156112ec57fe5b9060200190602002018181525050858181518110151561130857fe5b9060200190602002015160000151600060028110151561132457fe5b6020020151826002600684020181518110151561133d57fe5b9060200190602002018181525050858181518110151561135957fe5b9060200190602002015160000151600160028110151561137557fe5b6020020151826003600684020181518110151561138e57fe5b906020019060200201818152505085818151811015156113aa57fe5b906020019060200201516020015160006002811015156113c657fe5b602002015182600460068402018151811015156113df57fe5b906020019060200201818152505085818151811015156113fb57fe5b9060200190602002015160200151600160028110151561141757fe5b6020020151826005600684020181518110151561143057fe5b90602001906020020181815250508080600101915050611276565b506114546115ce565b60006020826020860260208601600060086107d05a03f19050806000811461147b5761147d565bfe5b5080151561148a57600080fd5b600082600060018110151561149b57fe5b602002015114159550505050505092915050565b610100604051908101604052806114c4611547565b81526020016114d16115a7565b81526020016114de611547565b81525090565b6101e0604051908101604052806114f9611547565b81526020016115066115a7565b81526020016115136115a7565b81526020016115206115a7565b8152602001606081525090565b604080519081016040528060008152602001600081525090565b604080519081016040528060008152602001600081525090565b606060405190810160405280600390602082028038833980820191505090505090565b608060405190810160405280600490602082028038833980820191505090505090565b6080604051908101604052806115bb6115f1565b81526020016115c86115f1565b81525090565b602060405190810160405280600190602082028038833980820191505090505090565b604080519081016040528060029060208202803883398082019150509050509056fe5472616e73616374696f6e207375636365737366756c6c792076657269666965642ea165627a7a72305820dd5d48c41418985c6a07e70eba762fa5569487be4dd1467732f77518402ee1b60029",
  "source": "pragma solidity ^0.5.2;\n\n//import {Verifier as LiquidateNoteVerifier} from \"./verifiers/LiquidateNoteVerifier.sol\";\nimport {Verifier as LiquidateNoteVerifier} from \"./verifiers/LiquidateNoteVerifier.sol\";\nimport \"./ZkDaiBase.sol\";\n\n\ncontract LiquidateNotes is LiquidateNoteVerifier, ZkDaiBase {\n  uint8 internal constant NUM_PUBLIC_INPUTS = 4;\n\n  /**\n  * @dev Hashes the submitted proof and adds it to the submissions mapping that tracks\n  *      submission time, type, public inputs of the zkSnark and the submitter\n  */\n  function submit(\n      address to,\n      uint256[2] memory a,\n      uint256[2][2] memory b,\n      uint256[2] memory c,\n      uint256[4] memory input)\n    internal\n  {\n      bytes32 proofHash = getProofHash(a, b, c);\n      uint256[] memory publicInput = new uint256[](NUM_PUBLIC_INPUTS + 1);\n      for(uint8 i = 0; i < NUM_PUBLIC_INPUTS; i++) {\n        publicInput[i] = input[i];\n      }\n      // last element is the beneficiary to whom the liquidated dai will be transferred\n      publicInput[NUM_PUBLIC_INPUTS] = uint256(to);\n      submissions[proofHash] = Submission(msg.sender, SubmissionType.Liquidate, now, publicInput);\n      emit Submitted(msg.sender, proofHash);\n  }\n\n  /**\n  * @dev Commits the proof i.e. Mints the note that originally came with the proof.\n  * @param proofHash Hash of the proof to be committed\n  */\n  function liquidateCommit(bytes32 proofHash)\n    internal\n  {\n      Submission storage submission = submissions[proofHash];\n      bytes32 note = calcNoteHash(submission.publicInput[0], submission.publicInput[1]);\n      require(notes[note] == State.Committed, \"Note is either invalid or already spent\");\n\n      notes[note] = State.Spent;\n\n      submission.submitter.transfer(stake);\n      address to = address(uint160(submission.publicInput[NUM_PUBLIC_INPUTS])); // see submit above\n      uint256 value = submission.publicInput[2];\n\n      delete submissions[proofHash];\n      require(\n        dai.transfer(to, value),\n        \"daiToken transfer failed\"\n      );\n      emit NoteStateChange(note, State.Spent);\n  }\n\n  /**\n  * @dev Challenge the proof for mint step\n  * @notice params: a, a_p, b, b_p, c, c_p, h, k zkSnark parameters of the challenged proof\n  * @param proofHash Hash of the proof\n  */\n  function challenge(\n      uint256[2] memory a,\n      uint256[2][2] memory b,\n      uint256[2] memory c,\n      bytes32 proofHash)\n    internal\n    {\n      Submission storage submission = submissions[proofHash];\n      uint256[NUM_PUBLIC_INPUTS] memory input;\n      for(uint i = 0; i < NUM_PUBLIC_INPUTS; i++) {\n        input[i] = submission.publicInput[i];\n      }\n      // zk circuit for mint and liquidate is same\n      if (!liquidateVerifyTx(a, b, c, input)) {\n        // challenge passed\n        delete submissions[proofHash];\n        msg.sender.transfer(stake);\n        emit Challenged(msg.sender, proofHash);\n      } else {\n        // challenge failed\n        liquidateCommit(proofHash);\n      }\n  }\n}\n",
  "sourcePath": "/home/boo/work/LightningZKP/contracts/LiquidateNotes.sol",
  "compiler": {
    "name": "solc",
    "version": "0.5.2+commit.1df8f40c.Emscripten.clang"
  },
  "schemaVersion": "3.0.11",
  "updatedAt": "2019-08-27T03:59:25.246Z",
  "devdoc": {
    "methods": {}
  },
  "userdoc": {
    "methods": {}
  }
}