{
  "contractName": "LiquidateNotes",
  "abi": [
    {
      "constant": false,
      "inputs": [
        {
          "name": "a",
          "type": "uint256[2]"
        },
        {
          "name": "b",
          "type": "uint256[2][2]"
        },
        {
          "name": "c",
          "type": "uint256[2]"
        },
        {
          "name": "input",
          "type": "uint256[4]"
        }
      ],
      "name": "liquidateVerifyTx",
      "outputs": [
        {
          "name": "r",
          "type": "bool"
        }
      ],
      "payable": false,
      "stateMutability": "nonpayable",
      "type": "function"
    },
    {
      "constant": true,
      "inputs": [
        {
          "name": "",
          "type": "bytes32"
        }
      ],
      "name": "depositPools",
      "outputs": [
        {
          "name": "mpkAddress",
          "type": "address"
        },
        {
          "name": "expiredTime",
          "type": "uint256"
        },
        {
          "name": "maxNotesNum",
          "type": "uint8"
        },
        {
          "name": "lastNotesNum",
          "type": "uint8"
        }
      ],
      "payable": false,
      "stateMutability": "view",
      "type": "function"
    },
    {
      "constant": true,
      "inputs": [],
      "name": "stake",
      "outputs": [
        {
          "name": "",
          "type": "uint256"
        }
      ],
      "payable": false,
      "stateMutability": "view",
      "type": "function"
    },
    {
      "constant": true,
      "inputs": [],
      "name": "cooldown",
      "outputs": [
        {
          "name": "",
          "type": "uint256"
        }
      ],
      "payable": false,
      "stateMutability": "view",
      "type": "function"
    },
    {
      "constant": true,
      "inputs": [
        {
          "name": "",
          "type": "bytes32"
        }
      ],
      "name": "notes",
      "outputs": [
        {
          "name": "",
          "type": "uint8"
        }
      ],
      "payable": false,
      "stateMutability": "view",
      "type": "function"
    },
    {
      "constant": true,
      "inputs": [
        {
          "name": "",
          "type": "bytes32"
        }
      ],
      "name": "submissions",
      "outputs": [
        {
          "name": "submitter",
          "type": "address"
        },
        {
          "name": "sType",
          "type": "uint8"
        },
        {
          "name": "submittedAt",
          "type": "uint256"
        }
      ],
      "payable": false,
      "stateMutability": "view",
      "type": "function"
    },
    {
      "constant": true,
      "inputs": [],
      "name": "dai",
      "outputs": [
        {
          "name": "",
          "type": "address"
        }
      ],
      "payable": false,
      "stateMutability": "view",
      "type": "function"
    },
    {
      "anonymous": false,
      "inputs": [
        {
          "indexed": false,
          "name": "note",
          "type": "bytes32"
        },
        {
          "indexed": false,
          "name": "state",
          "type": "uint8"
        }
      ],
      "name": "NoteStateChange",
      "type": "event"
    },
    {
      "anonymous": false,
      "inputs": [
        {
          "indexed": false,
          "name": "submitter",
          "type": "address"
        },
        {
          "indexed": false,
          "name": "proofHash",
          "type": "bytes32"
        }
      ],
      "name": "Submitted",
      "type": "event"
    },
    {
      "anonymous": false,
      "inputs": [
        {
          "indexed": false,
          "name": "mpkAddress",
          "type": "address"
        },
        {
          "indexed": false,
          "name": "poolId",
          "type": "bytes32"
        }
      ],
      "name": "Deposited",
      "type": "event"
    },
    {
      "anonymous": false,
      "inputs": [
        {
          "indexed": true,
          "name": "challenger",
          "type": "address"
        },
        {
          "indexed": false,
          "name": "proofHash",
          "type": "bytes32"
        }
      ],
      "name": "Challenged",
      "type": "event"
    },
    {
      "anonymous": false,
      "inputs": [
        {
          "indexed": false,
          "name": "s",
          "type": "string"
        }
      ],
      "name": "LiquidateVerified",
      "type": "event"
    }
  ],
  "bytecode": "0x608060405234801561001057600080fd5b50611608806100206000396000f3fe608060405234801561001057600080fd5b506004361061009a576000357c010000000000000000000000000000000000000000000000000000000090048063787a08a611610078578063787a08a6146102c557806385de26b7146102e3578063c5c9c0a214610333578063f4b9fa75146103bd5761009a565b80631210c56d1461009f57806338cd8093146102185780633a4b66f1146102a7575b600080fd5b6101fe60048036036101808110156100b657600080fd5b8101908080604001906002806020026040519081016040528092919082600260200280828437600081840152601f19601f82011690508083019250505050505091929192908060800190600280602002604051908101604052809291906000905b8282101561016b578382604002016002806020026040519081016040528092919082600260200280828437600081840152601f19601f82011690508083019250505050505081526020019060010190610117565b50505050919291929080604001906002806020026040519081016040528092919082600260200280828437600081840152601f19601f820116905080830192505050505050919291929080608001906004806020026040519081016040528092919082600460200280828437600081840152601f19601f8201169050808301925050505050509192919290505050610407565b604051808215151515815260200191505060405180910390f35b6102446004803603602081101561022e57600080fd5b810190808035906020019092919050505061066c565b604051808573ffffffffffffffffffffffffffffffffffffffff1673ffffffffffffffffffffffffffffffffffffffff1681526020018481526020018360ff1660ff1681526020018260ff1660ff16815260200194505050505060405180910390f35b6102af6106d6565b6040518082815260200191505060405180910390f35b6102cd6106dc565b6040518082815260200191505060405180910390f35b61030f600480360360208110156102f957600080fd5b81019080803590602001909291905050506106e2565b6040518082600381111561031f57fe5b60ff16815260200191505060405180910390f35b61035f6004803603602081101561034957600080fd5b8101908080359060200190929190505050610702565b604051808473ffffffffffffffffffffffffffffffffffffffff1673ffffffffffffffffffffffffffffffffffffffff1681526020018360048111156103a157fe5b60ff168152602001828152602001935050505060405180910390f35b6103c5610759565b604051808273ffffffffffffffffffffffffffffffffffffffff1673ffffffffffffffffffffffffffffffffffffffff16815260200191505060405180910390f35b6000610411611456565b604080519081016040528087600060028110151561042b57fe5b6020020151815260200187600160028110151561044457fe5b602002015181525081600001819052506040805190810160405280604080519081016040528088600060028110151561047957fe5b6020020151600060028110151561048c57fe5b602002015181526020018860006002811015156104a557fe5b602002015160016002811015156104b857fe5b6020020151815250815260200160408051908101604052808860016002811015156104df57fe5b602002015160006002811015156104f257fe5b6020020151815260200188600160028110151561050b57fe5b6020020151600160028110151561051e57fe5b60200201518152508152508160200181905250604080519081016040528085600060028110151561054b57fe5b6020020151815260200185600160028110151561056457fe5b60200201518152508160400181905250606060046040519080825280602002602001820160405280156105a65781602001602082028038833980820191505090505b50905060008090505b60048110156105f45784816004811015156105c657fe5b602002015182828151811015156105d957fe5b906020019060200201818152505080806001019150506105af565b506000610601828461077f565b141561065d577f46d48f0a138fd14dfc4a9086422b1a886a0f02eade5d6abef007754fe4b06bc06040518080602001828103825260228152602001806115bb6022913960400191505060405180910390a1600192505050610664565b6000925050505b949350505050565b60036020528060005260406000206000915090508060000160009054906101000a900473ffffffffffffffffffffffffffffffffffffffff16908060010154908060020160009054906101000a900460ff16908060020160019054906101000a900460ff16905084565b60015481565b60005481565b60056020528060005260406000206000915054906101000a900460ff1681565b60046020528060005260406000206000915090508060000160009054906101000a900473ffffffffffffffffffffffffffffffffffffffff16908060000160149054906101000a900460ff16908060010154905083565b600260009054906101000a900473ffffffffffffffffffffffffffffffffffffffff1681565b6000807f30644e72e131a029b85045b68181585d2833e84879b9709143e1f593f000000190506107ad61148b565b6107b5610907565b905080608001515160018651011415156107ce57600080fd5b6107d66114d4565b6040805190810160405280600081526020016000815250905060008090505b865181101561087a5783878281518110151561080d57fe5b9060200190602002015110151561082357600080fd5b61086b8261086685608001516001850181518110151561083f57fe5b906020019060200201518a8581518110151561085757fe5b90602001906020020151610e4a565b610ee6565b915080806001019150506107f5565b506108a1818360800151600081518110151561089257fe5b90602001906020020151610ee6565b90506108e7856000015186602001516108b984610fa3565b85604001516108cb8a60400151610fa3565b87606001516108dd8960000151610fa3565b896020015161103f565b15156108f95760019350505050610901565b600093505050505b92915050565b61090f61148b565b60408051908101604052807f08e8fd47f4f47ca3bf35d3549cc9cbc9ee4980e7555623215f325533055db98481526020017effd309565aa419ab4d5b0b1356a42cbd79a90b7bf5842ec7d77fbc903ec48c8152508160000181905250604080519081016040528060408051908101604052807f191aea51714d75793ebce74e92140ff5b9a72b2b21db0e7d38a9a6f6ec561e2781526020017f125e351f64102e5ed7413e9e1ae39fcda03f94b4952ae5024c1a979032fe17a6815250815260200160408051908101604052807f2a38351dc02090cf4c992e0e79c380add7cf09e2efc156ec8638c44cb2659ae581526020017f2057aa937ac295a24afe5fe8f41bf3b726c1e9a747a3d82112eb6f21a7249e348152508152508160200181905250604080519081016040528060408051908101604052807f1596ddc83d27b9fc3e437ecfce0cfb1183aa2ec3218fe47b0dc87260e58cec0181526020017f1d1caa5d4c2f3eaf4e4a1c5834a843fa144f4ee7543144ab36cbed2d295b34b4815250815260200160408051908101604052807f082e72deb2bdb3f1c744d2faed40b40a8e0095857798f5271c975574e461682381526020017f22da6530029c6e8b34899b20fe962bcebae94f93f737268376261dd6710badc18152508152508160400181905250604080519081016040528060408051908101604052807f155465dc68c4a17a3844dca002ef1b0b361552491432dff1103ef28d66548afd81526020017f26a9b5195a4b0a709767168cfb17ffe6b006671136407b9291f20eab14133250815250815260200160408051908101604052807f15d2db06487070c5abfe868a56d6db291353a00e87a7649355e47cc04a72d94381526020017f2e8c476822f4f14713679e51ec81f3ecd7a4e058b0a8210792c16b9c5237de8981525081525081606001819052506005604051908082528060200260200182016040528015610bf557816020015b610be26114ee565b815260200190600190039081610bda5790505b50816080018190525060408051908101604052807f045a076654acaecf344e8d6baeac13d52868fc24c9b07a948630a01a0403307f81526020017f08781c8e5717b83d3841478ec85437ce512b9db47bc88e2d9deff51f4cc5233581525081608001516000815181101515610c6657fe5b9060200190602002018190525060408051908101604052807f030852bafbd1dca04aa84803d07f6210ab89f1b76ddecc2f530fc5bdcd9115d281526020017f134807c24cc6469a59ce3ab93874d819f1e471f432bc0381ecede614c0dfc99981525081608001516001815181101515610cdb57fe5b9060200190602002018190525060408051908101604052807f229b98cb8f8aeabfd356cd7bb196730fce607346d63bb1947fed7dabdcea5e7581526020017f1edebbc7d906f9fff4f4f68ac6830e02a8850468920c597e7d121b88f8cbc3df81525081608001516002815181101515610d5057fe5b9060200190602002018190525060408051908101604052807f1396ecbae3a957f73a2becd5490d94ca78d8506c6970fb7c52b4245c3f66775481526020017f2667d1e395f4c72043b442b51ba566c5d690c7d4cf03f40f7ed37ae9f3b2e70e81525081608001516003815181101515610dc557fe5b9060200190602002018190525060408051908101604052807f10dead365b530b87ec9aadc7ac7aa5dc2501f88a9c0dcac8f23290d6f087461281526020017f0ec800383d251bc69c0d9add8bd57daec637178b1a0663ef5b0362c545709c0b81525081608001516004815181101515610e3a57fe5b9060200190602002018190525090565b610e526114d4565b610e5a611508565b8360000151816000600381101515610e6e57fe5b6020020181815250508360200151816001600381101515610e8b57fe5b60200201818152505082816002600381101515610ea457fe5b6020020181815250506000606083608084600060076107d05a03f190508060008114610ecf57610ed1565bfe5b50801515610ede57600080fd5b505092915050565b610eee6114d4565b610ef661152b565b8360000151816000600481101515610f0a57fe5b6020020181815250508360200151816001600481101515610f2757fe5b6020020181815250508260000151816002600481101515610f4457fe5b6020020181815250508260200151816003600481101515610f6157fe5b602002018181525050600060608360c084600060066107d05a03f190508060008114610f8c57610f8e565bfe5b50801515610f9b57600080fd5b505092915050565b610fab6114d4565b60007f30644e72e131a029b85045b68181585d97816a916871ca8d3c208c16d87cfd47905060008360000151148015610fe8575060008360200151145b1561100c57604080519081016040528060008152602001600081525091505061103a565b60408051908101604052808460000151815260200182856020015181151561103057fe5b0683038152509150505b919050565b60006060600460405190808252806020026020018201604052801561107e57816020015b61106b6114ee565b8152602001906001900390816110635790505b509050606060046040519080825280602002602001820160405280156110be57816020015b6110ab61154e565b8152602001906001900390816110a35790505b5090508a8260008151811015156110d157fe5b90602001906020020181905250888260018151811015156110ee57fe5b906020019060200201819052508682600281518110151561110b57fe5b906020019060200201819052508482600381518110151561112857fe5b906020019060200201819052508981600081518110151561114557fe5b906020019060200201819052508781600181518110151561116257fe5b906020019060200201819052508581600281518110151561117f57fe5b906020019060200201819052508381600381518110151561119c57fe5b906020019060200201819052506111b382826111c3565b9250505098975050505050505050565b6000815183511415156111d557600080fd5b60008351905060006006820290506060816040519080825280602002602001820160405280156112145781602001602082028038833980820191505090505b50905060008090505b838110156113f257868181518110151561123357fe5b9060200190602002015160000151826000600684020181518110151561125557fe5b9060200190602002018181525050868181518110151561127157fe5b9060200190602002015160200151826001600684020181518110151561129357fe5b906020019060200201818152505085818151811015156112af57fe5b906020019060200201516000015160006002811015156112cb57fe5b602002015182600260068402018151811015156112e457fe5b9060200190602002018181525050858181518110151561130057fe5b9060200190602002015160000151600160028110151561131c57fe5b6020020151826003600684020181518110151561133557fe5b9060200190602002018181525050858181518110151561135157fe5b9060200190602002015160200151600060028110151561136d57fe5b6020020151826004600684020181518110151561138657fe5b906020019060200201818152505085818151811015156113a257fe5b906020019060200201516020015160016002811015156113be57fe5b602002015182600560068402018151811015156113d757fe5b9060200190602002018181525050808060010191505061121d565b506113fb611575565b60006020826020860260208601600060086107d05a03f19050806000811461142257611424565bfe5b5080151561143157600080fd5b600082600060018110151561144257fe5b602002015114159550505050505092915050565b6101006040519081016040528061146b6114ee565b815260200161147861154e565b81526020016114856114ee565b81525090565b6101e0604051908101604052806114a06114ee565b81526020016114ad61154e565b81526020016114ba61154e565b81526020016114c761154e565b8152602001606081525090565b604080519081016040528060008152602001600081525090565b604080519081016040528060008152602001600081525090565b606060405190810160405280600390602082028038833980820191505090505090565b608060405190810160405280600490602082028038833980820191505090505090565b608060405190810160405280611562611598565b815260200161156f611598565b81525090565b602060405190810160405280600190602082028038833980820191505090505090565b604080519081016040528060029060208202803883398082019150509050509056fe5472616e73616374696f6e207375636365737366756c6c792076657269666965642ea165627a7a7230582027bfee38de2a0a929e5e11cbbe3a33d06385ba5b853e81904bfa8578fc8e35750029",
  "source": "pragma solidity ^0.5.2;\n\n//import {Verifier as LiquidateNoteVerifier} from \"./verifiers/LiquidateNoteVerifier.sol\";\nimport {Verifier as LiquidateNoteVerifier} from \"./verifiers/LiquidateNoteVerifier.sol\";\nimport \"./ZkDaiBase.sol\";\n\n\ncontract LiquidateNotes is LiquidateNoteVerifier, ZkDaiBase {\n  uint8 internal constant NUM_PUBLIC_INPUTS = 4;\n\n  /**\n  * @dev Hashes the submitted proof and adds it to the submissions mapping that tracks\n  *      submission time, type, public inputs of the zkSnark and the submitter\n  */\n  function submit(\n      address to,\n      uint256[2] memory a,\n      uint256[2][2] memory b,\n      uint256[2] memory c,\n      uint256[4] memory input)\n    internal\n  {\n      bytes32 proofHash = getProofHash(a, b, c);\n      uint256[] memory publicInput = new uint256[](NUM_PUBLIC_INPUTS + 1);\n      for(uint8 i = 0; i < NUM_PUBLIC_INPUTS; i++) {\n        publicInput[i] = input[i];\n      }\n      // last element is the beneficiary to whom the liquidated dai will be transferred\n      publicInput[NUM_PUBLIC_INPUTS] = uint256(to);\n      submissions[proofHash] = Submission(msg.sender, SubmissionType.Liquidate, now, publicInput);\n      emit Submitted(msg.sender, proofHash);\n  }\n\n  /**\n  * @dev Commits the proof i.e. Mints the note that originally came with the proof.\n  * @param proofHash Hash of the proof to be committed\n  */\n  function liquidateCommit(bytes32 proofHash)\n    internal\n  {\n      Submission storage submission = submissions[proofHash];\n      bytes32 note = calcNoteHash(submission.publicInput[0], submission.publicInput[1]);\n      require(notes[note] == State.Committed, \"Note is either invalid or already spent\");\n\n      notes[note] = State.Spent;\n\n      submission.submitter.transfer(stake);\n      address to = address(uint160(submission.publicInput[NUM_PUBLIC_INPUTS])); // see submit above\n      uint256 value = submission.publicInput[2];\n\n      delete submissions[proofHash];\n      require(\n        dai.transfer(to, value),\n        \"daiToken transfer failed\"\n      );\n      emit NoteStateChange(note, State.Spent);\n  }\n\n  /**\n  * @dev Challenge the proof for mint step\n  * @notice params: a, a_p, b, b_p, c, c_p, h, k zkSnark parameters of the challenged proof\n  * @param proofHash Hash of the proof\n  */\n  function challenge(\n      uint256[2] memory a,\n      uint256[2][2] memory b,\n      uint256[2] memory c,\n      bytes32 proofHash)\n    internal\n    {\n      Submission storage submission = submissions[proofHash];\n      uint256[NUM_PUBLIC_INPUTS] memory input;\n      for(uint i = 0; i < NUM_PUBLIC_INPUTS; i++) {\n        input[i] = submission.publicInput[i];\n      }\n      // zk circuit for mint and liquidate is same\n      if (!liquidateVerifyTx(a, b, c, input)) {\n        // challenge passed\n        delete submissions[proofHash];\n        msg.sender.transfer(stake);\n        emit Challenged(msg.sender, proofHash);\n      } else {\n        // challenge failed\n        liquidateCommit(proofHash);\n      }\n  }\n}\n",
  "sourcePath": "/home/boo/work/LightningZKP/contracts/LiquidateNotes.sol",
  "compiler": {
    "name": "solc",
    "version": "0.5.2+commit.1df8f40c.Emscripten.clang"
  },
  "schemaVersion": "3.0.16",
  "updatedAt": "2019-10-17T05:04:40.790Z",
  "devdoc": {
    "methods": {}
  },
  "userdoc": {
    "methods": {}
  }
}