{
  "contractName": "MintNotes",
  "abi": [
    {
      "constant": false,
      "inputs": [
        {
          "name": "a",
          "type": "uint256[2]"
        },
        {
          "name": "b",
          "type": "uint256[2][2]"
        },
        {
          "name": "c",
          "type": "uint256[2]"
        },
        {
          "name": "input",
          "type": "uint256[4]"
        }
      ],
      "name": "mintVerifyTx",
      "outputs": [
        {
          "name": "r",
          "type": "bool"
        }
      ],
      "payable": false,
      "stateMutability": "nonpayable",
      "type": "function"
    },
    {
      "constant": true,
      "inputs": [
        {
          "name": "",
          "type": "bytes32"
        }
      ],
      "name": "depositPools",
      "outputs": [
        {
          "name": "mpkAddress",
          "type": "address"
        },
        {
          "name": "expiredTime",
          "type": "uint256"
        },
        {
          "name": "maxNotesNum",
          "type": "uint8"
        },
        {
          "name": "lastNotesNum",
          "type": "uint8"
        }
      ],
      "payable": false,
      "stateMutability": "view",
      "type": "function"
    },
    {
      "constant": true,
      "inputs": [],
      "name": "stake",
      "outputs": [
        {
          "name": "",
          "type": "uint256"
        }
      ],
      "payable": false,
      "stateMutability": "view",
      "type": "function"
    },
    {
      "constant": true,
      "inputs": [],
      "name": "cooldown",
      "outputs": [
        {
          "name": "",
          "type": "uint256"
        }
      ],
      "payable": false,
      "stateMutability": "view",
      "type": "function"
    },
    {
      "constant": true,
      "inputs": [
        {
          "name": "",
          "type": "bytes32"
        }
      ],
      "name": "notes",
      "outputs": [
        {
          "name": "",
          "type": "uint8"
        }
      ],
      "payable": false,
      "stateMutability": "view",
      "type": "function"
    },
    {
      "constant": true,
      "inputs": [
        {
          "name": "",
          "type": "bytes32"
        }
      ],
      "name": "submissions",
      "outputs": [
        {
          "name": "submitter",
          "type": "address"
        },
        {
          "name": "sType",
          "type": "uint8"
        },
        {
          "name": "submittedAt",
          "type": "uint256"
        }
      ],
      "payable": false,
      "stateMutability": "view",
      "type": "function"
    },
    {
      "constant": true,
      "inputs": [],
      "name": "dai",
      "outputs": [
        {
          "name": "",
          "type": "address"
        }
      ],
      "payable": false,
      "stateMutability": "view",
      "type": "function"
    },
    {
      "anonymous": false,
      "inputs": [
        {
          "indexed": false,
          "name": "note",
          "type": "bytes32"
        },
        {
          "indexed": false,
          "name": "state",
          "type": "uint8"
        }
      ],
      "name": "NoteStateChange",
      "type": "event"
    },
    {
      "anonymous": false,
      "inputs": [
        {
          "indexed": false,
          "name": "submitter",
          "type": "address"
        },
        {
          "indexed": false,
          "name": "proofHash",
          "type": "bytes32"
        }
      ],
      "name": "Submitted",
      "type": "event"
    },
    {
      "anonymous": false,
      "inputs": [
        {
          "indexed": false,
          "name": "mpkAddress",
          "type": "address"
        },
        {
          "indexed": false,
          "name": "poolId",
          "type": "bytes32"
        }
      ],
      "name": "Deposited",
      "type": "event"
    },
    {
      "anonymous": false,
      "inputs": [
        {
          "indexed": true,
          "name": "challenger",
          "type": "address"
        },
        {
          "indexed": false,
          "name": "proofHash",
          "type": "bytes32"
        }
      ],
      "name": "Challenged",
      "type": "event"
    },
    {
      "anonymous": false,
      "inputs": [
        {
          "indexed": false,
          "name": "s",
          "type": "string"
        }
      ],
      "name": "MintVerified",
      "type": "event"
    }
  ],
  "bytecode": "0x608060405234801561001057600080fd5b50611609806100206000396000f3fe608060405234801561001057600080fd5b506004361061009a576000357c010000000000000000000000000000000000000000000000000000000090048063787a08a611610078578063787a08a6146102c557806385de26b7146102e3578063c5c9c0a214610333578063f4b9fa75146103bd5761009a565b80631fa41b3f1461009f57806338cd8093146102185780633a4b66f1146102a7575b600080fd5b6101fe60048036036101808110156100b657600080fd5b8101908080604001906002806020026040519081016040528092919082600260200280828437600081840152601f19601f82011690508083019250505050505091929192908060800190600280602002604051908101604052809291906000905b8282101561016b578382604002016002806020026040519081016040528092919082600260200280828437600081840152601f19601f82011690508083019250505050505081526020019060010190610117565b50505050919291929080604001906002806020026040519081016040528092919082600260200280828437600081840152601f19601f820116905080830192505050505050919291929080608001906004806020026040519081016040528092919082600460200280828437600081840152601f19601f8201169050808301925050505050509192919290505050610407565b604051808215151515815260200191505060405180910390f35b6102446004803603602081101561022e57600080fd5b810190808035906020019092919050505061066c565b604051808573ffffffffffffffffffffffffffffffffffffffff1673ffffffffffffffffffffffffffffffffffffffff1681526020018481526020018360ff1660ff1681526020018260ff1660ff16815260200194505050505060405180910390f35b6102af6106d6565b6040518082815260200191505060405180910390f35b6102cd6106dc565b6040518082815260200191505060405180910390f35b61030f600480360360208110156102f957600080fd5b81019080803590602001909291905050506106e2565b6040518082600381111561031f57fe5b60ff16815260200191505060405180910390f35b61035f6004803603602081101561034957600080fd5b8101908080359060200190929190505050610702565b604051808473ffffffffffffffffffffffffffffffffffffffff1673ffffffffffffffffffffffffffffffffffffffff1681526020018360048111156103a157fe5b60ff168152602001828152602001935050505060405180910390f35b6103c5610759565b604051808273ffffffffffffffffffffffffffffffffffffffff1673ffffffffffffffffffffffffffffffffffffffff16815260200191505060405180910390f35b6000610411611457565b604080519081016040528087600060028110151561042b57fe5b6020020151815260200187600160028110151561044457fe5b602002015181525081600001819052506040805190810160405280604080519081016040528088600060028110151561047957fe5b6020020151600060028110151561048c57fe5b602002015181526020018860006002811015156104a557fe5b602002015160016002811015156104b857fe5b6020020151815250815260200160408051908101604052808860016002811015156104df57fe5b602002015160006002811015156104f257fe5b6020020151815260200188600160028110151561050b57fe5b6020020151600160028110151561051e57fe5b60200201518152508152508160200181905250604080519081016040528085600060028110151561054b57fe5b6020020151815260200185600160028110151561056457fe5b60200201518152508160400181905250606060046040519080825280602002602001820160405280156105a65781602001602082028038833980820191505090505b50905060008090505b60048110156105f45784816004811015156105c657fe5b602002015182828151811015156105d957fe5b906020019060200201818152505080806001019150506105af565b506000610601828461077f565b141561065d577f2cef7d724e9df39531c164620567bd12bd8ca7b47fa53317f1078c2f2d5951ce6040518080602001828103825260228152602001806115bc6022913960400191505060405180910390a1600192505050610664565b6000925050505b949350505050565b60036020528060005260406000206000915090508060000160009054906101000a900473ffffffffffffffffffffffffffffffffffffffff16908060010154908060020160009054906101000a900460ff16908060020160019054906101000a900460ff16905084565b60015481565b60005481565b60056020528060005260406000206000915054906101000a900460ff1681565b60046020528060005260406000206000915090508060000160009054906101000a900473ffffffffffffffffffffffffffffffffffffffff16908060000160149054906101000a900460ff16908060010154905083565b600260009054906101000a900473ffffffffffffffffffffffffffffffffffffffff1681565b6000807f30644e72e131a029b85045b68181585d2833e84879b9709143e1f593f000000190506107ad61148c565b6107b5610907565b905080608001515160018651011415156107ce57600080fd5b6107d66114d5565b6040805190810160405280600081526020016000815250905060008090505b865181101561087a5783878281518110151561080d57fe5b9060200190602002015110151561082357600080fd5b61086b8261086685608001516001850181518110151561083f57fe5b906020019060200201518a8581518110151561085757fe5b90602001906020020151610e4b565b610ee7565b915080806001019150506107f5565b506108a1818360800151600081518110151561089257fe5b90602001906020020151610ee7565b90506108e7856000015186602001516108b984610fa4565b85604001516108cb8a60400151610fa4565b87606001516108dd8960000151610fa4565b8960200151611040565b15156108f95760019350505050610901565b600093505050505b92915050565b61090f61148c565b60408051908101604052807f08355b3d065dfbb9624e326a2e2f0f3f46d03c764e7bab886ac04b58baec76d381526020017f14e51c4e9d67b30020275a8894b33494a7576024fcfc936de1f41723b30715b88152508160000181905250604080519081016040528060408051908101604052807f188d28d2c16f59475d2a90c4d44b0d63c47ac7feae0c0629a555aa1ca452f96081526020017f28caa50da784de9e4f1db05209bb8c72a4717d1ccf36ebf424a11b843ea8a886815250815260200160408051908101604052807f116aeced947d887ed053c43508518bac9ed21ac5826ca5060d14836ca2519d1681526020017f2c807c4a7f6547e60dc22dd964e551e0f24f6e211d0e58d491c2d37a4b09d7588152508152508160200181905250604080519081016040528060408051908101604052807f1e4d559312520227259978c98eb176f77a7d9f47f0b5a180b4e6e43815c2a55f81526020017f19a2896bd3b81448b1c2ee880e3e54399251cadb755d16f73d6068c1e556c806815250815260200160408051908101604052807f21abc544c278d045e9aecefdab7de03ef6273b84c768b580f3c8dffb7a85f2cc81526020017f2c9db18636aef6434344db20a0919e32e35a73802b1bce6b3ba58daa2ac4c97b8152508152508160400181905250604080519081016040528060408051908101604052807f03c4184424abad74d268cf5f1f495a8c6dd42552cf4fb966e44519e82cea4c6b81526020017f2e9e290fc11abf4ee12f9ab4326b5fbe0cce3a7edf0873246d5e66dc8c4220a2815250815260200160408051908101604052807f1e6a295e147bf049331512ef9777e0258dd472db058f86e02428f9dee86d635b81526020017f033fbc383ba3cde056d766e7bcb402e33d8a51c435c2362a104ad762151c317181525081525081606001819052506005604051908082528060200260200182016040528015610bf657816020015b610be36114ef565b815260200190600190039081610bdb5790505b50816080018190525060408051908101604052807f23e75180d258bea032b2786ff65cfcc9fea0d3ec80d41ad0f8fcc00a9f7e99c981526020017f113ed1d5e901624d1bd2e35e50758dbec9585c9194ef0b02399d756ec3b4a2ba81525081608001516000815181101515610c6757fe5b9060200190602002018190525060408051908101604052807f02348e5e1cbfaffca63202016004f73c165e68d1eed2e4fa9920a1d4f9f71e9081526020017f148aa797000e24de203e4d261f82c0b650545d6ab33a1615a83ce7ad189520c481525081608001516001815181101515610cdc57fe5b9060200190602002018190525060408051908101604052807f010612dd2cbd547111aa3208cceb96c9f13e47bd9880855588b4b0b1dd46a7d281526020017f1a7308de25396b809c17bd3fa685c8b37d06e32c4a33a2d0fe99ab667225eb7881525081608001516002815181101515610d5157fe5b9060200190602002018190525060408051908101604052807f27ede1c53da903ee1576d254f167cb249efae8b703072a8652c63b2333dbc46181526020017f1c2afc39feb8aae5ddef07ac10c4b98045df0deabb745d6fa25066878719e1e981525081608001516003815181101515610dc657fe5b9060200190602002018190525060408051908101604052807f07be509466155d348e63a0d2822339cb798ecc0318be2c1fb41463fe6dd27da881526020017f27c3f27568ca1d1cb995e62a51425f7a91e341924a36373fc7610c8fda50156981525081608001516004815181101515610e3b57fe5b9060200190602002018190525090565b610e536114d5565b610e5b611509565b8360000151816000600381101515610e6f57fe5b6020020181815250508360200151816001600381101515610e8c57fe5b60200201818152505082816002600381101515610ea557fe5b6020020181815250506000606083608084600060076107d05a03f190508060008114610ed057610ed2565bfe5b50801515610edf57600080fd5b505092915050565b610eef6114d5565b610ef761152c565b8360000151816000600481101515610f0b57fe5b6020020181815250508360200151816001600481101515610f2857fe5b6020020181815250508260000151816002600481101515610f4557fe5b6020020181815250508260200151816003600481101515610f6257fe5b602002018181525050600060608360c084600060066107d05a03f190508060008114610f8d57610f8f565bfe5b50801515610f9c57600080fd5b505092915050565b610fac6114d5565b60007f30644e72e131a029b85045b68181585d97816a916871ca8d3c208c16d87cfd47905060008360000151148015610fe9575060008360200151145b1561100d57604080519081016040528060008152602001600081525091505061103b565b60408051908101604052808460000151815260200182856020015181151561103157fe5b0683038152509150505b919050565b60006060600460405190808252806020026020018201604052801561107f57816020015b61106c6114ef565b8152602001906001900390816110645790505b509050606060046040519080825280602002602001820160405280156110bf57816020015b6110ac61154f565b8152602001906001900390816110a45790505b5090508a8260008151811015156110d257fe5b90602001906020020181905250888260018151811015156110ef57fe5b906020019060200201819052508682600281518110151561110c57fe5b906020019060200201819052508482600381518110151561112957fe5b906020019060200201819052508981600081518110151561114657fe5b906020019060200201819052508781600181518110151561116357fe5b906020019060200201819052508581600281518110151561118057fe5b906020019060200201819052508381600381518110151561119d57fe5b906020019060200201819052506111b482826111c4565b9250505098975050505050505050565b6000815183511415156111d657600080fd5b60008351905060006006820290506060816040519080825280602002602001820160405280156112155781602001602082028038833980820191505090505b50905060008090505b838110156113f357868181518110151561123457fe5b9060200190602002015160000151826000600684020181518110151561125657fe5b9060200190602002018181525050868181518110151561127257fe5b9060200190602002015160200151826001600684020181518110151561129457fe5b906020019060200201818152505085818151811015156112b057fe5b906020019060200201516000015160006002811015156112cc57fe5b602002015182600260068402018151811015156112e557fe5b9060200190602002018181525050858181518110151561130157fe5b9060200190602002015160000151600160028110151561131d57fe5b6020020151826003600684020181518110151561133657fe5b9060200190602002018181525050858181518110151561135257fe5b9060200190602002015160200151600060028110151561136e57fe5b6020020151826004600684020181518110151561138757fe5b906020019060200201818152505085818151811015156113a357fe5b906020019060200201516020015160016002811015156113bf57fe5b602002015182600560068402018151811015156113d857fe5b9060200190602002018181525050808060010191505061121e565b506113fc611576565b60006020826020860260208601600060086107d05a03f19050806000811461142357611425565bfe5b5080151561143257600080fd5b600082600060018110151561144357fe5b602002015114159550505050505092915050565b6101006040519081016040528061146c6114ef565b815260200161147961154f565b81526020016114866114ef565b81525090565b6101e0604051908101604052806114a16114ef565b81526020016114ae61154f565b81526020016114bb61154f565b81526020016114c861154f565b8152602001606081525090565b604080519081016040528060008152602001600081525090565b604080519081016040528060008152602001600081525090565b606060405190810160405280600390602082028038833980820191505090505090565b608060405190810160405280600490602082028038833980820191505090505090565b608060405190810160405280611563611599565b8152602001611570611599565b81525090565b602060405190810160405280600190602082028038833980820191505090505090565b604080519081016040528060029060208202803883398082019150509050509056fe5472616e73616374696f6e207375636365737366756c6c792076657269666965642ea165627a7a723058202dd9a9005f1f4d3ef3ebdc2c33a0f7b2f47174c016392802928419b276780fb60029",
  "source": "pragma solidity ^0.5.2;\n\nimport {Verifier as MintNoteVerifier} from \"./verifiers/MintNoteVerifier.sol\";\nimport \"./ZkDaiBase.sol\";\n\n\ncontract MintNotes is MintNoteVerifier, ZkDaiBase {\n  uint8 internal constant NUM_PUBLIC_INPUTS = 4;\n\n  /**\n  * @dev Hashes the submitted proof and adds it to the submissions mapping that tracks\n  *      submission time, type, public inputs of the zkSnark and the submitter\n  */\n  function submit(\n      uint256[2] memory a,\n      uint256[2][2] memory b,\n      uint256[2] memory c,\n      uint256[4] memory input)\n    internal\n  {\n      bytes32 proofHash = getProofHash(a, b, c);\n      uint256[] memory publicInput = new uint256[](4);\n      for(uint8 i = 0; i < NUM_PUBLIC_INPUTS; i++) {\n        publicInput[i] = input[i];\n      }\n      submissions[proofHash] = Submission(msg.sender, SubmissionType.Mint, now, publicInput);\n      emit Submitted(msg.sender, proofHash);\n  }\n\n  /**\n  * @dev Commits the proof i.e. Mints the note that originally came with the proof.\n  * @param proofHash Hash of the proof to be committed\n  */\n  function mintCommit(bytes32 proofHash)\n    internal\n  {\n      Submission storage submission = submissions[proofHash];\n      // check that the first note (among public params) is not already minted\n      bytes32 note = calcNoteHash(submission.publicInput[0], submission.publicInput[1]);\n      require(notes[note] == State.Invalid, \"Note was already minted\");\n      notes[note] = State.Committed;\n\n      delete submissions[proofHash];\n      submission.submitter.transfer(stake);\n      emit NoteStateChange(note, State.Committed);\n  }\n\n  /**\n  * @dev Challenge the proof for mint step\n  * @notice params: a, a_p, b, b_p, c, c_p, h, k zkSnark parameters of the challenged proof\n  * @param proofHash Hash of the proof\n  */\n  function challenge(\n      uint256[2] memory a,\n      uint256[2][2] memory b,\n      uint256[2] memory c,\n      bytes32 proofHash)\n    internal\n  {\n      Submission storage submission = submissions[proofHash];\n      uint256[NUM_PUBLIC_INPUTS] memory input;\n      for(uint i = 0; i < NUM_PUBLIC_INPUTS; i++) {\n        input[i] = submission.publicInput[i];\n      }\n      if (!mintVerifyTx(a, b, c, input)) {\n        // challenge passed\n        delete submissions[proofHash];\n        msg.sender.transfer(stake);\n        emit Challenged(msg.sender, proofHash);\n      } else {\n        // challenge failed\n        mintCommit(proofHash);\n      }\n  }\n}\n",
  "sourcePath": "/home/boo/work/LightningZKP/contracts/MintNotes.sol",
  "compiler": {
    "name": "solc",
    "version": "0.5.2+commit.1df8f40c.Emscripten.clang"
  },
  "schemaVersion": "3.0.11",
  "updatedAt": "2019-09-24T08:04:21.084Z",
  "devdoc": {
    "methods": {}
  },
  "userdoc": {
    "methods": {}
  }
}