{
  "contractName": "MintNoteVerifier",
  "abi": [
    {
      "anonymous": false,
      "inputs": [
        {
          "indexed": false,
          "name": "s",
          "type": "string"
        }
      ],
      "name": "MintVerified",
      "type": "event"
    },
    {
      "constant": false,
      "inputs": [
        {
          "name": "a",
          "type": "uint256[2]"
        },
        {
          "name": "b",
          "type": "uint256[2][2]"
        },
        {
          "name": "c",
          "type": "uint256[2]"
        },
        {
          "name": "input",
          "type": "uint256[4]"
        }
      ],
      "name": "mintVerifyTx",
      "outputs": [
        {
          "name": "r",
          "type": "bool"
        }
      ],
      "payable": false,
      "stateMutability": "nonpayable",
      "type": "function"
    }
  ],
  "bytecode": "0x608060405234801561001057600080fd5b506112b4806100206000396000f3fe608060405234801561001057600080fd5b5060043610610048576000357c0100000000000000000000000000000000000000000000000000000000900480631fa41b3f1461004d575b600080fd5b6101ac600480360361018081101561006457600080fd5b8101908080604001906002806020026040519081016040528092919082600260200280828437600081840152601f19601f82011690508083019250505050505091929192908060800190600280602002604051908101604052809291906000905b82821015610119578382604002016002806020026040519081016040528092919082600260200280828437600081840152601f19601f820116905080830192505050505050815260200190600101906100c5565b50505050919291929080604001906002806020026040519081016040528092919082600260200280828437600081840152601f19601f820116905080830192505050505050919291929080608001906004806020026040519081016040528092919082600460200280828437600081840152601f19601f82011690508083019250505050505091929192905050506101c6565b604051808215151515815260200191505060405180910390f35b60006101d0611102565b60408051908101604052808760006002811015156101ea57fe5b6020020151815260200187600160028110151561020357fe5b602002015181525081600001819052506040805190810160405280604080519081016040528088600060028110151561023857fe5b6020020151600060028110151561024b57fe5b6020020151815260200188600060028110151561026457fe5b6020020151600160028110151561027757fe5b60200201518152508152602001604080519081016040528088600160028110151561029e57fe5b602002015160006002811015156102b157fe5b602002015181526020018860016002811015156102ca57fe5b602002015160016002811015156102dd57fe5b60200201518152508152508160200181905250604080519081016040528085600060028110151561030a57fe5b6020020151815260200185600160028110151561032357fe5b60200201518152508160400181905250606060046040519080825280602002602001820160405280156103655781602001602082028038833980820191505090505b50905060008090505b60048110156103b357848160048110151561038557fe5b6020020151828281518110151561039857fe5b9060200190602002018181525050808060010191505061036e565b5060006103c0828461042b565b141561041c577f2cef7d724e9df39531c164620567bd12bd8ca7b47fa53317f1078c2f2d5951ce6040518080602001828103825260228152602001806112676022913960400191505060405180910390a1600192505050610423565b6000925050505b949350505050565b6000807f30644e72e131a029b85045b68181585d2833e84879b9709143e1f593f00000019050610459611137565b6104616105b3565b9050806080015151600186510114151561047a57600080fd5b610482611180565b6040805190810160405280600081526020016000815250905060008090505b8651811015610526578387828151811015156104b957fe5b906020019060200201511015156104cf57600080fd5b610517826105128560800151600185018151811015156104eb57fe5b906020019060200201518a8581518110151561050357fe5b90602001906020020151610af6565b610b92565b915080806001019150506104a1565b5061054d818360800151600081518110151561053e57fe5b90602001906020020151610b92565b90506105938560000151866020015161056584610c4f565b85604001516105778a60400151610c4f565b87606001516105898960000151610c4f565b8960200151610ceb565b15156105a557600193505050506105ad565b600093505050505b92915050565b6105bb611137565b60408051908101604052807f1fae4ecd413ca1398b216c0c3d4735856768fe06050310f2b24e93846e01256281526020017f2ca7db4aa700b0377527eac1d88bf9a5f8f842284b9c17e1a676b56d98275caa8152508160000181905250604080519081016040528060408051908101604052807ec057ea8c869953cc2969c8f7e9e910e92cc18db1da482fc286a04a981f3fe681526020017f2e446ad64062d0493cf452d08f1e34a67c5b0601703c392fc784156c95a934e0815250815260200160408051908101604052807f1b239ecd6bdae68953141382d2ec8fc72f0e9e9cf11663e9007ea53f6394813f81526020017f19410ee6da4a8df22efd878cae356ed8698d51c33cdfffec08e0f9a6a44dbbad8152508152508160200181905250604080519081016040528060408051908101604052807f1dd0ecca1d7d5c5fbc7ae284e7839996f853a29973c9bd6479a55bbb2e95569981526020017f2110c0b3c7870541327a141bebb6378d4b18baf07e31691cec7c5a83b2f7c9fb815250815260200160408051908101604052807f05527ea33e439dd3140d729ee1400c1d4bec2952935778f5f7aa6ab3348962fe81526020017f2fc3dd960002b28734f0c4abc84f71016ba99630778d27329be0b0b48647cce98152508152508160400181905250604080519081016040528060408051908101604052807f2917a9b462f23932acfedabc068db254e740748740d56f25781fd19c4fd5822181526020017f21dde0660f0522d7e9c0be35e560d863f1817e7751a0957996f6118182b3f797815250815260200160408051908101604052807f1065a356807947b7501cbccfa75b48996889a00fe786acf3485b803c948f38bf81526020017f2911071bd56d7a39cde796146a347efe46b15b203d4880c51bde73503ef43055815250815250816060018190525060056040519080825280602002602001820160405280156108a157816020015b61088e61119a565b8152602001906001900390816108865790505b50816080018190525060408051908101604052807f2cc870366c1940584032f6b5d6611126aa4e0f959750075f3da187a359a86f7181526020017f2de9ff6fc1eb6a6509c4b49e200e3a34e701c47890235ce7aa38d49137cbe8b08152508160800151600081518110151561091257fe5b9060200190602002018190525060408051908101604052807f1b4a4e60b75d7b8e19f247e8ff8f598b853d1e3b8038158d59eeee4f433bbee881526020017f2ad88fd86e7b61b43116c6305146fa56cb95f90b46a37d1f5e3a6cb288868da58152508160800151600181518110151561098757fe5b9060200190602002018190525060408051908101604052807f09eef616aeeb3bf6fe6d17a1062adaa71dd6275d9f18e031ff0dd3d2fea46c3c81526020017f1d79ff41013568cc8d15a0d2af6f824d93bf5a53aac7d8e93bd838084196252a815250816080015160028151811015156109fc57fe5b9060200190602002018190525060408051908101604052807f18aac35ed4d8f4c829439fbd24fbff629e692081cacbb2a11706b8893e3acfb781526020017f0b0955aaaba3899cf0223ea2c9e5ce2348ab4b6908261023173d4b6ba90c563b81525081608001516003815181101515610a7157fe5b9060200190602002018190525060408051908101604052807f0995f21c52e7bbed05a4e7d0d2917337f459780582eec68c9c4ff4ebd1b0908881526020017f11b86f307ff2eabd60791c5ec3b9982103e1a192603c8fa2075b01db4544169281525081608001516004815181101515610ae657fe5b9060200190602002018190525090565b610afe611180565b610b066111b4565b8360000151816000600381101515610b1a57fe5b6020020181815250508360200151816001600381101515610b3757fe5b60200201818152505082816002600381101515610b5057fe5b6020020181815250506000606083608084600060076107d05a03f190508060008114610b7b57610b7d565bfe5b50801515610b8a57600080fd5b505092915050565b610b9a611180565b610ba26111d7565b8360000151816000600481101515610bb657fe5b6020020181815250508360200151816001600481101515610bd357fe5b6020020181815250508260000151816002600481101515610bf057fe5b6020020181815250508260200151816003600481101515610c0d57fe5b602002018181525050600060608360c084600060066107d05a03f190508060008114610c3857610c3a565bfe5b50801515610c4757600080fd5b505092915050565b610c57611180565b60007f30644e72e131a029b85045b68181585d97816a916871ca8d3c208c16d87cfd47905060008360000151148015610c94575060008360200151145b15610cb8576040805190810160405280600081526020016000815250915050610ce6565b604080519081016040528084600001518152602001828560200151811515610cdc57fe5b0683038152509150505b919050565b600060606004604051908082528060200260200182016040528015610d2a57816020015b610d1761119a565b815260200190600190039081610d0f5790505b50905060606004604051908082528060200260200182016040528015610d6a57816020015b610d576111fa565b815260200190600190039081610d4f5790505b5090508a826000815181101515610d7d57fe5b9060200190602002018190525088826001815181101515610d9a57fe5b9060200190602002018190525086826002815181101515610db757fe5b9060200190602002018190525084826003815181101515610dd457fe5b9060200190602002018190525089816000815181101515610df157fe5b9060200190602002018190525087816001815181101515610e0e57fe5b9060200190602002018190525085816002815181101515610e2b57fe5b9060200190602002018190525083816003815181101515610e4857fe5b90602001906020020181905250610e5f8282610e6f565b9250505098975050505050505050565b600081518351141515610e8157600080fd5b6000835190506000600682029050606081604051908082528060200260200182016040528015610ec05781602001602082028038833980820191505090505b50905060008090505b8381101561109e578681815181101515610edf57fe5b90602001906020020151600001518260006006840201815181101515610f0157fe5b90602001906020020181815250508681815181101515610f1d57fe5b90602001906020020151602001518260016006840201815181101515610f3f57fe5b90602001906020020181815250508581815181101515610f5b57fe5b90602001906020020151600001516000600281101515610f7757fe5b60200201518260026006840201815181101515610f9057fe5b90602001906020020181815250508581815181101515610fac57fe5b90602001906020020151600001516001600281101515610fc857fe5b60200201518260036006840201815181101515610fe157fe5b90602001906020020181815250508581815181101515610ffd57fe5b9060200190602002015160200151600060028110151561101957fe5b6020020151826004600684020181518110151561103257fe5b9060200190602002018181525050858181518110151561104e57fe5b9060200190602002015160200151600160028110151561106a57fe5b6020020151826005600684020181518110151561108357fe5b90602001906020020181815250508080600101915050610ec9565b506110a7611221565b60006020826020860260208601600060086107d05a03f1905080600081146110ce576110d0565bfe5b508015156110dd57600080fd5b60008260006001811015156110ee57fe5b602002015114159550505050505092915050565b6101006040519081016040528061111761119a565b81526020016111246111fa565b815260200161113161119a565b81525090565b6101e06040519081016040528061114c61119a565b81526020016111596111fa565b81526020016111666111fa565b81526020016111736111fa565b8152602001606081525090565b604080519081016040528060008152602001600081525090565b604080519081016040528060008152602001600081525090565b606060405190810160405280600390602082028038833980820191505090505090565b608060405190810160405280600490602082028038833980820191505090505090565b60806040519081016040528061120e611244565b815260200161121b611244565b81525090565b602060405190810160405280600190602082028038833980820191505090505090565b604080519081016040528060029060208202803883398082019150509050509056fe5472616e73616374696f6e207375636365737366756c6c792076657269666965642ea165627a7a723058205496d33c73dbcf73d6e2c73dd92f04db6078679d8bb208b03460fae015823a850029",
  "source": "pragma solidity ^0.5.2;\nimport \"./VerifierBase.sol\";\n\ncontract MintNoteVerifier is VerifierBase{\n\n    function mintVerifyingKey() pure internal returns (VerifyingKey memory vk) {\n        vk.a = Pairing.G1Point(uint256(0x1fae4ecd413ca1398b216c0c3d4735856768fe06050310f2b24e93846e012562), uint256(0x2ca7db4aa700b0377527eac1d88bf9a5f8f842284b9c17e1a676b56d98275caa));\n        vk.b = Pairing.G2Point([uint256(0x00c057ea8c869953cc2969c8f7e9e910e92cc18db1da482fc286a04a981f3fe6), uint256(0x2e446ad64062d0493cf452d08f1e34a67c5b0601703c392fc784156c95a934e0)], [uint256(0x1b239ecd6bdae68953141382d2ec8fc72f0e9e9cf11663e9007ea53f6394813f), uint256(0x19410ee6da4a8df22efd878cae356ed8698d51c33cdfffec08e0f9a6a44dbbad)]);\n        vk.gamma = Pairing.G2Point([uint256(0x1dd0ecca1d7d5c5fbc7ae284e7839996f853a29973c9bd6479a55bbb2e955699), uint256(0x2110c0b3c7870541327a141bebb6378d4b18baf07e31691cec7c5a83b2f7c9fb)], [uint256(0x05527ea33e439dd3140d729ee1400c1d4bec2952935778f5f7aa6ab3348962fe), uint256(0x2fc3dd960002b28734f0c4abc84f71016ba99630778d27329be0b0b48647cce9)]);\n        vk.delta = Pairing.G2Point([uint256(0x2917a9b462f23932acfedabc068db254e740748740d56f25781fd19c4fd58221), uint256(0x21dde0660f0522d7e9c0be35e560d863f1817e7751a0957996f6118182b3f797)], [uint256(0x1065a356807947b7501cbccfa75b48996889a00fe786acf3485b803c948f38bf), uint256(0x2911071bd56d7a39cde796146a347efe46b15b203d4880c51bde73503ef43055)]);\n        vk.gamma_abc = new Pairing.G1Point[](5);\n        vk.gamma_abc[0] = Pairing.G1Point(uint256(0x2cc870366c1940584032f6b5d6611126aa4e0f959750075f3da187a359a86f71), uint256(0x2de9ff6fc1eb6a6509c4b49e200e3a34e701c47890235ce7aa38d49137cbe8b0));\n        vk.gamma_abc[1] = Pairing.G1Point(uint256(0x1b4a4e60b75d7b8e19f247e8ff8f598b853d1e3b8038158d59eeee4f433bbee8), uint256(0x2ad88fd86e7b61b43116c6305146fa56cb95f90b46a37d1f5e3a6cb288868da5));\n        vk.gamma_abc[2] = Pairing.G1Point(uint256(0x09eef616aeeb3bf6fe6d17a1062adaa71dd6275d9f18e031ff0dd3d2fea46c3c), uint256(0x1d79ff41013568cc8d15a0d2af6f824d93bf5a53aac7d8e93bd838084196252a));\n        vk.gamma_abc[3] = Pairing.G1Point(uint256(0x18aac35ed4d8f4c829439fbd24fbff629e692081cacbb2a11706b8893e3acfb7), uint256(0x0b0955aaaba3899cf0223ea2c9e5ce2348ab4b6908261023173d4b6ba90c563b));\n        vk.gamma_abc[4] = Pairing.G1Point(uint256(0x0995f21c52e7bbed05a4e7d0d2917337f459780582eec68c9c4ff4ebd1b09088), uint256(0x11b86f307ff2eabd60791c5ec3b9982103e1a192603c8fa2075b01db45441692));\n    }\n    function mintVerify(uint[] memory input, Proof memory proof) internal returns (uint) {\n        uint256 snark_scalar_field = 21888242871839275222246405745257275088548364400416034343698204186575808495617;\n        VerifyingKey memory vk = mintVerifyingKey();\n        require(input.length + 1 == vk.gamma_abc.length);\n        // Compute the linear combination vk_x\n        Pairing.G1Point memory vk_x = Pairing.G1Point(0, 0);\n        for (uint i = 0; i < input.length; i++) {\n            require(input[i] < snark_scalar_field);\n            vk_x = Pairing.addition(vk_x, Pairing.scalar_mul(vk.gamma_abc[i + 1], input[i]));\n        }\n        vk_x = Pairing.addition(vk_x, vk.gamma_abc[0]);\n        if(!Pairing.pairingProd4(\n             proof.a, proof.b,\n             Pairing.negate(vk_x), vk.gamma,\n             Pairing.negate(proof.c), vk.delta,\n             Pairing.negate(vk.a), vk.b)) return 1;\n        return 0;\n    }\n    event MintVerified(string s);\n    function mintVerifyTx(\n            uint[2] memory a,\n            uint[2][2] memory b,\n            uint[2] memory c,\n            uint[4] memory input\n        ) public returns (bool r) {\n        Proof memory proof;\n        proof.a = Pairing.G1Point(a[0], a[1]);\n        proof.b = Pairing.G2Point([b[0][0], b[0][1]], [b[1][0], b[1][1]]);\n        proof.c = Pairing.G1Point(c[0], c[1]);\n        uint[] memory inputValues = new uint[](input.length);\n        for(uint i = 0; i < input.length; i++){\n            inputValues[i] = input[i];\n        }\n        if (mintVerify(inputValues, proof) == 0) {\n            emit MintVerified(\"Transaction successfully verified.\");\n            return true;\n        } else {\n            return false;\n        }\n    }\n}\n",
  "sourcePath": "/home/boo/work/LightningZKP/contracts/verifiers/MintNoteVerifier.sol",
  "compiler": {
    "name": "solc",
    "version": "0.5.2+commit.1df8f40c.Emscripten.clang"
  },
  "schemaVersion": "3.0.11",
  "updatedAt": "2019-10-15T14:10:28.884Z",
  "devdoc": {
    "methods": {}
  },
  "userdoc": {
    "methods": {}
  }
}