{
  "contractName": "MintNotes",
  "abi": [
    {
      "constant": false,
      "inputs": [
        {
          "name": "a",
          "type": "uint256[2]"
        },
        {
          "name": "b",
          "type": "uint256[2][2]"
        },
        {
          "name": "c",
          "type": "uint256[2]"
        },
        {
          "name": "input",
          "type": "uint256[4]"
        }
      ],
      "name": "verifyTx",
      "outputs": [
        {
          "name": "r",
          "type": "bool"
        }
      ],
      "payable": false,
      "stateMutability": "nonpayable",
      "type": "function"
    },
    {
      "constant": true,
      "inputs": [],
      "name": "stake",
      "outputs": [
        {
          "name": "",
          "type": "uint256"
        }
      ],
      "payable": false,
      "stateMutability": "view",
      "type": "function"
    },
    {
      "constant": true,
      "inputs": [],
      "name": "cooldown",
      "outputs": [
        {
          "name": "",
          "type": "uint256"
        }
      ],
      "payable": false,
      "stateMutability": "view",
      "type": "function"
    },
    {
      "constant": true,
      "inputs": [
        {
          "name": "",
          "type": "bytes32"
        }
      ],
      "name": "notes",
      "outputs": [
        {
          "name": "",
          "type": "uint8"
        }
      ],
      "payable": false,
      "stateMutability": "view",
      "type": "function"
    },
    {
      "constant": true,
      "inputs": [
        {
          "name": "",
          "type": "bytes32"
        }
      ],
      "name": "submissions",
      "outputs": [
        {
          "name": "submitter",
          "type": "address"
        },
        {
          "name": "sType",
          "type": "uint8"
        },
        {
          "name": "submittedAt",
          "type": "uint256"
        }
      ],
      "payable": false,
      "stateMutability": "view",
      "type": "function"
    },
    {
      "constant": true,
      "inputs": [],
      "name": "dai",
      "outputs": [
        {
          "name": "",
          "type": "address"
        }
      ],
      "payable": false,
      "stateMutability": "view",
      "type": "function"
    },
    {
      "anonymous": false,
      "inputs": [
        {
          "indexed": false,
          "name": "note",
          "type": "bytes32"
        },
        {
          "indexed": false,
          "name": "state",
          "type": "uint8"
        }
      ],
      "name": "NoteStateChange",
      "type": "event"
    },
    {
      "anonymous": false,
      "inputs": [
        {
          "indexed": false,
          "name": "submitter",
          "type": "address"
        },
        {
          "indexed": false,
          "name": "proofHash",
          "type": "bytes32"
        }
      ],
      "name": "Submitted",
      "type": "event"
    },
    {
      "anonymous": false,
      "inputs": [
        {
          "indexed": true,
          "name": "challenger",
          "type": "address"
        },
        {
          "indexed": false,
          "name": "proofHash",
          "type": "bytes32"
        }
      ],
      "name": "Challenged",
      "type": "event"
    },
    {
      "anonymous": false,
      "inputs": [
        {
          "indexed": false,
          "name": "s",
          "type": "string"
        }
      ],
      "name": "Verified",
      "type": "event"
    }
  ],
  "bytecode": "0x608060405234801561001057600080fd5b506114f4806100206000396000f3fe608060405234801561001057600080fd5b506004361061007f576000357c01000000000000000000000000000000000000000000000000000000009004806317de5836146100845780633a4b66f1146101fd578063787a08a61461021b57806385de26b714610239578063c5c9c0a214610289578063f4b9fa7514610313575b600080fd5b6101e3600480360361018081101561009b57600080fd5b8101908080604001906002806020026040519081016040528092919082600260200280828437600081840152601f19601f82011690508083019250505050505091929192908060800190600280602002604051908101604052809291906000905b82821015610150578382604002016002806020026040519081016040528092919082600260200280828437600081840152601f19601f820116905080830192505050505050815260200190600101906100fc565b50505050919291929080604001906002806020026040519081016040528092919082600260200280828437600081840152601f19601f820116905080830192505050505050919291929080608001906004806020026040519081016040528092919082600460200280828437600081840152601f19601f820116905080830192505050505050919291929050505061035d565b604051808215151515815260200191505060405180910390f35b6102056105c2565b6040518082815260200191505060405180910390f35b6102236105c8565b6040518082815260200191505060405180910390f35b6102656004803603602081101561024f57600080fd5b81019080803590602001909291905050506105ce565b6040518082600281111561027557fe5b60ff16815260200191505060405180910390f35b6102b56004803603602081101561029f57600080fd5b81019080803590602001909291905050506105ee565b604051808473ffffffffffffffffffffffffffffffffffffffff1673ffffffffffffffffffffffffffffffffffffffff1681526020018360038111156102f757fe5b60ff168152602001828152602001935050505060405180910390f35b61031b610645565b604051808273ffffffffffffffffffffffffffffffffffffffff1673ffffffffffffffffffffffffffffffffffffffff16815260200191505060405180910390f35b6000610367611342565b604080519081016040528087600060028110151561038157fe5b6020020151815260200187600160028110151561039a57fe5b60200201518152508160000181905250604080519081016040528060408051908101604052808860006002811015156103cf57fe5b602002015160006002811015156103e257fe5b602002015181526020018860006002811015156103fb57fe5b6020020151600160028110151561040e57fe5b60200201518152508152602001604080519081016040528088600160028110151561043557fe5b6020020151600060028110151561044857fe5b6020020151815260200188600160028110151561046157fe5b6020020151600160028110151561047457fe5b6020020151815250815250816020018190525060408051908101604052808560006002811015156104a157fe5b602002015181526020018560016002811015156104ba57fe5b60200201518152508160400181905250606060046040519080825280602002602001820160405280156104fc5781602001602082028038833980820191505090505b50905060008090505b600481101561054a57848160048110151561051c57fe5b6020020151828281518110151561052f57fe5b90602001906020020181815250508080600101915050610505565b506000610557828461066b565b14156105b3577f3f3cfdb26fb5f9f1786ab4f1a1f9cd4c0b5e726cbdfc26e495261731aad44e396040518080602001828103825260228152602001806114a76022913960400191505060405180910390a16001925050506105ba565b6000925050505b949350505050565b60015481565b60005481565b60046020528060005260406000206000915054906101000a900460ff1681565b60036020528060005260406000206000915090508060000160009054906101000a900473ffffffffffffffffffffffffffffffffffffffff16908060000160149054906101000a900460ff16908060010154905083565b600260009054906101000a900473ffffffffffffffffffffffffffffffffffffffff1681565b6000807f30644e72e131a029b85045b68181585d2833e84879b9709143e1f593f00000019050610699611377565b6106a16107f3565b905080608001515160018651011415156106ba57600080fd5b6106c26113c0565b6040805190810160405280600081526020016000815250905060008090505b8651811015610766578387828151811015156106f957fe5b9060200190602002015110151561070f57600080fd5b6107578261075285608001516001850181518110151561072b57fe5b906020019060200201518a8581518110151561074357fe5b90602001906020020151610d36565b610dd2565b915080806001019150506106e1565b5061078d818360800151600081518110151561077e57fe5b90602001906020020151610dd2565b90506107d3856000015186602001516107a584610e8f565b85604001516107b78a60400151610e8f565b87606001516107c98960000151610e8f565b8960200151610f2b565b15156107e557600193505050506107ed565b600093505050505b92915050565b6107fb611377565b60408051908101604052807f2d230435ed81e89d8e0a48208b7fcc9330775c37260245ebbf62b747ab3896b181526020017f27723277bbf42d9ff40ff2c7eca1318c09729cfe72d68a1ece45be7e7a91252e8152508160000181905250604080519081016040528060408051908101604052807f227b38a6274edac4ce1b114d38dff05f37a3f27d630f0659a916d2340986192481526020017f266f2a8ece7d869b125214fa02eeb37082b4cf1ff6cc3a21eeeefc287b3a89ba815250815260200160408051908101604052807f092103cce1d4e38aa89dd83a7fb490632fab17549e11458b3c78c5c498604a8c81526020017e4e93482d4333208b2455d0bdc57dcf08f56c94952acf0102e57cabe16330918152508152508160200181905250604080519081016040528060408051908101604052807f08fc13c656dbdd7eeaac226e82682b9e1dbc98042089d479cb24d98cf48f4cbf81526020017f195ec16c3c6581a4809bbf7c88e4293fb2a8ca075a708d583578d49363ebef9e815250815260200160408051908101604052807f1ef77e3ce1971994ee685b0d49658834358d8849762be160c11830c1a0c5892681526020017f28cca35656c2ba7ab4d94470df48b8ed6c337ae59a90c710f77ad4c421ec8bf08152508152508160400181905250604080519081016040528060408051908101604052807f02de3487c578091d38763c53b7a140c6aba4e26b9445055a890319d6ca0b39c181526020017f2a467f8c8afdf9dc7e29e706a92a743f23dfc2d2443834b63d91991c13131114815250815260200160408051908101604052807f0a0d152a3028b4c3ea719e856c541ed2666967c3d93fbacbf2f0ee69d96843bc81526020017f1edc8dd0b5afa5c2bd467f72bfcbb1cff2eb5eeb4ac1bdf65e4debfd10f437c781525081525081606001819052506005604051908082528060200260200182016040528015610ae157816020015b610ace6113da565b815260200190600190039081610ac65790505b50816080018190525060408051908101604052807f01d06e6803123241d6d5a86720bf67c05ae719e0da4ed2bb3245158939665b8581526020017f295e9ddd9ed93bcf546215fb99716454cb3e5457dc2eed299a309b13c03168b481525081608001516000815181101515610b5257fe5b9060200190602002018190525060408051908101604052807f179d3c0c35c9529e03dea9736a1003a5d7d47696a15f66b55efaa4fe252b9cf281526020017f10cbeda377e8d21311326fac86b119a7afd0ecd92a9008a8a6fb477f36e61fd581525081608001516001815181101515610bc757fe5b9060200190602002018190525060408051908101604052807f0a858384e95aac8721d737da3f82c4baa72de63c5f4d03947fe1cd496635d9a081526020017f2550920274f4b612b19b2b7e8515fee246930d8d915403da5ad6fb9fcc6b57ef81525081608001516002815181101515610c3c57fe5b9060200190602002018190525060408051908101604052807f0cc2dedee68da121243b09bdae6c7ef95e5570aa4151722157e8d90bcffdb0ca81526020017f0cdd0f9be81b131787ccb479894197f0949d1a30b92029242dd1f6bc6f9509c681525081608001516003815181101515610cb157fe5b9060200190602002018190525060408051908101604052807f0272500928eb81b401bb5a6ec03640fd5e0cd8a63f5eaec768bc7bf950ab4df481526020017f2ccff81ae6c5aad64bc96e30751d64e080c02a03c5cc2bba1c92d75366be99c881525081608001516004815181101515610d2657fe5b9060200190602002018190525090565b610d3e6113c0565b610d466113f4565b8360000151816000600381101515610d5a57fe5b6020020181815250508360200151816001600381101515610d7757fe5b60200201818152505082816002600381101515610d9057fe5b6020020181815250506000606083608084600060076107d05a03f190508060008114610dbb57610dbd565bfe5b50801515610dca57600080fd5b505092915050565b610dda6113c0565b610de2611417565b8360000151816000600481101515610df657fe5b6020020181815250508360200151816001600481101515610e1357fe5b6020020181815250508260000151816002600481101515610e3057fe5b6020020181815250508260200151816003600481101515610e4d57fe5b602002018181525050600060608360c084600060066107d05a03f190508060008114610e7857610e7a565bfe5b50801515610e8757600080fd5b505092915050565b610e976113c0565b60007f30644e72e131a029b85045b68181585d97816a916871ca8d3c208c16d87cfd47905060008360000151148015610ed4575060008360200151145b15610ef8576040805190810160405280600081526020016000815250915050610f26565b604080519081016040528084600001518152602001828560200151811515610f1c57fe5b0683038152509150505b919050565b600060606004604051908082528060200260200182016040528015610f6a57816020015b610f576113da565b815260200190600190039081610f4f5790505b50905060606004604051908082528060200260200182016040528015610faa57816020015b610f9761143a565b815260200190600190039081610f8f5790505b5090508a826000815181101515610fbd57fe5b9060200190602002018190525088826001815181101515610fda57fe5b9060200190602002018190525086826002815181101515610ff757fe5b906020019060200201819052508482600381518110151561101457fe5b906020019060200201819052508981600081518110151561103157fe5b906020019060200201819052508781600181518110151561104e57fe5b906020019060200201819052508581600281518110151561106b57fe5b906020019060200201819052508381600381518110151561108857fe5b9060200190602002018190525061109f82826110af565b9250505098975050505050505050565b6000815183511415156110c157600080fd5b60008351905060006006820290506060816040519080825280602002602001820160405280156111005781602001602082028038833980820191505090505b50905060008090505b838110156112de57868181518110151561111f57fe5b9060200190602002015160000151826000600684020181518110151561114157fe5b9060200190602002018181525050868181518110151561115d57fe5b9060200190602002015160200151826001600684020181518110151561117f57fe5b9060200190602002018181525050858181518110151561119b57fe5b906020019060200201516000015160006002811015156111b757fe5b602002015182600260068402018151811015156111d057fe5b906020019060200201818152505085818151811015156111ec57fe5b9060200190602002015160000151600160028110151561120857fe5b6020020151826003600684020181518110151561122157fe5b9060200190602002018181525050858181518110151561123d57fe5b9060200190602002015160200151600060028110151561125957fe5b6020020151826004600684020181518110151561127257fe5b9060200190602002018181525050858181518110151561128e57fe5b906020019060200201516020015160016002811015156112aa57fe5b602002015182600560068402018151811015156112c357fe5b90602001906020020181815250508080600101915050611109565b506112e7611461565b60006020826020860260208601600060086107d05a03f19050806000811461130e57611310565bfe5b5080151561131d57600080fd5b600082600060018110151561132e57fe5b602002015114159550505050505092915050565b610100604051908101604052806113576113da565b815260200161136461143a565b81526020016113716113da565b81525090565b6101e06040519081016040528061138c6113da565b815260200161139961143a565b81526020016113a661143a565b81526020016113b361143a565b8152602001606081525090565b604080519081016040528060008152602001600081525090565b604080519081016040528060008152602001600081525090565b606060405190810160405280600390602082028038833980820191505090505090565b608060405190810160405280600490602082028038833980820191505090505090565b60806040519081016040528061144e611484565b815260200161145b611484565b81525090565b602060405190810160405280600190602082028038833980820191505090505090565b604080519081016040528060029060208202803883398082019150509050509056fe5472616e73616374696f6e207375636365737366756c6c792076657269666965642ea165627a7a72305820c4f6968645619bd07a6ba25f8722e2d0db4c9c15f8eb68460d98bf0f1ab0b49d0029",
  "source": "pragma solidity ^0.5.2;\n\nimport {Verifier as MintNoteVerifier} from \"./verifiers/MintNoteVerifier.sol\";\nimport \"./ZkDaiBase.sol\";\n\n\ncontract MintNotes is MintNoteVerifier, ZkDaiBase {\n  uint8 internal constant NUM_PUBLIC_INPUTS = 4;\n\n  /**\n  * @dev Hashes the submitted proof and adds it to the submissions mapping that tracks\n  *      submission time, type, public inputs of the zkSnark and the submitter\n  */\n  function submit(\n      uint256[2] memory a,\n      uint256[2][2] memory b,\n      uint256[2] memory c,\n      uint256[4] memory input)\n    internal\n  {\n      bytes32 proofHash = getProofHash(a, b, c);\n      uint256[] memory publicInput = new uint256[](4);\n      for(uint8 i = 0; i < NUM_PUBLIC_INPUTS; i++) {\n        publicInput[i] = input[i];\n      }\n      submissions[proofHash] = Submission(msg.sender, SubmissionType.Mint, now, publicInput);\n      emit Submitted(msg.sender, proofHash);\n  }\n\n  /**\n  * @dev Commits the proof i.e. Mints the note that originally came with the proof.\n  * @param proofHash Hash of the proof to be committed\n  */\n  function mintCommit(bytes32 proofHash)\n    internal\n  {\n      Submission storage submission = submissions[proofHash];\n      // check that the first note (among public params) is not already minted\n      bytes32 note = calcNoteHash(submission.publicInput[0], submission.publicInput[1]);\n      require(notes[note] == State.Invalid, \"Note was already minted\");\n      notes[note] = State.Committed;\n\n      delete submissions[proofHash];\n      submission.submitter.transfer(stake);\n      emit NoteStateChange(note, State.Committed);\n  }\n\n  /**\n  * @dev Challenge the proof for mint step\n  * @notice params: a, a_p, b, b_p, c, c_p, h, k zkSnark parameters of the challenged proof\n  * @param proofHash Hash of the proof\n  */\n  function challenge(\n      uint256[2] memory a,\n      uint256[2][2] memory b,\n      uint256[2] memory c,\n      bytes32 proofHash)\n    internal\n  {\n      Submission storage submission = submissions[proofHash];\n      uint256[NUM_PUBLIC_INPUTS] memory input;\n      for(uint i = 0; i < NUM_PUBLIC_INPUTS; i++) {\n        input[i] = submission.publicInput[i];\n      }\n      if (!verifyTx(a, b, c, input)) {\n        // challenge passed\n        delete submissions[proofHash];\n        msg.sender.transfer(stake);\n        emit Challenged(msg.sender, proofHash);\n      } else {\n        // challenge failed\n        mintCommit(proofHash);\n      }\n  }\n}\n",
  "sourcePath": "/home/boo/work/LightningZKP/contracts/MintNotes.sol",
  "compiler": {
    "name": "solc",
    "version": "0.5.2+commit.1df8f40c.Emscripten.clang"
  },
  "schemaVersion": "3.0.11",
  "updatedAt": "2019-08-19T06:23:20.591Z",
  "devdoc": {
    "methods": {}
  },
  "userdoc": {
    "methods": {}
  }
}