{
  "contractName": "SpendNoteVerifier",
  "abi": [
    {
      "anonymous": false,
      "inputs": [
        {
          "indexed": false,
          "name": "s",
          "type": "string"
        }
      ],
      "name": "SpendVerified",
      "type": "event"
    },
    {
      "constant": false,
      "inputs": [
        {
          "name": "a",
          "type": "uint256[2]"
        },
        {
          "name": "b",
          "type": "uint256[2][2]"
        },
        {
          "name": "c",
          "type": "uint256[2]"
        },
        {
          "name": "input",
          "type": "uint256[7]"
        }
      ],
      "name": "spendVerifyTx",
      "outputs": [
        {
          "name": "r",
          "type": "bool"
        }
      ],
      "payable": false,
      "stateMutability": "nonpayable",
      "type": "function"
    }
  ],
  "bytecode": "0x608060405234801561001057600080fd5b50611414806100206000396000f3fe608060405234801561001057600080fd5b5060043610610048576000357c0100000000000000000000000000000000000000000000000000000000900480635c9985271461004d575b600080fd5b6101ac60048036036101e081101561006457600080fd5b8101908080604001906002806020026040519081016040528092919082600260200280828437600081840152601f19601f82011690508083019250505050505091929192908060800190600280602002604051908101604052809291906000905b82821015610119578382604002016002806020026040519081016040528092919082600260200280828437600081840152601f19601f820116905080830192505050505050815260200190600101906100c5565b50505050919291929080604001906002806020026040519081016040528092919082600260200280828437600081840152601f19601f82011690508083019250505050505091929192908060e001906007806020026040519081016040528092919082600760200280828437600081840152601f19601f82011690508083019250505050505091929192905050506101c6565b604051808215151515815260200191505060405180910390f35b60006101d0611262565b60408051908101604052808760006002811015156101ea57fe5b6020020151815260200187600160028110151561020357fe5b602002015181525081600001819052506040805190810160405280604080519081016040528088600060028110151561023857fe5b6020020151600060028110151561024b57fe5b6020020151815260200188600060028110151561026457fe5b6020020151600160028110151561027757fe5b60200201518152508152602001604080519081016040528088600160028110151561029e57fe5b602002015160006002811015156102b157fe5b602002015181526020018860016002811015156102ca57fe5b602002015160016002811015156102dd57fe5b60200201518152508152508160200181905250604080519081016040528085600060028110151561030a57fe5b6020020151815260200185600160028110151561032357fe5b60200201518152508160400181905250606060076040519080825280602002602001820160405280156103655781602001602082028038833980820191505090505b50905060008090505b60078110156103b357848160078110151561038557fe5b6020020151828281518110151561039857fe5b9060200190602002018181525050808060010191505061036e565b5060006103c0828461042b565b141561041c577ff6cb06d2e93a0bf2c44f15288883c84bd0564b45a72d58a8b0793915bd00eb1b6040518080602001828103825260228152602001806113c76022913960400191505060405180910390a1600192505050610423565b6000925050505b949350505050565b6000807f30644e72e131a029b85045b68181585d2833e84879b9709143e1f593f00000019050610459611297565b6104616105b3565b9050806080015151600186510114151561047a57600080fd5b6104826112e0565b6040805190810160405280600081526020016000815250905060008090505b8651811015610526578387828151811015156104b957fe5b906020019060200201511015156104cf57600080fd5b610517826105128560800151600185018151811015156104eb57fe5b906020019060200201518a8581518110151561050357fe5b90602001906020020151610c56565b610cf2565b915080806001019150506104a1565b5061054d818360800151600081518110151561053e57fe5b90602001906020020151610cf2565b90506105938560000151866020015161056584610daf565b85604001516105778a60400151610daf565b87606001516105898960000151610daf565b8960200151610e4b565b15156105a557600193505050506105ad565b600093505050505b92915050565b6105bb611297565b60408051908101604052807f20b9fe1ca62313774df900438fd3830e246107902a2d25369656534a12191bdc81526020017f10b7a6d819cde096987d519b596a3156e5a78318e2bdbe9dbe6366dbf4d55b768152508160000181905250604080519081016040528060408051908101604052807f2efb46a991d60da787a1e67b0e684b23d1b060147a0f6c231c9885abd96b575181526020017f2d4dd1a82076e9d0c35d37ffdfd4cf7a1d68c364e39e85a538c756a86e9401cb815250815260200160408051908101604052807f1a6fe1a2c4b41ee3b646e0c11ca310c4b4389f9fbd4e4d8358449cd9d9d54f3081526020017f1839a05a396824760a1882f5f9845778dc7812927875b820ba4233711dea10ee8152508152508160200181905250604080519081016040528060408051908101604052807f27707ecbc54bcc5218202d918fc336dc831e766a487b01b7b1b47d48fae0b31481526020017f1ed91b5ed9d9cdf33745ddf3383848f03439dfecb4072c025860bb86b49c7eac815250815260200160408051908101604052807f0dae9423db56e2eb98ca49367c96d51118c1a20ccd1f9212dace3ea26489d22281526020017f09d0d89c6939c46b6edf5987af235d9901842955073bc729eb5b17c3c20c18878152508152508160400181905250604080519081016040528060408051908101604052807f01853360cbc79d837411a425becb39c31ac7e3db09f1f68e70ba4ebdaaaf301481526020017f1a3feb40fac7e13d8c20eeb34fb528aa1e7bf0c86d5058f4761565ed640babea815250815260200160408051908101604052807f2811cd8e2ee06c4703a138671e85084f3bc04aeaaa6c8a68fdd0ce915af0a4f281526020017f20bab6a1af8a8a4472fb0797b91a733dad961d1a4842e692381a323b92b2afdd815250815250816060018190525060086040519080825280602002602001820160405280156108a257816020015b61088f6112fa565b8152602001906001900390816108875790505b50816080018190525060408051908101604052807f07150e206e48e70277361c823f8427faf72160487ce199ddb637dd80c9f6386d81526020017f01e6731c6c7f91a7b37723843b25ec2b34eeb48540692f603e93199c4bc4ad478152508160800151600081518110151561091357fe5b9060200190602002018190525060408051908101604052807f0a9b09eb8246f63a99e7932e76ec7e983404711b05542634128f7b661f72232781526020017f273f93d079666f85238bc1dbeb5b790d80100f07112c093a998d722f68de4f988152508160800151600181518110151561098857fe5b9060200190602002018190525060408051908101604052807f0bc83aa66ab8ac9a5a5a15884ea7a789c38a340627a0cf97aaf609702bdc80c381526020017f0ef40285974cfbbca1669eb7f483dd63718aa27ab0dcc336a2d2278b37b18149815250816080015160028151811015156109fd57fe5b9060200190602002018190525060408051908101604052807f08889543490ebe4a07289f5e4729376f18587426e54e775571d795781218955581526020017f20d71f616b80e28171d732a7e7d06ab3e4f18cca247ee3a87b73d2ad07bcf0f481525081608001516003815181101515610a7257fe5b9060200190602002018190525060408051908101604052807f114335c365bc16a23a120a9f6a26743e1c214bdb8f44e72eb05d0b84cb5cfc5981526020017f0f94323442d7ca9455d13a2ec88f05a283b694504d82edf5b42ebb166e9596f881525081608001516004815181101515610ae757fe5b9060200190602002018190525060408051908101604052807f1c7f95ee0a542f7f2cffe47dc8280c0796568f4c5262dd2ac52d51c6239bb13981526020017f2154556f2853b794b5cb1f91fb494db8c2e2a6f291e46643f64c5473a7b22e2f81525081608001516005815181101515610b5c57fe5b9060200190602002018190525060408051908101604052807f0e69ecc6fd75a0e6b7414a692b85ca49408ec59a46521675a0ee3c5c618da1c581526020017f13ecae5628e1dfcedefa9defe37e399b7aaf409ac31a8e53c670537e1644cb9581525081608001516006815181101515610bd157fe5b9060200190602002018190525060408051908101604052807f1bef81a94293577959b1571d755ba28f98524761e7433b39f121b200f1fac63d81526020017f249a736c17ba9ef08b27791d4b36898b0b6ffd8e57cf5f4c851f737a917a973581525081608001516007815181101515610c4657fe5b9060200190602002018190525090565b610c5e6112e0565b610c66611314565b8360000151816000600381101515610c7a57fe5b6020020181815250508360200151816001600381101515610c9757fe5b60200201818152505082816002600381101515610cb057fe5b6020020181815250506000606083608084600060076107d05a03f190508060008114610cdb57610cdd565bfe5b50801515610cea57600080fd5b505092915050565b610cfa6112e0565b610d02611337565b8360000151816000600481101515610d1657fe5b6020020181815250508360200151816001600481101515610d3357fe5b6020020181815250508260000151816002600481101515610d5057fe5b6020020181815250508260200151816003600481101515610d6d57fe5b602002018181525050600060608360c084600060066107d05a03f190508060008114610d9857610d9a565bfe5b50801515610da757600080fd5b505092915050565b610db76112e0565b60007f30644e72e131a029b85045b68181585d97816a916871ca8d3c208c16d87cfd47905060008360000151148015610df4575060008360200151145b15610e18576040805190810160405280600081526020016000815250915050610e46565b604080519081016040528084600001518152602001828560200151811515610e3c57fe5b0683038152509150505b919050565b600060606004604051908082528060200260200182016040528015610e8a57816020015b610e776112fa565b815260200190600190039081610e6f5790505b50905060606004604051908082528060200260200182016040528015610eca57816020015b610eb761135a565b815260200190600190039081610eaf5790505b5090508a826000815181101515610edd57fe5b9060200190602002018190525088826001815181101515610efa57fe5b9060200190602002018190525086826002815181101515610f1757fe5b9060200190602002018190525084826003815181101515610f3457fe5b9060200190602002018190525089816000815181101515610f5157fe5b9060200190602002018190525087816001815181101515610f6e57fe5b9060200190602002018190525085816002815181101515610f8b57fe5b9060200190602002018190525083816003815181101515610fa857fe5b90602001906020020181905250610fbf8282610fcf565b9250505098975050505050505050565b600081518351141515610fe157600080fd5b60008351905060006006820290506060816040519080825280602002602001820160405280156110205781602001602082028038833980820191505090505b50905060008090505b838110156111fe57868181518110151561103f57fe5b9060200190602002015160000151826000600684020181518110151561106157fe5b9060200190602002018181525050868181518110151561107d57fe5b9060200190602002015160200151826001600684020181518110151561109f57fe5b906020019060200201818152505085818151811015156110bb57fe5b906020019060200201516000015160006002811015156110d757fe5b602002015182600260068402018151811015156110f057fe5b9060200190602002018181525050858181518110151561110c57fe5b9060200190602002015160000151600160028110151561112857fe5b6020020151826003600684020181518110151561114157fe5b9060200190602002018181525050858181518110151561115d57fe5b9060200190602002015160200151600060028110151561117957fe5b6020020151826004600684020181518110151561119257fe5b906020019060200201818152505085818151811015156111ae57fe5b906020019060200201516020015160016002811015156111ca57fe5b602002015182600560068402018151811015156111e357fe5b90602001906020020181815250508080600101915050611029565b50611207611381565b60006020826020860260208601600060086107d05a03f19050806000811461122e57611230565bfe5b5080151561123d57600080fd5b600082600060018110151561124e57fe5b602002015114159550505050505092915050565b610100604051908101604052806112776112fa565b815260200161128461135a565b81526020016112916112fa565b81525090565b6101e0604051908101604052806112ac6112fa565b81526020016112b961135a565b81526020016112c661135a565b81526020016112d361135a565b8152602001606081525090565b604080519081016040528060008152602001600081525090565b604080519081016040528060008152602001600081525090565b606060405190810160405280600390602082028038833980820191505090505090565b608060405190810160405280600490602082028038833980820191505090505090565b60806040519081016040528061136e6113a4565b815260200161137b6113a4565b81525090565b602060405190810160405280600190602082028038833980820191505090505090565b604080519081016040528060029060208202803883398082019150509050509056fe5472616e73616374696f6e207375636365737366756c6c792076657269666965642ea165627a7a723058202baf6a7254f1353d3b3d3c3dfda337545e9d86314abc6b1f4275341f8f7be03b0029",
  "source": "pragma solidity ^0.5.2;\nimport \"./VerifierBase.sol\";\n\ncontract SpendNoteVerifier is VerifierBase {\n\n    function spendVerifyingKey() pure internal returns (VerifyingKey memory vk) {\n        vk.a = Pairing.G1Point(uint256(0x20b9fe1ca62313774df900438fd3830e246107902a2d25369656534a12191bdc), uint256(0x10b7a6d819cde096987d519b596a3156e5a78318e2bdbe9dbe6366dbf4d55b76));\n        vk.b = Pairing.G2Point([uint256(0x2efb46a991d60da787a1e67b0e684b23d1b060147a0f6c231c9885abd96b5751), uint256(0x2d4dd1a82076e9d0c35d37ffdfd4cf7a1d68c364e39e85a538c756a86e9401cb)], [uint256(0x1a6fe1a2c4b41ee3b646e0c11ca310c4b4389f9fbd4e4d8358449cd9d9d54f30), uint256(0x1839a05a396824760a1882f5f9845778dc7812927875b820ba4233711dea10ee)]);\n        vk.gamma = Pairing.G2Point([uint256(0x27707ecbc54bcc5218202d918fc336dc831e766a487b01b7b1b47d48fae0b314), uint256(0x1ed91b5ed9d9cdf33745ddf3383848f03439dfecb4072c025860bb86b49c7eac)], [uint256(0x0dae9423db56e2eb98ca49367c96d51118c1a20ccd1f9212dace3ea26489d222), uint256(0x09d0d89c6939c46b6edf5987af235d9901842955073bc729eb5b17c3c20c1887)]);\n        vk.delta = Pairing.G2Point([uint256(0x01853360cbc79d837411a425becb39c31ac7e3db09f1f68e70ba4ebdaaaf3014), uint256(0x1a3feb40fac7e13d8c20eeb34fb528aa1e7bf0c86d5058f4761565ed640babea)], [uint256(0x2811cd8e2ee06c4703a138671e85084f3bc04aeaaa6c8a68fdd0ce915af0a4f2), uint256(0x20bab6a1af8a8a4472fb0797b91a733dad961d1a4842e692381a323b92b2afdd)]);\n        vk.gamma_abc = new Pairing.G1Point[](8);\n        vk.gamma_abc[0] = Pairing.G1Point(uint256(0x07150e206e48e70277361c823f8427faf72160487ce199ddb637dd80c9f6386d), uint256(0x01e6731c6c7f91a7b37723843b25ec2b34eeb48540692f603e93199c4bc4ad47));\n        vk.gamma_abc[1] = Pairing.G1Point(uint256(0x0a9b09eb8246f63a99e7932e76ec7e983404711b05542634128f7b661f722327), uint256(0x273f93d079666f85238bc1dbeb5b790d80100f07112c093a998d722f68de4f98));\n        vk.gamma_abc[2] = Pairing.G1Point(uint256(0x0bc83aa66ab8ac9a5a5a15884ea7a789c38a340627a0cf97aaf609702bdc80c3), uint256(0x0ef40285974cfbbca1669eb7f483dd63718aa27ab0dcc336a2d2278b37b18149));\n        vk.gamma_abc[3] = Pairing.G1Point(uint256(0x08889543490ebe4a07289f5e4729376f18587426e54e775571d7957812189555), uint256(0x20d71f616b80e28171d732a7e7d06ab3e4f18cca247ee3a87b73d2ad07bcf0f4));\n        vk.gamma_abc[4] = Pairing.G1Point(uint256(0x114335c365bc16a23a120a9f6a26743e1c214bdb8f44e72eb05d0b84cb5cfc59), uint256(0x0f94323442d7ca9455d13a2ec88f05a283b694504d82edf5b42ebb166e9596f8));\n        vk.gamma_abc[5] = Pairing.G1Point(uint256(0x1c7f95ee0a542f7f2cffe47dc8280c0796568f4c5262dd2ac52d51c6239bb139), uint256(0x2154556f2853b794b5cb1f91fb494db8c2e2a6f291e46643f64c5473a7b22e2f));\n        vk.gamma_abc[6] = Pairing.G1Point(uint256(0x0e69ecc6fd75a0e6b7414a692b85ca49408ec59a46521675a0ee3c5c618da1c5), uint256(0x13ecae5628e1dfcedefa9defe37e399b7aaf409ac31a8e53c670537e1644cb95));\n        vk.gamma_abc[7] = Pairing.G1Point(uint256(0x1bef81a94293577959b1571d755ba28f98524761e7433b39f121b200f1fac63d), uint256(0x249a736c17ba9ef08b27791d4b36898b0b6ffd8e57cf5f4c851f737a917a9735));\n    }\n    function spendVerify(uint[] memory input, Proof memory proof) internal returns (uint) {\n        uint256 snark_scalar_field = 21888242871839275222246405745257275088548364400416034343698204186575808495617;\n        VerifyingKey memory vk = spendVerifyingKey();\n        require(input.length + 1 == vk.gamma_abc.length);\n        // Compute the linear combination vk_x\n        Pairing.G1Point memory vk_x = Pairing.G1Point(0, 0);\n        for (uint i = 0; i < input.length; i++) {\n            require(input[i] < snark_scalar_field);\n            vk_x = Pairing.addition(vk_x, Pairing.scalar_mul(vk.gamma_abc[i + 1], input[i]));\n        }\n        vk_x = Pairing.addition(vk_x, vk.gamma_abc[0]);\n        if(!Pairing.pairingProd4(\n             proof.a, proof.b,\n             Pairing.negate(vk_x), vk.gamma,\n             Pairing.negate(proof.c), vk.delta,\n             Pairing.negate(vk.a), vk.b)) return 1;\n        return 0;\n    }\n    event SpendVerified(string s);\n    function spendVerifyTx(\n            uint[2] memory a,\n            uint[2][2] memory b,\n            uint[2] memory c,\n            uint[7] memory input\n        ) public returns (bool r) {\n        Proof memory proof;\n        proof.a = Pairing.G1Point(a[0], a[1]);\n        proof.b = Pairing.G2Point([b[0][0], b[0][1]], [b[1][0], b[1][1]]);\n        proof.c = Pairing.G1Point(c[0], c[1]);\n        uint[] memory inputValues = new uint[](input.length);\n        for(uint i = 0; i < input.length; i++){\n            inputValues[i] = input[i];\n        }\n        if (spendVerify(inputValues, proof) == 0) {\n            emit SpendVerified(\"Transaction successfully verified.\");\n            return true;\n        } else {\n            return false;\n        }\n    }\n}\n",
  "sourcePath": "/home/boo/work/LightningZKP/contracts/verifiers/SpendNoteVerifier.sol",
  "compiler": {
    "name": "solc",
    "version": "0.5.2+commit.1df8f40c.Emscripten.clang"
  },
  "schemaVersion": "3.0.16",
  "updatedAt": "2019-10-16T17:12:19.178Z",
  "devdoc": {
    "methods": {}
  },
  "userdoc": {
    "methods": {}
  }
}