{
  "contractName": "SpendNotes",
  "abi": [
    {
      "constant": true,
      "inputs": [
        {
          "name": "",
          "type": "bytes32"
        }
      ],
      "name": "depositPools",
      "outputs": [
        {
          "name": "mpkAddress",
          "type": "address"
        },
        {
          "name": "expiredTime",
          "type": "uint256"
        },
        {
          "name": "maxNotesNum",
          "type": "uint8"
        },
        {
          "name": "lastNotesNum",
          "type": "uint8"
        }
      ],
      "payable": false,
      "stateMutability": "view",
      "type": "function"
    },
    {
      "constant": true,
      "inputs": [],
      "name": "stake",
      "outputs": [
        {
          "name": "",
          "type": "uint256"
        }
      ],
      "payable": false,
      "stateMutability": "view",
      "type": "function"
    },
    {
      "constant": false,
      "inputs": [
        {
          "name": "a",
          "type": "uint256[2]"
        },
        {
          "name": "b",
          "type": "uint256[2][2]"
        },
        {
          "name": "c",
          "type": "uint256[2]"
        },
        {
          "name": "input",
          "type": "uint256[7]"
        }
      ],
      "name": "spendVerifyTx",
      "outputs": [
        {
          "name": "r",
          "type": "bool"
        }
      ],
      "payable": false,
      "stateMutability": "nonpayable",
      "type": "function"
    },
    {
      "constant": true,
      "inputs": [],
      "name": "cooldown",
      "outputs": [
        {
          "name": "",
          "type": "uint256"
        }
      ],
      "payable": false,
      "stateMutability": "view",
      "type": "function"
    },
    {
      "constant": true,
      "inputs": [
        {
          "name": "",
          "type": "bytes32"
        }
      ],
      "name": "notes",
      "outputs": [
        {
          "name": "",
          "type": "uint8"
        }
      ],
      "payable": false,
      "stateMutability": "view",
      "type": "function"
    },
    {
      "constant": true,
      "inputs": [
        {
          "name": "",
          "type": "bytes32"
        }
      ],
      "name": "submissions",
      "outputs": [
        {
          "name": "submitter",
          "type": "address"
        },
        {
          "name": "sType",
          "type": "uint8"
        },
        {
          "name": "submittedAt",
          "type": "uint256"
        }
      ],
      "payable": false,
      "stateMutability": "view",
      "type": "function"
    },
    {
      "constant": true,
      "inputs": [],
      "name": "dai",
      "outputs": [
        {
          "name": "",
          "type": "address"
        }
      ],
      "payable": false,
      "stateMutability": "view",
      "type": "function"
    },
    {
      "anonymous": false,
      "inputs": [
        {
          "indexed": false,
          "name": "note",
          "type": "bytes32"
        },
        {
          "indexed": false,
          "name": "state",
          "type": "uint8"
        }
      ],
      "name": "NoteStateChange",
      "type": "event"
    },
    {
      "anonymous": false,
      "inputs": [
        {
          "indexed": false,
          "name": "submitter",
          "type": "address"
        },
        {
          "indexed": false,
          "name": "proofHash",
          "type": "bytes32"
        }
      ],
      "name": "Submitted",
      "type": "event"
    },
    {
      "anonymous": false,
      "inputs": [
        {
          "indexed": false,
          "name": "mpkAddress",
          "type": "address"
        },
        {
          "indexed": false,
          "name": "poolId",
          "type": "bytes32"
        }
      ],
      "name": "Deposited",
      "type": "event"
    },
    {
      "anonymous": false,
      "inputs": [
        {
          "indexed": true,
          "name": "challenger",
          "type": "address"
        },
        {
          "indexed": false,
          "name": "proofHash",
          "type": "bytes32"
        }
      ],
      "name": "Challenged",
      "type": "event"
    },
    {
      "anonymous": false,
      "inputs": [
        {
          "indexed": false,
          "name": "s",
          "type": "string"
        }
      ],
      "name": "SpendVerified",
      "type": "event"
    }
  ],
  "bytecode": "0x608060405234801561001057600080fd5b50611768806100206000396000f3fe608060405234801561001057600080fd5b506004361061009a576000357c010000000000000000000000000000000000000000000000000000000090048063787a08a611610078578063787a08a6146102c557806385de26b7146102e3578063c5c9c0a214610333578063f4b9fa75146103bd5761009a565b806338cd80931461009f5780633a4b66f11461012e5780635c9985271461014c575b600080fd5b6100cb600480360360208110156100b557600080fd5b8101908080359060200190929190505050610407565b604051808573ffffffffffffffffffffffffffffffffffffffff1673ffffffffffffffffffffffffffffffffffffffff1681526020018481526020018360ff1660ff1681526020018260ff1660ff16815260200194505050505060405180910390f35b610136610471565b6040518082815260200191505060405180910390f35b6102ab60048036036101e081101561016357600080fd5b8101908080604001906002806020026040519081016040528092919082600260200280828437600081840152601f19601f82011690508083019250505050505091929192908060800190600280602002604051908101604052809291906000905b82821015610218578382604002016002806020026040519081016040528092919082600260200280828437600081840152601f19601f820116905080830192505050505050815260200190600101906101c4565b50505050919291929080604001906002806020026040519081016040528092919082600260200280828437600081840152601f19601f82011690508083019250505050505091929192908060e001906007806020026040519081016040528092919082600760200280828437600081840152601f19601f8201169050808301925050505050509192919290505050610477565b604051808215151515815260200191505060405180910390f35b6102cd6106dc565b6040518082815260200191505060405180910390f35b61030f600480360360208110156102f957600080fd5b81019080803590602001909291905050506106e2565b6040518082600381111561031f57fe5b60ff16815260200191505060405180910390f35b61035f6004803603602081101561034957600080fd5b8101908080359060200190929190505050610702565b604051808473ffffffffffffffffffffffffffffffffffffffff1673ffffffffffffffffffffffffffffffffffffffff1681526020018360048111156103a157fe5b60ff168152602001828152602001935050505060405180910390f35b6103c5610759565b604051808273ffffffffffffffffffffffffffffffffffffffff1673ffffffffffffffffffffffffffffffffffffffff16815260200191505060405180910390f35b60036020528060005260406000206000915090508060000160009054906101000a900473ffffffffffffffffffffffffffffffffffffffff16908060010154908060020160009054906101000a900460ff16908060020160019054906101000a900460ff16905084565b60015481565b60006104816115b6565b604080519081016040528087600060028110151561049b57fe5b602002015181526020018760016002811015156104b457fe5b60200201518152508160000181905250604080519081016040528060408051908101604052808860006002811015156104e957fe5b602002015160006002811015156104fc57fe5b6020020151815260200188600060028110151561051557fe5b6020020151600160028110151561052857fe5b60200201518152508152602001604080519081016040528088600160028110151561054f57fe5b6020020151600060028110151561056257fe5b6020020151815260200188600160028110151561057b57fe5b6020020151600160028110151561058e57fe5b6020020151815250815250816020018190525060408051908101604052808560006002811015156105bb57fe5b602002015181526020018560016002811015156105d457fe5b60200201518152508160400181905250606060076040519080825280602002602001820160405280156106165781602001602082028038833980820191505090505b50905060008090505b600781101561066457848160078110151561063657fe5b6020020151828281518110151561064957fe5b9060200190602002018181525050808060010191505061061f565b506000610671828461077f565b14156106cd577ff6cb06d2e93a0bf2c44f15288883c84bd0564b45a72d58a8b0793915bd00eb1b60405180806020018281038252602281526020018061171b6022913960400191505060405180910390a16001925050506106d4565b6000925050505b949350505050565b60005481565b60056020528060005260406000206000915054906101000a900460ff1681565b60046020528060005260406000206000915090508060000160009054906101000a900473ffffffffffffffffffffffffffffffffffffffff16908060000160149054906101000a900460ff16908060010154905083565b600260009054906101000a900473ffffffffffffffffffffffffffffffffffffffff1681565b6000807f30644e72e131a029b85045b68181585d2833e84879b9709143e1f593f000000190506107ad6115eb565b6107b5610907565b905080608001515160018651011415156107ce57600080fd5b6107d6611634565b6040805190810160405280600081526020016000815250905060008090505b865181101561087a5783878281518110151561080d57fe5b9060200190602002015110151561082357600080fd5b61086b8261086685608001516001850181518110151561083f57fe5b906020019060200201518a8581518110151561085757fe5b90602001906020020151610faa565b611046565b915080806001019150506107f5565b506108a1818360800151600081518110151561089257fe5b90602001906020020151611046565b90506108e7856000015186602001516108b984611103565b85604001516108cb8a60400151611103565b87606001516108dd8960000151611103565b896020015161119f565b15156108f95760019350505050610901565b600093505050505b92915050565b61090f6115eb565b60408051908101604052807f20b9fe1ca62313774df900438fd3830e246107902a2d25369656534a12191bdc81526020017f10b7a6d819cde096987d519b596a3156e5a78318e2bdbe9dbe6366dbf4d55b768152508160000181905250604080519081016040528060408051908101604052807f2efb46a991d60da787a1e67b0e684b23d1b060147a0f6c231c9885abd96b575181526020017f2d4dd1a82076e9d0c35d37ffdfd4cf7a1d68c364e39e85a538c756a86e9401cb815250815260200160408051908101604052807f1a6fe1a2c4b41ee3b646e0c11ca310c4b4389f9fbd4e4d8358449cd9d9d54f3081526020017f1839a05a396824760a1882f5f9845778dc7812927875b820ba4233711dea10ee8152508152508160200181905250604080519081016040528060408051908101604052807f27707ecbc54bcc5218202d918fc336dc831e766a487b01b7b1b47d48fae0b31481526020017f1ed91b5ed9d9cdf33745ddf3383848f03439dfecb4072c025860bb86b49c7eac815250815260200160408051908101604052807f0dae9423db56e2eb98ca49367c96d51118c1a20ccd1f9212dace3ea26489d22281526020017f09d0d89c6939c46b6edf5987af235d9901842955073bc729eb5b17c3c20c18878152508152508160400181905250604080519081016040528060408051908101604052807f01853360cbc79d837411a425becb39c31ac7e3db09f1f68e70ba4ebdaaaf301481526020017f1a3feb40fac7e13d8c20eeb34fb528aa1e7bf0c86d5058f4761565ed640babea815250815260200160408051908101604052807f2811cd8e2ee06c4703a138671e85084f3bc04aeaaa6c8a68fdd0ce915af0a4f281526020017f20bab6a1af8a8a4472fb0797b91a733dad961d1a4842e692381a323b92b2afdd81525081525081606001819052506008604051908082528060200260200182016040528015610bf657816020015b610be361164e565b815260200190600190039081610bdb5790505b50816080018190525060408051908101604052807f07150e206e48e70277361c823f8427faf72160487ce199ddb637dd80c9f6386d81526020017f01e6731c6c7f91a7b37723843b25ec2b34eeb48540692f603e93199c4bc4ad4781525081608001516000815181101515610c6757fe5b9060200190602002018190525060408051908101604052807f0a9b09eb8246f63a99e7932e76ec7e983404711b05542634128f7b661f72232781526020017f273f93d079666f85238bc1dbeb5b790d80100f07112c093a998d722f68de4f9881525081608001516001815181101515610cdc57fe5b9060200190602002018190525060408051908101604052807f0bc83aa66ab8ac9a5a5a15884ea7a789c38a340627a0cf97aaf609702bdc80c381526020017f0ef40285974cfbbca1669eb7f483dd63718aa27ab0dcc336a2d2278b37b1814981525081608001516002815181101515610d5157fe5b9060200190602002018190525060408051908101604052807f08889543490ebe4a07289f5e4729376f18587426e54e775571d795781218955581526020017f20d71f616b80e28171d732a7e7d06ab3e4f18cca247ee3a87b73d2ad07bcf0f481525081608001516003815181101515610dc657fe5b9060200190602002018190525060408051908101604052807f114335c365bc16a23a120a9f6a26743e1c214bdb8f44e72eb05d0b84cb5cfc5981526020017f0f94323442d7ca9455d13a2ec88f05a283b694504d82edf5b42ebb166e9596f881525081608001516004815181101515610e3b57fe5b9060200190602002018190525060408051908101604052807f1c7f95ee0a542f7f2cffe47dc8280c0796568f4c5262dd2ac52d51c6239bb13981526020017f2154556f2853b794b5cb1f91fb494db8c2e2a6f291e46643f64c5473a7b22e2f81525081608001516005815181101515610eb057fe5b9060200190602002018190525060408051908101604052807f0e69ecc6fd75a0e6b7414a692b85ca49408ec59a46521675a0ee3c5c618da1c581526020017f13ecae5628e1dfcedefa9defe37e399b7aaf409ac31a8e53c670537e1644cb9581525081608001516006815181101515610f2557fe5b9060200190602002018190525060408051908101604052807f1bef81a94293577959b1571d755ba28f98524761e7433b39f121b200f1fac63d81526020017f249a736c17ba9ef08b27791d4b36898b0b6ffd8e57cf5f4c851f737a917a973581525081608001516007815181101515610f9a57fe5b9060200190602002018190525090565b610fb2611634565b610fba611668565b8360000151816000600381101515610fce57fe5b6020020181815250508360200151816001600381101515610feb57fe5b6020020181815250508281600260038110151561100457fe5b6020020181815250506000606083608084600060076107d05a03f19050806000811461102f57611031565bfe5b5080151561103e57600080fd5b505092915050565b61104e611634565b61105661168b565b836000015181600060048110151561106a57fe5b602002018181525050836020015181600160048110151561108757fe5b60200201818152505082600001518160026004811015156110a457fe5b60200201818152505082602001518160036004811015156110c157fe5b602002018181525050600060608360c084600060066107d05a03f1905080600081146110ec576110ee565bfe5b508015156110fb57600080fd5b505092915050565b61110b611634565b60007f30644e72e131a029b85045b68181585d97816a916871ca8d3c208c16d87cfd47905060008360000151148015611148575060008360200151145b1561116c57604080519081016040528060008152602001600081525091505061119a565b60408051908101604052808460000151815260200182856020015181151561119057fe5b0683038152509150505b919050565b6000606060046040519080825280602002602001820160405280156111de57816020015b6111cb61164e565b8152602001906001900390816111c35790505b5090506060600460405190808252806020026020018201604052801561121e57816020015b61120b6116ae565b8152602001906001900390816112035790505b5090508a82600081518110151561123157fe5b906020019060200201819052508882600181518110151561124e57fe5b906020019060200201819052508682600281518110151561126b57fe5b906020019060200201819052508482600381518110151561128857fe5b90602001906020020181905250898160008151811015156112a557fe5b90602001906020020181905250878160018151811015156112c257fe5b90602001906020020181905250858160028151811015156112df57fe5b90602001906020020181905250838160038151811015156112fc57fe5b906020019060200201819052506113138282611323565b9250505098975050505050505050565b60008151835114151561133557600080fd5b60008351905060006006820290506060816040519080825280602002602001820160405280156113745781602001602082028038833980820191505090505b50905060008090505b8381101561155257868181518110151561139357fe5b906020019060200201516000015182600060068402018151811015156113b557fe5b906020019060200201818152505086818151811015156113d157fe5b906020019060200201516020015182600160068402018151811015156113f357fe5b9060200190602002018181525050858181518110151561140f57fe5b9060200190602002015160000151600060028110151561142b57fe5b6020020151826002600684020181518110151561144457fe5b9060200190602002018181525050858181518110151561146057fe5b9060200190602002015160000151600160028110151561147c57fe5b6020020151826003600684020181518110151561149557fe5b906020019060200201818152505085818151811015156114b157fe5b906020019060200201516020015160006002811015156114cd57fe5b602002015182600460068402018151811015156114e657fe5b9060200190602002018181525050858181518110151561150257fe5b9060200190602002015160200151600160028110151561151e57fe5b6020020151826005600684020181518110151561153757fe5b9060200190602002018181525050808060010191505061137d565b5061155b6116d5565b60006020826020860260208601600060086107d05a03f19050806000811461158257611584565bfe5b5080151561159157600080fd5b60008260006001811015156115a257fe5b602002015114159550505050505092915050565b610100604051908101604052806115cb61164e565b81526020016115d86116ae565b81526020016115e561164e565b81525090565b6101e06040519081016040528061160061164e565b815260200161160d6116ae565b815260200161161a6116ae565b81526020016116276116ae565b8152602001606081525090565b604080519081016040528060008152602001600081525090565b604080519081016040528060008152602001600081525090565b606060405190810160405280600390602082028038833980820191505090505090565b608060405190810160405280600490602082028038833980820191505090505090565b6080604051908101604052806116c26116f8565b81526020016116cf6116f8565b81525090565b602060405190810160405280600190602082028038833980820191505090505090565b604080519081016040528060029060208202803883398082019150509050509056fe5472616e73616374696f6e207375636365737366756c6c792076657269666965642ea165627a7a72305820bdac170a504558a1386990250cd61d15c372e43734811725f2437dc85bc06fd60029",
  "source": "pragma solidity ^0.5.2;\n\nimport \"./verifiers/SpendNoteVerifier.sol\";\nimport \"./ZkDaiBase.sol\";\n\n\ncontract SpendNotes is SpendNoteVerifier, ZkDaiBase {\n  uint8 internal constant NUM_PUBLIC_INPUTS = 7;\n\n  /**\n  * @dev Hashes the submitted proof and adds it to the submissions mapping that tracks\n  *      submission time, type, public inputs of the zkSnark and the submitter\n  */\n  function submit(\n      uint256[2] memory a,\n      uint256[2][2] memory b,\n      uint256[2] memory c,\n      uint256[7] memory input)\n    internal\n  {\n      bytes32 proofHash = getProofHash(a, b, c);\n      uint256[] memory publicInput = new uint256[](NUM_PUBLIC_INPUTS);\n      for(uint8 i = 0; i < NUM_PUBLIC_INPUTS; i++) {\n        publicInput[i] = input[i];\n      }\n      submissions[proofHash] = Submission(msg.sender, SubmissionType.Spend, now, publicInput);\n      emit Submitted(msg.sender, proofHash);\n  }\n\n  /**\n  * @dev Commits the proof i.e. Marks the input note as Spent and mints two new output notes that came with the proof.\n  * @param proofHash Hash of the proof to be committed\n  */\n  function spendCommit(bytes32 proofHash)\n    internal\n  {\n      Submission storage submission = submissions[proofHash];\n      bytes32[3] memory _notes = get3Notes(submission.publicInput);\n      // check that the first note (among public params) is committed and\n      // new notes should not be existing at this point\n      require(notes[_notes[0]] == State.Committed, \"Note is either invalid or already spent\");\n      require(notes[_notes[1]] == State.Invalid, \"output note1 is already minted\");\n      require(notes[_notes[2]] == State.Invalid, \"output note2 is already minted\");\n\n      notes[_notes[0]] = State.Spent;\n      notes[_notes[1]] = State.Committed;\n      notes[_notes[2]] = State.Committed;\n\n      delete submissions[proofHash];\n      submission.submitter.transfer(stake);\n      emit NoteStateChange(_notes[0], State.Spent);\n      emit NoteStateChange(_notes[1], State.Committed);\n      emit NoteStateChange(_notes[2], State.Committed);\n  }\n\n  function get3Notes(uint256[] memory input)\n    internal\n    pure\n    returns(bytes32[3] memory notes)\n  {\n      notes[0] = calcNoteHash(input[0], input[1]);\n      notes[1] = calcNoteHash(input[2], input[3]);\n      notes[2] = calcNoteHash(input[4], input[5]);\n  }\n\n  /**\n  * @dev Challenge the proof for spend step\n  * @notice params: a, a_p, b, b_p, c, c_p, h, k zkSnark parameters of the challenged proof\n  * @param proofHash Hash of the proof\n  */\n  function challenge(\n      uint256[2] memory a,\n      uint256[2][2] memory b,\n      uint256[2] memory c,\n      bytes32 proofHash)\n    internal\n  {\n      Submission storage submission = submissions[proofHash];\n      uint256[NUM_PUBLIC_INPUTS] memory input;\n      for(uint i = 0; i < NUM_PUBLIC_INPUTS; i++) {\n        input[i] = submission.publicInput[i];\n      }\n      if (!spendVerifyTx(a, b, c, input)) {\n        // challenge passed\n        delete submissions[proofHash];\n        msg.sender.transfer(stake);\n        emit Challenged(msg.sender, proofHash);\n      } else {\n        // challenge failed\n        spendCommit(proofHash);\n      }\n  }\n}\n",
  "sourcePath": "/home/boo/work/LightningZKP/contracts/SpendNotes.sol",
  "compiler": {
    "name": "solc",
    "version": "0.5.2+commit.1df8f40c.Emscripten.clang"
  },
  "schemaVersion": "3.0.16",
  "updatedAt": "2019-10-16T17:12:19.149Z",
  "devdoc": {
    "methods": {}
  },
  "userdoc": {
    "methods": {}
  }
}