{
  "contractName": "SpendNotes",
  "abi": [
    {
      "constant": true,
      "inputs": [
        {
          "name": "",
          "type": "bytes32"
        }
      ],
      "name": "depositPools",
      "outputs": [
        {
          "name": "mpkAddress",
          "type": "address"
        },
        {
          "name": "expiredTime",
          "type": "uint256"
        },
        {
          "name": "maxNotesNum",
          "type": "uint8"
        },
        {
          "name": "lastNotesNum",
          "type": "uint8"
        }
      ],
      "payable": false,
      "stateMutability": "view",
      "type": "function"
    },
    {
      "constant": true,
      "inputs": [],
      "name": "stake",
      "outputs": [
        {
          "name": "",
          "type": "uint256"
        }
      ],
      "payable": false,
      "stateMutability": "view",
      "type": "function"
    },
    {
      "constant": false,
      "inputs": [
        {
          "name": "a",
          "type": "uint256[2]"
        },
        {
          "name": "b",
          "type": "uint256[2][2]"
        },
        {
          "name": "c",
          "type": "uint256[2]"
        },
        {
          "name": "input",
          "type": "uint256[7]"
        }
      ],
      "name": "spendVerifyTx",
      "outputs": [
        {
          "name": "r",
          "type": "bool"
        }
      ],
      "payable": false,
      "stateMutability": "nonpayable",
      "type": "function"
    },
    {
      "constant": true,
      "inputs": [],
      "name": "cooldown",
      "outputs": [
        {
          "name": "",
          "type": "uint256"
        }
      ],
      "payable": false,
      "stateMutability": "view",
      "type": "function"
    },
    {
      "constant": true,
      "inputs": [
        {
          "name": "",
          "type": "bytes32"
        }
      ],
      "name": "notes",
      "outputs": [
        {
          "name": "",
          "type": "uint8"
        }
      ],
      "payable": false,
      "stateMutability": "view",
      "type": "function"
    },
    {
      "constant": true,
      "inputs": [
        {
          "name": "",
          "type": "bytes32"
        }
      ],
      "name": "submissions",
      "outputs": [
        {
          "name": "submitter",
          "type": "address"
        },
        {
          "name": "sType",
          "type": "uint8"
        },
        {
          "name": "submittedAt",
          "type": "uint256"
        }
      ],
      "payable": false,
      "stateMutability": "view",
      "type": "function"
    },
    {
      "constant": true,
      "inputs": [],
      "name": "dai",
      "outputs": [
        {
          "name": "",
          "type": "address"
        }
      ],
      "payable": false,
      "stateMutability": "view",
      "type": "function"
    },
    {
      "anonymous": false,
      "inputs": [
        {
          "indexed": false,
          "name": "note",
          "type": "bytes32"
        },
        {
          "indexed": false,
          "name": "state",
          "type": "uint8"
        }
      ],
      "name": "NoteStateChange",
      "type": "event"
    },
    {
      "anonymous": false,
      "inputs": [
        {
          "indexed": false,
          "name": "submitter",
          "type": "address"
        },
        {
          "indexed": false,
          "name": "proofHash",
          "type": "bytes32"
        }
      ],
      "name": "Submitted",
      "type": "event"
    },
    {
      "anonymous": false,
      "inputs": [
        {
          "indexed": false,
          "name": "mpkAddress",
          "type": "address"
        },
        {
          "indexed": false,
          "name": "poolId",
          "type": "bytes32"
        }
      ],
      "name": "Deposited",
      "type": "event"
    },
    {
      "anonymous": false,
      "inputs": [
        {
          "indexed": true,
          "name": "challenger",
          "type": "address"
        },
        {
          "indexed": false,
          "name": "proofHash",
          "type": "bytes32"
        }
      ],
      "name": "Challenged",
      "type": "event"
    },
    {
      "anonymous": false,
      "inputs": [
        {
          "indexed": false,
          "name": "s",
          "type": "string"
        }
      ],
      "name": "SpendVerified",
      "type": "event"
    }
  ],
  "bytecode": "0x608060405234801561001057600080fd5b50611767806100206000396000f3fe608060405234801561001057600080fd5b506004361061009a576000357c010000000000000000000000000000000000000000000000000000000090048063787a08a611610078578063787a08a6146102c557806385de26b7146102e3578063c5c9c0a214610333578063f4b9fa75146103bd5761009a565b806338cd80931461009f5780633a4b66f11461012e5780635c9985271461014c575b600080fd5b6100cb600480360360208110156100b557600080fd5b8101908080359060200190929190505050610407565b604051808573ffffffffffffffffffffffffffffffffffffffff1673ffffffffffffffffffffffffffffffffffffffff1681526020018481526020018360ff1660ff1681526020018260ff1660ff16815260200194505050505060405180910390f35b610136610471565b6040518082815260200191505060405180910390f35b6102ab60048036036101e081101561016357600080fd5b8101908080604001906002806020026040519081016040528092919082600260200280828437600081840152601f19601f82011690508083019250505050505091929192908060800190600280602002604051908101604052809291906000905b82821015610218578382604002016002806020026040519081016040528092919082600260200280828437600081840152601f19601f820116905080830192505050505050815260200190600101906101c4565b50505050919291929080604001906002806020026040519081016040528092919082600260200280828437600081840152601f19601f82011690508083019250505050505091929192908060e001906007806020026040519081016040528092919082600760200280828437600081840152601f19601f8201169050808301925050505050509192919290505050610477565b604051808215151515815260200191505060405180910390f35b6102cd6106dc565b6040518082815260200191505060405180910390f35b61030f600480360360208110156102f957600080fd5b81019080803590602001909291905050506106e2565b6040518082600381111561031f57fe5b60ff16815260200191505060405180910390f35b61035f6004803603602081101561034957600080fd5b8101908080359060200190929190505050610702565b604051808473ffffffffffffffffffffffffffffffffffffffff1673ffffffffffffffffffffffffffffffffffffffff1681526020018360048111156103a157fe5b60ff168152602001828152602001935050505060405180910390f35b6103c5610759565b604051808273ffffffffffffffffffffffffffffffffffffffff1673ffffffffffffffffffffffffffffffffffffffff16815260200191505060405180910390f35b60036020528060005260406000206000915090508060000160009054906101000a900473ffffffffffffffffffffffffffffffffffffffff16908060010154908060020160009054906101000a900460ff16908060020160019054906101000a900460ff16905084565b60015481565b60006104816115b5565b604080519081016040528087600060028110151561049b57fe5b602002015181526020018760016002811015156104b457fe5b60200201518152508160000181905250604080519081016040528060408051908101604052808860006002811015156104e957fe5b602002015160006002811015156104fc57fe5b6020020151815260200188600060028110151561051557fe5b6020020151600160028110151561052857fe5b60200201518152508152602001604080519081016040528088600160028110151561054f57fe5b6020020151600060028110151561056257fe5b6020020151815260200188600160028110151561057b57fe5b6020020151600160028110151561058e57fe5b6020020151815250815250816020018190525060408051908101604052808560006002811015156105bb57fe5b602002015181526020018560016002811015156105d457fe5b60200201518152508160400181905250606060076040519080825280602002602001820160405280156106165781602001602082028038833980820191505090505b50905060008090505b600781101561066457848160078110151561063657fe5b6020020151828281518110151561064957fe5b9060200190602002018181525050808060010191505061061f565b506000610671828461077f565b14156106cd577ff6cb06d2e93a0bf2c44f15288883c84bd0564b45a72d58a8b0793915bd00eb1b60405180806020018281038252602281526020018061171a6022913960400191505060405180910390a16001925050506106d4565b6000925050505b949350505050565b60005481565b60056020528060005260406000206000915054906101000a900460ff1681565b60046020528060005260406000206000915090508060000160009054906101000a900473ffffffffffffffffffffffffffffffffffffffff16908060000160149054906101000a900460ff16908060010154905083565b600260009054906101000a900473ffffffffffffffffffffffffffffffffffffffff1681565b6000807f30644e72e131a029b85045b68181585d2833e84879b9709143e1f593f000000190506107ad6115ea565b6107b5610907565b905080608001515160018651011415156107ce57600080fd5b6107d6611633565b6040805190810160405280600081526020016000815250905060008090505b865181101561087a5783878281518110151561080d57fe5b9060200190602002015110151561082357600080fd5b61086b8261086685608001516001850181518110151561083f57fe5b906020019060200201518a8581518110151561085757fe5b90602001906020020151610fa9565b611045565b915080806001019150506107f5565b506108a1818360800151600081518110151561089257fe5b90602001906020020151611045565b90506108e7856000015186602001516108b984611102565b85604001516108cb8a60400151611102565b87606001516108dd8960000151611102565b896020015161119e565b15156108f95760019350505050610901565b600093505050505b92915050565b61090f6115ea565b60408051908101604052807f1a98ac48fe2018f84f58a2906156cedd87059554be66822c8443397426bc62a781526020017f03db6d4b9d0c6621e37c5f2329a2212b4ddc29f46607e9a80d5941676e25edb78152508160000181905250604080519081016040528060408051908101604052807f1b735ac6d76ea2df5007c6388a1d2607b799e35c30e9519da33953da9d43db6f81526020017f0c2a204b6cf7546ebc106470781153a8f110a61e2ab8ecd99ac77cb09b922ae1815250815260200160408051908101604052807f180dd416bf72c1188ecdf599eee773f5b4e303e9efe35eb04e33f277e952f5be81526020017f1e35b197f94262f5fe64d0fe32af60ca51449435f6bf941df65b0d2a2942f6f78152508152508160200181905250604080519081016040528060408051908101604052807f26f0cdc4bf30d13dc2cf6367e49445fc59abcba315def5e1b3729af927e6a6c581526020017f065bd09ff773ec638084cf183c96d3178d3d5fd44206a7f9b6c8aa72b3dc52ac815250815260200160408051908101604052807f15d1ad4691023d57db5a06ce69f081fa9e61d176e8c9a40e4a446c27b17291ae81526020017f2b41d1b082947fff6fd5a5df399e59d9440d1faa701e4768ad8a460fd41dbde28152508152508160400181905250604080519081016040528060408051908101604052807f2c4a26f13a3b4888403d5b917ca0b586a2f708955a89d25b3f5f75308d84513581526020017f208605906c040f4aefde123c8939f8417ef0774f59c13dd08ffdb1248f78e84c815250815260200160408051908101604052807f0b7695268fa677103881aa934f7e45ac4ed626c33390477b851bb3ce6ee146dd81526020017f2f2fcdb0f059b6270527c5d46e3eb1af9f7463ab1ed58438c42187aa094055fc81525081525081606001819052506008604051908082528060200260200182016040528015610bf657816020015b610be361164d565b815260200190600190039081610bdb5790505b50816080018190525060408051908101604052807f0a65dc2d653564f4ea5a987bb92725e16860f9c2ed63f26663e4ea1dd201495581526020017f05edc87f90a596723787e36afc4da0d32c02f77788610349b4f875da59cc45d481525081608001516000815181101515610c6757fe5b9060200190602002018190525060408051908101604052807f1ac7c460c4d1553f7f303d1f384fbfb9fbfc5a14e963ed3ae75f14ae561fea8381526020017f16ea6aeb7d297d3e924d9802151cfa2f24b72e23c19dcf508930f5c7be2d2d0a81525081608001516001815181101515610cdc57fe5b9060200190602002018190525060408051908101604052807f09262c81daea9019fa2a153007bc7aefda07852ba846f177e3b5259525c68cb881526020017f1a1e2e4c0fc4ffb7f2423043d83236654c84a51b2240c33ac609b15bc684c58781525081608001516002815181101515610d5157fe5b9060200190602002018190525060408051908101604052807f1dcf0c809f804ea9e2cedb16407dd89f5af0f0b7ab211628fe51c4a9d06f3eef81526020017f0d39d3271f58f96eec3799622b14c869d76f421aa0c0a657d27f015fa6939a8781525081608001516003815181101515610dc657fe5b9060200190602002018190525060408051908101604052807f09ee43f5e8cdbe9d12fa57ae149ebde674532a40e0462f3b53b2e7a00768a28081526020017f13f3a99dff58fa02e9b4b636e12708f61b8c8acfa176b9589d954310b4d4305d81525081608001516004815181101515610e3b57fe5b9060200190602002018190525060408051908101604052807e60f976268eb38393a3c16ca02613d04deb4873399b911ba31e9d3c9f83a40981526020017f25610bd7ac6c62d0a575176f60f461b45852a7667c82bb0cb90654ab442e660f81525081608001516005815181101515610eaf57fe5b9060200190602002018190525060408051908101604052807f220b9534234001a50b76a0240ff70316868b988596137240f9c8c2aa2b953d4781526020017f0267d3165a1bf80e633dd90bce7fd86c95913242de0b7ecb62824756cfff3c0f81525081608001516006815181101515610f2457fe5b9060200190602002018190525060408051908101604052807f19bf56a5653c8988330352dd2cb1d594594c872bb8932961b45390badec2275181526020017f13cfe41af18911a33c1bc1fe167df2aa75476b439abe3c488eff21c2d70c29e181525081608001516007815181101515610f9957fe5b9060200190602002018190525090565b610fb1611633565b610fb9611667565b8360000151816000600381101515610fcd57fe5b6020020181815250508360200151816001600381101515610fea57fe5b6020020181815250508281600260038110151561100357fe5b6020020181815250506000606083608084600060076107d05a03f19050806000811461102e57611030565bfe5b5080151561103d57600080fd5b505092915050565b61104d611633565b61105561168a565b836000015181600060048110151561106957fe5b602002018181525050836020015181600160048110151561108657fe5b60200201818152505082600001518160026004811015156110a357fe5b60200201818152505082602001518160036004811015156110c057fe5b602002018181525050600060608360c084600060066107d05a03f1905080600081146110eb576110ed565bfe5b508015156110fa57600080fd5b505092915050565b61110a611633565b60007f30644e72e131a029b85045b68181585d97816a916871ca8d3c208c16d87cfd47905060008360000151148015611147575060008360200151145b1561116b576040805190810160405280600081526020016000815250915050611199565b60408051908101604052808460000151815260200182856020015181151561118f57fe5b0683038152509150505b919050565b6000606060046040519080825280602002602001820160405280156111dd57816020015b6111ca61164d565b8152602001906001900390816111c25790505b5090506060600460405190808252806020026020018201604052801561121d57816020015b61120a6116ad565b8152602001906001900390816112025790505b5090508a82600081518110151561123057fe5b906020019060200201819052508882600181518110151561124d57fe5b906020019060200201819052508682600281518110151561126a57fe5b906020019060200201819052508482600381518110151561128757fe5b90602001906020020181905250898160008151811015156112a457fe5b90602001906020020181905250878160018151811015156112c157fe5b90602001906020020181905250858160028151811015156112de57fe5b90602001906020020181905250838160038151811015156112fb57fe5b906020019060200201819052506113128282611322565b9250505098975050505050505050565b60008151835114151561133457600080fd5b60008351905060006006820290506060816040519080825280602002602001820160405280156113735781602001602082028038833980820191505090505b50905060008090505b8381101561155157868181518110151561139257fe5b906020019060200201516000015182600060068402018151811015156113b457fe5b906020019060200201818152505086818151811015156113d057fe5b906020019060200201516020015182600160068402018151811015156113f257fe5b9060200190602002018181525050858181518110151561140e57fe5b9060200190602002015160000151600060028110151561142a57fe5b6020020151826002600684020181518110151561144357fe5b9060200190602002018181525050858181518110151561145f57fe5b9060200190602002015160000151600160028110151561147b57fe5b6020020151826003600684020181518110151561149457fe5b906020019060200201818152505085818151811015156114b057fe5b906020019060200201516020015160006002811015156114cc57fe5b602002015182600460068402018151811015156114e557fe5b9060200190602002018181525050858181518110151561150157fe5b9060200190602002015160200151600160028110151561151d57fe5b6020020151826005600684020181518110151561153657fe5b9060200190602002018181525050808060010191505061137c565b5061155a6116d4565b60006020826020860260208601600060086107d05a03f19050806000811461158157611583565bfe5b5080151561159057600080fd5b60008260006001811015156115a157fe5b602002015114159550505050505092915050565b610100604051908101604052806115ca61164d565b81526020016115d76116ad565b81526020016115e461164d565b81525090565b6101e0604051908101604052806115ff61164d565b815260200161160c6116ad565b81526020016116196116ad565b81526020016116266116ad565b8152602001606081525090565b604080519081016040528060008152602001600081525090565b604080519081016040528060008152602001600081525090565b606060405190810160405280600390602082028038833980820191505090505090565b608060405190810160405280600490602082028038833980820191505090505090565b6080604051908101604052806116c16116f7565b81526020016116ce6116f7565b81525090565b602060405190810160405280600190602082028038833980820191505090505090565b604080519081016040528060029060208202803883398082019150509050509056fe5472616e73616374696f6e207375636365737366756c6c792076657269666965642ea165627a7a72305820d0ac62270350477db4f8e75888e798866e50096fbad2ceb767258f5bfcbadef50029",
  "source": "pragma solidity ^0.5.2;\n\nimport {Verifier as SpendNoteVerifier} from \"./verifiers/SpendNoteVerifier.sol\";\nimport \"./ZkDaiBase.sol\";\n\n\ncontract SpendNotes is SpendNoteVerifier, ZkDaiBase {\n  uint8 internal constant NUM_PUBLIC_INPUTS = 7;\n\n  /**\n  * @dev Hashes the submitted proof and adds it to the submissions mapping that tracks\n  *      submission time, type, public inputs of the zkSnark and the submitter\n  */\n  function submit(\n      uint256[2] memory a,\n      uint256[2][2] memory b,\n      uint256[2] memory c,\n      uint256[7] memory input)\n    internal\n  {\n      bytes32 proofHash = getProofHash(a, b, c);\n      uint256[] memory publicInput = new uint256[](NUM_PUBLIC_INPUTS);\n      for(uint8 i = 0; i < NUM_PUBLIC_INPUTS; i++) {\n        publicInput[i] = input[i];\n      }\n      submissions[proofHash] = Submission(msg.sender, SubmissionType.Spend, now, publicInput);\n      emit Submitted(msg.sender, proofHash);\n  }\n\n  /**\n  * @dev Commits the proof i.e. Marks the input note as Spent and mints two new output notes that came with the proof.\n  * @param proofHash Hash of the proof to be committed\n  */\n  function spendCommit(bytes32 proofHash)\n    internal\n  {\n      Submission storage submission = submissions[proofHash];\n      bytes32[3] memory _notes = get3Notes(submission.publicInput);\n      // check that the first note (among public params) is committed and\n      // new notes should not be existing at this point\n      require(notes[_notes[0]] == State.Committed, \"Note is either invalid or already spent\");\n      require(notes[_notes[1]] == State.Invalid, \"output note1 is already minted\");\n      require(notes[_notes[2]] == State.Invalid, \"output note2 is already minted\");\n\n      notes[_notes[0]] = State.Spent;\n      notes[_notes[1]] = State.Committed;\n      notes[_notes[2]] = State.Committed;\n\n      delete submissions[proofHash];\n      submission.submitter.transfer(stake);\n      emit NoteStateChange(_notes[0], State.Spent);\n      emit NoteStateChange(_notes[1], State.Committed);\n      emit NoteStateChange(_notes[2], State.Committed);\n  }\n\n  function get3Notes(uint256[] memory input)\n    internal\n    pure\n    returns(bytes32[3] memory notes)\n  {\n      notes[0] = calcNoteHash(input[0], input[1]);\n      notes[1] = calcNoteHash(input[2], input[3]);\n      notes[2] = calcNoteHash(input[4], input[5]);\n  }\n\n  /**\n  * @dev Challenge the proof for spend step\n  * @notice params: a, a_p, b, b_p, c, c_p, h, k zkSnark parameters of the challenged proof\n  * @param proofHash Hash of the proof\n  */\n  function challenge(\n      uint256[2] memory a,\n      uint256[2][2] memory b,\n      uint256[2] memory c,\n      bytes32 proofHash)\n    internal\n  {\n      Submission storage submission = submissions[proofHash];\n      uint256[NUM_PUBLIC_INPUTS] memory input;\n      for(uint i = 0; i < NUM_PUBLIC_INPUTS; i++) {\n        input[i] = submission.publicInput[i];\n      }\n      if (!spendVerifyTx(a, b, c, input)) {\n        // challenge passed\n        delete submissions[proofHash];\n        msg.sender.transfer(stake);\n        emit Challenged(msg.sender, proofHash);\n      } else {\n        // challenge failed\n        spendCommit(proofHash);\n      }\n  }\n}\n",
  "sourcePath": "/home/boo/work/LightningZKP/contracts/SpendNotes.sol",
  "compiler": {
    "name": "solc",
    "version": "0.5.2+commit.1df8f40c.Emscripten.clang"
  },
  "schemaVersion": "3.0.11",
  "updatedAt": "2019-10-15T14:10:28.856Z",
  "devdoc": {
    "methods": {}
  },
  "userdoc": {
    "methods": {}
  }
}