{
  "contractName": "SpendNotes",
  "abi": [
    {
      "constant": true,
      "inputs": [],
      "name": "stake",
      "outputs": [
        {
          "name": "",
          "type": "uint256"
        }
      ],
      "payable": false,
      "stateMutability": "view",
      "type": "function"
    },
    {
      "constant": false,
      "inputs": [
        {
          "name": "a",
          "type": "uint256[2]"
        },
        {
          "name": "b",
          "type": "uint256[2][2]"
        },
        {
          "name": "c",
          "type": "uint256[2]"
        },
        {
          "name": "input",
          "type": "uint256[7]"
        }
      ],
      "name": "verifyTx",
      "outputs": [
        {
          "name": "r",
          "type": "bool"
        }
      ],
      "payable": false,
      "stateMutability": "nonpayable",
      "type": "function"
    },
    {
      "constant": true,
      "inputs": [],
      "name": "cooldown",
      "outputs": [
        {
          "name": "",
          "type": "uint256"
        }
      ],
      "payable": false,
      "stateMutability": "view",
      "type": "function"
    },
    {
      "constant": true,
      "inputs": [
        {
          "name": "",
          "type": "bytes32"
        }
      ],
      "name": "notes",
      "outputs": [
        {
          "name": "",
          "type": "uint8"
        }
      ],
      "payable": false,
      "stateMutability": "view",
      "type": "function"
    },
    {
      "constant": true,
      "inputs": [
        {
          "name": "",
          "type": "bytes32"
        }
      ],
      "name": "submissions",
      "outputs": [
        {
          "name": "submitter",
          "type": "address"
        },
        {
          "name": "sType",
          "type": "uint8"
        },
        {
          "name": "submittedAt",
          "type": "uint256"
        }
      ],
      "payable": false,
      "stateMutability": "view",
      "type": "function"
    },
    {
      "constant": true,
      "inputs": [],
      "name": "dai",
      "outputs": [
        {
          "name": "",
          "type": "address"
        }
      ],
      "payable": false,
      "stateMutability": "view",
      "type": "function"
    },
    {
      "anonymous": false,
      "inputs": [
        {
          "indexed": false,
          "name": "note",
          "type": "bytes32"
        },
        {
          "indexed": false,
          "name": "state",
          "type": "uint8"
        }
      ],
      "name": "NoteStateChange",
      "type": "event"
    },
    {
      "anonymous": false,
      "inputs": [
        {
          "indexed": false,
          "name": "submitter",
          "type": "address"
        },
        {
          "indexed": false,
          "name": "proofHash",
          "type": "bytes32"
        }
      ],
      "name": "Submitted",
      "type": "event"
    },
    {
      "anonymous": false,
      "inputs": [
        {
          "indexed": true,
          "name": "challenger",
          "type": "address"
        },
        {
          "indexed": false,
          "name": "proofHash",
          "type": "bytes32"
        }
      ],
      "name": "Challenged",
      "type": "event"
    },
    {
      "anonymous": false,
      "inputs": [
        {
          "indexed": false,
          "name": "s",
          "type": "string"
        }
      ],
      "name": "Verified",
      "type": "event"
    }
  ],
  "bytecode": "0x608060405234801561001057600080fd5b50611653806100206000396000f3fe608060405234801561001057600080fd5b506004361061007f576000357c0100000000000000000000000000000000000000000000000000000000900480633a4b66f11461008457806346d8653f146100a2578063787a08a61461021b57806385de26b714610239578063c5c9c0a214610289578063f4b9fa7514610313575b600080fd5b61008c61035d565b6040518082815260200191505060405180910390f35b61020160048036036101e08110156100b957600080fd5b8101908080604001906002806020026040519081016040528092919082600260200280828437600081840152601f19601f82011690508083019250505050505091929192908060800190600280602002604051908101604052809291906000905b8282101561016e578382604002016002806020026040519081016040528092919082600260200280828437600081840152601f19601f8201169050808301925050505050508152602001906001019061011a565b50505050919291929080604001906002806020026040519081016040528092919082600260200280828437600081840152601f19601f82011690508083019250505050505091929192908060e001906007806020026040519081016040528092919082600760200280828437600081840152601f19601f8201169050808301925050505050509192919290505050610363565b604051808215151515815260200191505060405180910390f35b6102236105c8565b6040518082815260200191505060405180910390f35b6102656004803603602081101561024f57600080fd5b81019080803590602001909291905050506105ce565b6040518082600281111561027557fe5b60ff16815260200191505060405180910390f35b6102b56004803603602081101561029f57600080fd5b81019080803590602001909291905050506105ee565b604051808473ffffffffffffffffffffffffffffffffffffffff1673ffffffffffffffffffffffffffffffffffffffff1681526020018360038111156102f757fe5b60ff168152602001828152602001935050505060405180910390f35b61031b610645565b604051808273ffffffffffffffffffffffffffffffffffffffff1673ffffffffffffffffffffffffffffffffffffffff16815260200191505060405180910390f35b60015481565b600061036d6114a1565b604080519081016040528087600060028110151561038757fe5b602002015181526020018760016002811015156103a057fe5b60200201518152508160000181905250604080519081016040528060408051908101604052808860006002811015156103d557fe5b602002015160006002811015156103e857fe5b6020020151815260200188600060028110151561040157fe5b6020020151600160028110151561041457fe5b60200201518152508152602001604080519081016040528088600160028110151561043b57fe5b6020020151600060028110151561044e57fe5b6020020151815260200188600160028110151561046757fe5b6020020151600160028110151561047a57fe5b6020020151815250815250816020018190525060408051908101604052808560006002811015156104a757fe5b602002015181526020018560016002811015156104c057fe5b60200201518152508160400181905250606060076040519080825280602002602001820160405280156105025781602001602082028038833980820191505090505b50905060008090505b600781101561055057848160078110151561052257fe5b6020020151828281518110151561053557fe5b9060200190602002018181525050808060010191505061050b565b50600061055d828461066b565b14156105b9577f3f3cfdb26fb5f9f1786ab4f1a1f9cd4c0b5e726cbdfc26e495261731aad44e396040518080602001828103825260228152602001806116066022913960400191505060405180910390a16001925050506105c0565b6000925050505b949350505050565b60005481565b60046020528060005260406000206000915054906101000a900460ff1681565b60036020528060005260406000206000915090508060000160009054906101000a900473ffffffffffffffffffffffffffffffffffffffff16908060000160149054906101000a900460ff16908060010154905083565b600260009054906101000a900473ffffffffffffffffffffffffffffffffffffffff1681565b6000807f30644e72e131a029b85045b68181585d2833e84879b9709143e1f593f000000190506106996114d6565b6106a16107f3565b905080608001515160018651011415156106ba57600080fd5b6106c261151f565b6040805190810160405280600081526020016000815250905060008090505b8651811015610766578387828151811015156106f957fe5b9060200190602002015110151561070f57600080fd5b6107578261075285608001516001850181518110151561072b57fe5b906020019060200201518a8581518110151561074357fe5b90602001906020020151610e95565b610f31565b915080806001019150506106e1565b5061078d818360800151600081518110151561077e57fe5b90602001906020020151610f31565b90506107d3856000015186602001516107a584610fee565b85604001516107b78a60400151610fee565b87606001516107c98960000151610fee565b896020015161108a565b15156107e557600193505050506107ed565b600093505050505b92915050565b6107fb6114d6565b60408051908101604052807f1a98ac48fe2018f84f58a2906156cedd87059554be66822c8443397426bc62a781526020017f03db6d4b9d0c6621e37c5f2329a2212b4ddc29f46607e9a80d5941676e25edb78152508160000181905250604080519081016040528060408051908101604052807f1b735ac6d76ea2df5007c6388a1d2607b799e35c30e9519da33953da9d43db6f81526020017f0c2a204b6cf7546ebc106470781153a8f110a61e2ab8ecd99ac77cb09b922ae1815250815260200160408051908101604052807f180dd416bf72c1188ecdf599eee773f5b4e303e9efe35eb04e33f277e952f5be81526020017f1e35b197f94262f5fe64d0fe32af60ca51449435f6bf941df65b0d2a2942f6f78152508152508160200181905250604080519081016040528060408051908101604052807f26f0cdc4bf30d13dc2cf6367e49445fc59abcba315def5e1b3729af927e6a6c581526020017f065bd09ff773ec638084cf183c96d3178d3d5fd44206a7f9b6c8aa72b3dc52ac815250815260200160408051908101604052807f15d1ad4691023d57db5a06ce69f081fa9e61d176e8c9a40e4a446c27b17291ae81526020017f2b41d1b082947fff6fd5a5df399e59d9440d1faa701e4768ad8a460fd41dbde28152508152508160400181905250604080519081016040528060408051908101604052807f2c4a26f13a3b4888403d5b917ca0b586a2f708955a89d25b3f5f75308d84513581526020017f208605906c040f4aefde123c8939f8417ef0774f59c13dd08ffdb1248f78e84c815250815260200160408051908101604052807f0b7695268fa677103881aa934f7e45ac4ed626c33390477b851bb3ce6ee146dd81526020017f2f2fcdb0f059b6270527c5d46e3eb1af9f7463ab1ed58438c42187aa094055fc81525081525081606001819052506008604051908082528060200260200182016040528015610ae257816020015b610acf611539565b815260200190600190039081610ac75790505b50816080018190525060408051908101604052807f0a65dc2d653564f4ea5a987bb92725e16860f9c2ed63f26663e4ea1dd201495581526020017f05edc87f90a596723787e36afc4da0d32c02f77788610349b4f875da59cc45d481525081608001516000815181101515610b5357fe5b9060200190602002018190525060408051908101604052807f1ac7c460c4d1553f7f303d1f384fbfb9fbfc5a14e963ed3ae75f14ae561fea8381526020017f16ea6aeb7d297d3e924d9802151cfa2f24b72e23c19dcf508930f5c7be2d2d0a81525081608001516001815181101515610bc857fe5b9060200190602002018190525060408051908101604052807f09262c81daea9019fa2a153007bc7aefda07852ba846f177e3b5259525c68cb881526020017f1a1e2e4c0fc4ffb7f2423043d83236654c84a51b2240c33ac609b15bc684c58781525081608001516002815181101515610c3d57fe5b9060200190602002018190525060408051908101604052807f1dcf0c809f804ea9e2cedb16407dd89f5af0f0b7ab211628fe51c4a9d06f3eef81526020017f0d39d3271f58f96eec3799622b14c869d76f421aa0c0a657d27f015fa6939a8781525081608001516003815181101515610cb257fe5b9060200190602002018190525060408051908101604052807f09ee43f5e8cdbe9d12fa57ae149ebde674532a40e0462f3b53b2e7a00768a28081526020017f13f3a99dff58fa02e9b4b636e12708f61b8c8acfa176b9589d954310b4d4305d81525081608001516004815181101515610d2757fe5b9060200190602002018190525060408051908101604052807e60f976268eb38393a3c16ca02613d04deb4873399b911ba31e9d3c9f83a40981526020017f25610bd7ac6c62d0a575176f60f461b45852a7667c82bb0cb90654ab442e660f81525081608001516005815181101515610d9b57fe5b9060200190602002018190525060408051908101604052807f220b9534234001a50b76a0240ff70316868b988596137240f9c8c2aa2b953d4781526020017f0267d3165a1bf80e633dd90bce7fd86c95913242de0b7ecb62824756cfff3c0f81525081608001516006815181101515610e1057fe5b9060200190602002018190525060408051908101604052807f19bf56a5653c8988330352dd2cb1d594594c872bb8932961b45390badec2275181526020017f13cfe41af18911a33c1bc1fe167df2aa75476b439abe3c488eff21c2d70c29e181525081608001516007815181101515610e8557fe5b9060200190602002018190525090565b610e9d61151f565b610ea5611553565b8360000151816000600381101515610eb957fe5b6020020181815250508360200151816001600381101515610ed657fe5b60200201818152505082816002600381101515610eef57fe5b6020020181815250506000606083608084600060076107d05a03f190508060008114610f1a57610f1c565bfe5b50801515610f2957600080fd5b505092915050565b610f3961151f565b610f41611576565b8360000151816000600481101515610f5557fe5b6020020181815250508360200151816001600481101515610f7257fe5b6020020181815250508260000151816002600481101515610f8f57fe5b6020020181815250508260200151816003600481101515610fac57fe5b602002018181525050600060608360c084600060066107d05a03f190508060008114610fd757610fd9565bfe5b50801515610fe657600080fd5b505092915050565b610ff661151f565b60007f30644e72e131a029b85045b68181585d97816a916871ca8d3c208c16d87cfd47905060008360000151148015611033575060008360200151145b15611057576040805190810160405280600081526020016000815250915050611085565b60408051908101604052808460000151815260200182856020015181151561107b57fe5b0683038152509150505b919050565b6000606060046040519080825280602002602001820160405280156110c957816020015b6110b6611539565b8152602001906001900390816110ae5790505b5090506060600460405190808252806020026020018201604052801561110957816020015b6110f6611599565b8152602001906001900390816110ee5790505b5090508a82600081518110151561111c57fe5b906020019060200201819052508882600181518110151561113957fe5b906020019060200201819052508682600281518110151561115657fe5b906020019060200201819052508482600381518110151561117357fe5b906020019060200201819052508981600081518110151561119057fe5b90602001906020020181905250878160018151811015156111ad57fe5b90602001906020020181905250858160028151811015156111ca57fe5b90602001906020020181905250838160038151811015156111e757fe5b906020019060200201819052506111fe828261120e565b9250505098975050505050505050565b60008151835114151561122057600080fd5b600083519050600060068202905060608160405190808252806020026020018201604052801561125f5781602001602082028038833980820191505090505b50905060008090505b8381101561143d57868181518110151561127e57fe5b906020019060200201516000015182600060068402018151811015156112a057fe5b906020019060200201818152505086818151811015156112bc57fe5b906020019060200201516020015182600160068402018151811015156112de57fe5b906020019060200201818152505085818151811015156112fa57fe5b9060200190602002015160000151600060028110151561131657fe5b6020020151826002600684020181518110151561132f57fe5b9060200190602002018181525050858181518110151561134b57fe5b9060200190602002015160000151600160028110151561136757fe5b6020020151826003600684020181518110151561138057fe5b9060200190602002018181525050858181518110151561139c57fe5b906020019060200201516020015160006002811015156113b857fe5b602002015182600460068402018151811015156113d157fe5b906020019060200201818152505085818151811015156113ed57fe5b9060200190602002015160200151600160028110151561140957fe5b6020020151826005600684020181518110151561142257fe5b90602001906020020181815250508080600101915050611268565b506114466115c0565b60006020826020860260208601600060086107d05a03f19050806000811461146d5761146f565bfe5b5080151561147c57600080fd5b600082600060018110151561148d57fe5b602002015114159550505050505092915050565b610100604051908101604052806114b6611539565b81526020016114c3611599565b81526020016114d0611539565b81525090565b6101e0604051908101604052806114eb611539565b81526020016114f8611599565b8152602001611505611599565b8152602001611512611599565b8152602001606081525090565b604080519081016040528060008152602001600081525090565b604080519081016040528060008152602001600081525090565b606060405190810160405280600390602082028038833980820191505090505090565b608060405190810160405280600490602082028038833980820191505090505090565b6080604051908101604052806115ad6115e3565b81526020016115ba6115e3565b81525090565b602060405190810160405280600190602082028038833980820191505090505090565b604080519081016040528060029060208202803883398082019150509050509056fe5472616e73616374696f6e207375636365737366756c6c792076657269666965642ea165627a7a723058200f67bb992179ce2c760431c43678c405405d60337dc3b54f5281718c5825910b0029",
  "source": "pragma solidity ^0.5.2;\n\nimport {Verifier as SpendNoteVerifier} from \"./verifiers/SpendNoteVerifier.sol\";\nimport \"./ZkDaiBase.sol\";\n\n\ncontract SpendNotes is SpendNoteVerifier, ZkDaiBase {\n  uint8 internal constant NUM_PUBLIC_INPUTS = 7;\n\n  /**\n  * @dev Hashes the submitted proof and adds it to the submissions mapping that tracks\n  *      submission time, type, public inputs of the zkSnark and the submitter\n  */\n  function submit(\n      uint256[2] memory a,\n      uint256[2][2] memory b,\n      uint256[2] memory c,\n      uint256[7] memory input)\n    internal\n  {\n      bytes32 proofHash = getProofHash(a, b, c);\n      uint256[] memory publicInput = new uint256[](NUM_PUBLIC_INPUTS);\n      for(uint8 i = 0; i < NUM_PUBLIC_INPUTS; i++) {\n        publicInput[i] = input[i];\n      }\n      submissions[proofHash] = Submission(msg.sender, SubmissionType.Spend, now, publicInput);\n      emit Submitted(msg.sender, proofHash);\n  }\n\n  /**\n  * @dev Commits the proof i.e. Marks the input note as Spent and mints two new output notes that came with the proof.\n  * @param proofHash Hash of the proof to be committed\n  */\n  function spendCommit(bytes32 proofHash)\n    internal\n  {\n      Submission storage submission = submissions[proofHash];\n      bytes32[3] memory _notes = get3Notes(submission.publicInput);\n      // check that the first note (among public params) is committed and\n      // new notes should not be existing at this point\n      require(notes[_notes[0]] == State.Committed, \"Note is either invalid or already spent\");\n      require(notes[_notes[1]] == State.Invalid, \"output note1 is already minted\");\n      require(notes[_notes[2]] == State.Invalid, \"output note2 is already minted\");\n\n      notes[_notes[0]] = State.Spent;\n      notes[_notes[1]] = State.Committed;\n      notes[_notes[2]] = State.Committed;\n\n      delete submissions[proofHash];\n      submission.submitter.transfer(stake);\n      emit NoteStateChange(_notes[0], State.Spent);\n      emit NoteStateChange(_notes[1], State.Committed);\n      emit NoteStateChange(_notes[2], State.Committed);\n  }\n\n  function get3Notes(uint256[] memory input)\n    internal\n    pure\n    returns(bytes32[3] memory notes)\n  {\n      notes[0] = calcNoteHash(input[0], input[1]);\n      notes[1] = calcNoteHash(input[2], input[3]);\n      notes[2] = calcNoteHash(input[4], input[5]);\n  }\n\n  /**\n  * @dev Challenge the proof for spend step\n  * @notice params: a, a_p, b, b_p, c, c_p, h, k zkSnark parameters of the challenged proof\n  * @param proofHash Hash of the proof\n  */\n  function challenge(\n      uint256[2] memory a,\n      uint256[2][2] memory b,\n      uint256[2] memory c,\n      bytes32 proofHash)\n    internal\n  {\n      Submission storage submission = submissions[proofHash];\n      uint256[NUM_PUBLIC_INPUTS] memory input;\n      for(uint i = 0; i < NUM_PUBLIC_INPUTS; i++) {\n        input[i] = submission.publicInput[i];\n      }\n      if (!verifyTx(a, b, c, input)) {\n        // challenge passed\n        delete submissions[proofHash];\n        msg.sender.transfer(stake);\n        emit Challenged(msg.sender, proofHash);\n      } else {\n        // challenge failed\n        spendCommit(proofHash);\n      }\n  }\n}\n",
  "sourcePath": "/home/boo/work/LightningZKP/contracts/SpendNotes.sol",
  "compiler": {
    "name": "solc",
    "version": "0.5.2+commit.1df8f40c.Emscripten.clang"
  },
  "schemaVersion": "3.0.11",
  "updatedAt": "2019-08-19T06:24:02.325Z",
  "devdoc": {
    "methods": {}
  },
  "userdoc": {
    "methods": {}
  }
}