{
  "contractName": "TestZkDai",
  "abi": [
    {
      "constant": false,
      "inputs": [
        {
          "name": "poolId",
          "type": "bytes32"
        },
        {
          "name": "mpkAddress",
          "type": "address"
        },
        {
          "name": "msgHash",
          "type": "bytes32"
        },
        {
          "name": "transferNotesNum",
          "type": "uint8"
        },
        {
          "name": "v",
          "type": "uint8"
        },
        {
          "name": "r",
          "type": "bytes32"
        },
        {
          "name": "s",
          "type": "bytes32"
        }
      ],
      "name": "commitPaymentTx",
      "outputs": [],
      "payable": false,
      "stateMutability": "nonpayable",
      "type": "function"
    },
    {
      "constant": false,
      "inputs": [
        {
          "name": "a",
          "type": "uint256[2]"
        },
        {
          "name": "b",
          "type": "uint256[2][2]"
        },
        {
          "name": "c",
          "type": "uint256[2]"
        },
        {
          "name": "input",
          "type": "uint256[4]"
        }
      ],
      "name": "liquidateVerifyTx",
      "outputs": [
        {
          "name": "r",
          "type": "bool"
        }
      ],
      "payable": false,
      "stateMutability": "nonpayable",
      "type": "function"
    },
    {
      "constant": false,
      "inputs": [
        {
          "name": "a",
          "type": "uint256[2]"
        },
        {
          "name": "b",
          "type": "uint256[2][2]"
        },
        {
          "name": "c",
          "type": "uint256[2]"
        },
        {
          "name": "input",
          "type": "uint256[31]"
        }
      ],
      "name": "deposit_5",
      "outputs": [],
      "payable": true,
      "stateMutability": "payable",
      "type": "function"
    },
    {
      "constant": false,
      "inputs": [
        {
          "name": "a",
          "type": "uint256[2]"
        },
        {
          "name": "b",
          "type": "uint256[2][2]"
        },
        {
          "name": "c",
          "type": "uint256[2]"
        },
        {
          "name": "input",
          "type": "uint256[4]"
        }
      ],
      "name": "mintVerifyTx",
      "outputs": [
        {
          "name": "r",
          "type": "bool"
        }
      ],
      "payable": false,
      "stateMutability": "nonpayable",
      "type": "function"
    },
    {
      "constant": true,
      "inputs": [
        {
          "name": "",
          "type": "bytes32"
        }
      ],
      "name": "depositPools",
      "outputs": [
        {
          "name": "mpkAddress",
          "type": "address"
        },
        {
          "name": "expiredTime",
          "type": "uint256"
        },
        {
          "name": "maxNotesNum",
          "type": "uint8"
        },
        {
          "name": "lastNotesNum",
          "type": "uint8"
        }
      ],
      "payable": false,
      "stateMutability": "view",
      "type": "function"
    },
    {
      "constant": true,
      "inputs": [],
      "name": "stake",
      "outputs": [
        {
          "name": "",
          "type": "uint256"
        }
      ],
      "payable": false,
      "stateMutability": "view",
      "type": "function"
    },
    {
      "constant": false,
      "inputs": [
        {
          "name": "to",
          "type": "address"
        },
        {
          "name": "a",
          "type": "uint256[2]"
        },
        {
          "name": "b",
          "type": "uint256[2][2]"
        },
        {
          "name": "c",
          "type": "uint256[2]"
        },
        {
          "name": "input",
          "type": "uint256[4]"
        }
      ],
      "name": "liquidate",
      "outputs": [],
      "payable": true,
      "stateMutability": "payable",
      "type": "function"
    },
    {
      "constant": false,
      "inputs": [
        {
          "name": "a",
          "type": "uint256[2]"
        },
        {
          "name": "b",
          "type": "uint256[2][2]"
        },
        {
          "name": "c",
          "type": "uint256[2]"
        },
        {
          "name": "input",
          "type": "uint256[7]"
        }
      ],
      "name": "spendVerifyTx",
      "outputs": [
        {
          "name": "r",
          "type": "bool"
        }
      ],
      "payable": false,
      "stateMutability": "nonpayable",
      "type": "function"
    },
    {
      "constant": false,
      "inputs": [
        {
          "name": "a",
          "type": "uint256[2]"
        },
        {
          "name": "b",
          "type": "uint256[2][2]"
        },
        {
          "name": "c",
          "type": "uint256[2]"
        },
        {
          "name": "input",
          "type": "uint256[51]"
        }
      ],
      "name": "depositVerifyTx",
      "outputs": [
        {
          "name": "r",
          "type": "bool"
        }
      ],
      "payable": false,
      "stateMutability": "nonpayable",
      "type": "function"
    },
    {
      "constant": true,
      "inputs": [
        {
          "name": "addr",
          "type": "address"
        },
        {
          "name": "msgHash",
          "type": "bytes32"
        },
        {
          "name": "v",
          "type": "uint8"
        },
        {
          "name": "r",
          "type": "bytes32"
        },
        {
          "name": "s",
          "type": "bytes32"
        }
      ],
      "name": "paymentTxVerify",
      "outputs": [
        {
          "name": "",
          "type": "bool"
        }
      ],
      "payable": false,
      "stateMutability": "view",
      "type": "function"
    },
    {
      "constant": false,
      "inputs": [
        {
          "name": "a",
          "type": "uint256[2]"
        },
        {
          "name": "b",
          "type": "uint256[2][2]"
        },
        {
          "name": "c",
          "type": "uint256[2]"
        },
        {
          "name": "input",
          "type": "uint256[4]"
        }
      ],
      "name": "mint",
      "outputs": [],
      "payable": true,
      "stateMutability": "payable",
      "type": "function"
    },
    {
      "constant": false,
      "inputs": [
        {
          "name": "a",
          "type": "uint256[2]"
        },
        {
          "name": "b",
          "type": "uint256[2][2]"
        },
        {
          "name": "c",
          "type": "uint256[2]"
        },
        {
          "name": "input",
          "type": "uint256[19]"
        }
      ],
      "name": "depositVerifyTx",
      "outputs": [
        {
          "name": "r",
          "type": "bool"
        }
      ],
      "payable": false,
      "stateMutability": "nonpayable",
      "type": "function"
    },
    {
      "constant": true,
      "inputs": [],
      "name": "cooldown",
      "outputs": [
        {
          "name": "",
          "type": "uint256"
        }
      ],
      "payable": false,
      "stateMutability": "view",
      "type": "function"
    },
    {
      "constant": false,
      "inputs": [
        {
          "name": "a",
          "type": "uint256[2]"
        },
        {
          "name": "b",
          "type": "uint256[2][2]"
        },
        {
          "name": "c",
          "type": "uint256[2]"
        }
      ],
      "name": "challenge",
      "outputs": [],
      "payable": false,
      "stateMutability": "nonpayable",
      "type": "function"
    },
    {
      "constant": true,
      "inputs": [
        {
          "name": "msgHash",
          "type": "bytes32"
        },
        {
          "name": "v",
          "type": "uint8"
        },
        {
          "name": "r",
          "type": "bytes32"
        },
        {
          "name": "s",
          "type": "bytes32"
        }
      ],
      "name": "recoverAddress",
      "outputs": [
        {
          "name": "",
          "type": "address"
        }
      ],
      "payable": false,
      "stateMutability": "view",
      "type": "function"
    },
    {
      "constant": true,
      "inputs": [
        {
          "name": "",
          "type": "bytes32"
        }
      ],
      "name": "notes",
      "outputs": [
        {
          "name": "",
          "type": "uint8"
        }
      ],
      "payable": false,
      "stateMutability": "view",
      "type": "function"
    },
    {
      "constant": false,
      "inputs": [
        {
          "name": "a",
          "type": "uint256[2]"
        },
        {
          "name": "b",
          "type": "uint256[2][2]"
        },
        {
          "name": "c",
          "type": "uint256[2]"
        },
        {
          "name": "input",
          "type": "uint256[31]"
        }
      ],
      "name": "depositVerifyTx",
      "outputs": [
        {
          "name": "r",
          "type": "bool"
        }
      ],
      "payable": false,
      "stateMutability": "nonpayable",
      "type": "function"
    },
    {
      "constant": false,
      "inputs": [
        {
          "name": "a",
          "type": "uint256[2]"
        },
        {
          "name": "b",
          "type": "uint256[2][2]"
        },
        {
          "name": "c",
          "type": "uint256[2]"
        },
        {
          "name": "input",
          "type": "uint256[19]"
        }
      ],
      "name": "deposit_2",
      "outputs": [],
      "payable": true,
      "stateMutability": "payable",
      "type": "function"
    },
    {
      "constant": false,
      "inputs": [
        {
          "name": "poolId",
          "type": "bytes32"
        }
      ],
      "name": "ClaimExpiredPool",
      "outputs": [],
      "payable": false,
      "stateMutability": "nonpayable",
      "type": "function"
    },
    {
      "constant": true,
      "inputs": [
        {
          "name": "",
          "type": "bytes32"
        }
      ],
      "name": "submissions",
      "outputs": [
        {
          "name": "submitter",
          "type": "address"
        },
        {
          "name": "sType",
          "type": "uint8"
        },
        {
          "name": "submittedAt",
          "type": "uint256"
        }
      ],
      "payable": false,
      "stateMutability": "view",
      "type": "function"
    },
    {
      "constant": false,
      "inputs": [
        {
          "name": "a",
          "type": "uint256[2]"
        },
        {
          "name": "b",
          "type": "uint256[2][2]"
        },
        {
          "name": "c",
          "type": "uint256[2]"
        },
        {
          "name": "input",
          "type": "uint256[51]"
        }
      ],
      "name": "deposit_10",
      "outputs": [],
      "payable": true,
      "stateMutability": "payable",
      "type": "function"
    },
    {
      "constant": false,
      "inputs": [
        {
          "name": "proofHash",
          "type": "bytes32"
        }
      ],
      "name": "commit",
      "outputs": [],
      "payable": false,
      "stateMutability": "nonpayable",
      "type": "function"
    },
    {
      "constant": true,
      "inputs": [],
      "name": "dai",
      "outputs": [
        {
          "name": "",
          "type": "address"
        }
      ],
      "payable": false,
      "stateMutability": "view",
      "type": "function"
    },
    {
      "constant": false,
      "inputs": [
        {
          "name": "a",
          "type": "uint256[2]"
        },
        {
          "name": "b",
          "type": "uint256[2][2]"
        },
        {
          "name": "c",
          "type": "uint256[2]"
        },
        {
          "name": "input",
          "type": "uint256[7]"
        }
      ],
      "name": "spend",
      "outputs": [],
      "payable": true,
      "stateMutability": "payable",
      "type": "function"
    },
    {
      "inputs": [
        {
          "name": "_cooldown",
          "type": "uint256"
        },
        {
          "name": "_stake",
          "type": "uint256"
        },
        {
          "name": "daiTokenAddress",
          "type": "address"
        }
      ],
      "payable": false,
      "stateMutability": "nonpayable",
      "type": "constructor"
    },
    {
      "anonymous": false,
      "inputs": [
        {
          "indexed": false,
          "name": "note",
          "type": "bytes32"
        },
        {
          "indexed": false,
          "name": "state",
          "type": "uint8"
        }
      ],
      "name": "NoteStateChange",
      "type": "event"
    },
    {
      "anonymous": false,
      "inputs": [
        {
          "indexed": false,
          "name": "submitter",
          "type": "address"
        },
        {
          "indexed": false,
          "name": "proofHash",
          "type": "bytes32"
        }
      ],
      "name": "Submitted",
      "type": "event"
    },
    {
      "anonymous": false,
      "inputs": [
        {
          "indexed": false,
          "name": "mpkAddress",
          "type": "address"
        },
        {
          "indexed": false,
          "name": "poolId",
          "type": "bytes32"
        }
      ],
      "name": "Deposited",
      "type": "event"
    },
    {
      "anonymous": false,
      "inputs": [
        {
          "indexed": true,
          "name": "challenger",
          "type": "address"
        },
        {
          "indexed": false,
          "name": "proofHash",
          "type": "bytes32"
        }
      ],
      "name": "Challenged",
      "type": "event"
    },
    {
      "anonymous": false,
      "inputs": [
        {
          "indexed": false,
          "name": "s",
          "type": "string"
        }
      ],
      "name": "LiquidateVerified",
      "type": "event"
    },
    {
      "anonymous": false,
      "inputs": [
        {
          "indexed": false,
          "name": "s",
          "type": "string"
        }
      ],
      "name": "DepositVerified",
      "type": "event"
    },
    {
      "anonymous": false,
      "inputs": [
        {
          "indexed": false,
          "name": "s",
          "type": "string"
        }
      ],
      "name": "SpendVerified",
      "type": "event"
    },
    {
      "anonymous": false,
      "inputs": [
        {
          "indexed": false,
          "name": "s",
          "type": "string"
        }
      ],
      "name": "MintVerified",
      "type": "event"
    },
    {
      "constant": false,
      "inputs": [
        {
          "name": "_cooldown",
          "type": "uint256"
        }
      ],
      "name": "setCooldown",
      "outputs": [],
      "payable": false,
      "stateMutability": "nonpayable",
      "type": "function"
    }
  ],
  "bytecode": "0x60806040523480156200001157600080fd5b506040516060806200b099833981018060405260608110156200003357600080fd5b81019080805190602001909291908051906020019092919080519060200190929190505050828282826000819055508160018190555080600260006101000a81548173ffffffffffffffffffffffffffffffffffffffff021916908373ffffffffffffffffffffffffffffffffffffffff16021790555050505050505061afd980620000c06000396000f3fe608060405260043610610183576000357c0100000000000000000000000000000000000000000000000000000000900480637583cf72116100ee57806399fd7a65116100a7578063ed69967411610081578063ed69967414611074578063f14fcbc8146110c2578063f4b9fa75146110fd578063fd696b6e1461115457610183565b806399fd7a6514610f54578063a0d1192d14610fa2578063c5c9c0a214610fdd57610183565b80637583cf7214610ad2578063787a08a614610c595780637f67df4c14610c845780638428cf8314610cd457806385de26b714610d7057806389541e8514610dcd57610183565b80634fc3f41a116101405780634fc3f41a1461063c57806355258f7b146106775780635c998527146106e45780636457ce441461086a5780636b6e3f94146109f15780637255ae7b14610a8557610183565b806308da9f78146101885780631210c56d1461021b57806316f5b90e146103a15780631fa41b3f146103ef57806338cd8093146105755780633a4b66f114610611575b600080fd5b34801561019457600080fd5b50610219600480360360e08110156101ab57600080fd5b8101908080359060200190929190803573ffffffffffffffffffffffffffffffffffffffff16906020019092919080359060200190929190803560ff169060200190929190803560ff16906020019092919080359060200190929190803590602001909291905050506111a1565b005b34801561022757600080fd5b50610387600480360361018081101561023f57600080fd5b8101908080604001906002806020026040519081016040528092919082600260200280828437600081840152601f19601f82011690508083019250505050505091929192908060800190600280602002604051908101604052809291906000905b828210156102f4578382604002016002806020026040519081016040528092919082600260200280828437600081840152601f19601f820116905080830192505050505050815260200190600101906102a0565b50505050919291929080604001906002806020026040519081016040528092919082600260200280828437600081840152601f19601f820116905080830192505050505050919291929080608001906004806020026040519081016040528092919082600460200280828437600081840152601f19601f82011690508083019250505050505091929192905050506113cd565b604051808215151515815260200191505060405180910390f35b6103ed60048036036104e08110156103b857600080fd5b81019080806040019091929192908060800190919291929080604001909192919290806103e001909192919290505050611632565b005b3480156103fb57600080fd5b5061055b600480360361018081101561041357600080fd5b8101908080604001906002806020026040519081016040528092919082600260200280828437600081840152601f19601f82011690508083019250505050505091929192908060800190600280602002604051908101604052809291906000905b828210156104c8578382604002016002806020026040519081016040528092919082600260200280828437600081840152601f19601f82011690508083019250505050505081526020019060010190610474565b50505050919291929080604001906002806020026040519081016040528092919082600260200280828437600081840152601f19601f820116905080830192505050505050919291929080608001906004806020026040519081016040528092919082600460200280828437600081840152601f19601f8201169050808301925050505050509192919290505050611758565b604051808215151515815260200191505060405180910390f35b34801561058157600080fd5b506105ae6004803603602081101561059857600080fd5b81019080803590602001909291905050506119bd565b604051808573ffffffffffffffffffffffffffffffffffffffff1673ffffffffffffffffffffffffffffffffffffffff1681526020018481526020018360ff1660ff1681526020018260ff1660ff16815260200194505050505060405180910390f35b34801561061d57600080fd5b50610626611a27565b6040518082815260200191505060405180910390f35b34801561064857600080fd5b506106756004803603602081101561065f57600080fd5b8101908080359060200190929190505050611a2d565b005b6106e260048036036101a081101561068e57600080fd5b81019080803573ffffffffffffffffffffffffffffffffffffffff16906020019092919080604001909192919290806080019091929192908060400190919291929080608001909192919290505050611a37565b005b3480156106f057600080fd5b5061085060048036036101e081101561070857600080fd5b8101908080604001906002806020026040519081016040528092919082600260200280828437600081840152601f19601f82011690508083019250505050505091929192908060800190600280602002604051908101604052809291906000905b828210156107bd578382604002016002806020026040519081016040528092919082600260200280828437600081840152601f19601f82011690508083019250505050505081526020019060010190610769565b50505050919291929080604001906002806020026040519081016040528092919082600260200280828437600081840152601f19601f82011690508083019250505050505091929192908060e001906007806020026040519081016040528092919082600760200280828437600081840152601f19601f8201169050808301925050505050509192919290505050611b5f565b604051808215151515815260200191505060405180910390f35b34801561087657600080fd5b506109d7600480360361076081101561088e57600080fd5b8101908080604001906002806020026040519081016040528092919082600260200280828437600081840152601f19601f82011690508083019250505050505091929192908060800190600280602002604051908101604052809291906000905b82821015610943578382604002016002806020026040519081016040528092919082600260200280828437600081840152601f19601f820116905080830192505050505050815260200190600101906108ef565b50505050919291929080604001906002806020026040519081016040528092919082600260200280828437600081840152601f19601f82011690508083019250505050505091929192908061066001906033806020026040519081016040528092919082603360200280828437600081840152601f19601f8201169050808301925050505050509192919290505050611dc4565b604051808215151515815260200191505060405180910390f35b3480156109fd57600080fd5b50610a6b600480360360a0811015610a1457600080fd5b81019080803573ffffffffffffffffffffffffffffffffffffffff16906020019092919080359060200190929190803560ff1690602001909291908035906020019092919080359060200190929190505050612029565b604051808215151515815260200191505060405180910390f35b610ad06004803603610180811015610a9c57600080fd5b8101908080604001909192919290806080019091929192908060400190919291929080608001909192919290505050612070565b005b348015610ade57600080fd5b50610c3f6004803603610360811015610af657600080fd5b8101908080604001906002806020026040519081016040528092919082600260200280828437600081840152601f19601f82011690508083019250505050505091929192908060800190600280602002604051908101604052809291906000905b82821015610bab578382604002016002806020026040519081016040528092919082600260200280828437600081840152601f19601f82011690508083019250505050505081526020019060010190610b57565b50505050919291929080604001906002806020026040519081016040528092919082600260200280828437600081840152601f19601f82011690508083019250505050505091929192908061026001906013806020026040519081016040528092919082601360200280828437600081840152601f19601f82011690508083019250505050505091929192905050506123cc565b604051808215151515815260200191505060405180910390f35b348015610c6557600080fd5b50610c6e612631565b6040518082815260200191505060405180910390f35b348015610c9057600080fd5b50610cd26004803603610100811015610ca857600080fd5b81019080806040019091929192908060800190919291929080604001909192919290505050612637565b005b348015610ce057600080fd5b50610d2e60048036036080811015610cf757600080fd5b8101908080359060200190929190803560ff1690602001909291908035906020019092919080359060200190929190505050612c9d565b604051808273ffffffffffffffffffffffffffffffffffffffff1673ffffffffffffffffffffffffffffffffffffffff16815260200191505060405180910390f35b348015610d7c57600080fd5b50610da960048036036020811015610d9357600080fd5b8101908080359060200190929190505050612d10565b60405180826003811115610db957fe5b60ff16815260200191505060405180910390f35b348015610dd957600080fd5b50610f3a60048036036104e0811015610df157600080fd5b8101908080604001906002806020026040519081016040528092919082600260200280828437600081840152601f19601f82011690508083019250505050505091929192908060800190600280602002604051908101604052809291906000905b82821015610ea6578382604002016002806020026040519081016040528092919082600260200280828437600081840152601f19601f82011690508083019250505050505081526020019060010190610e52565b50505050919291929080604001906002806020026040519081016040528092919082600260200280828437600081840152601f19601f8201169050808301925050505050509192919290806103e00190601f806020026040519081016040528092919082601f60200280828437600081840152601f19601f8201169050808301925050505050509192919290505050612d30565b604051808215151515815260200191505060405180910390f35b610fa06004803603610360811015610f6b57600080fd5b810190808060400190919291929080608001909192919290806040019091929192908061026001909192919290505050612f95565b005b348015610fae57600080fd5b50610fdb60048036036020811015610fc557600080fd5b81019080803590602001909291905050506130bb565b005b348015610fe957600080fd5b506110166004803603602081101561100057600080fd5b8101908080359060200190929190505050613394565b604051808473ffffffffffffffffffffffffffffffffffffffff1673ffffffffffffffffffffffffffffffffffffffff16815260200183600481111561105857fe5b60ff168152602001828152602001935050505060405180910390f35b6110c0600480360361076081101561108b57600080fd5b8101908080604001909192919290806080019091929192908060400190919291929080610660019091929192905050506133eb565b005b3480156110ce57600080fd5b506110fb600480360360208110156110e557600080fd5b8101908080359060200190929190505050613511565b005b34801561110957600080fd5b50611112613741565b604051808273ffffffffffffffffffffffffffffffffffffffff1673ffffffffffffffffffffffffffffffffffffffff16815260200191505060405180910390f35b61119f60048036036101e081101561116b57600080fd5b810190808060400190919291929080608001909192919290806040019091929192908060e001909192919290505050613767565b005b60006003600089815260200190815260200160002090508673ffffffffffffffffffffffffffffffffffffffff168160000160009054906101000a900473ffffffffffffffffffffffffffffffffffffffff1673ffffffffffffffffffffffffffffffffffffffff16141515611262576040517f08c379a000000000000000000000000000000000000000000000000000000000815260040180806020018281038252603381526020018061af536033913960400191505060405180910390fd5b878786604051602001808481526020018373ffffffffffffffffffffffffffffffffffffffff1673ffffffffffffffffffffffffffffffffffffffff166c010000000000000000000000000281526014018260ff1660ff167f010000000000000000000000000000000000000000000000000000000000000002815260010193505050506040516020818303038152906040528051906020012086141515611355576040517f08c379a000000000000000000000000000000000000000000000000000000000815260040180806020018281038252603381526020018061af536033913960400191505060405180910390fd5b6113628787868686612029565b15156113b9576040517f08c379a000000000000000000000000000000000000000000000000000000000815260040180806020018281038252602381526020018061af306023913960400191505060405180910390fd5b6113c3888661388d565b5050505050505050565b60006113d761ab44565b60408051908101604052808760006002811015156113f157fe5b6020020151815260200187600160028110151561140a57fe5b602002015181525081600001819052506040805190810160405280604080519081016040528088600060028110151561143f57fe5b6020020151600060028110151561145257fe5b6020020151815260200188600060028110151561146b57fe5b6020020151600160028110151561147e57fe5b6020020151815250815260200160408051908101604052808860016002811015156114a557fe5b602002015160006002811015156114b857fe5b602002015181526020018860016002811015156114d157fe5b602002015160016002811015156114e457fe5b60200201518152508152508160200181905250604080519081016040528085600060028110151561151157fe5b6020020151815260200185600160028110151561152a57fe5b602002015181525081604001819052506060600460405190808252806020026020018201604052801561156c5781602001602082028038833980820191505090505b50905060008090505b60048110156115ba57848160048110151561158c57fe5b6020020151828281518110151561159f57fe5b90602001906020020181815250508080600101915050611575565b5060006115c78284613b7b565b1415611623577f46d48f0a138fd14dfc4a9086422b1a886a0f02eade5d6abef007754fe4b06bc060405180806020018281038252602281526020018061af0e6022913960400191505060405180910390a160019250505061162a565b6000925050505b949350505050565b611752846002806020026040519081016040528092919082600260200280828437600081840152601f19601f82011690508083019250505050505084600280602002604051908101604052809291906000905b828210156116d9578382604002016002806020026040519081016040528092919082600260200280828437600081840152601f19601f82011690508083019250505050505081526020019060010190611685565b50505050846002806020026040519081016040528092919082600260200280828437600081840152601f19601f82011690508083019250505050505084601f806020026040519081016040528092919082601f60200280828437600081840152601f19601f820116905080830192505050505050613d03565b50505050565b600061176261ab44565b604080519081016040528087600060028110151561177c57fe5b6020020151815260200187600160028110151561179557fe5b60200201518152508160000181905250604080519081016040528060408051908101604052808860006002811015156117ca57fe5b602002015160006002811015156117dd57fe5b602002015181526020018860006002811015156117f657fe5b6020020151600160028110151561180957fe5b60200201518152508152602001604080519081016040528088600160028110151561183057fe5b6020020151600060028110151561184357fe5b6020020151815260200188600160028110151561185c57fe5b6020020151600160028110151561186f57fe5b60200201518152508152508160200181905250604080519081016040528085600060028110151561189c57fe5b602002015181526020018560016002811015156118b557fe5b60200201518152508160400181905250606060046040519080825280602002602001820160405280156118f75781602001602082028038833980820191505090505b50905060008090505b600481101561194557848160048110151561191757fe5b6020020151828281518110151561192a57fe5b90602001906020020181815250508080600101915050611900565b5060006119528284613f05565b14156119ae577f2cef7d724e9df39531c164620567bd12bd8ca7b47fa53317f1078c2f2d5951ce60405180806020018281038252602281526020018061af0e6022913960400191505060405180910390a16001925050506119b5565b6000925050505b949350505050565b60036020528060005260406000206000915090508060000160009054906101000a900473ffffffffffffffffffffffffffffffffffffffff16908060010154908060020160009054906101000a900460ff16908060020160019054906101000a900460ff16905084565b60015481565b8060008190555050565b611b5885856002806020026040519081016040528092919082600260200280828437600081840152601f19601f82011690508083019250505050505085600280602002604051908101604052809291906000905b82821015611adf578382604002016002806020026040519081016040528092919082600260200280828437600081840152601f19601f82011690508083019250505050505081526020019060010190611a8b565b50505050856002806020026040519081016040528092919082600260200280828437600081840152601f19601f820116905080830192505050505050856004806020026040519081016040528092919082600460200280828437600081840152601f19601f82011690508083019250505050505061408d565b5050505050565b6000611b6961ab44565b6040805190810160405280876000600281101515611b8357fe5b60200201518152602001876001600281101515611b9c57fe5b6020020151815250816000018190525060408051908101604052806040805190810160405280886000600281101515611bd157fe5b60200201516000600281101515611be457fe5b60200201518152602001886000600281101515611bfd57fe5b60200201516001600281101515611c1057fe5b602002015181525081526020016040805190810160405280886001600281101515611c3757fe5b60200201516000600281101515611c4a57fe5b60200201518152602001886001600281101515611c6357fe5b60200201516001600281101515611c7657fe5b602002015181525081525081602001819052506040805190810160405280856000600281101515611ca357fe5b60200201518152602001856001600281101515611cbc57fe5b6020020151815250816040018190525060606007604051908082528060200260200182016040528015611cfe5781602001602082028038833980820191505090505b50905060008090505b6007811015611d4c578481600781101515611d1e57fe5b60200201518282815181101515611d3157fe5b90602001906020020181815250508080600101915050611d07565b506000611d5982846142cb565b1415611db5577ff6cb06d2e93a0bf2c44f15288883c84bd0564b45a72d58a8b0793915bd00eb1b60405180806020018281038252602281526020018061af0e6022913960400191505060405180910390a1600192505050611dbc565b6000925050505b949350505050565b6000611dce61ab44565b6040805190810160405280876000600281101515611de857fe5b60200201518152602001876001600281101515611e0157fe5b6020020151815250816000018190525060408051908101604052806040805190810160405280886000600281101515611e3657fe5b60200201516000600281101515611e4957fe5b60200201518152602001886000600281101515611e6257fe5b60200201516001600281101515611e7557fe5b602002015181525081526020016040805190810160405280886001600281101515611e9c57fe5b60200201516000600281101515611eaf57fe5b60200201518152602001886001600281101515611ec857fe5b60200201516001600281101515611edb57fe5b602002015181525081525081602001819052506040805190810160405280856000600281101515611f0857fe5b60200201518152602001856001600281101515611f2157fe5b6020020151815250816040018190525060606033604051908082528060200260200182016040528015611f635781602001602082028038833980820191505090505b50905060008090505b6033811015611fb1578481603381101515611f8357fe5b60200201518282815181101515611f9657fe5b90602001906020020181815250508080600101915050611f6c565b506000611fbe8284614453565b141561201a577f07fb15b1ebdfd9751a3925ece10a8bff6b5f6ce237f0d1385e2176fa8153eb6360405180806020018281038252602281526020018061af0e6022913960400191505060405180910390a1600192505050612021565b6000925050505b949350505050565b600061203785858585612c9d565b73ffffffffffffffffffffffffffffffffffffffff168673ffffffffffffffffffffffffffffffffffffffff1614905095945050505050565b34600154811415156120ea576040517f08c379a00000000000000000000000000000000000000000000000000000000081526004018080602001828103825260148152602001807f496e76616c6964207374616b6520616d6f756e7400000000000000000000000081525060200191505060405180910390fd5b600260009054906101000a900473ffffffffffffffffffffffffffffffffffffffff1673ffffffffffffffffffffffffffffffffffffffff166323b872dd333085600260048110151561213957fe5b60200201356040518463ffffffff167c0100000000000000000000000000000000000000000000000000000000028152600401808473ffffffffffffffffffffffffffffffffffffffff1673ffffffffffffffffffffffffffffffffffffffff1681526020018373ffffffffffffffffffffffffffffffffffffffff1673ffffffffffffffffffffffffffffffffffffffff1681526020018281526020019350505050602060405180830381600087803b1580156121f657600080fd5b505af115801561220a573d6000803e3d6000fd5b505050506040513d602081101561222057600080fd5b810190808051906020019092919050505015156122a5576040517f08c379a00000000000000000000000000000000000000000000000000000000081526004018080602001828103825260188152602001807f646169546f6b656e207472616e73666572206661696c6564000000000000000081525060200191505060405180910390fd5b6123c5856002806020026040519081016040528092919082600260200280828437600081840152601f19601f82011690508083019250505050505085600280602002604051908101604052809291906000905b8282101561234c578382604002016002806020026040519081016040528092919082600260200280828437600081840152601f19601f820116905080830192505050505050815260200190600101906122f8565b50505050856002806020026040519081016040528092919082600260200280828437600081840152601f19601f820116905080830192505050505050856004806020026040519081016040528092919082600460200280828437600081840152601f19601f8201169050808301925050505050506145db565b5050505050565b60006123d661ab44565b60408051908101604052808760006002811015156123f057fe5b6020020151815260200187600160028110151561240957fe5b602002015181525081600001819052506040805190810160405280604080519081016040528088600060028110151561243e57fe5b6020020151600060028110151561245157fe5b6020020151815260200188600060028110151561246a57fe5b6020020151600160028110151561247d57fe5b6020020151815250815260200160408051908101604052808860016002811015156124a457fe5b602002015160006002811015156124b757fe5b602002015181526020018860016002811015156124d057fe5b602002015160016002811015156124e357fe5b60200201518152508152508160200181905250604080519081016040528085600060028110151561251057fe5b6020020151815260200185600160028110151561252957fe5b602002015181525081604001819052506060601360405190808252806020026020018201604052801561256b5781602001602082028038833980820191505090505b50905060008090505b60138110156125b957848160138110151561258b57fe5b6020020151828281518110151561259e57fe5b90602001906020020181815250508080600101915050612574565b5060006125c68284614453565b1415612622577f07fb15b1ebdfd9751a3925ece10a8bff6b5f6ce237f0d1385e2176fa8153eb6360405180806020018281038252602281526020018061af0e6022913960400191505060405180910390a1600192505050612629565b6000925050505b949350505050565b60005481565b6000612721846002806020026040519081016040528092919082600260200280828437600081840152601f19601f82011690508083019250505050505084600280602002604051908101604052809291906000905b828210156126e0578382604002016002806020026040519081016040528092919082600260200280828437600081840152601f19601f8201169050808301925050505050508152602001906001019061268c565b50505050846002806020026040519081016040528092919082600260200280828437600081840152601f19601f8201169050808301925050505050506147db565b905060006004600083815260200190815260200160002090506000600481111561274757fe5b8160000160149054906101000a900460ff16600481111561276457fe5b141515156127bd576040517f08c379a000000000000000000000000000000000000000000000000000000000815260040180806020018281038252602881526020018061af866028913960400191505060405180910390fd5b4260005482600101540110151515612820576040517f08c379a000000000000000000000000000000000000000000000000000000000815260040180806020018281038252602181526020018061aeed6021913960400191505060405180910390fd5b6001600481111561282d57fe5b8160000160149054906101000a900460ff16600481111561284a57fe5b141561293e57612939856002806020026040519081016040528092919082600260200280828437600081840152601f19601f82011690508083019250505050505085600280602002604051908101604052809291906000905b828210156128f7578382604002016002806020026040519081016040528092919082600260200280828437600081840152601f19601f820116905080830192505050505050815260200190600101906128a3565b50505050856002806020026040519081016040528092919082600260200280828437600081840152601f19601f820116905080830192505050505050856148b8565b612c96565b6002600481111561294b57fe5b8160000160149054906101000a900460ff16600481111561296857fe5b1415612a5c57612a57856002806020026040519081016040528092919082600260200280828437600081840152601f19601f82011690508083019250505050505085600280602002604051908101604052809291906000905b82821015612a15578382604002016002806020026040519081016040528092919082600260200280828437600081840152601f19601f820116905080830192505050505050815260200190600101906129c1565b50505050856002806020026040519081016040528092919082600260200280828437600081840152601f19601f82011690508083019250505050505085614a53565b612c95565b60036004811115612a6957fe5b8160000160149054906101000a900460ff166004811115612a8657fe5b1415612b7a57612b75856002806020026040519081016040528092919082600260200280828437600081840152601f19601f82011690508083019250505050505085600280602002604051908101604052809291906000905b82821015612b33578382604002016002806020026040519081016040528092919082600260200280828437600081840152601f19601f82011690508083019250505050505081526020019060010190612adf565b50505050856002806020026040519081016040528092919082600260200280828437600081840152601f19601f82011690508083019250505050505085614bee565b612c94565b600480811115612b8657fe5b8160000160149054906101000a900460ff166004811115612ba357fe5b1415612c9357612c92856002806020026040519081016040528092919082600260200280828437600081840152601f19601f82011690508083019250505050505085600280602002604051908101604052809291906000905b82821015612c50578382604002016002806020026040519081016040528092919082600260200280828437600081840152601f19601f82011690508083019250505050505081526020019060010190612bfc565b50505050856002806020026040519081016040528092919082600260200280828437600081840152601f19601f82011690508083019250505050505085614d89565b5b5b5b5b5050505050565b600060018585858560405160008152602001604052604051808581526020018460ff1660ff1681526020018381526020018281526020019450505050506020604051602081039080840390855afa158015612cfc573d6000803e3d6000fd5b505050602060405103519050949350505050565b60056020528060005260406000206000915054906101000a900460ff1681565b6000612d3a61ab44565b6040805190810160405280876000600281101515612d5457fe5b60200201518152602001876001600281101515612d6d57fe5b6020020151815250816000018190525060408051908101604052806040805190810160405280886000600281101515612da257fe5b60200201516000600281101515612db557fe5b60200201518152602001886000600281101515612dce57fe5b60200201516001600281101515612de157fe5b602002015181525081526020016040805190810160405280886001600281101515612e0857fe5b60200201516000600281101515612e1b57fe5b60200201518152602001886001600281101515612e3457fe5b60200201516001600281101515612e4757fe5b602002015181525081525081602001819052506040805190810160405280856000600281101515612e7457fe5b60200201518152602001856001600281101515612e8d57fe5b602002015181525081604001819052506060601f604051908082528060200260200182016040528015612ecf5781602001602082028038833980820191505090505b50905060008090505b601f811015612f1d578481601f81101515612eef57fe5b60200201518282815181101515612f0257fe5b90602001906020020181815250508080600101915050612ed8565b506000612f2a8284614453565b1415612f86577f07fb15b1ebdfd9751a3925ece10a8bff6b5f6ce237f0d1385e2176fa8153eb6360405180806020018281038252602281526020018061af0e6022913960400191505060405180910390a1600192505050612f8d565b6000925050505b949350505050565b6130b5846002806020026040519081016040528092919082600260200280828437600081840152601f19601f82011690508083019250505050505084600280602002604051908101604052809291906000905b8282101561303c578382604002016002806020026040519081016040528092919082600260200280828437600081840152601f19601f82011690508083019250505050505081526020019060010190612fe8565b50505050846002806020026040519081016040528092919082600260200280828437600081840152601f19601f820116905080830192505050505050846013806020026040519081016040528092919082601360200280828437600081840152601f19601f820116905080830192505050505050614f24565b50505050565b600060036000838152602001908152602001600020905042816001015410151561314d576040517f08c379a000000000000000000000000000000000000000000000000000000000815260040180806020018281038252600f8152602001807f4e6f74206578706972656420796574000000000000000000000000000000000081525060200191505060405180910390fd5b60008160020160019054906101000a900460ff1660ff1690505b8160020160009054906101000a900460ff1660ff1681101561330257600260056000846004018481548110151561319a57fe5b9060005260206000200154815260200190815260200160002060006101000a81548160ff021916908360038111156131ce57fe5b021790555060016005600084600301848154811015156131ea57fe5b9060005260206000200154815260200190815260200160002060006101000a81548160ff0219169083600381111561321e57fe5b02179055507f91d2faa002479f8dc4f20862402db3dba2ebe927031674997d38e5b70d9877e7826004018281548110151561325557fe5b906000526020600020015460026040518083815260200182600381111561327857fe5b60ff1681526020019250505060405180910390a17f91d2faa002479f8dc4f20862402db3dba2ebe927031674997d38e5b70d9877e782600301828154811015156132be57fe5b90600052602060002001546001604051808381526020018260038111156132e157fe5b60ff1681526020019250505060405180910390a18080600101915050613167565b5060036000838152602001908152602001600020600080820160006101000a81549073ffffffffffffffffffffffffffffffffffffffff021916905560018201600090556002820160006101000a81549060ff02191690556002820160016101000a81549060ff021916905560038201600061337e919061ab79565b60048201600061338e919061ab79565b50505050565b60046020528060005260406000206000915090508060000160009054906101000a900473ffffffffffffffffffffffffffffffffffffffff16908060000160149054906101000a900460ff16908060010154905083565b61350b846002806020026040519081016040528092919082600260200280828437600081840152601f19601f82011690508083019250505050505084600280602002604051908101604052809291906000905b82821015613492578382604002016002806020026040519081016040528092919082600260200280828437600081840152601f19601f8201169050808301925050505050508152602001906001019061343e565b50505050846002806020026040519081016040528092919082600260200280828437600081840152601f19601f820116905080830192505050505050846033806020026040519081016040528092919082603360200280828437600081840152601f19601f820116905080830192505050505050615126565b50505050565b60006004600083815260200190815260200160002090506000600481111561353557fe5b8160000160149054906101000a900460ff16600481111561355257fe5b141515156135c8576040517f08c379a00000000000000000000000000000000000000000000000000000000081526004018080602001828103825260148152602001807f70726f6f664861736820697320696e76616c696400000000000000000000000081525060200191505060405180910390fd5b42600054826001015401101515613647576040517f08c379a00000000000000000000000000000000000000000000000000000000081526004018080602001828103825260118152602001807f4e6f7465206973207374696c6c20686f7400000000000000000000000000000081525060200191505060405180910390fd5b6001600481111561365457fe5b8160000160149054906101000a900460ff16600481111561367157fe5b14156136855761368082615328565b61373d565b6002600481111561369257fe5b8160000160149054906101000a900460ff1660048111156136af57fe5b14156136c3576136be82615591565b61373c565b600360048111156136d057fe5b8160000160149054906101000a900460ff1660048111156136ed57fe5b1415613701576136fc82615b09565b61373b565b60048081111561370d57fe5b8160000160149054906101000a900460ff16600481111561372a57fe5b141561373a5761373982615f10565b5b5b5b5b5050565b600260009054906101000a900473ffffffffffffffffffffffffffffffffffffffff1681565b613887846002806020026040519081016040528092919082600260200280828437600081840152601f19601f82011690508083019250505050505084600280602002604051908101604052809291906000905b8282101561380e578382604002016002806020026040519081016040528092919082600260200280828437600081840152601f19601f820116905080830192505050505050815260200190600101906137ba565b50505050846002806020026040519081016040528092919082600260200280828437600081840152601f19601f820116905080830192505050505050846007806020026040519081016040528092919082600760200280828437600081840152601f19601f8201169050808301925050505050506167dc565b50505050565b600060036000848152602001908152602001600020905042816001015410151515613920576040517f08c379a000000000000000000000000000000000000000000000000000000000815260040180806020018281038252600f8152602001807f506f6f6c2069732065787069726564000000000000000000000000000000000081525060200191505060405180910390fd5b8060020160009054906101000a900460ff1660ff168260ff161115801561395d57508060020160019054906101000a900460ff1660ff168260ff16115b15156139b4576040517f08c379a000000000000000000000000000000000000000000000000000000000815260040180806020018281038252604681526020018061aea76046913960600191505060405180910390fd5b60008160020160019054906101000a900460ff1660ff1690505b8260ff16811015613b585760016005600084600401848154811015156139f057fe5b9060005260206000200154815260200190815260200160002060006101000a81548160ff02191690836003811115613a2457fe5b02179055506002600560008460030184815481101515613a4057fe5b9060005260206000200154815260200190815260200160002060006101000a81548160ff02191690836003811115613a7457fe5b02179055507f91d2faa002479f8dc4f20862402db3dba2ebe927031674997d38e5b70d9877e78260040182815481101515613aab57fe5b9060005260206000200154600160405180838152602001826003811115613ace57fe5b60ff1681526020019250505060405180910390a17f91d2faa002479f8dc4f20862402db3dba2ebe927031674997d38e5b70d9877e78260030182815481101515613b1457fe5b9060005260206000200154600260405180838152602001826003811115613b3757fe5b60ff1681526020019250505060405180910390a180806001019150506139ce565b50818160020160016101000a81548160ff021916908360ff160217905550505050565b6000807f30644e72e131a029b85045b68181585d2833e84879b9709143e1f593f00000019050613ba961ab9a565b613bb16169df565b90508060800151516001865101141515613bca57600080fd5b613bd261abe3565b6040805190810160405280600081526020016000815250905060008090505b8651811015613c7657838782815181101515613c0957fe5b90602001906020020151101515613c1f57600080fd5b613c6782613c62856080015160018501815181101515613c3b57fe5b906020019060200201518a85815181101515613c5357fe5b90602001906020020151616f22565b616fbe565b91508080600101915050613bf1565b50613c9d8183608001516000815181101515613c8e57fe5b90602001906020020151616fbe565b9050613ce385600001518660200151613cb58461707b565b8560400151613cc78a6040015161707b565b8760600151613cd9896000015161707b565b8960200151617117565b1515613cf55760019350505050613cfd565b600093505050505b92915050565b6000613d108585856147db565b90506060601f60ff16604051908082528060200260200182016040528015613d475781602001602082028038833980820191505090505b50905060008090505b601f60ff168160ff161015613da157838160ff16601f81101515613d7057fe5b6020020151828260ff16815181101515613d8657fe5b90602001906020020181815250508080600101915050613d50565b506080604051908101604052803373ffffffffffffffffffffffffffffffffffffffff168152602001600480811115613dd657fe5b8152602001428152602001828152506004600084815260200190815260200160002060008201518160000160006101000a81548173ffffffffffffffffffffffffffffffffffffffff021916908373ffffffffffffffffffffffffffffffffffffffff16021790555060208201518160000160146101000a81548160ff02191690836004811115613e6357fe5b0217905550604082015181600101556060820151816002019080519060200190613e8e92919061abfd565b509050507f2a8c97f42d106ad000d498a1b6bf713a9365c4c1491e66fddb022f7ed07ab9343383604051808373ffffffffffffffffffffffffffffffffffffffff1673ffffffffffffffffffffffffffffffffffffffff1681526020018281526020019250505060405180910390a1505050505050565b6000807f30644e72e131a029b85045b68181585d2833e84879b9709143e1f593f00000019050613f3361ab9a565b613f3b61729b565b90508060800151516001865101141515613f5457600080fd5b613f5c61abe3565b6040805190810160405280600081526020016000815250905060008090505b865181101561400057838782815181101515613f9357fe5b90602001906020020151101515613fa957600080fd5b613ff182613fec856080015160018501815181101515613fc557fe5b906020019060200201518a85815181101515613fdd57fe5b90602001906020020151616f22565b616fbe565b91508080600101915050613f7b565b50614027818360800151600081518110151561401857fe5b90602001906020020151616fbe565b905061406d8560000151866020015161403f8461707b565b85604001516140518a6040015161707b565b8760600151614063896000015161707b565b8960200151617117565b151561407f5760019350505050614087565b600093505050505b92915050565b600061409a8585856147db565b90506060600160040160ff166040519080825280602002602001820160405280156140d45781602001602082028038833980820191505090505b50905060008090505b600460ff168160ff16101561412e57838160ff166004811015156140fd57fe5b6020020151828260ff1681518110151561411357fe5b906020019060200201818152505080806001019150506140dd565b508673ffffffffffffffffffffffffffffffffffffffff1681600460ff1681518110151561415857fe5b90602001906020020181815250506080604051908101604052803373ffffffffffffffffffffffffffffffffffffffff1681526020016003600481111561419b57fe5b8152602001428152602001828152506004600084815260200190815260200160002060008201518160000160006101000a81548173ffffffffffffffffffffffffffffffffffffffff021916908373ffffffffffffffffffffffffffffffffffffffff16021790555060208201518160000160146101000a81548160ff0219169083600481111561422857fe5b021790555060408201518160010155606082015181600201908051906020019061425392919061abfd565b509050507f2a8c97f42d106ad000d498a1b6bf713a9365c4c1491e66fddb022f7ed07ab9343383604051808373ffffffffffffffffffffffffffffffffffffffff1673ffffffffffffffffffffffffffffffffffffffff1681526020018281526020019250505060405180910390a150505050505050565b6000807f30644e72e131a029b85045b68181585d2833e84879b9709143e1f593f000000190506142f961ab9a565b6143016177de565b9050806080015151600186510114151561431a57600080fd5b61432261abe3565b6040805190810160405280600081526020016000815250905060008090505b86518110156143c65783878281518110151561435957fe5b9060200190602002015110151561436f57600080fd5b6143b7826143b285608001516001850181518110151561438b57fe5b906020019060200201518a858151811015156143a357fe5b90602001906020020151616f22565b616fbe565b91508080600101915050614341565b506143ed81836080015160008151811015156143de57fe5b90602001906020020151616fbe565b9050614433856000015186602001516144058461707b565b85604001516144178a6040015161707b565b8760600151614429896000015161707b565b8960200151617117565b1515614445576001935050505061444d565b600093505050505b92915050565b6000807f30644e72e131a029b85045b68181585d2833e84879b9709143e1f593f0000001905061448161ab9a565b614489617e81565b905080608001515160018651011415156144a257600080fd5b6144aa61abe3565b6040805190810160405280600081526020016000815250905060008090505b865181101561454e578387828151811015156144e157fe5b906020019060200201511015156144f757600080fd5b61453f8261453a85608001516001850181518110151561451357fe5b906020019060200201518a8581518110151561452b57fe5b90602001906020020151616f22565b616fbe565b915080806001019150506144c9565b50614575818360800151600081518110151561456657fe5b90602001906020020151616fbe565b90506145bb8560000151866020015161458d8461707b565b856040015161459f8a6040015161707b565b87606001516145b1896000015161707b565b8960200151617117565b15156145cd57600193505050506145d5565b600093505050505b92915050565b60006145e88585856147db565b90506060600460405190808252806020026020018201604052801561461c5781602001602082028038833980820191505090505b50905060008090505b600460ff168160ff16101561467657838160ff1660048110151561464557fe5b6020020151828260ff1681518110151561465b57fe5b90602001906020020181815250508080600101915050614625565b506080604051908101604052803373ffffffffffffffffffffffffffffffffffffffff168152602001600160048111156146ac57fe5b8152602001428152602001828152506004600084815260200190815260200160002060008201518160000160006101000a81548173ffffffffffffffffffffffffffffffffffffffff021916908373ffffffffffffffffffffffffffffffffffffffff16021790555060208201518160000160146101000a81548160ff0219169083600481111561473957fe5b021790555060408201518160010155606082015181600201908051906020019061476492919061abfd565b509050507f2a8c97f42d106ad000d498a1b6bf713a9365c4c1491e66fddb022f7ed07ab9343383604051808373ffffffffffffffffffffffffffffffffffffffff1673ffffffffffffffffffffffffffffffffffffffff1681526020018281526020019250505060405180910390a1505050505050565b60008383836040516020018084600260200280838360005b8381101561480e5780820151818401526020810190506147f3565b505050509050018360026000925b818410156148625782846020020151600260200280838360005b83811015614851578082015181840152602081019050614836565b50505050905001926001019261481c565b9250505082600260200280838360005b8381101561488d578082015181840152602081019050614872565b5050505090500193505050506040516020818303038152906040528051906020012090509392505050565b60006004600083815260200190815260200160002090506148d761ac4a565b60008090505b600460ff168110156149295782600201818154811015156148fa57fe5b9060005260206000200154828260048110151561491357fe5b60200201818152505080806001019150506148dd565b5061493686868684611758565b1515614a415760046000848152602001908152602001600020600080820160006101000a81549073ffffffffffffffffffffffffffffffffffffffff02191690556000820160146101000a81549060ff021916905560018201600090556002820160006149a3919061ac6d565b50503373ffffffffffffffffffffffffffffffffffffffff166108fc6001549081150290604051600060405180830381858888f193505050501580156149ed573d6000803e3d6000fd5b503373ffffffffffffffffffffffffffffffffffffffff167f12985fda7f0b862728bca0856b151f93320ceff10cbf6a49d7f294ea0aed8151846040518082815260200191505060405180910390a2614a4b565b614a4a83615328565b5b505050505050565b6000600460008381526020019081526020016000209050614a7261ac8e565b60008090505b600760ff16811015614ac4578260020181815481101515614a9557fe5b90600052602060002001548282600781101515614aae57fe5b6020020181815250508080600101915050614a78565b50614ad186868684611b5f565b1515614bdc5760046000848152602001908152602001600020600080820160006101000a81549073ffffffffffffffffffffffffffffffffffffffff02191690556000820160146101000a81549060ff02191690556001820160009055600282016000614b3e919061ac6d565b50503373ffffffffffffffffffffffffffffffffffffffff166108fc6001549081150290604051600060405180830381858888f19350505050158015614b88573d6000803e3d6000fd5b503373ffffffffffffffffffffffffffffffffffffffff167f12985fda7f0b862728bca0856b151f93320ceff10cbf6a49d7f294ea0aed8151846040518082815260200191505060405180910390a2614be6565b614be583615591565b5b505050505050565b6000600460008381526020019081526020016000209050614c0d61ac4a565b60008090505b600460ff16811015614c5f578260020181815481101515614c3057fe5b90600052602060002001548282600481101515614c4957fe5b6020020181815250508080600101915050614c13565b50614c6c868686846113cd565b1515614d775760046000848152602001908152602001600020600080820160006101000a81549073ffffffffffffffffffffffffffffffffffffffff02191690556000820160146101000a81549060ff02191690556001820160009055600282016000614cd9919061ac6d565b50503373ffffffffffffffffffffffffffffffffffffffff166108fc6001549081150290604051600060405180830381858888f19350505050158015614d23573d6000803e3d6000fd5b503373ffffffffffffffffffffffffffffffffffffffff167f12985fda7f0b862728bca0856b151f93320ceff10cbf6a49d7f294ea0aed8151846040518082815260200191505060405180910390a2614d81565b614d8083615b09565b5b505050505050565b6000600460008381526020019081526020016000209050614da861acb1565b60008090505b601360ff16811015614dfa578260020181815481101515614dcb57fe5b90600052602060002001548282601381101515614de457fe5b6020020181815250508080600101915050614dae565b50614e07868686846123cc565b1515614f125760046000848152602001908152602001600020600080820160006101000a81549073ffffffffffffffffffffffffffffffffffffffff02191690556000820160146101000a81549060ff02191690556001820160009055600282016000614e74919061ac6d565b50503373ffffffffffffffffffffffffffffffffffffffff166108fc6001549081150290604051600060405180830381858888f19350505050158015614ebe573d6000803e3d6000fd5b503373ffffffffffffffffffffffffffffffffffffffff167f12985fda7f0b862728bca0856b151f93320ceff10cbf6a49d7f294ea0aed8151846040518082815260200191505060405180910390a2614f1c565b614f1b8361993d565b5b505050505050565b6000614f318585856147db565b90506060601360ff16604051908082528060200260200182016040528015614f685781602001602082028038833980820191505090505b50905060008090505b601360ff168160ff161015614fc257838160ff16601381101515614f9157fe5b6020020151828260ff16815181101515614fa757fe5b90602001906020020181815250508080600101915050614f71565b506080604051908101604052803373ffffffffffffffffffffffffffffffffffffffff168152602001600480811115614ff757fe5b8152602001428152602001828152506004600084815260200190815260200160002060008201518160000160006101000a81548173ffffffffffffffffffffffffffffffffffffffff021916908373ffffffffffffffffffffffffffffffffffffffff16021790555060208201518160000160146101000a81548160ff0219169083600481111561508457fe5b02179055506040820151816001015560608201518160020190805190602001906150af92919061abfd565b509050507f2a8c97f42d106ad000d498a1b6bf713a9365c4c1491e66fddb022f7ed07ab9343383604051808373ffffffffffffffffffffffffffffffffffffffff1673ffffffffffffffffffffffffffffffffffffffff1681526020018281526020019250505060405180910390a1505050505050565b60006151338585856147db565b90506060603360ff1660405190808252806020026020018201604052801561516a5781602001602082028038833980820191505090505b50905060008090505b603360ff168160ff1610156151c457838160ff1660338110151561519357fe5b6020020151828260ff168151811015156151a957fe5b90602001906020020181815250508080600101915050615173565b506080604051908101604052803373ffffffffffffffffffffffffffffffffffffffff1681526020016004808111156151f957fe5b8152602001428152602001828152506004600084815260200190815260200160002060008201518160000160006101000a81548173ffffffffffffffffffffffffffffffffffffffff021916908373ffffffffffffffffffffffffffffffffffffffff16021790555060208201518160000160146101000a81548160ff0219169083600481111561528657fe5b02179055506040820151816001015560608201518160020190805190602001906152b192919061abfd565b509050507f2a8c97f42d106ad000d498a1b6bf713a9365c4c1491e66fddb022f7ed07ab9343383604051808373ffffffffffffffffffffffffffffffffffffffff1673ffffffffffffffffffffffffffffffffffffffff1681526020018281526020019250505060405180910390a1505050505050565b6000600460008381526020019081526020016000209050600061538382600201600081548110151561535657fe5b906000526020600020015483600201600181548110151561537357fe5b906000526020600020015461a209565b90506000600381111561539257fe5b6005600083815260200190815260200160002060009054906101000a900460ff1660038111156153be57fe5b141515615433576040517f08c379a00000000000000000000000000000000000000000000000000000000081526004018080602001828103825260178152602001807f4e6f74652077617320616c7265616479206d696e74656400000000000000000081525060200191505060405180910390fd5b60016005600083815260200190815260200160002060006101000a81548160ff0219169083600381111561546357fe5b021790555060046000848152602001908152602001600020600080820160006101000a81549073ffffffffffffffffffffffffffffffffffffffff02191690556000820160146101000a81549060ff021916905560018201600090556002820160006154cf919061ac6d565b50508160000160009054906101000a900473ffffffffffffffffffffffffffffffffffffffff1673ffffffffffffffffffffffffffffffffffffffff166108fc6001549081150290604051600060405180830381858888f1935050505015801561553d573d6000803e3d6000fd5b507f91d2faa002479f8dc4f20862402db3dba2ebe927031674997d38e5b70d9877e78160016040518083815260200182600381111561557857fe5b60ff1681526020019250505060405180910390a1505050565b60006004600083815260200190815260200160002090506155b061acd5565b61560b8260020180548060200260200160405190810160405280929190818152602001828054801561560157602002820191906000526020600020905b8154815260200190600101908083116155ed575b505050505061a367565b90506001600381111561561a57fe5b6005600083600060038110151561562d57fe5b6020020151815260200190815260200160002060009054906101000a900460ff16600381111561565957fe5b1415156156b1576040517f08c379a000000000000000000000000000000000000000000000000000000000815260040180806020018281038252602781526020018061ae806027913960400191505060405180910390fd5b600060038111156156be57fe5b600560008360016003811015156156d157fe5b6020020151815260200190815260200160002060009054906101000a900460ff1660038111156156fd57fe5b141515615772576040517f08c379a000000000000000000000000000000000000000000000000000000000815260040180806020018281038252601e8152602001807f6f7574707574206e6f74653120697320616c7265616479206d696e746564000081525060200191505060405180910390fd5b6000600381111561577f57fe5b6005600083600260038110151561579257fe5b6020020151815260200190815260200160002060009054906101000a900460ff1660038111156157be57fe5b141515615833576040517f08c379a000000000000000000000000000000000000000000000000000000000815260040180806020018281038252601e8152602001807f6f7574707574206e6f74653220697320616c7265616479206d696e746564000081525060200191505060405180910390fd5b60026005600083600060038110151561584857fe5b6020020151815260200190815260200160002060006101000a81548160ff0219169083600381111561587657fe5b021790555060016005600083600160038110151561589057fe5b6020020151815260200190815260200160002060006101000a81548160ff021916908360038111156158be57fe5b02179055506001600560008360026003811015156158d857fe5b6020020151815260200190815260200160002060006101000a81548160ff0219169083600381111561590657fe5b021790555060046000848152602001908152602001600020600080820160006101000a81549073ffffffffffffffffffffffffffffffffffffffff02191690556000820160146101000a81549060ff02191690556001820160009055600282016000615972919061ac6d565b50508160000160009054906101000a900473ffffffffffffffffffffffffffffffffffffffff1673ffffffffffffffffffffffffffffffffffffffff166108fc6001549081150290604051600060405180830381858888f193505050501580156159e0573d6000803e3d6000fd5b507f91d2faa002479f8dc4f20862402db3dba2ebe927031674997d38e5b70d9877e7816000600381101515615a1157fe5b6020020151600260405180838152602001826003811115615a2e57fe5b60ff1681526020019250505060405180910390a17f91d2faa002479f8dc4f20862402db3dba2ebe927031674997d38e5b70d9877e7816001600381101515615a7257fe5b6020020151600160405180838152602001826003811115615a8f57fe5b60ff1681526020019250505060405180910390a17f91d2faa002479f8dc4f20862402db3dba2ebe927031674997d38e5b70d9877e7816002600381101515615ad357fe5b6020020151600160405180838152602001826003811115615af057fe5b60ff1681526020019250505060405180910390a1505050565b60006004600083815260200190815260200160002090506000615b64826002016000815481101515615b3757fe5b9060005260206000200154836002016001815481101515615b5457fe5b906000526020600020015461a209565b905060016003811115615b7357fe5b6005600083815260200190815260200160002060009054906101000a900460ff166003811115615b9f57fe5b141515615bf7576040517f08c379a000000000000000000000000000000000000000000000000000000000815260040180806020018281038252602781526020018061ae806027913960400191505060405180910390fd5b60026005600083815260200190815260200160002060006101000a81548160ff02191690836003811115615c2757fe5b02179055508160000160009054906101000a900473ffffffffffffffffffffffffffffffffffffffff1673ffffffffffffffffffffffffffffffffffffffff166108fc6001549081150290604051600060405180830381858888f19350505050158015615c98573d6000803e3d6000fd5b50600082600201600460ff16815481101515615cb057fe5b906000526020600020015490506000836002016002815481101515615cd157fe5b9060005260206000200154905060046000868152602001908152602001600020600080820160006101000a81549073ffffffffffffffffffffffffffffffffffffffff02191690556000820160146101000a81549060ff02191690556001820160009055600282016000615d45919061ac6d565b5050600260009054906101000a900473ffffffffffffffffffffffffffffffffffffffff1673ffffffffffffffffffffffffffffffffffffffff1663a9059cbb83836040518363ffffffff167c0100000000000000000000000000000000000000000000000000000000028152600401808373ffffffffffffffffffffffffffffffffffffffff1673ffffffffffffffffffffffffffffffffffffffff16815260200182815260200192505050602060405180830381600087803b158015615e0c57600080fd5b505af1158015615e20573d6000803e3d6000fd5b505050506040513d6020811015615e3657600080fd5b81019080805190602001909291905050501515615ebb576040517f08c379a00000000000000000000000000000000000000000000000000000000081526004018080602001828103825260188152602001807f646169546f6b656e207472616e73666572206661696c6564000000000000000081525060200191505060405180910390fd5b7f91d2faa002479f8dc4f20862402db3dba2ebe927031674997d38e5b70d9877e783600260405180838152602001826003811115615ef557fe5b60ff1681526020019250505060405180910390a15050505050565b6000600460008381526020019081526020016000209050615f2f61acf8565b615f8a82600201805480602002602001604051908101604052809291908181526020018280548015615f8057602002820191906000526020600020905b815481526020019060010190808311615f6c575b505050505061a46a565b905060016003811115615f9957fe5b60056000836000600681101515615fac57fe5b6020020151815260200190815260200160002060009054906101000a900460ff166003811115615fd857fe5b141515616030576040517f08c379a000000000000000000000000000000000000000000000000000000000815260040180806020018281038252602781526020018061ae806027913960400191505060405180910390fd5b6000600190505b600460020160ff16811015616113576000600381111561605357fe5b60056000848460068110151561606557fe5b6020020151815260200190815260200160002060009054906101000a900460ff16600381111561609157fe5b141515616106576040517f08c379a000000000000000000000000000000000000000000000000000000000815260040180806020018281038252601a8152602001807f4e6577206e6f746520697320616c7265616479206d696e74656400000000000081525060200191505060405180910390fd5b8080600101915050616037565b5060026005600083600060068110151561612957fe5b6020020151815260200190815260200160002060006101000a81548160ff0219169083600381111561615757fe5b02179055506000600190505b600460ff168110156161c357600360056000848460068110151561618357fe5b6020020151815260200190815260200160002060006101000a81548160ff021916908360038111156161b157fe5b02179055508080600101915050616163565b5060016005600083600160046002010360ff166006811015156161e257fe5b6020020151815260200190815260200160002060006101000a81548160ff0219169083600381111561621057fe5b021790555060046000848152602001908152602001600020600080820160006101000a81549073ffffffffffffffffffffffffffffffffffffffff02191690556000820160146101000a81549060ff0219169055600182016000905560028201600061627c919061ac6d565b50508160000160009054906101000a900473ffffffffffffffffffffffffffffffffffffffff1673ffffffffffffffffffffffffffffffffffffffff166108fc6001549081150290604051600060405180830381858888f193505050501580156162ea573d6000803e3d6000fd5b507f91d2faa002479f8dc4f20862402db3dba2ebe927031674997d38e5b70d9877e781600060068110151561631b57fe5b602002015160026040518083815260200182600381111561633857fe5b60ff1681526020019250505060405180910390a16000600190505b600460ff168110156163cc577f91d2faa002479f8dc4f20862402db3dba2ebe927031674997d38e5b70d9877e7828260068110151561638e57fe5b60200201516003604051808381526020018260038111156163ab57fe5b60ff1681526020019250505060405180910390a18080600101915050616353565b507f91d2faa002479f8dc4f20862402db3dba2ebe927031674997d38e5b70d9877e781600160046002010360ff1660068110151561640657fe5b602002015160016040518083815260200182600381111561642357fe5b60ff1681526020019250505060405180910390a1600081600060068110151561644857fe5b60200201514260405160200180838152602001828152602001925050506040516020818303038152906040528051906020012090506000616524846002016002806004010260ff1681548110151561649c57fe5b9060005260206000200154856002016001600280600401020160ff168154811015156164c457fe5b9060005260206000200154866002016002806002600401020160ff168154811015156164ec57fe5b9060005260206000200154876002016003600280600401020160ff1681548110151561651457fe5b906000526020600020015461a4f2565b905060606002600460ff1681151561653857fe5b0460ff1660405190808252806020026020018201604052801561656a5781602001602082028038833980820191505090505b50905060008090505b6002600460ff1681151561658357fe5b0460ff168110156165cd57846001820160068110151561659f57fe5b602002015182828151811015156165b257fe5b90602001906020020181815250508080600101915050616573565b5060606002600460ff168115156165e057fe5b0460ff166040519080825280602002602001820160405280156166125781602001602082028038833980820191505090505b50905060008090505b6002600460ff1681151561662b57fe5b0460ff1681101561668a578560016002600460ff1681151561664957fe5b0460ff1683010160068110151561665c57fe5b6020020151828281518110151561666f57fe5b9060200190602002018181525050808060010191505061661b565b50600061012c905060c0604051908101604052808573ffffffffffffffffffffffffffffffffffffffff16815260200182420181526020016002600460ff168115156166d257fe5b0460ff168152602001600060ff168152602001848152602001838152506003600087815260200190815260200160002060008201518160000160006101000a81548173ffffffffffffffffffffffffffffffffffffffff021916908373ffffffffffffffffffffffffffffffffffffffff1602179055506020820151816001015560408201518160020160006101000a81548160ff021916908360ff16021790555060608201518160020160016101000a81548160ff021916908360ff16021790555060808201518160030190805190602001906167b192919061ad1b565b5060a08201518160040190805190602001906167ce92919061ad1b565b509050505050505050505050565b60006167e98585856147db565b90506060600760ff166040519080825280602002602001820160405280156168205781602001602082028038833980820191505090505b50905060008090505b600760ff168160ff16101561687a57838160ff1660078110151561684957fe5b6020020151828260ff1681518110151561685f57fe5b90602001906020020181815250508080600101915050616829565b506080604051908101604052803373ffffffffffffffffffffffffffffffffffffffff168152602001600260048111156168b057fe5b8152602001428152602001828152506004600084815260200190815260200160002060008201518160000160006101000a81548173ffffffffffffffffffffffffffffffffffffffff021916908373ffffffffffffffffffffffffffffffffffffffff16021790555060208201518160000160146101000a81548160ff0219169083600481111561693d57fe5b021790555060408201518160010155606082015181600201908051906020019061696892919061abfd565b509050507f2a8c97f42d106ad000d498a1b6bf713a9365c4c1491e66fddb022f7ed07ab9343383604051808373ffffffffffffffffffffffffffffffffffffffff1673ffffffffffffffffffffffffffffffffffffffff1681526020018281526020019250505060405180910390a1505050505050565b6169e761ab9a565b60408051908101604052807f08e8fd47f4f47ca3bf35d3549cc9cbc9ee4980e7555623215f325533055db98481526020017effd309565aa419ab4d5b0b1356a42cbd79a90b7bf5842ec7d77fbc903ec48c8152508160000181905250604080519081016040528060408051908101604052807f191aea51714d75793ebce74e92140ff5b9a72b2b21db0e7d38a9a6f6ec561e2781526020017f125e351f64102e5ed7413e9e1ae39fcda03f94b4952ae5024c1a979032fe17a6815250815260200160408051908101604052807f2a38351dc02090cf4c992e0e79c380add7cf09e2efc156ec8638c44cb2659ae581526020017f2057aa937ac295a24afe5fe8f41bf3b726c1e9a747a3d82112eb6f21a7249e348152508152508160200181905250604080519081016040528060408051908101604052807f1596ddc83d27b9fc3e437ecfce0cfb1183aa2ec3218fe47b0dc87260e58cec0181526020017f1d1caa5d4c2f3eaf4e4a1c5834a843fa144f4ee7543144ab36cbed2d295b34b4815250815260200160408051908101604052807f082e72deb2bdb3f1c744d2faed40b40a8e0095857798f5271c975574e461682381526020017f22da6530029c6e8b34899b20fe962bcebae94f93f737268376261dd6710badc18152508152508160400181905250604080519081016040528060408051908101604052807f155465dc68c4a17a3844dca002ef1b0b361552491432dff1103ef28d66548afd81526020017f26a9b5195a4b0a709767168cfb17ffe6b006671136407b9291f20eab14133250815250815260200160408051908101604052807f15d2db06487070c5abfe868a56d6db291353a00e87a7649355e47cc04a72d94381526020017f2e8c476822f4f14713679e51ec81f3ecd7a4e058b0a8210792c16b9c5237de8981525081525081606001819052506005604051908082528060200260200182016040528015616ccd57816020015b616cba61ad68565b815260200190600190039081616cb25790505b50816080018190525060408051908101604052807f045a076654acaecf344e8d6baeac13d52868fc24c9b07a948630a01a0403307f81526020017f08781c8e5717b83d3841478ec85437ce512b9db47bc88e2d9deff51f4cc5233581525081608001516000815181101515616d3e57fe5b9060200190602002018190525060408051908101604052807f030852bafbd1dca04aa84803d07f6210ab89f1b76ddecc2f530fc5bdcd9115d281526020017f134807c24cc6469a59ce3ab93874d819f1e471f432bc0381ecede614c0dfc99981525081608001516001815181101515616db357fe5b9060200190602002018190525060408051908101604052807f229b98cb8f8aeabfd356cd7bb196730fce607346d63bb1947fed7dabdcea5e7581526020017f1edebbc7d906f9fff4f4f68ac6830e02a8850468920c597e7d121b88f8cbc3df81525081608001516002815181101515616e2857fe5b9060200190602002018190525060408051908101604052807f1396ecbae3a957f73a2becd5490d94ca78d8506c6970fb7c52b4245c3f66775481526020017f2667d1e395f4c72043b442b51ba566c5d690c7d4cf03f40f7ed37ae9f3b2e70e81525081608001516003815181101515616e9d57fe5b9060200190602002018190525060408051908101604052807f10dead365b530b87ec9aadc7ac7aa5dc2501f88a9c0dcac8f23290d6f087461281526020017f0ec800383d251bc69c0d9add8bd57daec637178b1a0663ef5b0362c545709c0b81525081608001516004815181101515616f1257fe5b9060200190602002018190525090565b616f2a61abe3565b616f3261ad82565b8360000151816000600381101515616f4657fe5b6020020181815250508360200151816001600381101515616f6357fe5b60200201818152505082816002600381101515616f7c57fe5b6020020181815250506000606083608084600060076107d05a03f190508060008114616fa757616fa9565bfe5b50801515616fb657600080fd5b505092915050565b616fc661abe3565b616fce61ac4a565b8360000151816000600481101515616fe257fe5b6020020181815250508360200151816001600481101515616fff57fe5b602002018181525050826000015181600260048110151561701c57fe5b602002018181525050826020015181600360048110151561703957fe5b602002018181525050600060608360c084600060066107d05a03f19050806000811461706457617066565bfe5b5080151561707357600080fd5b505092915050565b61708361abe3565b60007f30644e72e131a029b85045b68181585d97816a916871ca8d3c208c16d87cfd479050600083600001511480156170c0575060008360200151145b156170e4576040805190810160405280600081526020016000815250915050617112565b60408051908101604052808460000151815260200182856020015181151561710857fe5b0683038152509150505b919050565b60006060600460405190808252806020026020018201604052801561715657816020015b61714361ad68565b81526020019060019003908161713b5790505b5090506060600460405190808252806020026020018201604052801561719657816020015b61718361ada5565b81526020019060019003908161717b5790505b5090508a8260008151811015156171a957fe5b90602001906020020181905250888260018151811015156171c657fe5b90602001906020020181905250868260028151811015156171e357fe5b906020019060200201819052508482600381518110151561720057fe5b906020019060200201819052508981600081518110151561721d57fe5b906020019060200201819052508781600181518110151561723a57fe5b906020019060200201819052508581600281518110151561725757fe5b906020019060200201819052508381600381518110151561727457fe5b9060200190602002018190525061728b828261a750565b9250505098975050505050505050565b6172a361ab9a565b60408051908101604052807f1fae4ecd413ca1398b216c0c3d4735856768fe06050310f2b24e93846e01256281526020017f2ca7db4aa700b0377527eac1d88bf9a5f8f842284b9c17e1a676b56d98275caa8152508160000181905250604080519081016040528060408051908101604052807ec057ea8c869953cc2969c8f7e9e910e92cc18db1da482fc286a04a981f3fe681526020017f2e446ad64062d0493cf452d08f1e34a67c5b0601703c392fc784156c95a934e0815250815260200160408051908101604052807f1b239ecd6bdae68953141382d2ec8fc72f0e9e9cf11663e9007ea53f6394813f81526020017f19410ee6da4a8df22efd878cae356ed8698d51c33cdfffec08e0f9a6a44dbbad8152508152508160200181905250604080519081016040528060408051908101604052807f1dd0ecca1d7d5c5fbc7ae284e7839996f853a29973c9bd6479a55bbb2e95569981526020017f2110c0b3c7870541327a141bebb6378d4b18baf07e31691cec7c5a83b2f7c9fb815250815260200160408051908101604052807f05527ea33e439dd3140d729ee1400c1d4bec2952935778f5f7aa6ab3348962fe81526020017f2fc3dd960002b28734f0c4abc84f71016ba99630778d27329be0b0b48647cce98152508152508160400181905250604080519081016040528060408051908101604052807f2917a9b462f23932acfedabc068db254e740748740d56f25781fd19c4fd5822181526020017f21dde0660f0522d7e9c0be35e560d863f1817e7751a0957996f6118182b3f797815250815260200160408051908101604052807f1065a356807947b7501cbccfa75b48996889a00fe786acf3485b803c948f38bf81526020017f2911071bd56d7a39cde796146a347efe46b15b203d4880c51bde73503ef430558152508152508160600181905250600560405190808252806020026020018201604052801561758957816020015b61757661ad68565b81526020019060019003908161756e5790505b50816080018190525060408051908101604052807f2cc870366c1940584032f6b5d6611126aa4e0f959750075f3da187a359a86f7181526020017f2de9ff6fc1eb6a6509c4b49e200e3a34e701c47890235ce7aa38d49137cbe8b0815250816080015160008151811015156175fa57fe5b9060200190602002018190525060408051908101604052807f1b4a4e60b75d7b8e19f247e8ff8f598b853d1e3b8038158d59eeee4f433bbee881526020017f2ad88fd86e7b61b43116c6305146fa56cb95f90b46a37d1f5e3a6cb288868da58152508160800151600181518110151561766f57fe5b9060200190602002018190525060408051908101604052807f09eef616aeeb3bf6fe6d17a1062adaa71dd6275d9f18e031ff0dd3d2fea46c3c81526020017f1d79ff41013568cc8d15a0d2af6f824d93bf5a53aac7d8e93bd838084196252a815250816080015160028151811015156176e457fe5b9060200190602002018190525060408051908101604052807f18aac35ed4d8f4c829439fbd24fbff629e692081cacbb2a11706b8893e3acfb781526020017f0b0955aaaba3899cf0223ea2c9e5ce2348ab4b6908261023173d4b6ba90c563b8152508160800151600381518110151561775957fe5b9060200190602002018190525060408051908101604052807f0995f21c52e7bbed05a4e7d0d2917337f459780582eec68c9c4ff4ebd1b0908881526020017f11b86f307ff2eabd60791c5ec3b9982103e1a192603c8fa2075b01db45441692815250816080015160048151811015156177ce57fe5b9060200190602002018190525090565b6177e661ab9a565b60408051908101604052807f20b9fe1ca62313774df900438fd3830e246107902a2d25369656534a12191bdc81526020017f10b7a6d819cde096987d519b596a3156e5a78318e2bdbe9dbe6366dbf4d55b768152508160000181905250604080519081016040528060408051908101604052807f2efb46a991d60da787a1e67b0e684b23d1b060147a0f6c231c9885abd96b575181526020017f2d4dd1a82076e9d0c35d37ffdfd4cf7a1d68c364e39e85a538c756a86e9401cb815250815260200160408051908101604052807f1a6fe1a2c4b41ee3b646e0c11ca310c4b4389f9fbd4e4d8358449cd9d9d54f3081526020017f1839a05a396824760a1882f5f9845778dc7812927875b820ba4233711dea10ee8152508152508160200181905250604080519081016040528060408051908101604052807f27707ecbc54bcc5218202d918fc336dc831e766a487b01b7b1b47d48fae0b31481526020017f1ed91b5ed9d9cdf33745ddf3383848f03439dfecb4072c025860bb86b49c7eac815250815260200160408051908101604052807f0dae9423db56e2eb98ca49367c96d51118c1a20ccd1f9212dace3ea26489d22281526020017f09d0d89c6939c46b6edf5987af235d9901842955073bc729eb5b17c3c20c18878152508152508160400181905250604080519081016040528060408051908101604052807f01853360cbc79d837411a425becb39c31ac7e3db09f1f68e70ba4ebdaaaf301481526020017f1a3feb40fac7e13d8c20eeb34fb528aa1e7bf0c86d5058f4761565ed640babea815250815260200160408051908101604052807f2811cd8e2ee06c4703a138671e85084f3bc04aeaaa6c8a68fdd0ce915af0a4f281526020017f20bab6a1af8a8a4472fb0797b91a733dad961d1a4842e692381a323b92b2afdd81525081525081606001819052506008604051908082528060200260200182016040528015617acd57816020015b617aba61ad68565b815260200190600190039081617ab25790505b50816080018190525060408051908101604052807f07150e206e48e70277361c823f8427faf72160487ce199ddb637dd80c9f6386d81526020017f01e6731c6c7f91a7b37723843b25ec2b34eeb48540692f603e93199c4bc4ad4781525081608001516000815181101515617b3e57fe5b9060200190602002018190525060408051908101604052807f0a9b09eb8246f63a99e7932e76ec7e983404711b05542634128f7b661f72232781526020017f273f93d079666f85238bc1dbeb5b790d80100f07112c093a998d722f68de4f9881525081608001516001815181101515617bb357fe5b9060200190602002018190525060408051908101604052807f0bc83aa66ab8ac9a5a5a15884ea7a789c38a340627a0cf97aaf609702bdc80c381526020017f0ef40285974cfbbca1669eb7f483dd63718aa27ab0dcc336a2d2278b37b1814981525081608001516002815181101515617c2857fe5b9060200190602002018190525060408051908101604052807f08889543490ebe4a07289f5e4729376f18587426e54e775571d795781218955581526020017f20d71f616b80e28171d732a7e7d06ab3e4f18cca247ee3a87b73d2ad07bcf0f481525081608001516003815181101515617c9d57fe5b9060200190602002018190525060408051908101604052807f114335c365bc16a23a120a9f6a26743e1c214bdb8f44e72eb05d0b84cb5cfc5981526020017f0f94323442d7ca9455d13a2ec88f05a283b694504d82edf5b42ebb166e9596f881525081608001516004815181101515617d1257fe5b9060200190602002018190525060408051908101604052807f1c7f95ee0a542f7f2cffe47dc8280c0796568f4c5262dd2ac52d51c6239bb13981526020017f2154556f2853b794b5cb1f91fb494db8c2e2a6f291e46643f64c5473a7b22e2f81525081608001516005815181101515617d8757fe5b9060200190602002018190525060408051908101604052807f0e69ecc6fd75a0e6b7414a692b85ca49408ec59a46521675a0ee3c5c618da1c581526020017f13ecae5628e1dfcedefa9defe37e399b7aaf409ac31a8e53c670537e1644cb9581525081608001516006815181101515617dfc57fe5b9060200190602002018190525060408051908101604052807f1bef81a94293577959b1571d755ba28f98524761e7433b39f121b200f1fac63d81526020017f249a736c17ba9ef08b27791d4b36898b0b6ffd8e57cf5f4c851f737a917a973581525081608001516007815181101515617e7157fe5b9060200190602002018190525090565b617e8961ab9a565b60408051908101604052807f1ed79da9946f11b56739eebd69715bbd2e25ff5729f22a5c6a66a05da13a191a81526020017f0f3d7d3562bfae7b9b182baa31378442818c53518f236af47bea7d226309b95a8152508160000181905250604080519081016040528060408051908101604052807f199eaea01c7a80c7746193d62144b95f3fb5c33724eb3e49e1b2f8ba73a486b381526020017f0b4d84af9184c3252ca02f5f971b90fe93900efdf808b03ed696e727fea82fbf815250815260200160408051908101604052807f21e933dc2a5e984ca69f8452383ea2f06d8f9ff9eab57b68340238777dc0ab5481526020017f2d68b9a794081f851ab546e7b12d40425ecbd004c24b4f97901ec13d335cb37b8152508152508160200181905250604080519081016040528060408051908101604052807f14b3178b6f48c2d5ed825dd5fca853fec5155deda001ca7520ba1cb315014db881526020017f2840fb55a8f2d80c5c16c4258fbbd7cf5526a80d264c1fa8ad778ef8c65954a0815250815260200160408051908101604052807f18b08b3fa2e6be9f2da59155492c6ec8a6bb7fd35e2c3498fa5d244a8809042c81526020017f2d7ca6923359022ceabc8cc34f9191594363413b9c29269d3d95698c653f637a8152508152508160400181905250604080519081016040528060408051908101604052807f1d73a8b89eef993a52db1149768a8cb709ec7b0dbcb6f2443ccc61a4f437903381526020017f2b5e7cd3b68c1ea0facb6b06f7067792c792e7055ecbc3dd0fa64eab7a32c8b0815250815260200160408051908101604052807f0f587facfad3240307501fb092c8d6f6616058fd8c2c37b77606eeedc74143a881526020017f2db9df5074db5299c6e965a55185ad315f1334d54a14c39da486151a22f4598a8152508152508160600181905250603460405190808252806020026020018201604052801561817057816020015b61815d61ad68565b8152602001906001900390816181555790505b50816080018190525060408051908101604052807f020dd35a52a98c3eb52efabd69019ae7e99b208f6d03030bc5adfbd25d928c4581526020017f0d19803fd262b3000d91c66a28264b6d72029c3bcd237628cbc0afb24e13105f815250816080015160008151811015156181e157fe5b9060200190602002018190525060408051908101604052807f05bbbffcc3974d50caa9cdf5a5aaa56fec577c5e1d5af2d20718328082da8e5681526020017f03fdd236a681bef3ff224e2475e29df541ce50e2fb2e0339176967533a58c0668152508160800151600181518110151561825657fe5b9060200190602002018190525060408051908101604052807f2be0f870b4d588934105eb474bcc8cdc612789298f6e46a5287863ff96593f2381526020017f25eaeea668322d932feaee991a7de2dea0edef185431a8af87f7fad0c072e806815250816080015160028151811015156182cb57fe5b9060200190602002018190525060408051908101604052807f28457c0350cc19feb66404d4d411d1ce63158d95cdbd7b21aa63cfae7ecd40c581526020017f2abd1c98616800ca0b5f96e2eed30bc889fc1fd73258a4882194f8640ee48b9d8152508160800151600381518110151561834057fe5b9060200190602002018190525060408051908101604052807f0d137ce8d9a2b5c26af81f977a1cf7a1d4db909b3a71df203ad7c5f66faef4c681526020017efa2240a55a6c68d8aaadad1ab265d44333a908b7f41ffca29e08e425d7bc94815250816080015160048151811015156183b457fe5b9060200190602002018190525060408051908101604052807f22e9b4189485d955ca8340f6efc46242d431bb4f3d1b79032dc9194c2ecb889081526020017f1c241e8037b9fbc4852de813a33c99aec7dd3f2e9e83775a17e9c4c634ecb8158152508160800151600581518110151561842957fe5b9060200190602002018190525060408051908101604052807f1aeb0dad0d37b9e3f3a31be4d3e2811019bf28eb9a3eab1d8fa192c29ae0f0a581526020017f0d9ede01e0974b2ef222fe3bb4559a357cf64283f03589c5731704179799e3918152508160800151600681518110151561849e57fe5b9060200190602002018190525060408051908101604052807f24290dbaec9d3dfa22cf349309f823ae6064fc57d014e7bcddbe962794c7ea9481526020017f2ccdb477968a52b4c640aec9d311a40954a1d19bd0dd98c8fd19c69ee61b74028152508160800151600781518110151561851357fe5b9060200190602002018190525060408051908101604052807f1021046cd8401bbef3f49f6c267398bc5859bdb5d3764f78a83aef420d5a989081526020017f03a3358b96b2a0e97839110b5f386dbb278e8f0f997f5cf9339fbd007f13d8978152508160800151600881518110151561858857fe5b9060200190602002018190525060408051908101604052807f0a06afc1af6f719dd380173d0523d91aca4070633baac3bf103062acdf520bf181526020017f2e7735a1f7790aefb3e85f23c82000cf3d792bf7668b899e1f55991270bc9583815250816080015160098151811015156185fd57fe5b9060200190602002018190525060408051908101604052807f0d33ee0d0e82a372861d6c96359ed7a62a7449d4bb24f62ad7acba33f896adbf81526020017f092729ef8405845e16e36710a9d8385dbd5a9b05be3cbc129abe585b3162766f8152508160800151600a81518110151561867257fe5b9060200190602002018190525060408051908101604052807f2495200a919c6e7ccad5fca29fdb0cbf37a9498cc69c5c8e6b726a425786a75881526020017f0cb265e93bd3da95097dde1f38640fa829fc03f4ff9fcca06389b4ef32fcaa188152508160800151600b8151811015156186e757fe5b9060200190602002018190525060408051908101604052807f1104371553254e47929fe212f65697ebd63595544666a59b9b3085c5170b351781526020017f17a723f3f79ef508d17f1105f603e953dabbbc214a07ea6793aa32b2e984d5aa8152508160800151600c81518110151561875c57fe5b9060200190602002018190525060408051908101604052807f1acf9cc232331075e2032eb34019c6dc6b62bc64d675145aecd2c19eeebeb7c481526020017f024407d354a1ea81893bcd2c14e4d7d44cc5a200177a77a1ad3dd3773d9104af8152508160800151600d8151811015156187d157fe5b9060200190602002018190525060408051908101604052807f13d6028d3db314a0b3b2c905e9a86dd70abdb5cf8dc41546442ab0a7e1229f9481526020017f105502aaffaa55bfe306d105178ac09a594e834a825928c7d55a2692c6d4e2778152508160800151600e81518110151561884657fe5b9060200190602002018190525060408051908101604052807f044e002e3bdb31b8ef305f864df043a6e7a7507635f13e28cc782d597d2e789481526020017f12350f8ffa515b984a4001560b3f676f45540a71f5b607ef0101a4dfcabdcaf08152508160800151600f8151811015156188bb57fe5b9060200190602002018190525060408051908101604052807f2236070c964542f87eb497d4454b4a6043aed7a23365519266584de32ff7df7281526020017f1536f1f2bdfb14997229751232b756418c56d41bb2bef7477e739f50e8fcf4598152508160800151601081518110151561893057fe5b9060200190602002018190525060408051908101604052807f27306487092491d7f81246b8c4ef88d3d9bf9a14ca0096d95aafda09085e454081526020017f21893d2c6dd2e4c330fcb05d1c50291399a3297b5c8d92d0bab460fa592d1753815250816080015160118151811015156189a557fe5b9060200190602002018190525060408051908101604052807f10332d1815729c17b8f719bfae6ae97a7f48f140804ace7ca41e9e817d9c13ae81526020017f2990e38df6aadcf78fe374ed56a239c9ff62b04a576938190e0dae278d60939b81525081608001516012815181101515618a1a57fe5b9060200190602002018190525060408051908101604052807f2b47e7a80deee7fa6a5a7bdf91b0687191656c747fe873f72a139cb17571b8e981526020017f0ba81e32edb7147afad29c042b34c4846feb48ccc777a25015f7dd5f68b8d45681525081608001516013815181101515618a8f57fe5b9060200190602002018190525060408051908101604052807f1f97d3e5796503da0aea4c1527cd13cf26b7bb9238d8c20b65506c5471ad2cae81526020017f02f467e0830fc04b347b2efae09f5467fee9f4e7407b6efc1882e53eb6f2fb6781525081608001516014815181101515618b0457fe5b9060200190602002018190525060408051908101604052807f0c33390157ff4574f399da32262d3c56d7a5a8b1f5a48a56ffc78befcf2fa62b81526020017f0de06ab601e44377133cdc2c8e8a67941e4cd45a794d58138d52e6a5cfa3b06281525081608001516015815181101515618b7957fe5b9060200190602002018190525060408051908101604052807f1027fa4252ab77e93224eba29b44566543285b8568aaa948f3482f827f5a492781526020017f12ee01a0ff4129087a4bbf857aa3da67da0910417a1a7fbe078b9525953296f181525081608001516016815181101515618bee57fe5b9060200190602002018190525060408051908101604052807f0cdc2e427b121297717ff214a295972de2ef6d1fce9221f6660873e3fda5ed1d81526020017f1f7cf55de250f325d2b49e798650c69f29566557b9fa3a1647b1aa1243a53b5781525081608001516017815181101515618c6357fe5b9060200190602002018190525060408051908101604052807f1d6f7e7614d58ea3e08f15cfdc9f5e8f66b45807182b9638fe2e84af1ecb0fa881526020017f214e1d7b6ee8218b3806d2d18c90235d7150833d6fbfda7fd2a67e8368876fe781525081608001516018815181101515618cd857fe5b9060200190602002018190525060408051908101604052807f2378c40e775af426229fc16f5347a314c528fb71996bc9c20008a82b778551bd81526020017f06f036eeb061e76eb8b40344f5ef7f5d5c4967da31c450d37fe4af6d6be03c4381525081608001516019815181101515618d4d57fe5b9060200190602002018190525060408051908101604052807f0f9e3bddc5de53e2a35f6894dc97ef5a5a62c8b82be5dc18100d1bc8cb2fca7d81526020017f04f691f53d1fdeafdf490118b9f498e8ac4f5ac0c84b5d7245aee9904fe2a6bc8152508160800151601a815181101515618dc257fe5b9060200190602002018190525060408051908101604052807f09201e247155f191e96ee201917122609ef4b615565a7da536f0e4febfea50d181526020017f057589cdce6659360e347b209ccf99b5aafb36014e0956862e20e3df7155b4b08152508160800151601b815181101515618e3757fe5b9060200190602002018190525060408051908101604052807f1b108b40fb7d2422fd3aaee95a51011fee46de54e10de2a6e8f3d5902520a60c81526020017f071ef42a2f2fc2a5ddff78b7aa0e38af46649cbb512cbb365d3aac580fbdee0c8152508160800151601c815181101515618eac57fe5b9060200190602002018190525060408051908101604052807f049f2058e407de6463472a4de94448198624dd9808598cb805ab86dfa60f3b7b81526020017f056a0cfc235dc494dfd0d589dd3f61ac17f615090a1dcfa980362058afe53f6c8152508160800151601d815181101515618f2157fe5b9060200190602002018190525060408051908101604052807f2af0324978a494f6494699320fbf4d4dfa21127836bf85b3aed382c6a273257181526020017f02c645bbf22a5ef46155d77dfd1a94e31d12d3aab961f4b4ad935d712d7da0cd8152508160800151601e815181101515618f9657fe5b9060200190602002018190525060408051908101604052807f2b50e6c9cebd2d6ab8f5dd71af661277fdca7687d6981eb26742477696fd8a1a81526020017f0b232bd48cc7eb5b82e23ef8ef9b6593835affcdbf47009455c5d53908d037c48152508160800151601f81518110151561900b57fe5b9060200190602002018190525060408051908101604052807f2688d8f571365ddde076c15df79734305df770b3f58ece06cdbeef380a9a3f0381526020017f27cb630ae0c4b42e6b24ba2d2f05098a56aea08ba3a241f6649c876aa81ac0508152508160800151602081518110151561908057fe5b9060200190602002018190525060408051908101604052807f095351dcf3408b426797489497b9d4ccdd15cc56a49b232fd0c14a9fa25af05f81526020017f22d48f590a800ab3286d011ee2f0e58d235ba10116845550ef79f9dae19ac2ca815250816080015160218151811015156190f557fe5b9060200190602002018190525060408051908101604052807f2b3a7bd8e3799169e414de6761e340372497672f7e220a999ffe61de834d622a81526020017e87d2cb4e3570bc86e027a3acd5cf75a5c3b56bd3408bba5e99a56c545a7e668152508160800151602281518110151561916957fe5b9060200190602002018190525060408051908101604052807f16dbfb84c1db0e48e9c32b2d6bc711b9432b78574694e9e5ec1095e45255865281526020017f293ea489cf6abdc6a3a6c3a036567fa15d13337a8119cb50735fe0ebc0758c0a815250816080015160238151811015156191de57fe5b9060200190602002018190525060408051908101604052807f1f8ff4bb55f15eaebd891b351f75768e680efdaf63417dcfaa7477c746c780d681526020017f1e3261fb3d3411f25d32d4012449224992c9ef6a879d97b43947765cb83fe22f8152508160800151602481518110151561925357fe5b9060200190602002018190525060408051908101604052807f2b3fd5b94c35676c51122e5f8f075792c20dc673ccd20bd282e389df0b842a5781526020017f02c1d8c0a02485db4450c7ca2330745cb981cb7043745b8443d3807eb005acad815250816080015160258151811015156192c857fe5b9060200190602002018190525060408051908101604052807f1718344fb824d587ace64b9271131c5bdf2f087eb5ad5dc6cacfe8281c76a24f81526020017f1d23676f73ff432ed8974c148f368d4414b9983b9644580af4b615deb8c0a8f78152508160800151602681518110151561933d57fe5b9060200190602002018190525060408051908101604052807f1a94d7719ca8c1c399cc13bb828f43fac821ba19fb65a504d23882dabcc92b3281526020017f2bdf62902d748469ec79e180527e8280aea92f8e13ed2df3ba963751c82debd6815250816080015160278151811015156193b257fe5b9060200190602002018190525060408051908101604052807f27a1f82f0e9e65aee0e1e5ab0be0eec1d9cb61012a0236b1982614ce68d9688c81526020017f1a376b601792d2b93e428854b69bb1875b434174e747d29633aafc39379076d38152508160800151602881518110151561942757fe5b9060200190602002018190525060408051908101604052807f209eedb4423f4f16bff5148cffde466375b6e7d71367bcc28362ef3c7ffc47d581526020017f08c28b7c932d2f9699ee9adc9c623765294097de430c2987b8d7de565e279aba8152508160800151602981518110151561949c57fe5b9060200190602002018190525060408051908101604052807f16d383db5c33fdc5f5c3f7ea99e985a16c4e284bf7d8059e5878163e099ab03781526020017f07e025196e49d715f708aee207d2f524324a52e1e50aa07c63f343dfeb88fd468152508160800151602a81518110151561951157fe5b9060200190602002018190525060408051908101604052807f04dc51787bbd24d00891321cc78c4735abc3cc9c3178426435533d7b2dfb07b081526020017f2ed4e9cb67904ecf3268162f0b70acd1133274feceaa17a10553af1fb32584928152508160800151602b81518110151561958657fe5b9060200190602002018190525060408051908101604052807f2b59c1408b113513f82a3eeed15946172e74e6dfdeb0b5a6275d8804f6a8c86781526020017f05a5ab42d20271b3e785af035508ba1ca274d9cd315827580b765b73f633e31f8152508160800151602c8151811015156195fb57fe5b9060200190602002018190525060408051908101604052807f1b28adedaa659462b47e9a8e5966f575b711a97b371669211cb20d6c66e5618181526020017f144b7938bf96b1473df67e67cc6cd0a90bcfc34ee8f2e4a95cff6b1d44a4577f8152508160800151602d81518110151561967057fe5b9060200190602002018190525060408051908101604052807f0663822e5aaf55ea23f8170fa9b37025379b98fd9410904ffce0ace15c40026f81526020017f0b8da81ad2b0074e5f1b9932d3e5c778ff0c54d60eb71cd5b7d1b16ef2b1d96e8152508160800151602e8151811015156196e557fe5b9060200190602002018190525060408051908101604052807f13a3913c13908e82f4f6834c32450cf920d22de586d983c12b498ddd3c7e89de81526020017f2679b28b571453e5b726a32388fdd67aa06511b3038ae0a28e2949a38c0fdde28152508160800151602f81518110151561975a57fe5b9060200190602002018190525060408051908101604052807f1a435b9387deacbb4c7d1e6eec27451bcbdb5f7de44a6cdbbbfc4f4d2946baee81526020017f2393035359746610a0e5abeb8bdc1be3dfdc0c39fb83cf084cd544f38cce05c3815250816080015160308151811015156197cf57fe5b9060200190602002018190525060408051908101604052807f03faf1fd4ddbd817e7c8aa51396549672bd4931898d1eb1877832dc8593eac8381526020017f26b0850e5fa0e7000c1b4a9f33e2ce955b97ac985e4d68793cb43b5112f93e918152508160800151603181518110151561984457fe5b9060200190602002018190525060408051908101604052807f1f14ca2c3bb374f6a3ef621c8e59bd3dc6c4cbb000000b0de43f8035447a01fe81526020017e92f7fad599d907361fcb11b044093faa60cba3dbc2daea72091777735e1ee2815250816080015160328151811015156198b857fe5b9060200190602002018190525060408051908101604052807f1b9b405f3d1ee1417be36dfb2c60cd72272f2caf67c40fc15e9569bc30edc93781526020017f0cbe7a4459cfc4eb517693a3d7016f1b5fe3906960fe520286219d8c985447508152508160800151603381518110151561992d57fe5b9060200190602002018190525090565b600060046000838152602001908152602001600020905061995c61adcc565b6199b7826002018054806020026020016040519081016040528092919081815260200182805480156199ad57602002820191906000526020600020905b815481526020019060010190808311619999575b505050505061a9e3565b9050600160038111156199c657fe5b600560008360006016811015156199d957fe5b6020020151815260200190815260200160002060009054906101000a900460ff166003811115619a0557fe5b141515619a5d576040517f08c379a000000000000000000000000000000000000000000000000000000000815260040180806020018281038252602781526020018061ae806027913960400191505060405180910390fd5b6000600190505b601460020160ff16811015619b405760006003811115619a8057fe5b600560008484601681101515619a9257fe5b6020020151815260200190815260200160002060009054906101000a900460ff166003811115619abe57fe5b141515619b33576040517f08c379a000000000000000000000000000000000000000000000000000000000815260040180806020018281038252601a8152602001807f4e6577206e6f746520697320616c7265616479206d696e74656400000000000081525060200191505060405180910390fd5b8080600101915050619a64565b50600260056000836000601681101515619b5657fe5b6020020151815260200190815260200160002060006101000a81548160ff02191690836003811115619b8457fe5b02179055506000600190505b601460ff16811015619bf0576003600560008484601681101515619bb057fe5b6020020151815260200190815260200160002060006101000a81548160ff02191690836003811115619bde57fe5b02179055508080600101915050619b90565b5060016005600083600160146002010360ff16601681101515619c0f57fe5b6020020151815260200190815260200160002060006101000a81548160ff02191690836003811115619c3d57fe5b021790555060046000848152602001908152602001600020600080820160006101000a81549073ffffffffffffffffffffffffffffffffffffffff02191690556000820160146101000a81549060ff02191690556001820160009055600282016000619ca9919061ac6d565b50508160000160009054906101000a900473ffffffffffffffffffffffffffffffffffffffff1673ffffffffffffffffffffffffffffffffffffffff166108fc6001549081150290604051600060405180830381858888f19350505050158015619d17573d6000803e3d6000fd5b507f91d2faa002479f8dc4f20862402db3dba2ebe927031674997d38e5b70d9877e7816000601681101515619d4857fe5b6020020151600260405180838152602001826003811115619d6557fe5b60ff1681526020019250505060405180910390a16000600190505b601460ff16811015619df9577f91d2faa002479f8dc4f20862402db3dba2ebe927031674997d38e5b70d9877e78282601681101515619dbb57fe5b6020020151600360405180838152602001826003811115619dd857fe5b60ff1681526020019250505060405180910390a18080600101915050619d80565b507f91d2faa002479f8dc4f20862402db3dba2ebe927031674997d38e5b70d9877e781600160146002010360ff16601681101515619e3357fe5b6020020151600160405180838152602001826003811115619e5057fe5b60ff1681526020019250505060405180910390a16000816000601681101515619e7557fe5b60200201514260405160200180838152602001828152602001925050506040516020818303038152906040528051906020012090506000619f51846002016002806014010260ff16815481101515619ec957fe5b9060005260206000200154856002016001600280601401020160ff16815481101515619ef157fe5b9060005260206000200154866002016002806002601401020160ff16815481101515619f1957fe5b9060005260206000200154876002016003600280601401020160ff16815481101515619f4157fe5b906000526020600020015461a4f2565b905060606002601460ff16811515619f6557fe5b0460ff16604051908082528060200260200182016040528015619f975781602001602082028038833980820191505090505b50905060008090505b6002601460ff16811515619fb057fe5b0460ff16811015619ffa578460018201601681101515619fcc57fe5b60200201518282815181101515619fdf57fe5b90602001906020020181815250508080600101915050619fa0565b5060606002601460ff1681151561a00d57fe5b0460ff1660405190808252806020026020018201604052801561a03f5781602001602082028038833980820191505090505b50905060008090505b6002601460ff1681151561a05857fe5b0460ff1681101561a0b7578560016002601460ff1681151561a07657fe5b0460ff1683010160168110151561a08957fe5b6020020151828281518110151561a09c57fe5b9060200190602002018181525050808060010191505061a048565b50600061012c905060c0604051908101604052808573ffffffffffffffffffffffffffffffffffffffff16815260200182420181526020016002601460ff1681151561a0ff57fe5b0460ff168152602001600060ff168152602001848152602001838152506003600087815260200190815260200160002060008201518160000160006101000a81548173ffffffffffffffffffffffffffffffffffffffff021916908373ffffffffffffffffffffffffffffffffffffffff1602179055506020820151816001015560408201518160020160006101000a81548160ff021916908360ff16021790555060608201518160020160016101000a81548160ff021916908360ff160217905550608082015181600301908051906020019061a1de92919061ad1b565b5060a082015181600401908051906020019061a1fb92919061ad1b565b509050505050505050505050565b6000808360010290506000836001029050606060206040519080825280601f01601f19166020018201604052801561a2505781602001600182028038833980820191505090505b50905060008090505b601081101561a35057838160108110151561a27057fe5b1a7f010000000000000000000000000000000000000000000000000000000000000002828281518110151561a2a157fe5b9060200101907effffffffffffffffffffffffffffffffffffffffffffffffffffffffffffff1916908160001a905350828160108110151561a2df57fe5b1a7f010000000000000000000000000000000000000000000000000000000000000002828260100181518110151561a31357fe5b9060200101907effffffffffffffffffffffffffffffffffffffffffffffffffffffffffffff1916908160001a905350808060010191505061a259565b5061a35c81600061aa6b565b935050505092915050565b61a36f61acd5565b61a3a982600081518110151561a38157fe5b9060200190602002015183600181518110151561a39a57fe5b9060200190602002015161a209565b81600060038110151561a3b857fe5b60200201818152505061a3fb82600281518110151561a3d357fe5b9060200190602002015183600381518110151561a3ec57fe5b9060200190602002015161a209565b81600160038110151561a40a57fe5b60200201818152505061a44d82600481518110151561a42557fe5b9060200190602002015183600581518110151561a43e57fe5b9060200190602002015161a209565b81600260038110151561a45c57fe5b602002018181525050919050565b61a47261acf8565b60008090505b600460020160ff1681101561a4ec5761a4c8836002830281518110151561a49b57fe5b90602001906020020151846001600285020181518110151561a4b957fe5b9060200190602002015161a209565b828260068110151561a4d657fe5b602002018181525050808060010191505061a478565b50919050565b6000808560010290506000856001029050600085600102905060008560010290506060604080519080825280601f01601f19166020018201604052801561a5485781602001600182028038833980820191505090505b50905060008090505b601081101561a72c57858160108110151561a56857fe5b1a7f010000000000000000000000000000000000000000000000000000000000000002828281518110151561a59957fe5b9060200101907effffffffffffffffffffffffffffffffffffffffffffffffffffffffffffff1916908160001a905350848160108110151561a5d757fe5b1a7f010000000000000000000000000000000000000000000000000000000000000002828260100181518110151561a60b57fe5b9060200101907effffffffffffffffffffffffffffffffffffffffffffffffffffffffffffff1916908160001a905350838160108110151561a64957fe5b1a7f010000000000000000000000000000000000000000000000000000000000000002828260200181518110151561a67d57fe5b9060200101907effffffffffffffffffffffffffffffffffffffffffffffffffffffffffffff1916908160001a905350828160108110151561a6bb57fe5b1a7f010000000000000000000000000000000000000000000000000000000000000002828260300181518110151561a6ef57fe5b9060200101907effffffffffffffffffffffffffffffffffffffffffffffffffffffffffffff1916908160001a905350808060010191505061a551565b50600081805190602001209050806000526000519650505050505050949350505050565b60008151835114151561a76257600080fd5b600083519050600060068202905060608160405190808252806020026020018201604052801561a7a15781602001602082028038833980820191505090505b50905060008090505b8381101561a97f57868181518110151561a7c057fe5b9060200190602002015160000151826000600684020181518110151561a7e257fe5b9060200190602002018181525050868181518110151561a7fe57fe5b9060200190602002015160200151826001600684020181518110151561a82057fe5b9060200190602002018181525050858181518110151561a83c57fe5b9060200190602002015160000151600060028110151561a85857fe5b6020020151826002600684020181518110151561a87157fe5b9060200190602002018181525050858181518110151561a88d57fe5b9060200190602002015160000151600160028110151561a8a957fe5b6020020151826003600684020181518110151561a8c257fe5b9060200190602002018181525050858181518110151561a8de57fe5b9060200190602002015160200151600060028110151561a8fa57fe5b6020020151826004600684020181518110151561a91357fe5b9060200190602002018181525050858181518110151561a92f57fe5b9060200190602002015160200151600160028110151561a94b57fe5b6020020151826005600684020181518110151561a96457fe5b9060200190602002018181525050808060010191505061a7aa565b5061a98861adf0565b60006020826020860260208601600060086107d05a03f19050806000811461a9af5761a9b1565bfe5b5080151561a9be57600080fd5b600082600060018110151561a9cf57fe5b602002015114159550505050505092915050565b61a9eb61adcc565b60008090505b601460020160ff1681101561aa655761aa41836002830281518110151561aa1457fe5b90602001906020020151846001600285020181518110151561aa3257fe5b9060200190602002015161a209565b828260168110151561aa4f57fe5b602002018181525050808060010191505061a9f1565b50919050565b600080600090505b602081101561ab3d576008810260ff7f0100000000000000000000000000000000000000000000000000000000000000028583860181518110151561aab457fe5b9060200101517f010000000000000000000000000000000000000000000000000000000000000090047f010000000000000000000000000000000000000000000000000000000000000002167effffffffffffffffffffffffffffffffffffffffffffffffffffffffffffff1916908060020a820491505082179150808060010191505061aa73565b5092915050565b6101006040519081016040528061ab5961ad68565b815260200161ab6661ada5565b815260200161ab7361ad68565b81525090565b508054600082559060005260206000209081019061ab97919061ae13565b50565b6101e06040519081016040528061abaf61ad68565b815260200161abbc61ada5565b815260200161abc961ada5565b815260200161abd661ada5565b8152602001606081525090565b604080519081016040528060008152602001600081525090565b82805482825590600052602060002090810192821561ac39579160200282015b8281111561ac3857825182559160200191906001019061ac1d565b5b50905061ac46919061ae38565b5090565b608060405190810160405280600490602082028038833980820191505090505090565b508054600082559060005260206000209081019061ac8b919061ae38565b50565b60e060405190810160405280600790602082028038833980820191505090505090565b61026060405190810160405280601390602082028038833980820191505090505090565b606060405190810160405280600390602082028038833980820191505090505090565b60c060405190810160405280600690602082028038833980820191505090505090565b82805482825590600052602060002090810192821561ad57579160200282015b8281111561ad5657825182559160200191906001019061ad3b565b5b50905061ad64919061ae13565b5090565b604080519081016040528060008152602001600081525090565b606060405190810160405280600390602082028038833980820191505090505090565b60806040519081016040528061adb961ae5d565b815260200161adc661ae5d565b81525090565b6102c060405190810160405280601690602082028038833980820191505090505090565b602060405190810160405280600190602082028038833980820191505090505090565b61ae3591905b8082111561ae3157600081600090555060010161ae19565b5090565b90565b61ae5a91905b8082111561ae5657600081600090555060010161ae3e565b5090565b90565b604080519081016040528060029060208202803883398082019150509050509056fe4e6f74652069732065697468657220696e76616c6964206f7220616c7265616479207370656e747472616e736665724e6f7465734e756d206973206c6f776572207468616e206c6173744e6f7465734e756d206f7220626967676572207468616e206d61784e6f7465734e756d4e6f74652063616e6e6f74206265206368616c6c656e67656420616e796d6f72655472616e73616374696f6e207375636365737366756c6c792076657269666965642e546865207369676e20646f6573206e6f74206d61746368206d706b20416464726573736d706b204164647265737320646f6573206e6f74206d61746368206d706b206164647265737320696e207061796d656e745478436f72726573706f6e64696e672068617368206f662070726f6f6620646f65736e74206578697374a165627a7a723058207a1c50b0308122c6e1c5d3f6f8b2dc4e125d9669752426665c3adca786ba6db00029",
  "source": "pragma solidity ^0.5.2;\n\nimport \"../ZkDai.sol\";\n\ncontract TestZkDai is ZkDai {\n  constructor(uint256 _cooldown, uint256 _stake, address daiTokenAddress)\n    ZkDai(_cooldown, _stake, daiTokenAddress) public {}\n\n  function setCooldown(uint256 _cooldown) public {\n    cooldown = _cooldown;\n  }\n}\n",
  "sourcePath": "/home/boo/work/LightningZKP/contracts/Test/TestZkDai.sol",
  "compiler": {
    "name": "solc",
    "version": "0.5.2+commit.1df8f40c.Emscripten.clang"
  },
  "schemaVersion": "3.0.16",
  "updatedAt": "2019-10-17T09:24:38.131Z",
  "devdoc": {
    "methods": {
      "challenge(uint256[2],uint256[2][2],uint256[2])": {
        "details": "Challenge the mint or spend proofs and claim the stake amount if challenge passes."
      },
      "commit(bytes32)": {
        "details": "Commit a particular proof once the challenge period has ended",
        "params": {
          "proofHash": "Hash of the proof that needs to be committed"
        }
      },
      "liquidate(address,uint256[2],uint256[2][2],uint256[2],uint256[4])": {
        "details": "Liquidate a note to transfer the equivalent amount of dai to the recipient",
        "params": {
          "input": "Public inputs of the zkSnark",
          "to": "Recipient of the dai tokens"
        }
      },
      "mint(uint256[2],uint256[2][2],uint256[2],uint256[4])": {
        "details": "Transfers specified number of dai tokens to itself and submits the zkSnark proof to mint a new note",
        "params": {
          "input": "Public inputs of the zkSnark"
        }
      },
      "spend(uint256[2],uint256[2][2],uint256[2],uint256[7])": {
        "details": "Submits the zkSnark proof to be able to spend a note and create two new notes",
        "params": {
          "input": "Public inputs of the zkSnark"
        }
      }
    }
  },
  "userdoc": {
    "methods": {
      "challenge(uint256[2],uint256[2][2],uint256[2])": {
        "notice": "If challenge passes, the challenger claims the stake amount,        otherwise note(s) are committed/spent and stake is transferred back to proof submitter.params: a, a_p, b, b_p, c, c_p, h, k zkSnark parameters of the challenged proof"
      },
      "liquidate(address,uint256[2],uint256[2][2],uint256[2],uint256[4])": {
        "notice": "params: a, a_p, b, b_p, c, c_p, h, k zkSnark parameters"
      },
      "mint(uint256[2],uint256[2][2],uint256[2],uint256[4])": {
        "notice": "params: a, a_p, b, b_p, c, c_p, h, k zkSnark parameters"
      },
      "spend(uint256[2],uint256[2][2],uint256[2],uint256[7])": {
        "notice": "params: a, a_p, b, b_p, c, c_p, h, k zkSnark parameters"
      }
    }
  }
}