{
  "contractName": "TestZkDai",
  "abi": [
    {
      "constant": false,
      "inputs": [
        {
          "name": "a",
          "type": "uint256[2]"
        },
        {
          "name": "b",
          "type": "uint256[2][2]"
        },
        {
          "name": "c",
          "type": "uint256[2]"
        },
        {
          "name": "input",
          "type": "uint256[4]"
        }
      ],
      "name": "liquidateVerifyTx",
      "outputs": [
        {
          "name": "r",
          "type": "bool"
        }
      ],
      "payable": false,
      "stateMutability": "nonpayable",
      "type": "function"
    },
    {
      "constant": false,
      "inputs": [
        {
          "name": "a",
          "type": "uint256[2]"
        },
        {
          "name": "b",
          "type": "uint256[2][2]"
        },
        {
          "name": "c",
          "type": "uint256[2]"
        },
        {
          "name": "input",
          "type": "uint256[4]"
        }
      ],
      "name": "mintVerifyTx",
      "outputs": [
        {
          "name": "r",
          "type": "bool"
        }
      ],
      "payable": false,
      "stateMutability": "nonpayable",
      "type": "function"
    },
    {
      "constant": true,
      "inputs": [
        {
          "name": "",
          "type": "bytes32"
        }
      ],
      "name": "depositPools",
      "outputs": [
        {
          "name": "mpkAddress",
          "type": "address"
        },
        {
          "name": "expiredTime",
          "type": "uint256"
        },
        {
          "name": "maxNotesNum",
          "type": "uint8"
        },
        {
          "name": "lastNotesNum",
          "type": "uint8"
        }
      ],
      "payable": false,
      "stateMutability": "view",
      "type": "function"
    },
    {
      "constant": true,
      "inputs": [],
      "name": "stake",
      "outputs": [
        {
          "name": "",
          "type": "uint256"
        }
      ],
      "payable": false,
      "stateMutability": "view",
      "type": "function"
    },
    {
      "constant": false,
      "inputs": [
        {
          "name": "to",
          "type": "address"
        },
        {
          "name": "a",
          "type": "uint256[2]"
        },
        {
          "name": "b",
          "type": "uint256[2][2]"
        },
        {
          "name": "c",
          "type": "uint256[2]"
        },
        {
          "name": "input",
          "type": "uint256[4]"
        }
      ],
      "name": "liquidate",
      "outputs": [],
      "payable": true,
      "stateMutability": "payable",
      "type": "function"
    },
    {
      "constant": false,
      "inputs": [
        {
          "name": "a",
          "type": "uint256[2]"
        },
        {
          "name": "b",
          "type": "uint256[2][2]"
        },
        {
          "name": "c",
          "type": "uint256[2]"
        },
        {
          "name": "input",
          "type": "uint256[7]"
        }
      ],
      "name": "spendVerifyTx",
      "outputs": [
        {
          "name": "r",
          "type": "bool"
        }
      ],
      "payable": false,
      "stateMutability": "nonpayable",
      "type": "function"
    },
    {
      "constant": false,
      "inputs": [
        {
          "name": "a",
          "type": "uint256[2]"
        },
        {
          "name": "b",
          "type": "uint256[2][2]"
        },
        {
          "name": "c",
          "type": "uint256[2]"
        },
        {
          "name": "input",
          "type": "uint256[4]"
        }
      ],
      "name": "mint",
      "outputs": [],
      "payable": true,
      "stateMutability": "payable",
      "type": "function"
    },
    {
      "constant": true,
      "inputs": [],
      "name": "cooldown",
      "outputs": [
        {
          "name": "",
          "type": "uint256"
        }
      ],
      "payable": false,
      "stateMutability": "view",
      "type": "function"
    },
    {
      "constant": false,
      "inputs": [
        {
          "name": "a",
          "type": "uint256[2]"
        },
        {
          "name": "b",
          "type": "uint256[2][2]"
        },
        {
          "name": "c",
          "type": "uint256[2]"
        }
      ],
      "name": "challenge",
      "outputs": [],
      "payable": false,
      "stateMutability": "nonpayable",
      "type": "function"
    },
    {
      "constant": true,
      "inputs": [
        {
          "name": "",
          "type": "bytes32"
        }
      ],
      "name": "notes",
      "outputs": [
        {
          "name": "",
          "type": "uint8"
        }
      ],
      "payable": false,
      "stateMutability": "view",
      "type": "function"
    },
    {
      "constant": true,
      "inputs": [
        {
          "name": "",
          "type": "bytes32"
        }
      ],
      "name": "submissions",
      "outputs": [
        {
          "name": "submitter",
          "type": "address"
        },
        {
          "name": "sType",
          "type": "uint8"
        },
        {
          "name": "submittedAt",
          "type": "uint256"
        }
      ],
      "payable": false,
      "stateMutability": "view",
      "type": "function"
    },
    {
      "constant": false,
      "inputs": [
        {
          "name": "proofHash",
          "type": "bytes32"
        }
      ],
      "name": "commit",
      "outputs": [],
      "payable": false,
      "stateMutability": "nonpayable",
      "type": "function"
    },
    {
      "constant": true,
      "inputs": [],
      "name": "dai",
      "outputs": [
        {
          "name": "",
          "type": "address"
        }
      ],
      "payable": false,
      "stateMutability": "view",
      "type": "function"
    },
    {
      "constant": false,
      "inputs": [
        {
          "name": "a",
          "type": "uint256[2]"
        },
        {
          "name": "b",
          "type": "uint256[2][2]"
        },
        {
          "name": "c",
          "type": "uint256[2]"
        },
        {
          "name": "input",
          "type": "uint256[7]"
        }
      ],
      "name": "spend",
      "outputs": [],
      "payable": true,
      "stateMutability": "payable",
      "type": "function"
    },
    {
      "inputs": [
        {
          "name": "_cooldown",
          "type": "uint256"
        },
        {
          "name": "_stake",
          "type": "uint256"
        },
        {
          "name": "daiTokenAddress",
          "type": "address"
        }
      ],
      "payable": false,
      "stateMutability": "nonpayable",
      "type": "constructor"
    },
    {
      "anonymous": false,
      "inputs": [
        {
          "indexed": false,
          "name": "note",
          "type": "bytes32"
        },
        {
          "indexed": false,
          "name": "state",
          "type": "uint8"
        }
      ],
      "name": "NoteStateChange",
      "type": "event"
    },
    {
      "anonymous": false,
      "inputs": [
        {
          "indexed": false,
          "name": "submitter",
          "type": "address"
        },
        {
          "indexed": false,
          "name": "proofHash",
          "type": "bytes32"
        }
      ],
      "name": "Submitted",
      "type": "event"
    },
    {
      "anonymous": false,
      "inputs": [
        {
          "indexed": false,
          "name": "mpkAddress",
          "type": "address"
        },
        {
          "indexed": false,
          "name": "poolId",
          "type": "bytes32"
        }
      ],
      "name": "Deposited",
      "type": "event"
    },
    {
      "anonymous": false,
      "inputs": [
        {
          "indexed": true,
          "name": "challenger",
          "type": "address"
        },
        {
          "indexed": false,
          "name": "proofHash",
          "type": "bytes32"
        }
      ],
      "name": "Challenged",
      "type": "event"
    },
    {
      "anonymous": false,
      "inputs": [
        {
          "indexed": false,
          "name": "s",
          "type": "string"
        }
      ],
      "name": "LiquidateVerified",
      "type": "event"
    },
    {
      "anonymous": false,
      "inputs": [
        {
          "indexed": false,
          "name": "s",
          "type": "string"
        }
      ],
      "name": "SpendVerified",
      "type": "event"
    },
    {
      "anonymous": false,
      "inputs": [
        {
          "indexed": false,
          "name": "s",
          "type": "string"
        }
      ],
      "name": "MintVerified",
      "type": "event"
    },
    {
      "constant": false,
      "inputs": [
        {
          "name": "_cooldown",
          "type": "uint256"
        }
      ],
      "name": "setCooldown",
      "outputs": [],
      "payable": false,
      "stateMutability": "nonpayable",
      "type": "function"
    }
  ],
  "bytecode": "0x60806040523480156200001157600080fd5b506040516060806200586f833981018060405260608110156200003357600080fd5b81019080805190602001909291908051906020019092919080519060200190929190505050828282826000819055508160018190555080600260006101000a81548173ffffffffffffffffffffffffffffffffffffffff021916908373ffffffffffffffffffffffffffffffffffffffff1602179055505050505050506157af80620000c06000396000f3fe608060405260043610610105576000357c0100000000000000000000000000000000000000000000000000000000900480637255ae7b116100a7578063c5c9c0a211610076578063c5c9c0a214610830578063f14fcbc8146108c7578063f4b9fa7514610902578063fd696b6e1461095957610105565b80637255ae7b1461070b578063787a08a6146107585780637f67df4c1461078357806385de26b7146107d357610105565b80633a4b66f1116100e35780633a4b66f1146104b25780634fc3f41a146104dd57806355258f7b146105185780635c9985271461058557610105565b80631210c56d1461010a5780631fa41b3f1461029057806338cd809314610416575b600080fd5b34801561011657600080fd5b50610276600480360361018081101561012e57600080fd5b8101908080604001906002806020026040519081016040528092919082600260200280828437600081840152601f19601f82011690508083019250505050505091929192908060800190600280602002604051908101604052809291906000905b828210156101e3578382604002016002806020026040519081016040528092919082600260200280828437600081840152601f19601f8201169050808301925050505050508152602001906001019061018f565b50505050919291929080604001906002806020026040519081016040528092919082600260200280828437600081840152601f19601f820116905080830192505050505050919291929080608001906004806020026040519081016040528092919082600460200280828437600081840152601f19601f82011690508083019250505050505091929192905050506109a6565b604051808215151515815260200191505060405180910390f35b34801561029c57600080fd5b506103fc60048036036101808110156102b457600080fd5b8101908080604001906002806020026040519081016040528092919082600260200280828437600081840152601f19601f82011690508083019250505050505091929192908060800190600280602002604051908101604052809291906000905b82821015610369578382604002016002806020026040519081016040528092919082600260200280828437600081840152601f19601f82011690508083019250505050505081526020019060010190610315565b50505050919291929080604001906002806020026040519081016040528092919082600260200280828437600081840152601f19601f820116905080830192505050505050919291929080608001906004806020026040519081016040528092919082600460200280828437600081840152601f19601f8201169050808301925050505050509192919290505050610c0b565b604051808215151515815260200191505060405180910390f35b34801561042257600080fd5b5061044f6004803603602081101561043957600080fd5b8101908080359060200190929190505050610e70565b604051808573ffffffffffffffffffffffffffffffffffffffff1673ffffffffffffffffffffffffffffffffffffffff1681526020018481526020018360ff1660ff1681526020018260ff1660ff16815260200194505050505060405180910390f35b3480156104be57600080fd5b506104c7610eda565b6040518082815260200191505060405180910390f35b3480156104e957600080fd5b506105166004803603602081101561050057600080fd5b8101908080359060200190929190505050610ee0565b005b61058360048036036101a081101561052f57600080fd5b81019080803573ffffffffffffffffffffffffffffffffffffffff16906020019092919080604001909192919290806080019091929192908060400190919291929080608001909192919290505050610eea565b005b34801561059157600080fd5b506106f160048036036101e08110156105a957600080fd5b8101908080604001906002806020026040519081016040528092919082600260200280828437600081840152601f19601f82011690508083019250505050505091929192908060800190600280602002604051908101604052809291906000905b8282101561065e578382604002016002806020026040519081016040528092919082600260200280828437600081840152601f19601f8201169050808301925050505050508152602001906001019061060a565b50505050919291929080604001906002806020026040519081016040528092919082600260200280828437600081840152601f19601f82011690508083019250505050505091929192908060e001906007806020026040519081016040528092919082600760200280828437600081840152601f19601f8201169050808301925050505050509192919290505050611012565b604051808215151515815260200191505060405180910390f35b610756600480360361018081101561072257600080fd5b8101908080604001909192919290806080019091929192908060400190919291929080608001909192919290505050611277565b005b34801561076457600080fd5b5061076d611558565b6040518082815260200191505060405180910390f35b34801561078f57600080fd5b506107d160048036036101008110156107a757600080fd5b8101908080604001909192919290806080019091929192908060400190919291929050505061155e565b005b3480156107df57600080fd5b5061080c600480360360208110156107f657600080fd5b8101908080359060200190929190505050611a43565b6040518082600381111561081c57fe5b60ff16815260200191505060405180910390f35b34801561083c57600080fd5b506108696004803603602081101561085357600080fd5b8101908080359060200190929190505050611a63565b604051808473ffffffffffffffffffffffffffffffffffffffff1673ffffffffffffffffffffffffffffffffffffffff1681526020018360048111156108ab57fe5b60ff168152602001828152602001935050505060405180910390f35b3480156108d357600080fd5b50610900600480360360208110156108ea57600080fd5b8101908080359060200190929190505050611aba565b005b34801561090e57600080fd5b50610917611cac565b604051808273ffffffffffffffffffffffffffffffffffffffff1673ffffffffffffffffffffffffffffffffffffffff16815260200191505060405180910390f35b6109a460048036036101e081101561097057600080fd5b810190808060400190919291929080608001909192919290806040019091929192908060e001909192919290505050611cd2565b005b60006109b06154d5565b60408051908101604052808760006002811015156109ca57fe5b602002015181526020018760016002811015156109e357fe5b6020020151815250816000018190525060408051908101604052806040805190810160405280886000600281101515610a1857fe5b60200201516000600281101515610a2b57fe5b60200201518152602001886000600281101515610a4457fe5b60200201516001600281101515610a5757fe5b602002015181525081526020016040805190810160405280886001600281101515610a7e57fe5b60200201516000600281101515610a9157fe5b60200201518152602001886001600281101515610aaa57fe5b60200201516001600281101515610abd57fe5b602002015181525081525081602001819052506040805190810160405280856000600281101515610aea57fe5b60200201518152602001856001600281101515610b0357fe5b6020020151815250816040018190525060606004604051908082528060200260200182016040528015610b455781602001602082028038833980820191505090505b50905060008090505b6004811015610b93578481600481101515610b6557fe5b60200201518282815181101515610b7857fe5b90602001906020020181815250508080600101915050610b4e565b506000610ba08284611df8565b1415610bfc577f46d48f0a138fd14dfc4a9086422b1a886a0f02eade5d6abef007754fe4b06bc060405180806020018281038252602281526020018061573a6022913960400191505060405180910390a1600192505050610c03565b6000925050505b949350505050565b6000610c156154d5565b6040805190810160405280876000600281101515610c2f57fe5b60200201518152602001876001600281101515610c4857fe5b6020020151815250816000018190525060408051908101604052806040805190810160405280886000600281101515610c7d57fe5b60200201516000600281101515610c9057fe5b60200201518152602001886000600281101515610ca957fe5b60200201516001600281101515610cbc57fe5b602002015181525081526020016040805190810160405280886001600281101515610ce357fe5b60200201516000600281101515610cf657fe5b60200201518152602001886001600281101515610d0f57fe5b60200201516001600281101515610d2257fe5b602002015181525081525081602001819052506040805190810160405280856000600281101515610d4f57fe5b60200201518152602001856001600281101515610d6857fe5b6020020151815250816040018190525060606004604051908082528060200260200182016040528015610daa5781602001602082028038833980820191505090505b50905060008090505b6004811015610df8578481600481101515610dca57fe5b60200201518282815181101515610ddd57fe5b90602001906020020181815250508080600101915050610db3565b506000610e058284611f80565b1415610e61577f2cef7d724e9df39531c164620567bd12bd8ca7b47fa53317f1078c2f2d5951ce60405180806020018281038252602281526020018061573a6022913960400191505060405180910390a1600192505050610e68565b6000925050505b949350505050565b60036020528060005260406000206000915090508060000160009054906101000a900473ffffffffffffffffffffffffffffffffffffffff16908060010154908060020160009054906101000a900460ff16908060020160019054906101000a900460ff16905084565b60015481565b8060008190555050565b61100b85856002806020026040519081016040528092919082600260200280828437600081840152601f19601f82011690508083019250505050505085600280602002604051908101604052809291906000905b82821015610f92578382604002016002806020026040519081016040528092919082600260200280828437600081840152601f19601f82011690508083019250505050505081526020019060010190610f3e565b50505050856002806020026040519081016040528092919082600260200280828437600081840152601f19601f820116905080830192505050505050856004806020026040519081016040528092919082600460200280828437600081840152601f19601f820116905080830192505050505050612108565b5050505050565b600061101c6154d5565b604080519081016040528087600060028110151561103657fe5b6020020151815260200187600160028110151561104f57fe5b602002015181525081600001819052506040805190810160405280604080519081016040528088600060028110151561108457fe5b6020020151600060028110151561109757fe5b602002015181526020018860006002811015156110b057fe5b602002015160016002811015156110c357fe5b6020020151815250815260200160408051908101604052808860016002811015156110ea57fe5b602002015160006002811015156110fd57fe5b6020020151815260200188600160028110151561111657fe5b6020020151600160028110151561112957fe5b60200201518152508152508160200181905250604080519081016040528085600060028110151561115657fe5b6020020151815260200185600160028110151561116f57fe5b60200201518152508160400181905250606060076040519080825280602002602001820160405280156111b15781602001602082028038833980820191505090505b50905060008090505b60078110156111ff5784816007811015156111d157fe5b602002015182828151811015156111e457fe5b906020019060200201818152505080806001019150506111ba565b50600061120c8284612346565b1415611268577ff6cb06d2e93a0bf2c44f15288883c84bd0564b45a72d58a8b0793915bd00eb1b60405180806020018281038252602281526020018061573a6022913960400191505060405180910390a160019250505061126f565b6000925050505b949350505050565b600260009054906101000a900473ffffffffffffffffffffffffffffffffffffffff1673ffffffffffffffffffffffffffffffffffffffff166323b872dd33308460026004811015156112c657fe5b60200201356040518463ffffffff167c0100000000000000000000000000000000000000000000000000000000028152600401808473ffffffffffffffffffffffffffffffffffffffff1673ffffffffffffffffffffffffffffffffffffffff1681526020018373ffffffffffffffffffffffffffffffffffffffff1673ffffffffffffffffffffffffffffffffffffffff1681526020018281526020019350505050602060405180830381600087803b15801561138357600080fd5b505af1158015611397573d6000803e3d6000fd5b505050506040513d60208110156113ad57600080fd5b81019080805190602001909291905050501515611432576040517f08c379a00000000000000000000000000000000000000000000000000000000081526004018080602001828103825260188152602001807f646169546f6b656e207472616e73666572206661696c6564000000000000000081525060200191505060405180910390fd5b611552846002806020026040519081016040528092919082600260200280828437600081840152601f19601f82011690508083019250505050505084600280602002604051908101604052809291906000905b828210156114d9578382604002016002806020026040519081016040528092919082600260200280828437600081840152601f19601f82011690508083019250505050505081526020019060010190611485565b50505050846002806020026040519081016040528092919082600260200280828437600081840152601f19601f820116905080830192505050505050846004806020026040519081016040528092919082600460200280828437600081840152601f19601f8201169050808301925050505050506124ce565b50505050565b60005481565b6000611648846002806020026040519081016040528092919082600260200280828437600081840152601f19601f82011690508083019250505050505084600280602002604051908101604052809291906000905b82821015611607578382604002016002806020026040519081016040528092919082600260200280828437600081840152601f19601f820116905080830192505050505050815260200190600101906115b3565b50505050846002806020026040519081016040528092919082600260200280828437600081840152601f19601f8201169050808301925050505050506126ce565b905060006004600083815260200190815260200160002090506000600481111561166e57fe5b8160000160149054906101000a900460ff16600481111561168b57fe5b141515156116e4576040517f08c379a000000000000000000000000000000000000000000000000000000000815260040180806020018281038252602881526020018061575c6028913960400191505060405180910390fd5b600160048111156116f157fe5b8160000160149054906101000a900460ff16600481111561170e57fe5b1415611802576117fd856002806020026040519081016040528092919082600260200280828437600081840152601f19601f82011690508083019250505050505085600280602002604051908101604052809291906000905b828210156117bb578382604002016002806020026040519081016040528092919082600260200280828437600081840152601f19601f82011690508083019250505050505081526020019060010190611767565b50505050856002806020026040519081016040528092919082600260200280828437600081840152601f19601f820116905080830192505050505050856127ab565b611a3c565b6002600481111561180f57fe5b8160000160149054906101000a900460ff16600481111561182c57fe5b14156119205761191b856002806020026040519081016040528092919082600260200280828437600081840152601f19601f82011690508083019250505050505085600280602002604051908101604052809291906000905b828210156118d9578382604002016002806020026040519081016040528092919082600260200280828437600081840152601f19601f82011690508083019250505050505081526020019060010190611885565b50505050856002806020026040519081016040528092919082600260200280828437600081840152601f19601f82011690508083019250505050505085612946565b611a3b565b6003600481111561192d57fe5b8160000160149054906101000a900460ff16600481111561194a57fe5b1415611a3a57611a39856002806020026040519081016040528092919082600260200280828437600081840152601f19601f82011690508083019250505050505085600280602002604051908101604052809291906000905b828210156119f7578382604002016002806020026040519081016040528092919082600260200280828437600081840152601f19601f820116905080830192505050505050815260200190600101906119a3565b50505050856002806020026040519081016040528092919082600260200280828437600081840152601f19601f82011690508083019250505050505085612ae1565b5b5b5b5050505050565b60056020528060005260406000206000915054906101000a900460ff1681565b60046020528060005260406000206000915090508060000160009054906101000a900473ffffffffffffffffffffffffffffffffffffffff16908060000160149054906101000a900460ff16908060010154905083565b600060046000838152602001908152602001600020905060006004811115611ade57fe5b8160000160149054906101000a900460ff166004811115611afb57fe5b14151515611b71576040517f08c379a00000000000000000000000000000000000000000000000000000000081526004018080602001828103825260148152602001807f70726f6f664861736820697320696e76616c696400000000000000000000000081525060200191505060405180910390fd5b42600054826001015401101515611bf0576040517f08c379a00000000000000000000000000000000000000000000000000000000081526004018080602001828103825260118152602001807f4e6f7465206973207374696c6c20686f7400000000000000000000000000000081525060200191505060405180910390fd5b60016004811115611bfd57fe5b8160000160149054906101000a900460ff166004811115611c1a57fe5b1415611c2e57611c2982612c7c565b611ca8565b60026004811115611c3b57fe5b8160000160149054906101000a900460ff166004811115611c5857fe5b1415611c6c57611c6782612ee5565b611ca7565b60036004811115611c7957fe5b8160000160149054906101000a900460ff166004811115611c9657fe5b1415611ca657611ca58261345d565b5b5b5b5050565b600260009054906101000a900473ffffffffffffffffffffffffffffffffffffffff1681565b611df2846002806020026040519081016040528092919082600260200280828437600081840152601f19601f82011690508083019250505050505084600280602002604051908101604052809291906000905b82821015611d79578382604002016002806020026040519081016040528092919082600260200280828437600081840152601f19601f82011690508083019250505050505081526020019060010190611d25565b50505050846002806020026040519081016040528092919082600260200280828437600081840152601f19601f820116905080830192505050505050846007806020026040519081016040528092919082600760200280828437600081840152601f19601f820116905080830192505050505050613864565b50505050565b6000807f30644e72e131a029b85045b68181585d2833e84879b9709143e1f593f00000019050611e2661550a565b611e2e613a67565b90508060800151516001865101141515611e4757600080fd5b611e4f615553565b6040805190810160405280600081526020016000815250905060008090505b8651811015611ef357838782815181101515611e8657fe5b90602001906020020151101515611e9c57600080fd5b611ee482611edf856080015160018501815181101515611eb857fe5b906020019060200201518a85815181101515611ed057fe5b90602001906020020151613faa565b614046565b91508080600101915050611e6e565b50611f1a8183608001516000815181101515611f0b57fe5b90602001906020020151614046565b9050611f6085600001518660200151611f3284614103565b8560400151611f448a60400151614103565b8760600151611f568960000151614103565b896020015161419f565b1515611f725760019350505050611f7a565b600093505050505b92915050565b6000807f30644e72e131a029b85045b68181585d2833e84879b9709143e1f593f00000019050611fae61550a565b611fb6614323565b90508060800151516001865101141515611fcf57600080fd5b611fd7615553565b6040805190810160405280600081526020016000815250905060008090505b865181101561207b5783878281518110151561200e57fe5b9060200190602002015110151561202457600080fd5b61206c8261206785608001516001850181518110151561204057fe5b906020019060200201518a8581518110151561205857fe5b90602001906020020151613faa565b614046565b91508080600101915050611ff6565b506120a2818360800151600081518110151561209357fe5b90602001906020020151614046565b90506120e8856000015186602001516120ba84614103565b85604001516120cc8a60400151614103565b87606001516120de8960000151614103565b896020015161419f565b15156120fa5760019350505050612102565b600093505050505b92915050565b60006121158585856126ce565b90506060600160040160ff1660405190808252806020026020018201604052801561214f5781602001602082028038833980820191505090505b50905060008090505b600460ff168160ff1610156121a957838160ff1660048110151561217857fe5b6020020151828260ff1681518110151561218e57fe5b90602001906020020181815250508080600101915050612158565b508673ffffffffffffffffffffffffffffffffffffffff1681600460ff168151811015156121d357fe5b90602001906020020181815250506080604051908101604052803373ffffffffffffffffffffffffffffffffffffffff1681526020016003600481111561221657fe5b8152602001428152602001828152506004600084815260200190815260200160002060008201518160000160006101000a81548173ffffffffffffffffffffffffffffffffffffffff021916908373ffffffffffffffffffffffffffffffffffffffff16021790555060208201518160000160146101000a81548160ff021916908360048111156122a357fe5b02179055506040820151816001015560608201518160020190805190602001906122ce92919061556d565b509050507f2a8c97f42d106ad000d498a1b6bf713a9365c4c1491e66fddb022f7ed07ab9343383604051808373ffffffffffffffffffffffffffffffffffffffff1673ffffffffffffffffffffffffffffffffffffffff1681526020018281526020019250505060405180910390a150505050505050565b6000807f30644e72e131a029b85045b68181585d2833e84879b9709143e1f593f0000001905061237461550a565b61237c614866565b9050806080015151600186510114151561239557600080fd5b61239d615553565b6040805190810160405280600081526020016000815250905060008090505b8651811015612441578387828151811015156123d457fe5b906020019060200201511015156123ea57600080fd5b6124328261242d85608001516001850181518110151561240657fe5b906020019060200201518a8581518110151561241e57fe5b90602001906020020151613faa565b614046565b915080806001019150506123bc565b50612468818360800151600081518110151561245957fe5b90602001906020020151614046565b90506124ae8560000151866020015161248084614103565b85604001516124928a60400151614103565b87606001516124a48960000151614103565b896020015161419f565b15156124c057600193505050506124c8565b600093505050505b92915050565b60006124db8585856126ce565b90506060600460405190808252806020026020018201604052801561250f5781602001602082028038833980820191505090505b50905060008090505b600460ff168160ff16101561256957838160ff1660048110151561253857fe5b6020020151828260ff1681518110151561254e57fe5b90602001906020020181815250508080600101915050612518565b506080604051908101604052803373ffffffffffffffffffffffffffffffffffffffff1681526020016001600481111561259f57fe5b8152602001428152602001828152506004600084815260200190815260200160002060008201518160000160006101000a81548173ffffffffffffffffffffffffffffffffffffffff021916908373ffffffffffffffffffffffffffffffffffffffff16021790555060208201518160000160146101000a81548160ff0219169083600481111561262c57fe5b021790555060408201518160010155606082015181600201908051906020019061265792919061556d565b509050507f2a8c97f42d106ad000d498a1b6bf713a9365c4c1491e66fddb022f7ed07ab9343383604051808373ffffffffffffffffffffffffffffffffffffffff1673ffffffffffffffffffffffffffffffffffffffff1681526020018281526020019250505060405180910390a1505050505050565b60008383836040516020018084600260200280838360005b838110156127015780820151818401526020810190506126e6565b505050509050018360026000925b818410156127555782846020020151600260200280838360005b83811015612744578082015181840152602081019050612729565b50505050905001926001019261270f565b9250505082600260200280838360005b83811015612780578082015181840152602081019050612765565b5050505090500193505050506040516020818303038152906040528051906020012090509392505050565b60006004600083815260200190815260200160002090506127ca6155ba565b60008090505b600460ff1681101561281c5782600201818154811015156127ed57fe5b9060005260206000200154828260048110151561280657fe5b60200201818152505080806001019150506127d0565b5061282986868684610c0b565b15156129345760046000848152602001908152602001600020600080820160006101000a81549073ffffffffffffffffffffffffffffffffffffffff02191690556000820160146101000a81549060ff0219169055600182016000905560028201600061289691906155dd565b50503373ffffffffffffffffffffffffffffffffffffffff166108fc6001549081150290604051600060405180830381858888f193505050501580156128e0573d6000803e3d6000fd5b503373ffffffffffffffffffffffffffffffffffffffff167f12985fda7f0b862728bca0856b151f93320ceff10cbf6a49d7f294ea0aed8151846040518082815260200191505060405180910390a261293e565b61293d83612c7c565b5b505050505050565b60006004600083815260200190815260200160002090506129656155fe565b60008090505b600760ff168110156129b757826002018181548110151561298857fe5b906000526020600020015482826007811015156129a157fe5b602002018181525050808060010191505061296b565b506129c486868684611012565b1515612acf5760046000848152602001908152602001600020600080820160006101000a81549073ffffffffffffffffffffffffffffffffffffffff02191690556000820160146101000a81549060ff02191690556001820160009055600282016000612a3191906155dd565b50503373ffffffffffffffffffffffffffffffffffffffff166108fc6001549081150290604051600060405180830381858888f19350505050158015612a7b573d6000803e3d6000fd5b503373ffffffffffffffffffffffffffffffffffffffff167f12985fda7f0b862728bca0856b151f93320ceff10cbf6a49d7f294ea0aed8151846040518082815260200191505060405180910390a2612ad9565b612ad883612ee5565b5b505050505050565b6000600460008381526020019081526020016000209050612b006155ba565b60008090505b600460ff16811015612b52578260020181815481101515612b2357fe5b90600052602060002001548282600481101515612b3c57fe5b6020020181815250508080600101915050612b06565b50612b5f868686846109a6565b1515612c6a5760046000848152602001908152602001600020600080820160006101000a81549073ffffffffffffffffffffffffffffffffffffffff02191690556000820160146101000a81549060ff02191690556001820160009055600282016000612bcc91906155dd565b50503373ffffffffffffffffffffffffffffffffffffffff166108fc6001549081150290604051600060405180830381858888f19350505050158015612c16573d6000803e3d6000fd5b503373ffffffffffffffffffffffffffffffffffffffff167f12985fda7f0b862728bca0856b151f93320ceff10cbf6a49d7f294ea0aed8151846040518082815260200191505060405180910390a2612c74565b612c738361345d565b5b505050505050565b60006004600083815260200190815260200160002090506000612cd7826002016000815481101515612caa57fe5b9060005260206000200154836002016001815481101515612cc757fe5b9060005260206000200154614f08565b905060006003811115612ce657fe5b6005600083815260200190815260200160002060009054906101000a900460ff166003811115612d1257fe5b141515612d87576040517f08c379a00000000000000000000000000000000000000000000000000000000081526004018080602001828103825260178152602001807f4e6f74652077617320616c7265616479206d696e74656400000000000000000081525060200191505060405180910390fd5b60016005600083815260200190815260200160002060006101000a81548160ff02191690836003811115612db757fe5b021790555060046000848152602001908152602001600020600080820160006101000a81549073ffffffffffffffffffffffffffffffffffffffff02191690556000820160146101000a81549060ff02191690556001820160009055600282016000612e2391906155dd565b50508160000160009054906101000a900473ffffffffffffffffffffffffffffffffffffffff1673ffffffffffffffffffffffffffffffffffffffff166108fc6001549081150290604051600060405180830381858888f19350505050158015612e91573d6000803e3d6000fd5b507f91d2faa002479f8dc4f20862402db3dba2ebe927031674997d38e5b70d9877e781600160405180838152602001826003811115612ecc57fe5b60ff1681526020019250505060405180910390a1505050565b6000600460008381526020019081526020016000209050612f04615621565b612f5f82600201805480602002602001604051908101604052809291908181526020018280548015612f5557602002820191906000526020600020905b815481526020019060010190808311612f41575b5050505050615066565b905060016003811115612f6e57fe5b60056000836000600381101515612f8157fe5b6020020151815260200190815260200160002060009054906101000a900460ff166003811115612fad57fe5b141515613005576040517f08c379a00000000000000000000000000000000000000000000000000000000081526004018080602001828103825260278152602001806157136027913960400191505060405180910390fd5b6000600381111561301257fe5b6005600083600160038110151561302557fe5b6020020151815260200190815260200160002060009054906101000a900460ff16600381111561305157fe5b1415156130c6576040517f08c379a000000000000000000000000000000000000000000000000000000000815260040180806020018281038252601e8152602001807f6f7574707574206e6f74653120697320616c7265616479206d696e746564000081525060200191505060405180910390fd5b600060038111156130d357fe5b600560008360026003811015156130e657fe5b6020020151815260200190815260200160002060009054906101000a900460ff16600381111561311257fe5b141515613187576040517f08c379a000000000000000000000000000000000000000000000000000000000815260040180806020018281038252601e8152602001807f6f7574707574206e6f74653220697320616c7265616479206d696e746564000081525060200191505060405180910390fd5b60026005600083600060038110151561319c57fe5b6020020151815260200190815260200160002060006101000a81548160ff021916908360038111156131ca57fe5b02179055506001600560008360016003811015156131e457fe5b6020020151815260200190815260200160002060006101000a81548160ff0219169083600381111561321257fe5b021790555060016005600083600260038110151561322c57fe5b6020020151815260200190815260200160002060006101000a81548160ff0219169083600381111561325a57fe5b021790555060046000848152602001908152602001600020600080820160006101000a81549073ffffffffffffffffffffffffffffffffffffffff02191690556000820160146101000a81549060ff021916905560018201600090556002820160006132c691906155dd565b50508160000160009054906101000a900473ffffffffffffffffffffffffffffffffffffffff1673ffffffffffffffffffffffffffffffffffffffff166108fc6001549081150290604051600060405180830381858888f19350505050158015613334573d6000803e3d6000fd5b507f91d2faa002479f8dc4f20862402db3dba2ebe927031674997d38e5b70d9877e781600060038110151561336557fe5b602002015160026040518083815260200182600381111561338257fe5b60ff1681526020019250505060405180910390a17f91d2faa002479f8dc4f20862402db3dba2ebe927031674997d38e5b70d9877e78160016003811015156133c657fe5b60200201516001604051808381526020018260038111156133e357fe5b60ff1681526020019250505060405180910390a17f91d2faa002479f8dc4f20862402db3dba2ebe927031674997d38e5b70d9877e781600260038110151561342757fe5b602002015160016040518083815260200182600381111561344457fe5b60ff1681526020019250505060405180910390a1505050565b600060046000838152602001908152602001600020905060006134b882600201600081548110151561348b57fe5b90600052602060002001548360020160018154811015156134a857fe5b9060005260206000200154614f08565b9050600160038111156134c757fe5b6005600083815260200190815260200160002060009054906101000a900460ff1660038111156134f357fe5b14151561354b576040517f08c379a00000000000000000000000000000000000000000000000000000000081526004018080602001828103825260278152602001806157136027913960400191505060405180910390fd5b60026005600083815260200190815260200160002060006101000a81548160ff0219169083600381111561357b57fe5b02179055508160000160009054906101000a900473ffffffffffffffffffffffffffffffffffffffff1673ffffffffffffffffffffffffffffffffffffffff166108fc6001549081150290604051600060405180830381858888f193505050501580156135ec573d6000803e3d6000fd5b50600082600201600460ff1681548110151561360457fe5b90600052602060002001549050600083600201600281548110151561362557fe5b9060005260206000200154905060046000868152602001908152602001600020600080820160006101000a81549073ffffffffffffffffffffffffffffffffffffffff02191690556000820160146101000a81549060ff0219169055600182016000905560028201600061369991906155dd565b5050600260009054906101000a900473ffffffffffffffffffffffffffffffffffffffff1673ffffffffffffffffffffffffffffffffffffffff1663a9059cbb83836040518363ffffffff167c0100000000000000000000000000000000000000000000000000000000028152600401808373ffffffffffffffffffffffffffffffffffffffff1673ffffffffffffffffffffffffffffffffffffffff16815260200182815260200192505050602060405180830381600087803b15801561376057600080fd5b505af1158015613774573d6000803e3d6000fd5b505050506040513d602081101561378a57600080fd5b8101908080519060200190929190505050151561380f576040517f08c379a00000000000000000000000000000000000000000000000000000000081526004018080602001828103825260188152602001807f646169546f6b656e207472616e73666572206661696c6564000000000000000081525060200191505060405180910390fd5b7f91d2faa002479f8dc4f20862402db3dba2ebe927031674997d38e5b70d9877e78360026040518083815260200182600381111561384957fe5b60ff1681526020019250505060405180910390a15050505050565b60006138718585856126ce565b90506060600760ff166040519080825280602002602001820160405280156138a85781602001602082028038833980820191505090505b50905060008090505b600760ff168160ff16101561390257838160ff166007811015156138d157fe5b6020020151828260ff168151811015156138e757fe5b906020019060200201818152505080806001019150506138b1565b506080604051908101604052803373ffffffffffffffffffffffffffffffffffffffff1681526020016002600481111561393857fe5b8152602001428152602001828152506004600084815260200190815260200160002060008201518160000160006101000a81548173ffffffffffffffffffffffffffffffffffffffff021916908373ffffffffffffffffffffffffffffffffffffffff16021790555060208201518160000160146101000a81548160ff021916908360048111156139c557fe5b02179055506040820151816001015560608201518160020190805190602001906139f092919061556d565b509050507f2a8c97f42d106ad000d498a1b6bf713a9365c4c1491e66fddb022f7ed07ab9343383604051808373ffffffffffffffffffffffffffffffffffffffff1673ffffffffffffffffffffffffffffffffffffffff1681526020018281526020019250505060405180910390a1505050505050565b613a6f61550a565b60408051908101604052807f08e8fd47f4f47ca3bf35d3549cc9cbc9ee4980e7555623215f325533055db98481526020017effd309565aa419ab4d5b0b1356a42cbd79a90b7bf5842ec7d77fbc903ec48c8152508160000181905250604080519081016040528060408051908101604052807f191aea51714d75793ebce74e92140ff5b9a72b2b21db0e7d38a9a6f6ec561e2781526020017f125e351f64102e5ed7413e9e1ae39fcda03f94b4952ae5024c1a979032fe17a6815250815260200160408051908101604052807f2a38351dc02090cf4c992e0e79c380add7cf09e2efc156ec8638c44cb2659ae581526020017f2057aa937ac295a24afe5fe8f41bf3b726c1e9a747a3d82112eb6f21a7249e348152508152508160200181905250604080519081016040528060408051908101604052807f1596ddc83d27b9fc3e437ecfce0cfb1183aa2ec3218fe47b0dc87260e58cec0181526020017f1d1caa5d4c2f3eaf4e4a1c5834a843fa144f4ee7543144ab36cbed2d295b34b4815250815260200160408051908101604052807f082e72deb2bdb3f1c744d2faed40b40a8e0095857798f5271c975574e461682381526020017f22da6530029c6e8b34899b20fe962bcebae94f93f737268376261dd6710badc18152508152508160400181905250604080519081016040528060408051908101604052807f155465dc68c4a17a3844dca002ef1b0b361552491432dff1103ef28d66548afd81526020017f26a9b5195a4b0a709767168cfb17ffe6b006671136407b9291f20eab14133250815250815260200160408051908101604052807f15d2db06487070c5abfe868a56d6db291353a00e87a7649355e47cc04a72d94381526020017f2e8c476822f4f14713679e51ec81f3ecd7a4e058b0a8210792c16b9c5237de8981525081525081606001819052506005604051908082528060200260200182016040528015613d5557816020015b613d42615644565b815260200190600190039081613d3a5790505b50816080018190525060408051908101604052807f045a076654acaecf344e8d6baeac13d52868fc24c9b07a948630a01a0403307f81526020017f08781c8e5717b83d3841478ec85437ce512b9db47bc88e2d9deff51f4cc5233581525081608001516000815181101515613dc657fe5b9060200190602002018190525060408051908101604052807f030852bafbd1dca04aa84803d07f6210ab89f1b76ddecc2f530fc5bdcd9115d281526020017f134807c24cc6469a59ce3ab93874d819f1e471f432bc0381ecede614c0dfc99981525081608001516001815181101515613e3b57fe5b9060200190602002018190525060408051908101604052807f229b98cb8f8aeabfd356cd7bb196730fce607346d63bb1947fed7dabdcea5e7581526020017f1edebbc7d906f9fff4f4f68ac6830e02a8850468920c597e7d121b88f8cbc3df81525081608001516002815181101515613eb057fe5b9060200190602002018190525060408051908101604052807f1396ecbae3a957f73a2becd5490d94ca78d8506c6970fb7c52b4245c3f66775481526020017f2667d1e395f4c72043b442b51ba566c5d690c7d4cf03f40f7ed37ae9f3b2e70e81525081608001516003815181101515613f2557fe5b9060200190602002018190525060408051908101604052807f10dead365b530b87ec9aadc7ac7aa5dc2501f88a9c0dcac8f23290d6f087461281526020017f0ec800383d251bc69c0d9add8bd57daec637178b1a0663ef5b0362c545709c0b81525081608001516004815181101515613f9a57fe5b9060200190602002018190525090565b613fb2615553565b613fba61565e565b8360000151816000600381101515613fce57fe5b6020020181815250508360200151816001600381101515613feb57fe5b6020020181815250508281600260038110151561400457fe5b6020020181815250506000606083608084600060076107d05a03f19050806000811461402f57614031565bfe5b5080151561403e57600080fd5b505092915050565b61404e615553565b6140566155ba565b836000015181600060048110151561406a57fe5b602002018181525050836020015181600160048110151561408757fe5b60200201818152505082600001518160026004811015156140a457fe5b60200201818152505082602001518160036004811015156140c157fe5b602002018181525050600060608360c084600060066107d05a03f1905080600081146140ec576140ee565bfe5b508015156140fb57600080fd5b505092915050565b61410b615553565b60007f30644e72e131a029b85045b68181585d97816a916871ca8d3c208c16d87cfd47905060008360000151148015614148575060008360200151145b1561416c57604080519081016040528060008152602001600081525091505061419a565b60408051908101604052808460000151815260200182856020015181151561419057fe5b0683038152509150505b919050565b6000606060046040519080825280602002602001820160405280156141de57816020015b6141cb615644565b8152602001906001900390816141c35790505b5090506060600460405190808252806020026020018201604052801561421e57816020015b61420b615681565b8152602001906001900390816142035790505b5090508a82600081518110151561423157fe5b906020019060200201819052508882600181518110151561424e57fe5b906020019060200201819052508682600281518110151561426b57fe5b906020019060200201819052508482600381518110151561428857fe5b90602001906020020181905250898160008151811015156142a557fe5b90602001906020020181905250878160018151811015156142c257fe5b90602001906020020181905250858160028151811015156142df57fe5b90602001906020020181905250838160038151811015156142fc57fe5b906020019060200201819052506143138282615169565b9250505098975050505050505050565b61432b61550a565b60408051908101604052807f1fae4ecd413ca1398b216c0c3d4735856768fe06050310f2b24e93846e01256281526020017f2ca7db4aa700b0377527eac1d88bf9a5f8f842284b9c17e1a676b56d98275caa8152508160000181905250604080519081016040528060408051908101604052807ec057ea8c869953cc2969c8f7e9e910e92cc18db1da482fc286a04a981f3fe681526020017f2e446ad64062d0493cf452d08f1e34a67c5b0601703c392fc784156c95a934e0815250815260200160408051908101604052807f1b239ecd6bdae68953141382d2ec8fc72f0e9e9cf11663e9007ea53f6394813f81526020017f19410ee6da4a8df22efd878cae356ed8698d51c33cdfffec08e0f9a6a44dbbad8152508152508160200181905250604080519081016040528060408051908101604052807f1dd0ecca1d7d5c5fbc7ae284e7839996f853a29973c9bd6479a55bbb2e95569981526020017f2110c0b3c7870541327a141bebb6378d4b18baf07e31691cec7c5a83b2f7c9fb815250815260200160408051908101604052807f05527ea33e439dd3140d729ee1400c1d4bec2952935778f5f7aa6ab3348962fe81526020017f2fc3dd960002b28734f0c4abc84f71016ba99630778d27329be0b0b48647cce98152508152508160400181905250604080519081016040528060408051908101604052807f2917a9b462f23932acfedabc068db254e740748740d56f25781fd19c4fd5822181526020017f21dde0660f0522d7e9c0be35e560d863f1817e7751a0957996f6118182b3f797815250815260200160408051908101604052807f1065a356807947b7501cbccfa75b48996889a00fe786acf3485b803c948f38bf81526020017f2911071bd56d7a39cde796146a347efe46b15b203d4880c51bde73503ef430558152508152508160600181905250600560405190808252806020026020018201604052801561461157816020015b6145fe615644565b8152602001906001900390816145f65790505b50816080018190525060408051908101604052807f2cc870366c1940584032f6b5d6611126aa4e0f959750075f3da187a359a86f7181526020017f2de9ff6fc1eb6a6509c4b49e200e3a34e701c47890235ce7aa38d49137cbe8b08152508160800151600081518110151561468257fe5b9060200190602002018190525060408051908101604052807f1b4a4e60b75d7b8e19f247e8ff8f598b853d1e3b8038158d59eeee4f433bbee881526020017f2ad88fd86e7b61b43116c6305146fa56cb95f90b46a37d1f5e3a6cb288868da5815250816080015160018151811015156146f757fe5b9060200190602002018190525060408051908101604052807f09eef616aeeb3bf6fe6d17a1062adaa71dd6275d9f18e031ff0dd3d2fea46c3c81526020017f1d79ff41013568cc8d15a0d2af6f824d93bf5a53aac7d8e93bd838084196252a8152508160800151600281518110151561476c57fe5b9060200190602002018190525060408051908101604052807f18aac35ed4d8f4c829439fbd24fbff629e692081cacbb2a11706b8893e3acfb781526020017f0b0955aaaba3899cf0223ea2c9e5ce2348ab4b6908261023173d4b6ba90c563b815250816080015160038151811015156147e157fe5b9060200190602002018190525060408051908101604052807f0995f21c52e7bbed05a4e7d0d2917337f459780582eec68c9c4ff4ebd1b0908881526020017f11b86f307ff2eabd60791c5ec3b9982103e1a192603c8fa2075b01db454416928152508160800151600481518110151561485657fe5b9060200190602002018190525090565b61486e61550a565b60408051908101604052807f1a98ac48fe2018f84f58a2906156cedd87059554be66822c8443397426bc62a781526020017f03db6d4b9d0c6621e37c5f2329a2212b4ddc29f46607e9a80d5941676e25edb78152508160000181905250604080519081016040528060408051908101604052807f1b735ac6d76ea2df5007c6388a1d2607b799e35c30e9519da33953da9d43db6f81526020017f0c2a204b6cf7546ebc106470781153a8f110a61e2ab8ecd99ac77cb09b922ae1815250815260200160408051908101604052807f180dd416bf72c1188ecdf599eee773f5b4e303e9efe35eb04e33f277e952f5be81526020017f1e35b197f94262f5fe64d0fe32af60ca51449435f6bf941df65b0d2a2942f6f78152508152508160200181905250604080519081016040528060408051908101604052807f26f0cdc4bf30d13dc2cf6367e49445fc59abcba315def5e1b3729af927e6a6c581526020017f065bd09ff773ec638084cf183c96d3178d3d5fd44206a7f9b6c8aa72b3dc52ac815250815260200160408051908101604052807f15d1ad4691023d57db5a06ce69f081fa9e61d176e8c9a40e4a446c27b17291ae81526020017f2b41d1b082947fff6fd5a5df399e59d9440d1faa701e4768ad8a460fd41dbde28152508152508160400181905250604080519081016040528060408051908101604052807f2c4a26f13a3b4888403d5b917ca0b586a2f708955a89d25b3f5f75308d84513581526020017f208605906c040f4aefde123c8939f8417ef0774f59c13dd08ffdb1248f78e84c815250815260200160408051908101604052807f0b7695268fa677103881aa934f7e45ac4ed626c33390477b851bb3ce6ee146dd81526020017f2f2fcdb0f059b6270527c5d46e3eb1af9f7463ab1ed58438c42187aa094055fc81525081525081606001819052506008604051908082528060200260200182016040528015614b5557816020015b614b42615644565b815260200190600190039081614b3a5790505b50816080018190525060408051908101604052807f0a65dc2d653564f4ea5a987bb92725e16860f9c2ed63f26663e4ea1dd201495581526020017f05edc87f90a596723787e36afc4da0d32c02f77788610349b4f875da59cc45d481525081608001516000815181101515614bc657fe5b9060200190602002018190525060408051908101604052807f1ac7c460c4d1553f7f303d1f384fbfb9fbfc5a14e963ed3ae75f14ae561fea8381526020017f16ea6aeb7d297d3e924d9802151cfa2f24b72e23c19dcf508930f5c7be2d2d0a81525081608001516001815181101515614c3b57fe5b9060200190602002018190525060408051908101604052807f09262c81daea9019fa2a153007bc7aefda07852ba846f177e3b5259525c68cb881526020017f1a1e2e4c0fc4ffb7f2423043d83236654c84a51b2240c33ac609b15bc684c58781525081608001516002815181101515614cb057fe5b9060200190602002018190525060408051908101604052807f1dcf0c809f804ea9e2cedb16407dd89f5af0f0b7ab211628fe51c4a9d06f3eef81526020017f0d39d3271f58f96eec3799622b14c869d76f421aa0c0a657d27f015fa6939a8781525081608001516003815181101515614d2557fe5b9060200190602002018190525060408051908101604052807f09ee43f5e8cdbe9d12fa57ae149ebde674532a40e0462f3b53b2e7a00768a28081526020017f13f3a99dff58fa02e9b4b636e12708f61b8c8acfa176b9589d954310b4d4305d81525081608001516004815181101515614d9a57fe5b9060200190602002018190525060408051908101604052807e60f976268eb38393a3c16ca02613d04deb4873399b911ba31e9d3c9f83a40981526020017f25610bd7ac6c62d0a575176f60f461b45852a7667c82bb0cb90654ab442e660f81525081608001516005815181101515614e0e57fe5b9060200190602002018190525060408051908101604052807f220b9534234001a50b76a0240ff70316868b988596137240f9c8c2aa2b953d4781526020017f0267d3165a1bf80e633dd90bce7fd86c95913242de0b7ecb62824756cfff3c0f81525081608001516006815181101515614e8357fe5b9060200190602002018190525060408051908101604052807f19bf56a5653c8988330352dd2cb1d594594c872bb8932961b45390badec2275181526020017f13cfe41af18911a33c1bc1fe167df2aa75476b439abe3c488eff21c2d70c29e181525081608001516007815181101515614ef857fe5b9060200190602002018190525090565b6000808360010290506000836001029050606060206040519080825280601f01601f191660200182016040528015614f4f5781602001600182028038833980820191505090505b50905060008090505b601081101561504f578381601081101515614f6f57fe5b1a7f0100000000000000000000000000000000000000000000000000000000000000028282815181101515614fa057fe5b9060200101907effffffffffffffffffffffffffffffffffffffffffffffffffffffffffffff1916908160001a9053508281601081101515614fde57fe5b1a7f010000000000000000000000000000000000000000000000000000000000000002828260100181518110151561501257fe5b9060200101907effffffffffffffffffffffffffffffffffffffffffffffffffffffffffffff1916908160001a9053508080600101915050614f58565b5061505b8160006153fc565b935050505092915050565b61506e615621565b6150a882600081518110151561508057fe5b9060200190602002015183600181518110151561509957fe5b90602001906020020151614f08565b8160006003811015156150b757fe5b6020020181815250506150fa8260028151811015156150d257fe5b906020019060200201518360038151811015156150eb57fe5b90602001906020020151614f08565b81600160038110151561510957fe5b60200201818152505061514c82600481518110151561512457fe5b9060200190602002015183600581518110151561513d57fe5b90602001906020020151614f08565b81600260038110151561515b57fe5b602002018181525050919050565b60008151835114151561517b57600080fd5b60008351905060006006820290506060816040519080825280602002602001820160405280156151ba5781602001602082028038833980820191505090505b50905060008090505b838110156153985786818151811015156151d957fe5b906020019060200201516000015182600060068402018151811015156151fb57fe5b9060200190602002018181525050868181518110151561521757fe5b9060200190602002015160200151826001600684020181518110151561523957fe5b9060200190602002018181525050858181518110151561525557fe5b9060200190602002015160000151600060028110151561527157fe5b6020020151826002600684020181518110151561528a57fe5b906020019060200201818152505085818151811015156152a657fe5b906020019060200201516000015160016002811015156152c257fe5b602002015182600360068402018151811015156152db57fe5b906020019060200201818152505085818151811015156152f757fe5b9060200190602002015160200151600060028110151561531357fe5b6020020151826004600684020181518110151561532c57fe5b9060200190602002018181525050858181518110151561534857fe5b9060200190602002015160200151600160028110151561536457fe5b6020020151826005600684020181518110151561537d57fe5b906020019060200201818152505080806001019150506151c3565b506153a16156a8565b60006020826020860260208601600060086107d05a03f1905080600081146153c8576153ca565bfe5b508015156153d757600080fd5b60008260006001811015156153e857fe5b602002015114159550505050505092915050565b600080600090505b60208110156154ce576008810260ff7f0100000000000000000000000000000000000000000000000000000000000000028583860181518110151561544557fe5b9060200101517f010000000000000000000000000000000000000000000000000000000000000090047f010000000000000000000000000000000000000000000000000000000000000002167effffffffffffffffffffffffffffffffffffffffffffffffffffffffffffff1916908060020a8204915050821791508080600101915050615404565b5092915050565b610100604051908101604052806154ea615644565b81526020016154f7615681565b8152602001615504615644565b81525090565b6101e06040519081016040528061551f615644565b815260200161552c615681565b8152602001615539615681565b8152602001615546615681565b8152602001606081525090565b604080519081016040528060008152602001600081525090565b8280548282559060005260206000209081019282156155a9579160200282015b828111156155a857825182559160200191906001019061558d565b5b5090506155b691906156cb565b5090565b608060405190810160405280600490602082028038833980820191505090505090565b50805460008255906000526020600020908101906155fb91906156cb565b50565b60e060405190810160405280600790602082028038833980820191505090505090565b606060405190810160405280600390602082028038833980820191505090505090565b604080519081016040528060008152602001600081525090565b606060405190810160405280600390602082028038833980820191505090505090565b6080604051908101604052806156956156f0565b81526020016156a26156f0565b81525090565b602060405190810160405280600190602082028038833980820191505090505090565b6156ed91905b808211156156e95760008160009055506001016156d1565b5090565b90565b604080519081016040528060029060208202803883398082019150509050509056fe4e6f74652069732065697468657220696e76616c6964206f7220616c7265616479207370656e745472616e73616374696f6e207375636365737366756c6c792076657269666965642e436f72726573706f6e64696e672068617368206f662070726f6f6620646f65736e74206578697374a165627a7a72305820c9a749e3dcb36e3666e0ec9d5abc74f23e8f12f8689d134b4170f151d521a1ca0029",
  "source": "pragma solidity ^0.5.2;\n\nimport \"../ZkDai.sol\";\n\ncontract TestZkDai is ZkDai {\n  constructor(uint256 _cooldown, uint256 _stake, address daiTokenAddress)\n    ZkDai(_cooldown, _stake, daiTokenAddress) public {}\n\n  function setCooldown(uint256 _cooldown) public {\n    cooldown = _cooldown;\n  }\n}\n",
  "sourcePath": "/home/boo/work/LightningZKP/contracts/Test/TestZkDai.sol",
  "compiler": {
    "name": "solc",
    "version": "0.5.2+commit.1df8f40c.Emscripten.clang"
  },
  "schemaVersion": "3.0.11",
  "updatedAt": "2019-10-15T14:10:28.866Z",
  "devdoc": {
    "methods": {
      "challenge(uint256[2],uint256[2][2],uint256[2])": {
        "details": "Challenge the mint or spend proofs and claim the stake amount if challenge passes."
      },
      "commit(bytes32)": {
        "details": "Commit a particular proof once the challenge period has ended",
        "params": {
          "proofHash": "Hash of the proof that needs to be committed"
        }
      },
      "liquidate(address,uint256[2],uint256[2][2],uint256[2],uint256[4])": {
        "details": "Liquidate a note to transfer the equivalent amount of dai to the recipient",
        "params": {
          "input": "Public inputs of the zkSnark",
          "to": "Recipient of the dai tokens"
        }
      },
      "mint(uint256[2],uint256[2][2],uint256[2],uint256[4])": {
        "details": "Transfers specified number of dai tokens to itself and submits the zkSnark proof to mint a new note",
        "params": {
          "input": "Public inputs of the zkSnark"
        }
      },
      "spend(uint256[2],uint256[2][2],uint256[2],uint256[7])": {
        "details": "Submits the zkSnark proof to be able to spend a note and create two new notes",
        "params": {
          "input": "Public inputs of the zkSnark"
        }
      }
    }
  },
  "userdoc": {
    "methods": {
      "challenge(uint256[2],uint256[2][2],uint256[2])": {
        "notice": "If challenge passes, the challenger claims the stake amount,        otherwise note(s) are committed/spent and stake is transferred back to proof submitter.params: a, a_p, b, b_p, c, c_p, h, k zkSnark parameters of the challenged proof"
      },
      "liquidate(address,uint256[2],uint256[2][2],uint256[2],uint256[4])": {
        "notice": "params: a, a_p, b, b_p, c, c_p, h, k zkSnark parameters"
      },
      "mint(uint256[2],uint256[2][2],uint256[2],uint256[4])": {
        "notice": "params: a, a_p, b, b_p, c, c_p, h, k zkSnark parameters"
      },
      "spend(uint256[2],uint256[2][2],uint256[2],uint256[7])": {
        "notice": "params: a, a_p, b, b_p, c, c_p, h, k zkSnark parameters"
      }
    }
  }
}