{
  "contractName": "Verifier",
  "abi": [
    {
      "anonymous": false,
      "inputs": [
        {
          "indexed": false,
          "name": "s",
          "type": "string"
        }
      ],
      "name": "LiquidateVerified",
      "type": "event"
    },
    {
      "constant": false,
      "inputs": [
        {
          "name": "a",
          "type": "uint256[2]"
        },
        {
          "name": "b",
          "type": "uint256[2][2]"
        },
        {
          "name": "c",
          "type": "uint256[2]"
        },
        {
          "name": "input",
          "type": "uint256[4]"
        }
      ],
      "name": "liquidateVerifyTx",
      "outputs": [
        {
          "name": "r",
          "type": "bool"
        }
      ],
      "payable": false,
      "stateMutability": "nonpayable",
      "type": "function"
    }
  ],
  "bytecode": "0x608060405234801561001057600080fd5b506112b4806100206000396000f3fe608060405234801561001057600080fd5b5060043610610048576000357c0100000000000000000000000000000000000000000000000000000000900480631210c56d1461004d575b600080fd5b6101ac600480360361018081101561006457600080fd5b8101908080604001906002806020026040519081016040528092919082600260200280828437600081840152601f19601f82011690508083019250505050505091929192908060800190600280602002604051908101604052809291906000905b82821015610119578382604002016002806020026040519081016040528092919082600260200280828437600081840152601f19601f820116905080830192505050505050815260200190600101906100c5565b50505050919291929080604001906002806020026040519081016040528092919082600260200280828437600081840152601f19601f820116905080830192505050505050919291929080608001906004806020026040519081016040528092919082600460200280828437600081840152601f19601f82011690508083019250505050505091929192905050506101c6565b604051808215151515815260200191505060405180910390f35b60006101d0611102565b60408051908101604052808760006002811015156101ea57fe5b6020020151815260200187600160028110151561020357fe5b602002015181525081600001819052506040805190810160405280604080519081016040528088600060028110151561023857fe5b6020020151600060028110151561024b57fe5b6020020151815260200188600060028110151561026457fe5b6020020151600160028110151561027757fe5b60200201518152508152602001604080519081016040528088600160028110151561029e57fe5b602002015160006002811015156102b157fe5b602002015181526020018860016002811015156102ca57fe5b602002015160016002811015156102dd57fe5b60200201518152508152508160200181905250604080519081016040528085600060028110151561030a57fe5b6020020151815260200185600160028110151561032357fe5b60200201518152508160400181905250606060046040519080825280602002602001820160405280156103655781602001602082028038833980820191505090505b50905060008090505b60048110156103b357848160048110151561038557fe5b6020020151828281518110151561039857fe5b9060200190602002018181525050808060010191505061036e565b5060006103c0828461042b565b141561041c577f46d48f0a138fd14dfc4a9086422b1a886a0f02eade5d6abef007754fe4b06bc06040518080602001828103825260228152602001806112676022913960400191505060405180910390a1600192505050610423565b6000925050505b949350505050565b6000807f30644e72e131a029b85045b68181585d2833e84879b9709143e1f593f00000019050610459611137565b6104616105b3565b9050806080015151600186510114151561047a57600080fd5b610482611180565b6040805190810160405280600081526020016000815250905060008090505b8651811015610526578387828151811015156104b957fe5b906020019060200201511015156104cf57600080fd5b610517826105128560800151600185018151811015156104eb57fe5b906020019060200201518a8581518110151561050357fe5b90602001906020020151610af6565b610b92565b915080806001019150506104a1565b5061054d818360800151600081518110151561053e57fe5b90602001906020020151610b92565b90506105938560000151866020015161056584610c4f565b85604001516105778a60400151610c4f565b87606001516105898960000151610c4f565b8960200151610ceb565b15156105a557600193505050506105ad565b600093505050505b92915050565b6105bb611137565b60408051908101604052807f08e8fd47f4f47ca3bf35d3549cc9cbc9ee4980e7555623215f325533055db98481526020017effd309565aa419ab4d5b0b1356a42cbd79a90b7bf5842ec7d77fbc903ec48c8152508160000181905250604080519081016040528060408051908101604052807f191aea51714d75793ebce74e92140ff5b9a72b2b21db0e7d38a9a6f6ec561e2781526020017f125e351f64102e5ed7413e9e1ae39fcda03f94b4952ae5024c1a979032fe17a6815250815260200160408051908101604052807f2a38351dc02090cf4c992e0e79c380add7cf09e2efc156ec8638c44cb2659ae581526020017f2057aa937ac295a24afe5fe8f41bf3b726c1e9a747a3d82112eb6f21a7249e348152508152508160200181905250604080519081016040528060408051908101604052807f1596ddc83d27b9fc3e437ecfce0cfb1183aa2ec3218fe47b0dc87260e58cec0181526020017f1d1caa5d4c2f3eaf4e4a1c5834a843fa144f4ee7543144ab36cbed2d295b34b4815250815260200160408051908101604052807f082e72deb2bdb3f1c744d2faed40b40a8e0095857798f5271c975574e461682381526020017f22da6530029c6e8b34899b20fe962bcebae94f93f737268376261dd6710badc18152508152508160400181905250604080519081016040528060408051908101604052807f155465dc68c4a17a3844dca002ef1b0b361552491432dff1103ef28d66548afd81526020017f26a9b5195a4b0a709767168cfb17ffe6b006671136407b9291f20eab14133250815250815260200160408051908101604052807f15d2db06487070c5abfe868a56d6db291353a00e87a7649355e47cc04a72d94381526020017f2e8c476822f4f14713679e51ec81f3ecd7a4e058b0a8210792c16b9c5237de89815250815250816060018190525060056040519080825280602002602001820160405280156108a157816020015b61088e61119a565b8152602001906001900390816108865790505b50816080018190525060408051908101604052807f045a076654acaecf344e8d6baeac13d52868fc24c9b07a948630a01a0403307f81526020017f08781c8e5717b83d3841478ec85437ce512b9db47bc88e2d9deff51f4cc523358152508160800151600081518110151561091257fe5b9060200190602002018190525060408051908101604052807f030852bafbd1dca04aa84803d07f6210ab89f1b76ddecc2f530fc5bdcd9115d281526020017f134807c24cc6469a59ce3ab93874d819f1e471f432bc0381ecede614c0dfc9998152508160800151600181518110151561098757fe5b9060200190602002018190525060408051908101604052807f229b98cb8f8aeabfd356cd7bb196730fce607346d63bb1947fed7dabdcea5e7581526020017f1edebbc7d906f9fff4f4f68ac6830e02a8850468920c597e7d121b88f8cbc3df815250816080015160028151811015156109fc57fe5b9060200190602002018190525060408051908101604052807f1396ecbae3a957f73a2becd5490d94ca78d8506c6970fb7c52b4245c3f66775481526020017f2667d1e395f4c72043b442b51ba566c5d690c7d4cf03f40f7ed37ae9f3b2e70e81525081608001516003815181101515610a7157fe5b9060200190602002018190525060408051908101604052807f10dead365b530b87ec9aadc7ac7aa5dc2501f88a9c0dcac8f23290d6f087461281526020017f0ec800383d251bc69c0d9add8bd57daec637178b1a0663ef5b0362c545709c0b81525081608001516004815181101515610ae657fe5b9060200190602002018190525090565b610afe611180565b610b066111b4565b8360000151816000600381101515610b1a57fe5b6020020181815250508360200151816001600381101515610b3757fe5b60200201818152505082816002600381101515610b5057fe5b6020020181815250506000606083608084600060076107d05a03f190508060008114610b7b57610b7d565bfe5b50801515610b8a57600080fd5b505092915050565b610b9a611180565b610ba26111d7565b8360000151816000600481101515610bb657fe5b6020020181815250508360200151816001600481101515610bd357fe5b6020020181815250508260000151816002600481101515610bf057fe5b6020020181815250508260200151816003600481101515610c0d57fe5b602002018181525050600060608360c084600060066107d05a03f190508060008114610c3857610c3a565bfe5b50801515610c4757600080fd5b505092915050565b610c57611180565b60007f30644e72e131a029b85045b68181585d97816a916871ca8d3c208c16d87cfd47905060008360000151148015610c94575060008360200151145b15610cb8576040805190810160405280600081526020016000815250915050610ce6565b604080519081016040528084600001518152602001828560200151811515610cdc57fe5b0683038152509150505b919050565b600060606004604051908082528060200260200182016040528015610d2a57816020015b610d1761119a565b815260200190600190039081610d0f5790505b50905060606004604051908082528060200260200182016040528015610d6a57816020015b610d576111fa565b815260200190600190039081610d4f5790505b5090508a826000815181101515610d7d57fe5b9060200190602002018190525088826001815181101515610d9a57fe5b9060200190602002018190525086826002815181101515610db757fe5b9060200190602002018190525084826003815181101515610dd457fe5b9060200190602002018190525089816000815181101515610df157fe5b9060200190602002018190525087816001815181101515610e0e57fe5b9060200190602002018190525085816002815181101515610e2b57fe5b9060200190602002018190525083816003815181101515610e4857fe5b90602001906020020181905250610e5f8282610e6f565b9250505098975050505050505050565b600081518351141515610e8157600080fd5b6000835190506000600682029050606081604051908082528060200260200182016040528015610ec05781602001602082028038833980820191505090505b50905060008090505b8381101561109e578681815181101515610edf57fe5b90602001906020020151600001518260006006840201815181101515610f0157fe5b90602001906020020181815250508681815181101515610f1d57fe5b90602001906020020151602001518260016006840201815181101515610f3f57fe5b90602001906020020181815250508581815181101515610f5b57fe5b90602001906020020151600001516000600281101515610f7757fe5b60200201518260026006840201815181101515610f9057fe5b90602001906020020181815250508581815181101515610fac57fe5b90602001906020020151600001516001600281101515610fc857fe5b60200201518260036006840201815181101515610fe157fe5b90602001906020020181815250508581815181101515610ffd57fe5b9060200190602002015160200151600060028110151561101957fe5b6020020151826004600684020181518110151561103257fe5b9060200190602002018181525050858181518110151561104e57fe5b9060200190602002015160200151600160028110151561106a57fe5b6020020151826005600684020181518110151561108357fe5b90602001906020020181815250508080600101915050610ec9565b506110a7611221565b60006020826020860260208601600060086107d05a03f1905080600081146110ce576110d0565bfe5b508015156110dd57600080fd5b60008260006001811015156110ee57fe5b602002015114159550505050505092915050565b6101006040519081016040528061111761119a565b81526020016111246111fa565b815260200161113161119a565b81525090565b6101e06040519081016040528061114c61119a565b81526020016111596111fa565b81526020016111666111fa565b81526020016111736111fa565b8152602001606081525090565b604080519081016040528060008152602001600081525090565b604080519081016040528060008152602001600081525090565b606060405190810160405280600390602082028038833980820191505090505090565b608060405190810160405280600490602082028038833980820191505090505090565b60806040519081016040528061120e611244565b815260200161121b611244565b81525090565b602060405190810160405280600190602082028038833980820191505090505090565b604080519081016040528060029060208202803883398082019150509050509056fe5472616e73616374696f6e207375636365737366756c6c792076657269666965642ea165627a7a72305820ee26de2b6ecc4d64285dfae64ce9fe95f4019984a827dab43602a37dd17390d60029",
  "source": "pragma solidity ^0.5.2;\nimport \"./VerifierBase.sol\";\n\ncontract Verifier is VerifierBase {\n\n    function liquidateVerifyingKey() pure internal returns (VerifyingKey memory vk) {\n        vk.a = Pairing.G1Point(uint256(0x08e8fd47f4f47ca3bf35d3549cc9cbc9ee4980e7555623215f325533055db984), uint256(0x00ffd309565aa419ab4d5b0b1356a42cbd79a90b7bf5842ec7d77fbc903ec48c));\n        vk.b = Pairing.G2Point([uint256(0x191aea51714d75793ebce74e92140ff5b9a72b2b21db0e7d38a9a6f6ec561e27), uint256(0x125e351f64102e5ed7413e9e1ae39fcda03f94b4952ae5024c1a979032fe17a6)], [uint256(0x2a38351dc02090cf4c992e0e79c380add7cf09e2efc156ec8638c44cb2659ae5), uint256(0x2057aa937ac295a24afe5fe8f41bf3b726c1e9a747a3d82112eb6f21a7249e34)]);\n        vk.gamma = Pairing.G2Point([uint256(0x1596ddc83d27b9fc3e437ecfce0cfb1183aa2ec3218fe47b0dc87260e58cec01), uint256(0x1d1caa5d4c2f3eaf4e4a1c5834a843fa144f4ee7543144ab36cbed2d295b34b4)], [uint256(0x082e72deb2bdb3f1c744d2faed40b40a8e0095857798f5271c975574e4616823), uint256(0x22da6530029c6e8b34899b20fe962bcebae94f93f737268376261dd6710badc1)]);\n        vk.delta = Pairing.G2Point([uint256(0x155465dc68c4a17a3844dca002ef1b0b361552491432dff1103ef28d66548afd), uint256(0x26a9b5195a4b0a709767168cfb17ffe6b006671136407b9291f20eab14133250)], [uint256(0x15d2db06487070c5abfe868a56d6db291353a00e87a7649355e47cc04a72d943), uint256(0x2e8c476822f4f14713679e51ec81f3ecd7a4e058b0a8210792c16b9c5237de89)]);\n        vk.gamma_abc = new Pairing.G1Point[](5);\n        vk.gamma_abc[0] = Pairing.G1Point(uint256(0x045a076654acaecf344e8d6baeac13d52868fc24c9b07a948630a01a0403307f), uint256(0x08781c8e5717b83d3841478ec85437ce512b9db47bc88e2d9deff51f4cc52335));\n        vk.gamma_abc[1] = Pairing.G1Point(uint256(0x030852bafbd1dca04aa84803d07f6210ab89f1b76ddecc2f530fc5bdcd9115d2), uint256(0x134807c24cc6469a59ce3ab93874d819f1e471f432bc0381ecede614c0dfc999));\n        vk.gamma_abc[2] = Pairing.G1Point(uint256(0x229b98cb8f8aeabfd356cd7bb196730fce607346d63bb1947fed7dabdcea5e75), uint256(0x1edebbc7d906f9fff4f4f68ac6830e02a8850468920c597e7d121b88f8cbc3df));\n        vk.gamma_abc[3] = Pairing.G1Point(uint256(0x1396ecbae3a957f73a2becd5490d94ca78d8506c6970fb7c52b4245c3f667754), uint256(0x2667d1e395f4c72043b442b51ba566c5d690c7d4cf03f40f7ed37ae9f3b2e70e));\n        vk.gamma_abc[4] = Pairing.G1Point(uint256(0x10dead365b530b87ec9aadc7ac7aa5dc2501f88a9c0dcac8f23290d6f0874612), uint256(0x0ec800383d251bc69c0d9add8bd57daec637178b1a0663ef5b0362c545709c0b));\n    }\n    function liquidateVerify(uint[] memory input, Proof memory proof) internal returns (uint) {\n        uint256 snark_scalar_field = 21888242871839275222246405745257275088548364400416034343698204186575808495617;\n        VerifyingKey memory vk = liquidateVerifyingKey();\n        require(input.length + 1 == vk.gamma_abc.length);\n        // Compute the linear combination vk_x\n        Pairing.G1Point memory vk_x = Pairing.G1Point(0, 0);\n        for (uint i = 0; i < input.length; i++) {\n            require(input[i] < snark_scalar_field);\n            vk_x = Pairing.addition(vk_x, Pairing.scalar_mul(vk.gamma_abc[i + 1], input[i]));\n        }\n        vk_x = Pairing.addition(vk_x, vk.gamma_abc[0]);\n        if(!Pairing.pairingProd4(\n             proof.a, proof.b,\n             Pairing.negate(vk_x), vk.gamma,\n             Pairing.negate(proof.c), vk.delta,\n             Pairing.negate(vk.a), vk.b)) return 1;\n        return 0;\n    }\n    event LiquidateVerified(string s);\n    function liquidateVerifyTx(\n            uint[2] memory a,\n            uint[2][2] memory b,\n            uint[2] memory c,\n            uint[4] memory input\n        ) public returns (bool r) {\n        Proof memory proof;\n        proof.a = Pairing.G1Point(a[0], a[1]);\n        proof.b = Pairing.G2Point([b[0][0], b[0][1]], [b[1][0], b[1][1]]);\n        proof.c = Pairing.G1Point(c[0], c[1]);\n        uint[] memory inputValues = new uint[](input.length);\n        for(uint i = 0; i < input.length; i++){\n            inputValues[i] = input[i];\n        }\n        if (liquidateVerify(inputValues, proof) == 0) {\n            emit LiquidateVerified(\"Transaction successfully verified.\");\n            return true;\n        } else {\n            return false;\n        }\n    }\n}\n",
  "sourcePath": "/home/boo/work/LightningZKP/contracts/verifiers/LiquidateNoteVerifier.sol",
  "compiler": {
    "name": "solc",
    "version": "0.5.2+commit.1df8f40c.Emscripten.clang"
  },
  "schemaVersion": "3.0.16",
  "updatedAt": "2019-10-17T05:04:40.845Z",
  "devdoc": {
    "methods": {}
  },
  "userdoc": {
    "methods": {}
  }
}