{
  "contractName": "Verifier",
  "abi": [
    {
      "anonymous": false,
      "inputs": [
        {
          "indexed": false,
          "name": "s",
          "type": "string"
        }
      ],
      "name": "MintVerified",
      "type": "event"
    },
    {
      "constant": false,
      "inputs": [
        {
          "name": "a",
          "type": "uint256[2]"
        },
        {
          "name": "b",
          "type": "uint256[2][2]"
        },
        {
          "name": "c",
          "type": "uint256[2]"
        },
        {
          "name": "input",
          "type": "uint256[4]"
        }
      ],
      "name": "mintVerifyTx",
      "outputs": [
        {
          "name": "r",
          "type": "bool"
        }
      ],
      "payable": false,
      "stateMutability": "nonpayable",
      "type": "function"
    }
  ],
  "bytecode": "0x608060405234801561001057600080fd5b506112b4806100206000396000f3fe608060405234801561001057600080fd5b5060043610610048576000357c0100000000000000000000000000000000000000000000000000000000900480631fa41b3f1461004d575b600080fd5b6101ac600480360361018081101561006457600080fd5b8101908080604001906002806020026040519081016040528092919082600260200280828437600081840152601f19601f82011690508083019250505050505091929192908060800190600280602002604051908101604052809291906000905b82821015610119578382604002016002806020026040519081016040528092919082600260200280828437600081840152601f19601f820116905080830192505050505050815260200190600101906100c5565b50505050919291929080604001906002806020026040519081016040528092919082600260200280828437600081840152601f19601f820116905080830192505050505050919291929080608001906004806020026040519081016040528092919082600460200280828437600081840152601f19601f82011690508083019250505050505091929192905050506101c6565b604051808215151515815260200191505060405180910390f35b60006101d0611102565b60408051908101604052808760006002811015156101ea57fe5b6020020151815260200187600160028110151561020357fe5b602002015181525081600001819052506040805190810160405280604080519081016040528088600060028110151561023857fe5b6020020151600060028110151561024b57fe5b6020020151815260200188600060028110151561026457fe5b6020020151600160028110151561027757fe5b60200201518152508152602001604080519081016040528088600160028110151561029e57fe5b602002015160006002811015156102b157fe5b602002015181526020018860016002811015156102ca57fe5b602002015160016002811015156102dd57fe5b60200201518152508152508160200181905250604080519081016040528085600060028110151561030a57fe5b6020020151815260200185600160028110151561032357fe5b60200201518152508160400181905250606060046040519080825280602002602001820160405280156103655781602001602082028038833980820191505090505b50905060008090505b60048110156103b357848160048110151561038557fe5b6020020151828281518110151561039857fe5b9060200190602002018181525050808060010191505061036e565b5060006103c0828461042b565b141561041c577f2cef7d724e9df39531c164620567bd12bd8ca7b47fa53317f1078c2f2d5951ce6040518080602001828103825260228152602001806112676022913960400191505060405180910390a1600192505050610423565b6000925050505b949350505050565b6000807f30644e72e131a029b85045b68181585d2833e84879b9709143e1f593f00000019050610459611137565b6104616105b3565b9050806080015151600186510114151561047a57600080fd5b610482611180565b6040805190810160405280600081526020016000815250905060008090505b8651811015610526578387828151811015156104b957fe5b906020019060200201511015156104cf57600080fd5b610517826105128560800151600185018151811015156104eb57fe5b906020019060200201518a8581518110151561050357fe5b90602001906020020151610af6565b610b92565b915080806001019150506104a1565b5061054d818360800151600081518110151561053e57fe5b90602001906020020151610b92565b90506105938560000151866020015161056584610c4f565b85604001516105778a60400151610c4f565b87606001516105898960000151610c4f565b8960200151610ceb565b15156105a557600193505050506105ad565b600093505050505b92915050565b6105bb611137565b60408051908101604052807f2d230435ed81e89d8e0a48208b7fcc9330775c37260245ebbf62b747ab3896b181526020017f27723277bbf42d9ff40ff2c7eca1318c09729cfe72d68a1ece45be7e7a91252e8152508160000181905250604080519081016040528060408051908101604052807f227b38a6274edac4ce1b114d38dff05f37a3f27d630f0659a916d2340986192481526020017f266f2a8ece7d869b125214fa02eeb37082b4cf1ff6cc3a21eeeefc287b3a89ba815250815260200160408051908101604052807f092103cce1d4e38aa89dd83a7fb490632fab17549e11458b3c78c5c498604a8c81526020017e4e93482d4333208b2455d0bdc57dcf08f56c94952acf0102e57cabe16330918152508152508160200181905250604080519081016040528060408051908101604052807f08fc13c656dbdd7eeaac226e82682b9e1dbc98042089d479cb24d98cf48f4cbf81526020017f195ec16c3c6581a4809bbf7c88e4293fb2a8ca075a708d583578d49363ebef9e815250815260200160408051908101604052807f1ef77e3ce1971994ee685b0d49658834358d8849762be160c11830c1a0c5892681526020017f28cca35656c2ba7ab4d94470df48b8ed6c337ae59a90c710f77ad4c421ec8bf08152508152508160400181905250604080519081016040528060408051908101604052807f02de3487c578091d38763c53b7a140c6aba4e26b9445055a890319d6ca0b39c181526020017f2a467f8c8afdf9dc7e29e706a92a743f23dfc2d2443834b63d91991c13131114815250815260200160408051908101604052807f0a0d152a3028b4c3ea719e856c541ed2666967c3d93fbacbf2f0ee69d96843bc81526020017f1edc8dd0b5afa5c2bd467f72bfcbb1cff2eb5eeb4ac1bdf65e4debfd10f437c7815250815250816060018190525060056040519080825280602002602001820160405280156108a157816020015b61088e61119a565b8152602001906001900390816108865790505b50816080018190525060408051908101604052807f01d06e6803123241d6d5a86720bf67c05ae719e0da4ed2bb3245158939665b8581526020017f295e9ddd9ed93bcf546215fb99716454cb3e5457dc2eed299a309b13c03168b48152508160800151600081518110151561091257fe5b9060200190602002018190525060408051908101604052807f179d3c0c35c9529e03dea9736a1003a5d7d47696a15f66b55efaa4fe252b9cf281526020017f10cbeda377e8d21311326fac86b119a7afd0ecd92a9008a8a6fb477f36e61fd58152508160800151600181518110151561098757fe5b9060200190602002018190525060408051908101604052807f0a858384e95aac8721d737da3f82c4baa72de63c5f4d03947fe1cd496635d9a081526020017f2550920274f4b612b19b2b7e8515fee246930d8d915403da5ad6fb9fcc6b57ef815250816080015160028151811015156109fc57fe5b9060200190602002018190525060408051908101604052807f0cc2dedee68da121243b09bdae6c7ef95e5570aa4151722157e8d90bcffdb0ca81526020017f0cdd0f9be81b131787ccb479894197f0949d1a30b92029242dd1f6bc6f9509c681525081608001516003815181101515610a7157fe5b9060200190602002018190525060408051908101604052807f0272500928eb81b401bb5a6ec03640fd5e0cd8a63f5eaec768bc7bf950ab4df481526020017f2ccff81ae6c5aad64bc96e30751d64e080c02a03c5cc2bba1c92d75366be99c881525081608001516004815181101515610ae657fe5b9060200190602002018190525090565b610afe611180565b610b066111b4565b8360000151816000600381101515610b1a57fe5b6020020181815250508360200151816001600381101515610b3757fe5b60200201818152505082816002600381101515610b5057fe5b6020020181815250506000606083608084600060076107d05a03f190508060008114610b7b57610b7d565bfe5b50801515610b8a57600080fd5b505092915050565b610b9a611180565b610ba26111d7565b8360000151816000600481101515610bb657fe5b6020020181815250508360200151816001600481101515610bd357fe5b6020020181815250508260000151816002600481101515610bf057fe5b6020020181815250508260200151816003600481101515610c0d57fe5b602002018181525050600060608360c084600060066107d05a03f190508060008114610c3857610c3a565bfe5b50801515610c4757600080fd5b505092915050565b610c57611180565b60007f30644e72e131a029b85045b68181585d97816a916871ca8d3c208c16d87cfd47905060008360000151148015610c94575060008360200151145b15610cb8576040805190810160405280600081526020016000815250915050610ce6565b604080519081016040528084600001518152602001828560200151811515610cdc57fe5b0683038152509150505b919050565b600060606004604051908082528060200260200182016040528015610d2a57816020015b610d1761119a565b815260200190600190039081610d0f5790505b50905060606004604051908082528060200260200182016040528015610d6a57816020015b610d576111fa565b815260200190600190039081610d4f5790505b5090508a826000815181101515610d7d57fe5b9060200190602002018190525088826001815181101515610d9a57fe5b9060200190602002018190525086826002815181101515610db757fe5b9060200190602002018190525084826003815181101515610dd457fe5b9060200190602002018190525089816000815181101515610df157fe5b9060200190602002018190525087816001815181101515610e0e57fe5b9060200190602002018190525085816002815181101515610e2b57fe5b9060200190602002018190525083816003815181101515610e4857fe5b90602001906020020181905250610e5f8282610e6f565b9250505098975050505050505050565b600081518351141515610e8157600080fd5b6000835190506000600682029050606081604051908082528060200260200182016040528015610ec05781602001602082028038833980820191505090505b50905060008090505b8381101561109e578681815181101515610edf57fe5b90602001906020020151600001518260006006840201815181101515610f0157fe5b90602001906020020181815250508681815181101515610f1d57fe5b90602001906020020151602001518260016006840201815181101515610f3f57fe5b90602001906020020181815250508581815181101515610f5b57fe5b90602001906020020151600001516000600281101515610f7757fe5b60200201518260026006840201815181101515610f9057fe5b90602001906020020181815250508581815181101515610fac57fe5b90602001906020020151600001516001600281101515610fc857fe5b60200201518260036006840201815181101515610fe157fe5b90602001906020020181815250508581815181101515610ffd57fe5b9060200190602002015160200151600060028110151561101957fe5b6020020151826004600684020181518110151561103257fe5b9060200190602002018181525050858181518110151561104e57fe5b9060200190602002015160200151600160028110151561106a57fe5b6020020151826005600684020181518110151561108357fe5b90602001906020020181815250508080600101915050610ec9565b506110a7611221565b60006020826020860260208601600060086107d05a03f1905080600081146110ce576110d0565bfe5b508015156110dd57600080fd5b60008260006001811015156110ee57fe5b602002015114159550505050505092915050565b6101006040519081016040528061111761119a565b81526020016111246111fa565b815260200161113161119a565b81525090565b6101e06040519081016040528061114c61119a565b81526020016111596111fa565b81526020016111666111fa565b81526020016111736111fa565b8152602001606081525090565b604080519081016040528060008152602001600081525090565b604080519081016040528060008152602001600081525090565b606060405190810160405280600390602082028038833980820191505090505090565b608060405190810160405280600490602082028038833980820191505090505090565b60806040519081016040528061120e611244565b815260200161121b611244565b81525090565b602060405190810160405280600190602082028038833980820191505090505090565b604080519081016040528060029060208202803883398082019150509050509056fe5472616e73616374696f6e207375636365737366756c6c792076657269666965642ea165627a7a723058200c95e9f807da03f0d86cf480e57059c043270be7e5cf00b30e0cc5307c2730060029",
  "source": "pragma solidity ^0.5.2;\nimport \"./VerifierBase.sol\";\n\ncontract Verifier is VerifierBase {\n\n    function mintVerifyingKey() pure internal returns (VerifyingKey memory vk) {\n        vk.a = Pairing.G1Point(uint256(0x2d230435ed81e89d8e0a48208b7fcc9330775c37260245ebbf62b747ab3896b1), uint256(0x27723277bbf42d9ff40ff2c7eca1318c09729cfe72d68a1ece45be7e7a91252e));\n        vk.b = Pairing.G2Point([uint256(0x227b38a6274edac4ce1b114d38dff05f37a3f27d630f0659a916d23409861924), uint256(0x266f2a8ece7d869b125214fa02eeb37082b4cf1ff6cc3a21eeeefc287b3a89ba)], [uint256(0x092103cce1d4e38aa89dd83a7fb490632fab17549e11458b3c78c5c498604a8c), uint256(0x004e93482d4333208b2455d0bdc57dcf08f56c94952acf0102e57cabe1633091)]);\n        vk.gamma = Pairing.G2Point([uint256(0x08fc13c656dbdd7eeaac226e82682b9e1dbc98042089d479cb24d98cf48f4cbf), uint256(0x195ec16c3c6581a4809bbf7c88e4293fb2a8ca075a708d583578d49363ebef9e)], [uint256(0x1ef77e3ce1971994ee685b0d49658834358d8849762be160c11830c1a0c58926), uint256(0x28cca35656c2ba7ab4d94470df48b8ed6c337ae59a90c710f77ad4c421ec8bf0)]);\n        vk.delta = Pairing.G2Point([uint256(0x02de3487c578091d38763c53b7a140c6aba4e26b9445055a890319d6ca0b39c1), uint256(0x2a467f8c8afdf9dc7e29e706a92a743f23dfc2d2443834b63d91991c13131114)], [uint256(0x0a0d152a3028b4c3ea719e856c541ed2666967c3d93fbacbf2f0ee69d96843bc), uint256(0x1edc8dd0b5afa5c2bd467f72bfcbb1cff2eb5eeb4ac1bdf65e4debfd10f437c7)]);\n        vk.gamma_abc = new Pairing.G1Point[](5);\n        vk.gamma_abc[0] = Pairing.G1Point(uint256(0x01d06e6803123241d6d5a86720bf67c05ae719e0da4ed2bb3245158939665b85), uint256(0x295e9ddd9ed93bcf546215fb99716454cb3e5457dc2eed299a309b13c03168b4));\n        vk.gamma_abc[1] = Pairing.G1Point(uint256(0x179d3c0c35c9529e03dea9736a1003a5d7d47696a15f66b55efaa4fe252b9cf2), uint256(0x10cbeda377e8d21311326fac86b119a7afd0ecd92a9008a8a6fb477f36e61fd5));\n        vk.gamma_abc[2] = Pairing.G1Point(uint256(0x0a858384e95aac8721d737da3f82c4baa72de63c5f4d03947fe1cd496635d9a0), uint256(0x2550920274f4b612b19b2b7e8515fee246930d8d915403da5ad6fb9fcc6b57ef));\n        vk.gamma_abc[3] = Pairing.G1Point(uint256(0x0cc2dedee68da121243b09bdae6c7ef95e5570aa4151722157e8d90bcffdb0ca), uint256(0x0cdd0f9be81b131787ccb479894197f0949d1a30b92029242dd1f6bc6f9509c6));\n        vk.gamma_abc[4] = Pairing.G1Point(uint256(0x0272500928eb81b401bb5a6ec03640fd5e0cd8a63f5eaec768bc7bf950ab4df4), uint256(0x2ccff81ae6c5aad64bc96e30751d64e080c02a03c5cc2bba1c92d75366be99c8));\n    }\n    function mintVerify(uint[] memory input, Proof memory proof) internal returns (uint) {\n        uint256 snark_scalar_field = 21888242871839275222246405745257275088548364400416034343698204186575808495617;\n        VerifyingKey memory vk = mintVerifyingKey();\n        require(input.length + 1 == vk.gamma_abc.length);\n        // Compute the linear combination vk_x\n        Pairing.G1Point memory vk_x = Pairing.G1Point(0, 0);\n        for (uint i = 0; i < input.length; i++) {\n            require(input[i] < snark_scalar_field);\n            vk_x = Pairing.addition(vk_x, Pairing.scalar_mul(vk.gamma_abc[i + 1], input[i]));\n        }\n        vk_x = Pairing.addition(vk_x, vk.gamma_abc[0]);\n        if(!Pairing.pairingProd4(\n             proof.a, proof.b,\n             Pairing.negate(vk_x), vk.gamma,\n             Pairing.negate(proof.c), vk.delta,\n             Pairing.negate(vk.a), vk.b)) return 1;\n        return 0;\n    }\n    event MintVerified(string s);\n    function mintVerifyTx(\n            uint[2] memory a,\n            uint[2][2] memory b,\n            uint[2] memory c,\n            uint[4] memory input\n        ) public returns (bool r) {\n        Proof memory proof;\n        proof.a = Pairing.G1Point(a[0], a[1]);\n        proof.b = Pairing.G2Point([b[0][0], b[0][1]], [b[1][0], b[1][1]]);\n        proof.c = Pairing.G1Point(c[0], c[1]);\n        uint[] memory inputValues = new uint[](input.length);\n        for(uint i = 0; i < input.length; i++){\n            inputValues[i] = input[i];\n        }\n        if (mintVerify(inputValues, proof) == 0) {\n            emit MintVerified(\"Transaction successfully verified.\");\n            return true;\n        } else {\n            return false;\n        }\n    }\n}\n",
  "sourcePath": "/home/boo/work/LightningZKP/contracts/verifiers/MintNoteVerifier.sol",
  "compiler": {
    "name": "solc",
    "version": "0.5.2+commit.1df8f40c.Emscripten.clang"
  },
  "schemaVersion": "3.0.11",
  "updatedAt": "2019-08-19T08:45:24.275Z",
  "devdoc": {
    "methods": {}
  },
  "userdoc": {
    "methods": {}
  }
}