{
  "contractName": "Verifier",
  "abi": [
    {
      "anonymous": false,
      "inputs": [
        {
          "indexed": false,
          "name": "s",
          "type": "string"
        }
      ],
      "name": "SpendVerified",
      "type": "event"
    },
    {
      "constant": false,
      "inputs": [
        {
          "name": "a",
          "type": "uint256[2]"
        },
        {
          "name": "b",
          "type": "uint256[2][2]"
        },
        {
          "name": "c",
          "type": "uint256[2]"
        },
        {
          "name": "input",
          "type": "uint256[7]"
        }
      ],
      "name": "spendVerifyTx",
      "outputs": [
        {
          "name": "r",
          "type": "bool"
        }
      ],
      "payable": false,
      "stateMutability": "nonpayable",
      "type": "function"
    }
  ],
  "bytecode": "0x608060405234801561001057600080fd5b50611413806100206000396000f3fe608060405234801561001057600080fd5b5060043610610048576000357c0100000000000000000000000000000000000000000000000000000000900480635c9985271461004d575b600080fd5b6101ac60048036036101e081101561006457600080fd5b8101908080604001906002806020026040519081016040528092919082600260200280828437600081840152601f19601f82011690508083019250505050505091929192908060800190600280602002604051908101604052809291906000905b82821015610119578382604002016002806020026040519081016040528092919082600260200280828437600081840152601f19601f820116905080830192505050505050815260200190600101906100c5565b50505050919291929080604001906002806020026040519081016040528092919082600260200280828437600081840152601f19601f82011690508083019250505050505091929192908060e001906007806020026040519081016040528092919082600760200280828437600081840152601f19601f82011690508083019250505050505091929192905050506101c6565b604051808215151515815260200191505060405180910390f35b60006101d0611261565b60408051908101604052808760006002811015156101ea57fe5b6020020151815260200187600160028110151561020357fe5b602002015181525081600001819052506040805190810160405280604080519081016040528088600060028110151561023857fe5b6020020151600060028110151561024b57fe5b6020020151815260200188600060028110151561026457fe5b6020020151600160028110151561027757fe5b60200201518152508152602001604080519081016040528088600160028110151561029e57fe5b602002015160006002811015156102b157fe5b602002015181526020018860016002811015156102ca57fe5b602002015160016002811015156102dd57fe5b60200201518152508152508160200181905250604080519081016040528085600060028110151561030a57fe5b6020020151815260200185600160028110151561032357fe5b60200201518152508160400181905250606060076040519080825280602002602001820160405280156103655781602001602082028038833980820191505090505b50905060008090505b60078110156103b357848160078110151561038557fe5b6020020151828281518110151561039857fe5b9060200190602002018181525050808060010191505061036e565b5060006103c0828461042b565b141561041c577ff6cb06d2e93a0bf2c44f15288883c84bd0564b45a72d58a8b0793915bd00eb1b6040518080602001828103825260228152602001806113c66022913960400191505060405180910390a1600192505050610423565b6000925050505b949350505050565b6000807f30644e72e131a029b85045b68181585d2833e84879b9709143e1f593f00000019050610459611296565b6104616105b3565b9050806080015151600186510114151561047a57600080fd5b6104826112df565b6040805190810160405280600081526020016000815250905060008090505b8651811015610526578387828151811015156104b957fe5b906020019060200201511015156104cf57600080fd5b610517826105128560800151600185018151811015156104eb57fe5b906020019060200201518a8581518110151561050357fe5b90602001906020020151610c55565b610cf1565b915080806001019150506104a1565b5061054d818360800151600081518110151561053e57fe5b90602001906020020151610cf1565b90506105938560000151866020015161056584610dae565b85604001516105778a60400151610dae565b87606001516105898960000151610dae565b8960200151610e4a565b15156105a557600193505050506105ad565b600093505050505b92915050565b6105bb611296565b60408051908101604052807f1a98ac48fe2018f84f58a2906156cedd87059554be66822c8443397426bc62a781526020017f03db6d4b9d0c6621e37c5f2329a2212b4ddc29f46607e9a80d5941676e25edb78152508160000181905250604080519081016040528060408051908101604052807f1b735ac6d76ea2df5007c6388a1d2607b799e35c30e9519da33953da9d43db6f81526020017f0c2a204b6cf7546ebc106470781153a8f110a61e2ab8ecd99ac77cb09b922ae1815250815260200160408051908101604052807f180dd416bf72c1188ecdf599eee773f5b4e303e9efe35eb04e33f277e952f5be81526020017f1e35b197f94262f5fe64d0fe32af60ca51449435f6bf941df65b0d2a2942f6f78152508152508160200181905250604080519081016040528060408051908101604052807f26f0cdc4bf30d13dc2cf6367e49445fc59abcba315def5e1b3729af927e6a6c581526020017f065bd09ff773ec638084cf183c96d3178d3d5fd44206a7f9b6c8aa72b3dc52ac815250815260200160408051908101604052807f15d1ad4691023d57db5a06ce69f081fa9e61d176e8c9a40e4a446c27b17291ae81526020017f2b41d1b082947fff6fd5a5df399e59d9440d1faa701e4768ad8a460fd41dbde28152508152508160400181905250604080519081016040528060408051908101604052807f2c4a26f13a3b4888403d5b917ca0b586a2f708955a89d25b3f5f75308d84513581526020017f208605906c040f4aefde123c8939f8417ef0774f59c13dd08ffdb1248f78e84c815250815260200160408051908101604052807f0b7695268fa677103881aa934f7e45ac4ed626c33390477b851bb3ce6ee146dd81526020017f2f2fcdb0f059b6270527c5d46e3eb1af9f7463ab1ed58438c42187aa094055fc815250815250816060018190525060086040519080825280602002602001820160405280156108a257816020015b61088f6112f9565b8152602001906001900390816108875790505b50816080018190525060408051908101604052807f0a65dc2d653564f4ea5a987bb92725e16860f9c2ed63f26663e4ea1dd201495581526020017f05edc87f90a596723787e36afc4da0d32c02f77788610349b4f875da59cc45d48152508160800151600081518110151561091357fe5b9060200190602002018190525060408051908101604052807f1ac7c460c4d1553f7f303d1f384fbfb9fbfc5a14e963ed3ae75f14ae561fea8381526020017f16ea6aeb7d297d3e924d9802151cfa2f24b72e23c19dcf508930f5c7be2d2d0a8152508160800151600181518110151561098857fe5b9060200190602002018190525060408051908101604052807f09262c81daea9019fa2a153007bc7aefda07852ba846f177e3b5259525c68cb881526020017f1a1e2e4c0fc4ffb7f2423043d83236654c84a51b2240c33ac609b15bc684c587815250816080015160028151811015156109fd57fe5b9060200190602002018190525060408051908101604052807f1dcf0c809f804ea9e2cedb16407dd89f5af0f0b7ab211628fe51c4a9d06f3eef81526020017f0d39d3271f58f96eec3799622b14c869d76f421aa0c0a657d27f015fa6939a8781525081608001516003815181101515610a7257fe5b9060200190602002018190525060408051908101604052807f09ee43f5e8cdbe9d12fa57ae149ebde674532a40e0462f3b53b2e7a00768a28081526020017f13f3a99dff58fa02e9b4b636e12708f61b8c8acfa176b9589d954310b4d4305d81525081608001516004815181101515610ae757fe5b9060200190602002018190525060408051908101604052807e60f976268eb38393a3c16ca02613d04deb4873399b911ba31e9d3c9f83a40981526020017f25610bd7ac6c62d0a575176f60f461b45852a7667c82bb0cb90654ab442e660f81525081608001516005815181101515610b5b57fe5b9060200190602002018190525060408051908101604052807f220b9534234001a50b76a0240ff70316868b988596137240f9c8c2aa2b953d4781526020017f0267d3165a1bf80e633dd90bce7fd86c95913242de0b7ecb62824756cfff3c0f81525081608001516006815181101515610bd057fe5b9060200190602002018190525060408051908101604052807f19bf56a5653c8988330352dd2cb1d594594c872bb8932961b45390badec2275181526020017f13cfe41af18911a33c1bc1fe167df2aa75476b439abe3c488eff21c2d70c29e181525081608001516007815181101515610c4557fe5b9060200190602002018190525090565b610c5d6112df565b610c65611313565b8360000151816000600381101515610c7957fe5b6020020181815250508360200151816001600381101515610c9657fe5b60200201818152505082816002600381101515610caf57fe5b6020020181815250506000606083608084600060076107d05a03f190508060008114610cda57610cdc565bfe5b50801515610ce957600080fd5b505092915050565b610cf96112df565b610d01611336565b8360000151816000600481101515610d1557fe5b6020020181815250508360200151816001600481101515610d3257fe5b6020020181815250508260000151816002600481101515610d4f57fe5b6020020181815250508260200151816003600481101515610d6c57fe5b602002018181525050600060608360c084600060066107d05a03f190508060008114610d9757610d99565bfe5b50801515610da657600080fd5b505092915050565b610db66112df565b60007f30644e72e131a029b85045b68181585d97816a916871ca8d3c208c16d87cfd47905060008360000151148015610df3575060008360200151145b15610e17576040805190810160405280600081526020016000815250915050610e45565b604080519081016040528084600001518152602001828560200151811515610e3b57fe5b0683038152509150505b919050565b600060606004604051908082528060200260200182016040528015610e8957816020015b610e766112f9565b815260200190600190039081610e6e5790505b50905060606004604051908082528060200260200182016040528015610ec957816020015b610eb6611359565b815260200190600190039081610eae5790505b5090508a826000815181101515610edc57fe5b9060200190602002018190525088826001815181101515610ef957fe5b9060200190602002018190525086826002815181101515610f1657fe5b9060200190602002018190525084826003815181101515610f3357fe5b9060200190602002018190525089816000815181101515610f5057fe5b9060200190602002018190525087816001815181101515610f6d57fe5b9060200190602002018190525085816002815181101515610f8a57fe5b9060200190602002018190525083816003815181101515610fa757fe5b90602001906020020181905250610fbe8282610fce565b9250505098975050505050505050565b600081518351141515610fe057600080fd5b600083519050600060068202905060608160405190808252806020026020018201604052801561101f5781602001602082028038833980820191505090505b50905060008090505b838110156111fd57868181518110151561103e57fe5b9060200190602002015160000151826000600684020181518110151561106057fe5b9060200190602002018181525050868181518110151561107c57fe5b9060200190602002015160200151826001600684020181518110151561109e57fe5b906020019060200201818152505085818151811015156110ba57fe5b906020019060200201516000015160006002811015156110d657fe5b602002015182600260068402018151811015156110ef57fe5b9060200190602002018181525050858181518110151561110b57fe5b9060200190602002015160000151600160028110151561112757fe5b6020020151826003600684020181518110151561114057fe5b9060200190602002018181525050858181518110151561115c57fe5b9060200190602002015160200151600060028110151561117857fe5b6020020151826004600684020181518110151561119157fe5b906020019060200201818152505085818151811015156111ad57fe5b906020019060200201516020015160016002811015156111c957fe5b602002015182600560068402018151811015156111e257fe5b90602001906020020181815250508080600101915050611028565b50611206611380565b60006020826020860260208601600060086107d05a03f19050806000811461122d5761122f565bfe5b5080151561123c57600080fd5b600082600060018110151561124d57fe5b602002015114159550505050505092915050565b610100604051908101604052806112766112f9565b8152602001611283611359565b81526020016112906112f9565b81525090565b6101e0604051908101604052806112ab6112f9565b81526020016112b8611359565b81526020016112c5611359565b81526020016112d2611359565b8152602001606081525090565b604080519081016040528060008152602001600081525090565b604080519081016040528060008152602001600081525090565b606060405190810160405280600390602082028038833980820191505090505090565b608060405190810160405280600490602082028038833980820191505090505090565b60806040519081016040528061136d6113a3565b815260200161137a6113a3565b81525090565b602060405190810160405280600190602082028038833980820191505090505090565b604080519081016040528060029060208202803883398082019150509050509056fe5472616e73616374696f6e207375636365737366756c6c792076657269666965642ea165627a7a72305820aa78cf89c416f2a4d92656a5887129888fdfe43f941897428331e424ecbef00a0029",
  "source": "pragma solidity ^0.5.2;\nimport \"./VerifierBase.sol\";\n\ncontract Verifier is VerifierBase {\n\n    function spendVerifyingKey() pure internal returns (VerifyingKey memory vk) {\n        vk.a = Pairing.G1Point(uint256(0x1a98ac48fe2018f84f58a2906156cedd87059554be66822c8443397426bc62a7), uint256(0x03db6d4b9d0c6621e37c5f2329a2212b4ddc29f46607e9a80d5941676e25edb7));\n        vk.b = Pairing.G2Point([uint256(0x1b735ac6d76ea2df5007c6388a1d2607b799e35c30e9519da33953da9d43db6f), uint256(0x0c2a204b6cf7546ebc106470781153a8f110a61e2ab8ecd99ac77cb09b922ae1)], [uint256(0x180dd416bf72c1188ecdf599eee773f5b4e303e9efe35eb04e33f277e952f5be), uint256(0x1e35b197f94262f5fe64d0fe32af60ca51449435f6bf941df65b0d2a2942f6f7)]);\n        vk.gamma = Pairing.G2Point([uint256(0x26f0cdc4bf30d13dc2cf6367e49445fc59abcba315def5e1b3729af927e6a6c5), uint256(0x065bd09ff773ec638084cf183c96d3178d3d5fd44206a7f9b6c8aa72b3dc52ac)], [uint256(0x15d1ad4691023d57db5a06ce69f081fa9e61d176e8c9a40e4a446c27b17291ae), uint256(0x2b41d1b082947fff6fd5a5df399e59d9440d1faa701e4768ad8a460fd41dbde2)]);\n        vk.delta = Pairing.G2Point([uint256(0x2c4a26f13a3b4888403d5b917ca0b586a2f708955a89d25b3f5f75308d845135), uint256(0x208605906c040f4aefde123c8939f8417ef0774f59c13dd08ffdb1248f78e84c)], [uint256(0x0b7695268fa677103881aa934f7e45ac4ed626c33390477b851bb3ce6ee146dd), uint256(0x2f2fcdb0f059b6270527c5d46e3eb1af9f7463ab1ed58438c42187aa094055fc)]);\n        vk.gamma_abc = new Pairing.G1Point[](8);\n        vk.gamma_abc[0] = Pairing.G1Point(uint256(0x0a65dc2d653564f4ea5a987bb92725e16860f9c2ed63f26663e4ea1dd2014955), uint256(0x05edc87f90a596723787e36afc4da0d32c02f77788610349b4f875da59cc45d4));\n        vk.gamma_abc[1] = Pairing.G1Point(uint256(0x1ac7c460c4d1553f7f303d1f384fbfb9fbfc5a14e963ed3ae75f14ae561fea83), uint256(0x16ea6aeb7d297d3e924d9802151cfa2f24b72e23c19dcf508930f5c7be2d2d0a));\n        vk.gamma_abc[2] = Pairing.G1Point(uint256(0x09262c81daea9019fa2a153007bc7aefda07852ba846f177e3b5259525c68cb8), uint256(0x1a1e2e4c0fc4ffb7f2423043d83236654c84a51b2240c33ac609b15bc684c587));\n        vk.gamma_abc[3] = Pairing.G1Point(uint256(0x1dcf0c809f804ea9e2cedb16407dd89f5af0f0b7ab211628fe51c4a9d06f3eef), uint256(0x0d39d3271f58f96eec3799622b14c869d76f421aa0c0a657d27f015fa6939a87));\n        vk.gamma_abc[4] = Pairing.G1Point(uint256(0x09ee43f5e8cdbe9d12fa57ae149ebde674532a40e0462f3b53b2e7a00768a280), uint256(0x13f3a99dff58fa02e9b4b636e12708f61b8c8acfa176b9589d954310b4d4305d));\n        vk.gamma_abc[5] = Pairing.G1Point(uint256(0x0060f976268eb38393a3c16ca02613d04deb4873399b911ba31e9d3c9f83a409), uint256(0x25610bd7ac6c62d0a575176f60f461b45852a7667c82bb0cb90654ab442e660f));\n        vk.gamma_abc[6] = Pairing.G1Point(uint256(0x220b9534234001a50b76a0240ff70316868b988596137240f9c8c2aa2b953d47), uint256(0x0267d3165a1bf80e633dd90bce7fd86c95913242de0b7ecb62824756cfff3c0f));\n        vk.gamma_abc[7] = Pairing.G1Point(uint256(0x19bf56a5653c8988330352dd2cb1d594594c872bb8932961b45390badec22751), uint256(0x13cfe41af18911a33c1bc1fe167df2aa75476b439abe3c488eff21c2d70c29e1));\n    }\n    function spendVerify(uint[] memory input, Proof memory proof) internal returns (uint) {\n        uint256 snark_scalar_field = 21888242871839275222246405745257275088548364400416034343698204186575808495617;\n        VerifyingKey memory vk = spendVerifyingKey();\n        require(input.length + 1 == vk.gamma_abc.length);\n        // Compute the linear combination vk_x\n        Pairing.G1Point memory vk_x = Pairing.G1Point(0, 0);\n        for (uint i = 0; i < input.length; i++) {\n            require(input[i] < snark_scalar_field);\n            vk_x = Pairing.addition(vk_x, Pairing.scalar_mul(vk.gamma_abc[i + 1], input[i]));\n        }\n        vk_x = Pairing.addition(vk_x, vk.gamma_abc[0]);\n        if(!Pairing.pairingProd4(\n             proof.a, proof.b,\n             Pairing.negate(vk_x), vk.gamma,\n             Pairing.negate(proof.c), vk.delta,\n             Pairing.negate(vk.a), vk.b)) return 1;\n        return 0;\n    }\n    event SpendVerified(string s);\n    function spendVerifyTx(\n            uint[2] memory a,\n            uint[2][2] memory b,\n            uint[2] memory c,\n            uint[7] memory input\n        ) public returns (bool r) {\n        Proof memory proof;\n        proof.a = Pairing.G1Point(a[0], a[1]);\n        proof.b = Pairing.G2Point([b[0][0], b[0][1]], [b[1][0], b[1][1]]);\n        proof.c = Pairing.G1Point(c[0], c[1]);\n        uint[] memory inputValues = new uint[](input.length);\n        for(uint i = 0; i < input.length; i++){\n            inputValues[i] = input[i];\n        }\n        if (spendVerify(inputValues, proof) == 0) {\n            emit SpendVerified(\"Transaction successfully verified.\");\n            return true;\n        } else {\n            return false;\n        }\n    }\n}\n",
  "sourcePath": "/home/boo/work/LightningZKP/contracts/verifiers/SpendNoteVerifier.sol",
  "compiler": {
    "name": "solc",
    "version": "0.5.2+commit.1df8f40c.Emscripten.clang"
  },
  "schemaVersion": "3.0.11",
  "updatedAt": "2019-09-24T08:04:21.120Z",
  "devdoc": {
    "methods": {}
  },
  "userdoc": {
    "methods": {}
  }
}