{
  "contractName": "ZkDaiBase",
  "abi": [
    {
      "constant": true,
      "inputs": [
        {
          "name": "",
          "type": "bytes32"
        }
      ],
      "name": "depositPools",
      "outputs": [
        {
          "name": "mpkAddress",
          "type": "address"
        },
        {
          "name": "targetAddress",
          "type": "address"
        },
        {
          "name": "expiredTime",
          "type": "uint256"
        },
        {
          "name": "maxNotesNum",
          "type": "uint8"
        },
        {
          "name": "lastNotesNum",
          "type": "uint8"
        }
      ],
      "payable": false,
      "stateMutability": "view",
      "type": "function"
    },
    {
      "constant": true,
      "inputs": [],
      "name": "stake",
      "outputs": [
        {
          "name": "",
          "type": "uint256"
        }
      ],
      "payable": false,
      "stateMutability": "view",
      "type": "function"
    },
    {
      "constant": true,
      "inputs": [],
      "name": "cooldown",
      "outputs": [
        {
          "name": "",
          "type": "uint256"
        }
      ],
      "payable": false,
      "stateMutability": "view",
      "type": "function"
    },
    {
      "constant": true,
      "inputs": [
        {
          "name": "",
          "type": "bytes32"
        }
      ],
      "name": "notes",
      "outputs": [
        {
          "name": "",
          "type": "uint8"
        }
      ],
      "payable": false,
      "stateMutability": "view",
      "type": "function"
    },
    {
      "constant": true,
      "inputs": [
        {
          "name": "",
          "type": "bytes32"
        }
      ],
      "name": "submissions",
      "outputs": [
        {
          "name": "submitter",
          "type": "address"
        },
        {
          "name": "sType",
          "type": "uint8"
        },
        {
          "name": "submittedAt",
          "type": "uint256"
        }
      ],
      "payable": false,
      "stateMutability": "view",
      "type": "function"
    },
    {
      "constant": true,
      "inputs": [],
      "name": "dai",
      "outputs": [
        {
          "name": "",
          "type": "address"
        }
      ],
      "payable": false,
      "stateMutability": "view",
      "type": "function"
    },
    {
      "anonymous": false,
      "inputs": [
        {
          "indexed": false,
          "name": "note",
          "type": "bytes32"
        },
        {
          "indexed": false,
          "name": "state",
          "type": "uint8"
        }
      ],
      "name": "NoteStateChange",
      "type": "event"
    },
    {
      "anonymous": false,
      "inputs": [
        {
          "indexed": false,
          "name": "submitter",
          "type": "address"
        },
        {
          "indexed": false,
          "name": "proofHash",
          "type": "bytes32"
        }
      ],
      "name": "Submitted",
      "type": "event"
    },
    {
      "anonymous": false,
      "inputs": [
        {
          "indexed": true,
          "name": "challenger",
          "type": "address"
        },
        {
          "indexed": false,
          "name": "proofHash",
          "type": "bytes32"
        }
      ],
      "name": "Challenged",
      "type": "event"
    }
  ],
  "bytecode": "0x608060405234801561001057600080fd5b5061040b806100206000396000f3fe608060405234801561001057600080fd5b506004361061007f576000357c01000000000000000000000000000000000000000000000000000000009004806338cd8093146100845780633a4b66f114610146578063787a08a61461016457806385de26b714610182578063c5c9c0a2146101d2578063f4b9fa751461025c575b600080fd5b6100b06004803603602081101561009a57600080fd5b81019080803590602001909291905050506102a6565b604051808673ffffffffffffffffffffffffffffffffffffffff1673ffffffffffffffffffffffffffffffffffffffff1681526020018573ffffffffffffffffffffffffffffffffffffffff1673ffffffffffffffffffffffffffffffffffffffff1681526020018481526020018360ff1660ff1681526020018260ff1660ff1681526020019550505050505060405180910390f35b61014e610336565b6040518082815260200191505060405180910390f35b61016c61033c565b6040518082815260200191505060405180910390f35b6101ae6004803603602081101561019857600080fd5b8101908080359060200190929190505050610342565b604051808260038111156101be57fe5b60ff16815260200191505060405180910390f35b6101fe600480360360208110156101e857600080fd5b8101908080359060200190929190505050610362565b604051808473ffffffffffffffffffffffffffffffffffffffff1673ffffffffffffffffffffffffffffffffffffffff16815260200183600481111561024057fe5b60ff168152602001828152602001935050505060405180910390f35b6102646103b9565b604051808273ffffffffffffffffffffffffffffffffffffffff1673ffffffffffffffffffffffffffffffffffffffff16815260200191505060405180910390f35b60036020528060005260406000206000915090508060000160009054906101000a900473ffffffffffffffffffffffffffffffffffffffff16908060010160009054906101000a900473ffffffffffffffffffffffffffffffffffffffff16908060020154908060030160009054906101000a900460ff16908060030160019054906101000a900460ff16905085565b60015481565b60005481565b60056020528060005260406000206000915054906101000a900460ff1681565b60046020528060005260406000206000915090508060000160009054906101000a900473ffffffffffffffffffffffffffffffffffffffff16908060000160149054906101000a900460ff16908060010154905083565b600260009054906101000a900473ffffffffffffffffffffffffffffffffffffffff168156fea165627a7a723058201b604ffe930ae8df7417a3f8b5a5487810434c24e7a1fc4d5b0b54aaf40995730029",
  "source": "pragma solidity ^0.5.2;\n\nimport \"@openzeppelin/contracts/token/ERC20/ERC20.sol\";\n\n\ncontract ZkDaiBase {\n  uint256 public cooldown;\n  uint256 public stake;\n  ERC20 public dai;\n\n  //DepositNotes struct is for deposit function\n  //notes_num:\n  //last_nonce: If recevier submit a last signed message, then the last nonce will be updated to the signed message's nonce to prevent replay attack\n  //senderNotes:\n  //receiverNotes:\n  struct DepositPool {\n    address mpkAddress;\n    address targetAddress;\n    uint expiredTime;\n    uint8 maxNotesNum;\n    uint8 lastNotesNum; // 0 ~ 255\n    //uint lastNonce;\n    bytes32[] senderNotes;\n    bytes32[] receiverNotes;\n  }\n  //maps poolID to DepositNotes\n  mapping(bytes32 => DepositPool) public depositPools;\n\n  enum SubmissionType {Invalid, Mint, Spend, Liquidate, Deposit}\n  struct Submission {\n    address payable submitter;\n    SubmissionType sType;\n    uint256 submittedAt;\n    uint256[] publicInput;\n  }\n  // maps proofHash to Submission\n  mapping(bytes32 => Submission) public submissions;\n\n  enum State {Invalid, Committed, Spent, Deposit}\n  // maps note to State\n  mapping(bytes32 => State) public notes;\n\n  event NoteStateChange(bytes32 note, State state);\n  event Submitted(address submitter, bytes32 proofHash);\n  event Challenged(address indexed challenger, bytes32 proofHash);\n\n  /**\n  * @dev Calculates the keccak256 of the zkSnark parameters\n  * @return proofHash\n  */\n  function getProofHash(\n      uint256[2] memory a,\n      uint256[2][2] memory b,\n      uint256[2] memory c)\n    internal\n    pure\n    returns(bytes32 proofHash)\n  {\n      proofHash = keccak256(abi.encodePacked(a, b, c));\n  }\n\n  /**\n  * @dev Concatenates the 2 chunks of the sha256 hash of the note\n  * @notice This method is required due to the field limitations imposed by the zokrates zkSnark library\n  * @param _a Most significant 128 bits of the note hash\n  * @param _b Least significant 128 bits of the note hash\n  */\n  function calcNoteHash(uint _a, uint _b)\n    internal\n    pure\n    returns(bytes32 note)\n  {\n      bytes16 a = bytes16(bytes32(_a));\n      bytes16 b = bytes16(bytes32(_b));\n      bytes memory _note = new bytes(32);\n\n      for (uint i = 0; i < 16; i++) {\n        _note[i] = a[i];\n        _note[16 + i] = b[i];\n      }\n      note = _bytesToBytes32(_note, 0);\n  }\n\n  function _bytesToBytes32(bytes memory b, uint offset)\n    internal\n    pure\n    returns (bytes32 out)\n  {\n      for (uint i = 0; i < 32; i++) {\n        out |= bytes32(b[offset + i] & 0xFF) >> (i * 8);\n      }\n  }\n}\n",
  "sourcePath": "/home/boo/work/LightningZKP/contracts/ZkDaiBase.sol",
  "compiler": {
    "name": "solc",
    "version": "0.5.2+commit.1df8f40c.Emscripten.clang"
  },
  "schemaVersion": "3.0.11",
  "updatedAt": "2019-08-26T08:45:08.327Z",
  "devdoc": {
    "methods": {}
  },
  "userdoc": {
    "methods": {}
  }
}