{
  "contractName": "ZkDai",
  "abi": [
    {
      "constant": false,
      "inputs": [
        {
          "name": "a",
          "type": "uint256[2]"
        },
        {
          "name": "b",
          "type": "uint256[2][2]"
        },
        {
          "name": "c",
          "type": "uint256[2]"
        },
        {
          "name": "input",
          "type": "uint256[4]"
        }
      ],
      "name": "liquidateVerifyTx",
      "outputs": [
        {
          "name": "r",
          "type": "bool"
        }
      ],
      "payable": false,
      "stateMutability": "nonpayable",
      "type": "function"
    },
    {
      "constant": false,
      "inputs": [
        {
          "name": "a",
          "type": "uint256[2]"
        },
        {
          "name": "b",
          "type": "uint256[2][2]"
        },
        {
          "name": "c",
          "type": "uint256[2]"
        },
        {
          "name": "input",
          "type": "uint256[4]"
        }
      ],
      "name": "mintVerifyTx",
      "outputs": [
        {
          "name": "r",
          "type": "bool"
        }
      ],
      "payable": false,
      "stateMutability": "nonpayable",
      "type": "function"
    },
    {
      "constant": true,
      "inputs": [
        {
          "name": "",
          "type": "bytes32"
        }
      ],
      "name": "depositPools",
      "outputs": [
        {
          "name": "mpkAddress",
          "type": "address"
        },
        {
          "name": "expiredTime",
          "type": "uint256"
        },
        {
          "name": "maxNotesNum",
          "type": "uint8"
        },
        {
          "name": "lastNotesNum",
          "type": "uint8"
        }
      ],
      "payable": false,
      "stateMutability": "view",
      "type": "function"
    },
    {
      "constant": true,
      "inputs": [],
      "name": "stake",
      "outputs": [
        {
          "name": "",
          "type": "uint256"
        }
      ],
      "payable": false,
      "stateMutability": "view",
      "type": "function"
    },
    {
      "constant": false,
      "inputs": [
        {
          "name": "a",
          "type": "uint256[2]"
        },
        {
          "name": "b",
          "type": "uint256[2][2]"
        },
        {
          "name": "c",
          "type": "uint256[2]"
        },
        {
          "name": "input",
          "type": "uint256[7]"
        }
      ],
      "name": "spendVerifyTx",
      "outputs": [
        {
          "name": "r",
          "type": "bool"
        }
      ],
      "payable": false,
      "stateMutability": "nonpayable",
      "type": "function"
    },
    {
      "constant": true,
      "inputs": [],
      "name": "cooldown",
      "outputs": [
        {
          "name": "",
          "type": "uint256"
        }
      ],
      "payable": false,
      "stateMutability": "view",
      "type": "function"
    },
    {
      "constant": true,
      "inputs": [
        {
          "name": "",
          "type": "bytes32"
        }
      ],
      "name": "notes",
      "outputs": [
        {
          "name": "",
          "type": "uint8"
        }
      ],
      "payable": false,
      "stateMutability": "view",
      "type": "function"
    },
    {
      "constant": true,
      "inputs": [
        {
          "name": "",
          "type": "bytes32"
        }
      ],
      "name": "submissions",
      "outputs": [
        {
          "name": "submitter",
          "type": "address"
        },
        {
          "name": "sType",
          "type": "uint8"
        },
        {
          "name": "submittedAt",
          "type": "uint256"
        }
      ],
      "payable": false,
      "stateMutability": "view",
      "type": "function"
    },
    {
      "constant": true,
      "inputs": [],
      "name": "dai",
      "outputs": [
        {
          "name": "",
          "type": "address"
        }
      ],
      "payable": false,
      "stateMutability": "view",
      "type": "function"
    },
    {
      "inputs": [
        {
          "name": "_cooldown",
          "type": "uint256"
        },
        {
          "name": "_stake",
          "type": "uint256"
        },
        {
          "name": "daiTokenAddress",
          "type": "address"
        }
      ],
      "payable": false,
      "stateMutability": "nonpayable",
      "type": "constructor"
    },
    {
      "anonymous": false,
      "inputs": [
        {
          "indexed": false,
          "name": "note",
          "type": "bytes32"
        },
        {
          "indexed": false,
          "name": "state",
          "type": "uint8"
        }
      ],
      "name": "NoteStateChange",
      "type": "event"
    },
    {
      "anonymous": false,
      "inputs": [
        {
          "indexed": false,
          "name": "submitter",
          "type": "address"
        },
        {
          "indexed": false,
          "name": "proofHash",
          "type": "bytes32"
        }
      ],
      "name": "Submitted",
      "type": "event"
    },
    {
      "anonymous": false,
      "inputs": [
        {
          "indexed": false,
          "name": "mpkAddress",
          "type": "address"
        },
        {
          "indexed": false,
          "name": "poolId",
          "type": "bytes32"
        }
      ],
      "name": "Deposited",
      "type": "event"
    },
    {
      "anonymous": false,
      "inputs": [
        {
          "indexed": true,
          "name": "challenger",
          "type": "address"
        },
        {
          "indexed": false,
          "name": "proofHash",
          "type": "bytes32"
        }
      ],
      "name": "Challenged",
      "type": "event"
    },
    {
      "anonymous": false,
      "inputs": [
        {
          "indexed": false,
          "name": "s",
          "type": "string"
        }
      ],
      "name": "LiquidateVerified",
      "type": "event"
    },
    {
      "anonymous": false,
      "inputs": [
        {
          "indexed": false,
          "name": "s",
          "type": "string"
        }
      ],
      "name": "SpendVerified",
      "type": "event"
    },
    {
      "anonymous": false,
      "inputs": [
        {
          "indexed": false,
          "name": "s",
          "type": "string"
        }
      ],
      "name": "MintVerified",
      "type": "event"
    },
    {
      "constant": false,
      "inputs": [
        {
          "name": "a",
          "type": "uint256[2]"
        },
        {
          "name": "b",
          "type": "uint256[2][2]"
        },
        {
          "name": "c",
          "type": "uint256[2]"
        },
        {
          "name": "input",
          "type": "uint256[4]"
        }
      ],
      "name": "mint",
      "outputs": [],
      "payable": true,
      "stateMutability": "payable",
      "type": "function"
    },
    {
      "constant": false,
      "inputs": [
        {
          "name": "a",
          "type": "uint256[2]"
        },
        {
          "name": "b",
          "type": "uint256[2][2]"
        },
        {
          "name": "c",
          "type": "uint256[2]"
        },
        {
          "name": "input",
          "type": "uint256[7]"
        }
      ],
      "name": "spend",
      "outputs": [],
      "payable": true,
      "stateMutability": "payable",
      "type": "function"
    },
    {
      "constant": false,
      "inputs": [
        {
          "name": "to",
          "type": "address"
        },
        {
          "name": "a",
          "type": "uint256[2]"
        },
        {
          "name": "b",
          "type": "uint256[2][2]"
        },
        {
          "name": "c",
          "type": "uint256[2]"
        },
        {
          "name": "input",
          "type": "uint256[4]"
        }
      ],
      "name": "liquidate",
      "outputs": [],
      "payable": true,
      "stateMutability": "payable",
      "type": "function"
    },
    {
      "constant": false,
      "inputs": [
        {
          "name": "a",
          "type": "uint256[2]"
        },
        {
          "name": "b",
          "type": "uint256[2][2]"
        },
        {
          "name": "c",
          "type": "uint256[2]"
        }
      ],
      "name": "challenge",
      "outputs": [],
      "payable": false,
      "stateMutability": "nonpayable",
      "type": "function"
    },
    {
      "constant": false,
      "inputs": [
        {
          "name": "proofHash",
          "type": "bytes32"
        }
      ],
      "name": "commit",
      "outputs": [],
      "payable": false,
      "stateMutability": "nonpayable",
      "type": "function"
    }
  ],
  "bytecode": "0x60806040523480156200001157600080fd5b5060405160608062005a0f833981018060405260608110156200003357600080fd5b81019080805190602001909291908051906020019092919080519060200190929190505050826000819055508160018190555080600260006101000a81548173ffffffffffffffffffffffffffffffffffffffff021916908373ffffffffffffffffffffffffffffffffffffffff16021790555050505061595580620000ba6000396000f3fe6080604052600436106100fa576000357c010000000000000000000000000000000000000000000000000000000090048063787a08a61161009c578063c5c9c0a211610076578063c5c9c0a2146107ea578063f14fcbc814610881578063f4b9fa75146108bc578063fd696b6e14610913576100fa565b8063787a08a6146107125780637f67df4c1461073d57806385de26b71461078d576100fa565b80633a4b66f1116100d85780633a4b66f1146104a757806355258f7b146104d25780635c9985271461053f5780637255ae7b146106c5576100fa565b80631210c56d146100ff5780631fa41b3f1461028557806338cd80931461040b575b600080fd5b34801561010b57600080fd5b5061026b600480360361018081101561012357600080fd5b8101908080604001906002806020026040519081016040528092919082600260200280828437600081840152601f19601f82011690508083019250505050505091929192908060800190600280602002604051908101604052809291906000905b828210156101d8578382604002016002806020026040519081016040528092919082600260200280828437600081840152601f19601f82011690508083019250505050505081526020019060010190610184565b50505050919291929080604001906002806020026040519081016040528092919082600260200280828437600081840152601f19601f820116905080830192505050505050919291929080608001906004806020026040519081016040528092919082600460200280828437600081840152601f19601f8201169050808301925050505050509192919290505050610960565b604051808215151515815260200191505060405180910390f35b34801561029157600080fd5b506103f160048036036101808110156102a957600080fd5b8101908080604001906002806020026040519081016040528092919082600260200280828437600081840152601f19601f82011690508083019250505050505091929192908060800190600280602002604051908101604052809291906000905b8282101561035e578382604002016002806020026040519081016040528092919082600260200280828437600081840152601f19601f8201169050808301925050505050508152602001906001019061030a565b50505050919291929080604001906002806020026040519081016040528092919082600260200280828437600081840152601f19601f820116905080830192505050505050919291929080608001906004806020026040519081016040528092919082600460200280828437600081840152601f19601f8201169050808301925050505050509192919290505050610bc5565b604051808215151515815260200191505060405180910390f35b34801561041757600080fd5b506104446004803603602081101561042e57600080fd5b8101908080359060200190929190505050610e2a565b604051808573ffffffffffffffffffffffffffffffffffffffff1673ffffffffffffffffffffffffffffffffffffffff1681526020018481526020018360ff1660ff1681526020018260ff1660ff16815260200194505050505060405180910390f35b3480156104b357600080fd5b506104bc610e94565b6040518082815260200191505060405180910390f35b61053d60048036036101a08110156104e957600080fd5b81019080803573ffffffffffffffffffffffffffffffffffffffff16906020019092919080604001909192919290806080019091929192908060400190919291929080608001909192919290505050610e9a565b005b34801561054b57600080fd5b506106ab60048036036101e081101561056357600080fd5b8101908080604001906002806020026040519081016040528092919082600260200280828437600081840152601f19601f82011690508083019250505050505091929192908060800190600280602002604051908101604052809291906000905b82821015610618578382604002016002806020026040519081016040528092919082600260200280828437600081840152601f19601f820116905080830192505050505050815260200190600101906105c4565b50505050919291929080604001906002806020026040519081016040528092919082600260200280828437600081840152601f19601f82011690508083019250505050505091929192908060e001906007806020026040519081016040528092919082600760200280828437600081840152601f19601f820116905080830192505050505050919291929050505061103d565b604051808215151515815260200191505060405180910390f35b61071060048036036101808110156106dc57600080fd5b81019080806040019091929192908060800190919291929080604001909192919290806080019091929192905050506112a2565b005b34801561071e57600080fd5b506107276115fe565b6040518082815260200191505060405180910390f35b34801561074957600080fd5b5061078b600480360361010081101561076157600080fd5b81019080806040019091929192908060800190919291929080604001909192919290505050611604565b005b34801561079957600080fd5b506107c6600480360360208110156107b057600080fd5b8101908080359060200190929190505050611b4c565b604051808260038111156107d657fe5b60ff16815260200191505060405180910390f35b3480156107f657600080fd5b506108236004803603602081101561080d57600080fd5b8101908080359060200190929190505050611b6c565b604051808473ffffffffffffffffffffffffffffffffffffffff1673ffffffffffffffffffffffffffffffffffffffff16815260200183600481111561086557fe5b60ff168152602001828152602001935050505060405180910390f35b34801561088d57600080fd5b506108ba600480360360208110156108a457600080fd5b8101908080359060200190929190505050611bc3565b005b3480156108c857600080fd5b506108d1611db5565b604051808273ffffffffffffffffffffffffffffffffffffffff1673ffffffffffffffffffffffffffffffffffffffff16815260200191505060405180910390f35b61095e60048036036101e081101561092a57600080fd5b810190808060400190919291929080608001909192919290806040019091929192908060e001909192919290505050611ddb565b005b600061096a61565a565b604080519081016040528087600060028110151561098457fe5b6020020151815260200187600160028110151561099d57fe5b60200201518152508160000181905250604080519081016040528060408051908101604052808860006002811015156109d257fe5b602002015160006002811015156109e557fe5b602002015181526020018860006002811015156109fe57fe5b60200201516001600281101515610a1157fe5b602002015181525081526020016040805190810160405280886001600281101515610a3857fe5b60200201516000600281101515610a4b57fe5b60200201518152602001886001600281101515610a6457fe5b60200201516001600281101515610a7757fe5b602002015181525081525081602001819052506040805190810160405280856000600281101515610aa457fe5b60200201518152602001856001600281101515610abd57fe5b6020020151815250816040018190525060606004604051908082528060200260200182016040528015610aff5781602001602082028038833980820191505090505b50905060008090505b6004811015610b4d578481600481101515610b1f57fe5b60200201518282815181101515610b3257fe5b90602001906020020181815250508080600101915050610b08565b506000610b5a8284611f7c565b1415610bb6577f46d48f0a138fd14dfc4a9086422b1a886a0f02eade5d6abef007754fe4b06bc06040518080602001828103825260228152602001806158e06022913960400191505060405180910390a1600192505050610bbd565b6000925050505b949350505050565b6000610bcf61565a565b6040805190810160405280876000600281101515610be957fe5b60200201518152602001876001600281101515610c0257fe5b6020020151815250816000018190525060408051908101604052806040805190810160405280886000600281101515610c3757fe5b60200201516000600281101515610c4a57fe5b60200201518152602001886000600281101515610c6357fe5b60200201516001600281101515610c7657fe5b602002015181525081526020016040805190810160405280886001600281101515610c9d57fe5b60200201516000600281101515610cb057fe5b60200201518152602001886001600281101515610cc957fe5b60200201516001600281101515610cdc57fe5b602002015181525081525081602001819052506040805190810160405280856000600281101515610d0957fe5b60200201518152602001856001600281101515610d2257fe5b6020020151815250816040018190525060606004604051908082528060200260200182016040528015610d645781602001602082028038833980820191505090505b50905060008090505b6004811015610db2578481600481101515610d8457fe5b60200201518282815181101515610d9757fe5b90602001906020020181815250508080600101915050610d6d565b506000610dbf8284612104565b1415610e1b577f2cef7d724e9df39531c164620567bd12bd8ca7b47fa53317f1078c2f2d5951ce6040518080602001828103825260228152602001806158e06022913960400191505060405180910390a1600192505050610e22565b6000925050505b949350505050565b60036020528060005260406000206000915090508060000160009054906101000a900473ffffffffffffffffffffffffffffffffffffffff16908060010154908060020160009054906101000a900460ff16908060020160019054906101000a900460ff16905084565b60015481565b3460015481141515610f14576040517f08c379a00000000000000000000000000000000000000000000000000000000081526004018080602001828103825260148152602001807f496e76616c6964207374616b6520616d6f756e7400000000000000000000000081525060200191505060405180910390fd5b61103586866002806020026040519081016040528092919082600260200280828437600081840152601f19601f82011690508083019250505050505086600280602002604051908101604052809291906000905b82821015610fbc578382604002016002806020026040519081016040528092919082600260200280828437600081840152601f19601f82011690508083019250505050505081526020019060010190610f68565b50505050866002806020026040519081016040528092919082600260200280828437600081840152601f19601f820116905080830192505050505050866004806020026040519081016040528092919082600460200280828437600081840152601f19601f82011690508083019250505050505061228c565b505050505050565b600061104761565a565b604080519081016040528087600060028110151561106157fe5b6020020151815260200187600160028110151561107a57fe5b60200201518152508160000181905250604080519081016040528060408051908101604052808860006002811015156110af57fe5b602002015160006002811015156110c257fe5b602002015181526020018860006002811015156110db57fe5b602002015160016002811015156110ee57fe5b60200201518152508152602001604080519081016040528088600160028110151561111557fe5b6020020151600060028110151561112857fe5b6020020151815260200188600160028110151561114157fe5b6020020151600160028110151561115457fe5b60200201518152508152508160200181905250604080519081016040528085600060028110151561118157fe5b6020020151815260200185600160028110151561119a57fe5b60200201518152508160400181905250606060076040519080825280602002602001820160405280156111dc5781602001602082028038833980820191505090505b50905060008090505b600781101561122a5784816007811015156111fc57fe5b6020020151828281518110151561120f57fe5b906020019060200201818152505080806001019150506111e5565b50600061123782846124ca565b1415611293577ff6cb06d2e93a0bf2c44f15288883c84bd0564b45a72d58a8b0793915bd00eb1b6040518080602001828103825260228152602001806158e06022913960400191505060405180910390a160019250505061129a565b6000925050505b949350505050565b346001548114151561131c576040517f08c379a00000000000000000000000000000000000000000000000000000000081526004018080602001828103825260148152602001807f496e76616c6964207374616b6520616d6f756e7400000000000000000000000081525060200191505060405180910390fd5b600260009054906101000a900473ffffffffffffffffffffffffffffffffffffffff1673ffffffffffffffffffffffffffffffffffffffff166323b872dd333085600260048110151561136b57fe5b60200201356040518463ffffffff167c0100000000000000000000000000000000000000000000000000000000028152600401808473ffffffffffffffffffffffffffffffffffffffff1673ffffffffffffffffffffffffffffffffffffffff1681526020018373ffffffffffffffffffffffffffffffffffffffff1673ffffffffffffffffffffffffffffffffffffffff1681526020018281526020019350505050602060405180830381600087803b15801561142857600080fd5b505af115801561143c573d6000803e3d6000fd5b505050506040513d602081101561145257600080fd5b810190808051906020019092919050505015156114d7576040517f08c379a00000000000000000000000000000000000000000000000000000000081526004018080602001828103825260188152602001807f646169546f6b656e207472616e73666572206661696c6564000000000000000081525060200191505060405180910390fd5b6115f7856002806020026040519081016040528092919082600260200280828437600081840152601f19601f82011690508083019250505050505085600280602002604051908101604052809291906000905b8282101561157e578382604002016002806020026040519081016040528092919082600260200280828437600081840152601f19601f8201169050808301925050505050508152602001906001019061152a565b50505050856002806020026040519081016040528092919082600260200280828437600081840152601f19601f820116905080830192505050505050856004806020026040519081016040528092919082600460200280828437600081840152601f19601f820116905080830192505050505050612652565b5050505050565b60005481565b60006116ee846002806020026040519081016040528092919082600260200280828437600081840152601f19601f82011690508083019250505050505084600280602002604051908101604052809291906000905b828210156116ad578382604002016002806020026040519081016040528092919082600260200280828437600081840152601f19601f82011690508083019250505050505081526020019060010190611659565b50505050846002806020026040519081016040528092919082600260200280828437600081840152601f19601f820116905080830192505050505050612852565b905060006004600083815260200190815260200160002090506000600481111561171457fe5b8160000160149054906101000a900460ff16600481111561173157fe5b1415151561178a576040517f08c379a00000000000000000000000000000000000000000000000000000000081526004018080602001828103825260288152602001806159026028913960400191505060405180910390fd5b42600054826001015401101515156117ed576040517f08c379a00000000000000000000000000000000000000000000000000000000081526004018080602001828103825260218152602001806158bf6021913960400191505060405180910390fd5b600160048111156117fa57fe5b8160000160149054906101000a900460ff16600481111561181757fe5b141561190b57611906856002806020026040519081016040528092919082600260200280828437600081840152601f19601f82011690508083019250505050505085600280602002604051908101604052809291906000905b828210156118c4578382604002016002806020026040519081016040528092919082600260200280828437600081840152601f19601f82011690508083019250505050505081526020019060010190611870565b50505050856002806020026040519081016040528092919082600260200280828437600081840152601f19601f8201169050808301925050505050508561292f565b611b45565b6002600481111561191857fe5b8160000160149054906101000a900460ff16600481111561193557fe5b1415611a2957611a24856002806020026040519081016040528092919082600260200280828437600081840152601f19601f82011690508083019250505050505085600280602002604051908101604052809291906000905b828210156119e2578382604002016002806020026040519081016040528092919082600260200280828437600081840152601f19601f8201169050808301925050505050508152602001906001019061198e565b50505050856002806020026040519081016040528092919082600260200280828437600081840152601f19601f82011690508083019250505050505085612aca565b611b44565b60036004811115611a3657fe5b8160000160149054906101000a900460ff166004811115611a5357fe5b1415611b4357611b42856002806020026040519081016040528092919082600260200280828437600081840152601f19601f82011690508083019250505050505085600280602002604051908101604052809291906000905b82821015611b00578382604002016002806020026040519081016040528092919082600260200280828437600081840152601f19601f82011690508083019250505050505081526020019060010190611aac565b50505050856002806020026040519081016040528092919082600260200280828437600081840152601f19601f82011690508083019250505050505085612c65565b5b5b5b5050505050565b60056020528060005260406000206000915054906101000a900460ff1681565b60046020528060005260406000206000915090508060000160009054906101000a900473ffffffffffffffffffffffffffffffffffffffff16908060000160149054906101000a900460ff16908060010154905083565b600060046000838152602001908152602001600020905060006004811115611be757fe5b8160000160149054906101000a900460ff166004811115611c0457fe5b14151515611c7a576040517f08c379a00000000000000000000000000000000000000000000000000000000081526004018080602001828103825260148152602001807f70726f6f664861736820697320696e76616c696400000000000000000000000081525060200191505060405180910390fd5b42600054826001015401101515611cf9576040517f08c379a00000000000000000000000000000000000000000000000000000000081526004018080602001828103825260118152602001807f4e6f7465206973207374696c6c20686f7400000000000000000000000000000081525060200191505060405180910390fd5b60016004811115611d0657fe5b8160000160149054906101000a900460ff166004811115611d2357fe5b1415611d3757611d3282612e00565b611db1565b60026004811115611d4457fe5b8160000160149054906101000a900460ff166004811115611d6157fe5b1415611d7557611d7082613069565b611db0565b60036004811115611d8257fe5b8160000160149054906101000a900460ff166004811115611d9f57fe5b1415611daf57611dae826135e1565b5b5b5b5050565b600260009054906101000a900473ffffffffffffffffffffffffffffffffffffffff1681565b3460015481141515611e55576040517f08c379a00000000000000000000000000000000000000000000000000000000081526004018080602001828103825260148152602001807f496e76616c6964207374616b6520616d6f756e7400000000000000000000000081525060200191505060405180910390fd5b611f75856002806020026040519081016040528092919082600260200280828437600081840152601f19601f82011690508083019250505050505085600280602002604051908101604052809291906000905b82821015611efc578382604002016002806020026040519081016040528092919082600260200280828437600081840152601f19601f82011690508083019250505050505081526020019060010190611ea8565b50505050856002806020026040519081016040528092919082600260200280828437600081840152601f19601f820116905080830192505050505050856007806020026040519081016040528092919082600760200280828437600081840152601f19601f8201169050808301925050505050506139e8565b5050505050565b6000807f30644e72e131a029b85045b68181585d2833e84879b9709143e1f593f00000019050611faa61568f565b611fb2613beb565b90508060800151516001865101141515611fcb57600080fd5b611fd36156d8565b6040805190810160405280600081526020016000815250905060008090505b86518110156120775783878281518110151561200a57fe5b9060200190602002015110151561202057600080fd5b6120688261206385608001516001850181518110151561203c57fe5b906020019060200201518a8581518110151561205457fe5b9060200190602002015161412e565b6141ca565b91508080600101915050611ff2565b5061209e818360800151600081518110151561208f57fe5b906020019060200201516141ca565b90506120e4856000015186602001516120b684614287565b85604001516120c88a60400151614287565b87606001516120da8960000151614287565b8960200151614323565b15156120f657600193505050506120fe565b600093505050505b92915050565b6000807f30644e72e131a029b85045b68181585d2833e84879b9709143e1f593f0000001905061213261568f565b61213a6144a7565b9050806080015151600186510114151561215357600080fd5b61215b6156d8565b6040805190810160405280600081526020016000815250905060008090505b86518110156121ff5783878281518110151561219257fe5b906020019060200201511015156121a857600080fd5b6121f0826121eb8560800151600185018151811015156121c457fe5b906020019060200201518a858151811015156121dc57fe5b9060200190602002015161412e565b6141ca565b9150808060010191505061217a565b50612226818360800151600081518110151561221757fe5b906020019060200201516141ca565b905061226c8560000151866020015161223e84614287565b85604001516122508a60400151614287565b87606001516122628960000151614287565b8960200151614323565b151561227e5760019350505050612286565b600093505050505b92915050565b6000612299858585612852565b90506060600160040160ff166040519080825280602002602001820160405280156122d35781602001602082028038833980820191505090505b50905060008090505b600460ff168160ff16101561232d57838160ff166004811015156122fc57fe5b6020020151828260ff1681518110151561231257fe5b906020019060200201818152505080806001019150506122dc565b508673ffffffffffffffffffffffffffffffffffffffff1681600460ff1681518110151561235757fe5b90602001906020020181815250506080604051908101604052803373ffffffffffffffffffffffffffffffffffffffff1681526020016003600481111561239a57fe5b8152602001428152602001828152506004600084815260200190815260200160002060008201518160000160006101000a81548173ffffffffffffffffffffffffffffffffffffffff021916908373ffffffffffffffffffffffffffffffffffffffff16021790555060208201518160000160146101000a81548160ff0219169083600481111561242757fe5b02179055506040820151816001015560608201518160020190805190602001906124529291906156f2565b509050507f2a8c97f42d106ad000d498a1b6bf713a9365c4c1491e66fddb022f7ed07ab9343383604051808373ffffffffffffffffffffffffffffffffffffffff1673ffffffffffffffffffffffffffffffffffffffff1681526020018281526020019250505060405180910390a150505050505050565b6000807f30644e72e131a029b85045b68181585d2833e84879b9709143e1f593f000000190506124f861568f565b6125006149eb565b9050806080015151600186510114151561251957600080fd5b6125216156d8565b6040805190810160405280600081526020016000815250905060008090505b86518110156125c55783878281518110151561255857fe5b9060200190602002015110151561256e57600080fd5b6125b6826125b185608001516001850181518110151561258a57fe5b906020019060200201518a858151811015156125a257fe5b9060200190602002015161412e565b6141ca565b91508080600101915050612540565b506125ec81836080015160008151811015156125dd57fe5b906020019060200201516141ca565b90506126328560000151866020015161260484614287565b85604001516126168a60400151614287565b87606001516126288960000151614287565b8960200151614323565b1515612644576001935050505061264c565b600093505050505b92915050565b600061265f858585612852565b9050606060046040519080825280602002602001820160405280156126935781602001602082028038833980820191505090505b50905060008090505b600460ff168160ff1610156126ed57838160ff166004811015156126bc57fe5b6020020151828260ff168151811015156126d257fe5b9060200190602002018181525050808060010191505061269c565b506080604051908101604052803373ffffffffffffffffffffffffffffffffffffffff1681526020016001600481111561272357fe5b8152602001428152602001828152506004600084815260200190815260200160002060008201518160000160006101000a81548173ffffffffffffffffffffffffffffffffffffffff021916908373ffffffffffffffffffffffffffffffffffffffff16021790555060208201518160000160146101000a81548160ff021916908360048111156127b057fe5b02179055506040820151816001015560608201518160020190805190602001906127db9291906156f2565b509050507f2a8c97f42d106ad000d498a1b6bf713a9365c4c1491e66fddb022f7ed07ab9343383604051808373ffffffffffffffffffffffffffffffffffffffff1673ffffffffffffffffffffffffffffffffffffffff1681526020018281526020019250505060405180910390a1505050505050565b60008383836040516020018084600260200280838360005b8381101561288557808201518184015260208101905061286a565b505050509050018360026000925b818410156128d95782846020020151600260200280838360005b838110156128c85780820151818401526020810190506128ad565b505050509050019260010192612893565b9250505082600260200280838360005b838110156129045780820151818401526020810190506128e9565b5050505090500193505050506040516020818303038152906040528051906020012090509392505050565b600060046000838152602001908152602001600020905061294e61573f565b60008090505b600460ff168110156129a057826002018181548110151561297157fe5b9060005260206000200154828260048110151561298a57fe5b6020020181815250508080600101915050612954565b506129ad86868684610bc5565b1515612ab85760046000848152602001908152602001600020600080820160006101000a81549073ffffffffffffffffffffffffffffffffffffffff02191690556000820160146101000a81549060ff02191690556001820160009055600282016000612a1a9190615762565b50503373ffffffffffffffffffffffffffffffffffffffff166108fc6001549081150290604051600060405180830381858888f19350505050158015612a64573d6000803e3d6000fd5b503373ffffffffffffffffffffffffffffffffffffffff167f12985fda7f0b862728bca0856b151f93320ceff10cbf6a49d7f294ea0aed8151846040518082815260200191505060405180910390a2612ac2565b612ac183612e00565b5b505050505050565b6000600460008381526020019081526020016000209050612ae9615783565b60008090505b600760ff16811015612b3b578260020181815481101515612b0c57fe5b90600052602060002001548282600781101515612b2557fe5b6020020181815250508080600101915050612aef565b50612b488686868461103d565b1515612c535760046000848152602001908152602001600020600080820160006101000a81549073ffffffffffffffffffffffffffffffffffffffff02191690556000820160146101000a81549060ff02191690556001820160009055600282016000612bb59190615762565b50503373ffffffffffffffffffffffffffffffffffffffff166108fc6001549081150290604051600060405180830381858888f19350505050158015612bff573d6000803e3d6000fd5b503373ffffffffffffffffffffffffffffffffffffffff167f12985fda7f0b862728bca0856b151f93320ceff10cbf6a49d7f294ea0aed8151846040518082815260200191505060405180910390a2612c5d565b612c5c83613069565b5b505050505050565b6000600460008381526020019081526020016000209050612c8461573f565b60008090505b600460ff16811015612cd6578260020181815481101515612ca757fe5b90600052602060002001548282600481101515612cc057fe5b6020020181815250508080600101915050612c8a565b50612ce386868684610960565b1515612dee5760046000848152602001908152602001600020600080820160006101000a81549073ffffffffffffffffffffffffffffffffffffffff02191690556000820160146101000a81549060ff02191690556001820160009055600282016000612d509190615762565b50503373ffffffffffffffffffffffffffffffffffffffff166108fc6001549081150290604051600060405180830381858888f19350505050158015612d9a573d6000803e3d6000fd5b503373ffffffffffffffffffffffffffffffffffffffff167f12985fda7f0b862728bca0856b151f93320ceff10cbf6a49d7f294ea0aed8151846040518082815260200191505060405180910390a2612df8565b612df7836135e1565b5b505050505050565b60006004600083815260200190815260200160002090506000612e5b826002016000815481101515612e2e57fe5b9060005260206000200154836002016001815481101515612e4b57fe5b906000526020600020015461508d565b905060006003811115612e6a57fe5b6005600083815260200190815260200160002060009054906101000a900460ff166003811115612e9657fe5b141515612f0b576040517f08c379a00000000000000000000000000000000000000000000000000000000081526004018080602001828103825260178152602001807f4e6f74652077617320616c7265616479206d696e74656400000000000000000081525060200191505060405180910390fd5b60016005600083815260200190815260200160002060006101000a81548160ff02191690836003811115612f3b57fe5b021790555060046000848152602001908152602001600020600080820160006101000a81549073ffffffffffffffffffffffffffffffffffffffff02191690556000820160146101000a81549060ff02191690556001820160009055600282016000612fa79190615762565b50508160000160009054906101000a900473ffffffffffffffffffffffffffffffffffffffff1673ffffffffffffffffffffffffffffffffffffffff166108fc6001549081150290604051600060405180830381858888f19350505050158015613015573d6000803e3d6000fd5b507f91d2faa002479f8dc4f20862402db3dba2ebe927031674997d38e5b70d9877e78160016040518083815260200182600381111561305057fe5b60ff1681526020019250505060405180910390a1505050565b60006004600083815260200190815260200160002090506130886157a6565b6130e3826002018054806020026020016040519081016040528092919081815260200182805480156130d957602002820191906000526020600020905b8154815260200190600101908083116130c5575b50505050506151eb565b9050600160038111156130f257fe5b6005600083600060038110151561310557fe5b6020020151815260200190815260200160002060009054906101000a900460ff16600381111561313157fe5b141515613189576040517f08c379a00000000000000000000000000000000000000000000000000000000081526004018080602001828103825260278152602001806158986027913960400191505060405180910390fd5b6000600381111561319657fe5b600560008360016003811015156131a957fe5b6020020151815260200190815260200160002060009054906101000a900460ff1660038111156131d557fe5b14151561324a576040517f08c379a000000000000000000000000000000000000000000000000000000000815260040180806020018281038252601e8152602001807f6f7574707574206e6f74653120697320616c7265616479206d696e746564000081525060200191505060405180910390fd5b6000600381111561325757fe5b6005600083600260038110151561326a57fe5b6020020151815260200190815260200160002060009054906101000a900460ff16600381111561329657fe5b14151561330b576040517f08c379a000000000000000000000000000000000000000000000000000000000815260040180806020018281038252601e8152602001807f6f7574707574206e6f74653220697320616c7265616479206d696e746564000081525060200191505060405180910390fd5b60026005600083600060038110151561332057fe5b6020020151815260200190815260200160002060006101000a81548160ff0219169083600381111561334e57fe5b021790555060016005600083600160038110151561336857fe5b6020020151815260200190815260200160002060006101000a81548160ff0219169083600381111561339657fe5b02179055506001600560008360026003811015156133b057fe5b6020020151815260200190815260200160002060006101000a81548160ff021916908360038111156133de57fe5b021790555060046000848152602001908152602001600020600080820160006101000a81549073ffffffffffffffffffffffffffffffffffffffff02191690556000820160146101000a81549060ff0219169055600182016000905560028201600061344a9190615762565b50508160000160009054906101000a900473ffffffffffffffffffffffffffffffffffffffff1673ffffffffffffffffffffffffffffffffffffffff166108fc6001549081150290604051600060405180830381858888f193505050501580156134b8573d6000803e3d6000fd5b507f91d2faa002479f8dc4f20862402db3dba2ebe927031674997d38e5b70d9877e78160006003811015156134e957fe5b602002015160026040518083815260200182600381111561350657fe5b60ff1681526020019250505060405180910390a17f91d2faa002479f8dc4f20862402db3dba2ebe927031674997d38e5b70d9877e781600160038110151561354a57fe5b602002015160016040518083815260200182600381111561356757fe5b60ff1681526020019250505060405180910390a17f91d2faa002479f8dc4f20862402db3dba2ebe927031674997d38e5b70d9877e78160026003811015156135ab57fe5b60200201516001604051808381526020018260038111156135c857fe5b60ff1681526020019250505060405180910390a1505050565b6000600460008381526020019081526020016000209050600061363c82600201600081548110151561360f57fe5b906000526020600020015483600201600181548110151561362c57fe5b906000526020600020015461508d565b90506001600381111561364b57fe5b6005600083815260200190815260200160002060009054906101000a900460ff16600381111561367757fe5b1415156136cf576040517f08c379a00000000000000000000000000000000000000000000000000000000081526004018080602001828103825260278152602001806158986027913960400191505060405180910390fd5b60026005600083815260200190815260200160002060006101000a81548160ff021916908360038111156136ff57fe5b02179055508160000160009054906101000a900473ffffffffffffffffffffffffffffffffffffffff1673ffffffffffffffffffffffffffffffffffffffff166108fc6001549081150290604051600060405180830381858888f19350505050158015613770573d6000803e3d6000fd5b50600082600201600460ff1681548110151561378857fe5b9060005260206000200154905060008360020160028154811015156137a957fe5b9060005260206000200154905060046000868152602001908152602001600020600080820160006101000a81549073ffffffffffffffffffffffffffffffffffffffff02191690556000820160146101000a81549060ff0219169055600182016000905560028201600061381d9190615762565b5050600260009054906101000a900473ffffffffffffffffffffffffffffffffffffffff1673ffffffffffffffffffffffffffffffffffffffff1663a9059cbb83836040518363ffffffff167c0100000000000000000000000000000000000000000000000000000000028152600401808373ffffffffffffffffffffffffffffffffffffffff1673ffffffffffffffffffffffffffffffffffffffff16815260200182815260200192505050602060405180830381600087803b1580156138e457600080fd5b505af11580156138f8573d6000803e3d6000fd5b505050506040513d602081101561390e57600080fd5b81019080805190602001909291905050501515613993576040517f08c379a00000000000000000000000000000000000000000000000000000000081526004018080602001828103825260188152602001807f646169546f6b656e207472616e73666572206661696c6564000000000000000081525060200191505060405180910390fd5b7f91d2faa002479f8dc4f20862402db3dba2ebe927031674997d38e5b70d9877e7836002604051808381526020018260038111156139cd57fe5b60ff1681526020019250505060405180910390a15050505050565b60006139f5858585612852565b90506060600760ff16604051908082528060200260200182016040528015613a2c5781602001602082028038833980820191505090505b50905060008090505b600760ff168160ff161015613a8657838160ff16600781101515613a5557fe5b6020020151828260ff16815181101515613a6b57fe5b90602001906020020181815250508080600101915050613a35565b506080604051908101604052803373ffffffffffffffffffffffffffffffffffffffff16815260200160026004811115613abc57fe5b8152602001428152602001828152506004600084815260200190815260200160002060008201518160000160006101000a81548173ffffffffffffffffffffffffffffffffffffffff021916908373ffffffffffffffffffffffffffffffffffffffff16021790555060208201518160000160146101000a81548160ff02191690836004811115613b4957fe5b0217905550604082015181600101556060820151816002019080519060200190613b749291906156f2565b509050507f2a8c97f42d106ad000d498a1b6bf713a9365c4c1491e66fddb022f7ed07ab9343383604051808373ffffffffffffffffffffffffffffffffffffffff1673ffffffffffffffffffffffffffffffffffffffff1681526020018281526020019250505060405180910390a1505050505050565b613bf361568f565b60408051908101604052807f08e8fd47f4f47ca3bf35d3549cc9cbc9ee4980e7555623215f325533055db98481526020017effd309565aa419ab4d5b0b1356a42cbd79a90b7bf5842ec7d77fbc903ec48c8152508160000181905250604080519081016040528060408051908101604052807f191aea51714d75793ebce74e92140ff5b9a72b2b21db0e7d38a9a6f6ec561e2781526020017f125e351f64102e5ed7413e9e1ae39fcda03f94b4952ae5024c1a979032fe17a6815250815260200160408051908101604052807f2a38351dc02090cf4c992e0e79c380add7cf09e2efc156ec8638c44cb2659ae581526020017f2057aa937ac295a24afe5fe8f41bf3b726c1e9a747a3d82112eb6f21a7249e348152508152508160200181905250604080519081016040528060408051908101604052807f1596ddc83d27b9fc3e437ecfce0cfb1183aa2ec3218fe47b0dc87260e58cec0181526020017f1d1caa5d4c2f3eaf4e4a1c5834a843fa144f4ee7543144ab36cbed2d295b34b4815250815260200160408051908101604052807f082e72deb2bdb3f1c744d2faed40b40a8e0095857798f5271c975574e461682381526020017f22da6530029c6e8b34899b20fe962bcebae94f93f737268376261dd6710badc18152508152508160400181905250604080519081016040528060408051908101604052807f155465dc68c4a17a3844dca002ef1b0b361552491432dff1103ef28d66548afd81526020017f26a9b5195a4b0a709767168cfb17ffe6b006671136407b9291f20eab14133250815250815260200160408051908101604052807f15d2db06487070c5abfe868a56d6db291353a00e87a7649355e47cc04a72d94381526020017f2e8c476822f4f14713679e51ec81f3ecd7a4e058b0a8210792c16b9c5237de8981525081525081606001819052506005604051908082528060200260200182016040528015613ed957816020015b613ec66157c9565b815260200190600190039081613ebe5790505b50816080018190525060408051908101604052807f045a076654acaecf344e8d6baeac13d52868fc24c9b07a948630a01a0403307f81526020017f08781c8e5717b83d3841478ec85437ce512b9db47bc88e2d9deff51f4cc5233581525081608001516000815181101515613f4a57fe5b9060200190602002018190525060408051908101604052807f030852bafbd1dca04aa84803d07f6210ab89f1b76ddecc2f530fc5bdcd9115d281526020017f134807c24cc6469a59ce3ab93874d819f1e471f432bc0381ecede614c0dfc99981525081608001516001815181101515613fbf57fe5b9060200190602002018190525060408051908101604052807f229b98cb8f8aeabfd356cd7bb196730fce607346d63bb1947fed7dabdcea5e7581526020017f1edebbc7d906f9fff4f4f68ac6830e02a8850468920c597e7d121b88f8cbc3df8152508160800151600281518110151561403457fe5b9060200190602002018190525060408051908101604052807f1396ecbae3a957f73a2becd5490d94ca78d8506c6970fb7c52b4245c3f66775481526020017f2667d1e395f4c72043b442b51ba566c5d690c7d4cf03f40f7ed37ae9f3b2e70e815250816080015160038151811015156140a957fe5b9060200190602002018190525060408051908101604052807f10dead365b530b87ec9aadc7ac7aa5dc2501f88a9c0dcac8f23290d6f087461281526020017f0ec800383d251bc69c0d9add8bd57daec637178b1a0663ef5b0362c545709c0b8152508160800151600481518110151561411e57fe5b9060200190602002018190525090565b6141366156d8565b61413e6157e3565b836000015181600060038110151561415257fe5b602002018181525050836020015181600160038110151561416f57fe5b6020020181815250508281600260038110151561418857fe5b6020020181815250506000606083608084600060076107d05a03f1905080600081146141b3576141b5565bfe5b508015156141c257600080fd5b505092915050565b6141d26156d8565b6141da61573f565b83600001518160006004811015156141ee57fe5b602002018181525050836020015181600160048110151561420b57fe5b602002018181525050826000015181600260048110151561422857fe5b602002018181525050826020015181600360048110151561424557fe5b602002018181525050600060608360c084600060066107d05a03f19050806000811461427057614272565bfe5b5080151561427f57600080fd5b505092915050565b61428f6156d8565b60007f30644e72e131a029b85045b68181585d97816a916871ca8d3c208c16d87cfd479050600083600001511480156142cc575060008360200151145b156142f057604080519081016040528060008152602001600081525091505061431e565b60408051908101604052808460000151815260200182856020015181151561431457fe5b0683038152509150505b919050565b60006060600460405190808252806020026020018201604052801561436257816020015b61434f6157c9565b8152602001906001900390816143475790505b509050606060046040519080825280602002602001820160405280156143a257816020015b61438f615806565b8152602001906001900390816143875790505b5090508a8260008151811015156143b557fe5b90602001906020020181905250888260018151811015156143d257fe5b90602001906020020181905250868260028151811015156143ef57fe5b906020019060200201819052508482600381518110151561440c57fe5b906020019060200201819052508981600081518110151561442957fe5b906020019060200201819052508781600181518110151561444657fe5b906020019060200201819052508581600281518110151561446357fe5b906020019060200201819052508381600381518110151561448057fe5b9060200190602002018190525061449782826152ee565b9250505098975050505050505050565b6144af61568f565b60408051908101604052807f08355b3d065dfbb9624e326a2e2f0f3f46d03c764e7bab886ac04b58baec76d381526020017f14e51c4e9d67b30020275a8894b33494a7576024fcfc936de1f41723b30715b88152508160000181905250604080519081016040528060408051908101604052807f188d28d2c16f59475d2a90c4d44b0d63c47ac7feae0c0629a555aa1ca452f96081526020017f28caa50da784de9e4f1db05209bb8c72a4717d1ccf36ebf424a11b843ea8a886815250815260200160408051908101604052807f116aeced947d887ed053c43508518bac9ed21ac5826ca5060d14836ca2519d1681526020017f2c807c4a7f6547e60dc22dd964e551e0f24f6e211d0e58d491c2d37a4b09d7588152508152508160200181905250604080519081016040528060408051908101604052807f1e4d559312520227259978c98eb176f77a7d9f47f0b5a180b4e6e43815c2a55f81526020017f19a2896bd3b81448b1c2ee880e3e54399251cadb755d16f73d6068c1e556c806815250815260200160408051908101604052807f21abc544c278d045e9aecefdab7de03ef6273b84c768b580f3c8dffb7a85f2cc81526020017f2c9db18636aef6434344db20a0919e32e35a73802b1bce6b3ba58daa2ac4c97b8152508152508160400181905250604080519081016040528060408051908101604052807f03c4184424abad74d268cf5f1f495a8c6dd42552cf4fb966e44519e82cea4c6b81526020017f2e9e290fc11abf4ee12f9ab4326b5fbe0cce3a7edf0873246d5e66dc8c4220a2815250815260200160408051908101604052807f1e6a295e147bf049331512ef9777e0258dd472db058f86e02428f9dee86d635b81526020017f033fbc383ba3cde056d766e7bcb402e33d8a51c435c2362a104ad762151c31718152508152508160600181905250600560405190808252806020026020018201604052801561479657816020015b6147836157c9565b81526020019060019003908161477b5790505b50816080018190525060408051908101604052807f23e75180d258bea032b2786ff65cfcc9fea0d3ec80d41ad0f8fcc00a9f7e99c981526020017f113ed1d5e901624d1bd2e35e50758dbec9585c9194ef0b02399d756ec3b4a2ba8152508160800151600081518110151561480757fe5b9060200190602002018190525060408051908101604052807f02348e5e1cbfaffca63202016004f73c165e68d1eed2e4fa9920a1d4f9f71e9081526020017f148aa797000e24de203e4d261f82c0b650545d6ab33a1615a83ce7ad189520c48152508160800151600181518110151561487c57fe5b9060200190602002018190525060408051908101604052807f010612dd2cbd547111aa3208cceb96c9f13e47bd9880855588b4b0b1dd46a7d281526020017f1a7308de25396b809c17bd3fa685c8b37d06e32c4a33a2d0fe99ab667225eb78815250816080015160028151811015156148f157fe5b9060200190602002018190525060408051908101604052807f27ede1c53da903ee1576d254f167cb249efae8b703072a8652c63b2333dbc46181526020017f1c2afc39feb8aae5ddef07ac10c4b98045df0deabb745d6fa25066878719e1e98152508160800151600381518110151561496657fe5b9060200190602002018190525060408051908101604052807f07be509466155d348e63a0d2822339cb798ecc0318be2c1fb41463fe6dd27da881526020017f27c3f27568ca1d1cb995e62a51425f7a91e341924a36373fc7610c8fda501569815250816080015160048151811015156149db57fe5b9060200190602002018190525090565b6149f361568f565b60408051908101604052807f1a98ac48fe2018f84f58a2906156cedd87059554be66822c8443397426bc62a781526020017f03db6d4b9d0c6621e37c5f2329a2212b4ddc29f46607e9a80d5941676e25edb78152508160000181905250604080519081016040528060408051908101604052807f1b735ac6d76ea2df5007c6388a1d2607b799e35c30e9519da33953da9d43db6f81526020017f0c2a204b6cf7546ebc106470781153a8f110a61e2ab8ecd99ac77cb09b922ae1815250815260200160408051908101604052807f180dd416bf72c1188ecdf599eee773f5b4e303e9efe35eb04e33f277e952f5be81526020017f1e35b197f94262f5fe64d0fe32af60ca51449435f6bf941df65b0d2a2942f6f78152508152508160200181905250604080519081016040528060408051908101604052807f26f0cdc4bf30d13dc2cf6367e49445fc59abcba315def5e1b3729af927e6a6c581526020017f065bd09ff773ec638084cf183c96d3178d3d5fd44206a7f9b6c8aa72b3dc52ac815250815260200160408051908101604052807f15d1ad4691023d57db5a06ce69f081fa9e61d176e8c9a40e4a446c27b17291ae81526020017f2b41d1b082947fff6fd5a5df399e59d9440d1faa701e4768ad8a460fd41dbde28152508152508160400181905250604080519081016040528060408051908101604052807f2c4a26f13a3b4888403d5b917ca0b586a2f708955a89d25b3f5f75308d84513581526020017f208605906c040f4aefde123c8939f8417ef0774f59c13dd08ffdb1248f78e84c815250815260200160408051908101604052807f0b7695268fa677103881aa934f7e45ac4ed626c33390477b851bb3ce6ee146dd81526020017f2f2fcdb0f059b6270527c5d46e3eb1af9f7463ab1ed58438c42187aa094055fc81525081525081606001819052506008604051908082528060200260200182016040528015614cda57816020015b614cc76157c9565b815260200190600190039081614cbf5790505b50816080018190525060408051908101604052807f0a65dc2d653564f4ea5a987bb92725e16860f9c2ed63f26663e4ea1dd201495581526020017f05edc87f90a596723787e36afc4da0d32c02f77788610349b4f875da59cc45d481525081608001516000815181101515614d4b57fe5b9060200190602002018190525060408051908101604052807f1ac7c460c4d1553f7f303d1f384fbfb9fbfc5a14e963ed3ae75f14ae561fea8381526020017f16ea6aeb7d297d3e924d9802151cfa2f24b72e23c19dcf508930f5c7be2d2d0a81525081608001516001815181101515614dc057fe5b9060200190602002018190525060408051908101604052807f09262c81daea9019fa2a153007bc7aefda07852ba846f177e3b5259525c68cb881526020017f1a1e2e4c0fc4ffb7f2423043d83236654c84a51b2240c33ac609b15bc684c58781525081608001516002815181101515614e3557fe5b9060200190602002018190525060408051908101604052807f1dcf0c809f804ea9e2cedb16407dd89f5af0f0b7ab211628fe51c4a9d06f3eef81526020017f0d39d3271f58f96eec3799622b14c869d76f421aa0c0a657d27f015fa6939a8781525081608001516003815181101515614eaa57fe5b9060200190602002018190525060408051908101604052807f09ee43f5e8cdbe9d12fa57ae149ebde674532a40e0462f3b53b2e7a00768a28081526020017f13f3a99dff58fa02e9b4b636e12708f61b8c8acfa176b9589d954310b4d4305d81525081608001516004815181101515614f1f57fe5b9060200190602002018190525060408051908101604052807e60f976268eb38393a3c16ca02613d04deb4873399b911ba31e9d3c9f83a40981526020017f25610bd7ac6c62d0a575176f60f461b45852a7667c82bb0cb90654ab442e660f81525081608001516005815181101515614f9357fe5b9060200190602002018190525060408051908101604052807f220b9534234001a50b76a0240ff70316868b988596137240f9c8c2aa2b953d4781526020017f0267d3165a1bf80e633dd90bce7fd86c95913242de0b7ecb62824756cfff3c0f8152508160800151600681518110151561500857fe5b9060200190602002018190525060408051908101604052807f19bf56a5653c8988330352dd2cb1d594594c872bb8932961b45390badec2275181526020017f13cfe41af18911a33c1bc1fe167df2aa75476b439abe3c488eff21c2d70c29e18152508160800151600781518110151561507d57fe5b9060200190602002018190525090565b6000808360010290506000836001029050606060206040519080825280601f01601f1916602001820160405280156150d45781602001600182028038833980820191505090505b50905060008090505b60108110156151d45783816010811015156150f457fe5b1a7f010000000000000000000000000000000000000000000000000000000000000002828281518110151561512557fe5b9060200101907effffffffffffffffffffffffffffffffffffffffffffffffffffffffffffff1916908160001a905350828160108110151561516357fe5b1a7f010000000000000000000000000000000000000000000000000000000000000002828260100181518110151561519757fe5b9060200101907effffffffffffffffffffffffffffffffffffffffffffffffffffffffffffff1916908160001a90535080806001019150506150dd565b506151e0816000615581565b935050505092915050565b6151f36157a6565b61522d82600081518110151561520557fe5b9060200190602002015183600181518110151561521e57fe5b9060200190602002015161508d565b81600060038110151561523c57fe5b60200201818152505061527f82600281518110151561525757fe5b9060200190602002015183600381518110151561527057fe5b9060200190602002015161508d565b81600160038110151561528e57fe5b6020020181815250506152d18260048151811015156152a957fe5b906020019060200201518360058151811015156152c257fe5b9060200190602002015161508d565b8160026003811015156152e057fe5b602002018181525050919050565b60008151835114151561530057600080fd5b600083519050600060068202905060608160405190808252806020026020018201604052801561533f5781602001602082028038833980820191505090505b50905060008090505b8381101561551d57868181518110151561535e57fe5b9060200190602002015160000151826000600684020181518110151561538057fe5b9060200190602002018181525050868181518110151561539c57fe5b906020019060200201516020015182600160068402018151811015156153be57fe5b906020019060200201818152505085818151811015156153da57fe5b906020019060200201516000015160006002811015156153f657fe5b6020020151826002600684020181518110151561540f57fe5b9060200190602002018181525050858181518110151561542b57fe5b9060200190602002015160000151600160028110151561544757fe5b6020020151826003600684020181518110151561546057fe5b9060200190602002018181525050858181518110151561547c57fe5b9060200190602002015160200151600060028110151561549857fe5b602002015182600460068402018151811015156154b157fe5b906020019060200201818152505085818151811015156154cd57fe5b906020019060200201516020015160016002811015156154e957fe5b6020020151826005600684020181518110151561550257fe5b90602001906020020181815250508080600101915050615348565b5061552661582d565b60006020826020860260208601600060086107d05a03f19050806000811461554d5761554f565bfe5b5080151561555c57600080fd5b600082600060018110151561556d57fe5b602002015114159550505050505092915050565b600080600090505b6020811015615653576008810260ff7f010000000000000000000000000000000000000000000000000000000000000002858386018151811015156155ca57fe5b9060200101517f010000000000000000000000000000000000000000000000000000000000000090047f010000000000000000000000000000000000000000000000000000000000000002167effffffffffffffffffffffffffffffffffffffffffffffffffffffffffffff1916908060020a8204915050821791508080600101915050615589565b5092915050565b6101006040519081016040528061566f6157c9565b815260200161567c615806565b81526020016156896157c9565b81525090565b6101e0604051908101604052806156a46157c9565b81526020016156b1615806565b81526020016156be615806565b81526020016156cb615806565b8152602001606081525090565b604080519081016040528060008152602001600081525090565b82805482825590600052602060002090810192821561572e579160200282015b8281111561572d578251825591602001919060010190615712565b5b50905061573b9190615850565b5090565b608060405190810160405280600490602082028038833980820191505090505090565b50805460008255906000526020600020908101906157809190615850565b50565b60e060405190810160405280600790602082028038833980820191505090505090565b606060405190810160405280600390602082028038833980820191505090505090565b604080519081016040528060008152602001600081525090565b606060405190810160405280600390602082028038833980820191505090505090565b60806040519081016040528061581a615875565b8152602001615827615875565b81525090565b602060405190810160405280600190602082028038833980820191505090505090565b61587291905b8082111561586e576000816000905550600101615856565b5090565b90565b604080519081016040528060029060208202803883398082019150509050509056fe4e6f74652069732065697468657220696e76616c6964206f7220616c7265616479207370656e744e6f74652063616e6e6f74206265206368616c6c656e67656420616e796d6f72655472616e73616374696f6e207375636365737366756c6c792076657269666965642e436f72726573706f6e64696e672068617368206f662070726f6f6620646f65736e74206578697374a165627a7a72305820da9ac7522d2fba831de5af6c709941982b689cb0eb6cb1981d9d293db55ff2800029",
  "source": "pragma solidity ^0.5.2;\n\nimport \"@openzeppelin/contracts/token/ERC20/ERC20.sol\";\nimport \"./MintNotes.sol\";\nimport \"./SpendNotes.sol\";\nimport \"./LiquidateNotes.sol\";\n\n\ncontract ZkDai is MintNotes, SpendNotes, LiquidateNotes {\n\n  modifier validStake(uint256 _stake)\n  {\n      require(_stake == stake, \"Invalid stake amount\");\n      _;\n  }\n\n  constructor(uint256 _cooldown, uint256 _stake, address daiTokenAddress)\n    public\n  {\n      cooldown = _cooldown;\n      stake = _stake;\n      dai = ERC20(daiTokenAddress);\n  }\n\n  /**\n  * @dev Transfers specified number of dai tokens to itself and submits the zkSnark proof to mint a new note\n  * @notice params: a, a_p, b, b_p, c, c_p, h, k zkSnark parameters\n  * @param input Public inputs of the zkSnark\n  */\n  function mint(\n      uint256[2] calldata a,\n      uint256[2][2] calldata b,\n      uint256[2] calldata c,\n      uint256[4] calldata input)\n    external\n    payable\n    validStake(msg.value)\n  {\n      require(\n        dai.transferFrom(msg.sender, address(this), uint256(input[2]) /* value */),\n        \"daiToken transfer failed\"\n      );\n      MintNotes.submit(a, b, c, input);\n  }\n\n  /**\n  * @dev Submits the zkSnark proof to be able to spend a note and create two new notes\n  * @notice params: a, a_p, b, b_p, c, c_p, h, k zkSnark parameters\n  * @param input Public inputs of the zkSnark\n  */\n  function spend(\n      uint256[2] calldata a,\n      uint256[2][2] calldata b,\n      uint256[2] calldata c,\n      uint256[7] calldata input)\n    external\n    payable\n    validStake(msg.value)\n  {\n      SpendNotes.submit(a, b, c, input);\n  }\n\n  /**\n  * @dev Liquidate a note to transfer the equivalent amount of dai to the recipient\n  * @param to Recipient of the dai tokens\n  * @notice params: a, a_p, b, b_p, c, c_p, h, k zkSnark parameters\n  * @param input Public inputs of the zkSnark\n  */\n  function liquidate(\n      address to,\n      uint256[2] calldata a,\n      uint256[2][2] calldata b,\n      uint256[2] calldata c,\n      uint256[4] calldata input)\n    external\n    payable\n    validStake(msg.value)\n  {\n      LiquidateNotes.submit(to, a, b, c,input);\n  }\n\n  /**\n  * @dev Challenge the mint or spend proofs and claim the stake amount if challenge passes.\n  * @notice If challenge passes, the challenger claims the stake amount,\n  *         otherwise note(s) are committed/spent and stake is transferred back to proof submitter.\n  * @notice params: a, a_p, b, b_p, c, c_p, h, k zkSnark parameters of the challenged proof\n  */\n  function challenge(\n      uint256[2] calldata a,\n      uint256[2][2] calldata b,\n      uint256[2] calldata c)\n    external\n  {\n      bytes32 proofHash = getProofHash(a, b, c);\n      Submission storage submission = submissions[proofHash];\n      require(submission.sType != SubmissionType.Invalid, \"Corresponding hash of proof doesnt exist\");\n      require(submission.submittedAt + cooldown >= now, \"Note cannot be challenged anymore\");\n      if (submission.sType == SubmissionType.Mint) {\n        MintNotes.challenge(a, b, c, proofHash);\n      } else if (submission.sType == SubmissionType.Spend) {\n        SpendNotes.challenge(a, b, c, proofHash);\n      } else if (submission.sType == SubmissionType.Liquidate) {\n        LiquidateNotes.challenge(a, b, c, proofHash);\n      }\n  }\n\n  /**\n  * @dev Commit a particular proof once the challenge period has ended\n  * @param proofHash Hash of the proof that needs to be committed\n  */\n  function commit(bytes32 proofHash)\n    public\n  {\n      Submission storage submission = submissions[proofHash];\n      require(submission.sType != SubmissionType.Invalid, \"proofHash is invalid\");\n      require(submission.submittedAt + cooldown < now, \"Note is still hot\");\n      if (submission.sType == SubmissionType.Mint) {\n        mintCommit(proofHash);\n      } else if (submission.sType == SubmissionType.Spend) {\n        spendCommit(proofHash);\n      } else if (submission.sType == SubmissionType.Liquidate) {\n        liquidateCommit(proofHash);\n      }\n  }\n}\n",
  "sourcePath": "/home/boo/work/LightningZKP/contracts/ZkDai.sol",
  "compiler": {
    "name": "solc",
    "version": "0.5.2+commit.1df8f40c.Emscripten.clang"
  },
  "schemaVersion": "3.0.11",
  "updatedAt": "2019-09-24T08:04:21.100Z",
  "devdoc": {
    "methods": {
      "challenge(uint256[2],uint256[2][2],uint256[2])": {
        "details": "Challenge the mint or spend proofs and claim the stake amount if challenge passes."
      },
      "commit(bytes32)": {
        "details": "Commit a particular proof once the challenge period has ended",
        "params": {
          "proofHash": "Hash of the proof that needs to be committed"
        }
      },
      "liquidate(address,uint256[2],uint256[2][2],uint256[2],uint256[4])": {
        "details": "Liquidate a note to transfer the equivalent amount of dai to the recipient",
        "params": {
          "input": "Public inputs of the zkSnark",
          "to": "Recipient of the dai tokens"
        }
      },
      "mint(uint256[2],uint256[2][2],uint256[2],uint256[4])": {
        "details": "Transfers specified number of dai tokens to itself and submits the zkSnark proof to mint a new note",
        "params": {
          "input": "Public inputs of the zkSnark"
        }
      },
      "spend(uint256[2],uint256[2][2],uint256[2],uint256[7])": {
        "details": "Submits the zkSnark proof to be able to spend a note and create two new notes",
        "params": {
          "input": "Public inputs of the zkSnark"
        }
      }
    }
  },
  "userdoc": {
    "methods": {
      "challenge(uint256[2],uint256[2][2],uint256[2])": {
        "notice": "If challenge passes, the challenger claims the stake amount,        otherwise note(s) are committed/spent and stake is transferred back to proof submitter.params: a, a_p, b, b_p, c, c_p, h, k zkSnark parameters of the challenged proof"
      },
      "liquidate(address,uint256[2],uint256[2][2],uint256[2],uint256[4])": {
        "notice": "params: a, a_p, b, b_p, c, c_p, h, k zkSnark parameters"
      },
      "mint(uint256[2],uint256[2][2],uint256[2],uint256[4])": {
        "notice": "params: a, a_p, b, b_p, c, c_p, h, k zkSnark parameters"
      },
      "spend(uint256[2],uint256[2][2],uint256[2],uint256[7])": {
        "notice": "params: a, a_p, b, b_p, c, c_p, h, k zkSnark parameters"
      }
    }
  }
}