{
  "contractName": "ZkDai",
  "abi": [
    {
      "constant": false,
      "inputs": [
        {
          "name": "a",
          "type": "uint256[2]"
        },
        {
          "name": "b",
          "type": "uint256[2][2]"
        },
        {
          "name": "c",
          "type": "uint256[2]"
        },
        {
          "name": "input",
          "type": "uint256[4]"
        }
      ],
      "name": "liquidateVerifyTx",
      "outputs": [
        {
          "name": "r",
          "type": "bool"
        }
      ],
      "payable": false,
      "stateMutability": "nonpayable",
      "type": "function"
    },
    {
      "constant": false,
      "inputs": [
        {
          "name": "a",
          "type": "uint256[2]"
        },
        {
          "name": "b",
          "type": "uint256[2][2]"
        },
        {
          "name": "c",
          "type": "uint256[2]"
        },
        {
          "name": "input",
          "type": "uint256[4]"
        }
      ],
      "name": "mintVerifyTx",
      "outputs": [
        {
          "name": "r",
          "type": "bool"
        }
      ],
      "payable": false,
      "stateMutability": "nonpayable",
      "type": "function"
    },
    {
      "constant": true,
      "inputs": [],
      "name": "stake",
      "outputs": [
        {
          "name": "",
          "type": "uint256"
        }
      ],
      "payable": false,
      "stateMutability": "view",
      "type": "function"
    },
    {
      "constant": false,
      "inputs": [
        {
          "name": "a",
          "type": "uint256[2]"
        },
        {
          "name": "b",
          "type": "uint256[2][2]"
        },
        {
          "name": "c",
          "type": "uint256[2]"
        },
        {
          "name": "input",
          "type": "uint256[7]"
        }
      ],
      "name": "spendVerifyTx",
      "outputs": [
        {
          "name": "r",
          "type": "bool"
        }
      ],
      "payable": false,
      "stateMutability": "nonpayable",
      "type": "function"
    },
    {
      "constant": true,
      "inputs": [],
      "name": "cooldown",
      "outputs": [
        {
          "name": "",
          "type": "uint256"
        }
      ],
      "payable": false,
      "stateMutability": "view",
      "type": "function"
    },
    {
      "constant": true,
      "inputs": [
        {
          "name": "",
          "type": "bytes32"
        }
      ],
      "name": "notes",
      "outputs": [
        {
          "name": "",
          "type": "uint8"
        }
      ],
      "payable": false,
      "stateMutability": "view",
      "type": "function"
    },
    {
      "constant": true,
      "inputs": [
        {
          "name": "",
          "type": "bytes32"
        }
      ],
      "name": "submissions",
      "outputs": [
        {
          "name": "submitter",
          "type": "address"
        },
        {
          "name": "sType",
          "type": "uint8"
        },
        {
          "name": "submittedAt",
          "type": "uint256"
        }
      ],
      "payable": false,
      "stateMutability": "view",
      "type": "function"
    },
    {
      "constant": true,
      "inputs": [],
      "name": "dai",
      "outputs": [
        {
          "name": "",
          "type": "address"
        }
      ],
      "payable": false,
      "stateMutability": "view",
      "type": "function"
    },
    {
      "inputs": [
        {
          "name": "_cooldown",
          "type": "uint256"
        },
        {
          "name": "_stake",
          "type": "uint256"
        },
        {
          "name": "daiTokenAddress",
          "type": "address"
        }
      ],
      "payable": false,
      "stateMutability": "nonpayable",
      "type": "constructor"
    },
    {
      "anonymous": false,
      "inputs": [
        {
          "indexed": false,
          "name": "note",
          "type": "bytes32"
        },
        {
          "indexed": false,
          "name": "state",
          "type": "uint8"
        }
      ],
      "name": "NoteStateChange",
      "type": "event"
    },
    {
      "anonymous": false,
      "inputs": [
        {
          "indexed": false,
          "name": "submitter",
          "type": "address"
        },
        {
          "indexed": false,
          "name": "proofHash",
          "type": "bytes32"
        }
      ],
      "name": "Submitted",
      "type": "event"
    },
    {
      "anonymous": false,
      "inputs": [
        {
          "indexed": true,
          "name": "challenger",
          "type": "address"
        },
        {
          "indexed": false,
          "name": "proofHash",
          "type": "bytes32"
        }
      ],
      "name": "Challenged",
      "type": "event"
    },
    {
      "anonymous": false,
      "inputs": [
        {
          "indexed": false,
          "name": "s",
          "type": "string"
        }
      ],
      "name": "LiquidateVerified",
      "type": "event"
    },
    {
      "anonymous": false,
      "inputs": [
        {
          "indexed": false,
          "name": "s",
          "type": "string"
        }
      ],
      "name": "SpendVerified",
      "type": "event"
    },
    {
      "anonymous": false,
      "inputs": [
        {
          "indexed": false,
          "name": "s",
          "type": "string"
        }
      ],
      "name": "MintVerified",
      "type": "event"
    },
    {
      "constant": false,
      "inputs": [
        {
          "name": "a",
          "type": "uint256[2]"
        },
        {
          "name": "b",
          "type": "uint256[2][2]"
        },
        {
          "name": "c",
          "type": "uint256[2]"
        },
        {
          "name": "input",
          "type": "uint256[4]"
        }
      ],
      "name": "mint",
      "outputs": [],
      "payable": true,
      "stateMutability": "payable",
      "type": "function"
    },
    {
      "constant": false,
      "inputs": [
        {
          "name": "a",
          "type": "uint256[2]"
        },
        {
          "name": "b",
          "type": "uint256[2][2]"
        },
        {
          "name": "c",
          "type": "uint256[2]"
        },
        {
          "name": "input",
          "type": "uint256[7]"
        }
      ],
      "name": "spend",
      "outputs": [],
      "payable": true,
      "stateMutability": "payable",
      "type": "function"
    },
    {
      "constant": false,
      "inputs": [
        {
          "name": "to",
          "type": "address"
        },
        {
          "name": "a",
          "type": "uint256[2]"
        },
        {
          "name": "b",
          "type": "uint256[2][2]"
        },
        {
          "name": "c",
          "type": "uint256[2]"
        },
        {
          "name": "input",
          "type": "uint256[4]"
        }
      ],
      "name": "liquidate",
      "outputs": [],
      "payable": true,
      "stateMutability": "payable",
      "type": "function"
    },
    {
      "constant": false,
      "inputs": [
        {
          "name": "a",
          "type": "uint256[2]"
        },
        {
          "name": "b",
          "type": "uint256[2][2]"
        },
        {
          "name": "c",
          "type": "uint256[2]"
        }
      ],
      "name": "challenge",
      "outputs": [],
      "payable": false,
      "stateMutability": "nonpayable",
      "type": "function"
    },
    {
      "constant": false,
      "inputs": [
        {
          "name": "proofHash",
          "type": "bytes32"
        }
      ],
      "name": "commit",
      "outputs": [],
      "payable": false,
      "stateMutability": "nonpayable",
      "type": "function"
    }
  ],
  "bytecode": "0x60806040523480156200001157600080fd5b50604051606080620058ea833981018060405260608110156200003357600080fd5b81019080805190602001909291908051906020019092919080519060200190929190505050826000819055508160018190555080600260006101000a81548173ffffffffffffffffffffffffffffffffffffffff021916908373ffffffffffffffffffffffffffffffffffffffff16021790555050505061583080620000ba6000396000f3fe6080604052600436106100df576000357c010000000000000000000000000000000000000000000000000000000090048063787a08a61161009c578063c5c9c0a211610076578063c5c9c0a214610733578063f14fcbc8146107ca578063f4b9fa7514610805578063fd696b6e1461085c576100df565b8063787a08a61461065b5780637f67df4c1461068657806385de26b7146106d6576100df565b80631210c56d146100e45780631fa41b3f1461026a5780633a4b66f1146103f057806355258f7b1461041b5780635c998527146104885780637255ae7b1461060e575b600080fd5b3480156100f057600080fd5b50610250600480360361018081101561010857600080fd5b8101908080604001906002806020026040519081016040528092919082600260200280828437600081840152601f19601f82011690508083019250505050505091929192908060800190600280602002604051908101604052809291906000905b828210156101bd578382604002016002806020026040519081016040528092919082600260200280828437600081840152601f19601f82011690508083019250505050505081526020019060010190610169565b50505050919291929080604001906002806020026040519081016040528092919082600260200280828437600081840152601f19601f820116905080830192505050505050919291929080608001906004806020026040519081016040528092919082600460200280828437600081840152601f19601f82011690508083019250505050505091929192905050506108a9565b604051808215151515815260200191505060405180910390f35b34801561027657600080fd5b506103d6600480360361018081101561028e57600080fd5b8101908080604001906002806020026040519081016040528092919082600260200280828437600081840152601f19601f82011690508083019250505050505091929192908060800190600280602002604051908101604052809291906000905b82821015610343578382604002016002806020026040519081016040528092919082600260200280828437600081840152601f19601f820116905080830192505050505050815260200190600101906102ef565b50505050919291929080604001906002806020026040519081016040528092919082600260200280828437600081840152601f19601f820116905080830192505050505050919291929080608001906004806020026040519081016040528092919082600460200280828437600081840152601f19601f8201169050808301925050505050509192919290505050610b0e565b604051808215151515815260200191505060405180910390f35b3480156103fc57600080fd5b50610405610d73565b6040518082815260200191505060405180910390f35b61048660048036036101a081101561043257600080fd5b81019080803573ffffffffffffffffffffffffffffffffffffffff16906020019092919080604001909192919290806080019091929192908060400190919291929080608001909192919290505050610d79565b005b34801561049457600080fd5b506105f460048036036101e08110156104ac57600080fd5b8101908080604001906002806020026040519081016040528092919082600260200280828437600081840152601f19601f82011690508083019250505050505091929192908060800190600280602002604051908101604052809291906000905b82821015610561578382604002016002806020026040519081016040528092919082600260200280828437600081840152601f19601f8201169050808301925050505050508152602001906001019061050d565b50505050919291929080604001906002806020026040519081016040528092919082600260200280828437600081840152601f19601f82011690508083019250505050505091929192908060e001906007806020026040519081016040528092919082600760200280828437600081840152601f19601f8201169050808301925050505050509192919290505050610f1c565b604051808215151515815260200191505060405180910390f35b610659600480360361018081101561062557600080fd5b8101908080604001909192919290806080019091929192908060400190919291929080608001909192919290505050611181565b005b34801561066757600080fd5b506106706114dd565b6040518082815260200191505060405180910390f35b34801561069257600080fd5b506106d460048036036101008110156106aa57600080fd5b810190808060400190919291929080608001909192919290806040019091929192905050506114e3565b005b3480156106e257600080fd5b5061070f600480360360208110156106f957600080fd5b8101908080359060200190929190505050611a2a565b6040518082600281111561071f57fe5b60ff16815260200191505060405180910390f35b34801561073f57600080fd5b5061076c6004803603602081101561075657600080fd5b8101908080359060200190929190505050611a4a565b604051808473ffffffffffffffffffffffffffffffffffffffff1673ffffffffffffffffffffffffffffffffffffffff1681526020018360038111156107ae57fe5b60ff168152602001828152602001935050505060405180910390f35b3480156107d657600080fd5b50610803600480360360208110156107ed57600080fd5b8101908080359060200190929190505050611aa1565b005b34801561081157600080fd5b5061081a611c92565b604051808273ffffffffffffffffffffffffffffffffffffffff1673ffffffffffffffffffffffffffffffffffffffff16815260200191505060405180910390f35b6108a760048036036101e081101561087357600080fd5b810190808060400190919291929080608001909192919290806040019091929192908060e001909192919290505050611cb8565b005b60006108b3615535565b60408051908101604052808760006002811015156108cd57fe5b602002015181526020018760016002811015156108e657fe5b602002015181525081600001819052506040805190810160405280604080519081016040528088600060028110151561091b57fe5b6020020151600060028110151561092e57fe5b6020020151815260200188600060028110151561094757fe5b6020020151600160028110151561095a57fe5b60200201518152508152602001604080519081016040528088600160028110151561098157fe5b6020020151600060028110151561099457fe5b602002015181526020018860016002811015156109ad57fe5b602002015160016002811015156109c057fe5b6020020151815250815250816020018190525060408051908101604052808560006002811015156109ed57fe5b60200201518152602001856001600281101515610a0657fe5b6020020151815250816040018190525060606004604051908082528060200260200182016040528015610a485781602001602082028038833980820191505090505b50905060008090505b6004811015610a96578481600481101515610a6857fe5b60200201518282815181101515610a7b57fe5b90602001906020020181815250508080600101915050610a51565b506000610aa38284611e59565b1415610aff577f46d48f0a138fd14dfc4a9086422b1a886a0f02eade5d6abef007754fe4b06bc06040518080602001828103825260228152602001806157bb6022913960400191505060405180910390a1600192505050610b06565b6000925050505b949350505050565b6000610b18615535565b6040805190810160405280876000600281101515610b3257fe5b60200201518152602001876001600281101515610b4b57fe5b6020020151815250816000018190525060408051908101604052806040805190810160405280886000600281101515610b8057fe5b60200201516000600281101515610b9357fe5b60200201518152602001886000600281101515610bac57fe5b60200201516001600281101515610bbf57fe5b602002015181525081526020016040805190810160405280886001600281101515610be657fe5b60200201516000600281101515610bf957fe5b60200201518152602001886001600281101515610c1257fe5b60200201516001600281101515610c2557fe5b602002015181525081525081602001819052506040805190810160405280856000600281101515610c5257fe5b60200201518152602001856001600281101515610c6b57fe5b6020020151815250816040018190525060606004604051908082528060200260200182016040528015610cad5781602001602082028038833980820191505090505b50905060008090505b6004811015610cfb578481600481101515610ccd57fe5b60200201518282815181101515610ce057fe5b90602001906020020181815250508080600101915050610cb6565b506000610d088284611fe1565b1415610d64577f2cef7d724e9df39531c164620567bd12bd8ca7b47fa53317f1078c2f2d5951ce6040518080602001828103825260228152602001806157bb6022913960400191505060405180910390a1600192505050610d6b565b6000925050505b949350505050565b60015481565b3460015481141515610df3576040517f08c379a00000000000000000000000000000000000000000000000000000000081526004018080602001828103825260148152602001807f496e76616c6964207374616b6520616d6f756e7400000000000000000000000081525060200191505060405180910390fd5b610f1486866002806020026040519081016040528092919082600260200280828437600081840152601f19601f82011690508083019250505050505086600280602002604051908101604052809291906000905b82821015610e9b578382604002016002806020026040519081016040528092919082600260200280828437600081840152601f19601f82011690508083019250505050505081526020019060010190610e47565b50505050866002806020026040519081016040528092919082600260200280828437600081840152601f19601f820116905080830192505050505050866004806020026040519081016040528092919082600460200280828437600081840152601f19601f820116905080830192505050505050612169565b505050505050565b6000610f26615535565b6040805190810160405280876000600281101515610f4057fe5b60200201518152602001876001600281101515610f5957fe5b6020020151815250816000018190525060408051908101604052806040805190810160405280886000600281101515610f8e57fe5b60200201516000600281101515610fa157fe5b60200201518152602001886000600281101515610fba57fe5b60200201516001600281101515610fcd57fe5b602002015181525081526020016040805190810160405280886001600281101515610ff457fe5b6020020151600060028110151561100757fe5b6020020151815260200188600160028110151561102057fe5b6020020151600160028110151561103357fe5b60200201518152508152508160200181905250604080519081016040528085600060028110151561106057fe5b6020020151815260200185600160028110151561107957fe5b60200201518152508160400181905250606060076040519080825280602002602001820160405280156110bb5781602001602082028038833980820191505090505b50905060008090505b60078110156111095784816007811015156110db57fe5b602002015182828151811015156110ee57fe5b906020019060200201818152505080806001019150506110c4565b50600061111682846123a6565b1415611172577ff6cb06d2e93a0bf2c44f15288883c84bd0564b45a72d58a8b0793915bd00eb1b6040518080602001828103825260228152602001806157bb6022913960400191505060405180910390a1600192505050611179565b6000925050505b949350505050565b34600154811415156111fb576040517f08c379a00000000000000000000000000000000000000000000000000000000081526004018080602001828103825260148152602001807f496e76616c6964207374616b6520616d6f756e7400000000000000000000000081525060200191505060405180910390fd5b600260009054906101000a900473ffffffffffffffffffffffffffffffffffffffff1673ffffffffffffffffffffffffffffffffffffffff166323b872dd333085600260048110151561124a57fe5b60200201356040518463ffffffff167c0100000000000000000000000000000000000000000000000000000000028152600401808473ffffffffffffffffffffffffffffffffffffffff1673ffffffffffffffffffffffffffffffffffffffff1681526020018373ffffffffffffffffffffffffffffffffffffffff1673ffffffffffffffffffffffffffffffffffffffff1681526020018281526020019350505050602060405180830381600087803b15801561130757600080fd5b505af115801561131b573d6000803e3d6000fd5b505050506040513d602081101561133157600080fd5b810190808051906020019092919050505015156113b6576040517f08c379a00000000000000000000000000000000000000000000000000000000081526004018080602001828103825260188152602001807f646169546f6b656e207472616e73666572206661696c6564000000000000000081525060200191505060405180910390fd5b6114d6856002806020026040519081016040528092919082600260200280828437600081840152601f19601f82011690508083019250505050505085600280602002604051908101604052809291906000905b8282101561145d578382604002016002806020026040519081016040528092919082600260200280828437600081840152601f19601f82011690508083019250505050505081526020019060010190611409565b50505050856002806020026040519081016040528092919082600260200280828437600081840152601f19601f820116905080830192505050505050856004806020026040519081016040528092919082600460200280828437600081840152601f19601f82011690508083019250505050505061252e565b5050505050565b60005481565b60006115cd846002806020026040519081016040528092919082600260200280828437600081840152601f19601f82011690508083019250505050505084600280602002604051908101604052809291906000905b8282101561158c578382604002016002806020026040519081016040528092919082600260200280828437600081840152601f19601f82011690508083019250505050505081526020019060010190611538565b50505050846002806020026040519081016040528092919082600260200280828437600081840152601f19601f82011690508083019250505050505061272e565b90506000600360008381526020019081526020016000209050600060038111156115f357fe5b8160000160149054906101000a900460ff16600381111561161057fe5b14151515611669576040517f08c379a00000000000000000000000000000000000000000000000000000000081526004018080602001828103825260288152602001806157dd6028913960400191505060405180910390fd5b42600054826001015401101515156116cc576040517f08c379a000000000000000000000000000000000000000000000000000000000815260040180806020018281038252602181526020018061579a6021913960400191505060405180910390fd5b600160038111156116d957fe5b8160000160149054906101000a900460ff1660038111156116f657fe5b14156117ea576117e5856002806020026040519081016040528092919082600260200280828437600081840152601f19601f82011690508083019250505050505085600280602002604051908101604052809291906000905b828210156117a3578382604002016002806020026040519081016040528092919082600260200280828437600081840152601f19601f8201169050808301925050505050508152602001906001019061174f565b50505050856002806020026040519081016040528092919082600260200280828437600081840152601f19601f8201169050808301925050505050508561280b565b611a23565b600260038111156117f757fe5b8160000160149054906101000a900460ff16600381111561181457fe5b141561190857611903856002806020026040519081016040528092919082600260200280828437600081840152601f19601f82011690508083019250505050505085600280602002604051908101604052809291906000905b828210156118c1578382604002016002806020026040519081016040528092919082600260200280828437600081840152601f19601f8201169050808301925050505050508152602001906001019061186d565b50505050856002806020026040519081016040528092919082600260200280828437600081840152601f19601f820116905080830192505050505050856129a6565b611a22565b60038081111561191457fe5b8160000160149054906101000a900460ff16600381111561193157fe5b1415611a2157611a20856002806020026040519081016040528092919082600260200280828437600081840152601f19601f82011690508083019250505050505085600280602002604051908101604052809291906000905b828210156119de578382604002016002806020026040519081016040528092919082600260200280828437600081840152601f19601f8201169050808301925050505050508152602001906001019061198a565b50505050856002806020026040519081016040528092919082600260200280828437600081840152601f19601f82011690508083019250505050505085612b41565b5b5b5b5050505050565b60046020528060005260406000206000915054906101000a900460ff1681565b60036020528060005260406000206000915090508060000160009054906101000a900473ffffffffffffffffffffffffffffffffffffffff16908060000160149054906101000a900460ff16908060010154905083565b600060036000838152602001908152602001600020905060006003811115611ac557fe5b8160000160149054906101000a900460ff166003811115611ae257fe5b14151515611b58576040517f08c379a00000000000000000000000000000000000000000000000000000000081526004018080602001828103825260148152602001807f70726f6f664861736820697320696e76616c696400000000000000000000000081525060200191505060405180910390fd5b42600054826001015401101515611bd7576040517f08c379a00000000000000000000000000000000000000000000000000000000081526004018080602001828103825260118152602001807f4e6f7465206973207374696c6c20686f7400000000000000000000000000000081525060200191505060405180910390fd5b60016003811115611be457fe5b8160000160149054906101000a900460ff166003811115611c0157fe5b1415611c1557611c1082612cdc565b611c8e565b60026003811115611c2257fe5b8160000160149054906101000a900460ff166003811115611c3f57fe5b1415611c5357611c4e82612f45565b611c8d565b600380811115611c5f57fe5b8160000160149054906101000a900460ff166003811115611c7c57fe5b1415611c8c57611c8b826134bd565b5b5b5b5050565b600260009054906101000a900473ffffffffffffffffffffffffffffffffffffffff1681565b3460015481141515611d32576040517f08c379a00000000000000000000000000000000000000000000000000000000081526004018080602001828103825260148152602001807f496e76616c6964207374616b6520616d6f756e7400000000000000000000000081525060200191505060405180910390fd5b611e52856002806020026040519081016040528092919082600260200280828437600081840152601f19601f82011690508083019250505050505085600280602002604051908101604052809291906000905b82821015611dd9578382604002016002806020026040519081016040528092919082600260200280828437600081840152601f19601f82011690508083019250505050505081526020019060010190611d85565b50505050856002806020026040519081016040528092919082600260200280828437600081840152601f19601f820116905080830192505050505050856007806020026040519081016040528092919082600760200280828437600081840152601f19601f8201169050808301925050505050506138c4565b5050505050565b6000807f30644e72e131a029b85045b68181585d2833e84879b9709143e1f593f00000019050611e8761556a565b611e8f613ac7565b90508060800151516001865101141515611ea857600080fd5b611eb06155b3565b6040805190810160405280600081526020016000815250905060008090505b8651811015611f5457838782815181101515611ee757fe5b90602001906020020151101515611efd57600080fd5b611f4582611f40856080015160018501815181101515611f1957fe5b906020019060200201518a85815181101515611f3157fe5b9060200190602002015161400a565b6140a6565b91508080600101915050611ecf565b50611f7b8183608001516000815181101515611f6c57fe5b906020019060200201516140a6565b9050611fc185600001518660200151611f9384614163565b8560400151611fa58a60400151614163565b8760600151611fb78960000151614163565b89602001516141ff565b1515611fd35760019350505050611fdb565b600093505050505b92915050565b6000807f30644e72e131a029b85045b68181585d2833e84879b9709143e1f593f0000001905061200f61556a565b612017614383565b9050806080015151600186510114151561203057600080fd5b6120386155b3565b6040805190810160405280600081526020016000815250905060008090505b86518110156120dc5783878281518110151561206f57fe5b9060200190602002015110151561208557600080fd5b6120cd826120c88560800151600185018151811015156120a157fe5b906020019060200201518a858151811015156120b957fe5b9060200190602002015161400a565b6140a6565b91508080600101915050612057565b5061210381836080015160008151811015156120f457fe5b906020019060200201516140a6565b90506121498560000151866020015161211b84614163565b856040015161212d8a60400151614163565b876060015161213f8960000151614163565b89602001516141ff565b151561215b5760019350505050612163565b600093505050505b92915050565b600061217685858561272e565b90506060600160040160ff166040519080825280602002602001820160405280156121b05781602001602082028038833980820191505090505b50905060008090505b600460ff168160ff16101561220a57838160ff166004811015156121d957fe5b6020020151828260ff168151811015156121ef57fe5b906020019060200201818152505080806001019150506121b9565b508673ffffffffffffffffffffffffffffffffffffffff1681600460ff1681518110151561223457fe5b90602001906020020181815250506080604051908101604052803373ffffffffffffffffffffffffffffffffffffffff16815260200160038081111561227657fe5b8152602001428152602001828152506003600084815260200190815260200160002060008201518160000160006101000a81548173ffffffffffffffffffffffffffffffffffffffff021916908373ffffffffffffffffffffffffffffffffffffffff16021790555060208201518160000160146101000a81548160ff0219169083600381111561230357fe5b021790555060408201518160010155606082015181600201908051906020019061232e9291906155cd565b509050507f2a8c97f42d106ad000d498a1b6bf713a9365c4c1491e66fddb022f7ed07ab9343383604051808373ffffffffffffffffffffffffffffffffffffffff1673ffffffffffffffffffffffffffffffffffffffff1681526020018281526020019250505060405180910390a150505050505050565b6000807f30644e72e131a029b85045b68181585d2833e84879b9709143e1f593f000000190506123d461556a565b6123dc6148c6565b905080608001515160018651011415156123f557600080fd5b6123fd6155b3565b6040805190810160405280600081526020016000815250905060008090505b86518110156124a15783878281518110151561243457fe5b9060200190602002015110151561244a57600080fd5b6124928261248d85608001516001850181518110151561246657fe5b906020019060200201518a8581518110151561247e57fe5b9060200190602002015161400a565b6140a6565b9150808060010191505061241c565b506124c881836080015160008151811015156124b957fe5b906020019060200201516140a6565b905061250e856000015186602001516124e084614163565b85604001516124f28a60400151614163565b87606001516125048960000151614163565b89602001516141ff565b15156125205760019350505050612528565b600093505050505b92915050565b600061253b85858561272e565b90506060600460405190808252806020026020018201604052801561256f5781602001602082028038833980820191505090505b50905060008090505b600460ff168160ff1610156125c957838160ff1660048110151561259857fe5b6020020151828260ff168151811015156125ae57fe5b90602001906020020181815250508080600101915050612578565b506080604051908101604052803373ffffffffffffffffffffffffffffffffffffffff168152602001600160038111156125ff57fe5b8152602001428152602001828152506003600084815260200190815260200160002060008201518160000160006101000a81548173ffffffffffffffffffffffffffffffffffffffff021916908373ffffffffffffffffffffffffffffffffffffffff16021790555060208201518160000160146101000a81548160ff0219169083600381111561268c57fe5b02179055506040820151816001015560608201518160020190805190602001906126b79291906155cd565b509050507f2a8c97f42d106ad000d498a1b6bf713a9365c4c1491e66fddb022f7ed07ab9343383604051808373ffffffffffffffffffffffffffffffffffffffff1673ffffffffffffffffffffffffffffffffffffffff1681526020018281526020019250505060405180910390a1505050505050565b60008383836040516020018084600260200280838360005b83811015612761578082015181840152602081019050612746565b505050509050018360026000925b818410156127b55782846020020151600260200280838360005b838110156127a4578082015181840152602081019050612789565b50505050905001926001019261276f565b9250505082600260200280838360005b838110156127e05780820151818401526020810190506127c5565b5050505090500193505050506040516020818303038152906040528051906020012090509392505050565b600060036000838152602001908152602001600020905061282a61561a565b60008090505b600460ff1681101561287c57826002018181548110151561284d57fe5b9060005260206000200154828260048110151561286657fe5b6020020181815250508080600101915050612830565b5061288986868684610b0e565b15156129945760036000848152602001908152602001600020600080820160006101000a81549073ffffffffffffffffffffffffffffffffffffffff02191690556000820160146101000a81549060ff021916905560018201600090556002820160006128f6919061563d565b50503373ffffffffffffffffffffffffffffffffffffffff166108fc6001549081150290604051600060405180830381858888f19350505050158015612940573d6000803e3d6000fd5b503373ffffffffffffffffffffffffffffffffffffffff167f12985fda7f0b862728bca0856b151f93320ceff10cbf6a49d7f294ea0aed8151846040518082815260200191505060405180910390a261299e565b61299d83612cdc565b5b505050505050565b60006003600083815260200190815260200160002090506129c561565e565b60008090505b600760ff16811015612a175782600201818154811015156129e857fe5b90600052602060002001548282600781101515612a0157fe5b60200201818152505080806001019150506129cb565b50612a2486868684610f1c565b1515612b2f5760036000848152602001908152602001600020600080820160006101000a81549073ffffffffffffffffffffffffffffffffffffffff02191690556000820160146101000a81549060ff02191690556001820160009055600282016000612a91919061563d565b50503373ffffffffffffffffffffffffffffffffffffffff166108fc6001549081150290604051600060405180830381858888f19350505050158015612adb573d6000803e3d6000fd5b503373ffffffffffffffffffffffffffffffffffffffff167f12985fda7f0b862728bca0856b151f93320ceff10cbf6a49d7f294ea0aed8151846040518082815260200191505060405180910390a2612b39565b612b3883612f45565b5b505050505050565b6000600360008381526020019081526020016000209050612b6061561a565b60008090505b600460ff16811015612bb2578260020181815481101515612b8357fe5b90600052602060002001548282600481101515612b9c57fe5b6020020181815250508080600101915050612b66565b50612bbf868686846108a9565b1515612cca5760036000848152602001908152602001600020600080820160006101000a81549073ffffffffffffffffffffffffffffffffffffffff02191690556000820160146101000a81549060ff02191690556001820160009055600282016000612c2c919061563d565b50503373ffffffffffffffffffffffffffffffffffffffff166108fc6001549081150290604051600060405180830381858888f19350505050158015612c76573d6000803e3d6000fd5b503373ffffffffffffffffffffffffffffffffffffffff167f12985fda7f0b862728bca0856b151f93320ceff10cbf6a49d7f294ea0aed8151846040518082815260200191505060405180910390a2612cd4565b612cd3836134bd565b5b505050505050565b60006003600083815260200190815260200160002090506000612d37826002016000815481101515612d0a57fe5b9060005260206000200154836002016001815481101515612d2757fe5b9060005260206000200154614f68565b905060006002811115612d4657fe5b6004600083815260200190815260200160002060009054906101000a900460ff166002811115612d7257fe5b141515612de7576040517f08c379a00000000000000000000000000000000000000000000000000000000081526004018080602001828103825260178152602001807f4e6f74652077617320616c7265616479206d696e74656400000000000000000081525060200191505060405180910390fd5b60016004600083815260200190815260200160002060006101000a81548160ff02191690836002811115612e1757fe5b021790555060036000848152602001908152602001600020600080820160006101000a81549073ffffffffffffffffffffffffffffffffffffffff02191690556000820160146101000a81549060ff02191690556001820160009055600282016000612e83919061563d565b50508160000160009054906101000a900473ffffffffffffffffffffffffffffffffffffffff1673ffffffffffffffffffffffffffffffffffffffff166108fc6001549081150290604051600060405180830381858888f19350505050158015612ef1573d6000803e3d6000fd5b507f91d2faa002479f8dc4f20862402db3dba2ebe927031674997d38e5b70d9877e781600160405180838152602001826002811115612f2c57fe5b60ff1681526020019250505060405180910390a1505050565b6000600360008381526020019081526020016000209050612f64615681565b612fbf82600201805480602002602001604051908101604052809291908181526020018280548015612fb557602002820191906000526020600020905b815481526020019060010190808311612fa1575b50505050506150c6565b905060016002811115612fce57fe5b60046000836000600381101515612fe157fe5b6020020151815260200190815260200160002060009054906101000a900460ff16600281111561300d57fe5b141515613065576040517f08c379a00000000000000000000000000000000000000000000000000000000081526004018080602001828103825260278152602001806157736027913960400191505060405180910390fd5b6000600281111561307257fe5b6004600083600160038110151561308557fe5b6020020151815260200190815260200160002060009054906101000a900460ff1660028111156130b157fe5b141515613126576040517f08c379a000000000000000000000000000000000000000000000000000000000815260040180806020018281038252601e8152602001807f6f7574707574206e6f74653120697320616c7265616479206d696e746564000081525060200191505060405180910390fd5b6000600281111561313357fe5b6004600083600260038110151561314657fe5b6020020151815260200190815260200160002060009054906101000a900460ff16600281111561317257fe5b1415156131e7576040517f08c379a000000000000000000000000000000000000000000000000000000000815260040180806020018281038252601e8152602001807f6f7574707574206e6f74653220697320616c7265616479206d696e746564000081525060200191505060405180910390fd5b6002600460008360006003811015156131fc57fe5b6020020151815260200190815260200160002060006101000a81548160ff0219169083600281111561322a57fe5b021790555060016004600083600160038110151561324457fe5b6020020151815260200190815260200160002060006101000a81548160ff0219169083600281111561327257fe5b021790555060016004600083600260038110151561328c57fe5b6020020151815260200190815260200160002060006101000a81548160ff021916908360028111156132ba57fe5b021790555060036000848152602001908152602001600020600080820160006101000a81549073ffffffffffffffffffffffffffffffffffffffff02191690556000820160146101000a81549060ff02191690556001820160009055600282016000613326919061563d565b50508160000160009054906101000a900473ffffffffffffffffffffffffffffffffffffffff1673ffffffffffffffffffffffffffffffffffffffff166108fc6001549081150290604051600060405180830381858888f19350505050158015613394573d6000803e3d6000fd5b507f91d2faa002479f8dc4f20862402db3dba2ebe927031674997d38e5b70d9877e78160006003811015156133c557fe5b60200201516002604051808381526020018260028111156133e257fe5b60ff1681526020019250505060405180910390a17f91d2faa002479f8dc4f20862402db3dba2ebe927031674997d38e5b70d9877e781600160038110151561342657fe5b602002015160016040518083815260200182600281111561344357fe5b60ff1681526020019250505060405180910390a17f91d2faa002479f8dc4f20862402db3dba2ebe927031674997d38e5b70d9877e781600260038110151561348757fe5b60200201516001604051808381526020018260028111156134a457fe5b60ff1681526020019250505060405180910390a1505050565b600060036000838152602001908152602001600020905060006135188260020160008154811015156134eb57fe5b906000526020600020015483600201600181548110151561350857fe5b9060005260206000200154614f68565b90506001600281111561352757fe5b6004600083815260200190815260200160002060009054906101000a900460ff16600281111561355357fe5b1415156135ab576040517f08c379a00000000000000000000000000000000000000000000000000000000081526004018080602001828103825260278152602001806157736027913960400191505060405180910390fd5b60026004600083815260200190815260200160002060006101000a81548160ff021916908360028111156135db57fe5b02179055508160000160009054906101000a900473ffffffffffffffffffffffffffffffffffffffff1673ffffffffffffffffffffffffffffffffffffffff166108fc6001549081150290604051600060405180830381858888f1935050505015801561364c573d6000803e3d6000fd5b50600082600201600460ff1681548110151561366457fe5b90600052602060002001549050600083600201600281548110151561368557fe5b9060005260206000200154905060036000868152602001908152602001600020600080820160006101000a81549073ffffffffffffffffffffffffffffffffffffffff02191690556000820160146101000a81549060ff021916905560018201600090556002820160006136f9919061563d565b5050600260009054906101000a900473ffffffffffffffffffffffffffffffffffffffff1673ffffffffffffffffffffffffffffffffffffffff1663a9059cbb83836040518363ffffffff167c0100000000000000000000000000000000000000000000000000000000028152600401808373ffffffffffffffffffffffffffffffffffffffff1673ffffffffffffffffffffffffffffffffffffffff16815260200182815260200192505050602060405180830381600087803b1580156137c057600080fd5b505af11580156137d4573d6000803e3d6000fd5b505050506040513d60208110156137ea57600080fd5b8101908080519060200190929190505050151561386f576040517f08c379a00000000000000000000000000000000000000000000000000000000081526004018080602001828103825260188152602001807f646169546f6b656e207472616e73666572206661696c6564000000000000000081525060200191505060405180910390fd5b7f91d2faa002479f8dc4f20862402db3dba2ebe927031674997d38e5b70d9877e7836002604051808381526020018260028111156138a957fe5b60ff1681526020019250505060405180910390a15050505050565b60006138d185858561272e565b90506060600760ff166040519080825280602002602001820160405280156139085781602001602082028038833980820191505090505b50905060008090505b600760ff168160ff16101561396257838160ff1660078110151561393157fe5b6020020151828260ff1681518110151561394757fe5b90602001906020020181815250508080600101915050613911565b506080604051908101604052803373ffffffffffffffffffffffffffffffffffffffff1681526020016002600381111561399857fe5b8152602001428152602001828152506003600084815260200190815260200160002060008201518160000160006101000a81548173ffffffffffffffffffffffffffffffffffffffff021916908373ffffffffffffffffffffffffffffffffffffffff16021790555060208201518160000160146101000a81548160ff02191690836003811115613a2557fe5b0217905550604082015181600101556060820151816002019080519060200190613a509291906155cd565b509050507f2a8c97f42d106ad000d498a1b6bf713a9365c4c1491e66fddb022f7ed07ab9343383604051808373ffffffffffffffffffffffffffffffffffffffff1673ffffffffffffffffffffffffffffffffffffffff1681526020018281526020019250505060405180910390a1505050505050565b613acf61556a565b60408051908101604052807f08e8fd47f4f47ca3bf35d3549cc9cbc9ee4980e7555623215f325533055db98481526020017effd309565aa419ab4d5b0b1356a42cbd79a90b7bf5842ec7d77fbc903ec48c8152508160000181905250604080519081016040528060408051908101604052807f191aea51714d75793ebce74e92140ff5b9a72b2b21db0e7d38a9a6f6ec561e2781526020017f125e351f64102e5ed7413e9e1ae39fcda03f94b4952ae5024c1a979032fe17a6815250815260200160408051908101604052807f2a38351dc02090cf4c992e0e79c380add7cf09e2efc156ec8638c44cb2659ae581526020017f2057aa937ac295a24afe5fe8f41bf3b726c1e9a747a3d82112eb6f21a7249e348152508152508160200181905250604080519081016040528060408051908101604052807f1596ddc83d27b9fc3e437ecfce0cfb1183aa2ec3218fe47b0dc87260e58cec0181526020017f1d1caa5d4c2f3eaf4e4a1c5834a843fa144f4ee7543144ab36cbed2d295b34b4815250815260200160408051908101604052807f082e72deb2bdb3f1c744d2faed40b40a8e0095857798f5271c975574e461682381526020017f22da6530029c6e8b34899b20fe962bcebae94f93f737268376261dd6710badc18152508152508160400181905250604080519081016040528060408051908101604052807f155465dc68c4a17a3844dca002ef1b0b361552491432dff1103ef28d66548afd81526020017f26a9b5195a4b0a709767168cfb17ffe6b006671136407b9291f20eab14133250815250815260200160408051908101604052807f15d2db06487070c5abfe868a56d6db291353a00e87a7649355e47cc04a72d94381526020017f2e8c476822f4f14713679e51ec81f3ecd7a4e058b0a8210792c16b9c5237de8981525081525081606001819052506005604051908082528060200260200182016040528015613db557816020015b613da26156a4565b815260200190600190039081613d9a5790505b50816080018190525060408051908101604052807f045a076654acaecf344e8d6baeac13d52868fc24c9b07a948630a01a0403307f81526020017f08781c8e5717b83d3841478ec85437ce512b9db47bc88e2d9deff51f4cc5233581525081608001516000815181101515613e2657fe5b9060200190602002018190525060408051908101604052807f030852bafbd1dca04aa84803d07f6210ab89f1b76ddecc2f530fc5bdcd9115d281526020017f134807c24cc6469a59ce3ab93874d819f1e471f432bc0381ecede614c0dfc99981525081608001516001815181101515613e9b57fe5b9060200190602002018190525060408051908101604052807f229b98cb8f8aeabfd356cd7bb196730fce607346d63bb1947fed7dabdcea5e7581526020017f1edebbc7d906f9fff4f4f68ac6830e02a8850468920c597e7d121b88f8cbc3df81525081608001516002815181101515613f1057fe5b9060200190602002018190525060408051908101604052807f1396ecbae3a957f73a2becd5490d94ca78d8506c6970fb7c52b4245c3f66775481526020017f2667d1e395f4c72043b442b51ba566c5d690c7d4cf03f40f7ed37ae9f3b2e70e81525081608001516003815181101515613f8557fe5b9060200190602002018190525060408051908101604052807f10dead365b530b87ec9aadc7ac7aa5dc2501f88a9c0dcac8f23290d6f087461281526020017f0ec800383d251bc69c0d9add8bd57daec637178b1a0663ef5b0362c545709c0b81525081608001516004815181101515613ffa57fe5b9060200190602002018190525090565b6140126155b3565b61401a6156be565b836000015181600060038110151561402e57fe5b602002018181525050836020015181600160038110151561404b57fe5b6020020181815250508281600260038110151561406457fe5b6020020181815250506000606083608084600060076107d05a03f19050806000811461408f57614091565bfe5b5080151561409e57600080fd5b505092915050565b6140ae6155b3565b6140b661561a565b83600001518160006004811015156140ca57fe5b60200201818152505083602001518160016004811015156140e757fe5b602002018181525050826000015181600260048110151561410457fe5b602002018181525050826020015181600360048110151561412157fe5b602002018181525050600060608360c084600060066107d05a03f19050806000811461414c5761414e565bfe5b5080151561415b57600080fd5b505092915050565b61416b6155b3565b60007f30644e72e131a029b85045b68181585d97816a916871ca8d3c208c16d87cfd479050600083600001511480156141a8575060008360200151145b156141cc5760408051908101604052806000815260200160008152509150506141fa565b6040805190810160405280846000015181526020018285602001518115156141f057fe5b0683038152509150505b919050565b60006060600460405190808252806020026020018201604052801561423e57816020015b61422b6156a4565b8152602001906001900390816142235790505b5090506060600460405190808252806020026020018201604052801561427e57816020015b61426b6156e1565b8152602001906001900390816142635790505b5090508a82600081518110151561429157fe5b90602001906020020181905250888260018151811015156142ae57fe5b90602001906020020181905250868260028151811015156142cb57fe5b90602001906020020181905250848260038151811015156142e857fe5b906020019060200201819052508981600081518110151561430557fe5b906020019060200201819052508781600181518110151561432257fe5b906020019060200201819052508581600281518110151561433f57fe5b906020019060200201819052508381600381518110151561435c57fe5b9060200190602002018190525061437382826151c9565b9250505098975050505050505050565b61438b61556a565b60408051908101604052807f2d230435ed81e89d8e0a48208b7fcc9330775c37260245ebbf62b747ab3896b181526020017f27723277bbf42d9ff40ff2c7eca1318c09729cfe72d68a1ece45be7e7a91252e8152508160000181905250604080519081016040528060408051908101604052807f227b38a6274edac4ce1b114d38dff05f37a3f27d630f0659a916d2340986192481526020017f266f2a8ece7d869b125214fa02eeb37082b4cf1ff6cc3a21eeeefc287b3a89ba815250815260200160408051908101604052807f092103cce1d4e38aa89dd83a7fb490632fab17549e11458b3c78c5c498604a8c81526020017e4e93482d4333208b2455d0bdc57dcf08f56c94952acf0102e57cabe16330918152508152508160200181905250604080519081016040528060408051908101604052807f08fc13c656dbdd7eeaac226e82682b9e1dbc98042089d479cb24d98cf48f4cbf81526020017f195ec16c3c6581a4809bbf7c88e4293fb2a8ca075a708d583578d49363ebef9e815250815260200160408051908101604052807f1ef77e3ce1971994ee685b0d49658834358d8849762be160c11830c1a0c5892681526020017f28cca35656c2ba7ab4d94470df48b8ed6c337ae59a90c710f77ad4c421ec8bf08152508152508160400181905250604080519081016040528060408051908101604052807f02de3487c578091d38763c53b7a140c6aba4e26b9445055a890319d6ca0b39c181526020017f2a467f8c8afdf9dc7e29e706a92a743f23dfc2d2443834b63d91991c13131114815250815260200160408051908101604052807f0a0d152a3028b4c3ea719e856c541ed2666967c3d93fbacbf2f0ee69d96843bc81526020017f1edc8dd0b5afa5c2bd467f72bfcbb1cff2eb5eeb4ac1bdf65e4debfd10f437c78152508152508160600181905250600560405190808252806020026020018201604052801561467157816020015b61465e6156a4565b8152602001906001900390816146565790505b50816080018190525060408051908101604052807f01d06e6803123241d6d5a86720bf67c05ae719e0da4ed2bb3245158939665b8581526020017f295e9ddd9ed93bcf546215fb99716454cb3e5457dc2eed299a309b13c03168b4815250816080015160008151811015156146e257fe5b9060200190602002018190525060408051908101604052807f179d3c0c35c9529e03dea9736a1003a5d7d47696a15f66b55efaa4fe252b9cf281526020017f10cbeda377e8d21311326fac86b119a7afd0ecd92a9008a8a6fb477f36e61fd58152508160800151600181518110151561475757fe5b9060200190602002018190525060408051908101604052807f0a858384e95aac8721d737da3f82c4baa72de63c5f4d03947fe1cd496635d9a081526020017f2550920274f4b612b19b2b7e8515fee246930d8d915403da5ad6fb9fcc6b57ef815250816080015160028151811015156147cc57fe5b9060200190602002018190525060408051908101604052807f0cc2dedee68da121243b09bdae6c7ef95e5570aa4151722157e8d90bcffdb0ca81526020017f0cdd0f9be81b131787ccb479894197f0949d1a30b92029242dd1f6bc6f9509c68152508160800151600381518110151561484157fe5b9060200190602002018190525060408051908101604052807f0272500928eb81b401bb5a6ec03640fd5e0cd8a63f5eaec768bc7bf950ab4df481526020017f2ccff81ae6c5aad64bc96e30751d64e080c02a03c5cc2bba1c92d75366be99c8815250816080015160048151811015156148b657fe5b9060200190602002018190525090565b6148ce61556a565b60408051908101604052807f1a98ac48fe2018f84f58a2906156cedd87059554be66822c8443397426bc62a781526020017f03db6d4b9d0c6621e37c5f2329a2212b4ddc29f46607e9a80d5941676e25edb78152508160000181905250604080519081016040528060408051908101604052807f1b735ac6d76ea2df5007c6388a1d2607b799e35c30e9519da33953da9d43db6f81526020017f0c2a204b6cf7546ebc106470781153a8f110a61e2ab8ecd99ac77cb09b922ae1815250815260200160408051908101604052807f180dd416bf72c1188ecdf599eee773f5b4e303e9efe35eb04e33f277e952f5be81526020017f1e35b197f94262f5fe64d0fe32af60ca51449435f6bf941df65b0d2a2942f6f78152508152508160200181905250604080519081016040528060408051908101604052807f26f0cdc4bf30d13dc2cf6367e49445fc59abcba315def5e1b3729af927e6a6c581526020017f065bd09ff773ec638084cf183c96d3178d3d5fd44206a7f9b6c8aa72b3dc52ac815250815260200160408051908101604052807f15d1ad4691023d57db5a06ce69f081fa9e61d176e8c9a40e4a446c27b17291ae81526020017f2b41d1b082947fff6fd5a5df399e59d9440d1faa701e4768ad8a460fd41dbde28152508152508160400181905250604080519081016040528060408051908101604052807f2c4a26f13a3b4888403d5b917ca0b586a2f708955a89d25b3f5f75308d84513581526020017f208605906c040f4aefde123c8939f8417ef0774f59c13dd08ffdb1248f78e84c815250815260200160408051908101604052807f0b7695268fa677103881aa934f7e45ac4ed626c33390477b851bb3ce6ee146dd81526020017f2f2fcdb0f059b6270527c5d46e3eb1af9f7463ab1ed58438c42187aa094055fc81525081525081606001819052506008604051908082528060200260200182016040528015614bb557816020015b614ba26156a4565b815260200190600190039081614b9a5790505b50816080018190525060408051908101604052807f0a65dc2d653564f4ea5a987bb92725e16860f9c2ed63f26663e4ea1dd201495581526020017f05edc87f90a596723787e36afc4da0d32c02f77788610349b4f875da59cc45d481525081608001516000815181101515614c2657fe5b9060200190602002018190525060408051908101604052807f1ac7c460c4d1553f7f303d1f384fbfb9fbfc5a14e963ed3ae75f14ae561fea8381526020017f16ea6aeb7d297d3e924d9802151cfa2f24b72e23c19dcf508930f5c7be2d2d0a81525081608001516001815181101515614c9b57fe5b9060200190602002018190525060408051908101604052807f09262c81daea9019fa2a153007bc7aefda07852ba846f177e3b5259525c68cb881526020017f1a1e2e4c0fc4ffb7f2423043d83236654c84a51b2240c33ac609b15bc684c58781525081608001516002815181101515614d1057fe5b9060200190602002018190525060408051908101604052807f1dcf0c809f804ea9e2cedb16407dd89f5af0f0b7ab211628fe51c4a9d06f3eef81526020017f0d39d3271f58f96eec3799622b14c869d76f421aa0c0a657d27f015fa6939a8781525081608001516003815181101515614d8557fe5b9060200190602002018190525060408051908101604052807f09ee43f5e8cdbe9d12fa57ae149ebde674532a40e0462f3b53b2e7a00768a28081526020017f13f3a99dff58fa02e9b4b636e12708f61b8c8acfa176b9589d954310b4d4305d81525081608001516004815181101515614dfa57fe5b9060200190602002018190525060408051908101604052807e60f976268eb38393a3c16ca02613d04deb4873399b911ba31e9d3c9f83a40981526020017f25610bd7ac6c62d0a575176f60f461b45852a7667c82bb0cb90654ab442e660f81525081608001516005815181101515614e6e57fe5b9060200190602002018190525060408051908101604052807f220b9534234001a50b76a0240ff70316868b988596137240f9c8c2aa2b953d4781526020017f0267d3165a1bf80e633dd90bce7fd86c95913242de0b7ecb62824756cfff3c0f81525081608001516006815181101515614ee357fe5b9060200190602002018190525060408051908101604052807f19bf56a5653c8988330352dd2cb1d594594c872bb8932961b45390badec2275181526020017f13cfe41af18911a33c1bc1fe167df2aa75476b439abe3c488eff21c2d70c29e181525081608001516007815181101515614f5857fe5b9060200190602002018190525090565b6000808360010290506000836001029050606060206040519080825280601f01601f191660200182016040528015614faf5781602001600182028038833980820191505090505b50905060008090505b60108110156150af578381601081101515614fcf57fe5b1a7f010000000000000000000000000000000000000000000000000000000000000002828281518110151561500057fe5b9060200101907effffffffffffffffffffffffffffffffffffffffffffffffffffffffffffff1916908160001a905350828160108110151561503e57fe5b1a7f010000000000000000000000000000000000000000000000000000000000000002828260100181518110151561507257fe5b9060200101907effffffffffffffffffffffffffffffffffffffffffffffffffffffffffffff1916908160001a9053508080600101915050614fb8565b506150bb81600061545c565b935050505092915050565b6150ce615681565b6151088260008151811015156150e057fe5b906020019060200201518360018151811015156150f957fe5b90602001906020020151614f68565b81600060038110151561511757fe5b60200201818152505061515a82600281518110151561513257fe5b9060200190602002015183600381518110151561514b57fe5b90602001906020020151614f68565b81600160038110151561516957fe5b6020020181815250506151ac82600481518110151561518457fe5b9060200190602002015183600581518110151561519d57fe5b90602001906020020151614f68565b8160026003811015156151bb57fe5b602002018181525050919050565b6000815183511415156151db57600080fd5b600083519050600060068202905060608160405190808252806020026020018201604052801561521a5781602001602082028038833980820191505090505b50905060008090505b838110156153f857868181518110151561523957fe5b9060200190602002015160000151826000600684020181518110151561525b57fe5b9060200190602002018181525050868181518110151561527757fe5b9060200190602002015160200151826001600684020181518110151561529957fe5b906020019060200201818152505085818151811015156152b557fe5b906020019060200201516000015160006002811015156152d157fe5b602002015182600260068402018151811015156152ea57fe5b9060200190602002018181525050858181518110151561530657fe5b9060200190602002015160000151600160028110151561532257fe5b6020020151826003600684020181518110151561533b57fe5b9060200190602002018181525050858181518110151561535757fe5b9060200190602002015160200151600060028110151561537357fe5b6020020151826004600684020181518110151561538c57fe5b906020019060200201818152505085818151811015156153a857fe5b906020019060200201516020015160016002811015156153c457fe5b602002015182600560068402018151811015156153dd57fe5b90602001906020020181815250508080600101915050615223565b50615401615708565b60006020826020860260208601600060086107d05a03f1905080600081146154285761542a565bfe5b5080151561543757600080fd5b600082600060018110151561544857fe5b602002015114159550505050505092915050565b600080600090505b602081101561552e576008810260ff7f010000000000000000000000000000000000000000000000000000000000000002858386018151811015156154a557fe5b9060200101517f010000000000000000000000000000000000000000000000000000000000000090047f010000000000000000000000000000000000000000000000000000000000000002167effffffffffffffffffffffffffffffffffffffffffffffffffffffffffffff1916908060020a8204915050821791508080600101915050615464565b5092915050565b6101006040519081016040528061554a6156a4565b81526020016155576156e1565b81526020016155646156a4565b81525090565b6101e06040519081016040528061557f6156a4565b815260200161558c6156e1565b81526020016155996156e1565b81526020016155a66156e1565b8152602001606081525090565b604080519081016040528060008152602001600081525090565b828054828255906000526020600020908101928215615609579160200282015b828111156156085782518255916020019190600101906155ed565b5b509050615616919061572b565b5090565b608060405190810160405280600490602082028038833980820191505090505090565b508054600082559060005260206000209081019061565b919061572b565b50565b60e060405190810160405280600790602082028038833980820191505090505090565b606060405190810160405280600390602082028038833980820191505090505090565b604080519081016040528060008152602001600081525090565b606060405190810160405280600390602082028038833980820191505090505090565b6080604051908101604052806156f5615750565b8152602001615702615750565b81525090565b602060405190810160405280600190602082028038833980820191505090505090565b61574d91905b80821115615749576000816000905550600101615731565b5090565b90565b604080519081016040528060029060208202803883398082019150509050509056fe4e6f74652069732065697468657220696e76616c6964206f7220616c7265616479207370656e744e6f74652063616e6e6f74206265206368616c6c656e67656420616e796d6f72655472616e73616374696f6e207375636365737366756c6c792076657269666965642e436f72726573706f6e64696e672068617368206f662070726f6f6620646f65736e74206578697374a165627a7a72305820180a51ca66658c797a9d6407f19cc5b7d069b2381eb6a96fb75f493c6e07dec30029",
  "source": "pragma solidity ^0.5.2;\n\nimport \"@openzeppelin/contracts/token/ERC20/ERC20.sol\";\nimport \"./MintNotes.sol\";\nimport \"./SpendNotes.sol\";\nimport \"./LiquidateNotes.sol\";\n\n\ncontract ZkDai is MintNotes, SpendNotes, LiquidateNotes {\n\n  modifier validStake(uint256 _stake)\n  {\n      require(_stake == stake, \"Invalid stake amount\");\n      _;\n  }\n\n  constructor(uint256 _cooldown, uint256 _stake, address daiTokenAddress)\n    public\n  {\n      cooldown = _cooldown;\n      stake = _stake;\n      dai = ERC20(daiTokenAddress);\n  }\n\n  /**\n  * @dev Transfers specified number of dai tokens to itself and submits the zkSnark proof to mint a new note\n  * @notice params: a, a_p, b, b_p, c, c_p, h, k zkSnark parameters\n  * @param input Public inputs of the zkSnark\n  */\n  function mint(\n      uint256[2] calldata a,\n      uint256[2][2] calldata b,\n      uint256[2] calldata c,\n      uint256[4] calldata input)\n    external\n    payable\n    validStake(msg.value)\n  {\n      require(\n        dai.transferFrom(msg.sender, address(this), uint256(input[2]) /* value */),\n        \"daiToken transfer failed\"\n      );\n      MintNotes.submit(a, b, c, input);\n  }\n\n  /**\n  * @dev Submits the zkSnark proof to be able to spend a note and create two new notes\n  * @notice params: a, a_p, b, b_p, c, c_p, h, k zkSnark parameters\n  * @param input Public inputs of the zkSnark\n  */\n  function spend(\n      uint256[2] calldata a,\n      uint256[2][2] calldata b,\n      uint256[2] calldata c,\n      uint256[7] calldata input)\n    external\n    payable\n    validStake(msg.value)\n  {\n      SpendNotes.submit(a, b, c, input);\n  }\n\n  /**\n  * @dev Liquidate a note to transfer the equivalent amount of dai to the recipient\n  * @param to Recipient of the dai tokens\n  * @notice params: a, a_p, b, b_p, c, c_p, h, k zkSnark parameters\n  * @param input Public inputs of the zkSnark\n  */\n  function liquidate(\n      address to,\n      uint256[2] calldata a,\n      uint256[2][2] calldata b,\n      uint256[2] calldata c,\n      uint256[4] calldata input)\n    external\n    payable\n    validStake(msg.value)\n  {\n      LiquidateNotes.submit(to, a, b, c,input);\n  }\n\n  /**\n  * @dev Challenge the mint or spend proofs and claim the stake amount if challenge passes.\n  * @notice If challenge passes, the challenger claims the stake amount,\n  *         otherwise note(s) are committed/spent and stake is transferred back to proof submitter.\n  * @notice params: a, a_p, b, b_p, c, c_p, h, k zkSnark parameters of the challenged proof\n  */\n  function challenge(\n      uint256[2] calldata a,\n      uint256[2][2] calldata b,\n      uint256[2] calldata c)\n    external\n  {\n      bytes32 proofHash = getProofHash(a, b, c);\n      Submission storage submission = submissions[proofHash];\n      require(submission.sType != SubmissionType.Invalid, \"Corresponding hash of proof doesnt exist\");\n      require(submission.submittedAt + cooldown >= now, \"Note cannot be challenged anymore\");\n      if (submission.sType == SubmissionType.Mint) {\n        MintNotes.challenge(a, b, c, proofHash);\n      } else if (submission.sType == SubmissionType.Spend) {\n        SpendNotes.challenge(a, b, c, proofHash);\n      } else if (submission.sType == SubmissionType.Liquidate) {\n        LiquidateNotes.challenge(a, b, c, proofHash);\n      }\n  }\n\n  /**\n  * @dev Commit a particular proof once the challenge period has ended\n  * @param proofHash Hash of the proof that needs to be committed\n  */\n  function commit(bytes32 proofHash)\n    public\n  {\n      Submission storage submission = submissions[proofHash];\n      require(submission.sType != SubmissionType.Invalid, \"proofHash is invalid\");\n      require(submission.submittedAt + cooldown < now, \"Note is still hot\");\n      if (submission.sType == SubmissionType.Mint) {\n        mintCommit(proofHash);\n      } else if (submission.sType == SubmissionType.Spend) {\n        spendCommit(proofHash);\n      } else if (submission.sType == SubmissionType.Liquidate) {\n        liquidateCommit(proofHash);\n      }\n  }\n}\n",
  "sourcePath": "/home/boo/work/LightningZKP/contracts/ZKDai.sol",
  "compiler": {
    "name": "solc",
    "version": "0.5.2+commit.1df8f40c.Emscripten.clang"
  },
  "schemaVersion": "3.0.11",
  "updatedAt": "2019-08-19T08:45:24.268Z",
  "devdoc": {
    "methods": {
      "challenge(uint256[2],uint256[2][2],uint256[2])": {
        "details": "Challenge the mint or spend proofs and claim the stake amount if challenge passes."
      },
      "commit(bytes32)": {
        "details": "Commit a particular proof once the challenge period has ended",
        "params": {
          "proofHash": "Hash of the proof that needs to be committed"
        }
      },
      "liquidate(address,uint256[2],uint256[2][2],uint256[2],uint256[4])": {
        "details": "Liquidate a note to transfer the equivalent amount of dai to the recipient",
        "params": {
          "input": "Public inputs of the zkSnark",
          "to": "Recipient of the dai tokens"
        }
      },
      "mint(uint256[2],uint256[2][2],uint256[2],uint256[4])": {
        "details": "Transfers specified number of dai tokens to itself and submits the zkSnark proof to mint a new note",
        "params": {
          "input": "Public inputs of the zkSnark"
        }
      },
      "spend(uint256[2],uint256[2][2],uint256[2],uint256[7])": {
        "details": "Submits the zkSnark proof to be able to spend a note and create two new notes",
        "params": {
          "input": "Public inputs of the zkSnark"
        }
      }
    }
  },
  "userdoc": {
    "methods": {
      "challenge(uint256[2],uint256[2][2],uint256[2])": {
        "notice": "If challenge passes, the challenger claims the stake amount,        otherwise note(s) are committed/spent and stake is transferred back to proof submitter.params: a, a_p, b, b_p, c, c_p, h, k zkSnark parameters of the challenged proof"
      },
      "liquidate(address,uint256[2],uint256[2][2],uint256[2],uint256[4])": {
        "notice": "params: a, a_p, b, b_p, c, c_p, h, k zkSnark parameters"
      },
      "mint(uint256[2],uint256[2][2],uint256[2],uint256[4])": {
        "notice": "params: a, a_p, b, b_p, c, c_p, h, k zkSnark parameters"
      },
      "spend(uint256[2],uint256[2][2],uint256[2],uint256[7])": {
        "notice": "params: a, a_p, b, b_p, c, c_p, h, k zkSnark parameters"
      }
    }
  }
}