{
  "contractName": "ZkDaiBase",
  "abi": [
    {
      "constant": true,
      "inputs": [
        {
          "name": "",
          "type": "bytes32"
        }
      ],
      "name": "depositPools",
      "outputs": [
        {
          "name": "mpkAddress",
          "type": "address"
        },
        {
          "name": "expiredTime",
          "type": "uint256"
        },
        {
          "name": "maxNotesNum",
          "type": "uint8"
        },
        {
          "name": "lastNotesNum",
          "type": "uint8"
        }
      ],
      "payable": false,
      "stateMutability": "view",
      "type": "function"
    },
    {
      "constant": true,
      "inputs": [],
      "name": "stake",
      "outputs": [
        {
          "name": "",
          "type": "uint256"
        }
      ],
      "payable": false,
      "stateMutability": "view",
      "type": "function"
    },
    {
      "constant": true,
      "inputs": [],
      "name": "cooldown",
      "outputs": [
        {
          "name": "",
          "type": "uint256"
        }
      ],
      "payable": false,
      "stateMutability": "view",
      "type": "function"
    },
    {
      "constant": true,
      "inputs": [
        {
          "name": "",
          "type": "bytes32"
        }
      ],
      "name": "notes",
      "outputs": [
        {
          "name": "",
          "type": "uint8"
        }
      ],
      "payable": false,
      "stateMutability": "view",
      "type": "function"
    },
    {
      "constant": true,
      "inputs": [
        {
          "name": "",
          "type": "bytes32"
        }
      ],
      "name": "submissions",
      "outputs": [
        {
          "name": "submitter",
          "type": "address"
        },
        {
          "name": "sType",
          "type": "uint8"
        },
        {
          "name": "submittedAt",
          "type": "uint256"
        }
      ],
      "payable": false,
      "stateMutability": "view",
      "type": "function"
    },
    {
      "constant": true,
      "inputs": [],
      "name": "dai",
      "outputs": [
        {
          "name": "",
          "type": "address"
        }
      ],
      "payable": false,
      "stateMutability": "view",
      "type": "function"
    },
    {
      "anonymous": false,
      "inputs": [
        {
          "indexed": false,
          "name": "note",
          "type": "bytes32"
        },
        {
          "indexed": false,
          "name": "state",
          "type": "uint8"
        }
      ],
      "name": "NoteStateChange",
      "type": "event"
    },
    {
      "anonymous": false,
      "inputs": [
        {
          "indexed": false,
          "name": "submitter",
          "type": "address"
        },
        {
          "indexed": false,
          "name": "proofHash",
          "type": "bytes32"
        }
      ],
      "name": "Submitted",
      "type": "event"
    },
    {
      "anonymous": false,
      "inputs": [
        {
          "indexed": false,
          "name": "mpkAddress",
          "type": "address"
        },
        {
          "indexed": false,
          "name": "poolId",
          "type": "bytes32"
        }
      ],
      "name": "Deposited",
      "type": "event"
    },
    {
      "anonymous": false,
      "inputs": [
        {
          "indexed": true,
          "name": "challenger",
          "type": "address"
        },
        {
          "indexed": false,
          "name": "proofHash",
          "type": "bytes32"
        }
      ],
      "name": "Challenged",
      "type": "event"
    }
  ],
  "bytecode": "0x608060405234801561001057600080fd5b506103b2806100206000396000f3fe608060405234801561001057600080fd5b506004361061007f576000357c01000000000000000000000000000000000000000000000000000000009004806338cd8093146100845780633a4b66f114610113578063787a08a61461013157806385de26b71461014f578063c5c9c0a21461019f578063f4b9fa7514610229575b600080fd5b6100b06004803603602081101561009a57600080fd5b8101908080359060200190929190505050610273565b604051808573ffffffffffffffffffffffffffffffffffffffff1673ffffffffffffffffffffffffffffffffffffffff1681526020018481526020018360ff1660ff1681526020018260ff1660ff16815260200194505050505060405180910390f35b61011b6102dd565b6040518082815260200191505060405180910390f35b6101396102e3565b6040518082815260200191505060405180910390f35b61017b6004803603602081101561016557600080fd5b81019080803590602001909291905050506102e9565b6040518082600381111561018b57fe5b60ff16815260200191505060405180910390f35b6101cb600480360360208110156101b557600080fd5b8101908080359060200190929190505050610309565b604051808473ffffffffffffffffffffffffffffffffffffffff1673ffffffffffffffffffffffffffffffffffffffff16815260200183600481111561020d57fe5b60ff168152602001828152602001935050505060405180910390f35b610231610360565b604051808273ffffffffffffffffffffffffffffffffffffffff1673ffffffffffffffffffffffffffffffffffffffff16815260200191505060405180910390f35b60036020528060005260406000206000915090508060000160009054906101000a900473ffffffffffffffffffffffffffffffffffffffff16908060010154908060020160009054906101000a900460ff16908060020160019054906101000a900460ff16905084565b60015481565b60005481565b60056020528060005260406000206000915054906101000a900460ff1681565b60046020528060005260406000206000915090508060000160009054906101000a900473ffffffffffffffffffffffffffffffffffffffff16908060000160149054906101000a900460ff16908060010154905083565b600260009054906101000a900473ffffffffffffffffffffffffffffffffffffffff168156fea165627a7a72305820ded2acb262384a2e35ff38d4d32368284ceee826d769588f0df445d6a828c0b10029",
  "source": "pragma solidity ^0.5.2;\n\nimport \"@openzeppelin/contracts/token/ERC20/ERC20.sol\";\n\n\ncontract ZkDaiBase {\n  uint256 public cooldown;\n  uint256 public stake;\n  ERC20 public dai;\n\n  //uint8 internal constant NUM_DEPOSIT_NOTES = 4; // sender's notes 0,1 and receiver's notes 0,1\n  uint internal constant poolTime = 10 minutes;\n  \n  //DepositNotes struct is for deposit function\n  //notes_num:\n  //last_nonce: If recevier submit a last signed message, then the last nonce will be updated to the signed message's nonce to prevent replay attack\n  //senderNotes:\n  //receiverNotes:\n  struct DepositPool {\n    address mpkAddress;\n    //address targetAddress;\n    uint expiredTime;\n    uint8 maxNotesNum; //init: NUM_DEPOSIT_NOTES/2\n    uint8 lastNotesNum; // init:0\n    //uint lastNonce;\n    bytes32[] senderNotes;\n    bytes32[] receiverNotes;\n  }\n  //maps poolID to DepositNotes\n  mapping(bytes32 => DepositPool) public depositPools;\n\n  enum SubmissionType {Invalid, Mint, Spend, Liquidate, Deposit}\n  struct Submission {\n    address payable submitter;\n    SubmissionType sType;\n    uint256 submittedAt;\n    uint256[] publicInput;\n  }\n  // maps proofHash to Submission\n  mapping(bytes32 => Submission) public submissions;\n\n  enum State {Invalid, Committed, Spent, Deposit}\n  // maps note to State\n  mapping(bytes32 => State) public notes;\n\n  event NoteStateChange(bytes32 note, State state);\n  event Submitted(address submitter, bytes32 proofHash);\n  event Deposited(address mpkAddress, bytes32 poolId);\n  event Challenged(address indexed challenger, bytes32 proofHash);\n\n  /**\n  * @dev Calculates the keccak256 of the zkSnark parameters\n  * @return proofHash\n  */\n  function getProofHash(\n      uint256[2] memory a,\n      uint256[2][2] memory b,\n      uint256[2] memory c)\n    internal\n    pure\n    returns(bytes32 proofHash)\n  {\n      proofHash = keccak256(abi.encodePacked(a, b, c));\n  }\n\n  /**\n  * @dev Concatenates the 2 chunks of the sha256 hash of the note\n  * @notice This method is required due to the field limitations imposed by the zokrates zkSnark library\n  * @param _a Most significant 128 bits of the note hash\n  * @param _b Least significant 128 bits of the note hash\n  */\n  function calcNoteHash(uint _a, uint _b)\n    internal\n    pure\n    returns(bytes32 note)\n  {\n      bytes16 a = bytes16(bytes32(_a));\n      bytes16 b = bytes16(bytes32(_b));\n      bytes memory _note = new bytes(32);\n\n      for (uint i = 0; i < 16; i++) {\n        _note[i] = a[i];\n        _note[16 + i] = b[i];\n      }\n      note = _bytesToBytes32(_note, 0);\n  }\n\n  function getMpkAddress(uint _a, uint _b, uint _c, uint _d)\n    internal\n    pure\n    returns (address mpkAddress)\n  {\n      bytes16 a = bytes16(bytes32(_a));\n      bytes16 b = bytes16(bytes32(_b));\n      bytes16 c = bytes16(bytes32(_c));\n      bytes16 d = bytes16(bytes32(_d));\n      bytes memory _mpk = new bytes(64);\n\n      for (uint i = 0; i < 16; i++) {\n        _mpk[i] = a[i];\n        _mpk[16 + i] = b[i];\n        _mpk[32 + i] = c[i];\n        _mpk[48 + i] = d[i];\n      }\n\n      bytes32 mpkHash = keccak256(_mpk);\n      assembly {\n        mstore(0, mpkHash)\n        mpkAddress := mload(0)\n      }\n  }\n\n  function _bytesToBytes32(bytes memory b, uint offset)\n    internal\n    pure\n    returns (bytes32 out)\n  {\n      for (uint i = 0; i < 32; i++) {\n        out |= bytes32(b[offset + i] & 0xFF) >> (i * 8);\n      }\n  }\n}\n",
  "sourcePath": "/home/boo/work/LightningZKP/contracts/ZkDaiBase.sol",
  "compiler": {
    "name": "solc",
    "version": "0.5.2+commit.1df8f40c.Emscripten.clang"
  },
  "schemaVersion": "3.0.11",
  "updatedAt": "2019-10-14T05:24:13.525Z",
  "devdoc": {
    "methods": {}
  },
  "userdoc": {
    "methods": {}
  }
}