{
  "contractName": "ZkDai",
  "abi": [
    {
      "constant": false,
      "inputs": [
        {
          "name": "poolId",
          "type": "bytes32"
        },
        {
          "name": "mpkAddress",
          "type": "address"
        },
        {
          "name": "msgHash",
          "type": "bytes32"
        },
        {
          "name": "transferNotesNum",
          "type": "uint8"
        },
        {
          "name": "v",
          "type": "uint8"
        },
        {
          "name": "r",
          "type": "bytes32"
        },
        {
          "name": "s",
          "type": "bytes32"
        }
      ],
      "name": "commitPaymentTx",
      "outputs": [],
      "payable": false,
      "stateMutability": "nonpayable",
      "type": "function"
    },
    {
      "constant": false,
      "inputs": [
        {
          "name": "a",
          "type": "uint256[2]"
        },
        {
          "name": "b",
          "type": "uint256[2][2]"
        },
        {
          "name": "c",
          "type": "uint256[2]"
        },
        {
          "name": "input",
          "type": "uint256[4]"
        }
      ],
      "name": "liquidateVerifyTx",
      "outputs": [
        {
          "name": "r",
          "type": "bool"
        }
      ],
      "payable": false,
      "stateMutability": "nonpayable",
      "type": "function"
    },
    {
      "constant": false,
      "inputs": [
        {
          "name": "a",
          "type": "uint256[2]"
        },
        {
          "name": "b",
          "type": "uint256[2][2]"
        },
        {
          "name": "c",
          "type": "uint256[2]"
        },
        {
          "name": "input",
          "type": "uint256[4]"
        }
      ],
      "name": "mintVerifyTx",
      "outputs": [
        {
          "name": "r",
          "type": "bool"
        }
      ],
      "payable": false,
      "stateMutability": "nonpayable",
      "type": "function"
    },
    {
      "constant": true,
      "inputs": [
        {
          "name": "",
          "type": "bytes32"
        }
      ],
      "name": "depositPools",
      "outputs": [
        {
          "name": "mpkAddress",
          "type": "address"
        },
        {
          "name": "expiredTime",
          "type": "uint256"
        },
        {
          "name": "maxNotesNum",
          "type": "uint8"
        },
        {
          "name": "lastNotesNum",
          "type": "uint8"
        }
      ],
      "payable": false,
      "stateMutability": "view",
      "type": "function"
    },
    {
      "constant": true,
      "inputs": [],
      "name": "stake",
      "outputs": [
        {
          "name": "",
          "type": "uint256"
        }
      ],
      "payable": false,
      "stateMutability": "view",
      "type": "function"
    },
    {
      "constant": false,
      "inputs": [
        {
          "name": "a",
          "type": "uint256[2]"
        },
        {
          "name": "b",
          "type": "uint256[2][2]"
        },
        {
          "name": "c",
          "type": "uint256[2]"
        },
        {
          "name": "input",
          "type": "uint256[7]"
        }
      ],
      "name": "spendVerifyTx",
      "outputs": [
        {
          "name": "r",
          "type": "bool"
        }
      ],
      "payable": false,
      "stateMutability": "nonpayable",
      "type": "function"
    },
    {
      "constant": false,
      "inputs": [
        {
          "name": "a",
          "type": "uint256[2]"
        },
        {
          "name": "b",
          "type": "uint256[2][2]"
        },
        {
          "name": "c",
          "type": "uint256[2]"
        },
        {
          "name": "input",
          "type": "uint256[51]"
        }
      ],
      "name": "depositVerifyTx",
      "outputs": [
        {
          "name": "r",
          "type": "bool"
        }
      ],
      "payable": false,
      "stateMutability": "nonpayable",
      "type": "function"
    },
    {
      "constant": true,
      "inputs": [
        {
          "name": "addr",
          "type": "address"
        },
        {
          "name": "msgHash",
          "type": "bytes32"
        },
        {
          "name": "v",
          "type": "uint8"
        },
        {
          "name": "r",
          "type": "bytes32"
        },
        {
          "name": "s",
          "type": "bytes32"
        }
      ],
      "name": "paymentTxVerify",
      "outputs": [
        {
          "name": "",
          "type": "bool"
        }
      ],
      "payable": false,
      "stateMutability": "view",
      "type": "function"
    },
    {
      "constant": false,
      "inputs": [
        {
          "name": "a",
          "type": "uint256[2]"
        },
        {
          "name": "b",
          "type": "uint256[2][2]"
        },
        {
          "name": "c",
          "type": "uint256[2]"
        },
        {
          "name": "input",
          "type": "uint256[19]"
        }
      ],
      "name": "depositVerifyTx",
      "outputs": [
        {
          "name": "r",
          "type": "bool"
        }
      ],
      "payable": false,
      "stateMutability": "nonpayable",
      "type": "function"
    },
    {
      "constant": true,
      "inputs": [],
      "name": "cooldown",
      "outputs": [
        {
          "name": "",
          "type": "uint256"
        }
      ],
      "payable": false,
      "stateMutability": "view",
      "type": "function"
    },
    {
      "constant": true,
      "inputs": [
        {
          "name": "msgHash",
          "type": "bytes32"
        },
        {
          "name": "v",
          "type": "uint8"
        },
        {
          "name": "r",
          "type": "bytes32"
        },
        {
          "name": "s",
          "type": "bytes32"
        }
      ],
      "name": "recoverAddress",
      "outputs": [
        {
          "name": "",
          "type": "address"
        }
      ],
      "payable": false,
      "stateMutability": "view",
      "type": "function"
    },
    {
      "constant": true,
      "inputs": [
        {
          "name": "",
          "type": "bytes32"
        }
      ],
      "name": "notes",
      "outputs": [
        {
          "name": "",
          "type": "uint8"
        }
      ],
      "payable": false,
      "stateMutability": "view",
      "type": "function"
    },
    {
      "constant": false,
      "inputs": [
        {
          "name": "a",
          "type": "uint256[2]"
        },
        {
          "name": "b",
          "type": "uint256[2][2]"
        },
        {
          "name": "c",
          "type": "uint256[2]"
        },
        {
          "name": "input",
          "type": "uint256[31]"
        }
      ],
      "name": "depositVerifyTx",
      "outputs": [
        {
          "name": "r",
          "type": "bool"
        }
      ],
      "payable": false,
      "stateMutability": "nonpayable",
      "type": "function"
    },
    {
      "constant": false,
      "inputs": [
        {
          "name": "poolId",
          "type": "bytes32"
        }
      ],
      "name": "ClaimExpiredPool",
      "outputs": [],
      "payable": false,
      "stateMutability": "nonpayable",
      "type": "function"
    },
    {
      "constant": true,
      "inputs": [
        {
          "name": "",
          "type": "bytes32"
        }
      ],
      "name": "submissions",
      "outputs": [
        {
          "name": "submitter",
          "type": "address"
        },
        {
          "name": "sType",
          "type": "uint8"
        },
        {
          "name": "submittedAt",
          "type": "uint256"
        }
      ],
      "payable": false,
      "stateMutability": "view",
      "type": "function"
    },
    {
      "constant": true,
      "inputs": [],
      "name": "dai",
      "outputs": [
        {
          "name": "",
          "type": "address"
        }
      ],
      "payable": false,
      "stateMutability": "view",
      "type": "function"
    },
    {
      "inputs": [
        {
          "name": "_cooldown",
          "type": "uint256"
        },
        {
          "name": "_stake",
          "type": "uint256"
        },
        {
          "name": "daiTokenAddress",
          "type": "address"
        }
      ],
      "payable": false,
      "stateMutability": "nonpayable",
      "type": "constructor"
    },
    {
      "anonymous": false,
      "inputs": [
        {
          "indexed": false,
          "name": "note",
          "type": "bytes32"
        },
        {
          "indexed": false,
          "name": "state",
          "type": "uint8"
        }
      ],
      "name": "NoteStateChange",
      "type": "event"
    },
    {
      "anonymous": false,
      "inputs": [
        {
          "indexed": false,
          "name": "submitter",
          "type": "address"
        },
        {
          "indexed": false,
          "name": "proofHash",
          "type": "bytes32"
        }
      ],
      "name": "Submitted",
      "type": "event"
    },
    {
      "anonymous": false,
      "inputs": [
        {
          "indexed": false,
          "name": "mpkAddress",
          "type": "address"
        },
        {
          "indexed": false,
          "name": "poolId",
          "type": "bytes32"
        }
      ],
      "name": "Deposited",
      "type": "event"
    },
    {
      "anonymous": false,
      "inputs": [
        {
          "indexed": true,
          "name": "challenger",
          "type": "address"
        },
        {
          "indexed": false,
          "name": "proofHash",
          "type": "bytes32"
        }
      ],
      "name": "Challenged",
      "type": "event"
    },
    {
      "anonymous": false,
      "inputs": [
        {
          "indexed": false,
          "name": "s",
          "type": "string"
        }
      ],
      "name": "LiquidateVerified",
      "type": "event"
    },
    {
      "anonymous": false,
      "inputs": [
        {
          "indexed": false,
          "name": "s",
          "type": "string"
        }
      ],
      "name": "DepositVerified",
      "type": "event"
    },
    {
      "anonymous": false,
      "inputs": [
        {
          "indexed": false,
          "name": "s",
          "type": "string"
        }
      ],
      "name": "SpendVerified",
      "type": "event"
    },
    {
      "anonymous": false,
      "inputs": [
        {
          "indexed": false,
          "name": "s",
          "type": "string"
        }
      ],
      "name": "MintVerified",
      "type": "event"
    },
    {
      "constant": false,
      "inputs": [
        {
          "name": "a",
          "type": "uint256[2]"
        },
        {
          "name": "b",
          "type": "uint256[2][2]"
        },
        {
          "name": "c",
          "type": "uint256[2]"
        },
        {
          "name": "input",
          "type": "uint256[4]"
        }
      ],
      "name": "mint",
      "outputs": [],
      "payable": true,
      "stateMutability": "payable",
      "type": "function"
    },
    {
      "constant": false,
      "inputs": [
        {
          "name": "a",
          "type": "uint256[2]"
        },
        {
          "name": "b",
          "type": "uint256[2][2]"
        },
        {
          "name": "c",
          "type": "uint256[2]"
        },
        {
          "name": "input",
          "type": "uint256[7]"
        }
      ],
      "name": "spend",
      "outputs": [],
      "payable": true,
      "stateMutability": "payable",
      "type": "function"
    },
    {
      "constant": false,
      "inputs": [
        {
          "name": "a",
          "type": "uint256[2]"
        },
        {
          "name": "b",
          "type": "uint256[2][2]"
        },
        {
          "name": "c",
          "type": "uint256[2]"
        },
        {
          "name": "input",
          "type": "uint256[19]"
        }
      ],
      "name": "deposit_2",
      "outputs": [],
      "payable": true,
      "stateMutability": "payable",
      "type": "function"
    },
    {
      "constant": false,
      "inputs": [
        {
          "name": "a",
          "type": "uint256[2]"
        },
        {
          "name": "b",
          "type": "uint256[2][2]"
        },
        {
          "name": "c",
          "type": "uint256[2]"
        },
        {
          "name": "input",
          "type": "uint256[31]"
        }
      ],
      "name": "deposit_5",
      "outputs": [],
      "payable": true,
      "stateMutability": "payable",
      "type": "function"
    },
    {
      "constant": false,
      "inputs": [
        {
          "name": "a",
          "type": "uint256[2]"
        },
        {
          "name": "b",
          "type": "uint256[2][2]"
        },
        {
          "name": "c",
          "type": "uint256[2]"
        },
        {
          "name": "input",
          "type": "uint256[51]"
        }
      ],
      "name": "deposit_10",
      "outputs": [],
      "payable": true,
      "stateMutability": "payable",
      "type": "function"
    },
    {
      "constant": false,
      "inputs": [
        {
          "name": "to",
          "type": "address"
        },
        {
          "name": "a",
          "type": "uint256[2]"
        },
        {
          "name": "b",
          "type": "uint256[2][2]"
        },
        {
          "name": "c",
          "type": "uint256[2]"
        },
        {
          "name": "input",
          "type": "uint256[4]"
        }
      ],
      "name": "liquidate",
      "outputs": [],
      "payable": true,
      "stateMutability": "payable",
      "type": "function"
    },
    {
      "constant": false,
      "inputs": [
        {
          "name": "a",
          "type": "uint256[2]"
        },
        {
          "name": "b",
          "type": "uint256[2][2]"
        },
        {
          "name": "c",
          "type": "uint256[2]"
        }
      ],
      "name": "challenge",
      "outputs": [],
      "payable": false,
      "stateMutability": "nonpayable",
      "type": "function"
    },
    {
      "constant": false,
      "inputs": [
        {
          "name": "proofHash",
          "type": "bytes32"
        }
      ],
      "name": "commit",
      "outputs": [],
      "payable": false,
      "stateMutability": "nonpayable",
      "type": "function"
    }
  ],
  "bytecode": "0x60806040523480156200001157600080fd5b506040516060806200b033833981018060405260608110156200003357600080fd5b81019080805190602001909291908051906020019092919080519060200190929190505050826000819055508160018190555080600260006101000a81548173ffffffffffffffffffffffffffffffffffffffff021916908373ffffffffffffffffffffffffffffffffffffffff16021790555050505061af7980620000ba6000396000f3fe608060405260043610610168576000357c010000000000000000000000000000000000000000000000000000000090048063787a08a6116100d3578063a0d1192d1161008c578063a0d1192d14610f4c578063c5c9c0a214610f87578063ed6996741461101e578063f14fcbc81461106c578063f4b9fa75146110a7578063fd696b6e146110fe57610168565b8063787a08a614610c035780637f67df4c14610c2e5780638428cf8314610c7e57806385de26b714610d1a57806389541e8514610d7757806399fd7a6514610efe57610168565b806355258f7b1161012557806355258f7b146106215780635c9985271461068e5780636457ce44146108145780636b6e3f941461099b5780637255ae7b14610a2f5780637583cf7214610a7c57610168565b806308da9f781461016d5780631210c56d1461020057806316f5b90e146103865780631fa41b3f146103d457806338cd80931461055a5780633a4b66f1146105f6575b600080fd5b34801561017957600080fd5b506101fe600480360360e081101561019057600080fd5b8101908080359060200190929190803573ffffffffffffffffffffffffffffffffffffffff16906020019092919080359060200190929190803560ff169060200190929190803560ff169060200190929190803590602001909291908035906020019092919050505061114b565b005b34801561020c57600080fd5b5061036c600480360361018081101561022457600080fd5b8101908080604001906002806020026040519081016040528092919082600260200280828437600081840152601f19601f82011690508083019250505050505091929192908060800190600280602002604051908101604052809291906000905b828210156102d9578382604002016002806020026040519081016040528092919082600260200280828437600081840152601f19601f82011690508083019250505050505081526020019060010190610285565b50505050919291929080604001906002806020026040519081016040528092919082600260200280828437600081840152601f19601f820116905080830192505050505050919291929080608001906004806020026040519081016040528092919082600460200280828437600081840152601f19601f8201169050808301925050505050509192919290505050611377565b604051808215151515815260200191505060405180910390f35b6103d260048036036104e081101561039d57600080fd5b81019080806040019091929192908060800190919291929080604001909192919290806103e0019091929192905050506115dc565b005b3480156103e057600080fd5b5061054060048036036101808110156103f857600080fd5b8101908080604001906002806020026040519081016040528092919082600260200280828437600081840152601f19601f82011690508083019250505050505091929192908060800190600280602002604051908101604052809291906000905b828210156104ad578382604002016002806020026040519081016040528092919082600260200280828437600081840152601f19601f82011690508083019250505050505081526020019060010190610459565b50505050919291929080604001906002806020026040519081016040528092919082600260200280828437600081840152601f19601f820116905080830192505050505050919291929080608001906004806020026040519081016040528092919082600460200280828437600081840152601f19601f8201169050808301925050505050509192919290505050611702565b604051808215151515815260200191505060405180910390f35b34801561056657600080fd5b506105936004803603602081101561057d57600080fd5b8101908080359060200190929190505050611967565b604051808573ffffffffffffffffffffffffffffffffffffffff1673ffffffffffffffffffffffffffffffffffffffff1681526020018481526020018360ff1660ff1681526020018260ff1660ff16815260200194505050505060405180910390f35b34801561060257600080fd5b5061060b6119d1565b6040518082815260200191505060405180910390f35b61068c60048036036101a081101561063857600080fd5b81019080803573ffffffffffffffffffffffffffffffffffffffff169060200190929190806040019091929192908060800190919291929080604001909192919290806080019091929192905050506119d7565b005b34801561069a57600080fd5b506107fa60048036036101e08110156106b257600080fd5b8101908080604001906002806020026040519081016040528092919082600260200280828437600081840152601f19601f82011690508083019250505050505091929192908060800190600280602002604051908101604052809291906000905b82821015610767578382604002016002806020026040519081016040528092919082600260200280828437600081840152601f19601f82011690508083019250505050505081526020019060010190610713565b50505050919291929080604001906002806020026040519081016040528092919082600260200280828437600081840152601f19601f82011690508083019250505050505091929192908060e001906007806020026040519081016040528092919082600760200280828437600081840152601f19601f8201169050808301925050505050509192919290505050611aff565b604051808215151515815260200191505060405180910390f35b34801561082057600080fd5b50610981600480360361076081101561083857600080fd5b8101908080604001906002806020026040519081016040528092919082600260200280828437600081840152601f19601f82011690508083019250505050505091929192908060800190600280602002604051908101604052809291906000905b828210156108ed578382604002016002806020026040519081016040528092919082600260200280828437600081840152601f19601f82011690508083019250505050505081526020019060010190610899565b50505050919291929080604001906002806020026040519081016040528092919082600260200280828437600081840152601f19601f82011690508083019250505050505091929192908061066001906033806020026040519081016040528092919082603360200280828437600081840152601f19601f8201169050808301925050505050509192919290505050611d64565b604051808215151515815260200191505060405180910390f35b3480156109a757600080fd5b50610a15600480360360a08110156109be57600080fd5b81019080803573ffffffffffffffffffffffffffffffffffffffff16906020019092919080359060200190929190803560ff1690602001909291908035906020019092919080359060200190929190505050611fc9565b604051808215151515815260200191505060405180910390f35b610a7a6004803603610180811015610a4657600080fd5b8101908080604001909192919290806080019091929192908060400190919291929080608001909192919290505050612010565b005b348015610a8857600080fd5b50610be96004803603610360811015610aa057600080fd5b8101908080604001906002806020026040519081016040528092919082600260200280828437600081840152601f19601f82011690508083019250505050505091929192908060800190600280602002604051908101604052809291906000905b82821015610b55578382604002016002806020026040519081016040528092919082600260200280828437600081840152601f19601f82011690508083019250505050505081526020019060010190610b01565b50505050919291929080604001906002806020026040519081016040528092919082600260200280828437600081840152601f19601f82011690508083019250505050505091929192908061026001906013806020026040519081016040528092919082601360200280828437600081840152601f19601f820116905080830192505050505050919291929050505061236c565b604051808215151515815260200191505060405180910390f35b348015610c0f57600080fd5b50610c186125d1565b6040518082815260200191505060405180910390f35b348015610c3a57600080fd5b50610c7c6004803603610100811015610c5257600080fd5b810190808060400190919291929080608001909192919290806040019091929192905050506125d7565b005b348015610c8a57600080fd5b50610cd860048036036080811015610ca157600080fd5b8101908080359060200190929190803560ff1690602001909291908035906020019092919080359060200190929190505050612c3d565b604051808273ffffffffffffffffffffffffffffffffffffffff1673ffffffffffffffffffffffffffffffffffffffff16815260200191505060405180910390f35b348015610d2657600080fd5b50610d5360048036036020811015610d3d57600080fd5b8101908080359060200190929190505050612cb0565b60405180826003811115610d6357fe5b60ff16815260200191505060405180910390f35b348015610d8357600080fd5b50610ee460048036036104e0811015610d9b57600080fd5b8101908080604001906002806020026040519081016040528092919082600260200280828437600081840152601f19601f82011690508083019250505050505091929192908060800190600280602002604051908101604052809291906000905b82821015610e50578382604002016002806020026040519081016040528092919082600260200280828437600081840152601f19601f82011690508083019250505050505081526020019060010190610dfc565b50505050919291929080604001906002806020026040519081016040528092919082600260200280828437600081840152601f19601f8201169050808301925050505050509192919290806103e00190601f806020026040519081016040528092919082601f60200280828437600081840152601f19601f8201169050808301925050505050509192919290505050612cd0565b604051808215151515815260200191505060405180910390f35b610f4a6004803603610360811015610f1557600080fd5b810190808060400190919291929080608001909192919290806040019091929192908061026001909192919290505050612f35565b005b348015610f5857600080fd5b50610f8560048036036020811015610f6f57600080fd5b810190808035906020019092919050505061305b565b005b348015610f9357600080fd5b50610fc060048036036020811015610faa57600080fd5b8101908080359060200190929190505050613334565b604051808473ffffffffffffffffffffffffffffffffffffffff1673ffffffffffffffffffffffffffffffffffffffff16815260200183600481111561100257fe5b60ff168152602001828152602001935050505060405180910390f35b61106a600480360361076081101561103557600080fd5b81019080806040019091929192908060800190919291929080604001909192919290806106600190919291929050505061338b565b005b34801561107857600080fd5b506110a56004803603602081101561108f57600080fd5b81019080803590602001909291905050506134b1565b005b3480156110b357600080fd5b506110bc6136e1565b604051808273ffffffffffffffffffffffffffffffffffffffff1673ffffffffffffffffffffffffffffffffffffffff16815260200191505060405180910390f35b61114960048036036101e081101561111557600080fd5b810190808060400190919291929080608001909192919290806040019091929192908060e001909192919290505050613707565b005b60006003600089815260200190815260200160002090508673ffffffffffffffffffffffffffffffffffffffff168160000160009054906101000a900473ffffffffffffffffffffffffffffffffffffffff1673ffffffffffffffffffffffffffffffffffffffff1614151561120c576040517f08c379a000000000000000000000000000000000000000000000000000000000815260040180806020018281038252603381526020018061aef36033913960400191505060405180910390fd5b878786604051602001808481526020018373ffffffffffffffffffffffffffffffffffffffff1673ffffffffffffffffffffffffffffffffffffffff166c010000000000000000000000000281526014018260ff1660ff167f0100000000000000000000000000000000000000000000000000000000000000028152600101935050505060405160208183030381529060405280519060200120861415156112ff576040517f08c379a000000000000000000000000000000000000000000000000000000000815260040180806020018281038252603381526020018061aef36033913960400191505060405180910390fd5b61130c8787868686611fc9565b1515611363576040517f08c379a000000000000000000000000000000000000000000000000000000000815260040180806020018281038252602381526020018061aed06023913960400191505060405180910390fd5b61136d888661382d565b5050505050505050565b600061138161aae4565b604080519081016040528087600060028110151561139b57fe5b602002015181526020018760016002811015156113b457fe5b60200201518152508160000181905250604080519081016040528060408051908101604052808860006002811015156113e957fe5b602002015160006002811015156113fc57fe5b6020020151815260200188600060028110151561141557fe5b6020020151600160028110151561142857fe5b60200201518152508152602001604080519081016040528088600160028110151561144f57fe5b6020020151600060028110151561146257fe5b6020020151815260200188600160028110151561147b57fe5b6020020151600160028110151561148e57fe5b6020020151815250815250816020018190525060408051908101604052808560006002811015156114bb57fe5b602002015181526020018560016002811015156114d457fe5b60200201518152508160400181905250606060046040519080825280602002602001820160405280156115165781602001602082028038833980820191505090505b50905060008090505b600481101561156457848160048110151561153657fe5b6020020151828281518110151561154957fe5b9060200190602002018181525050808060010191505061151f565b5060006115718284613b1b565b14156115cd577f46d48f0a138fd14dfc4a9086422b1a886a0f02eade5d6abef007754fe4b06bc060405180806020018281038252602281526020018061aeae6022913960400191505060405180910390a16001925050506115d4565b6000925050505b949350505050565b6116fc846002806020026040519081016040528092919082600260200280828437600081840152601f19601f82011690508083019250505050505084600280602002604051908101604052809291906000905b82821015611683578382604002016002806020026040519081016040528092919082600260200280828437600081840152601f19601f8201169050808301925050505050508152602001906001019061162f565b50505050846002806020026040519081016040528092919082600260200280828437600081840152601f19601f82011690508083019250505050505084601f806020026040519081016040528092919082601f60200280828437600081840152601f19601f820116905080830192505050505050613ca3565b50505050565b600061170c61aae4565b604080519081016040528087600060028110151561172657fe5b6020020151815260200187600160028110151561173f57fe5b602002015181525081600001819052506040805190810160405280604080519081016040528088600060028110151561177457fe5b6020020151600060028110151561178757fe5b602002015181526020018860006002811015156117a057fe5b602002015160016002811015156117b357fe5b6020020151815250815260200160408051908101604052808860016002811015156117da57fe5b602002015160006002811015156117ed57fe5b6020020151815260200188600160028110151561180657fe5b6020020151600160028110151561181957fe5b60200201518152508152508160200181905250604080519081016040528085600060028110151561184657fe5b6020020151815260200185600160028110151561185f57fe5b60200201518152508160400181905250606060046040519080825280602002602001820160405280156118a15781602001602082028038833980820191505090505b50905060008090505b60048110156118ef5784816004811015156118c157fe5b602002015182828151811015156118d457fe5b906020019060200201818152505080806001019150506118aa565b5060006118fc8284613ea5565b1415611958577f2cef7d724e9df39531c164620567bd12bd8ca7b47fa53317f1078c2f2d5951ce60405180806020018281038252602281526020018061aeae6022913960400191505060405180910390a160019250505061195f565b6000925050505b949350505050565b60036020528060005260406000206000915090508060000160009054906101000a900473ffffffffffffffffffffffffffffffffffffffff16908060010154908060020160009054906101000a900460ff16908060020160019054906101000a900460ff16905084565b60015481565b611af885856002806020026040519081016040528092919082600260200280828437600081840152601f19601f82011690508083019250505050505085600280602002604051908101604052809291906000905b82821015611a7f578382604002016002806020026040519081016040528092919082600260200280828437600081840152601f19601f82011690508083019250505050505081526020019060010190611a2b565b50505050856002806020026040519081016040528092919082600260200280828437600081840152601f19601f820116905080830192505050505050856004806020026040519081016040528092919082600460200280828437600081840152601f19601f82011690508083019250505050505061402d565b5050505050565b6000611b0961aae4565b6040805190810160405280876000600281101515611b2357fe5b60200201518152602001876001600281101515611b3c57fe5b6020020151815250816000018190525060408051908101604052806040805190810160405280886000600281101515611b7157fe5b60200201516000600281101515611b8457fe5b60200201518152602001886000600281101515611b9d57fe5b60200201516001600281101515611bb057fe5b602002015181525081526020016040805190810160405280886001600281101515611bd757fe5b60200201516000600281101515611bea57fe5b60200201518152602001886001600281101515611c0357fe5b60200201516001600281101515611c1657fe5b602002015181525081525081602001819052506040805190810160405280856000600281101515611c4357fe5b60200201518152602001856001600281101515611c5c57fe5b6020020151815250816040018190525060606007604051908082528060200260200182016040528015611c9e5781602001602082028038833980820191505090505b50905060008090505b6007811015611cec578481600781101515611cbe57fe5b60200201518282815181101515611cd157fe5b90602001906020020181815250508080600101915050611ca7565b506000611cf9828461426b565b1415611d55577ff6cb06d2e93a0bf2c44f15288883c84bd0564b45a72d58a8b0793915bd00eb1b60405180806020018281038252602281526020018061aeae6022913960400191505060405180910390a1600192505050611d5c565b6000925050505b949350505050565b6000611d6e61aae4565b6040805190810160405280876000600281101515611d8857fe5b60200201518152602001876001600281101515611da157fe5b6020020151815250816000018190525060408051908101604052806040805190810160405280886000600281101515611dd657fe5b60200201516000600281101515611de957fe5b60200201518152602001886000600281101515611e0257fe5b60200201516001600281101515611e1557fe5b602002015181525081526020016040805190810160405280886001600281101515611e3c57fe5b60200201516000600281101515611e4f57fe5b60200201518152602001886001600281101515611e6857fe5b60200201516001600281101515611e7b57fe5b602002015181525081525081602001819052506040805190810160405280856000600281101515611ea857fe5b60200201518152602001856001600281101515611ec157fe5b6020020151815250816040018190525060606033604051908082528060200260200182016040528015611f035781602001602082028038833980820191505090505b50905060008090505b6033811015611f51578481603381101515611f2357fe5b60200201518282815181101515611f3657fe5b90602001906020020181815250508080600101915050611f0c565b506000611f5e82846143f3565b1415611fba577f07fb15b1ebdfd9751a3925ece10a8bff6b5f6ce237f0d1385e2176fa8153eb6360405180806020018281038252602281526020018061aeae6022913960400191505060405180910390a1600192505050611fc1565b6000925050505b949350505050565b6000611fd785858585612c3d565b73ffffffffffffffffffffffffffffffffffffffff168673ffffffffffffffffffffffffffffffffffffffff1614905095945050505050565b346001548114151561208a576040517f08c379a00000000000000000000000000000000000000000000000000000000081526004018080602001828103825260148152602001807f496e76616c6964207374616b6520616d6f756e7400000000000000000000000081525060200191505060405180910390fd5b600260009054906101000a900473ffffffffffffffffffffffffffffffffffffffff1673ffffffffffffffffffffffffffffffffffffffff166323b872dd33308560026004811015156120d957fe5b60200201356040518463ffffffff167c0100000000000000000000000000000000000000000000000000000000028152600401808473ffffffffffffffffffffffffffffffffffffffff1673ffffffffffffffffffffffffffffffffffffffff1681526020018373ffffffffffffffffffffffffffffffffffffffff1673ffffffffffffffffffffffffffffffffffffffff1681526020018281526020019350505050602060405180830381600087803b15801561219657600080fd5b505af11580156121aa573d6000803e3d6000fd5b505050506040513d60208110156121c057600080fd5b81019080805190602001909291905050501515612245576040517f08c379a00000000000000000000000000000000000000000000000000000000081526004018080602001828103825260188152602001807f646169546f6b656e207472616e73666572206661696c6564000000000000000081525060200191505060405180910390fd5b612365856002806020026040519081016040528092919082600260200280828437600081840152601f19601f82011690508083019250505050505085600280602002604051908101604052809291906000905b828210156122ec578382604002016002806020026040519081016040528092919082600260200280828437600081840152601f19601f82011690508083019250505050505081526020019060010190612298565b50505050856002806020026040519081016040528092919082600260200280828437600081840152601f19601f820116905080830192505050505050856004806020026040519081016040528092919082600460200280828437600081840152601f19601f82011690508083019250505050505061457b565b5050505050565b600061237661aae4565b604080519081016040528087600060028110151561239057fe5b602002015181526020018760016002811015156123a957fe5b60200201518152508160000181905250604080519081016040528060408051908101604052808860006002811015156123de57fe5b602002015160006002811015156123f157fe5b6020020151815260200188600060028110151561240a57fe5b6020020151600160028110151561241d57fe5b60200201518152508152602001604080519081016040528088600160028110151561244457fe5b6020020151600060028110151561245757fe5b6020020151815260200188600160028110151561247057fe5b6020020151600160028110151561248357fe5b6020020151815250815250816020018190525060408051908101604052808560006002811015156124b057fe5b602002015181526020018560016002811015156124c957fe5b602002015181525081604001819052506060601360405190808252806020026020018201604052801561250b5781602001602082028038833980820191505090505b50905060008090505b601381101561255957848160138110151561252b57fe5b6020020151828281518110151561253e57fe5b90602001906020020181815250508080600101915050612514565b50600061256682846143f3565b14156125c2577f07fb15b1ebdfd9751a3925ece10a8bff6b5f6ce237f0d1385e2176fa8153eb6360405180806020018281038252602281526020018061aeae6022913960400191505060405180910390a16001925050506125c9565b6000925050505b949350505050565b60005481565b60006126c1846002806020026040519081016040528092919082600260200280828437600081840152601f19601f82011690508083019250505050505084600280602002604051908101604052809291906000905b82821015612680578382604002016002806020026040519081016040528092919082600260200280828437600081840152601f19601f8201169050808301925050505050508152602001906001019061262c565b50505050846002806020026040519081016040528092919082600260200280828437600081840152601f19601f82011690508083019250505050505061477b565b90506000600460008381526020019081526020016000209050600060048111156126e757fe5b8160000160149054906101000a900460ff16600481111561270457fe5b1415151561275d576040517f08c379a000000000000000000000000000000000000000000000000000000000815260040180806020018281038252602881526020018061af266028913960400191505060405180910390fd5b42600054826001015401101515156127c0576040517f08c379a000000000000000000000000000000000000000000000000000000000815260040180806020018281038252602181526020018061ae8d6021913960400191505060405180910390fd5b600160048111156127cd57fe5b8160000160149054906101000a900460ff1660048111156127ea57fe5b14156128de576128d9856002806020026040519081016040528092919082600260200280828437600081840152601f19601f82011690508083019250505050505085600280602002604051908101604052809291906000905b82821015612897578382604002016002806020026040519081016040528092919082600260200280828437600081840152601f19601f82011690508083019250505050505081526020019060010190612843565b50505050856002806020026040519081016040528092919082600260200280828437600081840152601f19601f82011690508083019250505050505085614858565b612c36565b600260048111156128eb57fe5b8160000160149054906101000a900460ff16600481111561290857fe5b14156129fc576129f7856002806020026040519081016040528092919082600260200280828437600081840152601f19601f82011690508083019250505050505085600280602002604051908101604052809291906000905b828210156129b5578382604002016002806020026040519081016040528092919082600260200280828437600081840152601f19601f82011690508083019250505050505081526020019060010190612961565b50505050856002806020026040519081016040528092919082600260200280828437600081840152601f19601f820116905080830192505050505050856149f3565b612c35565b60036004811115612a0957fe5b8160000160149054906101000a900460ff166004811115612a2657fe5b1415612b1a57612b15856002806020026040519081016040528092919082600260200280828437600081840152601f19601f82011690508083019250505050505085600280602002604051908101604052809291906000905b82821015612ad3578382604002016002806020026040519081016040528092919082600260200280828437600081840152601f19601f82011690508083019250505050505081526020019060010190612a7f565b50505050856002806020026040519081016040528092919082600260200280828437600081840152601f19601f82011690508083019250505050505085614b8e565b612c34565b600480811115612b2657fe5b8160000160149054906101000a900460ff166004811115612b4357fe5b1415612c3357612c32856002806020026040519081016040528092919082600260200280828437600081840152601f19601f82011690508083019250505050505085600280602002604051908101604052809291906000905b82821015612bf0578382604002016002806020026040519081016040528092919082600260200280828437600081840152601f19601f82011690508083019250505050505081526020019060010190612b9c565b50505050856002806020026040519081016040528092919082600260200280828437600081840152601f19601f82011690508083019250505050505085614d29565b5b5b5b5b5050505050565b600060018585858560405160008152602001604052604051808581526020018460ff1660ff1681526020018381526020018281526020019450505050506020604051602081039080840390855afa158015612c9c573d6000803e3d6000fd5b505050602060405103519050949350505050565b60056020528060005260406000206000915054906101000a900460ff1681565b6000612cda61aae4565b6040805190810160405280876000600281101515612cf457fe5b60200201518152602001876001600281101515612d0d57fe5b6020020151815250816000018190525060408051908101604052806040805190810160405280886000600281101515612d4257fe5b60200201516000600281101515612d5557fe5b60200201518152602001886000600281101515612d6e57fe5b60200201516001600281101515612d8157fe5b602002015181525081526020016040805190810160405280886001600281101515612da857fe5b60200201516000600281101515612dbb57fe5b60200201518152602001886001600281101515612dd457fe5b60200201516001600281101515612de757fe5b602002015181525081525081602001819052506040805190810160405280856000600281101515612e1457fe5b60200201518152602001856001600281101515612e2d57fe5b602002015181525081604001819052506060601f604051908082528060200260200182016040528015612e6f5781602001602082028038833980820191505090505b50905060008090505b601f811015612ebd578481601f81101515612e8f57fe5b60200201518282815181101515612ea257fe5b90602001906020020181815250508080600101915050612e78565b506000612eca82846143f3565b1415612f26577f07fb15b1ebdfd9751a3925ece10a8bff6b5f6ce237f0d1385e2176fa8153eb6360405180806020018281038252602281526020018061aeae6022913960400191505060405180910390a1600192505050612f2d565b6000925050505b949350505050565b613055846002806020026040519081016040528092919082600260200280828437600081840152601f19601f82011690508083019250505050505084600280602002604051908101604052809291906000905b82821015612fdc578382604002016002806020026040519081016040528092919082600260200280828437600081840152601f19601f82011690508083019250505050505081526020019060010190612f88565b50505050846002806020026040519081016040528092919082600260200280828437600081840152601f19601f820116905080830192505050505050846013806020026040519081016040528092919082601360200280828437600081840152601f19601f820116905080830192505050505050614ec4565b50505050565b60006003600083815260200190815260200160002090504281600101541015156130ed576040517f08c379a000000000000000000000000000000000000000000000000000000000815260040180806020018281038252600f8152602001807f4e6f74206578706972656420796574000000000000000000000000000000000081525060200191505060405180910390fd5b60008160020160019054906101000a900460ff1660ff1690505b8160020160009054906101000a900460ff1660ff168110156132a257600260056000846004018481548110151561313a57fe5b9060005260206000200154815260200190815260200160002060006101000a81548160ff0219169083600381111561316e57fe5b0217905550600160056000846003018481548110151561318a57fe5b9060005260206000200154815260200190815260200160002060006101000a81548160ff021916908360038111156131be57fe5b02179055507f91d2faa002479f8dc4f20862402db3dba2ebe927031674997d38e5b70d9877e782600401828154811015156131f557fe5b906000526020600020015460026040518083815260200182600381111561321857fe5b60ff1681526020019250505060405180910390a17f91d2faa002479f8dc4f20862402db3dba2ebe927031674997d38e5b70d9877e7826003018281548110151561325e57fe5b906000526020600020015460016040518083815260200182600381111561328157fe5b60ff1681526020019250505060405180910390a18080600101915050613107565b5060036000838152602001908152602001600020600080820160006101000a81549073ffffffffffffffffffffffffffffffffffffffff021916905560018201600090556002820160006101000a81549060ff02191690556002820160016101000a81549060ff021916905560038201600061331e919061ab19565b60048201600061332e919061ab19565b50505050565b60046020528060005260406000206000915090508060000160009054906101000a900473ffffffffffffffffffffffffffffffffffffffff16908060000160149054906101000a900460ff16908060010154905083565b6134ab846002806020026040519081016040528092919082600260200280828437600081840152601f19601f82011690508083019250505050505084600280602002604051908101604052809291906000905b82821015613432578382604002016002806020026040519081016040528092919082600260200280828437600081840152601f19601f820116905080830192505050505050815260200190600101906133de565b50505050846002806020026040519081016040528092919082600260200280828437600081840152601f19601f820116905080830192505050505050846033806020026040519081016040528092919082603360200280828437600081840152601f19601f8201169050808301925050505050506150c6565b50505050565b6000600460008381526020019081526020016000209050600060048111156134d557fe5b8160000160149054906101000a900460ff1660048111156134f257fe5b14151515613568576040517f08c379a00000000000000000000000000000000000000000000000000000000081526004018080602001828103825260148152602001807f70726f6f664861736820697320696e76616c696400000000000000000000000081525060200191505060405180910390fd5b426000548260010154011015156135e7576040517f08c379a00000000000000000000000000000000000000000000000000000000081526004018080602001828103825260118152602001807f4e6f7465206973207374696c6c20686f7400000000000000000000000000000081525060200191505060405180910390fd5b600160048111156135f457fe5b8160000160149054906101000a900460ff16600481111561361157fe5b141561362557613620826152c8565b6136dd565b6002600481111561363257fe5b8160000160149054906101000a900460ff16600481111561364f57fe5b14156136635761365e82615531565b6136dc565b6003600481111561367057fe5b8160000160149054906101000a900460ff16600481111561368d57fe5b14156136a15761369c82615aa9565b6136db565b6004808111156136ad57fe5b8160000160149054906101000a900460ff1660048111156136ca57fe5b14156136da576136d982615eb0565b5b5b5b5b5050565b600260009054906101000a900473ffffffffffffffffffffffffffffffffffffffff1681565b613827846002806020026040519081016040528092919082600260200280828437600081840152601f19601f82011690508083019250505050505084600280602002604051908101604052809291906000905b828210156137ae578382604002016002806020026040519081016040528092919082600260200280828437600081840152601f19601f8201169050808301925050505050508152602001906001019061375a565b50505050846002806020026040519081016040528092919082600260200280828437600081840152601f19601f820116905080830192505050505050846007806020026040519081016040528092919082600760200280828437600081840152601f19601f82011690508083019250505050505061677c565b50505050565b6000600360008481526020019081526020016000209050428160010154101515156138c0576040517f08c379a000000000000000000000000000000000000000000000000000000000815260040180806020018281038252600f8152602001807f506f6f6c2069732065787069726564000000000000000000000000000000000081525060200191505060405180910390fd5b8060020160009054906101000a900460ff1660ff168260ff16111580156138fd57508060020160019054906101000a900460ff1660ff168260ff16115b1515613954576040517f08c379a000000000000000000000000000000000000000000000000000000000815260040180806020018281038252604681526020018061ae476046913960600191505060405180910390fd5b60008160020160019054906101000a900460ff1660ff1690505b8260ff16811015613af857600160056000846004018481548110151561399057fe5b9060005260206000200154815260200190815260200160002060006101000a81548160ff021916908360038111156139c457fe5b021790555060026005600084600301848154811015156139e057fe5b9060005260206000200154815260200190815260200160002060006101000a81548160ff02191690836003811115613a1457fe5b02179055507f91d2faa002479f8dc4f20862402db3dba2ebe927031674997d38e5b70d9877e78260040182815481101515613a4b57fe5b9060005260206000200154600160405180838152602001826003811115613a6e57fe5b60ff1681526020019250505060405180910390a17f91d2faa002479f8dc4f20862402db3dba2ebe927031674997d38e5b70d9877e78260030182815481101515613ab457fe5b9060005260206000200154600260405180838152602001826003811115613ad757fe5b60ff1681526020019250505060405180910390a1808060010191505061396e565b50818160020160016101000a81548160ff021916908360ff160217905550505050565b6000807f30644e72e131a029b85045b68181585d2833e84879b9709143e1f593f00000019050613b4961ab3a565b613b5161697f565b90508060800151516001865101141515613b6a57600080fd5b613b7261ab83565b6040805190810160405280600081526020016000815250905060008090505b8651811015613c1657838782815181101515613ba957fe5b90602001906020020151101515613bbf57600080fd5b613c0782613c02856080015160018501815181101515613bdb57fe5b906020019060200201518a85815181101515613bf357fe5b90602001906020020151616ec2565b616f5e565b91508080600101915050613b91565b50613c3d8183608001516000815181101515613c2e57fe5b90602001906020020151616f5e565b9050613c8385600001518660200151613c558461701b565b8560400151613c678a6040015161701b565b8760600151613c79896000015161701b565b89602001516170b7565b1515613c955760019350505050613c9d565b600093505050505b92915050565b6000613cb085858561477b565b90506060601f60ff16604051908082528060200260200182016040528015613ce75781602001602082028038833980820191505090505b50905060008090505b601f60ff168160ff161015613d4157838160ff16601f81101515613d1057fe5b6020020151828260ff16815181101515613d2657fe5b90602001906020020181815250508080600101915050613cf0565b506080604051908101604052803373ffffffffffffffffffffffffffffffffffffffff168152602001600480811115613d7657fe5b8152602001428152602001828152506004600084815260200190815260200160002060008201518160000160006101000a81548173ffffffffffffffffffffffffffffffffffffffff021916908373ffffffffffffffffffffffffffffffffffffffff16021790555060208201518160000160146101000a81548160ff02191690836004811115613e0357fe5b0217905550604082015181600101556060820151816002019080519060200190613e2e92919061ab9d565b509050507f2a8c97f42d106ad000d498a1b6bf713a9365c4c1491e66fddb022f7ed07ab9343383604051808373ffffffffffffffffffffffffffffffffffffffff1673ffffffffffffffffffffffffffffffffffffffff1681526020018281526020019250505060405180910390a1505050505050565b6000807f30644e72e131a029b85045b68181585d2833e84879b9709143e1f593f00000019050613ed361ab3a565b613edb61723b565b90508060800151516001865101141515613ef457600080fd5b613efc61ab83565b6040805190810160405280600081526020016000815250905060008090505b8651811015613fa057838782815181101515613f3357fe5b90602001906020020151101515613f4957600080fd5b613f9182613f8c856080015160018501815181101515613f6557fe5b906020019060200201518a85815181101515613f7d57fe5b90602001906020020151616ec2565b616f5e565b91508080600101915050613f1b565b50613fc78183608001516000815181101515613fb857fe5b90602001906020020151616f5e565b905061400d85600001518660200151613fdf8461701b565b8560400151613ff18a6040015161701b565b8760600151614003896000015161701b565b89602001516170b7565b151561401f5760019350505050614027565b600093505050505b92915050565b600061403a85858561477b565b90506060600160040160ff166040519080825280602002602001820160405280156140745781602001602082028038833980820191505090505b50905060008090505b600460ff168160ff1610156140ce57838160ff1660048110151561409d57fe5b6020020151828260ff168151811015156140b357fe5b9060200190602002018181525050808060010191505061407d565b508673ffffffffffffffffffffffffffffffffffffffff1681600460ff168151811015156140f857fe5b90602001906020020181815250506080604051908101604052803373ffffffffffffffffffffffffffffffffffffffff1681526020016003600481111561413b57fe5b8152602001428152602001828152506004600084815260200190815260200160002060008201518160000160006101000a81548173ffffffffffffffffffffffffffffffffffffffff021916908373ffffffffffffffffffffffffffffffffffffffff16021790555060208201518160000160146101000a81548160ff021916908360048111156141c857fe5b02179055506040820151816001015560608201518160020190805190602001906141f392919061ab9d565b509050507f2a8c97f42d106ad000d498a1b6bf713a9365c4c1491e66fddb022f7ed07ab9343383604051808373ffffffffffffffffffffffffffffffffffffffff1673ffffffffffffffffffffffffffffffffffffffff1681526020018281526020019250505060405180910390a150505050505050565b6000807f30644e72e131a029b85045b68181585d2833e84879b9709143e1f593f0000001905061429961ab3a565b6142a161777e565b905080608001515160018651011415156142ba57600080fd5b6142c261ab83565b6040805190810160405280600081526020016000815250905060008090505b8651811015614366578387828151811015156142f957fe5b9060200190602002015110151561430f57600080fd5b6143578261435285608001516001850181518110151561432b57fe5b906020019060200201518a8581518110151561434357fe5b90602001906020020151616ec2565b616f5e565b915080806001019150506142e1565b5061438d818360800151600081518110151561437e57fe5b90602001906020020151616f5e565b90506143d3856000015186602001516143a58461701b565b85604001516143b78a6040015161701b565b87606001516143c9896000015161701b565b89602001516170b7565b15156143e557600193505050506143ed565b600093505050505b92915050565b6000807f30644e72e131a029b85045b68181585d2833e84879b9709143e1f593f0000001905061442161ab3a565b614429617e21565b9050806080015151600186510114151561444257600080fd5b61444a61ab83565b6040805190810160405280600081526020016000815250905060008090505b86518110156144ee5783878281518110151561448157fe5b9060200190602002015110151561449757600080fd5b6144df826144da8560800151600185018151811015156144b357fe5b906020019060200201518a858151811015156144cb57fe5b90602001906020020151616ec2565b616f5e565b91508080600101915050614469565b50614515818360800151600081518110151561450657fe5b90602001906020020151616f5e565b905061455b8560000151866020015161452d8461701b565b856040015161453f8a6040015161701b565b8760600151614551896000015161701b565b89602001516170b7565b151561456d5760019350505050614575565b600093505050505b92915050565b600061458885858561477b565b9050606060046040519080825280602002602001820160405280156145bc5781602001602082028038833980820191505090505b50905060008090505b600460ff168160ff16101561461657838160ff166004811015156145e557fe5b6020020151828260ff168151811015156145fb57fe5b906020019060200201818152505080806001019150506145c5565b506080604051908101604052803373ffffffffffffffffffffffffffffffffffffffff1681526020016001600481111561464c57fe5b8152602001428152602001828152506004600084815260200190815260200160002060008201518160000160006101000a81548173ffffffffffffffffffffffffffffffffffffffff021916908373ffffffffffffffffffffffffffffffffffffffff16021790555060208201518160000160146101000a81548160ff021916908360048111156146d957fe5b021790555060408201518160010155606082015181600201908051906020019061470492919061ab9d565b509050507f2a8c97f42d106ad000d498a1b6bf713a9365c4c1491e66fddb022f7ed07ab9343383604051808373ffffffffffffffffffffffffffffffffffffffff1673ffffffffffffffffffffffffffffffffffffffff1681526020018281526020019250505060405180910390a1505050505050565b60008383836040516020018084600260200280838360005b838110156147ae578082015181840152602081019050614793565b505050509050018360026000925b818410156148025782846020020151600260200280838360005b838110156147f15780820151818401526020810190506147d6565b5050505090500192600101926147bc565b9250505082600260200280838360005b8381101561482d578082015181840152602081019050614812565b5050505090500193505050506040516020818303038152906040528051906020012090509392505050565b600060046000838152602001908152602001600020905061487761abea565b60008090505b600460ff168110156148c957826002018181548110151561489a57fe5b906000526020600020015482826004811015156148b357fe5b602002018181525050808060010191505061487d565b506148d686868684611702565b15156149e15760046000848152602001908152602001600020600080820160006101000a81549073ffffffffffffffffffffffffffffffffffffffff02191690556000820160146101000a81549060ff02191690556001820160009055600282016000614943919061ac0d565b50503373ffffffffffffffffffffffffffffffffffffffff166108fc6001549081150290604051600060405180830381858888f1935050505015801561498d573d6000803e3d6000fd5b503373ffffffffffffffffffffffffffffffffffffffff167f12985fda7f0b862728bca0856b151f93320ceff10cbf6a49d7f294ea0aed8151846040518082815260200191505060405180910390a26149eb565b6149ea836152c8565b5b505050505050565b6000600460008381526020019081526020016000209050614a1261ac2e565b60008090505b600760ff16811015614a64578260020181815481101515614a3557fe5b90600052602060002001548282600781101515614a4e57fe5b6020020181815250508080600101915050614a18565b50614a7186868684611aff565b1515614b7c5760046000848152602001908152602001600020600080820160006101000a81549073ffffffffffffffffffffffffffffffffffffffff02191690556000820160146101000a81549060ff02191690556001820160009055600282016000614ade919061ac0d565b50503373ffffffffffffffffffffffffffffffffffffffff166108fc6001549081150290604051600060405180830381858888f19350505050158015614b28573d6000803e3d6000fd5b503373ffffffffffffffffffffffffffffffffffffffff167f12985fda7f0b862728bca0856b151f93320ceff10cbf6a49d7f294ea0aed8151846040518082815260200191505060405180910390a2614b86565b614b8583615531565b5b505050505050565b6000600460008381526020019081526020016000209050614bad61abea565b60008090505b600460ff16811015614bff578260020181815481101515614bd057fe5b90600052602060002001548282600481101515614be957fe5b6020020181815250508080600101915050614bb3565b50614c0c86868684611377565b1515614d175760046000848152602001908152602001600020600080820160006101000a81549073ffffffffffffffffffffffffffffffffffffffff02191690556000820160146101000a81549060ff02191690556001820160009055600282016000614c79919061ac0d565b50503373ffffffffffffffffffffffffffffffffffffffff166108fc6001549081150290604051600060405180830381858888f19350505050158015614cc3573d6000803e3d6000fd5b503373ffffffffffffffffffffffffffffffffffffffff167f12985fda7f0b862728bca0856b151f93320ceff10cbf6a49d7f294ea0aed8151846040518082815260200191505060405180910390a2614d21565b614d2083615aa9565b5b505050505050565b6000600460008381526020019081526020016000209050614d4861ac51565b60008090505b601360ff16811015614d9a578260020181815481101515614d6b57fe5b90600052602060002001548282601381101515614d8457fe5b6020020181815250508080600101915050614d4e565b50614da78686868461236c565b1515614eb25760046000848152602001908152602001600020600080820160006101000a81549073ffffffffffffffffffffffffffffffffffffffff02191690556000820160146101000a81549060ff02191690556001820160009055600282016000614e14919061ac0d565b50503373ffffffffffffffffffffffffffffffffffffffff166108fc6001549081150290604051600060405180830381858888f19350505050158015614e5e573d6000803e3d6000fd5b503373ffffffffffffffffffffffffffffffffffffffff167f12985fda7f0b862728bca0856b151f93320ceff10cbf6a49d7f294ea0aed8151846040518082815260200191505060405180910390a2614ebc565b614ebb836198dd565b5b505050505050565b6000614ed185858561477b565b90506060601360ff16604051908082528060200260200182016040528015614f085781602001602082028038833980820191505090505b50905060008090505b601360ff168160ff161015614f6257838160ff16601381101515614f3157fe5b6020020151828260ff16815181101515614f4757fe5b90602001906020020181815250508080600101915050614f11565b506080604051908101604052803373ffffffffffffffffffffffffffffffffffffffff168152602001600480811115614f9757fe5b8152602001428152602001828152506004600084815260200190815260200160002060008201518160000160006101000a81548173ffffffffffffffffffffffffffffffffffffffff021916908373ffffffffffffffffffffffffffffffffffffffff16021790555060208201518160000160146101000a81548160ff0219169083600481111561502457fe5b021790555060408201518160010155606082015181600201908051906020019061504f92919061ab9d565b509050507f2a8c97f42d106ad000d498a1b6bf713a9365c4c1491e66fddb022f7ed07ab9343383604051808373ffffffffffffffffffffffffffffffffffffffff1673ffffffffffffffffffffffffffffffffffffffff1681526020018281526020019250505060405180910390a1505050505050565b60006150d385858561477b565b90506060603360ff1660405190808252806020026020018201604052801561510a5781602001602082028038833980820191505090505b50905060008090505b603360ff168160ff16101561516457838160ff1660338110151561513357fe5b6020020151828260ff1681518110151561514957fe5b90602001906020020181815250508080600101915050615113565b506080604051908101604052803373ffffffffffffffffffffffffffffffffffffffff16815260200160048081111561519957fe5b8152602001428152602001828152506004600084815260200190815260200160002060008201518160000160006101000a81548173ffffffffffffffffffffffffffffffffffffffff021916908373ffffffffffffffffffffffffffffffffffffffff16021790555060208201518160000160146101000a81548160ff0219169083600481111561522657fe5b021790555060408201518160010155606082015181600201908051906020019061525192919061ab9d565b509050507f2a8c97f42d106ad000d498a1b6bf713a9365c4c1491e66fddb022f7ed07ab9343383604051808373ffffffffffffffffffffffffffffffffffffffff1673ffffffffffffffffffffffffffffffffffffffff1681526020018281526020019250505060405180910390a1505050505050565b600060046000838152602001908152602001600020905060006153238260020160008154811015156152f657fe5b906000526020600020015483600201600181548110151561531357fe5b906000526020600020015461a1a9565b90506000600381111561533257fe5b6005600083815260200190815260200160002060009054906101000a900460ff16600381111561535e57fe5b1415156153d3576040517f08c379a00000000000000000000000000000000000000000000000000000000081526004018080602001828103825260178152602001807f4e6f74652077617320616c7265616479206d696e74656400000000000000000081525060200191505060405180910390fd5b60016005600083815260200190815260200160002060006101000a81548160ff0219169083600381111561540357fe5b021790555060046000848152602001908152602001600020600080820160006101000a81549073ffffffffffffffffffffffffffffffffffffffff02191690556000820160146101000a81549060ff0219169055600182016000905560028201600061546f919061ac0d565b50508160000160009054906101000a900473ffffffffffffffffffffffffffffffffffffffff1673ffffffffffffffffffffffffffffffffffffffff166108fc6001549081150290604051600060405180830381858888f193505050501580156154dd573d6000803e3d6000fd5b507f91d2faa002479f8dc4f20862402db3dba2ebe927031674997d38e5b70d9877e78160016040518083815260200182600381111561551857fe5b60ff1681526020019250505060405180910390a1505050565b600060046000838152602001908152602001600020905061555061ac75565b6155ab826002018054806020026020016040519081016040528092919081815260200182805480156155a157602002820191906000526020600020905b81548152602001906001019080831161558d575b505050505061a307565b9050600160038111156155ba57fe5b600560008360006003811015156155cd57fe5b6020020151815260200190815260200160002060009054906101000a900460ff1660038111156155f957fe5b141515615651576040517f08c379a000000000000000000000000000000000000000000000000000000000815260040180806020018281038252602781526020018061ae206027913960400191505060405180910390fd5b6000600381111561565e57fe5b6005600083600160038110151561567157fe5b6020020151815260200190815260200160002060009054906101000a900460ff16600381111561569d57fe5b141515615712576040517f08c379a000000000000000000000000000000000000000000000000000000000815260040180806020018281038252601e8152602001807f6f7574707574206e6f74653120697320616c7265616479206d696e746564000081525060200191505060405180910390fd5b6000600381111561571f57fe5b6005600083600260038110151561573257fe5b6020020151815260200190815260200160002060009054906101000a900460ff16600381111561575e57fe5b1415156157d3576040517f08c379a000000000000000000000000000000000000000000000000000000000815260040180806020018281038252601e8152602001807f6f7574707574206e6f74653220697320616c7265616479206d696e746564000081525060200191505060405180910390fd5b6002600560008360006003811015156157e857fe5b6020020151815260200190815260200160002060006101000a81548160ff0219169083600381111561581657fe5b021790555060016005600083600160038110151561583057fe5b6020020151815260200190815260200160002060006101000a81548160ff0219169083600381111561585e57fe5b021790555060016005600083600260038110151561587857fe5b6020020151815260200190815260200160002060006101000a81548160ff021916908360038111156158a657fe5b021790555060046000848152602001908152602001600020600080820160006101000a81549073ffffffffffffffffffffffffffffffffffffffff02191690556000820160146101000a81549060ff02191690556001820160009055600282016000615912919061ac0d565b50508160000160009054906101000a900473ffffffffffffffffffffffffffffffffffffffff1673ffffffffffffffffffffffffffffffffffffffff166108fc6001549081150290604051600060405180830381858888f19350505050158015615980573d6000803e3d6000fd5b507f91d2faa002479f8dc4f20862402db3dba2ebe927031674997d38e5b70d9877e78160006003811015156159b157fe5b60200201516002604051808381526020018260038111156159ce57fe5b60ff1681526020019250505060405180910390a17f91d2faa002479f8dc4f20862402db3dba2ebe927031674997d38e5b70d9877e7816001600381101515615a1257fe5b6020020151600160405180838152602001826003811115615a2f57fe5b60ff1681526020019250505060405180910390a17f91d2faa002479f8dc4f20862402db3dba2ebe927031674997d38e5b70d9877e7816002600381101515615a7357fe5b6020020151600160405180838152602001826003811115615a9057fe5b60ff1681526020019250505060405180910390a1505050565b60006004600083815260200190815260200160002090506000615b04826002016000815481101515615ad757fe5b9060005260206000200154836002016001815481101515615af457fe5b906000526020600020015461a1a9565b905060016003811115615b1357fe5b6005600083815260200190815260200160002060009054906101000a900460ff166003811115615b3f57fe5b141515615b97576040517f08c379a000000000000000000000000000000000000000000000000000000000815260040180806020018281038252602781526020018061ae206027913960400191505060405180910390fd5b60026005600083815260200190815260200160002060006101000a81548160ff02191690836003811115615bc757fe5b02179055508160000160009054906101000a900473ffffffffffffffffffffffffffffffffffffffff1673ffffffffffffffffffffffffffffffffffffffff166108fc6001549081150290604051600060405180830381858888f19350505050158015615c38573d6000803e3d6000fd5b50600082600201600460ff16815481101515615c5057fe5b906000526020600020015490506000836002016002815481101515615c7157fe5b9060005260206000200154905060046000868152602001908152602001600020600080820160006101000a81549073ffffffffffffffffffffffffffffffffffffffff02191690556000820160146101000a81549060ff02191690556001820160009055600282016000615ce5919061ac0d565b5050600260009054906101000a900473ffffffffffffffffffffffffffffffffffffffff1673ffffffffffffffffffffffffffffffffffffffff1663a9059cbb83836040518363ffffffff167c0100000000000000000000000000000000000000000000000000000000028152600401808373ffffffffffffffffffffffffffffffffffffffff1673ffffffffffffffffffffffffffffffffffffffff16815260200182815260200192505050602060405180830381600087803b158015615dac57600080fd5b505af1158015615dc0573d6000803e3d6000fd5b505050506040513d6020811015615dd657600080fd5b81019080805190602001909291905050501515615e5b576040517f08c379a00000000000000000000000000000000000000000000000000000000081526004018080602001828103825260188152602001807f646169546f6b656e207472616e73666572206661696c6564000000000000000081525060200191505060405180910390fd5b7f91d2faa002479f8dc4f20862402db3dba2ebe927031674997d38e5b70d9877e783600260405180838152602001826003811115615e9557fe5b60ff1681526020019250505060405180910390a15050505050565b6000600460008381526020019081526020016000209050615ecf61ac98565b615f2a82600201805480602002602001604051908101604052809291908181526020018280548015615f2057602002820191906000526020600020905b815481526020019060010190808311615f0c575b505050505061a40a565b905060016003811115615f3957fe5b60056000836000600681101515615f4c57fe5b6020020151815260200190815260200160002060009054906101000a900460ff166003811115615f7857fe5b141515615fd0576040517f08c379a000000000000000000000000000000000000000000000000000000000815260040180806020018281038252602781526020018061ae206027913960400191505060405180910390fd5b6000600190505b600460020160ff168110156160b35760006003811115615ff357fe5b60056000848460068110151561600557fe5b6020020151815260200190815260200160002060009054906101000a900460ff16600381111561603157fe5b1415156160a6576040517f08c379a000000000000000000000000000000000000000000000000000000000815260040180806020018281038252601a8152602001807f4e6577206e6f746520697320616c7265616479206d696e74656400000000000081525060200191505060405180910390fd5b8080600101915050615fd7565b506002600560008360006006811015156160c957fe5b6020020151815260200190815260200160002060006101000a81548160ff021916908360038111156160f757fe5b02179055506000600190505b600460ff1681101561616357600360056000848460068110151561612357fe5b6020020151815260200190815260200160002060006101000a81548160ff0219169083600381111561615157fe5b02179055508080600101915050616103565b5060016005600083600160046002010360ff1660068110151561618257fe5b6020020151815260200190815260200160002060006101000a81548160ff021916908360038111156161b057fe5b021790555060046000848152602001908152602001600020600080820160006101000a81549073ffffffffffffffffffffffffffffffffffffffff02191690556000820160146101000a81549060ff0219169055600182016000905560028201600061621c919061ac0d565b50508160000160009054906101000a900473ffffffffffffffffffffffffffffffffffffffff1673ffffffffffffffffffffffffffffffffffffffff166108fc6001549081150290604051600060405180830381858888f1935050505015801561628a573d6000803e3d6000fd5b507f91d2faa002479f8dc4f20862402db3dba2ebe927031674997d38e5b70d9877e78160006006811015156162bb57fe5b60200201516002604051808381526020018260038111156162d857fe5b60ff1681526020019250505060405180910390a16000600190505b600460ff1681101561636c577f91d2faa002479f8dc4f20862402db3dba2ebe927031674997d38e5b70d9877e7828260068110151561632e57fe5b602002015160036040518083815260200182600381111561634b57fe5b60ff1681526020019250505060405180910390a180806001019150506162f3565b507f91d2faa002479f8dc4f20862402db3dba2ebe927031674997d38e5b70d9877e781600160046002010360ff166006811015156163a657fe5b60200201516001604051808381526020018260038111156163c357fe5b60ff1681526020019250505060405180910390a160008160006006811015156163e857fe5b602002015142604051602001808381526020018281526020019250505060405160208183030381529060405280519060200120905060006164c4846002016002806004010260ff1681548110151561643c57fe5b9060005260206000200154856002016001600280600401020160ff1681548110151561646457fe5b9060005260206000200154866002016002806002600401020160ff1681548110151561648c57fe5b9060005260206000200154876002016003600280600401020160ff168154811015156164b457fe5b906000526020600020015461a492565b905060606002600460ff168115156164d857fe5b0460ff1660405190808252806020026020018201604052801561650a5781602001602082028038833980820191505090505b50905060008090505b6002600460ff1681151561652357fe5b0460ff1681101561656d57846001820160068110151561653f57fe5b6020020151828281518110151561655257fe5b90602001906020020181815250508080600101915050616513565b5060606002600460ff1681151561658057fe5b0460ff166040519080825280602002602001820160405280156165b25781602001602082028038833980820191505090505b50905060008090505b6002600460ff168115156165cb57fe5b0460ff1681101561662a578560016002600460ff168115156165e957fe5b0460ff168301016006811015156165fc57fe5b6020020151828281518110151561660f57fe5b906020019060200201818152505080806001019150506165bb565b50600061012c905060c0604051908101604052808573ffffffffffffffffffffffffffffffffffffffff16815260200182420181526020016002600460ff1681151561667257fe5b0460ff168152602001600060ff168152602001848152602001838152506003600087815260200190815260200160002060008201518160000160006101000a81548173ffffffffffffffffffffffffffffffffffffffff021916908373ffffffffffffffffffffffffffffffffffffffff1602179055506020820151816001015560408201518160020160006101000a81548160ff021916908360ff16021790555060608201518160020160016101000a81548160ff021916908360ff160217905550608082015181600301908051906020019061675192919061acbb565b5060a082015181600401908051906020019061676e92919061acbb565b509050505050505050505050565b600061678985858561477b565b90506060600760ff166040519080825280602002602001820160405280156167c05781602001602082028038833980820191505090505b50905060008090505b600760ff168160ff16101561681a57838160ff166007811015156167e957fe5b6020020151828260ff168151811015156167ff57fe5b906020019060200201818152505080806001019150506167c9565b506080604051908101604052803373ffffffffffffffffffffffffffffffffffffffff1681526020016002600481111561685057fe5b8152602001428152602001828152506004600084815260200190815260200160002060008201518160000160006101000a81548173ffffffffffffffffffffffffffffffffffffffff021916908373ffffffffffffffffffffffffffffffffffffffff16021790555060208201518160000160146101000a81548160ff021916908360048111156168dd57fe5b021790555060408201518160010155606082015181600201908051906020019061690892919061ab9d565b509050507f2a8c97f42d106ad000d498a1b6bf713a9365c4c1491e66fddb022f7ed07ab9343383604051808373ffffffffffffffffffffffffffffffffffffffff1673ffffffffffffffffffffffffffffffffffffffff1681526020018281526020019250505060405180910390a1505050505050565b61698761ab3a565b60408051908101604052807f08e8fd47f4f47ca3bf35d3549cc9cbc9ee4980e7555623215f325533055db98481526020017effd309565aa419ab4d5b0b1356a42cbd79a90b7bf5842ec7d77fbc903ec48c8152508160000181905250604080519081016040528060408051908101604052807f191aea51714d75793ebce74e92140ff5b9a72b2b21db0e7d38a9a6f6ec561e2781526020017f125e351f64102e5ed7413e9e1ae39fcda03f94b4952ae5024c1a979032fe17a6815250815260200160408051908101604052807f2a38351dc02090cf4c992e0e79c380add7cf09e2efc156ec8638c44cb2659ae581526020017f2057aa937ac295a24afe5fe8f41bf3b726c1e9a747a3d82112eb6f21a7249e348152508152508160200181905250604080519081016040528060408051908101604052807f1596ddc83d27b9fc3e437ecfce0cfb1183aa2ec3218fe47b0dc87260e58cec0181526020017f1d1caa5d4c2f3eaf4e4a1c5834a843fa144f4ee7543144ab36cbed2d295b34b4815250815260200160408051908101604052807f082e72deb2bdb3f1c744d2faed40b40a8e0095857798f5271c975574e461682381526020017f22da6530029c6e8b34899b20fe962bcebae94f93f737268376261dd6710badc18152508152508160400181905250604080519081016040528060408051908101604052807f155465dc68c4a17a3844dca002ef1b0b361552491432dff1103ef28d66548afd81526020017f26a9b5195a4b0a709767168cfb17ffe6b006671136407b9291f20eab14133250815250815260200160408051908101604052807f15d2db06487070c5abfe868a56d6db291353a00e87a7649355e47cc04a72d94381526020017f2e8c476822f4f14713679e51ec81f3ecd7a4e058b0a8210792c16b9c5237de8981525081525081606001819052506005604051908082528060200260200182016040528015616c6d57816020015b616c5a61ad08565b815260200190600190039081616c525790505b50816080018190525060408051908101604052807f045a076654acaecf344e8d6baeac13d52868fc24c9b07a948630a01a0403307f81526020017f08781c8e5717b83d3841478ec85437ce512b9db47bc88e2d9deff51f4cc5233581525081608001516000815181101515616cde57fe5b9060200190602002018190525060408051908101604052807f030852bafbd1dca04aa84803d07f6210ab89f1b76ddecc2f530fc5bdcd9115d281526020017f134807c24cc6469a59ce3ab93874d819f1e471f432bc0381ecede614c0dfc99981525081608001516001815181101515616d5357fe5b9060200190602002018190525060408051908101604052807f229b98cb8f8aeabfd356cd7bb196730fce607346d63bb1947fed7dabdcea5e7581526020017f1edebbc7d906f9fff4f4f68ac6830e02a8850468920c597e7d121b88f8cbc3df81525081608001516002815181101515616dc857fe5b9060200190602002018190525060408051908101604052807f1396ecbae3a957f73a2becd5490d94ca78d8506c6970fb7c52b4245c3f66775481526020017f2667d1e395f4c72043b442b51ba566c5d690c7d4cf03f40f7ed37ae9f3b2e70e81525081608001516003815181101515616e3d57fe5b9060200190602002018190525060408051908101604052807f10dead365b530b87ec9aadc7ac7aa5dc2501f88a9c0dcac8f23290d6f087461281526020017f0ec800383d251bc69c0d9add8bd57daec637178b1a0663ef5b0362c545709c0b81525081608001516004815181101515616eb257fe5b9060200190602002018190525090565b616eca61ab83565b616ed261ad22565b8360000151816000600381101515616ee657fe5b6020020181815250508360200151816001600381101515616f0357fe5b60200201818152505082816002600381101515616f1c57fe5b6020020181815250506000606083608084600060076107d05a03f190508060008114616f4757616f49565bfe5b50801515616f5657600080fd5b505092915050565b616f6661ab83565b616f6e61abea565b8360000151816000600481101515616f8257fe5b6020020181815250508360200151816001600481101515616f9f57fe5b6020020181815250508260000151816002600481101515616fbc57fe5b6020020181815250508260200151816003600481101515616fd957fe5b602002018181525050600060608360c084600060066107d05a03f19050806000811461700457617006565bfe5b5080151561701357600080fd5b505092915050565b61702361ab83565b60007f30644e72e131a029b85045b68181585d97816a916871ca8d3c208c16d87cfd47905060008360000151148015617060575060008360200151145b156170845760408051908101604052806000815260200160008152509150506170b2565b6040805190810160405280846000015181526020018285602001518115156170a857fe5b0683038152509150505b919050565b6000606060046040519080825280602002602001820160405280156170f657816020015b6170e361ad08565b8152602001906001900390816170db5790505b5090506060600460405190808252806020026020018201604052801561713657816020015b61712361ad45565b81526020019060019003908161711b5790505b5090508a82600081518110151561714957fe5b906020019060200201819052508882600181518110151561716657fe5b906020019060200201819052508682600281518110151561718357fe5b90602001906020020181905250848260038151811015156171a057fe5b90602001906020020181905250898160008151811015156171bd57fe5b90602001906020020181905250878160018151811015156171da57fe5b90602001906020020181905250858160028151811015156171f757fe5b906020019060200201819052508381600381518110151561721457fe5b9060200190602002018190525061722b828261a6f0565b9250505098975050505050505050565b61724361ab3a565b60408051908101604052807f1fae4ecd413ca1398b216c0c3d4735856768fe06050310f2b24e93846e01256281526020017f2ca7db4aa700b0377527eac1d88bf9a5f8f842284b9c17e1a676b56d98275caa8152508160000181905250604080519081016040528060408051908101604052807ec057ea8c869953cc2969c8f7e9e910e92cc18db1da482fc286a04a981f3fe681526020017f2e446ad64062d0493cf452d08f1e34a67c5b0601703c392fc784156c95a934e0815250815260200160408051908101604052807f1b239ecd6bdae68953141382d2ec8fc72f0e9e9cf11663e9007ea53f6394813f81526020017f19410ee6da4a8df22efd878cae356ed8698d51c33cdfffec08e0f9a6a44dbbad8152508152508160200181905250604080519081016040528060408051908101604052807f1dd0ecca1d7d5c5fbc7ae284e7839996f853a29973c9bd6479a55bbb2e95569981526020017f2110c0b3c7870541327a141bebb6378d4b18baf07e31691cec7c5a83b2f7c9fb815250815260200160408051908101604052807f05527ea33e439dd3140d729ee1400c1d4bec2952935778f5f7aa6ab3348962fe81526020017f2fc3dd960002b28734f0c4abc84f71016ba99630778d27329be0b0b48647cce98152508152508160400181905250604080519081016040528060408051908101604052807f2917a9b462f23932acfedabc068db254e740748740d56f25781fd19c4fd5822181526020017f21dde0660f0522d7e9c0be35e560d863f1817e7751a0957996f6118182b3f797815250815260200160408051908101604052807f1065a356807947b7501cbccfa75b48996889a00fe786acf3485b803c948f38bf81526020017f2911071bd56d7a39cde796146a347efe46b15b203d4880c51bde73503ef430558152508152508160600181905250600560405190808252806020026020018201604052801561752957816020015b61751661ad08565b81526020019060019003908161750e5790505b50816080018190525060408051908101604052807f2cc870366c1940584032f6b5d6611126aa4e0f959750075f3da187a359a86f7181526020017f2de9ff6fc1eb6a6509c4b49e200e3a34e701c47890235ce7aa38d49137cbe8b08152508160800151600081518110151561759a57fe5b9060200190602002018190525060408051908101604052807f1b4a4e60b75d7b8e19f247e8ff8f598b853d1e3b8038158d59eeee4f433bbee881526020017f2ad88fd86e7b61b43116c6305146fa56cb95f90b46a37d1f5e3a6cb288868da58152508160800151600181518110151561760f57fe5b9060200190602002018190525060408051908101604052807f09eef616aeeb3bf6fe6d17a1062adaa71dd6275d9f18e031ff0dd3d2fea46c3c81526020017f1d79ff41013568cc8d15a0d2af6f824d93bf5a53aac7d8e93bd838084196252a8152508160800151600281518110151561768457fe5b9060200190602002018190525060408051908101604052807f18aac35ed4d8f4c829439fbd24fbff629e692081cacbb2a11706b8893e3acfb781526020017f0b0955aaaba3899cf0223ea2c9e5ce2348ab4b6908261023173d4b6ba90c563b815250816080015160038151811015156176f957fe5b9060200190602002018190525060408051908101604052807f0995f21c52e7bbed05a4e7d0d2917337f459780582eec68c9c4ff4ebd1b0908881526020017f11b86f307ff2eabd60791c5ec3b9982103e1a192603c8fa2075b01db454416928152508160800151600481518110151561776e57fe5b9060200190602002018190525090565b61778661ab3a565b60408051908101604052807f20b9fe1ca62313774df900438fd3830e246107902a2d25369656534a12191bdc81526020017f10b7a6d819cde096987d519b596a3156e5a78318e2bdbe9dbe6366dbf4d55b768152508160000181905250604080519081016040528060408051908101604052807f2efb46a991d60da787a1e67b0e684b23d1b060147a0f6c231c9885abd96b575181526020017f2d4dd1a82076e9d0c35d37ffdfd4cf7a1d68c364e39e85a538c756a86e9401cb815250815260200160408051908101604052807f1a6fe1a2c4b41ee3b646e0c11ca310c4b4389f9fbd4e4d8358449cd9d9d54f3081526020017f1839a05a396824760a1882f5f9845778dc7812927875b820ba4233711dea10ee8152508152508160200181905250604080519081016040528060408051908101604052807f27707ecbc54bcc5218202d918fc336dc831e766a487b01b7b1b47d48fae0b31481526020017f1ed91b5ed9d9cdf33745ddf3383848f03439dfecb4072c025860bb86b49c7eac815250815260200160408051908101604052807f0dae9423db56e2eb98ca49367c96d51118c1a20ccd1f9212dace3ea26489d22281526020017f09d0d89c6939c46b6edf5987af235d9901842955073bc729eb5b17c3c20c18878152508152508160400181905250604080519081016040528060408051908101604052807f01853360cbc79d837411a425becb39c31ac7e3db09f1f68e70ba4ebdaaaf301481526020017f1a3feb40fac7e13d8c20eeb34fb528aa1e7bf0c86d5058f4761565ed640babea815250815260200160408051908101604052807f2811cd8e2ee06c4703a138671e85084f3bc04aeaaa6c8a68fdd0ce915af0a4f281526020017f20bab6a1af8a8a4472fb0797b91a733dad961d1a4842e692381a323b92b2afdd81525081525081606001819052506008604051908082528060200260200182016040528015617a6d57816020015b617a5a61ad08565b815260200190600190039081617a525790505b50816080018190525060408051908101604052807f07150e206e48e70277361c823f8427faf72160487ce199ddb637dd80c9f6386d81526020017f01e6731c6c7f91a7b37723843b25ec2b34eeb48540692f603e93199c4bc4ad4781525081608001516000815181101515617ade57fe5b9060200190602002018190525060408051908101604052807f0a9b09eb8246f63a99e7932e76ec7e983404711b05542634128f7b661f72232781526020017f273f93d079666f85238bc1dbeb5b790d80100f07112c093a998d722f68de4f9881525081608001516001815181101515617b5357fe5b9060200190602002018190525060408051908101604052807f0bc83aa66ab8ac9a5a5a15884ea7a789c38a340627a0cf97aaf609702bdc80c381526020017f0ef40285974cfbbca1669eb7f483dd63718aa27ab0dcc336a2d2278b37b1814981525081608001516002815181101515617bc857fe5b9060200190602002018190525060408051908101604052807f08889543490ebe4a07289f5e4729376f18587426e54e775571d795781218955581526020017f20d71f616b80e28171d732a7e7d06ab3e4f18cca247ee3a87b73d2ad07bcf0f481525081608001516003815181101515617c3d57fe5b9060200190602002018190525060408051908101604052807f114335c365bc16a23a120a9f6a26743e1c214bdb8f44e72eb05d0b84cb5cfc5981526020017f0f94323442d7ca9455d13a2ec88f05a283b694504d82edf5b42ebb166e9596f881525081608001516004815181101515617cb257fe5b9060200190602002018190525060408051908101604052807f1c7f95ee0a542f7f2cffe47dc8280c0796568f4c5262dd2ac52d51c6239bb13981526020017f2154556f2853b794b5cb1f91fb494db8c2e2a6f291e46643f64c5473a7b22e2f81525081608001516005815181101515617d2757fe5b9060200190602002018190525060408051908101604052807f0e69ecc6fd75a0e6b7414a692b85ca49408ec59a46521675a0ee3c5c618da1c581526020017f13ecae5628e1dfcedefa9defe37e399b7aaf409ac31a8e53c670537e1644cb9581525081608001516006815181101515617d9c57fe5b9060200190602002018190525060408051908101604052807f1bef81a94293577959b1571d755ba28f98524761e7433b39f121b200f1fac63d81526020017f249a736c17ba9ef08b27791d4b36898b0b6ffd8e57cf5f4c851f737a917a973581525081608001516007815181101515617e1157fe5b9060200190602002018190525090565b617e2961ab3a565b60408051908101604052807f1ed79da9946f11b56739eebd69715bbd2e25ff5729f22a5c6a66a05da13a191a81526020017f0f3d7d3562bfae7b9b182baa31378442818c53518f236af47bea7d226309b95a8152508160000181905250604080519081016040528060408051908101604052807f199eaea01c7a80c7746193d62144b95f3fb5c33724eb3e49e1b2f8ba73a486b381526020017f0b4d84af9184c3252ca02f5f971b90fe93900efdf808b03ed696e727fea82fbf815250815260200160408051908101604052807f21e933dc2a5e984ca69f8452383ea2f06d8f9ff9eab57b68340238777dc0ab5481526020017f2d68b9a794081f851ab546e7b12d40425ecbd004c24b4f97901ec13d335cb37b8152508152508160200181905250604080519081016040528060408051908101604052807f14b3178b6f48c2d5ed825dd5fca853fec5155deda001ca7520ba1cb315014db881526020017f2840fb55a8f2d80c5c16c4258fbbd7cf5526a80d264c1fa8ad778ef8c65954a0815250815260200160408051908101604052807f18b08b3fa2e6be9f2da59155492c6ec8a6bb7fd35e2c3498fa5d244a8809042c81526020017f2d7ca6923359022ceabc8cc34f9191594363413b9c29269d3d95698c653f637a8152508152508160400181905250604080519081016040528060408051908101604052807f1d73a8b89eef993a52db1149768a8cb709ec7b0dbcb6f2443ccc61a4f437903381526020017f2b5e7cd3b68c1ea0facb6b06f7067792c792e7055ecbc3dd0fa64eab7a32c8b0815250815260200160408051908101604052807f0f587facfad3240307501fb092c8d6f6616058fd8c2c37b77606eeedc74143a881526020017f2db9df5074db5299c6e965a55185ad315f1334d54a14c39da486151a22f4598a8152508152508160600181905250603460405190808252806020026020018201604052801561811057816020015b6180fd61ad08565b8152602001906001900390816180f55790505b50816080018190525060408051908101604052807f020dd35a52a98c3eb52efabd69019ae7e99b208f6d03030bc5adfbd25d928c4581526020017f0d19803fd262b3000d91c66a28264b6d72029c3bcd237628cbc0afb24e13105f8152508160800151600081518110151561818157fe5b9060200190602002018190525060408051908101604052807f05bbbffcc3974d50caa9cdf5a5aaa56fec577c5e1d5af2d20718328082da8e5681526020017f03fdd236a681bef3ff224e2475e29df541ce50e2fb2e0339176967533a58c066815250816080015160018151811015156181f657fe5b9060200190602002018190525060408051908101604052807f2be0f870b4d588934105eb474bcc8cdc612789298f6e46a5287863ff96593f2381526020017f25eaeea668322d932feaee991a7de2dea0edef185431a8af87f7fad0c072e8068152508160800151600281518110151561826b57fe5b9060200190602002018190525060408051908101604052807f28457c0350cc19feb66404d4d411d1ce63158d95cdbd7b21aa63cfae7ecd40c581526020017f2abd1c98616800ca0b5f96e2eed30bc889fc1fd73258a4882194f8640ee48b9d815250816080015160038151811015156182e057fe5b9060200190602002018190525060408051908101604052807f0d137ce8d9a2b5c26af81f977a1cf7a1d4db909b3a71df203ad7c5f66faef4c681526020017efa2240a55a6c68d8aaadad1ab265d44333a908b7f41ffca29e08e425d7bc948152508160800151600481518110151561835457fe5b9060200190602002018190525060408051908101604052807f22e9b4189485d955ca8340f6efc46242d431bb4f3d1b79032dc9194c2ecb889081526020017f1c241e8037b9fbc4852de813a33c99aec7dd3f2e9e83775a17e9c4c634ecb815815250816080015160058151811015156183c957fe5b9060200190602002018190525060408051908101604052807f1aeb0dad0d37b9e3f3a31be4d3e2811019bf28eb9a3eab1d8fa192c29ae0f0a581526020017f0d9ede01e0974b2ef222fe3bb4559a357cf64283f03589c5731704179799e3918152508160800151600681518110151561843e57fe5b9060200190602002018190525060408051908101604052807f24290dbaec9d3dfa22cf349309f823ae6064fc57d014e7bcddbe962794c7ea9481526020017f2ccdb477968a52b4c640aec9d311a40954a1d19bd0dd98c8fd19c69ee61b7402815250816080015160078151811015156184b357fe5b9060200190602002018190525060408051908101604052807f1021046cd8401bbef3f49f6c267398bc5859bdb5d3764f78a83aef420d5a989081526020017f03a3358b96b2a0e97839110b5f386dbb278e8f0f997f5cf9339fbd007f13d8978152508160800151600881518110151561852857fe5b9060200190602002018190525060408051908101604052807f0a06afc1af6f719dd380173d0523d91aca4070633baac3bf103062acdf520bf181526020017f2e7735a1f7790aefb3e85f23c82000cf3d792bf7668b899e1f55991270bc95838152508160800151600981518110151561859d57fe5b9060200190602002018190525060408051908101604052807f0d33ee0d0e82a372861d6c96359ed7a62a7449d4bb24f62ad7acba33f896adbf81526020017f092729ef8405845e16e36710a9d8385dbd5a9b05be3cbc129abe585b3162766f8152508160800151600a81518110151561861257fe5b9060200190602002018190525060408051908101604052807f2495200a919c6e7ccad5fca29fdb0cbf37a9498cc69c5c8e6b726a425786a75881526020017f0cb265e93bd3da95097dde1f38640fa829fc03f4ff9fcca06389b4ef32fcaa188152508160800151600b81518110151561868757fe5b9060200190602002018190525060408051908101604052807f1104371553254e47929fe212f65697ebd63595544666a59b9b3085c5170b351781526020017f17a723f3f79ef508d17f1105f603e953dabbbc214a07ea6793aa32b2e984d5aa8152508160800151600c8151811015156186fc57fe5b9060200190602002018190525060408051908101604052807f1acf9cc232331075e2032eb34019c6dc6b62bc64d675145aecd2c19eeebeb7c481526020017f024407d354a1ea81893bcd2c14e4d7d44cc5a200177a77a1ad3dd3773d9104af8152508160800151600d81518110151561877157fe5b9060200190602002018190525060408051908101604052807f13d6028d3db314a0b3b2c905e9a86dd70abdb5cf8dc41546442ab0a7e1229f9481526020017f105502aaffaa55bfe306d105178ac09a594e834a825928c7d55a2692c6d4e2778152508160800151600e8151811015156187e657fe5b9060200190602002018190525060408051908101604052807f044e002e3bdb31b8ef305f864df043a6e7a7507635f13e28cc782d597d2e789481526020017f12350f8ffa515b984a4001560b3f676f45540a71f5b607ef0101a4dfcabdcaf08152508160800151600f81518110151561885b57fe5b9060200190602002018190525060408051908101604052807f2236070c964542f87eb497d4454b4a6043aed7a23365519266584de32ff7df7281526020017f1536f1f2bdfb14997229751232b756418c56d41bb2bef7477e739f50e8fcf459815250816080015160108151811015156188d057fe5b9060200190602002018190525060408051908101604052807f27306487092491d7f81246b8c4ef88d3d9bf9a14ca0096d95aafda09085e454081526020017f21893d2c6dd2e4c330fcb05d1c50291399a3297b5c8d92d0bab460fa592d17538152508160800151601181518110151561894557fe5b9060200190602002018190525060408051908101604052807f10332d1815729c17b8f719bfae6ae97a7f48f140804ace7ca41e9e817d9c13ae81526020017f2990e38df6aadcf78fe374ed56a239c9ff62b04a576938190e0dae278d60939b815250816080015160128151811015156189ba57fe5b9060200190602002018190525060408051908101604052807f2b47e7a80deee7fa6a5a7bdf91b0687191656c747fe873f72a139cb17571b8e981526020017f0ba81e32edb7147afad29c042b34c4846feb48ccc777a25015f7dd5f68b8d45681525081608001516013815181101515618a2f57fe5b9060200190602002018190525060408051908101604052807f1f97d3e5796503da0aea4c1527cd13cf26b7bb9238d8c20b65506c5471ad2cae81526020017f02f467e0830fc04b347b2efae09f5467fee9f4e7407b6efc1882e53eb6f2fb6781525081608001516014815181101515618aa457fe5b9060200190602002018190525060408051908101604052807f0c33390157ff4574f399da32262d3c56d7a5a8b1f5a48a56ffc78befcf2fa62b81526020017f0de06ab601e44377133cdc2c8e8a67941e4cd45a794d58138d52e6a5cfa3b06281525081608001516015815181101515618b1957fe5b9060200190602002018190525060408051908101604052807f1027fa4252ab77e93224eba29b44566543285b8568aaa948f3482f827f5a492781526020017f12ee01a0ff4129087a4bbf857aa3da67da0910417a1a7fbe078b9525953296f181525081608001516016815181101515618b8e57fe5b9060200190602002018190525060408051908101604052807f0cdc2e427b121297717ff214a295972de2ef6d1fce9221f6660873e3fda5ed1d81526020017f1f7cf55de250f325d2b49e798650c69f29566557b9fa3a1647b1aa1243a53b5781525081608001516017815181101515618c0357fe5b9060200190602002018190525060408051908101604052807f1d6f7e7614d58ea3e08f15cfdc9f5e8f66b45807182b9638fe2e84af1ecb0fa881526020017f214e1d7b6ee8218b3806d2d18c90235d7150833d6fbfda7fd2a67e8368876fe781525081608001516018815181101515618c7857fe5b9060200190602002018190525060408051908101604052807f2378c40e775af426229fc16f5347a314c528fb71996bc9c20008a82b778551bd81526020017f06f036eeb061e76eb8b40344f5ef7f5d5c4967da31c450d37fe4af6d6be03c4381525081608001516019815181101515618ced57fe5b9060200190602002018190525060408051908101604052807f0f9e3bddc5de53e2a35f6894dc97ef5a5a62c8b82be5dc18100d1bc8cb2fca7d81526020017f04f691f53d1fdeafdf490118b9f498e8ac4f5ac0c84b5d7245aee9904fe2a6bc8152508160800151601a815181101515618d6257fe5b9060200190602002018190525060408051908101604052807f09201e247155f191e96ee201917122609ef4b615565a7da536f0e4febfea50d181526020017f057589cdce6659360e347b209ccf99b5aafb36014e0956862e20e3df7155b4b08152508160800151601b815181101515618dd757fe5b9060200190602002018190525060408051908101604052807f1b108b40fb7d2422fd3aaee95a51011fee46de54e10de2a6e8f3d5902520a60c81526020017f071ef42a2f2fc2a5ddff78b7aa0e38af46649cbb512cbb365d3aac580fbdee0c8152508160800151601c815181101515618e4c57fe5b9060200190602002018190525060408051908101604052807f049f2058e407de6463472a4de94448198624dd9808598cb805ab86dfa60f3b7b81526020017f056a0cfc235dc494dfd0d589dd3f61ac17f615090a1dcfa980362058afe53f6c8152508160800151601d815181101515618ec157fe5b9060200190602002018190525060408051908101604052807f2af0324978a494f6494699320fbf4d4dfa21127836bf85b3aed382c6a273257181526020017f02c645bbf22a5ef46155d77dfd1a94e31d12d3aab961f4b4ad935d712d7da0cd8152508160800151601e815181101515618f3657fe5b9060200190602002018190525060408051908101604052807f2b50e6c9cebd2d6ab8f5dd71af661277fdca7687d6981eb26742477696fd8a1a81526020017f0b232bd48cc7eb5b82e23ef8ef9b6593835affcdbf47009455c5d53908d037c48152508160800151601f815181101515618fab57fe5b9060200190602002018190525060408051908101604052807f2688d8f571365ddde076c15df79734305df770b3f58ece06cdbeef380a9a3f0381526020017f27cb630ae0c4b42e6b24ba2d2f05098a56aea08ba3a241f6649c876aa81ac0508152508160800151602081518110151561902057fe5b9060200190602002018190525060408051908101604052807f095351dcf3408b426797489497b9d4ccdd15cc56a49b232fd0c14a9fa25af05f81526020017f22d48f590a800ab3286d011ee2f0e58d235ba10116845550ef79f9dae19ac2ca8152508160800151602181518110151561909557fe5b9060200190602002018190525060408051908101604052807f2b3a7bd8e3799169e414de6761e340372497672f7e220a999ffe61de834d622a81526020017e87d2cb4e3570bc86e027a3acd5cf75a5c3b56bd3408bba5e99a56c545a7e668152508160800151602281518110151561910957fe5b9060200190602002018190525060408051908101604052807f16dbfb84c1db0e48e9c32b2d6bc711b9432b78574694e9e5ec1095e45255865281526020017f293ea489cf6abdc6a3a6c3a036567fa15d13337a8119cb50735fe0ebc0758c0a8152508160800151602381518110151561917e57fe5b9060200190602002018190525060408051908101604052807f1f8ff4bb55f15eaebd891b351f75768e680efdaf63417dcfaa7477c746c780d681526020017f1e3261fb3d3411f25d32d4012449224992c9ef6a879d97b43947765cb83fe22f815250816080015160248151811015156191f357fe5b9060200190602002018190525060408051908101604052807f2b3fd5b94c35676c51122e5f8f075792c20dc673ccd20bd282e389df0b842a5781526020017f02c1d8c0a02485db4450c7ca2330745cb981cb7043745b8443d3807eb005acad8152508160800151602581518110151561926857fe5b9060200190602002018190525060408051908101604052807f1718344fb824d587ace64b9271131c5bdf2f087eb5ad5dc6cacfe8281c76a24f81526020017f1d23676f73ff432ed8974c148f368d4414b9983b9644580af4b615deb8c0a8f7815250816080015160268151811015156192dd57fe5b9060200190602002018190525060408051908101604052807f1a94d7719ca8c1c399cc13bb828f43fac821ba19fb65a504d23882dabcc92b3281526020017f2bdf62902d748469ec79e180527e8280aea92f8e13ed2df3ba963751c82debd68152508160800151602781518110151561935257fe5b9060200190602002018190525060408051908101604052807f27a1f82f0e9e65aee0e1e5ab0be0eec1d9cb61012a0236b1982614ce68d9688c81526020017f1a376b601792d2b93e428854b69bb1875b434174e747d29633aafc39379076d3815250816080015160288151811015156193c757fe5b9060200190602002018190525060408051908101604052807f209eedb4423f4f16bff5148cffde466375b6e7d71367bcc28362ef3c7ffc47d581526020017f08c28b7c932d2f9699ee9adc9c623765294097de430c2987b8d7de565e279aba8152508160800151602981518110151561943c57fe5b9060200190602002018190525060408051908101604052807f16d383db5c33fdc5f5c3f7ea99e985a16c4e284bf7d8059e5878163e099ab03781526020017f07e025196e49d715f708aee207d2f524324a52e1e50aa07c63f343dfeb88fd468152508160800151602a8151811015156194b157fe5b9060200190602002018190525060408051908101604052807f04dc51787bbd24d00891321cc78c4735abc3cc9c3178426435533d7b2dfb07b081526020017f2ed4e9cb67904ecf3268162f0b70acd1133274feceaa17a10553af1fb32584928152508160800151602b81518110151561952657fe5b9060200190602002018190525060408051908101604052807f2b59c1408b113513f82a3eeed15946172e74e6dfdeb0b5a6275d8804f6a8c86781526020017f05a5ab42d20271b3e785af035508ba1ca274d9cd315827580b765b73f633e31f8152508160800151602c81518110151561959b57fe5b9060200190602002018190525060408051908101604052807f1b28adedaa659462b47e9a8e5966f575b711a97b371669211cb20d6c66e5618181526020017f144b7938bf96b1473df67e67cc6cd0a90bcfc34ee8f2e4a95cff6b1d44a4577f8152508160800151602d81518110151561961057fe5b9060200190602002018190525060408051908101604052807f0663822e5aaf55ea23f8170fa9b37025379b98fd9410904ffce0ace15c40026f81526020017f0b8da81ad2b0074e5f1b9932d3e5c778ff0c54d60eb71cd5b7d1b16ef2b1d96e8152508160800151602e81518110151561968557fe5b9060200190602002018190525060408051908101604052807f13a3913c13908e82f4f6834c32450cf920d22de586d983c12b498ddd3c7e89de81526020017f2679b28b571453e5b726a32388fdd67aa06511b3038ae0a28e2949a38c0fdde28152508160800151602f8151811015156196fa57fe5b9060200190602002018190525060408051908101604052807f1a435b9387deacbb4c7d1e6eec27451bcbdb5f7de44a6cdbbbfc4f4d2946baee81526020017f2393035359746610a0e5abeb8bdc1be3dfdc0c39fb83cf084cd544f38cce05c38152508160800151603081518110151561976f57fe5b9060200190602002018190525060408051908101604052807f03faf1fd4ddbd817e7c8aa51396549672bd4931898d1eb1877832dc8593eac8381526020017f26b0850e5fa0e7000c1b4a9f33e2ce955b97ac985e4d68793cb43b5112f93e91815250816080015160318151811015156197e457fe5b9060200190602002018190525060408051908101604052807f1f14ca2c3bb374f6a3ef621c8e59bd3dc6c4cbb000000b0de43f8035447a01fe81526020017e92f7fad599d907361fcb11b044093faa60cba3dbc2daea72091777735e1ee28152508160800151603281518110151561985857fe5b9060200190602002018190525060408051908101604052807f1b9b405f3d1ee1417be36dfb2c60cd72272f2caf67c40fc15e9569bc30edc93781526020017f0cbe7a4459cfc4eb517693a3d7016f1b5fe3906960fe520286219d8c98544750815250816080015160338151811015156198cd57fe5b9060200190602002018190525090565b60006004600083815260200190815260200160002090506198fc61ad6c565b6199578260020180548060200260200160405190810160405280929190818152602001828054801561994d57602002820191906000526020600020905b815481526020019060010190808311619939575b505050505061a983565b90506001600381111561996657fe5b6005600083600060168110151561997957fe5b6020020151815260200190815260200160002060009054906101000a900460ff1660038111156199a557fe5b1415156199fd576040517f08c379a000000000000000000000000000000000000000000000000000000000815260040180806020018281038252602781526020018061ae206027913960400191505060405180910390fd5b6000600190505b601460020160ff16811015619ae05760006003811115619a2057fe5b600560008484601681101515619a3257fe5b6020020151815260200190815260200160002060009054906101000a900460ff166003811115619a5e57fe5b141515619ad3576040517f08c379a000000000000000000000000000000000000000000000000000000000815260040180806020018281038252601a8152602001807f4e6577206e6f746520697320616c7265616479206d696e74656400000000000081525060200191505060405180910390fd5b8080600101915050619a04565b50600260056000836000601681101515619af657fe5b6020020151815260200190815260200160002060006101000a81548160ff02191690836003811115619b2457fe5b02179055506000600190505b601460ff16811015619b90576003600560008484601681101515619b5057fe5b6020020151815260200190815260200160002060006101000a81548160ff02191690836003811115619b7e57fe5b02179055508080600101915050619b30565b5060016005600083600160146002010360ff16601681101515619baf57fe5b6020020151815260200190815260200160002060006101000a81548160ff02191690836003811115619bdd57fe5b021790555060046000848152602001908152602001600020600080820160006101000a81549073ffffffffffffffffffffffffffffffffffffffff02191690556000820160146101000a81549060ff02191690556001820160009055600282016000619c49919061ac0d565b50508160000160009054906101000a900473ffffffffffffffffffffffffffffffffffffffff1673ffffffffffffffffffffffffffffffffffffffff166108fc6001549081150290604051600060405180830381858888f19350505050158015619cb7573d6000803e3d6000fd5b507f91d2faa002479f8dc4f20862402db3dba2ebe927031674997d38e5b70d9877e7816000601681101515619ce857fe5b6020020151600260405180838152602001826003811115619d0557fe5b60ff1681526020019250505060405180910390a16000600190505b601460ff16811015619d99577f91d2faa002479f8dc4f20862402db3dba2ebe927031674997d38e5b70d9877e78282601681101515619d5b57fe5b6020020151600360405180838152602001826003811115619d7857fe5b60ff1681526020019250505060405180910390a18080600101915050619d20565b507f91d2faa002479f8dc4f20862402db3dba2ebe927031674997d38e5b70d9877e781600160146002010360ff16601681101515619dd357fe5b6020020151600160405180838152602001826003811115619df057fe5b60ff1681526020019250505060405180910390a16000816000601681101515619e1557fe5b60200201514260405160200180838152602001828152602001925050506040516020818303038152906040528051906020012090506000619ef1846002016002806014010260ff16815481101515619e6957fe5b9060005260206000200154856002016001600280601401020160ff16815481101515619e9157fe5b9060005260206000200154866002016002806002601401020160ff16815481101515619eb957fe5b9060005260206000200154876002016003600280601401020160ff16815481101515619ee157fe5b906000526020600020015461a492565b905060606002601460ff16811515619f0557fe5b0460ff16604051908082528060200260200182016040528015619f375781602001602082028038833980820191505090505b50905060008090505b6002601460ff16811515619f5057fe5b0460ff16811015619f9a578460018201601681101515619f6c57fe5b60200201518282815181101515619f7f57fe5b90602001906020020181815250508080600101915050619f40565b5060606002601460ff16811515619fad57fe5b0460ff16604051908082528060200260200182016040528015619fdf5781602001602082028038833980820191505090505b50905060008090505b6002601460ff16811515619ff857fe5b0460ff1681101561a057578560016002601460ff1681151561a01657fe5b0460ff1683010160168110151561a02957fe5b6020020151828281518110151561a03c57fe5b90602001906020020181815250508080600101915050619fe8565b50600061012c905060c0604051908101604052808573ffffffffffffffffffffffffffffffffffffffff16815260200182420181526020016002601460ff1681151561a09f57fe5b0460ff168152602001600060ff168152602001848152602001838152506003600087815260200190815260200160002060008201518160000160006101000a81548173ffffffffffffffffffffffffffffffffffffffff021916908373ffffffffffffffffffffffffffffffffffffffff1602179055506020820151816001015560408201518160020160006101000a81548160ff021916908360ff16021790555060608201518160020160016101000a81548160ff021916908360ff160217905550608082015181600301908051906020019061a17e92919061acbb565b5060a082015181600401908051906020019061a19b92919061acbb565b509050505050505050505050565b6000808360010290506000836001029050606060206040519080825280601f01601f19166020018201604052801561a1f05781602001600182028038833980820191505090505b50905060008090505b601081101561a2f057838160108110151561a21057fe5b1a7f010000000000000000000000000000000000000000000000000000000000000002828281518110151561a24157fe5b9060200101907effffffffffffffffffffffffffffffffffffffffffffffffffffffffffffff1916908160001a905350828160108110151561a27f57fe5b1a7f010000000000000000000000000000000000000000000000000000000000000002828260100181518110151561a2b357fe5b9060200101907effffffffffffffffffffffffffffffffffffffffffffffffffffffffffffff1916908160001a905350808060010191505061a1f9565b5061a2fc81600061aa0b565b935050505092915050565b61a30f61ac75565b61a34982600081518110151561a32157fe5b9060200190602002015183600181518110151561a33a57fe5b9060200190602002015161a1a9565b81600060038110151561a35857fe5b60200201818152505061a39b82600281518110151561a37357fe5b9060200190602002015183600381518110151561a38c57fe5b9060200190602002015161a1a9565b81600160038110151561a3aa57fe5b60200201818152505061a3ed82600481518110151561a3c557fe5b9060200190602002015183600581518110151561a3de57fe5b9060200190602002015161a1a9565b81600260038110151561a3fc57fe5b602002018181525050919050565b61a41261ac98565b60008090505b600460020160ff1681101561a48c5761a468836002830281518110151561a43b57fe5b90602001906020020151846001600285020181518110151561a45957fe5b9060200190602002015161a1a9565b828260068110151561a47657fe5b602002018181525050808060010191505061a418565b50919050565b6000808560010290506000856001029050600085600102905060008560010290506060604080519080825280601f01601f19166020018201604052801561a4e85781602001600182028038833980820191505090505b50905060008090505b601081101561a6cc57858160108110151561a50857fe5b1a7f010000000000000000000000000000000000000000000000000000000000000002828281518110151561a53957fe5b9060200101907effffffffffffffffffffffffffffffffffffffffffffffffffffffffffffff1916908160001a905350848160108110151561a57757fe5b1a7f010000000000000000000000000000000000000000000000000000000000000002828260100181518110151561a5ab57fe5b9060200101907effffffffffffffffffffffffffffffffffffffffffffffffffffffffffffff1916908160001a905350838160108110151561a5e957fe5b1a7f010000000000000000000000000000000000000000000000000000000000000002828260200181518110151561a61d57fe5b9060200101907effffffffffffffffffffffffffffffffffffffffffffffffffffffffffffff1916908160001a905350828160108110151561a65b57fe5b1a7f010000000000000000000000000000000000000000000000000000000000000002828260300181518110151561a68f57fe5b9060200101907effffffffffffffffffffffffffffffffffffffffffffffffffffffffffffff1916908160001a905350808060010191505061a4f1565b50600081805190602001209050806000526000519650505050505050949350505050565b60008151835114151561a70257600080fd5b600083519050600060068202905060608160405190808252806020026020018201604052801561a7415781602001602082028038833980820191505090505b50905060008090505b8381101561a91f57868181518110151561a76057fe5b9060200190602002015160000151826000600684020181518110151561a78257fe5b9060200190602002018181525050868181518110151561a79e57fe5b9060200190602002015160200151826001600684020181518110151561a7c057fe5b9060200190602002018181525050858181518110151561a7dc57fe5b9060200190602002015160000151600060028110151561a7f857fe5b6020020151826002600684020181518110151561a81157fe5b9060200190602002018181525050858181518110151561a82d57fe5b9060200190602002015160000151600160028110151561a84957fe5b6020020151826003600684020181518110151561a86257fe5b9060200190602002018181525050858181518110151561a87e57fe5b9060200190602002015160200151600060028110151561a89a57fe5b6020020151826004600684020181518110151561a8b357fe5b9060200190602002018181525050858181518110151561a8cf57fe5b9060200190602002015160200151600160028110151561a8eb57fe5b6020020151826005600684020181518110151561a90457fe5b9060200190602002018181525050808060010191505061a74a565b5061a92861ad90565b60006020826020860260208601600060086107d05a03f19050806000811461a94f5761a951565bfe5b5080151561a95e57600080fd5b600082600060018110151561a96f57fe5b602002015114159550505050505092915050565b61a98b61ad6c565b60008090505b601460020160ff1681101561aa055761a9e1836002830281518110151561a9b457fe5b90602001906020020151846001600285020181518110151561a9d257fe5b9060200190602002015161a1a9565b828260168110151561a9ef57fe5b602002018181525050808060010191505061a991565b50919050565b600080600090505b602081101561aadd576008810260ff7f0100000000000000000000000000000000000000000000000000000000000000028583860181518110151561aa5457fe5b9060200101517f010000000000000000000000000000000000000000000000000000000000000090047f010000000000000000000000000000000000000000000000000000000000000002167effffffffffffffffffffffffffffffffffffffffffffffffffffffffffffff1916908060020a820491505082179150808060010191505061aa13565b5092915050565b6101006040519081016040528061aaf961ad08565b815260200161ab0661ad45565b815260200161ab1361ad08565b81525090565b508054600082559060005260206000209081019061ab37919061adb3565b50565b6101e06040519081016040528061ab4f61ad08565b815260200161ab5c61ad45565b815260200161ab6961ad45565b815260200161ab7661ad45565b8152602001606081525090565b604080519081016040528060008152602001600081525090565b82805482825590600052602060002090810192821561abd9579160200282015b8281111561abd857825182559160200191906001019061abbd565b5b50905061abe6919061add8565b5090565b608060405190810160405280600490602082028038833980820191505090505090565b508054600082559060005260206000209081019061ac2b919061add8565b50565b60e060405190810160405280600790602082028038833980820191505090505090565b61026060405190810160405280601390602082028038833980820191505090505090565b606060405190810160405280600390602082028038833980820191505090505090565b60c060405190810160405280600690602082028038833980820191505090505090565b82805482825590600052602060002090810192821561acf7579160200282015b8281111561acf657825182559160200191906001019061acdb565b5b50905061ad04919061adb3565b5090565b604080519081016040528060008152602001600081525090565b606060405190810160405280600390602082028038833980820191505090505090565b60806040519081016040528061ad5961adfd565b815260200161ad6661adfd565b81525090565b6102c060405190810160405280601690602082028038833980820191505090505090565b602060405190810160405280600190602082028038833980820191505090505090565b61add591905b8082111561add157600081600090555060010161adb9565b5090565b90565b61adfa91905b8082111561adf657600081600090555060010161adde565b5090565b90565b604080519081016040528060029060208202803883398082019150509050509056fe4e6f74652069732065697468657220696e76616c6964206f7220616c7265616479207370656e747472616e736665724e6f7465734e756d206973206c6f776572207468616e206c6173744e6f7465734e756d206f7220626967676572207468616e206d61784e6f7465734e756d4e6f74652063616e6e6f74206265206368616c6c656e67656420616e796d6f72655472616e73616374696f6e207375636365737366756c6c792076657269666965642e546865207369676e20646f6573206e6f74206d61746368206d706b20416464726573736d706b204164647265737320646f6573206e6f74206d61746368206d706b206164647265737320696e207061796d656e745478436f72726573706f6e64696e672068617368206f662070726f6f6620646f65736e74206578697374a165627a7a723058202b65801ce9695811a29a2a7a1320333e67d605f031cbba7ef5bcbbb04be05e440029",
  "source": "pragma solidity ^0.5.2;\n\nimport \"@openzeppelin/contracts/token/ERC20/ERC20.sol\";\nimport \"./MintNotes.sol\";\nimport \"./SpendNotes.sol\";\nimport \"./LiquidateNotes.sol\";\nimport \"./DepositNotes2.sol\";\nimport \"./DepositNotes5.sol\";\nimport \"./DepositNotes10.sol\";\n\ncontract ZkDai is MintNotes, SpendNotes, DepositNotes2, DepositNotes5, DepositNotes10, LiquidateNotes {\n//contract ZkDai is MintNotes, SpendNotes, LiquidateNotes {\n\n  modifier validStake(uint256 _stake)\n  {\n      require(_stake == stake, \"Invalid stake amount\");\n      _;\n  }\n\n  constructor(uint256 _cooldown, uint256 _stake, address daiTokenAddress)\n    public\n  {\n      cooldown = _cooldown;\n      stake = _stake;\n      dai = ERC20(daiTokenAddress);\n  }\n\n  /**\n  * @dev Transfers specified number of dai tokens to itself and submits the zkSnark proof to mint a new note\n  * @notice params: a, a_p, b, b_p, c, c_p, h, k zkSnark parameters\n  * @param input Public inputs of the zkSnark\n  */\n  function mint(\n      uint256[2] calldata a,\n      uint256[2][2] calldata b,\n      uint256[2] calldata c,\n      uint256[4] calldata input)\n    external\n    payable\n    validStake(msg.value)\n  {\n      require(\n        dai.transferFrom(msg.sender, address(this), uint256(input[2]) /* value */),\n        \"daiToken transfer failed\"\n      );\n      MintNotes.submit(a, b, c, input);\n  }\n\n  /**\n  * @dev Submits the zkSnark proof to be able to spend a note and create two new notes\n  * @notice params: a, a_p, b, b_p, c, c_p, h, k zkSnark parameters\n  * @param input Public inputs of the zkSnark\n  */\n  function spend(\n      uint256[2] calldata a,\n      uint256[2][2] calldata b,\n      uint256[2] calldata c,\n      uint256[7] calldata input)\n    external\n    payable\n    //validStake(msg.value)\n  {\n      SpendNotes.submit(a, b, c, input);\n  }\n\n\n  function deposit_2(\n    uint256[2] calldata a,\n    uint256[2][2] calldata b,\n    uint256[2] calldata c,\n    uint256[19] calldata input)\n  external\n  payable\n  {\n    DepositNotes2.submit(a, b, c, input);\n  }\n\n  function deposit_5(\n    uint256[2] calldata a,\n    uint256[2][2] calldata b,\n    uint256[2] calldata c,\n    uint256[31] calldata input)\n  external\n  payable\n  {\n    DepositNotes5.submit(a, b, c, input);\n  }\n\n  function deposit_10(\n    uint256[2] calldata a,\n    uint256[2][2] calldata b,\n    uint256[2] calldata c,\n    uint256[51] calldata input)\n  external\n  payable\n  {\n    DepositNotes10.submit(a, b, c, input);\n  }\n\n  /**\n  * @dev Liquidate a note to transfer the equivalent amount of dai to the recipient\n  * @param to Recipient of the dai tokens\n  * @notice params: a, a_p, b, b_p, c, c_p, h, k zkSnark parameters\n  * @param input Public inputs of the zkSnark\n  */\n  function liquidate(\n      address to,\n      uint256[2] calldata a,\n      uint256[2][2] calldata b,\n      uint256[2] calldata c,\n      uint256[4] calldata input)\n    external\n    payable\n    //validStake(msg.value)\n  {\n      LiquidateNotes.submit(to, a, b, c,input);\n  }\n\n  /**\n  * @dev Challenge the mint or spend proofs and claim the stake amount if challenge passes.\n  * @notice If challenge passes, the challenger claims the stake amount,\n  *         otherwise note(s) are committed/spent and stake is transferred back to proof submitter.\n  * @notice params: a, a_p, b, b_p, c, c_p, h, k zkSnark parameters of the challenged proof\n  */\n  function challenge(\n      uint256[2] calldata a,\n      uint256[2][2] calldata b,\n      uint256[2] calldata c)\n    external\n  {\n      bytes32 proofHash = getProofHash(a, b, c);\n      Submission storage submission = submissions[proofHash];\n      require(submission.sType != SubmissionType.Invalid, \"Corresponding hash of proof doesnt exist\");\n      require(submission.submittedAt + cooldown >= now, \"Note cannot be challenged anymore\");\n      if (submission.sType == SubmissionType.Mint) {\n        MintNotes.challenge(a, b, c, proofHash);\n      } else if (submission.sType == SubmissionType.Spend) {\n        SpendNotes.challenge(a, b, c, proofHash);\n      } else if (submission.sType == SubmissionType.Liquidate) {\n        LiquidateNotes.challenge(a, b, c, proofHash);\n      } else if (submission.sType == SubmissionType.Deposit) {\n        DepositNotes2.challenge(a, b, c, proofHash);\n      }\n  }\n\n  /**\n  * @dev Commit a particular proof once the challenge period has ended\n  * @param proofHash Hash of the proof that needs to be committed\n  */\n  function commit(bytes32 proofHash)\n    public\n  {\n      Submission storage submission = submissions[proofHash];\n      require(submission.sType != SubmissionType.Invalid, \"proofHash is invalid\");\n      require(submission.submittedAt + cooldown < now, \"Note is still hot\");\n      if (submission.sType == SubmissionType.Mint) {\n        mintCommit(proofHash);\n      } else if (submission.sType == SubmissionType.Spend) {\n        spendCommit(proofHash);\n      } else if (submission.sType == SubmissionType.Liquidate) {\n        liquidateCommit(proofHash);\n      } else if (submission.sType == SubmissionType.Deposit) {\n        DepositNotes2.depositCommit(proofHash);\n      }\n  }\n}\n",
  "sourcePath": "/home/boo/work/LightningZKP/contracts/ZkDai.sol",
  "compiler": {
    "name": "solc",
    "version": "0.5.2+commit.1df8f40c.Emscripten.clang"
  },
  "schemaVersion": "3.0.16",
  "updatedAt": "2019-10-17T09:24:36.755Z",
  "devdoc": {
    "methods": {
      "challenge(uint256[2],uint256[2][2],uint256[2])": {
        "details": "Challenge the mint or spend proofs and claim the stake amount if challenge passes."
      },
      "commit(bytes32)": {
        "details": "Commit a particular proof once the challenge period has ended",
        "params": {
          "proofHash": "Hash of the proof that needs to be committed"
        }
      },
      "liquidate(address,uint256[2],uint256[2][2],uint256[2],uint256[4])": {
        "details": "Liquidate a note to transfer the equivalent amount of dai to the recipient",
        "params": {
          "input": "Public inputs of the zkSnark",
          "to": "Recipient of the dai tokens"
        }
      },
      "mint(uint256[2],uint256[2][2],uint256[2],uint256[4])": {
        "details": "Transfers specified number of dai tokens to itself and submits the zkSnark proof to mint a new note",
        "params": {
          "input": "Public inputs of the zkSnark"
        }
      },
      "spend(uint256[2],uint256[2][2],uint256[2],uint256[7])": {
        "details": "Submits the zkSnark proof to be able to spend a note and create two new notes",
        "params": {
          "input": "Public inputs of the zkSnark"
        }
      }
    }
  },
  "userdoc": {
    "methods": {
      "challenge(uint256[2],uint256[2][2],uint256[2])": {
        "notice": "If challenge passes, the challenger claims the stake amount,        otherwise note(s) are committed/spent and stake is transferred back to proof submitter.params: a, a_p, b, b_p, c, c_p, h, k zkSnark parameters of the challenged proof"
      },
      "liquidate(address,uint256[2],uint256[2][2],uint256[2],uint256[4])": {
        "notice": "params: a, a_p, b, b_p, c, c_p, h, k zkSnark parameters"
      },
      "mint(uint256[2],uint256[2][2],uint256[2],uint256[4])": {
        "notice": "params: a, a_p, b, b_p, c, c_p, h, k zkSnark parameters"
      },
      "spend(uint256[2],uint256[2][2],uint256[2],uint256[7])": {
        "notice": "params: a, a_p, b, b_p, c, c_p, h, k zkSnark parameters"
      }
    }
  }
}