{
  "contractName": "ZkDai",
  "abi": [
    {
      "constant": false,
      "inputs": [
        {
          "name": "a",
          "type": "uint256[2]"
        },
        {
          "name": "b",
          "type": "uint256[2][2]"
        },
        {
          "name": "c",
          "type": "uint256[2]"
        },
        {
          "name": "input",
          "type": "uint256[4]"
        }
      ],
      "name": "liquidateVerifyTx",
      "outputs": [
        {
          "name": "r",
          "type": "bool"
        }
      ],
      "payable": false,
      "stateMutability": "nonpayable",
      "type": "function"
    },
    {
      "constant": false,
      "inputs": [
        {
          "name": "a",
          "type": "uint256[2]"
        },
        {
          "name": "b",
          "type": "uint256[2][2]"
        },
        {
          "name": "c",
          "type": "uint256[2]"
        },
        {
          "name": "input",
          "type": "uint256[4]"
        }
      ],
      "name": "mintVerifyTx",
      "outputs": [
        {
          "name": "r",
          "type": "bool"
        }
      ],
      "payable": false,
      "stateMutability": "nonpayable",
      "type": "function"
    },
    {
      "constant": true,
      "inputs": [
        {
          "name": "",
          "type": "bytes32"
        }
      ],
      "name": "depositPools",
      "outputs": [
        {
          "name": "mpkAddress",
          "type": "address"
        },
        {
          "name": "expiredTime",
          "type": "uint256"
        },
        {
          "name": "maxNotesNum",
          "type": "uint8"
        },
        {
          "name": "lastNotesNum",
          "type": "uint8"
        }
      ],
      "payable": false,
      "stateMutability": "view",
      "type": "function"
    },
    {
      "constant": true,
      "inputs": [],
      "name": "stake",
      "outputs": [
        {
          "name": "",
          "type": "uint256"
        }
      ],
      "payable": false,
      "stateMutability": "view",
      "type": "function"
    },
    {
      "constant": false,
      "inputs": [
        {
          "name": "a",
          "type": "uint256[2]"
        },
        {
          "name": "b",
          "type": "uint256[2][2]"
        },
        {
          "name": "c",
          "type": "uint256[2]"
        },
        {
          "name": "input",
          "type": "uint256[7]"
        }
      ],
      "name": "spendVerifyTx",
      "outputs": [
        {
          "name": "r",
          "type": "bool"
        }
      ],
      "payable": false,
      "stateMutability": "nonpayable",
      "type": "function"
    },
    {
      "constant": true,
      "inputs": [],
      "name": "cooldown",
      "outputs": [
        {
          "name": "",
          "type": "uint256"
        }
      ],
      "payable": false,
      "stateMutability": "view",
      "type": "function"
    },
    {
      "constant": true,
      "inputs": [
        {
          "name": "",
          "type": "bytes32"
        }
      ],
      "name": "notes",
      "outputs": [
        {
          "name": "",
          "type": "uint8"
        }
      ],
      "payable": false,
      "stateMutability": "view",
      "type": "function"
    },
    {
      "constant": true,
      "inputs": [
        {
          "name": "",
          "type": "bytes32"
        }
      ],
      "name": "submissions",
      "outputs": [
        {
          "name": "submitter",
          "type": "address"
        },
        {
          "name": "sType",
          "type": "uint8"
        },
        {
          "name": "submittedAt",
          "type": "uint256"
        }
      ],
      "payable": false,
      "stateMutability": "view",
      "type": "function"
    },
    {
      "constant": true,
      "inputs": [],
      "name": "dai",
      "outputs": [
        {
          "name": "",
          "type": "address"
        }
      ],
      "payable": false,
      "stateMutability": "view",
      "type": "function"
    },
    {
      "inputs": [
        {
          "name": "_cooldown",
          "type": "uint256"
        },
        {
          "name": "_stake",
          "type": "uint256"
        },
        {
          "name": "daiTokenAddress",
          "type": "address"
        }
      ],
      "payable": false,
      "stateMutability": "nonpayable",
      "type": "constructor"
    },
    {
      "anonymous": false,
      "inputs": [
        {
          "indexed": false,
          "name": "note",
          "type": "bytes32"
        },
        {
          "indexed": false,
          "name": "state",
          "type": "uint8"
        }
      ],
      "name": "NoteStateChange",
      "type": "event"
    },
    {
      "anonymous": false,
      "inputs": [
        {
          "indexed": false,
          "name": "submitter",
          "type": "address"
        },
        {
          "indexed": false,
          "name": "proofHash",
          "type": "bytes32"
        }
      ],
      "name": "Submitted",
      "type": "event"
    },
    {
      "anonymous": false,
      "inputs": [
        {
          "indexed": false,
          "name": "mpkAddress",
          "type": "address"
        },
        {
          "indexed": false,
          "name": "poolId",
          "type": "bytes32"
        }
      ],
      "name": "Deposited",
      "type": "event"
    },
    {
      "anonymous": false,
      "inputs": [
        {
          "indexed": true,
          "name": "challenger",
          "type": "address"
        },
        {
          "indexed": false,
          "name": "proofHash",
          "type": "bytes32"
        }
      ],
      "name": "Challenged",
      "type": "event"
    },
    {
      "anonymous": false,
      "inputs": [
        {
          "indexed": false,
          "name": "s",
          "type": "string"
        }
      ],
      "name": "LiquidateVerified",
      "type": "event"
    },
    {
      "anonymous": false,
      "inputs": [
        {
          "indexed": false,
          "name": "s",
          "type": "string"
        }
      ],
      "name": "SpendVerified",
      "type": "event"
    },
    {
      "anonymous": false,
      "inputs": [
        {
          "indexed": false,
          "name": "s",
          "type": "string"
        }
      ],
      "name": "MintVerified",
      "type": "event"
    },
    {
      "constant": false,
      "inputs": [
        {
          "name": "a",
          "type": "uint256[2]"
        },
        {
          "name": "b",
          "type": "uint256[2][2]"
        },
        {
          "name": "c",
          "type": "uint256[2]"
        },
        {
          "name": "input",
          "type": "uint256[4]"
        }
      ],
      "name": "mint",
      "outputs": [],
      "payable": true,
      "stateMutability": "payable",
      "type": "function"
    },
    {
      "constant": false,
      "inputs": [
        {
          "name": "a",
          "type": "uint256[2]"
        },
        {
          "name": "b",
          "type": "uint256[2][2]"
        },
        {
          "name": "c",
          "type": "uint256[2]"
        },
        {
          "name": "input",
          "type": "uint256[7]"
        }
      ],
      "name": "spend",
      "outputs": [],
      "payable": true,
      "stateMutability": "payable",
      "type": "function"
    },
    {
      "constant": false,
      "inputs": [
        {
          "name": "to",
          "type": "address"
        },
        {
          "name": "a",
          "type": "uint256[2]"
        },
        {
          "name": "b",
          "type": "uint256[2][2]"
        },
        {
          "name": "c",
          "type": "uint256[2]"
        },
        {
          "name": "input",
          "type": "uint256[4]"
        }
      ],
      "name": "liquidate",
      "outputs": [],
      "payable": true,
      "stateMutability": "payable",
      "type": "function"
    },
    {
      "constant": false,
      "inputs": [
        {
          "name": "a",
          "type": "uint256[2]"
        },
        {
          "name": "b",
          "type": "uint256[2][2]"
        },
        {
          "name": "c",
          "type": "uint256[2]"
        }
      ],
      "name": "challenge",
      "outputs": [],
      "payable": false,
      "stateMutability": "nonpayable",
      "type": "function"
    },
    {
      "constant": false,
      "inputs": [
        {
          "name": "proofHash",
          "type": "bytes32"
        }
      ],
      "name": "commit",
      "outputs": [],
      "payable": false,
      "stateMutability": "nonpayable",
      "type": "function"
    }
  ],
  "bytecode": "0x60806040523480156200001157600080fd5b5060405160608062005819833981018060405260608110156200003357600080fd5b81019080805190602001909291908051906020019092919080519060200190929190505050826000819055508160018190555080600260006101000a81548173ffffffffffffffffffffffffffffffffffffffff021916908373ffffffffffffffffffffffffffffffffffffffff16021790555050505061575f80620000ba6000396000f3fe6080604052600436106100fa576000357c010000000000000000000000000000000000000000000000000000000090048063787a08a61161009c578063c5c9c0a211610076578063c5c9c0a2146107ea578063f14fcbc814610881578063f4b9fa75146108bc578063fd696b6e14610913576100fa565b8063787a08a6146107125780637f67df4c1461073d57806385de26b71461078d576100fa565b80633a4b66f1116100d85780633a4b66f1146104a757806355258f7b146104d25780635c9985271461053f5780637255ae7b146106c5576100fa565b80631210c56d146100ff5780631fa41b3f1461028557806338cd80931461040b575b600080fd5b34801561010b57600080fd5b5061026b600480360361018081101561012357600080fd5b8101908080604001906002806020026040519081016040528092919082600260200280828437600081840152601f19601f82011690508083019250505050505091929192908060800190600280602002604051908101604052809291906000905b828210156101d8578382604002016002806020026040519081016040528092919082600260200280828437600081840152601f19601f82011690508083019250505050505081526020019060010190610184565b50505050919291929080604001906002806020026040519081016040528092919082600260200280828437600081840152601f19601f820116905080830192505050505050919291929080608001906004806020026040519081016040528092919082600460200280828437600081840152601f19601f8201169050808301925050505050509192919290505050610960565b604051808215151515815260200191505060405180910390f35b34801561029157600080fd5b506103f160048036036101808110156102a957600080fd5b8101908080604001906002806020026040519081016040528092919082600260200280828437600081840152601f19601f82011690508083019250505050505091929192908060800190600280602002604051908101604052809291906000905b8282101561035e578382604002016002806020026040519081016040528092919082600260200280828437600081840152601f19601f8201169050808301925050505050508152602001906001019061030a565b50505050919291929080604001906002806020026040519081016040528092919082600260200280828437600081840152601f19601f820116905080830192505050505050919291929080608001906004806020026040519081016040528092919082600460200280828437600081840152601f19601f8201169050808301925050505050509192919290505050610bc5565b604051808215151515815260200191505060405180910390f35b34801561041757600080fd5b506104446004803603602081101561042e57600080fd5b8101908080359060200190929190505050610e2a565b604051808573ffffffffffffffffffffffffffffffffffffffff1673ffffffffffffffffffffffffffffffffffffffff1681526020018481526020018360ff1660ff1681526020018260ff1660ff16815260200194505050505060405180910390f35b3480156104b357600080fd5b506104bc610e94565b6040518082815260200191505060405180910390f35b61053d60048036036101a08110156104e957600080fd5b81019080803573ffffffffffffffffffffffffffffffffffffffff16906020019092919080604001909192919290806080019091929192908060400190919291929080608001909192919290505050610e9a565b005b34801561054b57600080fd5b506106ab60048036036101e081101561056357600080fd5b8101908080604001906002806020026040519081016040528092919082600260200280828437600081840152601f19601f82011690508083019250505050505091929192908060800190600280602002604051908101604052809291906000905b82821015610618578382604002016002806020026040519081016040528092919082600260200280828437600081840152601f19601f820116905080830192505050505050815260200190600101906105c4565b50505050919291929080604001906002806020026040519081016040528092919082600260200280828437600081840152601f19601f82011690508083019250505050505091929192908060e001906007806020026040519081016040528092919082600760200280828437600081840152601f19601f8201169050808301925050505050509192919290505050610fc2565b604051808215151515815260200191505060405180910390f35b61071060048036036101808110156106dc57600080fd5b8101908080604001909192919290806080019091929192908060400190919291929080608001909192919290505050611227565b005b34801561071e57600080fd5b50610727611508565b6040518082815260200191505060405180910390f35b34801561074957600080fd5b5061078b600480360361010081101561076157600080fd5b8101908080604001909192919290806080019091929192908060400190919291929050505061150e565b005b34801561079957600080fd5b506107c6600480360360208110156107b057600080fd5b81019080803590602001909291905050506119f3565b604051808260038111156107d657fe5b60ff16815260200191505060405180910390f35b3480156107f657600080fd5b506108236004803603602081101561080d57600080fd5b8101908080359060200190929190505050611a13565b604051808473ffffffffffffffffffffffffffffffffffffffff1673ffffffffffffffffffffffffffffffffffffffff16815260200183600481111561086557fe5b60ff168152602001828152602001935050505060405180910390f35b34801561088d57600080fd5b506108ba600480360360208110156108a457600080fd5b8101908080359060200190929190505050611a6a565b005b3480156108c857600080fd5b506108d1611c5c565b604051808273ffffffffffffffffffffffffffffffffffffffff1673ffffffffffffffffffffffffffffffffffffffff16815260200191505060405180910390f35b61095e60048036036101e081101561092a57600080fd5b810190808060400190919291929080608001909192919290806040019091929192908060e001909192919290505050611c82565b005b600061096a615485565b604080519081016040528087600060028110151561098457fe5b6020020151815260200187600160028110151561099d57fe5b60200201518152508160000181905250604080519081016040528060408051908101604052808860006002811015156109d257fe5b602002015160006002811015156109e557fe5b602002015181526020018860006002811015156109fe57fe5b60200201516001600281101515610a1157fe5b602002015181525081526020016040805190810160405280886001600281101515610a3857fe5b60200201516000600281101515610a4b57fe5b60200201518152602001886001600281101515610a6457fe5b60200201516001600281101515610a7757fe5b602002015181525081525081602001819052506040805190810160405280856000600281101515610aa457fe5b60200201518152602001856001600281101515610abd57fe5b6020020151815250816040018190525060606004604051908082528060200260200182016040528015610aff5781602001602082028038833980820191505090505b50905060008090505b6004811015610b4d578481600481101515610b1f57fe5b60200201518282815181101515610b3257fe5b90602001906020020181815250508080600101915050610b08565b506000610b5a8284611da8565b1415610bb6577f46d48f0a138fd14dfc4a9086422b1a886a0f02eade5d6abef007754fe4b06bc06040518080602001828103825260228152602001806156ea6022913960400191505060405180910390a1600192505050610bbd565b6000925050505b949350505050565b6000610bcf615485565b6040805190810160405280876000600281101515610be957fe5b60200201518152602001876001600281101515610c0257fe5b6020020151815250816000018190525060408051908101604052806040805190810160405280886000600281101515610c3757fe5b60200201516000600281101515610c4a57fe5b60200201518152602001886000600281101515610c6357fe5b60200201516001600281101515610c7657fe5b602002015181525081526020016040805190810160405280886001600281101515610c9d57fe5b60200201516000600281101515610cb057fe5b60200201518152602001886001600281101515610cc957fe5b60200201516001600281101515610cdc57fe5b602002015181525081525081602001819052506040805190810160405280856000600281101515610d0957fe5b60200201518152602001856001600281101515610d2257fe5b6020020151815250816040018190525060606004604051908082528060200260200182016040528015610d645781602001602082028038833980820191505090505b50905060008090505b6004811015610db2578481600481101515610d8457fe5b60200201518282815181101515610d9757fe5b90602001906020020181815250508080600101915050610d6d565b506000610dbf8284611f30565b1415610e1b577f2cef7d724e9df39531c164620567bd12bd8ca7b47fa53317f1078c2f2d5951ce6040518080602001828103825260228152602001806156ea6022913960400191505060405180910390a1600192505050610e22565b6000925050505b949350505050565b60036020528060005260406000206000915090508060000160009054906101000a900473ffffffffffffffffffffffffffffffffffffffff16908060010154908060020160009054906101000a900460ff16908060020160019054906101000a900460ff16905084565b60015481565b610fbb85856002806020026040519081016040528092919082600260200280828437600081840152601f19601f82011690508083019250505050505085600280602002604051908101604052809291906000905b82821015610f42578382604002016002806020026040519081016040528092919082600260200280828437600081840152601f19601f82011690508083019250505050505081526020019060010190610eee565b50505050856002806020026040519081016040528092919082600260200280828437600081840152601f19601f820116905080830192505050505050856004806020026040519081016040528092919082600460200280828437600081840152601f19601f8201169050808301925050505050506120b8565b5050505050565b6000610fcc615485565b6040805190810160405280876000600281101515610fe657fe5b60200201518152602001876001600281101515610fff57fe5b602002015181525081600001819052506040805190810160405280604080519081016040528088600060028110151561103457fe5b6020020151600060028110151561104757fe5b6020020151815260200188600060028110151561106057fe5b6020020151600160028110151561107357fe5b60200201518152508152602001604080519081016040528088600160028110151561109a57fe5b602002015160006002811015156110ad57fe5b602002015181526020018860016002811015156110c657fe5b602002015160016002811015156110d957fe5b60200201518152508152508160200181905250604080519081016040528085600060028110151561110657fe5b6020020151815260200185600160028110151561111f57fe5b60200201518152508160400181905250606060076040519080825280602002602001820160405280156111615781602001602082028038833980820191505090505b50905060008090505b60078110156111af57848160078110151561118157fe5b6020020151828281518110151561119457fe5b9060200190602002018181525050808060010191505061116a565b5060006111bc82846122f6565b1415611218577ff6cb06d2e93a0bf2c44f15288883c84bd0564b45a72d58a8b0793915bd00eb1b6040518080602001828103825260228152602001806156ea6022913960400191505060405180910390a160019250505061121f565b6000925050505b949350505050565b600260009054906101000a900473ffffffffffffffffffffffffffffffffffffffff1673ffffffffffffffffffffffffffffffffffffffff166323b872dd333084600260048110151561127657fe5b60200201356040518463ffffffff167c0100000000000000000000000000000000000000000000000000000000028152600401808473ffffffffffffffffffffffffffffffffffffffff1673ffffffffffffffffffffffffffffffffffffffff1681526020018373ffffffffffffffffffffffffffffffffffffffff1673ffffffffffffffffffffffffffffffffffffffff1681526020018281526020019350505050602060405180830381600087803b15801561133357600080fd5b505af1158015611347573d6000803e3d6000fd5b505050506040513d602081101561135d57600080fd5b810190808051906020019092919050505015156113e2576040517f08c379a00000000000000000000000000000000000000000000000000000000081526004018080602001828103825260188152602001807f646169546f6b656e207472616e73666572206661696c6564000000000000000081525060200191505060405180910390fd5b611502846002806020026040519081016040528092919082600260200280828437600081840152601f19601f82011690508083019250505050505084600280602002604051908101604052809291906000905b82821015611489578382604002016002806020026040519081016040528092919082600260200280828437600081840152601f19601f82011690508083019250505050505081526020019060010190611435565b50505050846002806020026040519081016040528092919082600260200280828437600081840152601f19601f820116905080830192505050505050846004806020026040519081016040528092919082600460200280828437600081840152601f19601f82011690508083019250505050505061247e565b50505050565b60005481565b60006115f8846002806020026040519081016040528092919082600260200280828437600081840152601f19601f82011690508083019250505050505084600280602002604051908101604052809291906000905b828210156115b7578382604002016002806020026040519081016040528092919082600260200280828437600081840152601f19601f82011690508083019250505050505081526020019060010190611563565b50505050846002806020026040519081016040528092919082600260200280828437600081840152601f19601f82011690508083019250505050505061267e565b905060006004600083815260200190815260200160002090506000600481111561161e57fe5b8160000160149054906101000a900460ff16600481111561163b57fe5b14151515611694576040517f08c379a000000000000000000000000000000000000000000000000000000000815260040180806020018281038252602881526020018061570c6028913960400191505060405180910390fd5b600160048111156116a157fe5b8160000160149054906101000a900460ff1660048111156116be57fe5b14156117b2576117ad856002806020026040519081016040528092919082600260200280828437600081840152601f19601f82011690508083019250505050505085600280602002604051908101604052809291906000905b8282101561176b578382604002016002806020026040519081016040528092919082600260200280828437600081840152601f19601f82011690508083019250505050505081526020019060010190611717565b50505050856002806020026040519081016040528092919082600260200280828437600081840152601f19601f8201169050808301925050505050508561275b565b6119ec565b600260048111156117bf57fe5b8160000160149054906101000a900460ff1660048111156117dc57fe5b14156118d0576118cb856002806020026040519081016040528092919082600260200280828437600081840152601f19601f82011690508083019250505050505085600280602002604051908101604052809291906000905b82821015611889578382604002016002806020026040519081016040528092919082600260200280828437600081840152601f19601f82011690508083019250505050505081526020019060010190611835565b50505050856002806020026040519081016040528092919082600260200280828437600081840152601f19601f820116905080830192505050505050856128f6565b6119eb565b600360048111156118dd57fe5b8160000160149054906101000a900460ff1660048111156118fa57fe5b14156119ea576119e9856002806020026040519081016040528092919082600260200280828437600081840152601f19601f82011690508083019250505050505085600280602002604051908101604052809291906000905b828210156119a7578382604002016002806020026040519081016040528092919082600260200280828437600081840152601f19601f82011690508083019250505050505081526020019060010190611953565b50505050856002806020026040519081016040528092919082600260200280828437600081840152601f19601f82011690508083019250505050505085612a91565b5b5b5b5050505050565b60056020528060005260406000206000915054906101000a900460ff1681565b60046020528060005260406000206000915090508060000160009054906101000a900473ffffffffffffffffffffffffffffffffffffffff16908060000160149054906101000a900460ff16908060010154905083565b600060046000838152602001908152602001600020905060006004811115611a8e57fe5b8160000160149054906101000a900460ff166004811115611aab57fe5b14151515611b21576040517f08c379a00000000000000000000000000000000000000000000000000000000081526004018080602001828103825260148152602001807f70726f6f664861736820697320696e76616c696400000000000000000000000081525060200191505060405180910390fd5b42600054826001015401101515611ba0576040517f08c379a00000000000000000000000000000000000000000000000000000000081526004018080602001828103825260118152602001807f4e6f7465206973207374696c6c20686f7400000000000000000000000000000081525060200191505060405180910390fd5b60016004811115611bad57fe5b8160000160149054906101000a900460ff166004811115611bca57fe5b1415611bde57611bd982612c2c565b611c58565b60026004811115611beb57fe5b8160000160149054906101000a900460ff166004811115611c0857fe5b1415611c1c57611c1782612e95565b611c57565b60036004811115611c2957fe5b8160000160149054906101000a900460ff166004811115611c4657fe5b1415611c5657611c558261340d565b5b5b5b5050565b600260009054906101000a900473ffffffffffffffffffffffffffffffffffffffff1681565b611da2846002806020026040519081016040528092919082600260200280828437600081840152601f19601f82011690508083019250505050505084600280602002604051908101604052809291906000905b82821015611d29578382604002016002806020026040519081016040528092919082600260200280828437600081840152601f19601f82011690508083019250505050505081526020019060010190611cd5565b50505050846002806020026040519081016040528092919082600260200280828437600081840152601f19601f820116905080830192505050505050846007806020026040519081016040528092919082600760200280828437600081840152601f19601f820116905080830192505050505050613814565b50505050565b6000807f30644e72e131a029b85045b68181585d2833e84879b9709143e1f593f00000019050611dd66154ba565b611dde613a17565b90508060800151516001865101141515611df757600080fd5b611dff615503565b6040805190810160405280600081526020016000815250905060008090505b8651811015611ea357838782815181101515611e3657fe5b90602001906020020151101515611e4c57600080fd5b611e9482611e8f856080015160018501815181101515611e6857fe5b906020019060200201518a85815181101515611e8057fe5b90602001906020020151613f5a565b613ff6565b91508080600101915050611e1e565b50611eca8183608001516000815181101515611ebb57fe5b90602001906020020151613ff6565b9050611f1085600001518660200151611ee2846140b3565b8560400151611ef48a604001516140b3565b8760600151611f0689600001516140b3565b896020015161414f565b1515611f225760019350505050611f2a565b600093505050505b92915050565b6000807f30644e72e131a029b85045b68181585d2833e84879b9709143e1f593f00000019050611f5e6154ba565b611f666142d3565b90508060800151516001865101141515611f7f57600080fd5b611f87615503565b6040805190810160405280600081526020016000815250905060008090505b865181101561202b57838782815181101515611fbe57fe5b90602001906020020151101515611fd457600080fd5b61201c82612017856080015160018501815181101515611ff057fe5b906020019060200201518a8581518110151561200857fe5b90602001906020020151613f5a565b613ff6565b91508080600101915050611fa6565b50612052818360800151600081518110151561204357fe5b90602001906020020151613ff6565b90506120988560000151866020015161206a846140b3565b856040015161207c8a604001516140b3565b876060015161208e89600001516140b3565b896020015161414f565b15156120aa57600193505050506120b2565b600093505050505b92915050565b60006120c585858561267e565b90506060600160040160ff166040519080825280602002602001820160405280156120ff5781602001602082028038833980820191505090505b50905060008090505b600460ff168160ff16101561215957838160ff1660048110151561212857fe5b6020020151828260ff1681518110151561213e57fe5b90602001906020020181815250508080600101915050612108565b508673ffffffffffffffffffffffffffffffffffffffff1681600460ff1681518110151561218357fe5b90602001906020020181815250506080604051908101604052803373ffffffffffffffffffffffffffffffffffffffff168152602001600360048111156121c657fe5b8152602001428152602001828152506004600084815260200190815260200160002060008201518160000160006101000a81548173ffffffffffffffffffffffffffffffffffffffff021916908373ffffffffffffffffffffffffffffffffffffffff16021790555060208201518160000160146101000a81548160ff0219169083600481111561225357fe5b021790555060408201518160010155606082015181600201908051906020019061227e92919061551d565b509050507f2a8c97f42d106ad000d498a1b6bf713a9365c4c1491e66fddb022f7ed07ab9343383604051808373ffffffffffffffffffffffffffffffffffffffff1673ffffffffffffffffffffffffffffffffffffffff1681526020018281526020019250505060405180910390a150505050505050565b6000807f30644e72e131a029b85045b68181585d2833e84879b9709143e1f593f000000190506123246154ba565b61232c614816565b9050806080015151600186510114151561234557600080fd5b61234d615503565b6040805190810160405280600081526020016000815250905060008090505b86518110156123f15783878281518110151561238457fe5b9060200190602002015110151561239a57600080fd5b6123e2826123dd8560800151600185018151811015156123b657fe5b906020019060200201518a858151811015156123ce57fe5b90602001906020020151613f5a565b613ff6565b9150808060010191505061236c565b50612418818360800151600081518110151561240957fe5b90602001906020020151613ff6565b905061245e85600001518660200151612430846140b3565b85604001516124428a604001516140b3565b876060015161245489600001516140b3565b896020015161414f565b15156124705760019350505050612478565b600093505050505b92915050565b600061248b85858561267e565b9050606060046040519080825280602002602001820160405280156124bf5781602001602082028038833980820191505090505b50905060008090505b600460ff168160ff16101561251957838160ff166004811015156124e857fe5b6020020151828260ff168151811015156124fe57fe5b906020019060200201818152505080806001019150506124c8565b506080604051908101604052803373ffffffffffffffffffffffffffffffffffffffff1681526020016001600481111561254f57fe5b8152602001428152602001828152506004600084815260200190815260200160002060008201518160000160006101000a81548173ffffffffffffffffffffffffffffffffffffffff021916908373ffffffffffffffffffffffffffffffffffffffff16021790555060208201518160000160146101000a81548160ff021916908360048111156125dc57fe5b021790555060408201518160010155606082015181600201908051906020019061260792919061551d565b509050507f2a8c97f42d106ad000d498a1b6bf713a9365c4c1491e66fddb022f7ed07ab9343383604051808373ffffffffffffffffffffffffffffffffffffffff1673ffffffffffffffffffffffffffffffffffffffff1681526020018281526020019250505060405180910390a1505050505050565b60008383836040516020018084600260200280838360005b838110156126b1578082015181840152602081019050612696565b505050509050018360026000925b818410156127055782846020020151600260200280838360005b838110156126f45780820151818401526020810190506126d9565b5050505090500192600101926126bf565b9250505082600260200280838360005b83811015612730578082015181840152602081019050612715565b5050505090500193505050506040516020818303038152906040528051906020012090509392505050565b600060046000838152602001908152602001600020905061277a61556a565b60008090505b600460ff168110156127cc57826002018181548110151561279d57fe5b906000526020600020015482826004811015156127b657fe5b6020020181815250508080600101915050612780565b506127d986868684610bc5565b15156128e45760046000848152602001908152602001600020600080820160006101000a81549073ffffffffffffffffffffffffffffffffffffffff02191690556000820160146101000a81549060ff02191690556001820160009055600282016000612846919061558d565b50503373ffffffffffffffffffffffffffffffffffffffff166108fc6001549081150290604051600060405180830381858888f19350505050158015612890573d6000803e3d6000fd5b503373ffffffffffffffffffffffffffffffffffffffff167f12985fda7f0b862728bca0856b151f93320ceff10cbf6a49d7f294ea0aed8151846040518082815260200191505060405180910390a26128ee565b6128ed83612c2c565b5b505050505050565b60006004600083815260200190815260200160002090506129156155ae565b60008090505b600760ff1681101561296757826002018181548110151561293857fe5b9060005260206000200154828260078110151561295157fe5b602002018181525050808060010191505061291b565b5061297486868684610fc2565b1515612a7f5760046000848152602001908152602001600020600080820160006101000a81549073ffffffffffffffffffffffffffffffffffffffff02191690556000820160146101000a81549060ff021916905560018201600090556002820160006129e1919061558d565b50503373ffffffffffffffffffffffffffffffffffffffff166108fc6001549081150290604051600060405180830381858888f19350505050158015612a2b573d6000803e3d6000fd5b503373ffffffffffffffffffffffffffffffffffffffff167f12985fda7f0b862728bca0856b151f93320ceff10cbf6a49d7f294ea0aed8151846040518082815260200191505060405180910390a2612a89565b612a8883612e95565b5b505050505050565b6000600460008381526020019081526020016000209050612ab061556a565b60008090505b600460ff16811015612b02578260020181815481101515612ad357fe5b90600052602060002001548282600481101515612aec57fe5b6020020181815250508080600101915050612ab6565b50612b0f86868684610960565b1515612c1a5760046000848152602001908152602001600020600080820160006101000a81549073ffffffffffffffffffffffffffffffffffffffff02191690556000820160146101000a81549060ff02191690556001820160009055600282016000612b7c919061558d565b50503373ffffffffffffffffffffffffffffffffffffffff166108fc6001549081150290604051600060405180830381858888f19350505050158015612bc6573d6000803e3d6000fd5b503373ffffffffffffffffffffffffffffffffffffffff167f12985fda7f0b862728bca0856b151f93320ceff10cbf6a49d7f294ea0aed8151846040518082815260200191505060405180910390a2612c24565b612c238361340d565b5b505050505050565b60006004600083815260200190815260200160002090506000612c87826002016000815481101515612c5a57fe5b9060005260206000200154836002016001815481101515612c7757fe5b9060005260206000200154614eb8565b905060006003811115612c9657fe5b6005600083815260200190815260200160002060009054906101000a900460ff166003811115612cc257fe5b141515612d37576040517f08c379a00000000000000000000000000000000000000000000000000000000081526004018080602001828103825260178152602001807f4e6f74652077617320616c7265616479206d696e74656400000000000000000081525060200191505060405180910390fd5b60016005600083815260200190815260200160002060006101000a81548160ff02191690836003811115612d6757fe5b021790555060046000848152602001908152602001600020600080820160006101000a81549073ffffffffffffffffffffffffffffffffffffffff02191690556000820160146101000a81549060ff02191690556001820160009055600282016000612dd3919061558d565b50508160000160009054906101000a900473ffffffffffffffffffffffffffffffffffffffff1673ffffffffffffffffffffffffffffffffffffffff166108fc6001549081150290604051600060405180830381858888f19350505050158015612e41573d6000803e3d6000fd5b507f91d2faa002479f8dc4f20862402db3dba2ebe927031674997d38e5b70d9877e781600160405180838152602001826003811115612e7c57fe5b60ff1681526020019250505060405180910390a1505050565b6000600460008381526020019081526020016000209050612eb46155d1565b612f0f82600201805480602002602001604051908101604052809291908181526020018280548015612f0557602002820191906000526020600020905b815481526020019060010190808311612ef1575b5050505050615016565b905060016003811115612f1e57fe5b60056000836000600381101515612f3157fe5b6020020151815260200190815260200160002060009054906101000a900460ff166003811115612f5d57fe5b141515612fb5576040517f08c379a00000000000000000000000000000000000000000000000000000000081526004018080602001828103825260278152602001806156c36027913960400191505060405180910390fd5b60006003811115612fc257fe5b60056000836001600381101515612fd557fe5b6020020151815260200190815260200160002060009054906101000a900460ff16600381111561300157fe5b141515613076576040517f08c379a000000000000000000000000000000000000000000000000000000000815260040180806020018281038252601e8152602001807f6f7574707574206e6f74653120697320616c7265616479206d696e746564000081525060200191505060405180910390fd5b6000600381111561308357fe5b6005600083600260038110151561309657fe5b6020020151815260200190815260200160002060009054906101000a900460ff1660038111156130c257fe5b141515613137576040517f08c379a000000000000000000000000000000000000000000000000000000000815260040180806020018281038252601e8152602001807f6f7574707574206e6f74653220697320616c7265616479206d696e746564000081525060200191505060405180910390fd5b60026005600083600060038110151561314c57fe5b6020020151815260200190815260200160002060006101000a81548160ff0219169083600381111561317a57fe5b021790555060016005600083600160038110151561319457fe5b6020020151815260200190815260200160002060006101000a81548160ff021916908360038111156131c257fe5b02179055506001600560008360026003811015156131dc57fe5b6020020151815260200190815260200160002060006101000a81548160ff0219169083600381111561320a57fe5b021790555060046000848152602001908152602001600020600080820160006101000a81549073ffffffffffffffffffffffffffffffffffffffff02191690556000820160146101000a81549060ff02191690556001820160009055600282016000613276919061558d565b50508160000160009054906101000a900473ffffffffffffffffffffffffffffffffffffffff1673ffffffffffffffffffffffffffffffffffffffff166108fc6001549081150290604051600060405180830381858888f193505050501580156132e4573d6000803e3d6000fd5b507f91d2faa002479f8dc4f20862402db3dba2ebe927031674997d38e5b70d9877e781600060038110151561331557fe5b602002015160026040518083815260200182600381111561333257fe5b60ff1681526020019250505060405180910390a17f91d2faa002479f8dc4f20862402db3dba2ebe927031674997d38e5b70d9877e781600160038110151561337657fe5b602002015160016040518083815260200182600381111561339357fe5b60ff1681526020019250505060405180910390a17f91d2faa002479f8dc4f20862402db3dba2ebe927031674997d38e5b70d9877e78160026003811015156133d757fe5b60200201516001604051808381526020018260038111156133f457fe5b60ff1681526020019250505060405180910390a1505050565b6000600460008381526020019081526020016000209050600061346882600201600081548110151561343b57fe5b906000526020600020015483600201600181548110151561345857fe5b9060005260206000200154614eb8565b90506001600381111561347757fe5b6005600083815260200190815260200160002060009054906101000a900460ff1660038111156134a357fe5b1415156134fb576040517f08c379a00000000000000000000000000000000000000000000000000000000081526004018080602001828103825260278152602001806156c36027913960400191505060405180910390fd5b60026005600083815260200190815260200160002060006101000a81548160ff0219169083600381111561352b57fe5b02179055508160000160009054906101000a900473ffffffffffffffffffffffffffffffffffffffff1673ffffffffffffffffffffffffffffffffffffffff166108fc6001549081150290604051600060405180830381858888f1935050505015801561359c573d6000803e3d6000fd5b50600082600201600460ff168154811015156135b457fe5b9060005260206000200154905060008360020160028154811015156135d557fe5b9060005260206000200154905060046000868152602001908152602001600020600080820160006101000a81549073ffffffffffffffffffffffffffffffffffffffff02191690556000820160146101000a81549060ff02191690556001820160009055600282016000613649919061558d565b5050600260009054906101000a900473ffffffffffffffffffffffffffffffffffffffff1673ffffffffffffffffffffffffffffffffffffffff1663a9059cbb83836040518363ffffffff167c0100000000000000000000000000000000000000000000000000000000028152600401808373ffffffffffffffffffffffffffffffffffffffff1673ffffffffffffffffffffffffffffffffffffffff16815260200182815260200192505050602060405180830381600087803b15801561371057600080fd5b505af1158015613724573d6000803e3d6000fd5b505050506040513d602081101561373a57600080fd5b810190808051906020019092919050505015156137bf576040517f08c379a00000000000000000000000000000000000000000000000000000000081526004018080602001828103825260188152602001807f646169546f6b656e207472616e73666572206661696c6564000000000000000081525060200191505060405180910390fd5b7f91d2faa002479f8dc4f20862402db3dba2ebe927031674997d38e5b70d9877e7836002604051808381526020018260038111156137f957fe5b60ff1681526020019250505060405180910390a15050505050565b600061382185858561267e565b90506060600760ff166040519080825280602002602001820160405280156138585781602001602082028038833980820191505090505b50905060008090505b600760ff168160ff1610156138b257838160ff1660078110151561388157fe5b6020020151828260ff1681518110151561389757fe5b90602001906020020181815250508080600101915050613861565b506080604051908101604052803373ffffffffffffffffffffffffffffffffffffffff168152602001600260048111156138e857fe5b8152602001428152602001828152506004600084815260200190815260200160002060008201518160000160006101000a81548173ffffffffffffffffffffffffffffffffffffffff021916908373ffffffffffffffffffffffffffffffffffffffff16021790555060208201518160000160146101000a81548160ff0219169083600481111561397557fe5b02179055506040820151816001015560608201518160020190805190602001906139a092919061551d565b509050507f2a8c97f42d106ad000d498a1b6bf713a9365c4c1491e66fddb022f7ed07ab9343383604051808373ffffffffffffffffffffffffffffffffffffffff1673ffffffffffffffffffffffffffffffffffffffff1681526020018281526020019250505060405180910390a1505050505050565b613a1f6154ba565b60408051908101604052807f08e8fd47f4f47ca3bf35d3549cc9cbc9ee4980e7555623215f325533055db98481526020017effd309565aa419ab4d5b0b1356a42cbd79a90b7bf5842ec7d77fbc903ec48c8152508160000181905250604080519081016040528060408051908101604052807f191aea51714d75793ebce74e92140ff5b9a72b2b21db0e7d38a9a6f6ec561e2781526020017f125e351f64102e5ed7413e9e1ae39fcda03f94b4952ae5024c1a979032fe17a6815250815260200160408051908101604052807f2a38351dc02090cf4c992e0e79c380add7cf09e2efc156ec8638c44cb2659ae581526020017f2057aa937ac295a24afe5fe8f41bf3b726c1e9a747a3d82112eb6f21a7249e348152508152508160200181905250604080519081016040528060408051908101604052807f1596ddc83d27b9fc3e437ecfce0cfb1183aa2ec3218fe47b0dc87260e58cec0181526020017f1d1caa5d4c2f3eaf4e4a1c5834a843fa144f4ee7543144ab36cbed2d295b34b4815250815260200160408051908101604052807f082e72deb2bdb3f1c744d2faed40b40a8e0095857798f5271c975574e461682381526020017f22da6530029c6e8b34899b20fe962bcebae94f93f737268376261dd6710badc18152508152508160400181905250604080519081016040528060408051908101604052807f155465dc68c4a17a3844dca002ef1b0b361552491432dff1103ef28d66548afd81526020017f26a9b5195a4b0a709767168cfb17ffe6b006671136407b9291f20eab14133250815250815260200160408051908101604052807f15d2db06487070c5abfe868a56d6db291353a00e87a7649355e47cc04a72d94381526020017f2e8c476822f4f14713679e51ec81f3ecd7a4e058b0a8210792c16b9c5237de8981525081525081606001819052506005604051908082528060200260200182016040528015613d0557816020015b613cf26155f4565b815260200190600190039081613cea5790505b50816080018190525060408051908101604052807f045a076654acaecf344e8d6baeac13d52868fc24c9b07a948630a01a0403307f81526020017f08781c8e5717b83d3841478ec85437ce512b9db47bc88e2d9deff51f4cc5233581525081608001516000815181101515613d7657fe5b9060200190602002018190525060408051908101604052807f030852bafbd1dca04aa84803d07f6210ab89f1b76ddecc2f530fc5bdcd9115d281526020017f134807c24cc6469a59ce3ab93874d819f1e471f432bc0381ecede614c0dfc99981525081608001516001815181101515613deb57fe5b9060200190602002018190525060408051908101604052807f229b98cb8f8aeabfd356cd7bb196730fce607346d63bb1947fed7dabdcea5e7581526020017f1edebbc7d906f9fff4f4f68ac6830e02a8850468920c597e7d121b88f8cbc3df81525081608001516002815181101515613e6057fe5b9060200190602002018190525060408051908101604052807f1396ecbae3a957f73a2becd5490d94ca78d8506c6970fb7c52b4245c3f66775481526020017f2667d1e395f4c72043b442b51ba566c5d690c7d4cf03f40f7ed37ae9f3b2e70e81525081608001516003815181101515613ed557fe5b9060200190602002018190525060408051908101604052807f10dead365b530b87ec9aadc7ac7aa5dc2501f88a9c0dcac8f23290d6f087461281526020017f0ec800383d251bc69c0d9add8bd57daec637178b1a0663ef5b0362c545709c0b81525081608001516004815181101515613f4a57fe5b9060200190602002018190525090565b613f62615503565b613f6a61560e565b8360000151816000600381101515613f7e57fe5b6020020181815250508360200151816001600381101515613f9b57fe5b60200201818152505082816002600381101515613fb457fe5b6020020181815250506000606083608084600060076107d05a03f190508060008114613fdf57613fe1565bfe5b50801515613fee57600080fd5b505092915050565b613ffe615503565b61400661556a565b836000015181600060048110151561401a57fe5b602002018181525050836020015181600160048110151561403757fe5b602002018181525050826000015181600260048110151561405457fe5b602002018181525050826020015181600360048110151561407157fe5b602002018181525050600060608360c084600060066107d05a03f19050806000811461409c5761409e565bfe5b508015156140ab57600080fd5b505092915050565b6140bb615503565b60007f30644e72e131a029b85045b68181585d97816a916871ca8d3c208c16d87cfd479050600083600001511480156140f8575060008360200151145b1561411c57604080519081016040528060008152602001600081525091505061414a565b60408051908101604052808460000151815260200182856020015181151561414057fe5b0683038152509150505b919050565b60006060600460405190808252806020026020018201604052801561418e57816020015b61417b6155f4565b8152602001906001900390816141735790505b509050606060046040519080825280602002602001820160405280156141ce57816020015b6141bb615631565b8152602001906001900390816141b35790505b5090508a8260008151811015156141e157fe5b90602001906020020181905250888260018151811015156141fe57fe5b906020019060200201819052508682600281518110151561421b57fe5b906020019060200201819052508482600381518110151561423857fe5b906020019060200201819052508981600081518110151561425557fe5b906020019060200201819052508781600181518110151561427257fe5b906020019060200201819052508581600281518110151561428f57fe5b90602001906020020181905250838160038151811015156142ac57fe5b906020019060200201819052506142c38282615119565b9250505098975050505050505050565b6142db6154ba565b60408051908101604052807f1fae4ecd413ca1398b216c0c3d4735856768fe06050310f2b24e93846e01256281526020017f2ca7db4aa700b0377527eac1d88bf9a5f8f842284b9c17e1a676b56d98275caa8152508160000181905250604080519081016040528060408051908101604052807ec057ea8c869953cc2969c8f7e9e910e92cc18db1da482fc286a04a981f3fe681526020017f2e446ad64062d0493cf452d08f1e34a67c5b0601703c392fc784156c95a934e0815250815260200160408051908101604052807f1b239ecd6bdae68953141382d2ec8fc72f0e9e9cf11663e9007ea53f6394813f81526020017f19410ee6da4a8df22efd878cae356ed8698d51c33cdfffec08e0f9a6a44dbbad8152508152508160200181905250604080519081016040528060408051908101604052807f1dd0ecca1d7d5c5fbc7ae284e7839996f853a29973c9bd6479a55bbb2e95569981526020017f2110c0b3c7870541327a141bebb6378d4b18baf07e31691cec7c5a83b2f7c9fb815250815260200160408051908101604052807f05527ea33e439dd3140d729ee1400c1d4bec2952935778f5f7aa6ab3348962fe81526020017f2fc3dd960002b28734f0c4abc84f71016ba99630778d27329be0b0b48647cce98152508152508160400181905250604080519081016040528060408051908101604052807f2917a9b462f23932acfedabc068db254e740748740d56f25781fd19c4fd5822181526020017f21dde0660f0522d7e9c0be35e560d863f1817e7751a0957996f6118182b3f797815250815260200160408051908101604052807f1065a356807947b7501cbccfa75b48996889a00fe786acf3485b803c948f38bf81526020017f2911071bd56d7a39cde796146a347efe46b15b203d4880c51bde73503ef43055815250815250816060018190525060056040519080825280602002602001820160405280156145c157816020015b6145ae6155f4565b8152602001906001900390816145a65790505b50816080018190525060408051908101604052807f2cc870366c1940584032f6b5d6611126aa4e0f959750075f3da187a359a86f7181526020017f2de9ff6fc1eb6a6509c4b49e200e3a34e701c47890235ce7aa38d49137cbe8b08152508160800151600081518110151561463257fe5b9060200190602002018190525060408051908101604052807f1b4a4e60b75d7b8e19f247e8ff8f598b853d1e3b8038158d59eeee4f433bbee881526020017f2ad88fd86e7b61b43116c6305146fa56cb95f90b46a37d1f5e3a6cb288868da5815250816080015160018151811015156146a757fe5b9060200190602002018190525060408051908101604052807f09eef616aeeb3bf6fe6d17a1062adaa71dd6275d9f18e031ff0dd3d2fea46c3c81526020017f1d79ff41013568cc8d15a0d2af6f824d93bf5a53aac7d8e93bd838084196252a8152508160800151600281518110151561471c57fe5b9060200190602002018190525060408051908101604052807f18aac35ed4d8f4c829439fbd24fbff629e692081cacbb2a11706b8893e3acfb781526020017f0b0955aaaba3899cf0223ea2c9e5ce2348ab4b6908261023173d4b6ba90c563b8152508160800151600381518110151561479157fe5b9060200190602002018190525060408051908101604052807f0995f21c52e7bbed05a4e7d0d2917337f459780582eec68c9c4ff4ebd1b0908881526020017f11b86f307ff2eabd60791c5ec3b9982103e1a192603c8fa2075b01db454416928152508160800151600481518110151561480657fe5b9060200190602002018190525090565b61481e6154ba565b60408051908101604052807f1a98ac48fe2018f84f58a2906156cedd87059554be66822c8443397426bc62a781526020017f03db6d4b9d0c6621e37c5f2329a2212b4ddc29f46607e9a80d5941676e25edb78152508160000181905250604080519081016040528060408051908101604052807f1b735ac6d76ea2df5007c6388a1d2607b799e35c30e9519da33953da9d43db6f81526020017f0c2a204b6cf7546ebc106470781153a8f110a61e2ab8ecd99ac77cb09b922ae1815250815260200160408051908101604052807f180dd416bf72c1188ecdf599eee773f5b4e303e9efe35eb04e33f277e952f5be81526020017f1e35b197f94262f5fe64d0fe32af60ca51449435f6bf941df65b0d2a2942f6f78152508152508160200181905250604080519081016040528060408051908101604052807f26f0cdc4bf30d13dc2cf6367e49445fc59abcba315def5e1b3729af927e6a6c581526020017f065bd09ff773ec638084cf183c96d3178d3d5fd44206a7f9b6c8aa72b3dc52ac815250815260200160408051908101604052807f15d1ad4691023d57db5a06ce69f081fa9e61d176e8c9a40e4a446c27b17291ae81526020017f2b41d1b082947fff6fd5a5df399e59d9440d1faa701e4768ad8a460fd41dbde28152508152508160400181905250604080519081016040528060408051908101604052807f2c4a26f13a3b4888403d5b917ca0b586a2f708955a89d25b3f5f75308d84513581526020017f208605906c040f4aefde123c8939f8417ef0774f59c13dd08ffdb1248f78e84c815250815260200160408051908101604052807f0b7695268fa677103881aa934f7e45ac4ed626c33390477b851bb3ce6ee146dd81526020017f2f2fcdb0f059b6270527c5d46e3eb1af9f7463ab1ed58438c42187aa094055fc81525081525081606001819052506008604051908082528060200260200182016040528015614b0557816020015b614af26155f4565b815260200190600190039081614aea5790505b50816080018190525060408051908101604052807f0a65dc2d653564f4ea5a987bb92725e16860f9c2ed63f26663e4ea1dd201495581526020017f05edc87f90a596723787e36afc4da0d32c02f77788610349b4f875da59cc45d481525081608001516000815181101515614b7657fe5b9060200190602002018190525060408051908101604052807f1ac7c460c4d1553f7f303d1f384fbfb9fbfc5a14e963ed3ae75f14ae561fea8381526020017f16ea6aeb7d297d3e924d9802151cfa2f24b72e23c19dcf508930f5c7be2d2d0a81525081608001516001815181101515614beb57fe5b9060200190602002018190525060408051908101604052807f09262c81daea9019fa2a153007bc7aefda07852ba846f177e3b5259525c68cb881526020017f1a1e2e4c0fc4ffb7f2423043d83236654c84a51b2240c33ac609b15bc684c58781525081608001516002815181101515614c6057fe5b9060200190602002018190525060408051908101604052807f1dcf0c809f804ea9e2cedb16407dd89f5af0f0b7ab211628fe51c4a9d06f3eef81526020017f0d39d3271f58f96eec3799622b14c869d76f421aa0c0a657d27f015fa6939a8781525081608001516003815181101515614cd557fe5b9060200190602002018190525060408051908101604052807f09ee43f5e8cdbe9d12fa57ae149ebde674532a40e0462f3b53b2e7a00768a28081526020017f13f3a99dff58fa02e9b4b636e12708f61b8c8acfa176b9589d954310b4d4305d81525081608001516004815181101515614d4a57fe5b9060200190602002018190525060408051908101604052807e60f976268eb38393a3c16ca02613d04deb4873399b911ba31e9d3c9f83a40981526020017f25610bd7ac6c62d0a575176f60f461b45852a7667c82bb0cb90654ab442e660f81525081608001516005815181101515614dbe57fe5b9060200190602002018190525060408051908101604052807f220b9534234001a50b76a0240ff70316868b988596137240f9c8c2aa2b953d4781526020017f0267d3165a1bf80e633dd90bce7fd86c95913242de0b7ecb62824756cfff3c0f81525081608001516006815181101515614e3357fe5b9060200190602002018190525060408051908101604052807f19bf56a5653c8988330352dd2cb1d594594c872bb8932961b45390badec2275181526020017f13cfe41af18911a33c1bc1fe167df2aa75476b439abe3c488eff21c2d70c29e181525081608001516007815181101515614ea857fe5b9060200190602002018190525090565b6000808360010290506000836001029050606060206040519080825280601f01601f191660200182016040528015614eff5781602001600182028038833980820191505090505b50905060008090505b6010811015614fff578381601081101515614f1f57fe5b1a7f0100000000000000000000000000000000000000000000000000000000000000028282815181101515614f5057fe5b9060200101907effffffffffffffffffffffffffffffffffffffffffffffffffffffffffffff1916908160001a9053508281601081101515614f8e57fe5b1a7f0100000000000000000000000000000000000000000000000000000000000000028282601001815181101515614fc257fe5b9060200101907effffffffffffffffffffffffffffffffffffffffffffffffffffffffffffff1916908160001a9053508080600101915050614f08565b5061500b8160006153ac565b935050505092915050565b61501e6155d1565b61505882600081518110151561503057fe5b9060200190602002015183600181518110151561504957fe5b90602001906020020151614eb8565b81600060038110151561506757fe5b6020020181815250506150aa82600281518110151561508257fe5b9060200190602002015183600381518110151561509b57fe5b90602001906020020151614eb8565b8160016003811015156150b957fe5b6020020181815250506150fc8260048151811015156150d457fe5b906020019060200201518360058151811015156150ed57fe5b90602001906020020151614eb8565b81600260038110151561510b57fe5b602002018181525050919050565b60008151835114151561512b57600080fd5b600083519050600060068202905060608160405190808252806020026020018201604052801561516a5781602001602082028038833980820191505090505b50905060008090505b8381101561534857868181518110151561518957fe5b906020019060200201516000015182600060068402018151811015156151ab57fe5b906020019060200201818152505086818151811015156151c757fe5b906020019060200201516020015182600160068402018151811015156151e957fe5b9060200190602002018181525050858181518110151561520557fe5b9060200190602002015160000151600060028110151561522157fe5b6020020151826002600684020181518110151561523a57fe5b9060200190602002018181525050858181518110151561525657fe5b9060200190602002015160000151600160028110151561527257fe5b6020020151826003600684020181518110151561528b57fe5b906020019060200201818152505085818151811015156152a757fe5b906020019060200201516020015160006002811015156152c357fe5b602002015182600460068402018151811015156152dc57fe5b906020019060200201818152505085818151811015156152f857fe5b9060200190602002015160200151600160028110151561531457fe5b6020020151826005600684020181518110151561532d57fe5b90602001906020020181815250508080600101915050615173565b50615351615658565b60006020826020860260208601600060086107d05a03f1905080600081146153785761537a565bfe5b5080151561538757600080fd5b600082600060018110151561539857fe5b602002015114159550505050505092915050565b600080600090505b602081101561547e576008810260ff7f010000000000000000000000000000000000000000000000000000000000000002858386018151811015156153f557fe5b9060200101517f010000000000000000000000000000000000000000000000000000000000000090047f010000000000000000000000000000000000000000000000000000000000000002167effffffffffffffffffffffffffffffffffffffffffffffffffffffffffffff1916908060020a82049150508217915080806001019150506153b4565b5092915050565b6101006040519081016040528061549a6155f4565b81526020016154a7615631565b81526020016154b46155f4565b81525090565b6101e0604051908101604052806154cf6155f4565b81526020016154dc615631565b81526020016154e9615631565b81526020016154f6615631565b8152602001606081525090565b604080519081016040528060008152602001600081525090565b828054828255906000526020600020908101928215615559579160200282015b8281111561555857825182559160200191906001019061553d565b5b509050615566919061567b565b5090565b608060405190810160405280600490602082028038833980820191505090505090565b50805460008255906000526020600020908101906155ab919061567b565b50565b60e060405190810160405280600790602082028038833980820191505090505090565b606060405190810160405280600390602082028038833980820191505090505090565b604080519081016040528060008152602001600081525090565b606060405190810160405280600390602082028038833980820191505090505090565b6080604051908101604052806156456156a0565b81526020016156526156a0565b81525090565b602060405190810160405280600190602082028038833980820191505090505090565b61569d91905b80821115615699576000816000905550600101615681565b5090565b90565b604080519081016040528060029060208202803883398082019150509050509056fe4e6f74652069732065697468657220696e76616c6964206f7220616c7265616479207370656e745472616e73616374696f6e207375636365737366756c6c792076657269666965642e436f72726573706f6e64696e672068617368206f662070726f6f6620646f65736e74206578697374a165627a7a72305820a89a8bfc0839f17d20e4729d08a8a3ff4f073e93346a1495b065ad117b6af3680029",
  "source": "pragma solidity ^0.5.2;\n\nimport \"@openzeppelin/contracts/token/ERC20/ERC20.sol\";\nimport \"./MintNotes.sol\";\nimport \"./SpendNotes.sol\";\nimport \"./LiquidateNotes.sol\";\n\n\ncontract ZkDai is MintNotes, SpendNotes, LiquidateNotes {\n\n  modifier validStake(uint256 _stake)\n  {\n      require(_stake == stake, \"Invalid stake amount\");\n      _;\n  }\n\n  constructor(uint256 _cooldown, uint256 _stake, address daiTokenAddress)\n    public\n  {\n      cooldown = _cooldown;\n      stake = _stake;\n      dai = ERC20(daiTokenAddress);\n  }\n\n  /**\n  * @dev Transfers specified number of dai tokens to itself and submits the zkSnark proof to mint a new note\n  * @notice params: a, a_p, b, b_p, c, c_p, h, k zkSnark parameters\n  * @param input Public inputs of the zkSnark\n  */\n  function mint(\n      uint256[2] calldata a,\n      uint256[2][2] calldata b,\n      uint256[2] calldata c,\n      uint256[4] calldata input)\n    external\n    payable\n    //validStake(msg.value)\n  {\n      require(\n        dai.transferFrom(msg.sender, address(this), uint256(input[2]) /* value */),\n        \"daiToken transfer failed\"\n      );\n      MintNotes.submit(a, b, c, input);\n  }\n\n  /**\n  * @dev Submits the zkSnark proof to be able to spend a note and create two new notes\n  * @notice params: a, a_p, b, b_p, c, c_p, h, k zkSnark parameters\n  * @param input Public inputs of the zkSnark\n  */\n  function spend(\n      uint256[2] calldata a,\n      uint256[2][2] calldata b,\n      uint256[2] calldata c,\n      uint256[7] calldata input)\n    external\n    payable\n    //validStake(msg.value)\n  {\n      SpendNotes.submit(a, b, c, input);\n  }\n\n  /**\n  * @dev Liquidate a note to transfer the equivalent amount of dai to the recipient\n  * @param to Recipient of the dai tokens\n  * @notice params: a, a_p, b, b_p, c, c_p, h, k zkSnark parameters\n  * @param input Public inputs of the zkSnark\n  */\n  function liquidate(\n      address to,\n      uint256[2] calldata a,\n      uint256[2][2] calldata b,\n      uint256[2] calldata c,\n      uint256[4] calldata input)\n    external\n    payable\n    //validStake(msg.value)\n  {\n      LiquidateNotes.submit(to, a, b, c,input);\n  }\n\n  /**\n  * @dev Challenge the mint or spend proofs and claim the stake amount if challenge passes.\n  * @notice If challenge passes, the challenger claims the stake amount,\n  *         otherwise note(s) are committed/spent and stake is transferred back to proof submitter.\n  * @notice params: a, a_p, b, b_p, c, c_p, h, k zkSnark parameters of the challenged proof\n  */\n  function challenge(\n      uint256[2] calldata a,\n      uint256[2][2] calldata b,\n      uint256[2] calldata c)\n    external\n  {\n      bytes32 proofHash = getProofHash(a, b, c);\n      Submission storage submission = submissions[proofHash];\n      require(submission.sType != SubmissionType.Invalid, \"Corresponding hash of proof doesnt exist\");\n      //require(submission.submittedAt + cooldown >= now, \"Note cannot be challenged anymore\");\n      if (submission.sType == SubmissionType.Mint) {\n        MintNotes.challenge(a, b, c, proofHash);\n      } else if (submission.sType == SubmissionType.Spend) {\n        SpendNotes.challenge(a, b, c, proofHash);\n      } else if (submission.sType == SubmissionType.Liquidate) {\n        LiquidateNotes.challenge(a, b, c, proofHash);\n      }\n  }\n\n  /**\n  * @dev Commit a particular proof once the challenge period has ended\n  * @param proofHash Hash of the proof that needs to be committed\n  */\n  function commit(bytes32 proofHash)\n    public\n  {\n      Submission storage submission = submissions[proofHash];\n      require(submission.sType != SubmissionType.Invalid, \"proofHash is invalid\");\n      require(submission.submittedAt + cooldown < now, \"Note is still hot\");\n      if (submission.sType == SubmissionType.Mint) {\n        mintCommit(proofHash);\n      } else if (submission.sType == SubmissionType.Spend) {\n        spendCommit(proofHash);\n      } else if (submission.sType == SubmissionType.Liquidate) {\n        liquidateCommit(proofHash);\n      }\n  }\n}\n",
  "sourcePath": "/home/boo/work/LightningZKP/contracts/ZkDai.sol",
  "compiler": {
    "name": "solc",
    "version": "0.5.2+commit.1df8f40c.Emscripten.clang"
  },
  "schemaVersion": "3.0.11",
  "updatedAt": "2019-10-15T14:10:28.872Z",
  "devdoc": {
    "methods": {
      "challenge(uint256[2],uint256[2][2],uint256[2])": {
        "details": "Challenge the mint or spend proofs and claim the stake amount if challenge passes."
      },
      "commit(bytes32)": {
        "details": "Commit a particular proof once the challenge period has ended",
        "params": {
          "proofHash": "Hash of the proof that needs to be committed"
        }
      },
      "liquidate(address,uint256[2],uint256[2][2],uint256[2],uint256[4])": {
        "details": "Liquidate a note to transfer the equivalent amount of dai to the recipient",
        "params": {
          "input": "Public inputs of the zkSnark",
          "to": "Recipient of the dai tokens"
        }
      },
      "mint(uint256[2],uint256[2][2],uint256[2],uint256[4])": {
        "details": "Transfers specified number of dai tokens to itself and submits the zkSnark proof to mint a new note",
        "params": {
          "input": "Public inputs of the zkSnark"
        }
      },
      "spend(uint256[2],uint256[2][2],uint256[2],uint256[7])": {
        "details": "Submits the zkSnark proof to be able to spend a note and create two new notes",
        "params": {
          "input": "Public inputs of the zkSnark"
        }
      }
    }
  },
  "userdoc": {
    "methods": {
      "challenge(uint256[2],uint256[2][2],uint256[2])": {
        "notice": "If challenge passes, the challenger claims the stake amount,        otherwise note(s) are committed/spent and stake is transferred back to proof submitter.params: a, a_p, b, b_p, c, c_p, h, k zkSnark parameters of the challenged proof"
      },
      "liquidate(address,uint256[2],uint256[2][2],uint256[2],uint256[4])": {
        "notice": "params: a, a_p, b, b_p, c, c_p, h, k zkSnark parameters"
      },
      "mint(uint256[2],uint256[2][2],uint256[2],uint256[4])": {
        "notice": "params: a, a_p, b, b_p, c, c_p, h, k zkSnark parameters"
      },
      "spend(uint256[2],uint256[2][2],uint256[2],uint256[7])": {
        "notice": "params: a, a_p, b, b_p, c, c_p, h, k zkSnark parameters"
      }
    }
  }
}