{
  "contractName": "ZkDai",
  "abi": [
    {
      "constant": false,
      "inputs": [
        {
          "name": "a",
          "type": "uint256[2]"
        },
        {
          "name": "b",
          "type": "uint256[2][2]"
        },
        {
          "name": "c",
          "type": "uint256[2]"
        },
        {
          "name": "input",
          "type": "uint256[4]"
        }
      ],
      "name": "liquidateVerifyTx",
      "outputs": [
        {
          "name": "r",
          "type": "bool"
        }
      ],
      "payable": false,
      "stateMutability": "nonpayable",
      "type": "function"
    },
    {
      "constant": false,
      "inputs": [
        {
          "name": "a",
          "type": "uint256[2]"
        },
        {
          "name": "b",
          "type": "uint256[2][2]"
        },
        {
          "name": "c",
          "type": "uint256[2]"
        },
        {
          "name": "input",
          "type": "uint256[4]"
        }
      ],
      "name": "mintVerifyTx",
      "outputs": [
        {
          "name": "r",
          "type": "bool"
        }
      ],
      "payable": false,
      "stateMutability": "nonpayable",
      "type": "function"
    },
    {
      "constant": true,
      "inputs": [],
      "name": "stake",
      "outputs": [
        {
          "name": "",
          "type": "uint256"
        }
      ],
      "payable": false,
      "stateMutability": "view",
      "type": "function"
    },
    {
      "constant": false,
      "inputs": [
        {
          "name": "a",
          "type": "uint256[2]"
        },
        {
          "name": "b",
          "type": "uint256[2][2]"
        },
        {
          "name": "c",
          "type": "uint256[2]"
        },
        {
          "name": "input",
          "type": "uint256[7]"
        }
      ],
      "name": "spendVerifyTx",
      "outputs": [
        {
          "name": "r",
          "type": "bool"
        }
      ],
      "payable": false,
      "stateMutability": "nonpayable",
      "type": "function"
    },
    {
      "constant": true,
      "inputs": [],
      "name": "cooldown",
      "outputs": [
        {
          "name": "",
          "type": "uint256"
        }
      ],
      "payable": false,
      "stateMutability": "view",
      "type": "function"
    },
    {
      "constant": true,
      "inputs": [
        {
          "name": "",
          "type": "bytes32"
        }
      ],
      "name": "notes",
      "outputs": [
        {
          "name": "",
          "type": "uint8"
        }
      ],
      "payable": false,
      "stateMutability": "view",
      "type": "function"
    },
    {
      "constant": true,
      "inputs": [
        {
          "name": "",
          "type": "bytes32"
        }
      ],
      "name": "submissions",
      "outputs": [
        {
          "name": "submitter",
          "type": "address"
        },
        {
          "name": "sType",
          "type": "uint8"
        },
        {
          "name": "submittedAt",
          "type": "uint256"
        }
      ],
      "payable": false,
      "stateMutability": "view",
      "type": "function"
    },
    {
      "constant": true,
      "inputs": [],
      "name": "dai",
      "outputs": [
        {
          "name": "",
          "type": "address"
        }
      ],
      "payable": false,
      "stateMutability": "view",
      "type": "function"
    },
    {
      "inputs": [
        {
          "name": "_cooldown",
          "type": "uint256"
        },
        {
          "name": "_stake",
          "type": "uint256"
        },
        {
          "name": "daiTokenAddress",
          "type": "address"
        }
      ],
      "payable": false,
      "stateMutability": "nonpayable",
      "type": "constructor"
    },
    {
      "anonymous": false,
      "inputs": [
        {
          "indexed": false,
          "name": "note",
          "type": "bytes32"
        },
        {
          "indexed": false,
          "name": "state",
          "type": "uint8"
        }
      ],
      "name": "NoteStateChange",
      "type": "event"
    },
    {
      "anonymous": false,
      "inputs": [
        {
          "indexed": false,
          "name": "submitter",
          "type": "address"
        },
        {
          "indexed": false,
          "name": "proofHash",
          "type": "bytes32"
        }
      ],
      "name": "Submitted",
      "type": "event"
    },
    {
      "anonymous": false,
      "inputs": [
        {
          "indexed": true,
          "name": "challenger",
          "type": "address"
        },
        {
          "indexed": false,
          "name": "proofHash",
          "type": "bytes32"
        }
      ],
      "name": "Challenged",
      "type": "event"
    },
    {
      "anonymous": false,
      "inputs": [
        {
          "indexed": false,
          "name": "s",
          "type": "string"
        }
      ],
      "name": "LiquidateVerified",
      "type": "event"
    },
    {
      "anonymous": false,
      "inputs": [
        {
          "indexed": false,
          "name": "s",
          "type": "string"
        }
      ],
      "name": "SpendVerified",
      "type": "event"
    },
    {
      "anonymous": false,
      "inputs": [
        {
          "indexed": false,
          "name": "s",
          "type": "string"
        }
      ],
      "name": "MintVerified",
      "type": "event"
    },
    {
      "constant": false,
      "inputs": [
        {
          "name": "a",
          "type": "uint256[2]"
        },
        {
          "name": "b",
          "type": "uint256[2][2]"
        },
        {
          "name": "c",
          "type": "uint256[2]"
        },
        {
          "name": "input",
          "type": "uint256[4]"
        }
      ],
      "name": "mint",
      "outputs": [],
      "payable": true,
      "stateMutability": "payable",
      "type": "function"
    },
    {
      "constant": false,
      "inputs": [
        {
          "name": "a",
          "type": "uint256[2]"
        },
        {
          "name": "b",
          "type": "uint256[2][2]"
        },
        {
          "name": "c",
          "type": "uint256[2]"
        },
        {
          "name": "input",
          "type": "uint256[7]"
        }
      ],
      "name": "spend",
      "outputs": [],
      "payable": true,
      "stateMutability": "payable",
      "type": "function"
    },
    {
      "constant": false,
      "inputs": [
        {
          "name": "to",
          "type": "address"
        },
        {
          "name": "a",
          "type": "uint256[2]"
        },
        {
          "name": "b",
          "type": "uint256[2][2]"
        },
        {
          "name": "c",
          "type": "uint256[2]"
        },
        {
          "name": "input",
          "type": "uint256[4]"
        }
      ],
      "name": "liquidate",
      "outputs": [],
      "payable": true,
      "stateMutability": "payable",
      "type": "function"
    },
    {
      "constant": false,
      "inputs": [
        {
          "name": "a",
          "type": "uint256[2]"
        },
        {
          "name": "b",
          "type": "uint256[2][2]"
        },
        {
          "name": "c",
          "type": "uint256[2]"
        }
      ],
      "name": "challenge",
      "outputs": [],
      "payable": false,
      "stateMutability": "nonpayable",
      "type": "function"
    },
    {
      "constant": false,
      "inputs": [
        {
          "name": "proofHash",
          "type": "bytes32"
        }
      ],
      "name": "commit",
      "outputs": [],
      "payable": false,
      "stateMutability": "nonpayable",
      "type": "function"
    }
  ],
  "bytecode": "0x60806040523480156200001157600080fd5b50604051606080620058ed833981018060405260608110156200003357600080fd5b81019080805190602001909291908051906020019092919080519060200190929190505050826000819055508160018190555080600260006101000a81548173ffffffffffffffffffffffffffffffffffffffff021916908373ffffffffffffffffffffffffffffffffffffffff16021790555050505061583380620000ba6000396000f3fe6080604052600436106100df576000357c010000000000000000000000000000000000000000000000000000000090048063787a08a61161009c578063c5c9c0a211610076578063c5c9c0a214610733578063f14fcbc8146107ca578063f4b9fa7514610805578063fd696b6e1461085c576100df565b8063787a08a61461065b5780637f67df4c1461068657806385de26b7146106d6576100df565b80631210c56d146100e45780631fa41b3f1461026a5780633a4b66f1146103f057806355258f7b1461041b5780635c998527146104885780637255ae7b1461060e575b600080fd5b3480156100f057600080fd5b50610250600480360361018081101561010857600080fd5b8101908080604001906002806020026040519081016040528092919082600260200280828437600081840152601f19601f82011690508083019250505050505091929192908060800190600280602002604051908101604052809291906000905b828210156101bd578382604002016002806020026040519081016040528092919082600260200280828437600081840152601f19601f82011690508083019250505050505081526020019060010190610169565b50505050919291929080604001906002806020026040519081016040528092919082600260200280828437600081840152601f19601f820116905080830192505050505050919291929080608001906004806020026040519081016040528092919082600460200280828437600081840152601f19601f82011690508083019250505050505091929192905050506108a9565b604051808215151515815260200191505060405180910390f35b34801561027657600080fd5b506103d6600480360361018081101561028e57600080fd5b8101908080604001906002806020026040519081016040528092919082600260200280828437600081840152601f19601f82011690508083019250505050505091929192908060800190600280602002604051908101604052809291906000905b82821015610343578382604002016002806020026040519081016040528092919082600260200280828437600081840152601f19601f820116905080830192505050505050815260200190600101906102ef565b50505050919291929080604001906002806020026040519081016040528092919082600260200280828437600081840152601f19601f820116905080830192505050505050919291929080608001906004806020026040519081016040528092919082600460200280828437600081840152601f19601f8201169050808301925050505050509192919290505050610b0e565b604051808215151515815260200191505060405180910390f35b3480156103fc57600080fd5b50610405610d73565b6040518082815260200191505060405180910390f35b61048660048036036101a081101561043257600080fd5b81019080803573ffffffffffffffffffffffffffffffffffffffff16906020019092919080604001909192919290806080019091929192908060400190919291929080608001909192919290505050610d79565b005b34801561049457600080fd5b506105f460048036036101e08110156104ac57600080fd5b8101908080604001906002806020026040519081016040528092919082600260200280828437600081840152601f19601f82011690508083019250505050505091929192908060800190600280602002604051908101604052809291906000905b82821015610561578382604002016002806020026040519081016040528092919082600260200280828437600081840152601f19601f8201169050808301925050505050508152602001906001019061050d565b50505050919291929080604001906002806020026040519081016040528092919082600260200280828437600081840152601f19601f82011690508083019250505050505091929192908060e001906007806020026040519081016040528092919082600760200280828437600081840152601f19601f8201169050808301925050505050509192919290505050610f1c565b604051808215151515815260200191505060405180910390f35b610659600480360361018081101561062557600080fd5b8101908080604001909192919290806080019091929192908060400190919291929080608001909192919290505050611181565b005b34801561066757600080fd5b506106706114dd565b6040518082815260200191505060405180910390f35b34801561069257600080fd5b506106d460048036036101008110156106aa57600080fd5b810190808060400190919291929080608001909192919290806040019091929192905050506114e3565b005b3480156106e257600080fd5b5061070f600480360360208110156106f957600080fd5b8101908080359060200190929190505050611a2b565b6040518082600381111561071f57fe5b60ff16815260200191505060405180910390f35b34801561073f57600080fd5b5061076c6004803603602081101561075657600080fd5b8101908080359060200190929190505050611a4b565b604051808473ffffffffffffffffffffffffffffffffffffffff1673ffffffffffffffffffffffffffffffffffffffff1681526020018360048111156107ae57fe5b60ff168152602001828152602001935050505060405180910390f35b3480156107d657600080fd5b50610803600480360360208110156107ed57600080fd5b8101908080359060200190929190505050611aa2565b005b34801561081157600080fd5b5061081a611c94565b604051808273ffffffffffffffffffffffffffffffffffffffff1673ffffffffffffffffffffffffffffffffffffffff16815260200191505060405180910390f35b6108a760048036036101e081101561087357600080fd5b810190808060400190919291929080608001909192919290806040019091929192908060e001909192919290505050611cba565b005b60006108b3615538565b60408051908101604052808760006002811015156108cd57fe5b602002015181526020018760016002811015156108e657fe5b602002015181525081600001819052506040805190810160405280604080519081016040528088600060028110151561091b57fe5b6020020151600060028110151561092e57fe5b6020020151815260200188600060028110151561094757fe5b6020020151600160028110151561095a57fe5b60200201518152508152602001604080519081016040528088600160028110151561098157fe5b6020020151600060028110151561099457fe5b602002015181526020018860016002811015156109ad57fe5b602002015160016002811015156109c057fe5b6020020151815250815250816020018190525060408051908101604052808560006002811015156109ed57fe5b60200201518152602001856001600281101515610a0657fe5b6020020151815250816040018190525060606004604051908082528060200260200182016040528015610a485781602001602082028038833980820191505090505b50905060008090505b6004811015610a96578481600481101515610a6857fe5b60200201518282815181101515610a7b57fe5b90602001906020020181815250508080600101915050610a51565b506000610aa38284611e5b565b1415610aff577f46d48f0a138fd14dfc4a9086422b1a886a0f02eade5d6abef007754fe4b06bc06040518080602001828103825260228152602001806157be6022913960400191505060405180910390a1600192505050610b06565b6000925050505b949350505050565b6000610b18615538565b6040805190810160405280876000600281101515610b3257fe5b60200201518152602001876001600281101515610b4b57fe5b6020020151815250816000018190525060408051908101604052806040805190810160405280886000600281101515610b8057fe5b60200201516000600281101515610b9357fe5b60200201518152602001886000600281101515610bac57fe5b60200201516001600281101515610bbf57fe5b602002015181525081526020016040805190810160405280886001600281101515610be657fe5b60200201516000600281101515610bf957fe5b60200201518152602001886001600281101515610c1257fe5b60200201516001600281101515610c2557fe5b602002015181525081525081602001819052506040805190810160405280856000600281101515610c5257fe5b60200201518152602001856001600281101515610c6b57fe5b6020020151815250816040018190525060606004604051908082528060200260200182016040528015610cad5781602001602082028038833980820191505090505b50905060008090505b6004811015610cfb578481600481101515610ccd57fe5b60200201518282815181101515610ce057fe5b90602001906020020181815250508080600101915050610cb6565b506000610d088284611fe3565b1415610d64577f2cef7d724e9df39531c164620567bd12bd8ca7b47fa53317f1078c2f2d5951ce6040518080602001828103825260228152602001806157be6022913960400191505060405180910390a1600192505050610d6b565b6000925050505b949350505050565b60015481565b3460015481141515610df3576040517f08c379a00000000000000000000000000000000000000000000000000000000081526004018080602001828103825260148152602001807f496e76616c6964207374616b6520616d6f756e7400000000000000000000000081525060200191505060405180910390fd5b610f1486866002806020026040519081016040528092919082600260200280828437600081840152601f19601f82011690508083019250505050505086600280602002604051908101604052809291906000905b82821015610e9b578382604002016002806020026040519081016040528092919082600260200280828437600081840152601f19601f82011690508083019250505050505081526020019060010190610e47565b50505050866002806020026040519081016040528092919082600260200280828437600081840152601f19601f820116905080830192505050505050866004806020026040519081016040528092919082600460200280828437600081840152601f19601f82011690508083019250505050505061216b565b505050505050565b6000610f26615538565b6040805190810160405280876000600281101515610f4057fe5b60200201518152602001876001600281101515610f5957fe5b6020020151815250816000018190525060408051908101604052806040805190810160405280886000600281101515610f8e57fe5b60200201516000600281101515610fa157fe5b60200201518152602001886000600281101515610fba57fe5b60200201516001600281101515610fcd57fe5b602002015181525081526020016040805190810160405280886001600281101515610ff457fe5b6020020151600060028110151561100757fe5b6020020151815260200188600160028110151561102057fe5b6020020151600160028110151561103357fe5b60200201518152508152508160200181905250604080519081016040528085600060028110151561106057fe5b6020020151815260200185600160028110151561107957fe5b60200201518152508160400181905250606060076040519080825280602002602001820160405280156110bb5781602001602082028038833980820191505090505b50905060008090505b60078110156111095784816007811015156110db57fe5b602002015182828151811015156110ee57fe5b906020019060200201818152505080806001019150506110c4565b50600061111682846123a9565b1415611172577ff6cb06d2e93a0bf2c44f15288883c84bd0564b45a72d58a8b0793915bd00eb1b6040518080602001828103825260228152602001806157be6022913960400191505060405180910390a1600192505050611179565b6000925050505b949350505050565b34600154811415156111fb576040517f08c379a00000000000000000000000000000000000000000000000000000000081526004018080602001828103825260148152602001807f496e76616c6964207374616b6520616d6f756e7400000000000000000000000081525060200191505060405180910390fd5b600260009054906101000a900473ffffffffffffffffffffffffffffffffffffffff1673ffffffffffffffffffffffffffffffffffffffff166323b872dd333085600260048110151561124a57fe5b60200201356040518463ffffffff167c0100000000000000000000000000000000000000000000000000000000028152600401808473ffffffffffffffffffffffffffffffffffffffff1673ffffffffffffffffffffffffffffffffffffffff1681526020018373ffffffffffffffffffffffffffffffffffffffff1673ffffffffffffffffffffffffffffffffffffffff1681526020018281526020019350505050602060405180830381600087803b15801561130757600080fd5b505af115801561131b573d6000803e3d6000fd5b505050506040513d602081101561133157600080fd5b810190808051906020019092919050505015156113b6576040517f08c379a00000000000000000000000000000000000000000000000000000000081526004018080602001828103825260188152602001807f646169546f6b656e207472616e73666572206661696c6564000000000000000081525060200191505060405180910390fd5b6114d6856002806020026040519081016040528092919082600260200280828437600081840152601f19601f82011690508083019250505050505085600280602002604051908101604052809291906000905b8282101561145d578382604002016002806020026040519081016040528092919082600260200280828437600081840152601f19601f82011690508083019250505050505081526020019060010190611409565b50505050856002806020026040519081016040528092919082600260200280828437600081840152601f19601f820116905080830192505050505050856004806020026040519081016040528092919082600460200280828437600081840152601f19601f820116905080830192505050505050612531565b5050505050565b60005481565b60006115cd846002806020026040519081016040528092919082600260200280828437600081840152601f19601f82011690508083019250505050505084600280602002604051908101604052809291906000905b8282101561158c578382604002016002806020026040519081016040528092919082600260200280828437600081840152601f19601f82011690508083019250505050505081526020019060010190611538565b50505050846002806020026040519081016040528092919082600260200280828437600081840152601f19601f820116905080830192505050505050612731565b90506000600360008381526020019081526020016000209050600060048111156115f357fe5b8160000160149054906101000a900460ff16600481111561161057fe5b14151515611669576040517f08c379a00000000000000000000000000000000000000000000000000000000081526004018080602001828103825260288152602001806157e06028913960400191505060405180910390fd5b42600054826001015401101515156116cc576040517f08c379a000000000000000000000000000000000000000000000000000000000815260040180806020018281038252602181526020018061579d6021913960400191505060405180910390fd5b600160048111156116d957fe5b8160000160149054906101000a900460ff1660048111156116f657fe5b14156117ea576117e5856002806020026040519081016040528092919082600260200280828437600081840152601f19601f82011690508083019250505050505085600280602002604051908101604052809291906000905b828210156117a3578382604002016002806020026040519081016040528092919082600260200280828437600081840152601f19601f8201169050808301925050505050508152602001906001019061174f565b50505050856002806020026040519081016040528092919082600260200280828437600081840152601f19601f8201169050808301925050505050508561280e565b611a24565b600260048111156117f757fe5b8160000160149054906101000a900460ff16600481111561181457fe5b141561190857611903856002806020026040519081016040528092919082600260200280828437600081840152601f19601f82011690508083019250505050505085600280602002604051908101604052809291906000905b828210156118c1578382604002016002806020026040519081016040528092919082600260200280828437600081840152601f19601f8201169050808301925050505050508152602001906001019061186d565b50505050856002806020026040519081016040528092919082600260200280828437600081840152601f19601f820116905080830192505050505050856129a9565b611a23565b6003600481111561191557fe5b8160000160149054906101000a900460ff16600481111561193257fe5b1415611a2257611a21856002806020026040519081016040528092919082600260200280828437600081840152601f19601f82011690508083019250505050505085600280602002604051908101604052809291906000905b828210156119df578382604002016002806020026040519081016040528092919082600260200280828437600081840152601f19601f8201169050808301925050505050508152602001906001019061198b565b50505050856002806020026040519081016040528092919082600260200280828437600081840152601f19601f82011690508083019250505050505085612b44565b5b5b5b5050505050565b60046020528060005260406000206000915054906101000a900460ff1681565b60036020528060005260406000206000915090508060000160009054906101000a900473ffffffffffffffffffffffffffffffffffffffff16908060000160149054906101000a900460ff16908060010154905083565b600060036000838152602001908152602001600020905060006004811115611ac657fe5b8160000160149054906101000a900460ff166004811115611ae357fe5b14151515611b59576040517f08c379a00000000000000000000000000000000000000000000000000000000081526004018080602001828103825260148152602001807f70726f6f664861736820697320696e76616c696400000000000000000000000081525060200191505060405180910390fd5b42600054826001015401101515611bd8576040517f08c379a00000000000000000000000000000000000000000000000000000000081526004018080602001828103825260118152602001807f4e6f7465206973207374696c6c20686f7400000000000000000000000000000081525060200191505060405180910390fd5b60016004811115611be557fe5b8160000160149054906101000a900460ff166004811115611c0257fe5b1415611c1657611c1182612cdf565b611c90565b60026004811115611c2357fe5b8160000160149054906101000a900460ff166004811115611c4057fe5b1415611c5457611c4f82612f48565b611c8f565b60036004811115611c6157fe5b8160000160149054906101000a900460ff166004811115611c7e57fe5b1415611c8e57611c8d826134c0565b5b5b5b5050565b600260009054906101000a900473ffffffffffffffffffffffffffffffffffffffff1681565b3460015481141515611d34576040517f08c379a00000000000000000000000000000000000000000000000000000000081526004018080602001828103825260148152602001807f496e76616c6964207374616b6520616d6f756e7400000000000000000000000081525060200191505060405180910390fd5b611e54856002806020026040519081016040528092919082600260200280828437600081840152601f19601f82011690508083019250505050505085600280602002604051908101604052809291906000905b82821015611ddb578382604002016002806020026040519081016040528092919082600260200280828437600081840152601f19601f82011690508083019250505050505081526020019060010190611d87565b50505050856002806020026040519081016040528092919082600260200280828437600081840152601f19601f820116905080830192505050505050856007806020026040519081016040528092919082600760200280828437600081840152601f19601f8201169050808301925050505050506138c7565b5050505050565b6000807f30644e72e131a029b85045b68181585d2833e84879b9709143e1f593f00000019050611e8961556d565b611e91613aca565b90508060800151516001865101141515611eaa57600080fd5b611eb26155b6565b6040805190810160405280600081526020016000815250905060008090505b8651811015611f5657838782815181101515611ee957fe5b90602001906020020151101515611eff57600080fd5b611f4782611f42856080015160018501815181101515611f1b57fe5b906020019060200201518a85815181101515611f3357fe5b9060200190602002015161400d565b6140a9565b91508080600101915050611ed1565b50611f7d8183608001516000815181101515611f6e57fe5b906020019060200201516140a9565b9050611fc385600001518660200151611f9584614166565b8560400151611fa78a60400151614166565b8760600151611fb98960000151614166565b8960200151614202565b1515611fd55760019350505050611fdd565b600093505050505b92915050565b6000807f30644e72e131a029b85045b68181585d2833e84879b9709143e1f593f0000001905061201161556d565b612019614386565b9050806080015151600186510114151561203257600080fd5b61203a6155b6565b6040805190810160405280600081526020016000815250905060008090505b86518110156120de5783878281518110151561207157fe5b9060200190602002015110151561208757600080fd5b6120cf826120ca8560800151600185018151811015156120a357fe5b906020019060200201518a858151811015156120bb57fe5b9060200190602002015161400d565b6140a9565b91508080600101915050612059565b5061210581836080015160008151811015156120f657fe5b906020019060200201516140a9565b905061214b8560000151866020015161211d84614166565b856040015161212f8a60400151614166565b87606001516121418960000151614166565b8960200151614202565b151561215d5760019350505050612165565b600093505050505b92915050565b6000612178858585612731565b90506060600160040160ff166040519080825280602002602001820160405280156121b25781602001602082028038833980820191505090505b50905060008090505b600460ff168160ff16101561220c57838160ff166004811015156121db57fe5b6020020151828260ff168151811015156121f157fe5b906020019060200201818152505080806001019150506121bb565b508673ffffffffffffffffffffffffffffffffffffffff1681600460ff1681518110151561223657fe5b90602001906020020181815250506080604051908101604052803373ffffffffffffffffffffffffffffffffffffffff1681526020016003600481111561227957fe5b8152602001428152602001828152506003600084815260200190815260200160002060008201518160000160006101000a81548173ffffffffffffffffffffffffffffffffffffffff021916908373ffffffffffffffffffffffffffffffffffffffff16021790555060208201518160000160146101000a81548160ff0219169083600481111561230657fe5b02179055506040820151816001015560608201518160020190805190602001906123319291906155d0565b509050507f2a8c97f42d106ad000d498a1b6bf713a9365c4c1491e66fddb022f7ed07ab9343383604051808373ffffffffffffffffffffffffffffffffffffffff1673ffffffffffffffffffffffffffffffffffffffff1681526020018281526020019250505060405180910390a150505050505050565b6000807f30644e72e131a029b85045b68181585d2833e84879b9709143e1f593f000000190506123d761556d565b6123df6148c9565b905080608001515160018651011415156123f857600080fd5b6124006155b6565b6040805190810160405280600081526020016000815250905060008090505b86518110156124a45783878281518110151561243757fe5b9060200190602002015110151561244d57600080fd5b6124958261249085608001516001850181518110151561246957fe5b906020019060200201518a8581518110151561248157fe5b9060200190602002015161400d565b6140a9565b9150808060010191505061241f565b506124cb81836080015160008151811015156124bc57fe5b906020019060200201516140a9565b9050612511856000015186602001516124e384614166565b85604001516124f58a60400151614166565b87606001516125078960000151614166565b8960200151614202565b1515612523576001935050505061252b565b600093505050505b92915050565b600061253e858585612731565b9050606060046040519080825280602002602001820160405280156125725781602001602082028038833980820191505090505b50905060008090505b600460ff168160ff1610156125cc57838160ff1660048110151561259b57fe5b6020020151828260ff168151811015156125b157fe5b9060200190602002018181525050808060010191505061257b565b506080604051908101604052803373ffffffffffffffffffffffffffffffffffffffff1681526020016001600481111561260257fe5b8152602001428152602001828152506003600084815260200190815260200160002060008201518160000160006101000a81548173ffffffffffffffffffffffffffffffffffffffff021916908373ffffffffffffffffffffffffffffffffffffffff16021790555060208201518160000160146101000a81548160ff0219169083600481111561268f57fe5b02179055506040820151816001015560608201518160020190805190602001906126ba9291906155d0565b509050507f2a8c97f42d106ad000d498a1b6bf713a9365c4c1491e66fddb022f7ed07ab9343383604051808373ffffffffffffffffffffffffffffffffffffffff1673ffffffffffffffffffffffffffffffffffffffff1681526020018281526020019250505060405180910390a1505050505050565b60008383836040516020018084600260200280838360005b83811015612764578082015181840152602081019050612749565b505050509050018360026000925b818410156127b85782846020020151600260200280838360005b838110156127a757808201518184015260208101905061278c565b505050509050019260010192612772565b9250505082600260200280838360005b838110156127e35780820151818401526020810190506127c8565b5050505090500193505050506040516020818303038152906040528051906020012090509392505050565b600060036000838152602001908152602001600020905061282d61561d565b60008090505b600460ff1681101561287f57826002018181548110151561285057fe5b9060005260206000200154828260048110151561286957fe5b6020020181815250508080600101915050612833565b5061288c86868684610b0e565b15156129975760036000848152602001908152602001600020600080820160006101000a81549073ffffffffffffffffffffffffffffffffffffffff02191690556000820160146101000a81549060ff021916905560018201600090556002820160006128f99190615640565b50503373ffffffffffffffffffffffffffffffffffffffff166108fc6001549081150290604051600060405180830381858888f19350505050158015612943573d6000803e3d6000fd5b503373ffffffffffffffffffffffffffffffffffffffff167f12985fda7f0b862728bca0856b151f93320ceff10cbf6a49d7f294ea0aed8151846040518082815260200191505060405180910390a26129a1565b6129a083612cdf565b5b505050505050565b60006003600083815260200190815260200160002090506129c8615661565b60008090505b600760ff16811015612a1a5782600201818154811015156129eb57fe5b90600052602060002001548282600781101515612a0457fe5b60200201818152505080806001019150506129ce565b50612a2786868684610f1c565b1515612b325760036000848152602001908152602001600020600080820160006101000a81549073ffffffffffffffffffffffffffffffffffffffff02191690556000820160146101000a81549060ff02191690556001820160009055600282016000612a949190615640565b50503373ffffffffffffffffffffffffffffffffffffffff166108fc6001549081150290604051600060405180830381858888f19350505050158015612ade573d6000803e3d6000fd5b503373ffffffffffffffffffffffffffffffffffffffff167f12985fda7f0b862728bca0856b151f93320ceff10cbf6a49d7f294ea0aed8151846040518082815260200191505060405180910390a2612b3c565b612b3b83612f48565b5b505050505050565b6000600360008381526020019081526020016000209050612b6361561d565b60008090505b600460ff16811015612bb5578260020181815481101515612b8657fe5b90600052602060002001548282600481101515612b9f57fe5b6020020181815250508080600101915050612b69565b50612bc2868686846108a9565b1515612ccd5760036000848152602001908152602001600020600080820160006101000a81549073ffffffffffffffffffffffffffffffffffffffff02191690556000820160146101000a81549060ff02191690556001820160009055600282016000612c2f9190615640565b50503373ffffffffffffffffffffffffffffffffffffffff166108fc6001549081150290604051600060405180830381858888f19350505050158015612c79573d6000803e3d6000fd5b503373ffffffffffffffffffffffffffffffffffffffff167f12985fda7f0b862728bca0856b151f93320ceff10cbf6a49d7f294ea0aed8151846040518082815260200191505060405180910390a2612cd7565b612cd6836134c0565b5b505050505050565b60006003600083815260200190815260200160002090506000612d3a826002016000815481101515612d0d57fe5b9060005260206000200154836002016001815481101515612d2a57fe5b9060005260206000200154614f6b565b905060006003811115612d4957fe5b6004600083815260200190815260200160002060009054906101000a900460ff166003811115612d7557fe5b141515612dea576040517f08c379a00000000000000000000000000000000000000000000000000000000081526004018080602001828103825260178152602001807f4e6f74652077617320616c7265616479206d696e74656400000000000000000081525060200191505060405180910390fd5b60016004600083815260200190815260200160002060006101000a81548160ff02191690836003811115612e1a57fe5b021790555060036000848152602001908152602001600020600080820160006101000a81549073ffffffffffffffffffffffffffffffffffffffff02191690556000820160146101000a81549060ff02191690556001820160009055600282016000612e869190615640565b50508160000160009054906101000a900473ffffffffffffffffffffffffffffffffffffffff1673ffffffffffffffffffffffffffffffffffffffff166108fc6001549081150290604051600060405180830381858888f19350505050158015612ef4573d6000803e3d6000fd5b507f91d2faa002479f8dc4f20862402db3dba2ebe927031674997d38e5b70d9877e781600160405180838152602001826003811115612f2f57fe5b60ff1681526020019250505060405180910390a1505050565b6000600360008381526020019081526020016000209050612f67615684565b612fc282600201805480602002602001604051908101604052809291908181526020018280548015612fb857602002820191906000526020600020905b815481526020019060010190808311612fa4575b50505050506150c9565b905060016003811115612fd157fe5b60046000836000600381101515612fe457fe5b6020020151815260200190815260200160002060009054906101000a900460ff16600381111561301057fe5b141515613068576040517f08c379a00000000000000000000000000000000000000000000000000000000081526004018080602001828103825260278152602001806157766027913960400191505060405180910390fd5b6000600381111561307557fe5b6004600083600160038110151561308857fe5b6020020151815260200190815260200160002060009054906101000a900460ff1660038111156130b457fe5b141515613129576040517f08c379a000000000000000000000000000000000000000000000000000000000815260040180806020018281038252601e8152602001807f6f7574707574206e6f74653120697320616c7265616479206d696e746564000081525060200191505060405180910390fd5b6000600381111561313657fe5b6004600083600260038110151561314957fe5b6020020151815260200190815260200160002060009054906101000a900460ff16600381111561317557fe5b1415156131ea576040517f08c379a000000000000000000000000000000000000000000000000000000000815260040180806020018281038252601e8152602001807f6f7574707574206e6f74653220697320616c7265616479206d696e746564000081525060200191505060405180910390fd5b6002600460008360006003811015156131ff57fe5b6020020151815260200190815260200160002060006101000a81548160ff0219169083600381111561322d57fe5b021790555060016004600083600160038110151561324757fe5b6020020151815260200190815260200160002060006101000a81548160ff0219169083600381111561327557fe5b021790555060016004600083600260038110151561328f57fe5b6020020151815260200190815260200160002060006101000a81548160ff021916908360038111156132bd57fe5b021790555060036000848152602001908152602001600020600080820160006101000a81549073ffffffffffffffffffffffffffffffffffffffff02191690556000820160146101000a81549060ff021916905560018201600090556002820160006133299190615640565b50508160000160009054906101000a900473ffffffffffffffffffffffffffffffffffffffff1673ffffffffffffffffffffffffffffffffffffffff166108fc6001549081150290604051600060405180830381858888f19350505050158015613397573d6000803e3d6000fd5b507f91d2faa002479f8dc4f20862402db3dba2ebe927031674997d38e5b70d9877e78160006003811015156133c857fe5b60200201516002604051808381526020018260038111156133e557fe5b60ff1681526020019250505060405180910390a17f91d2faa002479f8dc4f20862402db3dba2ebe927031674997d38e5b70d9877e781600160038110151561342957fe5b602002015160016040518083815260200182600381111561344657fe5b60ff1681526020019250505060405180910390a17f91d2faa002479f8dc4f20862402db3dba2ebe927031674997d38e5b70d9877e781600260038110151561348a57fe5b60200201516001604051808381526020018260038111156134a757fe5b60ff1681526020019250505060405180910390a1505050565b6000600360008381526020019081526020016000209050600061351b8260020160008154811015156134ee57fe5b906000526020600020015483600201600181548110151561350b57fe5b9060005260206000200154614f6b565b90506001600381111561352a57fe5b6004600083815260200190815260200160002060009054906101000a900460ff16600381111561355657fe5b1415156135ae576040517f08c379a00000000000000000000000000000000000000000000000000000000081526004018080602001828103825260278152602001806157766027913960400191505060405180910390fd5b60026004600083815260200190815260200160002060006101000a81548160ff021916908360038111156135de57fe5b02179055508160000160009054906101000a900473ffffffffffffffffffffffffffffffffffffffff1673ffffffffffffffffffffffffffffffffffffffff166108fc6001549081150290604051600060405180830381858888f1935050505015801561364f573d6000803e3d6000fd5b50600082600201600460ff1681548110151561366757fe5b90600052602060002001549050600083600201600281548110151561368857fe5b9060005260206000200154905060036000868152602001908152602001600020600080820160006101000a81549073ffffffffffffffffffffffffffffffffffffffff02191690556000820160146101000a81549060ff021916905560018201600090556002820160006136fc9190615640565b5050600260009054906101000a900473ffffffffffffffffffffffffffffffffffffffff1673ffffffffffffffffffffffffffffffffffffffff1663a9059cbb83836040518363ffffffff167c0100000000000000000000000000000000000000000000000000000000028152600401808373ffffffffffffffffffffffffffffffffffffffff1673ffffffffffffffffffffffffffffffffffffffff16815260200182815260200192505050602060405180830381600087803b1580156137c357600080fd5b505af11580156137d7573d6000803e3d6000fd5b505050506040513d60208110156137ed57600080fd5b81019080805190602001909291905050501515613872576040517f08c379a00000000000000000000000000000000000000000000000000000000081526004018080602001828103825260188152602001807f646169546f6b656e207472616e73666572206661696c6564000000000000000081525060200191505060405180910390fd5b7f91d2faa002479f8dc4f20862402db3dba2ebe927031674997d38e5b70d9877e7836002604051808381526020018260038111156138ac57fe5b60ff1681526020019250505060405180910390a15050505050565b60006138d4858585612731565b90506060600760ff1660405190808252806020026020018201604052801561390b5781602001602082028038833980820191505090505b50905060008090505b600760ff168160ff16101561396557838160ff1660078110151561393457fe5b6020020151828260ff1681518110151561394a57fe5b90602001906020020181815250508080600101915050613914565b506080604051908101604052803373ffffffffffffffffffffffffffffffffffffffff1681526020016002600481111561399b57fe5b8152602001428152602001828152506003600084815260200190815260200160002060008201518160000160006101000a81548173ffffffffffffffffffffffffffffffffffffffff021916908373ffffffffffffffffffffffffffffffffffffffff16021790555060208201518160000160146101000a81548160ff02191690836004811115613a2857fe5b0217905550604082015181600101556060820151816002019080519060200190613a539291906155d0565b509050507f2a8c97f42d106ad000d498a1b6bf713a9365c4c1491e66fddb022f7ed07ab9343383604051808373ffffffffffffffffffffffffffffffffffffffff1673ffffffffffffffffffffffffffffffffffffffff1681526020018281526020019250505060405180910390a1505050505050565b613ad261556d565b60408051908101604052807f08e8fd47f4f47ca3bf35d3549cc9cbc9ee4980e7555623215f325533055db98481526020017effd309565aa419ab4d5b0b1356a42cbd79a90b7bf5842ec7d77fbc903ec48c8152508160000181905250604080519081016040528060408051908101604052807f191aea51714d75793ebce74e92140ff5b9a72b2b21db0e7d38a9a6f6ec561e2781526020017f125e351f64102e5ed7413e9e1ae39fcda03f94b4952ae5024c1a979032fe17a6815250815260200160408051908101604052807f2a38351dc02090cf4c992e0e79c380add7cf09e2efc156ec8638c44cb2659ae581526020017f2057aa937ac295a24afe5fe8f41bf3b726c1e9a747a3d82112eb6f21a7249e348152508152508160200181905250604080519081016040528060408051908101604052807f1596ddc83d27b9fc3e437ecfce0cfb1183aa2ec3218fe47b0dc87260e58cec0181526020017f1d1caa5d4c2f3eaf4e4a1c5834a843fa144f4ee7543144ab36cbed2d295b34b4815250815260200160408051908101604052807f082e72deb2bdb3f1c744d2faed40b40a8e0095857798f5271c975574e461682381526020017f22da6530029c6e8b34899b20fe962bcebae94f93f737268376261dd6710badc18152508152508160400181905250604080519081016040528060408051908101604052807f155465dc68c4a17a3844dca002ef1b0b361552491432dff1103ef28d66548afd81526020017f26a9b5195a4b0a709767168cfb17ffe6b006671136407b9291f20eab14133250815250815260200160408051908101604052807f15d2db06487070c5abfe868a56d6db291353a00e87a7649355e47cc04a72d94381526020017f2e8c476822f4f14713679e51ec81f3ecd7a4e058b0a8210792c16b9c5237de8981525081525081606001819052506005604051908082528060200260200182016040528015613db857816020015b613da56156a7565b815260200190600190039081613d9d5790505b50816080018190525060408051908101604052807f045a076654acaecf344e8d6baeac13d52868fc24c9b07a948630a01a0403307f81526020017f08781c8e5717b83d3841478ec85437ce512b9db47bc88e2d9deff51f4cc5233581525081608001516000815181101515613e2957fe5b9060200190602002018190525060408051908101604052807f030852bafbd1dca04aa84803d07f6210ab89f1b76ddecc2f530fc5bdcd9115d281526020017f134807c24cc6469a59ce3ab93874d819f1e471f432bc0381ecede614c0dfc99981525081608001516001815181101515613e9e57fe5b9060200190602002018190525060408051908101604052807f229b98cb8f8aeabfd356cd7bb196730fce607346d63bb1947fed7dabdcea5e7581526020017f1edebbc7d906f9fff4f4f68ac6830e02a8850468920c597e7d121b88f8cbc3df81525081608001516002815181101515613f1357fe5b9060200190602002018190525060408051908101604052807f1396ecbae3a957f73a2becd5490d94ca78d8506c6970fb7c52b4245c3f66775481526020017f2667d1e395f4c72043b442b51ba566c5d690c7d4cf03f40f7ed37ae9f3b2e70e81525081608001516003815181101515613f8857fe5b9060200190602002018190525060408051908101604052807f10dead365b530b87ec9aadc7ac7aa5dc2501f88a9c0dcac8f23290d6f087461281526020017f0ec800383d251bc69c0d9add8bd57daec637178b1a0663ef5b0362c545709c0b81525081608001516004815181101515613ffd57fe5b9060200190602002018190525090565b6140156155b6565b61401d6156c1565b836000015181600060038110151561403157fe5b602002018181525050836020015181600160038110151561404e57fe5b6020020181815250508281600260038110151561406757fe5b6020020181815250506000606083608084600060076107d05a03f19050806000811461409257614094565bfe5b508015156140a157600080fd5b505092915050565b6140b16155b6565b6140b961561d565b83600001518160006004811015156140cd57fe5b60200201818152505083602001518160016004811015156140ea57fe5b602002018181525050826000015181600260048110151561410757fe5b602002018181525050826020015181600360048110151561412457fe5b602002018181525050600060608360c084600060066107d05a03f19050806000811461414f57614151565bfe5b5080151561415e57600080fd5b505092915050565b61416e6155b6565b60007f30644e72e131a029b85045b68181585d97816a916871ca8d3c208c16d87cfd479050600083600001511480156141ab575060008360200151145b156141cf5760408051908101604052806000815260200160008152509150506141fd565b6040805190810160405280846000015181526020018285602001518115156141f357fe5b0683038152509150505b919050565b60006060600460405190808252806020026020018201604052801561424157816020015b61422e6156a7565b8152602001906001900390816142265790505b5090506060600460405190808252806020026020018201604052801561428157816020015b61426e6156e4565b8152602001906001900390816142665790505b5090508a82600081518110151561429457fe5b90602001906020020181905250888260018151811015156142b157fe5b90602001906020020181905250868260028151811015156142ce57fe5b90602001906020020181905250848260038151811015156142eb57fe5b906020019060200201819052508981600081518110151561430857fe5b906020019060200201819052508781600181518110151561432557fe5b906020019060200201819052508581600281518110151561434257fe5b906020019060200201819052508381600381518110151561435f57fe5b9060200190602002018190525061437682826151cc565b9250505098975050505050505050565b61438e61556d565b60408051908101604052807f2d230435ed81e89d8e0a48208b7fcc9330775c37260245ebbf62b747ab3896b181526020017f27723277bbf42d9ff40ff2c7eca1318c09729cfe72d68a1ece45be7e7a91252e8152508160000181905250604080519081016040528060408051908101604052807f227b38a6274edac4ce1b114d38dff05f37a3f27d630f0659a916d2340986192481526020017f266f2a8ece7d869b125214fa02eeb37082b4cf1ff6cc3a21eeeefc287b3a89ba815250815260200160408051908101604052807f092103cce1d4e38aa89dd83a7fb490632fab17549e11458b3c78c5c498604a8c81526020017e4e93482d4333208b2455d0bdc57dcf08f56c94952acf0102e57cabe16330918152508152508160200181905250604080519081016040528060408051908101604052807f08fc13c656dbdd7eeaac226e82682b9e1dbc98042089d479cb24d98cf48f4cbf81526020017f195ec16c3c6581a4809bbf7c88e4293fb2a8ca075a708d583578d49363ebef9e815250815260200160408051908101604052807f1ef77e3ce1971994ee685b0d49658834358d8849762be160c11830c1a0c5892681526020017f28cca35656c2ba7ab4d94470df48b8ed6c337ae59a90c710f77ad4c421ec8bf08152508152508160400181905250604080519081016040528060408051908101604052807f02de3487c578091d38763c53b7a140c6aba4e26b9445055a890319d6ca0b39c181526020017f2a467f8c8afdf9dc7e29e706a92a743f23dfc2d2443834b63d91991c13131114815250815260200160408051908101604052807f0a0d152a3028b4c3ea719e856c541ed2666967c3d93fbacbf2f0ee69d96843bc81526020017f1edc8dd0b5afa5c2bd467f72bfcbb1cff2eb5eeb4ac1bdf65e4debfd10f437c78152508152508160600181905250600560405190808252806020026020018201604052801561467457816020015b6146616156a7565b8152602001906001900390816146595790505b50816080018190525060408051908101604052807f01d06e6803123241d6d5a86720bf67c05ae719e0da4ed2bb3245158939665b8581526020017f295e9ddd9ed93bcf546215fb99716454cb3e5457dc2eed299a309b13c03168b4815250816080015160008151811015156146e557fe5b9060200190602002018190525060408051908101604052807f179d3c0c35c9529e03dea9736a1003a5d7d47696a15f66b55efaa4fe252b9cf281526020017f10cbeda377e8d21311326fac86b119a7afd0ecd92a9008a8a6fb477f36e61fd58152508160800151600181518110151561475a57fe5b9060200190602002018190525060408051908101604052807f0a858384e95aac8721d737da3f82c4baa72de63c5f4d03947fe1cd496635d9a081526020017f2550920274f4b612b19b2b7e8515fee246930d8d915403da5ad6fb9fcc6b57ef815250816080015160028151811015156147cf57fe5b9060200190602002018190525060408051908101604052807f0cc2dedee68da121243b09bdae6c7ef95e5570aa4151722157e8d90bcffdb0ca81526020017f0cdd0f9be81b131787ccb479894197f0949d1a30b92029242dd1f6bc6f9509c68152508160800151600381518110151561484457fe5b9060200190602002018190525060408051908101604052807f0272500928eb81b401bb5a6ec03640fd5e0cd8a63f5eaec768bc7bf950ab4df481526020017f2ccff81ae6c5aad64bc96e30751d64e080c02a03c5cc2bba1c92d75366be99c8815250816080015160048151811015156148b957fe5b9060200190602002018190525090565b6148d161556d565b60408051908101604052807f1a98ac48fe2018f84f58a2906156cedd87059554be66822c8443397426bc62a781526020017f03db6d4b9d0c6621e37c5f2329a2212b4ddc29f46607e9a80d5941676e25edb78152508160000181905250604080519081016040528060408051908101604052807f1b735ac6d76ea2df5007c6388a1d2607b799e35c30e9519da33953da9d43db6f81526020017f0c2a204b6cf7546ebc106470781153a8f110a61e2ab8ecd99ac77cb09b922ae1815250815260200160408051908101604052807f180dd416bf72c1188ecdf599eee773f5b4e303e9efe35eb04e33f277e952f5be81526020017f1e35b197f94262f5fe64d0fe32af60ca51449435f6bf941df65b0d2a2942f6f78152508152508160200181905250604080519081016040528060408051908101604052807f26f0cdc4bf30d13dc2cf6367e49445fc59abcba315def5e1b3729af927e6a6c581526020017f065bd09ff773ec638084cf183c96d3178d3d5fd44206a7f9b6c8aa72b3dc52ac815250815260200160408051908101604052807f15d1ad4691023d57db5a06ce69f081fa9e61d176e8c9a40e4a446c27b17291ae81526020017f2b41d1b082947fff6fd5a5df399e59d9440d1faa701e4768ad8a460fd41dbde28152508152508160400181905250604080519081016040528060408051908101604052807f2c4a26f13a3b4888403d5b917ca0b586a2f708955a89d25b3f5f75308d84513581526020017f208605906c040f4aefde123c8939f8417ef0774f59c13dd08ffdb1248f78e84c815250815260200160408051908101604052807f0b7695268fa677103881aa934f7e45ac4ed626c33390477b851bb3ce6ee146dd81526020017f2f2fcdb0f059b6270527c5d46e3eb1af9f7463ab1ed58438c42187aa094055fc81525081525081606001819052506008604051908082528060200260200182016040528015614bb857816020015b614ba56156a7565b815260200190600190039081614b9d5790505b50816080018190525060408051908101604052807f0a65dc2d653564f4ea5a987bb92725e16860f9c2ed63f26663e4ea1dd201495581526020017f05edc87f90a596723787e36afc4da0d32c02f77788610349b4f875da59cc45d481525081608001516000815181101515614c2957fe5b9060200190602002018190525060408051908101604052807f1ac7c460c4d1553f7f303d1f384fbfb9fbfc5a14e963ed3ae75f14ae561fea8381526020017f16ea6aeb7d297d3e924d9802151cfa2f24b72e23c19dcf508930f5c7be2d2d0a81525081608001516001815181101515614c9e57fe5b9060200190602002018190525060408051908101604052807f09262c81daea9019fa2a153007bc7aefda07852ba846f177e3b5259525c68cb881526020017f1a1e2e4c0fc4ffb7f2423043d83236654c84a51b2240c33ac609b15bc684c58781525081608001516002815181101515614d1357fe5b9060200190602002018190525060408051908101604052807f1dcf0c809f804ea9e2cedb16407dd89f5af0f0b7ab211628fe51c4a9d06f3eef81526020017f0d39d3271f58f96eec3799622b14c869d76f421aa0c0a657d27f015fa6939a8781525081608001516003815181101515614d8857fe5b9060200190602002018190525060408051908101604052807f09ee43f5e8cdbe9d12fa57ae149ebde674532a40e0462f3b53b2e7a00768a28081526020017f13f3a99dff58fa02e9b4b636e12708f61b8c8acfa176b9589d954310b4d4305d81525081608001516004815181101515614dfd57fe5b9060200190602002018190525060408051908101604052807e60f976268eb38393a3c16ca02613d04deb4873399b911ba31e9d3c9f83a40981526020017f25610bd7ac6c62d0a575176f60f461b45852a7667c82bb0cb90654ab442e660f81525081608001516005815181101515614e7157fe5b9060200190602002018190525060408051908101604052807f220b9534234001a50b76a0240ff70316868b988596137240f9c8c2aa2b953d4781526020017f0267d3165a1bf80e633dd90bce7fd86c95913242de0b7ecb62824756cfff3c0f81525081608001516006815181101515614ee657fe5b9060200190602002018190525060408051908101604052807f19bf56a5653c8988330352dd2cb1d594594c872bb8932961b45390badec2275181526020017f13cfe41af18911a33c1bc1fe167df2aa75476b439abe3c488eff21c2d70c29e181525081608001516007815181101515614f5b57fe5b9060200190602002018190525090565b6000808360010290506000836001029050606060206040519080825280601f01601f191660200182016040528015614fb25781602001600182028038833980820191505090505b50905060008090505b60108110156150b2578381601081101515614fd257fe5b1a7f010000000000000000000000000000000000000000000000000000000000000002828281518110151561500357fe5b9060200101907effffffffffffffffffffffffffffffffffffffffffffffffffffffffffffff1916908160001a905350828160108110151561504157fe5b1a7f010000000000000000000000000000000000000000000000000000000000000002828260100181518110151561507557fe5b9060200101907effffffffffffffffffffffffffffffffffffffffffffffffffffffffffffff1916908160001a9053508080600101915050614fbb565b506150be81600061545f565b935050505092915050565b6150d1615684565b61510b8260008151811015156150e357fe5b906020019060200201518360018151811015156150fc57fe5b90602001906020020151614f6b565b81600060038110151561511a57fe5b60200201818152505061515d82600281518110151561513557fe5b9060200190602002015183600381518110151561514e57fe5b90602001906020020151614f6b565b81600160038110151561516c57fe5b6020020181815250506151af82600481518110151561518757fe5b906020019060200201518360058151811015156151a057fe5b90602001906020020151614f6b565b8160026003811015156151be57fe5b602002018181525050919050565b6000815183511415156151de57600080fd5b600083519050600060068202905060608160405190808252806020026020018201604052801561521d5781602001602082028038833980820191505090505b50905060008090505b838110156153fb57868181518110151561523c57fe5b9060200190602002015160000151826000600684020181518110151561525e57fe5b9060200190602002018181525050868181518110151561527a57fe5b9060200190602002015160200151826001600684020181518110151561529c57fe5b906020019060200201818152505085818151811015156152b857fe5b906020019060200201516000015160006002811015156152d457fe5b602002015182600260068402018151811015156152ed57fe5b9060200190602002018181525050858181518110151561530957fe5b9060200190602002015160000151600160028110151561532557fe5b6020020151826003600684020181518110151561533e57fe5b9060200190602002018181525050858181518110151561535a57fe5b9060200190602002015160200151600060028110151561537657fe5b6020020151826004600684020181518110151561538f57fe5b906020019060200201818152505085818151811015156153ab57fe5b906020019060200201516020015160016002811015156153c757fe5b602002015182600560068402018151811015156153e057fe5b90602001906020020181815250508080600101915050615226565b5061540461570b565b60006020826020860260208601600060086107d05a03f19050806000811461542b5761542d565bfe5b5080151561543a57600080fd5b600082600060018110151561544b57fe5b602002015114159550505050505092915050565b600080600090505b6020811015615531576008810260ff7f010000000000000000000000000000000000000000000000000000000000000002858386018151811015156154a857fe5b9060200101517f010000000000000000000000000000000000000000000000000000000000000090047f010000000000000000000000000000000000000000000000000000000000000002167effffffffffffffffffffffffffffffffffffffffffffffffffffffffffffff1916908060020a8204915050821791508080600101915050615467565b5092915050565b6101006040519081016040528061554d6156a7565b815260200161555a6156e4565b81526020016155676156a7565b81525090565b6101e0604051908101604052806155826156a7565b815260200161558f6156e4565b815260200161559c6156e4565b81526020016155a96156e4565b8152602001606081525090565b604080519081016040528060008152602001600081525090565b82805482825590600052602060002090810192821561560c579160200282015b8281111561560b5782518255916020019190600101906155f0565b5b509050615619919061572e565b5090565b608060405190810160405280600490602082028038833980820191505090505090565b508054600082559060005260206000209081019061565e919061572e565b50565b60e060405190810160405280600790602082028038833980820191505090505090565b606060405190810160405280600390602082028038833980820191505090505090565b604080519081016040528060008152602001600081525090565b606060405190810160405280600390602082028038833980820191505090505090565b6080604051908101604052806156f8615753565b8152602001615705615753565b81525090565b602060405190810160405280600190602082028038833980820191505090505090565b61575091905b8082111561574c576000816000905550600101615734565b5090565b90565b604080519081016040528060029060208202803883398082019150509050509056fe4e6f74652069732065697468657220696e76616c6964206f7220616c7265616479207370656e744e6f74652063616e6e6f74206265206368616c6c656e67656420616e796d6f72655472616e73616374696f6e207375636365737366756c6c792076657269666965642e436f72726573706f6e64696e672068617368206f662070726f6f6620646f65736e74206578697374a165627a7a72305820d1a9dca89b6f6ccbaa91bc03b3a537c320f7f758749ce4436498181646a0f3860029",
  "source": "pragma solidity ^0.5.2;\n\nimport \"@openzeppelin/contracts/token/ERC20/ERC20.sol\";\nimport \"./MintNotes.sol\";\nimport \"./SpendNotes.sol\";\nimport \"./LiquidateNotes.sol\";\n\n\ncontract ZkDai is MintNotes, SpendNotes, LiquidateNotes {\n\n  modifier validStake(uint256 _stake)\n  {\n      require(_stake == stake, \"Invalid stake amount\");\n      _;\n  }\n\n  constructor(uint256 _cooldown, uint256 _stake, address daiTokenAddress)\n    public\n  {\n      cooldown = _cooldown;\n      stake = _stake;\n      dai = ERC20(daiTokenAddress);\n  }\n\n  /**\n  * @dev Transfers specified number of dai tokens to itself and submits the zkSnark proof to mint a new note\n  * @notice params: a, a_p, b, b_p, c, c_p, h, k zkSnark parameters\n  * @param input Public inputs of the zkSnark\n  */\n  function mint(\n      uint256[2] calldata a,\n      uint256[2][2] calldata b,\n      uint256[2] calldata c,\n      uint256[4] calldata input)\n    external\n    payable\n    validStake(msg.value)\n  {\n      require(\n        dai.transferFrom(msg.sender, address(this), uint256(input[2]) /* value */),\n        \"daiToken transfer failed\"\n      );\n      MintNotes.submit(a, b, c, input);\n  }\n\n  /**\n  * @dev Submits the zkSnark proof to be able to spend a note and create two new notes\n  * @notice params: a, a_p, b, b_p, c, c_p, h, k zkSnark parameters\n  * @param input Public inputs of the zkSnark\n  */\n  function spend(\n      uint256[2] calldata a,\n      uint256[2][2] calldata b,\n      uint256[2] calldata c,\n      uint256[7] calldata input)\n    external\n    payable\n    validStake(msg.value)\n  {\n      SpendNotes.submit(a, b, c, input);\n  }\n\n  /**\n  * @dev Liquidate a note to transfer the equivalent amount of dai to the recipient\n  * @param to Recipient of the dai tokens\n  * @notice params: a, a_p, b, b_p, c, c_p, h, k zkSnark parameters\n  * @param input Public inputs of the zkSnark\n  */\n  function liquidate(\n      address to,\n      uint256[2] calldata a,\n      uint256[2][2] calldata b,\n      uint256[2] calldata c,\n      uint256[4] calldata input)\n    external\n    payable\n    validStake(msg.value)\n  {\n      LiquidateNotes.submit(to, a, b, c,input);\n  }\n\n  /**\n  * @dev Challenge the mint or spend proofs and claim the stake amount if challenge passes.\n  * @notice If challenge passes, the challenger claims the stake amount,\n  *         otherwise note(s) are committed/spent and stake is transferred back to proof submitter.\n  * @notice params: a, a_p, b, b_p, c, c_p, h, k zkSnark parameters of the challenged proof\n  */\n  function challenge(\n      uint256[2] calldata a,\n      uint256[2][2] calldata b,\n      uint256[2] calldata c)\n    external\n  {\n      bytes32 proofHash = getProofHash(a, b, c);\n      Submission storage submission = submissions[proofHash];\n      require(submission.sType != SubmissionType.Invalid, \"Corresponding hash of proof doesnt exist\");\n      require(submission.submittedAt + cooldown >= now, \"Note cannot be challenged anymore\");\n      if (submission.sType == SubmissionType.Mint) {\n        MintNotes.challenge(a, b, c, proofHash);\n      } else if (submission.sType == SubmissionType.Spend) {\n        SpendNotes.challenge(a, b, c, proofHash);\n      } else if (submission.sType == SubmissionType.Liquidate) {\n        LiquidateNotes.challenge(a, b, c, proofHash);\n      }\n  }\n\n  /**\n  * @dev Commit a particular proof once the challenge period has ended\n  * @param proofHash Hash of the proof that needs to be committed\n  */\n  function commit(bytes32 proofHash)\n    public\n  {\n      Submission storage submission = submissions[proofHash];\n      require(submission.sType != SubmissionType.Invalid, \"proofHash is invalid\");\n      require(submission.submittedAt + cooldown < now, \"Note is still hot\");\n      if (submission.sType == SubmissionType.Mint) {\n        mintCommit(proofHash);\n      } else if (submission.sType == SubmissionType.Spend) {\n        spendCommit(proofHash);\n      } else if (submission.sType == SubmissionType.Liquidate) {\n        liquidateCommit(proofHash);\n      }\n  }\n}\n",
  "sourcePath": "/home/boo/work/LightningZKP/contracts/ZKDai.sol",
  "compiler": {
    "name": "solc",
    "version": "0.5.2+commit.1df8f40c.Emscripten.clang"
  },
  "schemaVersion": "3.0.11",
  "updatedAt": "2019-08-21T06:46:53.953Z",
  "devdoc": {
    "methods": {
      "challenge(uint256[2],uint256[2][2],uint256[2])": {
        "details": "Challenge the mint or spend proofs and claim the stake amount if challenge passes."
      },
      "commit(bytes32)": {
        "details": "Commit a particular proof once the challenge period has ended",
        "params": {
          "proofHash": "Hash of the proof that needs to be committed"
        }
      },
      "liquidate(address,uint256[2],uint256[2][2],uint256[2],uint256[4])": {
        "details": "Liquidate a note to transfer the equivalent amount of dai to the recipient",
        "params": {
          "input": "Public inputs of the zkSnark",
          "to": "Recipient of the dai tokens"
        }
      },
      "mint(uint256[2],uint256[2][2],uint256[2],uint256[4])": {
        "details": "Transfers specified number of dai tokens to itself and submits the zkSnark proof to mint a new note",
        "params": {
          "input": "Public inputs of the zkSnark"
        }
      },
      "spend(uint256[2],uint256[2][2],uint256[2],uint256[7])": {
        "details": "Submits the zkSnark proof to be able to spend a note and create two new notes",
        "params": {
          "input": "Public inputs of the zkSnark"
        }
      }
    }
  },
  "userdoc": {
    "methods": {
      "challenge(uint256[2],uint256[2][2],uint256[2])": {
        "notice": "If challenge passes, the challenger claims the stake amount,        otherwise note(s) are committed/spent and stake is transferred back to proof submitter.params: a, a_p, b, b_p, c, c_p, h, k zkSnark parameters of the challenged proof"
      },
      "liquidate(address,uint256[2],uint256[2][2],uint256[2],uint256[4])": {
        "notice": "params: a, a_p, b, b_p, c, c_p, h, k zkSnark parameters"
      },
      "mint(uint256[2],uint256[2][2],uint256[2],uint256[4])": {
        "notice": "params: a, a_p, b, b_p, c, c_p, h, k zkSnark parameters"
      },
      "spend(uint256[2],uint256[2][2],uint256[2],uint256[7])": {
        "notice": "params: a, a_p, b, b_p, c, c_p, h, k zkSnark parameters"
      }
    }
  }
}